{
  "abi": [
    {
      "inputs": [
        {
          "internalType": "address",
          "name": "_usdcp",
          "type": "address"
        }
      ],
      "stateMutability": "nonpayable",
      "type": "constructor"
    },
    {
      "anonymous": false,
      "inputs": [
        {
          "indexed": true,
          "internalType": "bytes32",
          "name": "depositId",
          "type": "bytes32"
        },
        {
          "indexed": true,
          "internalType": "address",
          "name": "recipient",
          "type": "address"
        },
        {
          "indexed": false,
          "internalType": "uint256",
          "name": "amount",
          "type": "uint256"
        },
        {
          "indexed": false,
          "internalType": "bytes32",
          "name": "publicChainTxHash",
          "type": "bytes32"
        }
      ],
      "name": "DepositProcessed",
      "type": "event"
    },
    {
      "anonymous": false,
      "inputs": [
        {
          "indexed": true,
          "internalType": "address",
          "name": "operator",
          "type": "address"
        }
      ],
      "name": "OperatorAdded",
      "type": "event"
    },
    {
      "anonymous": false,
      "inputs": [
        {
          "indexed": true,
          "internalType": "address",
          "name": "operator",
          "type": "address"
        }
      ],
      "name": "OperatorRemoved",
      "type": "event"
    },
    {
      "anonymous": false,
      "inputs": [
        {
          "indexed": true,
          "internalType": "bytes32",
          "name": "withdrawId",
          "type": "bytes32"
        }
      ],
      "name": "WithdrawProcessed",
      "type": "event"
    },
    {
      "anonymous": false,
      "inputs": [
        {
          "indexed": true,
          "internalType": "bytes32",
          "name": "withdrawId",
          "type": "bytes32"
        },
        {
          "indexed": true,
          "internalType": "address",
          "name": "from",
          "type": "address"
        },
        {
          "indexed": false,
          "internalType": "uint256",
          "name": "amount",
          "type": "uint256"
        },
        {
          "indexed": false,
          "internalType": "address",
          "name": "publicChainRecipient",
          "type": "address"
        }
      ],
      "name": "WithdrawRequested",
      "type": "event"
    },
    {
      "inputs": [
        {
          "internalType": "address",
          "name": "operator",
          "type": "address"
        }
      ],
      "name": "addOperator",
      "outputs": [],
      "stateMutability": "nonpayable",
      "type": "function"
    },
    {
      "inputs": [
        {
          "internalType": "bytes32",
          "name": "withdrawId",
          "type": "bytes32"
        }
      ],
      "name": "getWithdrawRequest",
      "outputs": [
        {
          "internalType": "address",
          "name": "from",
          "type": "address"
        },
        {
          "internalType": "uint256",
          "name": "amount",
          "type": "uint256"
        },
        {
          "internalType": "address",
          "name": "publicChainRecipient",
          "type": "address"
        },
        {
          "internalType": "uint256",
          "name": "timestamp",
          "type": "uint256"
        },
        {
          "internalType": "bool",
          "name": "processed",
          "type": "bool"
        }
      ],
      "stateMutability": "view",
      "type": "function"
    },
    {
      "inputs": [
        {
          "internalType": "bytes32",
          "name": "depositId",
          "type": "bytes32"
        }
      ],
      "name": "isDepositProcessed",
      "outputs": [
        {
          "internalType": "bool",
          "name": "",
          "type": "bool"
        }
      ],
      "stateMutability": "view",
      "type": "function"
    },
    {
      "inputs": [
        {
          "internalType": "bytes32",
          "name": "withdrawId",
          "type": "bytes32"
        }
      ],
      "name": "markWithdrawProcessed",
      "outputs": [],
      "stateMutability": "nonpayable",
      "type": "function"
    },
    {
      "inputs": [
        {
          "internalType": "address",
          "name": "",
          "type": "address"
        }
      ],
      "name": "operators",
      "outputs": [
        {
          "internalType": "bool",
          "name": "",
          "type": "bool"
        }
      ],
      "stateMutability": "view",
      "type": "function"
    },
    {
      "inputs": [],
      "name": "owner",
      "outputs": [
        {
          "internalType": "address",
          "name": "",
          "type": "address"
        }
      ],
      "stateMutability": "view",
      "type": "function"
    },
    {
      "inputs": [
        {
          "internalType": "address",
          "name": "recipient",
          "type": "address"
        },
        {
          "internalType": "uint256",
          "name": "amount",
          "type": "uint256"
        },
        {
          "internalType": "bytes32",
          "name": "publicChainTxHash",
          "type": "bytes32"
        }
      ],
      "name": "processDeposit",
      "outputs": [],
      "stateMutability": "nonpayable",
      "type": "function"
    },
    {
      "inputs": [
        {
          "internalType": "bytes32",
          "name": "",
          "type": "bytes32"
        }
      ],
      "name": "processedDeposits",
      "outputs": [
        {
          "internalType": "bool",
          "name": "",
          "type": "bool"
        }
      ],
      "stateMutability": "view",
      "type": "function"
    },
    {
      "inputs": [
        {
          "internalType": "address",
          "name": "operator",
          "type": "address"
        }
      ],
      "name": "removeOperator",
      "outputs": [],
      "stateMutability": "nonpayable",
      "type": "function"
    },
    {
      "inputs": [
        {
          "internalType": "uint256",
          "name": "amount",
          "type": "uint256"
        },
        {
          "internalType": "address",
          "name": "publicChainRecipient",
          "type": "address"
        }
      ],
      "name": "requestWithdraw",
      "outputs": [],
      "stateMutability": "nonpayable",
      "type": "function"
    },
    {
      "inputs": [
        {
          "internalType": "address",
          "name": "_usdcp",
          "type": "address"
        }
      ],
      "name": "setUSDCp",
      "outputs": [],
      "stateMutability": "nonpayable",
      "type": "function"
    },
    {
      "inputs": [
        {
          "internalType": "address",
          "name": "newOwner",
          "type": "address"
        }
      ],
      "name": "transferOwnership",
      "outputs": [],
      "stateMutability": "nonpayable",
      "type": "function"
    },
    {
      "inputs": [],
      "name": "usdcp",
      "outputs": [
        {
          "internalType": "contract USDCp",
          "name": "",
          "type": "address"
        }
      ],
      "stateMutability": "view",
      "type": "function"
    },
    {
      "inputs": [],
      "name": "withdrawNonce",
      "outputs": [
        {
          "internalType": "uint256",
          "name": "",
          "type": "uint256"
        }
      ],
      "stateMutability": "view",
      "type": "function"
    },
    {
      "inputs": [
        {
          "internalType": "bytes32",
          "name": "",
          "type": "bytes32"
        }
      ],
      "name": "withdrawRequests",
      "outputs": [
        {
          "internalType": "address",
          "name": "from",
          "type": "address"
        },
        {
          "internalType": "uint256",
          "name": "amount",
          "type": "uint256"
        },
        {
          "internalType": "address",
          "name": "publicChainRecipient",
          "type": "address"
        },
        {
          "internalType": "uint256",
          "name": "timestamp",
          "type": "uint256"
        },
        {
          "internalType": "bool",
          "name": "processed",
          "type": "bool"
        }
      ],
      "stateMutability": "view",
      "type": "function"
    }
  ],
  "devdoc": {
    "details": "Called by external bridge software (operator) to mint/burn USDCp",
    "kind": "dev",
    "methods": {
      "markWithdrawProcessed(bytes32)": {
        "params": {
          "withdrawId": "The withdrawal ID to mark as processed"
        }
      },
      "processDeposit(address,uint256,bytes32)": {
        "details": "Called by operator when USDC is locked on public chain",
        "params": {
          "amount": "Amount of USDCp to mint",
          "publicChainTxHash": "Transaction hash of the lock on public chain",
          "recipient": "Address to receive USDCp on private chain"
        }
      },
      "requestWithdraw(uint256,address)": {
        "params": {
          "amount": "Amount of USDCp to burn",
          "publicChainRecipient": "Address to receive USDC on public chain"
        }
      }
    },
    "title": "PrivateBridge",
    "version": 1
  },
  "evm": {
    "assembly": "    /* \"PrivateBridge.sol\":267:5808  contract PrivateBridge {... */\n  mstore(0x40, 0x80)\n    /* \"PrivateBridge.sol\":1594:1766  constructor(address _usdcp) {... */\n  callvalue\n  dup1\n  iszero\n  tag_1\n  jumpi\n  0x00\n  dup1\n  revert\ntag_1:\n  pop\n  mload(0x40)\n  sub(codesize, bytecodeSize)\n  dup1\n  bytecodeSize\n  dup4\n  codecopy\n  dup2\n  dup2\n  add\n  0x40\n  mstore\n  dup2\n  add\n  swap1\n  tag_2\n  swap2\n  swap1\n  tag_3\n  jump\t// in\ntag_2:\n    /* \"PrivateBridge.sol\":1640:1650  msg.sender */\n  caller\n    /* \"PrivateBridge.sol\":1632:1637  owner */\n  0x01\n  0x00\n    /* \"PrivateBridge.sol\":1632:1650  owner = msg.sender */\n  0x0100\n  exp\n  dup2\n  sload\n  dup2\n  0xffffffffffffffffffffffffffffffffffffffff\n  mul\n  not\n  and\n  swap1\n  dup4\n  0xffffffffffffffffffffffffffffffffffffffff\n  and\n  mul\n  or\n  swap1\n  sstore\n  pop\n    /* \"PrivateBridge.sol\":1674:1680  _usdcp */\n  dup1\n    /* \"PrivateBridge.sol\":1660:1665  usdcp */\n  0x00\n  dup1\n    /* \"PrivateBridge.sol\":1660:1681  usdcp = USDCp(_usdcp) */\n  0x0100\n  exp\n  dup2\n  sload\n  dup2\n  0xffffffffffffffffffffffffffffffffffffffff\n  mul\n  not\n  and\n  swap1\n  dup4\n  0xffffffffffffffffffffffffffffffffffffffff\n  and\n  mul\n  or\n  swap1\n  sstore\n  pop\n    /* \"PrivateBridge.sol\":1715:1719  true */\n  0x01\n    /* \"PrivateBridge.sol\":1691:1700  operators */\n  0x02\n    /* \"PrivateBridge.sol\":1691:1712  operators[msg.sender] */\n  0x00\n    /* \"PrivateBridge.sol\":1701:1711  msg.sender */\n  caller\n    /* \"PrivateBridge.sol\":1691:1712  operators[msg.sender] */\n  0xffffffffffffffffffffffffffffffffffffffff\n  and\n  0xffffffffffffffffffffffffffffffffffffffff\n  and\n  dup2\n  mstore\n  0x20\n  add\n  swap1\n  dup2\n  mstore\n  0x20\n  add\n  0x00\n  keccak256\n  0x00\n    /* \"PrivateBridge.sol\":1691:1719  operators[msg.sender] = true */\n  0x0100\n  exp\n  dup2\n  sload\n  dup2\n  0xff\n  mul\n  not\n  and\n  swap1\n  dup4\n  iszero\n  iszero\n  mul\n  or\n  swap1\n  sstore\n  pop\n    /* \"PrivateBridge.sol\":1748:1758  msg.sender */\n  caller\n    /* \"PrivateBridge.sol\":1734:1759  OperatorAdded(msg.sender) */\n  0xffffffffffffffffffffffffffffffffffffffff\n  and\n  0xac6fa858e9350a46cec16539926e0fde25b7629f84b5a72bffaae4df888ae86d\n  mload(0x40)\n  mload(0x40)\n  dup1\n  swap2\n  sub\n  swap1\n  log2\n    /* \"PrivateBridge.sol\":1594:1766  constructor(address _usdcp) {... */\n  pop\n    /* \"PrivateBridge.sol\":267:5808  contract PrivateBridge {... */\n  jump(tag_6)\n    /* \"#utility.yul\":88:205   */\ntag_8:\n    /* \"#utility.yul\":197:198   */\n  0x00\n    /* \"#utility.yul\":194:195   */\n  dup1\n    /* \"#utility.yul\":187:199   */\n  revert\n    /* \"#utility.yul\":334:460   */\ntag_10:\n    /* \"#utility.yul\":371:378   */\n  0x00\n    /* \"#utility.yul\":411:453   */\n  0xffffffffffffffffffffffffffffffffffffffff\n    /* \"#utility.yul\":404:409   */\n  dup3\n    /* \"#utility.yul\":400:454   */\n  and\n    /* \"#utility.yul\":389:454   */\n  swap1\n  pop\n    /* \"#utility.yul\":334:460   */\n  swap2\n  swap1\n  pop\n  jump\t// out\n    /* \"#utility.yul\":466:562   */\ntag_11:\n    /* \"#utility.yul\":503:510   */\n  0x00\n    /* \"#utility.yul\":532:556   */\n  tag_20\n    /* \"#utility.yul\":550:555   */\n  dup3\n    /* \"#utility.yul\":532:556   */\n  tag_10\n  jump\t// in\ntag_20:\n    /* \"#utility.yul\":521:556   */\n  swap1\n  pop\n    /* \"#utility.yul\":466:562   */\n  swap2\n  swap1\n  pop\n  jump\t// out\n    /* \"#utility.yul\":568:690   */\ntag_12:\n    /* \"#utility.yul\":641:665   */\n  tag_22\n    /* \"#utility.yul\":659:664   */\n  dup2\n    /* \"#utility.yul\":641:665   */\n  tag_11\n  jump\t// in\ntag_22:\n    /* \"#utility.yul\":634:639   */\n  dup2\n    /* \"#utility.yul\":631:666   */\n  eq\n    /* \"#utility.yul\":621:684   */\n  tag_23\n  jumpi\n    /* \"#utility.yul\":680:681   */\n  0x00\n    /* \"#utility.yul\":677:678   */\n  dup1\n    /* \"#utility.yul\":670:682   */\n  revert\n    /* \"#utility.yul\":621:684   */\ntag_23:\n    /* \"#utility.yul\":568:690   */\n  pop\n  jump\t// out\n    /* \"#utility.yul\":696:839   */\ntag_13:\n    /* \"#utility.yul\":753:758   */\n  0x00\n    /* \"#utility.yul\":784:790   */\n  dup2\n    /* \"#utility.yul\":778:791   */\n  mload\n    /* \"#utility.yul\":769:791   */\n  swap1\n  pop\n    /* \"#utility.yul\":800:833   */\n  tag_25\n    /* \"#utility.yul\":827:832   */\n  dup2\n    /* \"#utility.yul\":800:833   */\n  tag_12\n  jump\t// in\ntag_25:\n    /* \"#utility.yul\":696:839   */\n  swap3\n  swap2\n  pop\n  pop\n  jump\t// out\n    /* \"#utility.yul\":845:1196   */\ntag_3:\n    /* \"#utility.yul\":915:921   */\n  0x00\n    /* \"#utility.yul\":964:966   */\n  0x20\n    /* \"#utility.yul\":952:961   */\n  dup3\n    /* \"#utility.yul\":943:950   */\n  dup5\n    /* \"#utility.yul\":939:962   */\n  sub\n    /* \"#utility.yul\":935:967   */\n  slt\n    /* \"#utility.yul\":932:1051   */\n  iszero\n  tag_27\n  jumpi\n    /* \"#utility.yul\":970:1049   */\n  tag_28\n  tag_8\n  jump\t// in\ntag_28:\n    /* \"#utility.yul\":932:1051   */\ntag_27:\n    /* \"#utility.yul\":1090:1091   */\n  0x00\n    /* \"#utility.yul\":1115:1179   */\n  tag_29\n    /* \"#utility.yul\":1171:1178   */\n  dup5\n    /* \"#utility.yul\":1162:1168   */\n  dup3\n    /* \"#utility.yul\":1151:1160   */\n  dup6\n    /* \"#utility.yul\":1147:1169   */\n  add\n    /* \"#utility.yul\":1115:1179   */\n  tag_13\n  jump\t// in\ntag_29:\n    /* \"#utility.yul\":1105:1179   */\n  swap2\n  pop\n    /* \"#utility.yul\":1061:1189   */\n  pop\n    /* \"#utility.yul\":845:1196   */\n  swap3\n  swap2\n  pop\n  pop\n  jump\t// out\n    /* \"PrivateBridge.sol\":267:5808  contract PrivateBridge {... */\ntag_6:\n  dataSize(sub_0)\n  dup1\n  dataOffset(sub_0)\n  0x00\n  codecopy\n  0x00\n  return\nstop\n\nsub_0: assembly {\n        /* \"PrivateBridge.sol\":267:5808  contract PrivateBridge {... */\n      mstore(0x40, 0x80)\n      callvalue\n      dup1\n      iszero\n      tag_1\n      jumpi\n      0x00\n      dup1\n      revert\n    tag_1:\n      pop\n      jumpi(tag_2, lt(calldatasize, 0x04))\n      shr(0xe0, calldataload(0x00))\n      dup1\n      0x8da5cb5b\n      gt\n      tag_18\n      jumpi\n      dup1\n      0xccc143b8\n      gt\n      tag_19\n      jumpi\n      dup1\n      0xccc143b8\n      eq\n      tag_14\n      jumpi\n      dup1\n      0xd5d0d21c\n      eq\n      tag_15\n      jumpi\n      dup1\n      0xe869554d\n      eq\n      tag_16\n      jumpi\n      dup1\n      0xf2fde38b\n      eq\n      tag_17\n      jumpi\n      jump(tag_2)\n    tag_19:\n      dup1\n      0x8da5cb5b\n      eq\n      tag_10\n      jumpi\n      dup1\n      0x9870d7fe\n      eq\n      tag_11\n      jumpi\n      dup1\n      0xac8a584a\n      eq\n      tag_12\n      jumpi\n      dup1\n      0xb8a4e151\n      eq\n      tag_13\n      jumpi\n      jump(tag_2)\n    tag_18:\n      dup1\n      0x40c5faf0\n      gt\n      tag_20\n      jumpi\n      dup1\n      0x40c5faf0\n      eq\n      tag_6\n      jumpi\n      dup1\n      0x4592bc14\n      eq\n      tag_7\n      jumpi\n      dup1\n      0x464514af\n      eq\n      tag_8\n      jumpi\n      dup1\n      0x6e2bc8ff\n      eq\n      tag_9\n      jumpi\n      jump(tag_2)\n    tag_20:\n      dup1\n      0x026508d1\n      eq\n      tag_3\n      jumpi\n      dup1\n      0x13e7c9d8\n      eq\n      tag_4\n      jumpi\n      dup1\n      0x15e7b12f\n      eq\n      tag_5\n      jumpi\n    tag_2:\n      0x00\n      dup1\n      revert\n        /* \"PrivateBridge.sol\":585:644  mapping(bytes32 => WithdrawRequest) public withdrawRequests */\n    tag_3:\n      tag_21\n      0x04\n      dup1\n      calldatasize\n      sub\n      dup2\n      add\n      swap1\n      tag_22\n      swap2\n      swap1\n      tag_23\n      jump\t// in\n    tag_22:\n      tag_24\n      jump\t// in\n    tag_21:\n      mload(0x40)\n      tag_25\n      swap6\n      swap5\n      swap4\n      swap3\n      swap2\n      swap1\n      tag_26\n      jump\t// in\n    tag_25:\n      mload(0x40)\n      dup1\n      swap2\n      sub\n      swap1\n      return\n        /* \"PrivateBridge.sol\":398:439  mapping(address => bool) public operators */\n    tag_4:\n      tag_27\n      0x04\n      dup1\n      calldatasize\n      sub\n      dup2\n      add\n      swap1\n      tag_28\n      swap2\n      swap1\n      tag_29\n      jump\t// in\n    tag_28:\n      tag_30\n      jump\t// in\n    tag_27:\n      mload(0x40)\n      tag_31\n      swap2\n      swap1\n      tag_32\n      jump\t// in\n    tag_31:\n      mload(0x40)\n      dup1\n      swap2\n      sub\n      swap1\n      return\n        /* \"PrivateBridge.sol\":5715:5806  function setUSDCp(address _usdcp) external onlyOwner {... */\n    tag_5:\n      tag_33\n      0x04\n      dup1\n      calldatasize\n      sub\n      dup2\n      add\n      swap1\n      tag_34\n      swap2\n      swap1\n      tag_29\n      jump\t// in\n    tag_34:\n      tag_35\n      jump\t// in\n    tag_33:\n      stop\n        /* \"PrivateBridge.sol\":496:545  mapping(bytes32 => bool) public processedDeposits */\n    tag_6:\n      tag_36\n      0x04\n      dup1\n      calldatasize\n      sub\n      dup2\n      add\n      swap1\n      tag_37\n      swap2\n      swap1\n      tag_23\n      jump\t// in\n    tag_37:\n      tag_38\n      jump\t// in\n    tag_36:\n      mload(0x40)\n      tag_39\n      swap2\n      swap1\n      tag_32\n      jump\t// in\n    tag_39:\n      mload(0x40)\n      dup1\n      swap2\n      sub\n      swap1\n      return\n        /* \"PrivateBridge.sol\":296:314  USDCp public usdcp */\n    tag_7:\n      tag_40\n      tag_41\n      jump\t// in\n    tag_40:\n      mload(0x40)\n      tag_42\n      swap2\n      swap1\n      tag_43\n      jump\t// in\n    tag_42:\n      mload(0x40)\n      dup1\n      swap2\n      sub\n      swap1\n      return\n        /* \"PrivateBridge.sol\":4192:4555  function markWithdrawProcessed(bytes32 withdrawId) external onlyOperator {... */\n    tag_8:\n      tag_44\n      0x04\n      dup1\n      calldatasize\n      sub\n      dup2\n      add\n      swap1\n      tag_45\n      swap2\n      swap1\n      tag_23\n      jump\t// in\n    tag_45:\n      tag_46\n      jump\t// in\n    tag_44:\n      stop\n        /* \"PrivateBridge.sol\":2160:2760  function processDeposit(... */\n    tag_9:\n      tag_47\n      0x04\n      dup1\n      calldatasize\n      sub\n      dup2\n      add\n      swap1\n      tag_48\n      swap2\n      swap1\n      tag_49\n      jump\t// in\n    tag_48:\n      tag_50\n      jump\t// in\n    tag_47:\n      stop\n        /* \"PrivateBridge.sol\":320:340  address public owner */\n    tag_10:\n      tag_51\n      tag_52\n      jump\t// in\n    tag_51:\n      mload(0x40)\n      tag_53\n      swap2\n      swap1\n      tag_54\n      jump\t// in\n    tag_53:\n      mload(0x40)\n      dup1\n      swap2\n      sub\n      swap1\n      return\n        /* \"PrivateBridge.sol\":5181:5389  function addOperator(address operator) external onlyOwner {... */\n    tag_11:\n      tag_55\n      0x04\n      dup1\n      calldatasize\n      sub\n      dup2\n      add\n      swap1\n      tag_56\n      swap2\n      swap1\n      tag_29\n      jump\t// in\n    tag_56:\n      tag_57\n      jump\t// in\n    tag_55:\n      stop\n        /* \"PrivateBridge.sol\":5395:5540  function removeOperator(address operator) external onlyOwner {... */\n    tag_12:\n      tag_58\n      0x04\n      dup1\n      calldatasize\n      sub\n      dup2\n      add\n      swap1\n      tag_59\n      swap2\n      swap1\n      tag_29\n      jump\t// in\n    tag_59:\n      tag_60\n      jump\t// in\n    tag_58:\n      stop\n        /* \"PrivateBridge.sol\":650:678  uint256 public withdrawNonce */\n    tag_13:\n      tag_61\n      tag_62\n      jump\t// in\n    tag_61:\n      mload(0x40)\n      tag_63\n      swap2\n      swap1\n      tag_64\n      jump\t// in\n    tag_63:\n      mload(0x40)\n      dup1\n      swap2\n      sub\n      swap1\n      return\n        /* \"PrivateBridge.sol\":2970:4009  function requestWithdraw(uint256 amount, address publicChainRecipient) external {... */\n    tag_14:\n      tag_65\n      0x04\n      dup1\n      calldatasize\n      sub\n      dup2\n      add\n      swap1\n      tag_66\n      swap2\n      swap1\n      tag_67\n      jump\t// in\n    tag_66:\n      tag_68\n      jump\t// in\n    tag_65:\n      stop\n        /* \"PrivateBridge.sol\":4997:5125  function isDepositProcessed(bytes32 depositId) external view returns (bool) {... */\n    tag_15:\n      tag_69\n      0x04\n      dup1\n      calldatasize\n      sub\n      dup2\n      add\n      swap1\n      tag_70\n      swap2\n      swap1\n      tag_23\n      jump\t// in\n    tag_70:\n      tag_71\n      jump\t// in\n    tag_69:\n      mload(0x40)\n      tag_72\n      swap2\n      swap1\n      tag_32\n      jump\t// in\n    tag_72:\n      mload(0x40)\n      dup1\n      swap2\n      sub\n      swap1\n      return\n        /* \"PrivateBridge.sol\":4610:4991  function getWithdrawRequest(bytes32 withdrawId) external view returns (... */\n    tag_16:\n      tag_73\n      0x04\n      dup1\n      calldatasize\n      sub\n      dup2\n      add\n      swap1\n      tag_74\n      swap2\n      swap1\n      tag_23\n      jump\t// in\n    tag_74:\n      tag_75\n      jump\t// in\n    tag_73:\n      mload(0x40)\n      tag_76\n      swap6\n      swap5\n      swap4\n      swap3\n      swap2\n      swap1\n      tag_26\n      jump\t// in\n    tag_76:\n      mload(0x40)\n      dup1\n      swap2\n      sub\n      swap1\n      return\n        /* \"PrivateBridge.sol\":5546:5709  function transferOwnership(address newOwner) external onlyOwner {... */\n    tag_17:\n      tag_77\n      0x04\n      dup1\n      calldatasize\n      sub\n      dup2\n      add\n      swap1\n      tag_78\n      swap2\n      swap1\n      tag_29\n      jump\t// in\n    tag_78:\n      tag_79\n      jump\t// in\n    tag_77:\n      stop\n        /* \"PrivateBridge.sol\":585:644  mapping(bytes32 => WithdrawRequest) public withdrawRequests */\n    tag_24:\n      mstore(0x20, 0x04)\n      dup1\n      0x00\n      mstore\n      keccak256(0x00, 0x40)\n      0x00\n      swap2\n      pop\n      swap1\n      pop\n      dup1\n      0x00\n      add\n      0x00\n      swap1\n      sload\n      swap1\n      0x0100\n      exp\n      swap1\n      div\n      0xffffffffffffffffffffffffffffffffffffffff\n      and\n      swap1\n      dup1\n      0x01\n      add\n      sload\n      swap1\n      dup1\n      0x02\n      add\n      0x00\n      swap1\n      sload\n      swap1\n      0x0100\n      exp\n      swap1\n      div\n      0xffffffffffffffffffffffffffffffffffffffff\n      and\n      swap1\n      dup1\n      0x03\n      add\n      sload\n      swap1\n      dup1\n      0x04\n      add\n      0x00\n      swap1\n      sload\n      swap1\n      0x0100\n      exp\n      swap1\n      div\n      0xff\n      and\n      swap1\n      pop\n      dup6\n      jump\t// out\n        /* \"PrivateBridge.sol\":398:439  mapping(address => bool) public operators */\n    tag_30:\n      mstore(0x20, 0x02)\n      dup1\n      0x00\n      mstore\n      keccak256(0x00, 0x40)\n      0x00\n      swap2\n      pop\n      sload\n      swap1\n      0x0100\n      exp\n      swap1\n      div\n      0xff\n      and\n      dup2\n      jump\t// out\n        /* \"PrivateBridge.sol\":5715:5806  function setUSDCp(address _usdcp) external onlyOwner {... */\n    tag_35:\n        /* \"PrivateBridge.sol\":1411:1416  owner */\n      0x01\n      0x00\n      swap1\n      sload\n      swap1\n      0x0100\n      exp\n      swap1\n      div\n      0xffffffffffffffffffffffffffffffffffffffff\n      and\n        /* \"PrivateBridge.sol\":1397:1416  msg.sender == owner */\n      0xffffffffffffffffffffffffffffffffffffffff\n      and\n        /* \"PrivateBridge.sol\":1397:1407  msg.sender */\n      caller\n        /* \"PrivateBridge.sol\":1397:1416  msg.sender == owner */\n      0xffffffffffffffffffffffffffffffffffffffff\n      and\n      eq\n        /* \"PrivateBridge.sol\":1389:1448  require(msg.sender == owner, \"Bridge: caller is not owner\") */\n      tag_81\n      jumpi\n      mload(0x40)\n      0x08c379a000000000000000000000000000000000000000000000000000000000\n      dup2\n      mstore\n      0x04\n      add\n      tag_82\n      swap1\n      tag_83\n      jump\t// in\n    tag_82:\n      mload(0x40)\n      dup1\n      swap2\n      sub\n      swap1\n      revert\n    tag_81:\n        /* \"PrivateBridge.sol\":5792:5798  _usdcp */\n      dup1\n        /* \"PrivateBridge.sol\":5778:5783  usdcp */\n      0x00\n      dup1\n        /* \"PrivateBridge.sol\":5778:5799  usdcp = USDCp(_usdcp) */\n      0x0100\n      exp\n      dup2\n      sload\n      dup2\n      0xffffffffffffffffffffffffffffffffffffffff\n      mul\n      not\n      and\n      swap1\n      dup4\n      0xffffffffffffffffffffffffffffffffffffffff\n      and\n      mul\n      or\n      swap1\n      sstore\n      pop\n        /* \"PrivateBridge.sol\":5715:5806  function setUSDCp(address _usdcp) external onlyOwner {... */\n      pop\n      jump\t// out\n        /* \"PrivateBridge.sol\":496:545  mapping(bytes32 => bool) public processedDeposits */\n    tag_38:\n      mstore(0x20, 0x03)\n      dup1\n      0x00\n      mstore\n      keccak256(0x00, 0x40)\n      0x00\n      swap2\n      pop\n      sload\n      swap1\n      0x0100\n      exp\n      swap1\n      div\n      0xff\n      and\n      dup2\n      jump\t// out\n        /* \"PrivateBridge.sol\":296:314  USDCp public usdcp */\n    tag_41:\n      0x00\n      dup1\n      sload\n      swap1\n      0x0100\n      exp\n      swap1\n      div\n      0xffffffffffffffffffffffffffffffffffffffff\n      and\n      dup2\n      jump\t// out\n        /* \"PrivateBridge.sol\":4192:4555  function markWithdrawProcessed(bytes32 withdrawId) external onlyOperator {... */\n    tag_46:\n        /* \"PrivateBridge.sol\":1514:1523  operators */\n      0x02\n        /* \"PrivateBridge.sol\":1514:1535  operators[msg.sender] */\n      0x00\n        /* \"PrivateBridge.sol\":1524:1534  msg.sender */\n      caller\n        /* \"PrivateBridge.sol\":1514:1535  operators[msg.sender] */\n      0xffffffffffffffffffffffffffffffffffffffff\n      and\n      0xffffffffffffffffffffffffffffffffffffffff\n      and\n      dup2\n      mstore\n      0x20\n      add\n      swap1\n      dup2\n      mstore\n      0x20\n      add\n      0x00\n      keccak256\n      0x00\n      swap1\n      sload\n      swap1\n      0x0100\n      exp\n      swap1\n      div\n      0xff\n      and\n        /* \"PrivateBridge.sol\":1506:1570  require(operators[msg.sender], \"Bridge: caller is not operator\") */\n      tag_86\n      jumpi\n      mload(0x40)\n      0x08c379a000000000000000000000000000000000000000000000000000000000\n      dup2\n      mstore\n      0x04\n      add\n      tag_87\n      swap1\n      tag_88\n      jump\t// in\n    tag_87:\n      mload(0x40)\n      dup1\n      swap2\n      sub\n      swap1\n      revert\n    tag_86:\n        /* \"PrivateBridge.sol\":4328:4329  0 */\n      0x00\n        /* \"PrivateBridge.sol\":4283:4330  withdrawRequests[withdrawId].from != address(0) */\n      0xffffffffffffffffffffffffffffffffffffffff\n      and\n        /* \"PrivateBridge.sol\":4283:4299  withdrawRequests */\n      0x04\n        /* \"PrivateBridge.sol\":4283:4311  withdrawRequests[withdrawId] */\n      0x00\n        /* \"PrivateBridge.sol\":4300:4310  withdrawId */\n      dup4\n        /* \"PrivateBridge.sol\":4283:4311  withdrawRequests[withdrawId] */\n      dup2\n      mstore\n      0x20\n      add\n      swap1\n      dup2\n      mstore\n      0x20\n      add\n      0x00\n      keccak256\n        /* \"PrivateBridge.sol\":4283:4316  withdrawRequests[withdrawId].from */\n      0x00\n      add\n      0x00\n      swap1\n      sload\n      swap1\n      0x0100\n      exp\n      swap1\n      div\n      0xffffffffffffffffffffffffffffffffffffffff\n      and\n        /* \"PrivateBridge.sol\":4283:4330  withdrawRequests[withdrawId].from != address(0) */\n      0xffffffffffffffffffffffffffffffffffffffff\n      and\n      eq\n      iszero\n        /* \"PrivateBridge.sol\":4275:4361  require(withdrawRequests[withdrawId].from != address(0), \"Bridge: withdraw not found\") */\n      tag_90\n      jumpi\n      mload(0x40)\n      0x08c379a000000000000000000000000000000000000000000000000000000000\n      dup2\n      mstore\n      0x04\n      add\n      tag_91\n      swap1\n      tag_92\n      jump\t// in\n    tag_91:\n      mload(0x40)\n      dup1\n      swap2\n      sub\n      swap1\n      revert\n    tag_90:\n        /* \"PrivateBridge.sol\":4380:4396  withdrawRequests */\n      0x04\n        /* \"PrivateBridge.sol\":4380:4408  withdrawRequests[withdrawId] */\n      0x00\n        /* \"PrivateBridge.sol\":4397:4407  withdrawId */\n      dup3\n        /* \"PrivateBridge.sol\":4380:4408  withdrawRequests[withdrawId] */\n      dup2\n      mstore\n      0x20\n      add\n      swap1\n      dup2\n      mstore\n      0x20\n      add\n      0x00\n      keccak256\n        /* \"PrivateBridge.sol\":4380:4418  withdrawRequests[withdrawId].processed */\n      0x04\n      add\n      0x00\n      swap1\n      sload\n      swap1\n      0x0100\n      exp\n      swap1\n      div\n      0xff\n      and\n        /* \"PrivateBridge.sol\":4379:4418  !withdrawRequests[withdrawId].processed */\n      iszero\n        /* \"PrivateBridge.sol\":4371:4448  require(!withdrawRequests[withdrawId].processed, \"Bridge: already processed\") */\n      tag_93\n      jumpi\n      mload(0x40)\n      0x08c379a000000000000000000000000000000000000000000000000000000000\n      dup2\n      mstore\n      0x04\n      add\n      tag_94\n      swap1\n      tag_95\n      jump\t// in\n    tag_94:\n      mload(0x40)\n      dup1\n      swap2\n      sub\n      swap1\n      revert\n    tag_93:\n        /* \"PrivateBridge.sol\":4500:4504  true */\n      0x01\n        /* \"PrivateBridge.sol\":4459:4475  withdrawRequests */\n      0x04\n        /* \"PrivateBridge.sol\":4459:4487  withdrawRequests[withdrawId] */\n      0x00\n        /* \"PrivateBridge.sol\":4476:4486  withdrawId */\n      dup4\n        /* \"PrivateBridge.sol\":4459:4487  withdrawRequests[withdrawId] */\n      dup2\n      mstore\n      0x20\n      add\n      swap1\n      dup2\n      mstore\n      0x20\n      add\n      0x00\n      keccak256\n        /* \"PrivateBridge.sol\":4459:4497  withdrawRequests[withdrawId].processed */\n      0x04\n      add\n      0x00\n        /* \"PrivateBridge.sol\":4459:4504  withdrawRequests[withdrawId].processed = true */\n      0x0100\n      exp\n      dup2\n      sload\n      dup2\n      0xff\n      mul\n      not\n      and\n      swap1\n      dup4\n      iszero\n      iszero\n      mul\n      or\n      swap1\n      sstore\n      pop\n        /* \"PrivateBridge.sol\":4537:4547  withdrawId */\n      dup1\n        /* \"PrivateBridge.sol\":4519:4548  WithdrawProcessed(withdrawId) */\n      0x82459f84b3ecf0308611b420b9d42c054f0dbfb50d04c13a22d0804f582f6497\n      mload(0x40)\n      mload(0x40)\n      dup1\n      swap2\n      sub\n      swap1\n      log2\n        /* \"PrivateBridge.sol\":4192:4555  function markWithdrawProcessed(bytes32 withdrawId) external onlyOperator {... */\n      pop\n      jump\t// out\n        /* \"PrivateBridge.sol\":2160:2760  function processDeposit(... */\n    tag_50:\n        /* \"PrivateBridge.sol\":1514:1523  operators */\n      0x02\n        /* \"PrivateBridge.sol\":1514:1535  operators[msg.sender] */\n      0x00\n        /* \"PrivateBridge.sol\":1524:1534  msg.sender */\n      caller\n        /* \"PrivateBridge.sol\":1514:1535  operators[msg.sender] */\n      0xffffffffffffffffffffffffffffffffffffffff\n      and\n      0xffffffffffffffffffffffffffffffffffffffff\n      and\n      dup2\n      mstore\n      0x20\n      add\n      swap1\n      dup2\n      mstore\n      0x20\n      add\n      0x00\n      keccak256\n      0x00\n      swap1\n      sload\n      swap1\n      0x0100\n      exp\n      swap1\n      div\n      0xff\n      and\n        /* \"PrivateBridge.sol\":1506:1570  require(operators[msg.sender], \"Bridge: caller is not operator\") */\n      tag_97\n      jumpi\n      mload(0x40)\n      0x08c379a000000000000000000000000000000000000000000000000000000000\n      dup2\n      mstore\n      0x04\n      add\n      tag_98\n      swap1\n      tag_88\n      jump\t// in\n    tag_98:\n      mload(0x40)\n      dup1\n      swap2\n      sub\n      swap1\n      revert\n    tag_97:\n        /* \"PrivateBridge.sol\":2370:2387  bytes32 depositId */\n      0x00\n        /* \"PrivateBridge.sol\":2417:2434  publicChainTxHash */\n      dup2\n        /* \"PrivateBridge.sol\":2436:2445  recipient */\n      dup5\n        /* \"PrivateBridge.sol\":2447:2453  amount */\n      dup5\n        /* \"PrivateBridge.sol\":2400:2454  abi.encodePacked(publicChainTxHash, recipient, amount) */\n      add(0x20, mload(0x40))\n      tag_100\n      swap4\n      swap3\n      swap2\n      swap1\n      tag_101\n      jump\t// in\n    tag_100:\n      mload(0x40)\n      0x20\n      dup2\n      dup4\n      sub\n      sub\n      dup2\n      mstore\n      swap1\n      0x40\n      mstore\n        /* \"PrivateBridge.sol\":2390:2455  keccak256(abi.encodePacked(publicChainTxHash, recipient, amount)) */\n      dup1\n      mload\n      swap1\n      0x20\n      add\n      keccak256\n        /* \"PrivateBridge.sol\":2370:2455  bytes32 depositId = keccak256(abi.encodePacked(publicChainTxHash, recipient, amount)) */\n      swap1\n      pop\n        /* \"PrivateBridge.sol\":2475:2492  processedDeposits */\n      0x03\n        /* \"PrivateBridge.sol\":2475:2503  processedDeposits[depositId] */\n      0x00\n        /* \"PrivateBridge.sol\":2493:2502  depositId */\n      dup3\n        /* \"PrivateBridge.sol\":2475:2503  processedDeposits[depositId] */\n      dup2\n      mstore\n      0x20\n      add\n      swap1\n      dup2\n      mstore\n      0x20\n      add\n      0x00\n      keccak256\n      0x00\n      swap1\n      sload\n      swap1\n      0x0100\n      exp\n      swap1\n      div\n      0xff\n      and\n        /* \"PrivateBridge.sol\":2474:2503  !processedDeposits[depositId] */\n      iszero\n        /* \"PrivateBridge.sol\":2466:2541  require(!processedDeposits[depositId], \"Bridge: deposit already processed\") */\n      tag_102\n      jumpi\n      mload(0x40)\n      0x08c379a000000000000000000000000000000000000000000000000000000000\n      dup2\n      mstore\n      0x04\n      add\n      tag_103\n      swap1\n      tag_104\n      jump\t// in\n    tag_103:\n      mload(0x40)\n      dup1\n      swap2\n      sub\n      swap1\n      revert\n    tag_102:\n        /* \"PrivateBridge.sol\":2582:2586  true */\n      0x01\n        /* \"PrivateBridge.sol\":2551:2568  processedDeposits */\n      0x03\n        /* \"PrivateBridge.sol\":2551:2579  processedDeposits[depositId] */\n      0x00\n        /* \"PrivateBridge.sol\":2569:2578  depositId */\n      dup4\n        /* \"PrivateBridge.sol\":2551:2579  processedDeposits[depositId] */\n      dup2\n      mstore\n      0x20\n      add\n      swap1\n      dup2\n      mstore\n      0x20\n      add\n      0x00\n      keccak256\n      0x00\n        /* \"PrivateBridge.sol\":2551:2586  processedDeposits[depositId] = true */\n      0x0100\n      exp\n      dup2\n      sload\n      dup2\n      0xff\n      mul\n      not\n      and\n      swap1\n      dup4\n      iszero\n      iszero\n      mul\n      or\n      swap1\n      sstore\n      pop\n        /* \"PrivateBridge.sol\":2632:2637  usdcp */\n      0x00\n      dup1\n      sload\n      swap1\n      0x0100\n      exp\n      swap1\n      div\n      0xffffffffffffffffffffffffffffffffffffffff\n      and\n        /* \"PrivateBridge.sol\":2632:2642  usdcp.mint */\n      0xffffffffffffffffffffffffffffffffffffffff\n      and\n      0x1e458bee\n        /* \"PrivateBridge.sol\":2643:2652  recipient */\n      dup6\n        /* \"PrivateBridge.sol\":2654:2660  amount */\n      dup6\n        /* \"PrivateBridge.sol\":2662:2671  depositId */\n      dup5\n        /* \"PrivateBridge.sol\":2632:2672  usdcp.mint(recipient, amount, depositId) */\n      mload(0x40)\n      dup5\n      0xffffffff\n      and\n      0xe0\n      shl\n      dup2\n      mstore\n      0x04\n      add\n      tag_105\n      swap4\n      swap3\n      swap2\n      swap1\n      tag_106\n      jump\t// in\n    tag_105:\n      0x00\n      mload(0x40)\n      dup1\n      dup4\n      sub\n      dup2\n      0x00\n      dup8\n      dup1\n      extcodesize\n      iszero\n      dup1\n      iszero\n      tag_107\n      jumpi\n      0x00\n      dup1\n      revert\n    tag_107:\n      pop\n      gas\n      call\n      iszero\n      dup1\n      iszero\n      tag_109\n      jumpi\n      returndatasize\n      0x00\n      dup1\n      returndatacopy\n      revert(0x00, returndatasize)\n    tag_109:\n      pop\n      pop\n      pop\n      pop\n        /* \"PrivateBridge.sol\":2716:2725  recipient */\n      dup4\n        /* \"PrivateBridge.sol\":2688:2753  DepositProcessed(depositId, recipient, amount, publicChainTxHash) */\n      0xffffffffffffffffffffffffffffffffffffffff\n      and\n        /* \"PrivateBridge.sol\":2705:2714  depositId */\n      dup2\n        /* \"PrivateBridge.sol\":2688:2753  DepositProcessed(depositId, recipient, amount, publicChainTxHash) */\n      0xbc4baef869a8d9fffec842f183b4c4bf035ed3ea57f299e957c46f198a63f046\n        /* \"PrivateBridge.sol\":2727:2733  amount */\n      dup6\n        /* \"PrivateBridge.sol\":2735:2752  publicChainTxHash */\n      dup6\n        /* \"PrivateBridge.sol\":2688:2753  DepositProcessed(depositId, recipient, amount, publicChainTxHash) */\n      mload(0x40)\n      tag_110\n      swap3\n      swap2\n      swap1\n      tag_111\n      jump\t// in\n    tag_110:\n      mload(0x40)\n      dup1\n      swap2\n      sub\n      swap1\n      log3\n        /* \"PrivateBridge.sol\":2298:2760  {... */\n      pop\n        /* \"PrivateBridge.sol\":2160:2760  function processDeposit(... */\n      pop\n      pop\n      pop\n      jump\t// out\n        /* \"PrivateBridge.sol\":320:340  address public owner */\n    tag_52:\n      0x01\n      0x00\n      swap1\n      sload\n      swap1\n      0x0100\n      exp\n      swap1\n      div\n      0xffffffffffffffffffffffffffffffffffffffff\n      and\n      dup2\n      jump\t// out\n        /* \"PrivateBridge.sol\":5181:5389  function addOperator(address operator) external onlyOwner {... */\n    tag_57:\n        /* \"PrivateBridge.sol\":1411:1416  owner */\n      0x01\n      0x00\n      swap1\n      sload\n      swap1\n      0x0100\n      exp\n      swap1\n      div\n      0xffffffffffffffffffffffffffffffffffffffff\n      and\n        /* \"PrivateBridge.sol\":1397:1416  msg.sender == owner */\n      0xffffffffffffffffffffffffffffffffffffffff\n      and\n        /* \"PrivateBridge.sol\":1397:1407  msg.sender */\n      caller\n        /* \"PrivateBridge.sol\":1397:1416  msg.sender == owner */\n      0xffffffffffffffffffffffffffffffffffffffff\n      and\n      eq\n        /* \"PrivateBridge.sol\":1389:1448  require(msg.sender == owner, \"Bridge: caller is not owner\") */\n      tag_113\n      jumpi\n      mload(0x40)\n      0x08c379a000000000000000000000000000000000000000000000000000000000\n      dup2\n      mstore\n      0x04\n      add\n      tag_114\n      swap1\n      tag_83\n      jump\t// in\n    tag_114:\n      mload(0x40)\n      dup1\n      swap2\n      sub\n      swap1\n      revert\n    tag_113:\n        /* \"PrivateBridge.sol\":5277:5278  0 */\n      0x00\n        /* \"PrivateBridge.sol\":5257:5279  operator != address(0) */\n      0xffffffffffffffffffffffffffffffffffffffff\n      and\n        /* \"PrivateBridge.sol\":5257:5265  operator */\n      dup2\n        /* \"PrivateBridge.sol\":5257:5279  operator != address(0) */\n      0xffffffffffffffffffffffffffffffffffffffff\n      and\n      eq\n      iszero\n        /* \"PrivateBridge.sol\":5249:5308  require(operator != address(0), \"Bridge: invalid operator\") */\n      tag_116\n      jumpi\n      mload(0x40)\n      0x08c379a000000000000000000000000000000000000000000000000000000000\n      dup2\n      mstore\n      0x04\n      add\n      tag_117\n      swap1\n      tag_118\n      jump\t// in\n    tag_117:\n      mload(0x40)\n      dup1\n      swap2\n      sub\n      swap1\n      revert\n    tag_116:\n        /* \"PrivateBridge.sol\":5340:5344  true */\n      0x01\n        /* \"PrivateBridge.sol\":5318:5327  operators */\n      0x02\n        /* \"PrivateBridge.sol\":5318:5337  operators[operator] */\n      0x00\n        /* \"PrivateBridge.sol\":5328:5336  operator */\n      dup4\n        /* \"PrivateBridge.sol\":5318:5337  operators[operator] */\n      0xffffffffffffffffffffffffffffffffffffffff\n      and\n      0xffffffffffffffffffffffffffffffffffffffff\n      and\n      dup2\n      mstore\n      0x20\n      add\n      swap1\n      dup2\n      mstore\n      0x20\n      add\n      0x00\n      keccak256\n      0x00\n        /* \"PrivateBridge.sol\":5318:5344  operators[operator] = true */\n      0x0100\n      exp\n      dup2\n      sload\n      dup2\n      0xff\n      mul\n      not\n      and\n      swap1\n      dup4\n      iszero\n      iszero\n      mul\n      or\n      swap1\n      sstore\n      pop\n        /* \"PrivateBridge.sol\":5373:5381  operator */\n      dup1\n        /* \"PrivateBridge.sol\":5359:5382  OperatorAdded(operator) */\n      0xffffffffffffffffffffffffffffffffffffffff\n      and\n      0xac6fa858e9350a46cec16539926e0fde25b7629f84b5a72bffaae4df888ae86d\n      mload(0x40)\n      mload(0x40)\n      dup1\n      swap2\n      sub\n      swap1\n      log2\n        /* \"PrivateBridge.sol\":5181:5389  function addOperator(address operator) external onlyOwner {... */\n      pop\n      jump\t// out\n        /* \"PrivateBridge.sol\":5395:5540  function removeOperator(address operator) external onlyOwner {... */\n    tag_60:\n        /* \"PrivateBridge.sol\":1411:1416  owner */\n      0x01\n      0x00\n      swap1\n      sload\n      swap1\n      0x0100\n      exp\n      swap1\n      div\n      0xffffffffffffffffffffffffffffffffffffffff\n      and\n        /* \"PrivateBridge.sol\":1397:1416  msg.sender == owner */\n      0xffffffffffffffffffffffffffffffffffffffff\n      and\n        /* \"PrivateBridge.sol\":1397:1407  msg.sender */\n      caller\n        /* \"PrivateBridge.sol\":1397:1416  msg.sender == owner */\n      0xffffffffffffffffffffffffffffffffffffffff\n      and\n      eq\n        /* \"PrivateBridge.sol\":1389:1448  require(msg.sender == owner, \"Bridge: caller is not owner\") */\n      tag_120\n      jumpi\n      mload(0x40)\n      0x08c379a000000000000000000000000000000000000000000000000000000000\n      dup2\n      mstore\n      0x04\n      add\n      tag_121\n      swap1\n      tag_83\n      jump\t// in\n    tag_121:\n      mload(0x40)\n      dup1\n      swap2\n      sub\n      swap1\n      revert\n    tag_120:\n        /* \"PrivateBridge.sol\":5488:5493  false */\n      0x00\n        /* \"PrivateBridge.sol\":5466:5475  operators */\n      0x02\n        /* \"PrivateBridge.sol\":5466:5485  operators[operator] */\n      0x00\n        /* \"PrivateBridge.sol\":5476:5484  operator */\n      dup4\n        /* \"PrivateBridge.sol\":5466:5485  operators[operator] */\n      0xffffffffffffffffffffffffffffffffffffffff\n      and\n      0xffffffffffffffffffffffffffffffffffffffff\n      and\n      dup2\n      mstore\n      0x20\n      add\n      swap1\n      dup2\n      mstore\n      0x20\n      add\n      0x00\n      keccak256\n      0x00\n        /* \"PrivateBridge.sol\":5466:5493  operators[operator] = false */\n      0x0100\n      exp\n      dup2\n      sload\n      dup2\n      0xff\n      mul\n      not\n      and\n      swap1\n      dup4\n      iszero\n      iszero\n      mul\n      or\n      swap1\n      sstore\n      pop\n        /* \"PrivateBridge.sol\":5524:5532  operator */\n      dup1\n        /* \"PrivateBridge.sol\":5508:5533  OperatorRemoved(operator) */\n      0xffffffffffffffffffffffffffffffffffffffff\n      and\n      0x80c0b871b97b595b16a7741c1b06fed0c6f6f558639f18ccbce50724325dc40d\n      mload(0x40)\n      mload(0x40)\n      dup1\n      swap2\n      sub\n      swap1\n      log2\n        /* \"PrivateBridge.sol\":5395:5540  function removeOperator(address operator) external onlyOwner {... */\n      pop\n      jump\t// out\n        /* \"PrivateBridge.sol\":650:678  uint256 public withdrawNonce */\n    tag_62:\n      sload(0x05)\n      dup2\n      jump\t// out\n        /* \"PrivateBridge.sol\":2970:4009  function requestWithdraw(uint256 amount, address publicChainRecipient) external {... */\n    tag_68:\n        /* \"PrivateBridge.sol\":3077:3078  0 */\n      0x00\n        /* \"PrivateBridge.sol\":3068:3074  amount */\n      dup3\n        /* \"PrivateBridge.sol\":3068:3078  amount > 0 */\n      gt\n        /* \"PrivateBridge.sol\":3060:3109  require(amount > 0, \"Bridge: amount must be > 0\") */\n      tag_124\n      jumpi\n      mload(0x40)\n      0x08c379a000000000000000000000000000000000000000000000000000000000\n      dup2\n      mstore\n      0x04\n      add\n      tag_125\n      swap1\n      tag_126\n      jump\t// in\n    tag_125:\n      mload(0x40)\n      dup1\n      swap2\n      sub\n      swap1\n      revert\n    tag_124:\n        /* \"PrivateBridge.sol\":3159:3160  0 */\n      0x00\n        /* \"PrivateBridge.sol\":3127:3161  publicChainRecipient != address(0) */\n      0xffffffffffffffffffffffffffffffffffffffff\n      and\n        /* \"PrivateBridge.sol\":3127:3147  publicChainRecipient */\n      dup2\n        /* \"PrivateBridge.sol\":3127:3161  publicChainRecipient != address(0) */\n      0xffffffffffffffffffffffffffffffffffffffff\n      and\n      eq\n      iszero\n        /* \"PrivateBridge.sol\":3119:3191  require(publicChainRecipient != address(0), \"Bridge: invalid recipient\") */\n      tag_127\n      jumpi\n      mload(0x40)\n      0x08c379a000000000000000000000000000000000000000000000000000000000\n      dup2\n      mstore\n      0x04\n      add\n      tag_128\n      swap1\n      tag_129\n      jump\t// in\n    tag_128:\n      mload(0x40)\n      dup1\n      swap2\n      sub\n      swap1\n      revert\n    tag_127:\n        /* \"PrivateBridge.sol\":3240:3246  amount */\n      dup2\n        /* \"PrivateBridge.sol\":3209:3214  usdcp */\n      0x00\n      dup1\n      sload\n      swap1\n      0x0100\n      exp\n      swap1\n      div\n      0xffffffffffffffffffffffffffffffffffffffff\n      and\n        /* \"PrivateBridge.sol\":3209:3224  usdcp.balanceOf */\n      0xffffffffffffffffffffffffffffffffffffffff\n      and\n      0x70a08231\n        /* \"PrivateBridge.sol\":3225:3235  msg.sender */\n      caller\n        /* \"PrivateBridge.sol\":3209:3236  usdcp.balanceOf(msg.sender) */\n      mload(0x40)\n      dup3\n      0xffffffff\n      and\n      0xe0\n      shl\n      dup2\n      mstore\n      0x04\n      add\n      tag_130\n      swap2\n      swap1\n      tag_54\n      jump\t// in\n    tag_130:\n      0x20\n      mload(0x40)\n      dup1\n      dup4\n      sub\n      dup2\n      dup7\n      gas\n      staticcall\n      iszero\n      dup1\n      iszero\n      tag_132\n      jumpi\n      returndatasize\n      0x00\n      dup1\n      returndatacopy\n      revert(0x00, returndatasize)\n    tag_132:\n      pop\n      pop\n      pop\n      pop\n      mload(0x40)\n      returndatasize\n      not(0x1f)\n      0x1f\n      dup3\n      add\n      and\n      dup3\n      add\n      dup1\n      0x40\n      mstore\n      pop\n      dup2\n      add\n      swap1\n      tag_133\n      swap2\n      swap1\n      tag_134\n      jump\t// in\n    tag_133:\n        /* \"PrivateBridge.sol\":3209:3246  usdcp.balanceOf(msg.sender) >= amount */\n      lt\n      iszero\n        /* \"PrivateBridge.sol\":3201:3279  require(usdcp.balanceOf(msg.sender) >= amount, \"Bridge: insufficient balance\") */\n      tag_135\n      jumpi\n      mload(0x40)\n      0x08c379a000000000000000000000000000000000000000000000000000000000\n      dup2\n      mstore\n      0x04\n      add\n      tag_136\n      swap1\n      tag_137\n      jump\t// in\n    tag_136:\n      mload(0x40)\n      dup1\n      swap2\n      sub\n      swap1\n      revert\n    tag_135:\n        /* \"PrivateBridge.sol\":3322:3340  bytes32 withdrawId */\n      0x00\n        /* \"PrivateBridge.sol\":3383:3393  msg.sender */\n      caller\n        /* \"PrivateBridge.sol\":3407:3413  amount */\n      dup4\n        /* \"PrivateBridge.sol\":3427:3447  publicChainRecipient */\n      dup4\n        /* \"PrivateBridge.sol\":3461:3474  withdrawNonce */\n      sload(0x05)\n        /* \"PrivateBridge.sol\":3488:3503  block.timestamp */\n      timestamp\n        /* \"PrivateBridge.sol\":3353:3513  abi.encodePacked(... */\n      add(0x20, mload(0x40))\n      tag_138\n      swap6\n      swap5\n      swap4\n      swap3\n      swap2\n      swap1\n      tag_139\n      jump\t// in\n    tag_138:\n      mload(0x40)\n      0x20\n      dup2\n      dup4\n      sub\n      sub\n      dup2\n      mstore\n      swap1\n      0x40\n      mstore\n        /* \"PrivateBridge.sol\":3343:3514  keccak256(abi.encodePacked(... */\n      dup1\n      mload\n      swap1\n      0x20\n      add\n      keccak256\n        /* \"PrivateBridge.sol\":3322:3514  bytes32 withdrawId = keccak256(abi.encodePacked(... */\n      swap1\n      pop\n        /* \"PrivateBridge.sol\":3524:3537  withdrawNonce */\n      0x05\n      0x00\n        /* \"PrivateBridge.sol\":3524:3539  withdrawNonce++ */\n      dup2\n      sload\n      dup1\n      swap3\n      swap2\n      swap1\n      tag_140\n      swap1\n      tag_141\n      jump\t// in\n    tag_140:\n      swap2\n      swap1\n      pop\n      sstore\n      pop\n        /* \"PrivateBridge.sol\":3617:3828  WithdrawRequest({... */\n      mload(0x40)\n      dup1\n      0xa0\n      add\n      0x40\n      mstore\n      dup1\n        /* \"PrivateBridge.sol\":3653:3663  msg.sender */\n      caller\n        /* \"PrivateBridge.sol\":3617:3828  WithdrawRequest({... */\n      0xffffffffffffffffffffffffffffffffffffffff\n      and\n      dup2\n      mstore\n      0x20\n      add\n        /* \"PrivateBridge.sol\":3685:3691  amount */\n      dup5\n        /* \"PrivateBridge.sol\":3617:3828  WithdrawRequest({... */\n      dup2\n      mstore\n      0x20\n      add\n        /* \"PrivateBridge.sol\":3727:3747  publicChainRecipient */\n      dup4\n        /* \"PrivateBridge.sol\":3617:3828  WithdrawRequest({... */\n      0xffffffffffffffffffffffffffffffffffffffff\n      and\n      dup2\n      mstore\n      0x20\n      add\n        /* \"PrivateBridge.sol\":3772:3787  block.timestamp */\n      timestamp\n        /* \"PrivateBridge.sol\":3617:3828  WithdrawRequest({... */\n      dup2\n      mstore\n      0x20\n      add\n        /* \"PrivateBridge.sol\":3812:3817  false */\n      0x00\n        /* \"PrivateBridge.sol\":3617:3828  WithdrawRequest({... */\n      iszero\n      iszero\n      dup2\n      mstore\n      pop\n        /* \"PrivateBridge.sol\":3586:3602  withdrawRequests */\n      0x04\n        /* \"PrivateBridge.sol\":3586:3614  withdrawRequests[withdrawId] */\n      0x00\n        /* \"PrivateBridge.sol\":3603:3613  withdrawId */\n      dup4\n        /* \"PrivateBridge.sol\":3586:3614  withdrawRequests[withdrawId] */\n      dup2\n      mstore\n      0x20\n      add\n      swap1\n      dup2\n      mstore\n      0x20\n      add\n      0x00\n      keccak256\n        /* \"PrivateBridge.sol\":3586:3828  withdrawRequests[withdrawId] = WithdrawRequest({... */\n      0x00\n      dup3\n      add\n      mload\n      dup2\n      0x00\n      add\n      exp(0x0100, 0x00)\n      dup2\n      sload\n      dup2\n      0xffffffffffffffffffffffffffffffffffffffff\n      mul\n      not\n      and\n      swap1\n      dup4\n      0xffffffffffffffffffffffffffffffffffffffff\n      and\n      mul\n      or\n      swap1\n      sstore\n      pop\n      0x20\n      dup3\n      add\n      mload\n      dup2\n      0x01\n      add\n      sstore\n      0x40\n      dup3\n      add\n      mload\n      dup2\n      0x02\n      add\n      exp(0x0100, 0x00)\n      dup2\n      sload\n      dup2\n      0xffffffffffffffffffffffffffffffffffffffff\n      mul\n      not\n      and\n      swap1\n      dup4\n      0xffffffffffffffffffffffffffffffffffffffff\n      and\n      mul\n      or\n      swap1\n      sstore\n      pop\n      0x60\n      dup3\n      add\n      mload\n      dup2\n      0x03\n      add\n      sstore\n      0x80\n      dup3\n      add\n      mload\n      dup2\n      0x04\n      add\n      exp(0x0100, 0x00)\n      dup2\n      sload\n      dup2\n      0xff\n      mul\n      not\n      and\n      swap1\n      dup4\n      iszero\n      iszero\n      mul\n      or\n      swap1\n      sstore\n      pop\n      swap1\n      pop\n      pop\n        /* \"PrivateBridge.sol\":3873:3878  usdcp */\n      0x00\n      dup1\n      sload\n      swap1\n      0x0100\n      exp\n      swap1\n      div\n      0xffffffffffffffffffffffffffffffffffffffff\n      and\n        /* \"PrivateBridge.sol\":3873:3883  usdcp.burn */\n      0xffffffffffffffffffffffffffffffffffffffff\n      and\n      0x158a1cc3\n        /* \"PrivateBridge.sol\":3884:3894  msg.sender */\n      caller\n        /* \"PrivateBridge.sol\":3896:3902  amount */\n      dup6\n        /* \"PrivateBridge.sol\":3904:3914  withdrawId */\n      dup5\n        /* \"PrivateBridge.sol\":3873:3915  usdcp.burn(msg.sender, amount, withdrawId) */\n      mload(0x40)\n      dup5\n      0xffffffff\n      and\n      0xe0\n      shl\n      dup2\n      mstore\n      0x04\n      add\n      tag_142\n      swap4\n      swap3\n      swap2\n      swap1\n      tag_106\n      jump\t// in\n    tag_142:\n      0x00\n      mload(0x40)\n      dup1\n      dup4\n      sub\n      dup2\n      0x00\n      dup8\n      dup1\n      extcodesize\n      iszero\n      dup1\n      iszero\n      tag_143\n      jumpi\n      0x00\n      dup1\n      revert\n    tag_143:\n      pop\n      gas\n      call\n      iszero\n      dup1\n      iszero\n      tag_145\n      jumpi\n      returndatasize\n      0x00\n      dup1\n      returndatacopy\n      revert(0x00, returndatasize)\n    tag_145:\n      pop\n      pop\n      pop\n      pop\n        /* \"PrivateBridge.sol\":3961:3971  msg.sender */\n      caller\n        /* \"PrivateBridge.sol\":3931:4002  WithdrawRequested(withdrawId, msg.sender, amount, publicChainRecipient) */\n      0xffffffffffffffffffffffffffffffffffffffff\n      and\n        /* \"PrivateBridge.sol\":3949:3959  withdrawId */\n      dup2\n        /* \"PrivateBridge.sol\":3931:4002  WithdrawRequested(withdrawId, msg.sender, amount, publicChainRecipient) */\n      0xd538c920a07ae93ce0f0d0cdc7a11c5ada9534a51c1d4f48a60dba5af2fe352f\n        /* \"PrivateBridge.sol\":3973:3979  amount */\n      dup6\n        /* \"PrivateBridge.sol\":3981:4001  publicChainRecipient */\n      dup6\n        /* \"PrivateBridge.sol\":3931:4002  WithdrawRequested(withdrawId, msg.sender, amount, publicChainRecipient) */\n      mload(0x40)\n      tag_146\n      swap3\n      swap2\n      swap1\n      tag_147\n      jump\t// in\n    tag_146:\n      mload(0x40)\n      dup1\n      swap2\n      sub\n      swap1\n      log3\n        /* \"PrivateBridge.sol\":3050:4009  {... */\n      pop\n        /* \"PrivateBridge.sol\":2970:4009  function requestWithdraw(uint256 amount, address publicChainRecipient) external {... */\n      pop\n      pop\n      jump\t// out\n        /* \"PrivateBridge.sol\":4997:5125  function isDepositProcessed(bytes32 depositId) external view returns (bool) {... */\n    tag_71:\n        /* \"PrivateBridge.sol\":5067:5071  bool */\n      0x00\n        /* \"PrivateBridge.sol\":5090:5107  processedDeposits */\n      0x03\n        /* \"PrivateBridge.sol\":5090:5118  processedDeposits[depositId] */\n      0x00\n        /* \"PrivateBridge.sol\":5108:5117  depositId */\n      dup4\n        /* \"PrivateBridge.sol\":5090:5118  processedDeposits[depositId] */\n      dup2\n      mstore\n      0x20\n      add\n      swap1\n      dup2\n      mstore\n      0x20\n      add\n      0x00\n      keccak256\n      0x00\n      swap1\n      sload\n      swap1\n      0x0100\n      exp\n      swap1\n      div\n      0xff\n      and\n        /* \"PrivateBridge.sol\":5083:5118  return processedDeposits[depositId] */\n      swap1\n      pop\n        /* \"PrivateBridge.sol\":4997:5125  function isDepositProcessed(bytes32 depositId) external view returns (bool) {... */\n      swap2\n      swap1\n      pop\n      jump\t// out\n        /* \"PrivateBridge.sol\":4610:4991  function getWithdrawRequest(bytes32 withdrawId) external view returns (... */\n    tag_75:\n        /* \"PrivateBridge.sol\":4690:4702  address from */\n      0x00\n        /* \"PrivateBridge.sol\":4712:4726  uint256 amount */\n      dup1\n        /* \"PrivateBridge.sol\":4736:4764  address publicChainRecipient */\n      0x00\n        /* \"PrivateBridge.sol\":4774:4791  uint256 timestamp */\n      dup1\n        /* \"PrivateBridge.sol\":4801:4815  bool processed */\n      0x00\n        /* \"PrivateBridge.sol\":4832:4858  WithdrawRequest memory req */\n      dup1\n        /* \"PrivateBridge.sol\":4861:4877  withdrawRequests */\n      0x04\n        /* \"PrivateBridge.sol\":4861:4889  withdrawRequests[withdrawId] */\n      0x00\n        /* \"PrivateBridge.sol\":4878:4888  withdrawId */\n      dup9\n        /* \"PrivateBridge.sol\":4861:4889  withdrawRequests[withdrawId] */\n      dup2\n      mstore\n      0x20\n      add\n      swap1\n      dup2\n      mstore\n      0x20\n      add\n      0x00\n      keccak256\n        /* \"PrivateBridge.sol\":4832:4889  WithdrawRequest memory req = withdrawRequests[withdrawId] */\n      mload(0x40)\n      dup1\n      0xa0\n      add\n      0x40\n      mstore\n      swap1\n      dup2\n      0x00\n      dup3\n      add\n      0x00\n      swap1\n      sload\n      swap1\n      0x0100\n      exp\n      swap1\n      div\n      0xffffffffffffffffffffffffffffffffffffffff\n      and\n      0xffffffffffffffffffffffffffffffffffffffff\n      and\n      0xffffffffffffffffffffffffffffffffffffffff\n      and\n      dup2\n      mstore\n      0x20\n      add\n      0x01\n      dup3\n      add\n      sload\n      dup2\n      mstore\n      0x20\n      add\n      0x02\n      dup3\n      add\n      0x00\n      swap1\n      sload\n      swap1\n      0x0100\n      exp\n      swap1\n      div\n      0xffffffffffffffffffffffffffffffffffffffff\n      and\n      0xffffffffffffffffffffffffffffffffffffffff\n      and\n      0xffffffffffffffffffffffffffffffffffffffff\n      and\n      dup2\n      mstore\n      0x20\n      add\n      0x03\n      dup3\n      add\n      sload\n      dup2\n      mstore\n      0x20\n      add\n      0x04\n      dup3\n      add\n      0x00\n      swap1\n      sload\n      swap1\n      0x0100\n      exp\n      swap1\n      div\n      0xff\n      and\n      iszero\n      iszero\n      iszero\n      iszero\n      dup2\n      mstore\n      pop\n      pop\n      swap1\n      pop\n        /* \"PrivateBridge.sol\":4907:4910  req */\n      dup1\n        /* \"PrivateBridge.sol\":4907:4915  req.from */\n      0x00\n      add\n      mload\n        /* \"PrivateBridge.sol\":4917:4920  req */\n      dup2\n        /* \"PrivateBridge.sol\":4917:4927  req.amount */\n      0x20\n      add\n      mload\n        /* \"PrivateBridge.sol\":4929:4932  req */\n      dup3\n        /* \"PrivateBridge.sol\":4929:4953  req.publicChainRecipient */\n      0x40\n      add\n      mload\n        /* \"PrivateBridge.sol\":4955:4958  req */\n      dup4\n        /* \"PrivateBridge.sol\":4955:4968  req.timestamp */\n      0x60\n      add\n      mload\n        /* \"PrivateBridge.sol\":4970:4973  req */\n      dup5\n        /* \"PrivateBridge.sol\":4970:4983  req.processed */\n      0x80\n      add\n      mload\n        /* \"PrivateBridge.sol\":4899:4984  return (req.from, req.amount, req.publicChainRecipient, req.timestamp, req.processed) */\n      swap6\n      pop\n      swap6\n      pop\n      swap6\n      pop\n      swap6\n      pop\n      swap6\n      pop\n      pop\n        /* \"PrivateBridge.sol\":4610:4991  function getWithdrawRequest(bytes32 withdrawId) external view returns (... */\n      swap2\n      swap4\n      swap6\n      swap1\n      swap3\n      swap5\n      pop\n      jump\t// out\n        /* \"PrivateBridge.sol\":5546:5709  function transferOwnership(address newOwner) external onlyOwner {... */\n    tag_79:\n        /* \"PrivateBridge.sol\":1411:1416  owner */\n      0x01\n      0x00\n      swap1\n      sload\n      swap1\n      0x0100\n      exp\n      swap1\n      div\n      0xffffffffffffffffffffffffffffffffffffffff\n      and\n        /* \"PrivateBridge.sol\":1397:1416  msg.sender == owner */\n      0xffffffffffffffffffffffffffffffffffffffff\n      and\n        /* \"PrivateBridge.sol\":1397:1407  msg.sender */\n      caller\n        /* \"PrivateBridge.sol\":1397:1416  msg.sender == owner */\n      0xffffffffffffffffffffffffffffffffffffffff\n      and\n      eq\n        /* \"PrivateBridge.sol\":1389:1448  require(msg.sender == owner, \"Bridge: caller is not owner\") */\n      tag_151\n      jumpi\n      mload(0x40)\n      0x08c379a000000000000000000000000000000000000000000000000000000000\n      dup2\n      mstore\n      0x04\n      add\n      tag_152\n      swap1\n      tag_83\n      jump\t// in\n    tag_152:\n      mload(0x40)\n      dup1\n      swap2\n      sub\n      swap1\n      revert\n    tag_151:\n        /* \"PrivateBridge.sol\":5648:5649  0 */\n      0x00\n        /* \"PrivateBridge.sol\":5628:5650  newOwner != address(0) */\n      0xffffffffffffffffffffffffffffffffffffffff\n      and\n        /* \"PrivateBridge.sol\":5628:5636  newOwner */\n      dup2\n        /* \"PrivateBridge.sol\":5628:5650  newOwner != address(0) */\n      0xffffffffffffffffffffffffffffffffffffffff\n      and\n      eq\n      iszero\n        /* \"PrivateBridge.sol\":5620:5676  require(newOwner != address(0), \"Bridge: invalid owner\") */\n      tag_154\n      jumpi\n      mload(0x40)\n      0x08c379a000000000000000000000000000000000000000000000000000000000\n      dup2\n      mstore\n      0x04\n      add\n      tag_155\n      swap1\n      tag_156\n      jump\t// in\n    tag_155:\n      mload(0x40)\n      dup1\n      swap2\n      sub\n      swap1\n      revert\n    tag_154:\n        /* \"PrivateBridge.sol\":5694:5702  newOwner */\n      dup1\n        /* \"PrivateBridge.sol\":5686:5691  owner */\n      0x01\n      0x00\n        /* \"PrivateBridge.sol\":5686:5702  owner = newOwner */\n      0x0100\n      exp\n      dup2\n      sload\n      dup2\n      0xffffffffffffffffffffffffffffffffffffffff\n      mul\n      not\n      and\n      swap1\n      dup4\n      0xffffffffffffffffffffffffffffffffffffffff\n      and\n      mul\n      or\n      swap1\n      sstore\n      pop\n        /* \"PrivateBridge.sol\":5546:5709  function transferOwnership(address newOwner) external onlyOwner {... */\n      pop\n      jump\t// out\n        /* \"#utility.yul\":88:205   */\n    tag_158:\n        /* \"#utility.yul\":197:198   */\n      0x00\n        /* \"#utility.yul\":194:195   */\n      dup1\n        /* \"#utility.yul\":187:199   */\n      revert\n        /* \"#utility.yul\":334:411   */\n    tag_160:\n        /* \"#utility.yul\":371:378   */\n      0x00\n        /* \"#utility.yul\":400:405   */\n      dup2\n        /* \"#utility.yul\":389:405   */\n      swap1\n      pop\n        /* \"#utility.yul\":334:411   */\n      swap2\n      swap1\n      pop\n      jump\t// out\n        /* \"#utility.yul\":417:539   */\n    tag_161:\n        /* \"#utility.yul\":490:514   */\n      tag_217\n        /* \"#utility.yul\":508:513   */\n      dup2\n        /* \"#utility.yul\":490:514   */\n      tag_160\n      jump\t// in\n    tag_217:\n        /* \"#utility.yul\":483:488   */\n      dup2\n        /* \"#utility.yul\":480:515   */\n      eq\n        /* \"#utility.yul\":470:533   */\n      tag_218\n      jumpi\n        /* \"#utility.yul\":529:530   */\n      0x00\n        /* \"#utility.yul\":526:527   */\n      dup1\n        /* \"#utility.yul\":519:531   */\n      revert\n        /* \"#utility.yul\":470:533   */\n    tag_218:\n        /* \"#utility.yul\":417:539   */\n      pop\n      jump\t// out\n        /* \"#utility.yul\":545:684   */\n    tag_162:\n        /* \"#utility.yul\":591:596   */\n      0x00\n        /* \"#utility.yul\":629:635   */\n      dup2\n        /* \"#utility.yul\":616:636   */\n      calldataload\n        /* \"#utility.yul\":607:636   */\n      swap1\n      pop\n        /* \"#utility.yul\":645:678   */\n      tag_220\n        /* \"#utility.yul\":672:677   */\n      dup2\n        /* \"#utility.yul\":645:678   */\n      tag_161\n      jump\t// in\n    tag_220:\n        /* \"#utility.yul\":545:684   */\n      swap3\n      swap2\n      pop\n      pop\n      jump\t// out\n        /* \"#utility.yul\":690:1019   */\n    tag_23:\n        /* \"#utility.yul\":749:755   */\n      0x00\n        /* \"#utility.yul\":798:800   */\n      0x20\n        /* \"#utility.yul\":786:795   */\n      dup3\n        /* \"#utility.yul\":777:784   */\n      dup5\n        /* \"#utility.yul\":773:796   */\n      sub\n        /* \"#utility.yul\":769:801   */\n      slt\n        /* \"#utility.yul\":766:885   */\n      iszero\n      tag_222\n      jumpi\n        /* \"#utility.yul\":804:883   */\n      tag_223\n      tag_158\n      jump\t// in\n    tag_223:\n        /* \"#utility.yul\":766:885   */\n    tag_222:\n        /* \"#utility.yul\":924:925   */\n      0x00\n        /* \"#utility.yul\":949:1002   */\n      tag_224\n        /* \"#utility.yul\":994:1001   */\n      dup5\n        /* \"#utility.yul\":985:991   */\n      dup3\n        /* \"#utility.yul\":974:983   */\n      dup6\n        /* \"#utility.yul\":970:992   */\n      add\n        /* \"#utility.yul\":949:1002   */\n      tag_162\n      jump\t// in\n    tag_224:\n        /* \"#utility.yul\":939:1002   */\n      swap2\n      pop\n        /* \"#utility.yul\":895:1012   */\n      pop\n        /* \"#utility.yul\":690:1019   */\n      swap3\n      swap2\n      pop\n      pop\n      jump\t// out\n        /* \"#utility.yul\":1025:1151   */\n    tag_163:\n        /* \"#utility.yul\":1062:1069   */\n      0x00\n        /* \"#utility.yul\":1102:1144   */\n      0xffffffffffffffffffffffffffffffffffffffff\n        /* \"#utility.yul\":1095:1100   */\n      dup3\n        /* \"#utility.yul\":1091:1145   */\n      and\n        /* \"#utility.yul\":1080:1145   */\n      swap1\n      pop\n        /* \"#utility.yul\":1025:1151   */\n      swap2\n      swap1\n      pop\n      jump\t// out\n        /* \"#utility.yul\":1157:1253   */\n    tag_164:\n        /* \"#utility.yul\":1194:1201   */\n      0x00\n        /* \"#utility.yul\":1223:1247   */\n      tag_227\n        /* \"#utility.yul\":1241:1246   */\n      dup3\n        /* \"#utility.yul\":1223:1247   */\n      tag_163\n      jump\t// in\n    tag_227:\n        /* \"#utility.yul\":1212:1247   */\n      swap1\n      pop\n        /* \"#utility.yul\":1157:1253   */\n      swap2\n      swap1\n      pop\n      jump\t// out\n        /* \"#utility.yul\":1259:1377   */\n    tag_165:\n        /* \"#utility.yul\":1346:1370   */\n      tag_229\n        /* \"#utility.yul\":1364:1369   */\n      dup2\n        /* \"#utility.yul\":1346:1370   */\n      tag_164\n      jump\t// in\n    tag_229:\n        /* \"#utility.yul\":1341:1344   */\n      dup3\n        /* \"#utility.yul\":1334:1371   */\n      mstore\n        /* \"#utility.yul\":1259:1377   */\n      pop\n      pop\n      jump\t// out\n        /* \"#utility.yul\":1383:1460   */\n    tag_166:\n        /* \"#utility.yul\":1420:1427   */\n      0x00\n        /* \"#utility.yul\":1449:1454   */\n      dup2\n        /* \"#utility.yul\":1438:1454   */\n      swap1\n      pop\n        /* \"#utility.yul\":1383:1460   */\n      swap2\n      swap1\n      pop\n      jump\t// out\n        /* \"#utility.yul\":1466:1584   */\n    tag_167:\n        /* \"#utility.yul\":1553:1577   */\n      tag_232\n        /* \"#utility.yul\":1571:1576   */\n      dup2\n        /* \"#utility.yul\":1553:1577   */\n      tag_166\n      jump\t// in\n    tag_232:\n        /* \"#utility.yul\":1548:1551   */\n      dup3\n        /* \"#utility.yul\":1541:1578   */\n      mstore\n        /* \"#utility.yul\":1466:1584   */\n      pop\n      pop\n      jump\t// out\n        /* \"#utility.yul\":1590:1680   */\n    tag_168:\n        /* \"#utility.yul\":1624:1631   */\n      0x00\n        /* \"#utility.yul\":1667:1672   */\n      dup2\n        /* \"#utility.yul\":1660:1673   */\n      iszero\n        /* \"#utility.yul\":1653:1674   */\n      iszero\n        /* \"#utility.yul\":1642:1674   */\n      swap1\n      pop\n        /* \"#utility.yul\":1590:1680   */\n      swap2\n      swap1\n      pop\n      jump\t// out\n        /* \"#utility.yul\":1686:1795   */\n    tag_169:\n        /* \"#utility.yul\":1767:1788   */\n      tag_235\n        /* \"#utility.yul\":1782:1787   */\n      dup2\n        /* \"#utility.yul\":1767:1788   */\n      tag_168\n      jump\t// in\n    tag_235:\n        /* \"#utility.yul\":1762:1765   */\n      dup3\n        /* \"#utility.yul\":1755:1789   */\n      mstore\n        /* \"#utility.yul\":1686:1795   */\n      pop\n      pop\n      jump\t// out\n        /* \"#utility.yul\":1801:2453   */\n    tag_26:\n        /* \"#utility.yul\":2000:2004   */\n      0x00\n        /* \"#utility.yul\":2038:2041   */\n      0xa0\n        /* \"#utility.yul\":2027:2036   */\n      dup3\n        /* \"#utility.yul\":2023:2042   */\n      add\n        /* \"#utility.yul\":2015:2042   */\n      swap1\n      pop\n        /* \"#utility.yul\":2052:2123   */\n      tag_237\n        /* \"#utility.yul\":2120:2121   */\n      0x00\n        /* \"#utility.yul\":2109:2118   */\n      dup4\n        /* \"#utility.yul\":2105:2122   */\n      add\n        /* \"#utility.yul\":2096:2102   */\n      dup9\n        /* \"#utility.yul\":2052:2123   */\n      tag_165\n      jump\t// in\n    tag_237:\n        /* \"#utility.yul\":2133:2205   */\n      tag_238\n        /* \"#utility.yul\":2201:2203   */\n      0x20\n        /* \"#utility.yul\":2190:2199   */\n      dup4\n        /* \"#utility.yul\":2186:2204   */\n      add\n        /* \"#utility.yul\":2177:2183   */\n      dup8\n        /* \"#utility.yul\":2133:2205   */\n      tag_167\n      jump\t// in\n    tag_238:\n        /* \"#utility.yul\":2215:2287   */\n      tag_239\n        /* \"#utility.yul\":2283:2285   */\n      0x40\n        /* \"#utility.yul\":2272:2281   */\n      dup4\n        /* \"#utility.yul\":2268:2286   */\n      add\n        /* \"#utility.yul\":2259:2265   */\n      dup7\n        /* \"#utility.yul\":2215:2287   */\n      tag_165\n      jump\t// in\n    tag_239:\n        /* \"#utility.yul\":2297:2369   */\n      tag_240\n        /* \"#utility.yul\":2365:2367   */\n      0x60\n        /* \"#utility.yul\":2354:2363   */\n      dup4\n        /* \"#utility.yul\":2350:2368   */\n      add\n        /* \"#utility.yul\":2341:2347   */\n      dup6\n        /* \"#utility.yul\":2297:2369   */\n      tag_167\n      jump\t// in\n    tag_240:\n        /* \"#utility.yul\":2379:2446   */\n      tag_241\n        /* \"#utility.yul\":2441:2444   */\n      0x80\n        /* \"#utility.yul\":2430:2439   */\n      dup4\n        /* \"#utility.yul\":2426:2445   */\n      add\n        /* \"#utility.yul\":2417:2423   */\n      dup5\n        /* \"#utility.yul\":2379:2446   */\n      tag_169\n      jump\t// in\n    tag_241:\n        /* \"#utility.yul\":1801:2453   */\n      swap7\n      swap6\n      pop\n      pop\n      pop\n      pop\n      pop\n      pop\n      jump\t// out\n        /* \"#utility.yul\":2459:2581   */\n    tag_170:\n        /* \"#utility.yul\":2532:2556   */\n      tag_243\n        /* \"#utility.yul\":2550:2555   */\n      dup2\n        /* \"#utility.yul\":2532:2556   */\n      tag_164\n      jump\t// in\n    tag_243:\n        /* \"#utility.yul\":2525:2530   */\n      dup2\n        /* \"#utility.yul\":2522:2557   */\n      eq\n        /* \"#utility.yul\":2512:2575   */\n      tag_244\n      jumpi\n        /* \"#utility.yul\":2571:2572   */\n      0x00\n        /* \"#utility.yul\":2568:2569   */\n      dup1\n        /* \"#utility.yul\":2561:2573   */\n      revert\n        /* \"#utility.yul\":2512:2575   */\n    tag_244:\n        /* \"#utility.yul\":2459:2581   */\n      pop\n      jump\t// out\n        /* \"#utility.yul\":2587:2726   */\n    tag_171:\n        /* \"#utility.yul\":2633:2638   */\n      0x00\n        /* \"#utility.yul\":2671:2677   */\n      dup2\n        /* \"#utility.yul\":2658:2678   */\n      calldataload\n        /* \"#utility.yul\":2649:2678   */\n      swap1\n      pop\n        /* \"#utility.yul\":2687:2720   */\n      tag_246\n        /* \"#utility.yul\":2714:2719   */\n      dup2\n        /* \"#utility.yul\":2687:2720   */\n      tag_170\n      jump\t// in\n    tag_246:\n        /* \"#utility.yul\":2587:2726   */\n      swap3\n      swap2\n      pop\n      pop\n      jump\t// out\n        /* \"#utility.yul\":2732:3061   */\n    tag_29:\n        /* \"#utility.yul\":2791:2797   */\n      0x00\n        /* \"#utility.yul\":2840:2842   */\n      0x20\n        /* \"#utility.yul\":2828:2837   */\n      dup3\n        /* \"#utility.yul\":2819:2826   */\n      dup5\n        /* \"#utility.yul\":2815:2838   */\n      sub\n        /* \"#utility.yul\":2811:2843   */\n      slt\n        /* \"#utility.yul\":2808:2927   */\n      iszero\n      tag_248\n      jumpi\n        /* \"#utility.yul\":2846:2925   */\n      tag_249\n      tag_158\n      jump\t// in\n    tag_249:\n        /* \"#utility.yul\":2808:2927   */\n    tag_248:\n        /* \"#utility.yul\":2966:2967   */\n      0x00\n        /* \"#utility.yul\":2991:3044   */\n      tag_250\n        /* \"#utility.yul\":3036:3043   */\n      dup5\n        /* \"#utility.yul\":3027:3033   */\n      dup3\n        /* \"#utility.yul\":3016:3025   */\n      dup6\n        /* \"#utility.yul\":3012:3034   */\n      add\n        /* \"#utility.yul\":2991:3044   */\n      tag_171\n      jump\t// in\n    tag_250:\n        /* \"#utility.yul\":2981:3044   */\n      swap2\n      pop\n        /* \"#utility.yul\":2937:3054   */\n      pop\n        /* \"#utility.yul\":2732:3061   */\n      swap3\n      swap2\n      pop\n      pop\n      jump\t// out\n        /* \"#utility.yul\":3067:3277   */\n    tag_32:\n        /* \"#utility.yul\":3154:3158   */\n      0x00\n        /* \"#utility.yul\":3192:3194   */\n      0x20\n        /* \"#utility.yul\":3181:3190   */\n      dup3\n        /* \"#utility.yul\":3177:3195   */\n      add\n        /* \"#utility.yul\":3169:3195   */\n      swap1\n      pop\n        /* \"#utility.yul\":3205:3270   */\n      tag_252\n        /* \"#utility.yul\":3267:3268   */\n      0x00\n        /* \"#utility.yul\":3256:3265   */\n      dup4\n        /* \"#utility.yul\":3252:3269   */\n      add\n        /* \"#utility.yul\":3243:3249   */\n      dup5\n        /* \"#utility.yul\":3205:3270   */\n      tag_169\n      jump\t// in\n    tag_252:\n        /* \"#utility.yul\":3067:3277   */\n      swap3\n      swap2\n      pop\n      pop\n      jump\t// out\n        /* \"#utility.yul\":3283:3343   */\n    tag_172:\n        /* \"#utility.yul\":3311:3314   */\n      0x00\n        /* \"#utility.yul\":3332:3337   */\n      dup2\n        /* \"#utility.yul\":3325:3337   */\n      swap1\n      pop\n        /* \"#utility.yul\":3283:3343   */\n      swap2\n      swap1\n      pop\n      jump\t// out\n        /* \"#utility.yul\":3349:3491   */\n    tag_173:\n        /* \"#utility.yul\":3399:3408   */\n      0x00\n        /* \"#utility.yul\":3432:3485   */\n      tag_255\n        /* \"#utility.yul\":3450:3484   */\n      tag_256\n        /* \"#utility.yul\":3459:3483   */\n      tag_257\n        /* \"#utility.yul\":3477:3482   */\n      dup5\n        /* \"#utility.yul\":3459:3483   */\n      tag_163\n      jump\t// in\n    tag_257:\n        /* \"#utility.yul\":3450:3484   */\n      tag_172\n      jump\t// in\n    tag_256:\n        /* \"#utility.yul\":3432:3485   */\n      tag_163\n      jump\t// in\n    tag_255:\n        /* \"#utility.yul\":3419:3485   */\n      swap1\n      pop\n        /* \"#utility.yul\":3349:3491   */\n      swap2\n      swap1\n      pop\n      jump\t// out\n        /* \"#utility.yul\":3497:3623   */\n    tag_174:\n        /* \"#utility.yul\":3547:3556   */\n      0x00\n        /* \"#utility.yul\":3580:3617   */\n      tag_259\n        /* \"#utility.yul\":3611:3616   */\n      dup3\n        /* \"#utility.yul\":3580:3617   */\n      tag_173\n      jump\t// in\n    tag_259:\n        /* \"#utility.yul\":3567:3617   */\n      swap1\n      pop\n        /* \"#utility.yul\":3497:3623   */\n      swap2\n      swap1\n      pop\n      jump\t// out\n        /* \"#utility.yul\":3629:3768   */\n    tag_175:\n        /* \"#utility.yul\":3692:3701   */\n      0x00\n        /* \"#utility.yul\":3725:3762   */\n      tag_261\n        /* \"#utility.yul\":3756:3761   */\n      dup3\n        /* \"#utility.yul\":3725:3762   */\n      tag_174\n      jump\t// in\n    tag_261:\n        /* \"#utility.yul\":3712:3762   */\n      swap1\n      pop\n        /* \"#utility.yul\":3629:3768   */\n      swap2\n      swap1\n      pop\n      jump\t// out\n        /* \"#utility.yul\":3774:3931   */\n    tag_176:\n        /* \"#utility.yul\":3874:3924   */\n      tag_263\n        /* \"#utility.yul\":3918:3923   */\n      dup2\n        /* \"#utility.yul\":3874:3924   */\n      tag_175\n      jump\t// in\n    tag_263:\n        /* \"#utility.yul\":3869:3872   */\n      dup3\n        /* \"#utility.yul\":3862:3925   */\n      mstore\n        /* \"#utility.yul\":3774:3931   */\n      pop\n      pop\n      jump\t// out\n        /* \"#utility.yul\":3937:4185   */\n    tag_43:\n        /* \"#utility.yul\":4043:4047   */\n      0x00\n        /* \"#utility.yul\":4081:4083   */\n      0x20\n        /* \"#utility.yul\":4070:4079   */\n      dup3\n        /* \"#utility.yul\":4066:4084   */\n      add\n        /* \"#utility.yul\":4058:4084   */\n      swap1\n      pop\n        /* \"#utility.yul\":4094:4178   */\n      tag_265\n        /* \"#utility.yul\":4175:4176   */\n      0x00\n        /* \"#utility.yul\":4164:4173   */\n      dup4\n        /* \"#utility.yul\":4160:4177   */\n      add\n        /* \"#utility.yul\":4151:4157   */\n      dup5\n        /* \"#utility.yul\":4094:4178   */\n      tag_176\n      jump\t// in\n    tag_265:\n        /* \"#utility.yul\":3937:4185   */\n      swap3\n      swap2\n      pop\n      pop\n      jump\t// out\n        /* \"#utility.yul\":4191:4313   */\n    tag_177:\n        /* \"#utility.yul\":4264:4288   */\n      tag_267\n        /* \"#utility.yul\":4282:4287   */\n      dup2\n        /* \"#utility.yul\":4264:4288   */\n      tag_166\n      jump\t// in\n    tag_267:\n        /* \"#utility.yul\":4257:4262   */\n      dup2\n        /* \"#utility.yul\":4254:4289   */\n      eq\n        /* \"#utility.yul\":4244:4307   */\n      tag_268\n      jumpi\n        /* \"#utility.yul\":4303:4304   */\n      0x00\n        /* \"#utility.yul\":4300:4301   */\n      dup1\n        /* \"#utility.yul\":4293:4305   */\n      revert\n        /* \"#utility.yul\":4244:4307   */\n    tag_268:\n        /* \"#utility.yul\":4191:4313   */\n      pop\n      jump\t// out\n        /* \"#utility.yul\":4319:4458   */\n    tag_178:\n        /* \"#utility.yul\":4365:4370   */\n      0x00\n        /* \"#utility.yul\":4403:4409   */\n      dup2\n        /* \"#utility.yul\":4390:4410   */\n      calldataload\n        /* \"#utility.yul\":4381:4410   */\n      swap1\n      pop\n        /* \"#utility.yul\":4419:4452   */\n      tag_270\n        /* \"#utility.yul\":4446:4451   */\n      dup2\n        /* \"#utility.yul\":4419:4452   */\n      tag_177\n      jump\t// in\n    tag_270:\n        /* \"#utility.yul\":4319:4458   */\n      swap3\n      swap2\n      pop\n      pop\n      jump\t// out\n        /* \"#utility.yul\":4464:5083   */\n    tag_49:\n        /* \"#utility.yul\":4541:4547   */\n      0x00\n        /* \"#utility.yul\":4549:4555   */\n      dup1\n        /* \"#utility.yul\":4557:4563   */\n      0x00\n        /* \"#utility.yul\":4606:4608   */\n      0x60\n        /* \"#utility.yul\":4594:4603   */\n      dup5\n        /* \"#utility.yul\":4585:4592   */\n      dup7\n        /* \"#utility.yul\":4581:4604   */\n      sub\n        /* \"#utility.yul\":4577:4609   */\n      slt\n        /* \"#utility.yul\":4574:4693   */\n      iszero\n      tag_272\n      jumpi\n        /* \"#utility.yul\":4612:4691   */\n      tag_273\n      tag_158\n      jump\t// in\n    tag_273:\n        /* \"#utility.yul\":4574:4693   */\n    tag_272:\n        /* \"#utility.yul\":4732:4733   */\n      0x00\n        /* \"#utility.yul\":4757:4810   */\n      tag_274\n        /* \"#utility.yul\":4802:4809   */\n      dup7\n        /* \"#utility.yul\":4793:4799   */\n      dup3\n        /* \"#utility.yul\":4782:4791   */\n      dup8\n        /* \"#utility.yul\":4778:4800   */\n      add\n        /* \"#utility.yul\":4757:4810   */\n      tag_171\n      jump\t// in\n    tag_274:\n        /* \"#utility.yul\":4747:4810   */\n      swap4\n      pop\n        /* \"#utility.yul\":4703:4820   */\n      pop\n        /* \"#utility.yul\":4859:4861   */\n      0x20\n        /* \"#utility.yul\":4885:4938   */\n      tag_275\n        /* \"#utility.yul\":4930:4937   */\n      dup7\n        /* \"#utility.yul\":4921:4927   */\n      dup3\n        /* \"#utility.yul\":4910:4919   */\n      dup8\n        /* \"#utility.yul\":4906:4928   */\n      add\n        /* \"#utility.yul\":4885:4938   */\n      tag_178\n      jump\t// in\n    tag_275:\n        /* \"#utility.yul\":4875:4938   */\n      swap3\n      pop\n        /* \"#utility.yul\":4830:4948   */\n      pop\n        /* \"#utility.yul\":4987:4989   */\n      0x40\n        /* \"#utility.yul\":5013:5066   */\n      tag_276\n        /* \"#utility.yul\":5058:5065   */\n      dup7\n        /* \"#utility.yul\":5049:5055   */\n      dup3\n        /* \"#utility.yul\":5038:5047   */\n      dup8\n        /* \"#utility.yul\":5034:5056   */\n      add\n        /* \"#utility.yul\":5013:5066   */\n      tag_162\n      jump\t// in\n    tag_276:\n        /* \"#utility.yul\":5003:5066   */\n      swap2\n      pop\n        /* \"#utility.yul\":4958:5076   */\n      pop\n        /* \"#utility.yul\":4464:5083   */\n      swap3\n      pop\n      swap3\n      pop\n      swap3\n      jump\t// out\n        /* \"#utility.yul\":5089:5311   */\n    tag_54:\n        /* \"#utility.yul\":5182:5186   */\n      0x00\n        /* \"#utility.yul\":5220:5222   */\n      0x20\n        /* \"#utility.yul\":5209:5218   */\n      dup3\n        /* \"#utility.yul\":5205:5223   */\n      add\n        /* \"#utility.yul\":5197:5223   */\n      swap1\n      pop\n        /* \"#utility.yul\":5233:5304   */\n      tag_278\n        /* \"#utility.yul\":5301:5302   */\n      0x00\n        /* \"#utility.yul\":5290:5299   */\n      dup4\n        /* \"#utility.yul\":5286:5303   */\n      add\n        /* \"#utility.yul\":5277:5283   */\n      dup5\n        /* \"#utility.yul\":5233:5304   */\n      tag_165\n      jump\t// in\n    tag_278:\n        /* \"#utility.yul\":5089:5311   */\n      swap3\n      swap2\n      pop\n      pop\n      jump\t// out\n        /* \"#utility.yul\":5317:5539   */\n    tag_64:\n        /* \"#utility.yul\":5410:5414   */\n      0x00\n        /* \"#utility.yul\":5448:5450   */\n      0x20\n        /* \"#utility.yul\":5437:5446   */\n      dup3\n        /* \"#utility.yul\":5433:5451   */\n      add\n        /* \"#utility.yul\":5425:5451   */\n      swap1\n      pop\n        /* \"#utility.yul\":5461:5532   */\n      tag_280\n        /* \"#utility.yul\":5529:5530   */\n      0x00\n        /* \"#utility.yul\":5518:5527   */\n      dup4\n        /* \"#utility.yul\":5514:5531   */\n      add\n        /* \"#utility.yul\":5505:5511   */\n      dup5\n        /* \"#utility.yul\":5461:5532   */\n      tag_167\n      jump\t// in\n    tag_280:\n        /* \"#utility.yul\":5317:5539   */\n      swap3\n      swap2\n      pop\n      pop\n      jump\t// out\n        /* \"#utility.yul\":5545:6019   */\n    tag_67:\n        /* \"#utility.yul\":5613:5619   */\n      0x00\n        /* \"#utility.yul\":5621:5627   */\n      dup1\n        /* \"#utility.yul\":5670:5672   */\n      0x40\n        /* \"#utility.yul\":5658:5667   */\n      dup4\n        /* \"#utility.yul\":5649:5656   */\n      dup6\n        /* \"#utility.yul\":5645:5668   */\n      sub\n        /* \"#utility.yul\":5641:5673   */\n      slt\n        /* \"#utility.yul\":5638:5757   */\n      iszero\n      tag_282\n      jumpi\n        /* \"#utility.yul\":5676:5755   */\n      tag_283\n      tag_158\n      jump\t// in\n    tag_283:\n        /* \"#utility.yul\":5638:5757   */\n    tag_282:\n        /* \"#utility.yul\":5796:5797   */\n      0x00\n        /* \"#utility.yul\":5821:5874   */\n      tag_284\n        /* \"#utility.yul\":5866:5873   */\n      dup6\n        /* \"#utility.yul\":5857:5863   */\n      dup3\n        /* \"#utility.yul\":5846:5855   */\n      dup7\n        /* \"#utility.yul\":5842:5864   */\n      add\n        /* \"#utility.yul\":5821:5874   */\n      tag_178\n      jump\t// in\n    tag_284:\n        /* \"#utility.yul\":5811:5874   */\n      swap3\n      pop\n        /* \"#utility.yul\":5767:5884   */\n      pop\n        /* \"#utility.yul\":5923:5925   */\n      0x20\n        /* \"#utility.yul\":5949:6002   */\n      tag_285\n        /* \"#utility.yul\":5994:6001   */\n      dup6\n        /* \"#utility.yul\":5985:5991   */\n      dup3\n        /* \"#utility.yul\":5974:5983   */\n      dup7\n        /* \"#utility.yul\":5970:5992   */\n      add\n        /* \"#utility.yul\":5949:6002   */\n      tag_171\n      jump\t// in\n    tag_285:\n        /* \"#utility.yul\":5939:6002   */\n      swap2\n      pop\n        /* \"#utility.yul\":5894:6012   */\n      pop\n        /* \"#utility.yul\":5545:6019   */\n      swap3\n      pop\n      swap3\n      swap1\n      pop\n      jump\t// out\n        /* \"#utility.yul\":6025:6194   */\n    tag_179:\n        /* \"#utility.yul\":6109:6120   */\n      0x00\n        /* \"#utility.yul\":6143:6149   */\n      dup3\n        /* \"#utility.yul\":6138:6141   */\n      dup3\n        /* \"#utility.yul\":6131:6150   */\n      mstore\n        /* \"#utility.yul\":6183:6187   */\n      0x20\n        /* \"#utility.yul\":6178:6181   */\n      dup3\n        /* \"#utility.yul\":6174:6188   */\n      add\n        /* \"#utility.yul\":6159:6188   */\n      swap1\n      pop\n        /* \"#utility.yul\":6025:6194   */\n      swap3\n      swap2\n      pop\n      pop\n      jump\t// out\n        /* \"#utility.yul\":6200:6377   */\n    tag_180:\n        /* \"#utility.yul\":6340:6369   */\n      0x4272696467653a2063616c6c6572206973206e6f74206f776e65720000000000\n        /* \"#utility.yul\":6336:6337   */\n      0x00\n        /* \"#utility.yul\":6328:6334   */\n      dup3\n        /* \"#utility.yul\":6324:6338   */\n      add\n        /* \"#utility.yul\":6317:6370   */\n      mstore\n        /* \"#utility.yul\":6200:6377   */\n      pop\n      jump\t// out\n        /* \"#utility.yul\":6383:6749   */\n    tag_181:\n        /* \"#utility.yul\":6525:6528   */\n      0x00\n        /* \"#utility.yul\":6546:6613   */\n      tag_289\n        /* \"#utility.yul\":6610:6612   */\n      0x1b\n        /* \"#utility.yul\":6605:6608   */\n      dup4\n        /* \"#utility.yul\":6546:6613   */\n      tag_179\n      jump\t// in\n    tag_289:\n        /* \"#utility.yul\":6539:6613   */\n      swap2\n      pop\n        /* \"#utility.yul\":6622:6715   */\n      tag_290\n        /* \"#utility.yul\":6711:6714   */\n      dup3\n        /* \"#utility.yul\":6622:6715   */\n      tag_180\n      jump\t// in\n    tag_290:\n        /* \"#utility.yul\":6740:6742   */\n      0x20\n        /* \"#utility.yul\":6735:6738   */\n      dup3\n        /* \"#utility.yul\":6731:6743   */\n      add\n        /* \"#utility.yul\":6724:6743   */\n      swap1\n      pop\n        /* \"#utility.yul\":6383:6749   */\n      swap2\n      swap1\n      pop\n      jump\t// out\n        /* \"#utility.yul\":6755:7174   */\n    tag_83:\n        /* \"#utility.yul\":6921:6925   */\n      0x00\n        /* \"#utility.yul\":6959:6961   */\n      0x20\n        /* \"#utility.yul\":6948:6957   */\n      dup3\n        /* \"#utility.yul\":6944:6962   */\n      add\n        /* \"#utility.yul\":6936:6962   */\n      swap1\n      pop\n        /* \"#utility.yul\":7008:7017   */\n      dup2\n        /* \"#utility.yul\":7002:7006   */\n      dup2\n        /* \"#utility.yul\":6998:7018   */\n      sub\n        /* \"#utility.yul\":6994:6995   */\n      0x00\n        /* \"#utility.yul\":6983:6992   */\n      dup4\n        /* \"#utility.yul\":6979:6996   */\n      add\n        /* \"#utility.yul\":6972:7019   */\n      mstore\n        /* \"#utility.yul\":7036:7167   */\n      tag_292\n        /* \"#utility.yul\":7162:7166   */\n      dup2\n        /* \"#utility.yul\":7036:7167   */\n      tag_181\n      jump\t// in\n    tag_292:\n        /* \"#utility.yul\":7028:7167   */\n      swap1\n      pop\n        /* \"#utility.yul\":6755:7174   */\n      swap2\n      swap1\n      pop\n      jump\t// out\n        /* \"#utility.yul\":7180:7360   */\n    tag_182:\n        /* \"#utility.yul\":7320:7352   */\n      0x4272696467653a2063616c6c6572206973206e6f74206f70657261746f720000\n        /* \"#utility.yul\":7316:7317   */\n      0x00\n        /* \"#utility.yul\":7308:7314   */\n      dup3\n        /* \"#utility.yul\":7304:7318   */\n      add\n        /* \"#utility.yul\":7297:7353   */\n      mstore\n        /* \"#utility.yul\":7180:7360   */\n      pop\n      jump\t// out\n        /* \"#utility.yul\":7366:7732   */\n    tag_183:\n        /* \"#utility.yul\":7508:7511   */\n      0x00\n        /* \"#utility.yul\":7529:7596   */\n      tag_295\n        /* \"#utility.yul\":7593:7595   */\n      0x1e\n        /* \"#utility.yul\":7588:7591   */\n      dup4\n        /* \"#utility.yul\":7529:7596   */\n      tag_179\n      jump\t// in\n    tag_295:\n        /* \"#utility.yul\":7522:7596   */\n      swap2\n      pop\n        /* \"#utility.yul\":7605:7698   */\n      tag_296\n        /* \"#utility.yul\":7694:7697   */\n      dup3\n        /* \"#utility.yul\":7605:7698   */\n      tag_182\n      jump\t// in\n    tag_296:\n        /* \"#utility.yul\":7723:7725   */\n      0x20\n        /* \"#utility.yul\":7718:7721   */\n      dup3\n        /* \"#utility.yul\":7714:7726   */\n      add\n        /* \"#utility.yul\":7707:7726   */\n      swap1\n      pop\n        /* \"#utility.yul\":7366:7732   */\n      swap2\n      swap1\n      pop\n      jump\t// out\n        /* \"#utility.yul\":7738:8157   */\n    tag_88:\n        /* \"#utility.yul\":7904:7908   */\n      0x00\n        /* \"#utility.yul\":7942:7944   */\n      0x20\n        /* \"#utility.yul\":7931:7940   */\n      dup3\n        /* \"#utility.yul\":7927:7945   */\n      add\n        /* \"#utility.yul\":7919:7945   */\n      swap1\n      pop\n        /* \"#utility.yul\":7991:8000   */\n      dup2\n        /* \"#utility.yul\":7985:7989   */\n      dup2\n        /* \"#utility.yul\":7981:8001   */\n      sub\n        /* \"#utility.yul\":7977:7978   */\n      0x00\n        /* \"#utility.yul\":7966:7975   */\n      dup4\n        /* \"#utility.yul\":7962:7979   */\n      add\n        /* \"#utility.yul\":7955:8002   */\n      mstore\n        /* \"#utility.yul\":8019:8150   */\n      tag_298\n        /* \"#utility.yul\":8145:8149   */\n      dup2\n        /* \"#utility.yul\":8019:8150   */\n      tag_183\n      jump\t// in\n    tag_298:\n        /* \"#utility.yul\":8011:8150   */\n      swap1\n      pop\n        /* \"#utility.yul\":7738:8157   */\n      swap2\n      swap1\n      pop\n      jump\t// out\n        /* \"#utility.yul\":8163:8339   */\n    tag_184:\n        /* \"#utility.yul\":8303:8331   */\n      0x4272696467653a207769746864726177206e6f7420666f756e64000000000000\n        /* \"#utility.yul\":8299:8300   */\n      0x00\n        /* \"#utility.yul\":8291:8297   */\n      dup3\n        /* \"#utility.yul\":8287:8301   */\n      add\n        /* \"#utility.yul\":8280:8332   */\n      mstore\n        /* \"#utility.yul\":8163:8339   */\n      pop\n      jump\t// out\n        /* \"#utility.yul\":8345:8711   */\n    tag_185:\n        /* \"#utility.yul\":8487:8490   */\n      0x00\n        /* \"#utility.yul\":8508:8575   */\n      tag_301\n        /* \"#utility.yul\":8572:8574   */\n      0x1a\n        /* \"#utility.yul\":8567:8570   */\n      dup4\n        /* \"#utility.yul\":8508:8575   */\n      tag_179\n      jump\t// in\n    tag_301:\n        /* \"#utility.yul\":8501:8575   */\n      swap2\n      pop\n        /* \"#utility.yul\":8584:8677   */\n      tag_302\n        /* \"#utility.yul\":8673:8676   */\n      dup3\n        /* \"#utility.yul\":8584:8677   */\n      tag_184\n      jump\t// in\n    tag_302:\n        /* \"#utility.yul\":8702:8704   */\n      0x20\n        /* \"#utility.yul\":8697:8700   */\n      dup3\n        /* \"#utility.yul\":8693:8705   */\n      add\n        /* \"#utility.yul\":8686:8705   */\n      swap1\n      pop\n        /* \"#utility.yul\":8345:8711   */\n      swap2\n      swap1\n      pop\n      jump\t// out\n        /* \"#utility.yul\":8717:9136   */\n    tag_92:\n        /* \"#utility.yul\":8883:8887   */\n      0x00\n        /* \"#utility.yul\":8921:8923   */\n      0x20\n        /* \"#utility.yul\":8910:8919   */\n      dup3\n        /* \"#utility.yul\":8906:8924   */\n      add\n        /* \"#utility.yul\":8898:8924   */\n      swap1\n      pop\n        /* \"#utility.yul\":8970:8979   */\n      dup2\n        /* \"#utility.yul\":8964:8968   */\n      dup2\n        /* \"#utility.yul\":8960:8980   */\n      sub\n        /* \"#utility.yul\":8956:8957   */\n      0x00\n        /* \"#utility.yul\":8945:8954   */\n      dup4\n        /* \"#utility.yul\":8941:8958   */\n      add\n        /* \"#utility.yul\":8934:8981   */\n      mstore\n        /* \"#utility.yul\":8998:9129   */\n      tag_304\n        /* \"#utility.yul\":9124:9128   */\n      dup2\n        /* \"#utility.yul\":8998:9129   */\n      tag_185\n      jump\t// in\n    tag_304:\n        /* \"#utility.yul\":8990:9129   */\n      swap1\n      pop\n        /* \"#utility.yul\":8717:9136   */\n      swap2\n      swap1\n      pop\n      jump\t// out\n        /* \"#utility.yul\":9142:9317   */\n    tag_186:\n        /* \"#utility.yul\":9282:9309   */\n      0x4272696467653a20616c72656164792070726f63657373656400000000000000\n        /* \"#utility.yul\":9278:9279   */\n      0x00\n        /* \"#utility.yul\":9270:9276   */\n      dup3\n        /* \"#utility.yul\":9266:9280   */\n      add\n        /* \"#utility.yul\":9259:9310   */\n      mstore\n        /* \"#utility.yul\":9142:9317   */\n      pop\n      jump\t// out\n        /* \"#utility.yul\":9323:9689   */\n    tag_187:\n        /* \"#utility.yul\":9465:9468   */\n      0x00\n        /* \"#utility.yul\":9486:9553   */\n      tag_307\n        /* \"#utility.yul\":9550:9552   */\n      0x19\n        /* \"#utility.yul\":9545:9548   */\n      dup4\n        /* \"#utility.yul\":9486:9553   */\n      tag_179\n      jump\t// in\n    tag_307:\n        /* \"#utility.yul\":9479:9553   */\n      swap2\n      pop\n        /* \"#utility.yul\":9562:9655   */\n      tag_308\n        /* \"#utility.yul\":9651:9654   */\n      dup3\n        /* \"#utility.yul\":9562:9655   */\n      tag_186\n      jump\t// in\n    tag_308:\n        /* \"#utility.yul\":9680:9682   */\n      0x20\n        /* \"#utility.yul\":9675:9678   */\n      dup3\n        /* \"#utility.yul\":9671:9683   */\n      add\n        /* \"#utility.yul\":9664:9683   */\n      swap1\n      pop\n        /* \"#utility.yul\":9323:9689   */\n      swap2\n      swap1\n      pop\n      jump\t// out\n        /* \"#utility.yul\":9695:10114   */\n    tag_95:\n        /* \"#utility.yul\":9861:9865   */\n      0x00\n        /* \"#utility.yul\":9899:9901   */\n      0x20\n        /* \"#utility.yul\":9888:9897   */\n      dup3\n        /* \"#utility.yul\":9884:9902   */\n      add\n        /* \"#utility.yul\":9876:9902   */\n      swap1\n      pop\n        /* \"#utility.yul\":9948:9957   */\n      dup2\n        /* \"#utility.yul\":9942:9946   */\n      dup2\n        /* \"#utility.yul\":9938:9958   */\n      sub\n        /* \"#utility.yul\":9934:9935   */\n      0x00\n        /* \"#utility.yul\":9923:9932   */\n      dup4\n        /* \"#utility.yul\":9919:9936   */\n      add\n        /* \"#utility.yul\":9912:9959   */\n      mstore\n        /* \"#utility.yul\":9976:10107   */\n      tag_310\n        /* \"#utility.yul\":10102:10106   */\n      dup2\n        /* \"#utility.yul\":9976:10107   */\n      tag_187\n      jump\t// in\n    tag_310:\n        /* \"#utility.yul\":9968:10107   */\n      swap1\n      pop\n        /* \"#utility.yul\":9695:10114   */\n      swap2\n      swap1\n      pop\n      jump\t// out\n        /* \"#utility.yul\":10120:10199   */\n    tag_188:\n        /* \"#utility.yul\":10159:10166   */\n      0x00\n        /* \"#utility.yul\":10188:10193   */\n      dup2\n        /* \"#utility.yul\":10177:10193   */\n      swap1\n      pop\n        /* \"#utility.yul\":10120:10199   */\n      swap2\n      swap1\n      pop\n      jump\t// out\n        /* \"#utility.yul\":10205:10362   */\n    tag_189:\n        /* \"#utility.yul\":10310:10355   */\n      tag_313\n        /* \"#utility.yul\":10330:10354   */\n      tag_314\n        /* \"#utility.yul\":10348:10353   */\n      dup3\n        /* \"#utility.yul\":10330:10354   */\n      tag_160\n      jump\t// in\n    tag_314:\n        /* \"#utility.yul\":10310:10355   */\n      tag_188\n      jump\t// in\n    tag_313:\n        /* \"#utility.yul\":10305:10308   */\n      dup3\n        /* \"#utility.yul\":10298:10356   */\n      mstore\n        /* \"#utility.yul\":10205:10362   */\n      pop\n      pop\n      jump\t// out\n        /* \"#utility.yul\":10368:10462   */\n    tag_190:\n        /* \"#utility.yul\":10401:10409   */\n      0x00\n        /* \"#utility.yul\":10449:10454   */\n      dup2\n        /* \"#utility.yul\":10445:10447   */\n      0x60\n        /* \"#utility.yul\":10441:10455   */\n      shl\n        /* \"#utility.yul\":10420:10455   */\n      swap1\n      pop\n        /* \"#utility.yul\":10368:10462   */\n      swap2\n      swap1\n      pop\n      jump\t// out\n        /* \"#utility.yul\":10468:10562   */\n    tag_191:\n        /* \"#utility.yul\":10507:10514   */\n      0x00\n        /* \"#utility.yul\":10536:10556   */\n      tag_317\n        /* \"#utility.yul\":10550:10555   */\n      dup3\n        /* \"#utility.yul\":10536:10556   */\n      tag_190\n      jump\t// in\n    tag_317:\n        /* \"#utility.yul\":10525:10556   */\n      swap1\n      pop\n        /* \"#utility.yul\":10468:10562   */\n      swap2\n      swap1\n      pop\n      jump\t// out\n        /* \"#utility.yul\":10568:10668   */\n    tag_192:\n        /* \"#utility.yul\":10607:10614   */\n      0x00\n        /* \"#utility.yul\":10636:10662   */\n      tag_319\n        /* \"#utility.yul\":10656:10661   */\n      dup3\n        /* \"#utility.yul\":10636:10662   */\n      tag_191\n      jump\t// in\n    tag_319:\n        /* \"#utility.yul\":10625:10662   */\n      swap1\n      pop\n        /* \"#utility.yul\":10568:10668   */\n      swap2\n      swap1\n      pop\n      jump\t// out\n        /* \"#utility.yul\":10674:10831   */\n    tag_193:\n        /* \"#utility.yul\":10779:10824   */\n      tag_321\n        /* \"#utility.yul\":10799:10823   */\n      tag_322\n        /* \"#utility.yul\":10817:10822   */\n      dup3\n        /* \"#utility.yul\":10799:10823   */\n      tag_164\n      jump\t// in\n    tag_322:\n        /* \"#utility.yul\":10779:10824   */\n      tag_192\n      jump\t// in\n    tag_321:\n        /* \"#utility.yul\":10774:10777   */\n      dup3\n        /* \"#utility.yul\":10767:10825   */\n      mstore\n        /* \"#utility.yul\":10674:10831   */\n      pop\n      pop\n      jump\t// out\n        /* \"#utility.yul\":10837:10916   */\n    tag_194:\n        /* \"#utility.yul\":10876:10883   */\n      0x00\n        /* \"#utility.yul\":10905:10910   */\n      dup2\n        /* \"#utility.yul\":10894:10910   */\n      swap1\n      pop\n        /* \"#utility.yul\":10837:10916   */\n      swap2\n      swap1\n      pop\n      jump\t// out\n        /* \"#utility.yul\":10922:11079   */\n    tag_195:\n        /* \"#utility.yul\":11027:11072   */\n      tag_325\n        /* \"#utility.yul\":11047:11071   */\n      tag_326\n        /* \"#utility.yul\":11065:11070   */\n      dup3\n        /* \"#utility.yul\":11047:11071   */\n      tag_166\n      jump\t// in\n    tag_326:\n        /* \"#utility.yul\":11027:11072   */\n      tag_194\n      jump\t// in\n    tag_325:\n        /* \"#utility.yul\":11022:11025   */\n      dup3\n        /* \"#utility.yul\":11015:11073   */\n      mstore\n        /* \"#utility.yul\":10922:11079   */\n      pop\n      pop\n      jump\t// out\n        /* \"#utility.yul\":11085:11623   */\n    tag_101:\n        /* \"#utility.yul\":11253:11256   */\n      0x00\n        /* \"#utility.yul\":11268:11343   */\n      tag_328\n        /* \"#utility.yul\":11339:11342   */\n      dup3\n        /* \"#utility.yul\":11330:11336   */\n      dup7\n        /* \"#utility.yul\":11268:11343   */\n      tag_189\n      jump\t// in\n    tag_328:\n        /* \"#utility.yul\":11368:11370   */\n      0x20\n        /* \"#utility.yul\":11363:11366   */\n      dup3\n        /* \"#utility.yul\":11359:11371   */\n      add\n        /* \"#utility.yul\":11352:11371   */\n      swap2\n      pop\n        /* \"#utility.yul\":11381:11456   */\n      tag_329\n        /* \"#utility.yul\":11452:11455   */\n      dup3\n        /* \"#utility.yul\":11443:11449   */\n      dup6\n        /* \"#utility.yul\":11381:11456   */\n      tag_193\n      jump\t// in\n    tag_329:\n        /* \"#utility.yul\":11481:11483   */\n      0x14\n        /* \"#utility.yul\":11476:11479   */\n      dup3\n        /* \"#utility.yul\":11472:11484   */\n      add\n        /* \"#utility.yul\":11465:11484   */\n      swap2\n      pop\n        /* \"#utility.yul\":11494:11569   */\n      tag_330\n        /* \"#utility.yul\":11565:11568   */\n      dup3\n        /* \"#utility.yul\":11556:11562   */\n      dup5\n        /* \"#utility.yul\":11494:11569   */\n      tag_195\n      jump\t// in\n    tag_330:\n        /* \"#utility.yul\":11594:11596   */\n      0x20\n        /* \"#utility.yul\":11589:11592   */\n      dup3\n        /* \"#utility.yul\":11585:11597   */\n      add\n        /* \"#utility.yul\":11578:11597   */\n      swap2\n      pop\n        /* \"#utility.yul\":11614:11617   */\n      dup2\n        /* \"#utility.yul\":11607:11617   */\n      swap1\n      pop\n        /* \"#utility.yul\":11085:11623   */\n      swap5\n      swap4\n      pop\n      pop\n      pop\n      pop\n      jump\t// out\n        /* \"#utility.yul\":11629:11849   */\n    tag_196:\n        /* \"#utility.yul\":11769:11803   */\n      0x4272696467653a206465706f73697420616c72656164792070726f6365737365\n        /* \"#utility.yul\":11765:11766   */\n      0x00\n        /* \"#utility.yul\":11757:11763   */\n      dup3\n        /* \"#utility.yul\":11753:11767   */\n      add\n        /* \"#utility.yul\":11746:11804   */\n      mstore\n        /* \"#utility.yul\":11838:11841   */\n      0x6400000000000000000000000000000000000000000000000000000000000000\n        /* \"#utility.yul\":11833:11835   */\n      0x20\n        /* \"#utility.yul\":11825:11831   */\n      dup3\n        /* \"#utility.yul\":11821:11836   */\n      add\n        /* \"#utility.yul\":11814:11842   */\n      mstore\n        /* \"#utility.yul\":11629:11849   */\n      pop\n      jump\t// out\n        /* \"#utility.yul\":11855:12221   */\n    tag_197:\n        /* \"#utility.yul\":11997:12000   */\n      0x00\n        /* \"#utility.yul\":12018:12085   */\n      tag_333\n        /* \"#utility.yul\":12082:12084   */\n      0x21\n        /* \"#utility.yul\":12077:12080   */\n      dup4\n        /* \"#utility.yul\":12018:12085   */\n      tag_179\n      jump\t// in\n    tag_333:\n        /* \"#utility.yul\":12011:12085   */\n      swap2\n      pop\n        /* \"#utility.yul\":12094:12187   */\n      tag_334\n        /* \"#utility.yul\":12183:12186   */\n      dup3\n        /* \"#utility.yul\":12094:12187   */\n      tag_196\n      jump\t// in\n    tag_334:\n        /* \"#utility.yul\":12212:12214   */\n      0x40\n        /* \"#utility.yul\":12207:12210   */\n      dup3\n        /* \"#utility.yul\":12203:12215   */\n      add\n        /* \"#utility.yul\":12196:12215   */\n      swap1\n      pop\n        /* \"#utility.yul\":11855:12221   */\n      swap2\n      swap1\n      pop\n      jump\t// out\n        /* \"#utility.yul\":12227:12646   */\n    tag_104:\n        /* \"#utility.yul\":12393:12397   */\n      0x00\n        /* \"#utility.yul\":12431:12433   */\n      0x20\n        /* \"#utility.yul\":12420:12429   */\n      dup3\n        /* \"#utility.yul\":12416:12434   */\n      add\n        /* \"#utility.yul\":12408:12434   */\n      swap1\n      pop\n        /* \"#utility.yul\":12480:12489   */\n      dup2\n        /* \"#utility.yul\":12474:12478   */\n      dup2\n        /* \"#utility.yul\":12470:12490   */\n      sub\n        /* \"#utility.yul\":12466:12467   */\n      0x00\n        /* \"#utility.yul\":12455:12464   */\n      dup4\n        /* \"#utility.yul\":12451:12468   */\n      add\n        /* \"#utility.yul\":12444:12491   */\n      mstore\n        /* \"#utility.yul\":12508:12639   */\n      tag_336\n        /* \"#utility.yul\":12634:12638   */\n      dup2\n        /* \"#utility.yul\":12508:12639   */\n      tag_197\n      jump\t// in\n    tag_336:\n        /* \"#utility.yul\":12500:12639   */\n      swap1\n      pop\n        /* \"#utility.yul\":12227:12646   */\n      swap2\n      swap1\n      pop\n      jump\t// out\n        /* \"#utility.yul\":12652:12770   */\n    tag_198:\n        /* \"#utility.yul\":12739:12763   */\n      tag_338\n        /* \"#utility.yul\":12757:12762   */\n      dup2\n        /* \"#utility.yul\":12739:12763   */\n      tag_160\n      jump\t// in\n    tag_338:\n        /* \"#utility.yul\":12734:12737   */\n      dup3\n        /* \"#utility.yul\":12727:12764   */\n      mstore\n        /* \"#utility.yul\":12652:12770   */\n      pop\n      pop\n      jump\t// out\n        /* \"#utility.yul\":12776:13218   */\n    tag_106:\n        /* \"#utility.yul\":12925:12929   */\n      0x00\n        /* \"#utility.yul\":12963:12965   */\n      0x60\n        /* \"#utility.yul\":12952:12961   */\n      dup3\n        /* \"#utility.yul\":12948:12966   */\n      add\n        /* \"#utility.yul\":12940:12966   */\n      swap1\n      pop\n        /* \"#utility.yul\":12976:13047   */\n      tag_340\n        /* \"#utility.yul\":13044:13045   */\n      0x00\n        /* \"#utility.yul\":13033:13042   */\n      dup4\n        /* \"#utility.yul\":13029:13046   */\n      add\n        /* \"#utility.yul\":13020:13026   */\n      dup7\n        /* \"#utility.yul\":12976:13047   */\n      tag_165\n      jump\t// in\n    tag_340:\n        /* \"#utility.yul\":13057:13129   */\n      tag_341\n        /* \"#utility.yul\":13125:13127   */\n      0x20\n        /* \"#utility.yul\":13114:13123   */\n      dup4\n        /* \"#utility.yul\":13110:13128   */\n      add\n        /* \"#utility.yul\":13101:13107   */\n      dup6\n        /* \"#utility.yul\":13057:13129   */\n      tag_167\n      jump\t// in\n    tag_341:\n        /* \"#utility.yul\":13139:13211   */\n      tag_342\n        /* \"#utility.yul\":13207:13209   */\n      0x40\n        /* \"#utility.yul\":13196:13205   */\n      dup4\n        /* \"#utility.yul\":13192:13210   */\n      add\n        /* \"#utility.yul\":13183:13189   */\n      dup5\n        /* \"#utility.yul\":13139:13211   */\n      tag_198\n      jump\t// in\n    tag_342:\n        /* \"#utility.yul\":12776:13218   */\n      swap5\n      swap4\n      pop\n      pop\n      pop\n      pop\n      jump\t// out\n        /* \"#utility.yul\":13224:13556   */\n    tag_111:\n        /* \"#utility.yul\":13345:13349   */\n      0x00\n        /* \"#utility.yul\":13383:13385   */\n      0x40\n        /* \"#utility.yul\":13372:13381   */\n      dup3\n        /* \"#utility.yul\":13368:13386   */\n      add\n        /* \"#utility.yul\":13360:13386   */\n      swap1\n      pop\n        /* \"#utility.yul\":13396:13467   */\n      tag_344\n        /* \"#utility.yul\":13464:13465   */\n      0x00\n        /* \"#utility.yul\":13453:13462   */\n      dup4\n        /* \"#utility.yul\":13449:13466   */\n      add\n        /* \"#utility.yul\":13440:13446   */\n      dup6\n        /* \"#utility.yul\":13396:13467   */\n      tag_167\n      jump\t// in\n    tag_344:\n        /* \"#utility.yul\":13477:13549   */\n      tag_345\n        /* \"#utility.yul\":13545:13547   */\n      0x20\n        /* \"#utility.yul\":13534:13543   */\n      dup4\n        /* \"#utility.yul\":13530:13548   */\n      add\n        /* \"#utility.yul\":13521:13527   */\n      dup5\n        /* \"#utility.yul\":13477:13549   */\n      tag_198\n      jump\t// in\n    tag_345:\n        /* \"#utility.yul\":13224:13556   */\n      swap4\n      swap3\n      pop\n      pop\n      pop\n      jump\t// out\n        /* \"#utility.yul\":13562:13736   */\n    tag_199:\n        /* \"#utility.yul\":13702:13728   */\n      0x4272696467653a20696e76616c6964206f70657261746f720000000000000000\n        /* \"#utility.yul\":13698:13699   */\n      0x00\n        /* \"#utility.yul\":13690:13696   */\n      dup3\n        /* \"#utility.yul\":13686:13700   */\n      add\n        /* \"#utility.yul\":13679:13729   */\n      mstore\n        /* \"#utility.yul\":13562:13736   */\n      pop\n      jump\t// out\n        /* \"#utility.yul\":13742:14108   */\n    tag_200:\n        /* \"#utility.yul\":13884:13887   */\n      0x00\n        /* \"#utility.yul\":13905:13972   */\n      tag_348\n        /* \"#utility.yul\":13969:13971   */\n      0x18\n        /* \"#utility.yul\":13964:13967   */\n      dup4\n        /* \"#utility.yul\":13905:13972   */\n      tag_179\n      jump\t// in\n    tag_348:\n        /* \"#utility.yul\":13898:13972   */\n      swap2\n      pop\n        /* \"#utility.yul\":13981:14074   */\n      tag_349\n        /* \"#utility.yul\":14070:14073   */\n      dup3\n        /* \"#utility.yul\":13981:14074   */\n      tag_199\n      jump\t// in\n    tag_349:\n        /* \"#utility.yul\":14099:14101   */\n      0x20\n        /* \"#utility.yul\":14094:14097   */\n      dup3\n        /* \"#utility.yul\":14090:14102   */\n      add\n        /* \"#utility.yul\":14083:14102   */\n      swap1\n      pop\n        /* \"#utility.yul\":13742:14108   */\n      swap2\n      swap1\n      pop\n      jump\t// out\n        /* \"#utility.yul\":14114:14533   */\n    tag_118:\n        /* \"#utility.yul\":14280:14284   */\n      0x00\n        /* \"#utility.yul\":14318:14320   */\n      0x20\n        /* \"#utility.yul\":14307:14316   */\n      dup3\n        /* \"#utility.yul\":14303:14321   */\n      add\n        /* \"#utility.yul\":14295:14321   */\n      swap1\n      pop\n        /* \"#utility.yul\":14367:14376   */\n      dup2\n        /* \"#utility.yul\":14361:14365   */\n      dup2\n        /* \"#utility.yul\":14357:14377   */\n      sub\n        /* \"#utility.yul\":14353:14354   */\n      0x00\n        /* \"#utility.yul\":14342:14351   */\n      dup4\n        /* \"#utility.yul\":14338:14355   */\n      add\n        /* \"#utility.yul\":14331:14378   */\n      mstore\n        /* \"#utility.yul\":14395:14526   */\n      tag_351\n        /* \"#utility.yul\":14521:14525   */\n      dup2\n        /* \"#utility.yul\":14395:14526   */\n      tag_200\n      jump\t// in\n    tag_351:\n        /* \"#utility.yul\":14387:14526   */\n      swap1\n      pop\n        /* \"#utility.yul\":14114:14533   */\n      swap2\n      swap1\n      pop\n      jump\t// out\n        /* \"#utility.yul\":14539:14715   */\n    tag_201:\n        /* \"#utility.yul\":14679:14707   */\n      0x4272696467653a20616d6f756e74206d757374206265203e2030000000000000\n        /* \"#utility.yul\":14675:14676   */\n      0x00\n        /* \"#utility.yul\":14667:14673   */\n      dup3\n        /* \"#utility.yul\":14663:14677   */\n      add\n        /* \"#utility.yul\":14656:14708   */\n      mstore\n        /* \"#utility.yul\":14539:14715   */\n      pop\n      jump\t// out\n        /* \"#utility.yul\":14721:15087   */\n    tag_202:\n        /* \"#utility.yul\":14863:14866   */\n      0x00\n        /* \"#utility.yul\":14884:14951   */\n      tag_354\n        /* \"#utility.yul\":14948:14950   */\n      0x1a\n        /* \"#utility.yul\":14943:14946   */\n      dup4\n        /* \"#utility.yul\":14884:14951   */\n      tag_179\n      jump\t// in\n    tag_354:\n        /* \"#utility.yul\":14877:14951   */\n      swap2\n      pop\n        /* \"#utility.yul\":14960:15053   */\n      tag_355\n        /* \"#utility.yul\":15049:15052   */\n      dup3\n        /* \"#utility.yul\":14960:15053   */\n      tag_201\n      jump\t// in\n    tag_355:\n        /* \"#utility.yul\":15078:15080   */\n      0x20\n        /* \"#utility.yul\":15073:15076   */\n      dup3\n        /* \"#utility.yul\":15069:15081   */\n      add\n        /* \"#utility.yul\":15062:15081   */\n      swap1\n      pop\n        /* \"#utility.yul\":14721:15087   */\n      swap2\n      swap1\n      pop\n      jump\t// out\n        /* \"#utility.yul\":15093:15512   */\n    tag_126:\n        /* \"#utility.yul\":15259:15263   */\n      0x00\n        /* \"#utility.yul\":15297:15299   */\n      0x20\n        /* \"#utility.yul\":15286:15295   */\n      dup3\n        /* \"#utility.yul\":15282:15300   */\n      add\n        /* \"#utility.yul\":15274:15300   */\n      swap1\n      pop\n        /* \"#utility.yul\":15346:15355   */\n      dup2\n        /* \"#utility.yul\":15340:15344   */\n      dup2\n        /* \"#utility.yul\":15336:15356   */\n      sub\n        /* \"#utility.yul\":15332:15333   */\n      0x00\n        /* \"#utility.yul\":15321:15330   */\n      dup4\n        /* \"#utility.yul\":15317:15334   */\n      add\n        /* \"#utility.yul\":15310:15357   */\n      mstore\n        /* \"#utility.yul\":15374:15505   */\n      tag_357\n        /* \"#utility.yul\":15500:15504   */\n      dup2\n        /* \"#utility.yul\":15374:15505   */\n      tag_202\n      jump\t// in\n    tag_357:\n        /* \"#utility.yul\":15366:15505   */\n      swap1\n      pop\n        /* \"#utility.yul\":15093:15512   */\n      swap2\n      swap1\n      pop\n      jump\t// out\n        /* \"#utility.yul\":15518:15693   */\n    tag_203:\n        /* \"#utility.yul\":15658:15685   */\n      0x4272696467653a20696e76616c696420726563697069656e7400000000000000\n        /* \"#utility.yul\":15654:15655   */\n      0x00\n        /* \"#utility.yul\":15646:15652   */\n      dup3\n        /* \"#utility.yul\":15642:15656   */\n      add\n        /* \"#utility.yul\":15635:15686   */\n      mstore\n        /* \"#utility.yul\":15518:15693   */\n      pop\n      jump\t// out\n        /* \"#utility.yul\":15699:16065   */\n    tag_204:\n        /* \"#utility.yul\":15841:15844   */\n      0x00\n        /* \"#utility.yul\":15862:15929   */\n      tag_360\n        /* \"#utility.yul\":15926:15928   */\n      0x19\n        /* \"#utility.yul\":15921:15924   */\n      dup4\n        /* \"#utility.yul\":15862:15929   */\n      tag_179\n      jump\t// in\n    tag_360:\n        /* \"#utility.yul\":15855:15929   */\n      swap2\n      pop\n        /* \"#utility.yul\":15938:16031   */\n      tag_361\n        /* \"#utility.yul\":16027:16030   */\n      dup3\n        /* \"#utility.yul\":15938:16031   */\n      tag_203\n      jump\t// in\n    tag_361:\n        /* \"#utility.yul\":16056:16058   */\n      0x20\n        /* \"#utility.yul\":16051:16054   */\n      dup3\n        /* \"#utility.yul\":16047:16059   */\n      add\n        /* \"#utility.yul\":16040:16059   */\n      swap1\n      pop\n        /* \"#utility.yul\":15699:16065   */\n      swap2\n      swap1\n      pop\n      jump\t// out\n        /* \"#utility.yul\":16071:16490   */\n    tag_129:\n        /* \"#utility.yul\":16237:16241   */\n      0x00\n        /* \"#utility.yul\":16275:16277   */\n      0x20\n        /* \"#utility.yul\":16264:16273   */\n      dup3\n        /* \"#utility.yul\":16260:16278   */\n      add\n        /* \"#utility.yul\":16252:16278   */\n      swap1\n      pop\n        /* \"#utility.yul\":16324:16333   */\n      dup2\n        /* \"#utility.yul\":16318:16322   */\n      dup2\n        /* \"#utility.yul\":16314:16334   */\n      sub\n        /* \"#utility.yul\":16310:16311   */\n      0x00\n        /* \"#utility.yul\":16299:16308   */\n      dup4\n        /* \"#utility.yul\":16295:16312   */\n      add\n        /* \"#utility.yul\":16288:16335   */\n      mstore\n        /* \"#utility.yul\":16352:16483   */\n      tag_363\n        /* \"#utility.yul\":16478:16482   */\n      dup2\n        /* \"#utility.yul\":16352:16483   */\n      tag_204\n      jump\t// in\n    tag_363:\n        /* \"#utility.yul\":16344:16483   */\n      swap1\n      pop\n        /* \"#utility.yul\":16071:16490   */\n      swap2\n      swap1\n      pop\n      jump\t// out\n        /* \"#utility.yul\":16496:16639   */\n    tag_205:\n        /* \"#utility.yul\":16553:16558   */\n      0x00\n        /* \"#utility.yul\":16584:16590   */\n      dup2\n        /* \"#utility.yul\":16578:16591   */\n      mload\n        /* \"#utility.yul\":16569:16591   */\n      swap1\n      pop\n        /* \"#utility.yul\":16600:16633   */\n      tag_365\n        /* \"#utility.yul\":16627:16632   */\n      dup2\n        /* \"#utility.yul\":16600:16633   */\n      tag_177\n      jump\t// in\n    tag_365:\n        /* \"#utility.yul\":16496:16639   */\n      swap3\n      swap2\n      pop\n      pop\n      jump\t// out\n        /* \"#utility.yul\":16645:16996   */\n    tag_134:\n        /* \"#utility.yul\":16715:16721   */\n      0x00\n        /* \"#utility.yul\":16764:16766   */\n      0x20\n        /* \"#utility.yul\":16752:16761   */\n      dup3\n        /* \"#utility.yul\":16743:16750   */\n      dup5\n        /* \"#utility.yul\":16739:16762   */\n      sub\n        /* \"#utility.yul\":16735:16767   */\n      slt\n        /* \"#utility.yul\":16732:16851   */\n      iszero\n      tag_367\n      jumpi\n        /* \"#utility.yul\":16770:16849   */\n      tag_368\n      tag_158\n      jump\t// in\n    tag_368:\n        /* \"#utility.yul\":16732:16851   */\n    tag_367:\n        /* \"#utility.yul\":16890:16891   */\n      0x00\n        /* \"#utility.yul\":16915:16979   */\n      tag_369\n        /* \"#utility.yul\":16971:16978   */\n      dup5\n        /* \"#utility.yul\":16962:16968   */\n      dup3\n        /* \"#utility.yul\":16951:16960   */\n      dup6\n        /* \"#utility.yul\":16947:16969   */\n      add\n        /* \"#utility.yul\":16915:16979   */\n      tag_205\n      jump\t// in\n    tag_369:\n        /* \"#utility.yul\":16905:16979   */\n      swap2\n      pop\n        /* \"#utility.yul\":16861:16989   */\n      pop\n        /* \"#utility.yul\":16645:16996   */\n      swap3\n      swap2\n      pop\n      pop\n      jump\t// out\n        /* \"#utility.yul\":17002:17180   */\n    tag_206:\n        /* \"#utility.yul\":17142:17172   */\n      0x4272696467653a20696e73756666696369656e742062616c616e636500000000\n        /* \"#utility.yul\":17138:17139   */\n      0x00\n        /* \"#utility.yul\":17130:17136   */\n      dup3\n        /* \"#utility.yul\":17126:17140   */\n      add\n        /* \"#utility.yul\":17119:17173   */\n      mstore\n        /* \"#utility.yul\":17002:17180   */\n      pop\n      jump\t// out\n        /* \"#utility.yul\":17186:17552   */\n    tag_207:\n        /* \"#utility.yul\":17328:17331   */\n      0x00\n        /* \"#utility.yul\":17349:17416   */\n      tag_372\n        /* \"#utility.yul\":17413:17415   */\n      0x1c\n        /* \"#utility.yul\":17408:17411   */\n      dup4\n        /* \"#utility.yul\":17349:17416   */\n      tag_179\n      jump\t// in\n    tag_372:\n        /* \"#utility.yul\":17342:17416   */\n      swap2\n      pop\n        /* \"#utility.yul\":17425:17518   */\n      tag_373\n        /* \"#utility.yul\":17514:17517   */\n      dup3\n        /* \"#utility.yul\":17425:17518   */\n      tag_206\n      jump\t// in\n    tag_373:\n        /* \"#utility.yul\":17543:17545   */\n      0x20\n        /* \"#utility.yul\":17538:17541   */\n      dup3\n        /* \"#utility.yul\":17534:17546   */\n      add\n        /* \"#utility.yul\":17527:17546   */\n      swap1\n      pop\n        /* \"#utility.yul\":17186:17552   */\n      swap2\n      swap1\n      pop\n      jump\t// out\n        /* \"#utility.yul\":17558:17977   */\n    tag_137:\n        /* \"#utility.yul\":17724:17728   */\n      0x00\n        /* \"#utility.yul\":17762:17764   */\n      0x20\n        /* \"#utility.yul\":17751:17760   */\n      dup3\n        /* \"#utility.yul\":17747:17765   */\n      add\n        /* \"#utility.yul\":17739:17765   */\n      swap1\n      pop\n        /* \"#utility.yul\":17811:17820   */\n      dup2\n        /* \"#utility.yul\":17805:17809   */\n      dup2\n        /* \"#utility.yul\":17801:17821   */\n      sub\n        /* \"#utility.yul\":17797:17798   */\n      0x00\n        /* \"#utility.yul\":17786:17795   */\n      dup4\n        /* \"#utility.yul\":17782:17799   */\n      add\n        /* \"#utility.yul\":17775:17822   */\n      mstore\n        /* \"#utility.yul\":17839:17970   */\n      tag_375\n        /* \"#utility.yul\":17965:17969   */\n      dup2\n        /* \"#utility.yul\":17839:17970   */\n      tag_207\n      jump\t// in\n    tag_375:\n        /* \"#utility.yul\":17831:17970   */\n      swap1\n      pop\n        /* \"#utility.yul\":17558:17977   */\n      swap2\n      swap1\n      pop\n      jump\t// out\n        /* \"#utility.yul\":17983:18803   */\n    tag_139:\n        /* \"#utility.yul\":18207:18210   */\n      0x00\n        /* \"#utility.yul\":18222:18297   */\n      tag_377\n        /* \"#utility.yul\":18293:18296   */\n      dup3\n        /* \"#utility.yul\":18284:18290   */\n      dup9\n        /* \"#utility.yul\":18222:18297   */\n      tag_193\n      jump\t// in\n    tag_377:\n        /* \"#utility.yul\":18322:18324   */\n      0x14\n        /* \"#utility.yul\":18317:18320   */\n      dup3\n        /* \"#utility.yul\":18313:18325   */\n      add\n        /* \"#utility.yul\":18306:18325   */\n      swap2\n      pop\n        /* \"#utility.yul\":18335:18410   */\n      tag_378\n        /* \"#utility.yul\":18406:18409   */\n      dup3\n        /* \"#utility.yul\":18397:18403   */\n      dup8\n        /* \"#utility.yul\":18335:18410   */\n      tag_195\n      jump\t// in\n    tag_378:\n        /* \"#utility.yul\":18435:18437   */\n      0x20\n        /* \"#utility.yul\":18430:18433   */\n      dup3\n        /* \"#utility.yul\":18426:18438   */\n      add\n        /* \"#utility.yul\":18419:18438   */\n      swap2\n      pop\n        /* \"#utility.yul\":18448:18523   */\n      tag_379\n        /* \"#utility.yul\":18519:18522   */\n      dup3\n        /* \"#utility.yul\":18510:18516   */\n      dup7\n        /* \"#utility.yul\":18448:18523   */\n      tag_193\n      jump\t// in\n    tag_379:\n        /* \"#utility.yul\":18548:18550   */\n      0x14\n        /* \"#utility.yul\":18543:18546   */\n      dup3\n        /* \"#utility.yul\":18539:18551   */\n      add\n        /* \"#utility.yul\":18532:18551   */\n      swap2\n      pop\n        /* \"#utility.yul\":18561:18636   */\n      tag_380\n        /* \"#utility.yul\":18632:18635   */\n      dup3\n        /* \"#utility.yul\":18623:18629   */\n      dup6\n        /* \"#utility.yul\":18561:18636   */\n      tag_195\n      jump\t// in\n    tag_380:\n        /* \"#utility.yul\":18661:18663   */\n      0x20\n        /* \"#utility.yul\":18656:18659   */\n      dup3\n        /* \"#utility.yul\":18652:18664   */\n      add\n        /* \"#utility.yul\":18645:18664   */\n      swap2\n      pop\n        /* \"#utility.yul\":18674:18749   */\n      tag_381\n        /* \"#utility.yul\":18745:18748   */\n      dup3\n        /* \"#utility.yul\":18736:18742   */\n      dup5\n        /* \"#utility.yul\":18674:18749   */\n      tag_195\n      jump\t// in\n    tag_381:\n        /* \"#utility.yul\":18774:18776   */\n      0x20\n        /* \"#utility.yul\":18769:18772   */\n      dup3\n        /* \"#utility.yul\":18765:18777   */\n      add\n        /* \"#utility.yul\":18758:18777   */\n      swap2\n      pop\n        /* \"#utility.yul\":18794:18797   */\n      dup2\n        /* \"#utility.yul\":18787:18797   */\n      swap1\n      pop\n        /* \"#utility.yul\":17983:18803   */\n      swap7\n      swap6\n      pop\n      pop\n      pop\n      pop\n      pop\n      pop\n      jump\t// out\n        /* \"#utility.yul\":18809:18989   */\n    tag_208:\n        /* \"#utility.yul\":18857:18934   */\n      0x4e487b7100000000000000000000000000000000000000000000000000000000\n        /* \"#utility.yul\":18854:18855   */\n      0x00\n        /* \"#utility.yul\":18847:18935   */\n      mstore\n        /* \"#utility.yul\":18954:18958   */\n      0x11\n        /* \"#utility.yul\":18951:18952   */\n      0x04\n        /* \"#utility.yul\":18944:18959   */\n      mstore\n        /* \"#utility.yul\":18978:18982   */\n      0x24\n        /* \"#utility.yul\":18975:18976   */\n      0x00\n        /* \"#utility.yul\":18968:18983   */\n      revert\n        /* \"#utility.yul\":18995:19228   */\n    tag_141:\n        /* \"#utility.yul\":19034:19037   */\n      0x00\n        /* \"#utility.yul\":19057:19081   */\n      tag_384\n        /* \"#utility.yul\":19075:19080   */\n      dup3\n        /* \"#utility.yul\":19057:19081   */\n      tag_166\n      jump\t// in\n    tag_384:\n        /* \"#utility.yul\":19048:19081   */\n      swap2\n      pop\n        /* \"#utility.yul\":19103:19169   */\n      0xffffffffffffffffffffffffffffffffffffffffffffffffffffffffffffffff\n        /* \"#utility.yul\":19096:19101   */\n      dup3\n        /* \"#utility.yul\":19093:19170   */\n      eq\n        /* \"#utility.yul\":19090:19193   */\n      iszero\n      tag_385\n      jumpi\n        /* \"#utility.yul\":19173:19191   */\n      tag_386\n      tag_208\n      jump\t// in\n    tag_386:\n        /* \"#utility.yul\":19090:19193   */\n    tag_385:\n        /* \"#utility.yul\":19220:19221   */\n      0x01\n        /* \"#utility.yul\":19213:19218   */\n      dup3\n        /* \"#utility.yul\":19209:19222   */\n      add\n        /* \"#utility.yul\":19202:19222   */\n      swap1\n      pop\n        /* \"#utility.yul\":18995:19228   */\n      swap2\n      swap1\n      pop\n      jump\t// out\n        /* \"#utility.yul\":19234:19566   */\n    tag_147:\n        /* \"#utility.yul\":19355:19359   */\n      0x00\n        /* \"#utility.yul\":19393:19395   */\n      0x40\n        /* \"#utility.yul\":19382:19391   */\n      dup3\n        /* \"#utility.yul\":19378:19396   */\n      add\n        /* \"#utility.yul\":19370:19396   */\n      swap1\n      pop\n        /* \"#utility.yul\":19406:19477   */\n      tag_388\n        /* \"#utility.yul\":19474:19475   */\n      0x00\n        /* \"#utility.yul\":19463:19472   */\n      dup4\n        /* \"#utility.yul\":19459:19476   */\n      add\n        /* \"#utility.yul\":19450:19456   */\n      dup6\n        /* \"#utility.yul\":19406:19477   */\n      tag_167\n      jump\t// in\n    tag_388:\n        /* \"#utility.yul\":19487:19559   */\n      tag_389\n        /* \"#utility.yul\":19555:19557   */\n      0x20\n        /* \"#utility.yul\":19544:19553   */\n      dup4\n        /* \"#utility.yul\":19540:19558   */\n      add\n        /* \"#utility.yul\":19531:19537   */\n      dup5\n        /* \"#utility.yul\":19487:19559   */\n      tag_165\n      jump\t// in\n    tag_389:\n        /* \"#utility.yul\":19234:19566   */\n      swap4\n      swap3\n      pop\n      pop\n      pop\n      jump\t// out\n        /* \"#utility.yul\":19572:19743   */\n    tag_209:\n        /* \"#utility.yul\":19712:19735   */\n      0x4272696467653a20696e76616c6964206f776e65720000000000000000000000\n        /* \"#utility.yul\":19708:19709   */\n      0x00\n        /* \"#utility.yul\":19700:19706   */\n      dup3\n        /* \"#utility.yul\":19696:19710   */\n      add\n        /* \"#utility.yul\":19689:19736   */\n      mstore\n        /* \"#utility.yul\":19572:19743   */\n      pop\n      jump\t// out\n        /* \"#utility.yul\":19749:20115   */\n    tag_210:\n        /* \"#utility.yul\":19891:19894   */\n      0x00\n        /* \"#utility.yul\":19912:19979   */\n      tag_392\n        /* \"#utility.yul\":19976:19978   */\n      0x15\n        /* \"#utility.yul\":19971:19974   */\n      dup4\n        /* \"#utility.yul\":19912:19979   */\n      tag_179\n      jump\t// in\n    tag_392:\n        /* \"#utility.yul\":19905:19979   */\n      swap2\n      pop\n        /* \"#utility.yul\":19988:20081   */\n      tag_393\n        /* \"#utility.yul\":20077:20080   */\n      dup3\n        /* \"#utility.yul\":19988:20081   */\n      tag_209\n      jump\t// in\n    tag_393:\n        /* \"#utility.yul\":20106:20108   */\n      0x20\n        /* \"#utility.yul\":20101:20104   */\n      dup3\n        /* \"#utility.yul\":20097:20109   */\n      add\n        /* \"#utility.yul\":20090:20109   */\n      swap1\n      pop\n        /* \"#utility.yul\":19749:20115   */\n      swap2\n      swap1\n      pop\n      jump\t// out\n        /* \"#utility.yul\":20121:20540   */\n    tag_156:\n        /* \"#utility.yul\":20287:20291   */\n      0x00\n        /* \"#utility.yul\":20325:20327   */\n      0x20\n        /* \"#utility.yul\":20314:20323   */\n      dup3\n        /* \"#utility.yul\":20310:20328   */\n      add\n        /* \"#utility.yul\":20302:20328   */\n      swap1\n      pop\n        /* \"#utility.yul\":20374:20383   */\n      dup2\n        /* \"#utility.yul\":20368:20372   */\n      dup2\n        /* \"#utility.yul\":20364:20384   */\n      sub\n        /* \"#utility.yul\":20360:20361   */\n      0x00\n        /* \"#utility.yul\":20349:20358   */\n      dup4\n        /* \"#utility.yul\":20345:20362   */\n      add\n        /* \"#utility.yul\":20338:20385   */\n      mstore\n        /* \"#utility.yul\":20402:20533   */\n      tag_395\n        /* \"#utility.yul\":20528:20532   */\n      dup2\n        /* \"#utility.yul\":20402:20533   */\n      tag_210\n      jump\t// in\n    tag_395:\n        /* \"#utility.yul\":20394:20533   */\n      swap1\n      pop\n        /* \"#utility.yul\":20121:20540   */\n      swap2\n      swap1\n      pop\n      jump\t// out\n\n    auxdata: 0xa2646970667358221220fd1a7db3e717c8bf54b1c91e046a3265ce824b22278462ef1e68da6230fba0bd64736f6c634300080a0033\n}\n",
    "bytecode": {
      "linkReferences": {},
      "object": "60806040523480156200001157600080fd5b5060405162001ea938038062001ea98339818101604052810190620000379190620001c4565b33600160006101000a81548173ffffffffffffffffffffffffffffffffffffffff021916908373ffffffffffffffffffffffffffffffffffffffff160217905550806000806101000a81548173ffffffffffffffffffffffffffffffffffffffff021916908373ffffffffffffffffffffffffffffffffffffffff1602179055506001600260003373ffffffffffffffffffffffffffffffffffffffff1673ffffffffffffffffffffffffffffffffffffffff16815260200190815260200160002060006101000a81548160ff0219169083151502179055503373ffffffffffffffffffffffffffffffffffffffff167fac6fa858e9350a46cec16539926e0fde25b7629f84b5a72bffaae4df888ae86d60405160405180910390a250620001f6565b600080fd5b600073ffffffffffffffffffffffffffffffffffffffff82169050919050565b60006200018c826200015f565b9050919050565b6200019e816200017f565b8114620001aa57600080fd5b50565b600081519050620001be8162000193565b92915050565b600060208284031215620001dd57620001dc6200015a565b5b6000620001ed84828501620001ad565b91505092915050565b611ca380620002066000396000f3fe608060405234801561001057600080fd5b50600436106100f55760003560e01c80638da5cb5b11610097578063ccc143b811610066578063ccc143b814610274578063d5d0d21c14610290578063e869554d146102c0578063f2fde38b146102f4576100f5565b80638da5cb5b146102005780639870d7fe1461021e578063ac8a584a1461023a578063b8a4e15114610256576100f5565b806340c5faf0116100d357806340c5faf01461017a5780634592bc14146101aa578063464514af146101c85780636e2bc8ff146101e4576100f5565b8063026508d1146100fa57806313e7c9d81461012e57806315e7b12f1461015e575b600080fd5b610114600480360381019061010f91906112ae565b610310565b604051610125959493929190611350565b60405180910390f35b610148600480360381019061014391906113cf565b610393565b60405161015591906113fc565b60405180910390f35b610178600480360381019061017391906113cf565b6103b3565b005b610194600480360381019061018f91906112ae565b610486565b6040516101a191906113fc565b60405180910390f35b6101b26104a6565b6040516101bf9190611476565b60405180910390f35b6101e260048036038101906101dd91906112ae565b6104ca565b005b6101fe60048036038101906101f991906114bd565b6106bf565b005b6102086108ed565b6040516102159190611510565b60405180910390f35b610238600480360381019061023391906113cf565b610913565b005b610254600480360381019061024f91906113cf565b610ab1565b005b61025e610bdf565b60405161026b919061152b565b60405180910390f35b61028e60048036038101906102899190611546565b610be5565b005b6102aa60048036038101906102a591906112ae565b610fd4565b6040516102b791906113fc565b60405180910390f35b6102da60048036038101906102d591906112ae565b610ffe565b6040516102eb959493929190611350565b60405180910390f35b61030e600480360381019061030991906113cf565b61112f565b005b60046020528060005260406000206000915090508060000160009054906101000a900473ffffffffffffffffffffffffffffffffffffffff16908060010154908060020160009054906101000a900473ffffffffffffffffffffffffffffffffffffffff16908060030154908060040160009054906101000a900460ff16905085565b60026020528060005260406000206000915054906101000a900460ff1681565b600160009054906101000a900473ffffffffffffffffffffffffffffffffffffffff1673ffffffffffffffffffffffffffffffffffffffff163373ffffffffffffffffffffffffffffffffffffffff1614610443576040517f08c379a000000000000000000000000000000000000000000000000000000000815260040161043a906115e3565b60405180910390fd5b806000806101000a81548173ffffffffffffffffffffffffffffffffffffffff021916908373ffffffffffffffffffffffffffffffffffffffff16021790555050565b60036020528060005260406000206000915054906101000a900460ff1681565b60008054906101000a900473ffffffffffffffffffffffffffffffffffffffff1681565b600260003373ffffffffffffffffffffffffffffffffffffffff1673ffffffffffffffffffffffffffffffffffffffff16815260200190815260200160002060009054906101000a900460ff16610556576040517f08c379a000000000000000000000000000000000000000000000000000000000815260040161054d9061164f565b60405180910390fd5b600073ffffffffffffffffffffffffffffffffffffffff166004600083815260200190815260200160002060000160009054906101000a900473ffffffffffffffffffffffffffffffffffffffff1673ffffffffffffffffffffffffffffffffffffffff1614156105fc576040517f08c379a00000000000000000000000000000000000000000000000000000000081526004016105f3906116bb565b60405180910390fd5b6004600082815260200190815260200160002060040160009054906101000a900460ff1615610660576040517f08c379a000000000000000000000000000000000000000000000000000000000815260040161065790611727565b60405180910390fd5b60016004600083815260200190815260200160002060040160006101000a81548160ff021916908315150217905550807f82459f84b3ecf0308611b420b9d42c054f0dbfb50d04c13a22d0804f582f649760405160405180910390a250565b600260003373ffffffffffffffffffffffffffffffffffffffff1673ffffffffffffffffffffffffffffffffffffffff16815260200190815260200160002060009054906101000a900460ff1661074b576040517f08c379a00000000000000000000000000000000000000000000000000000000081526004016107429061164f565b60405180910390fd5b6000818484604051602001610762939291906117d1565b6040516020818303038152906040528051906020012090506003600082815260200190815260200160002060009054906101000a900460ff16156107db576040517f08c379a00000000000000000000000000000000000000000000000000000000081526004016107d290611880565b60405180910390fd5b60016003600083815260200190815260200160002060006101000a81548160ff02191690831515021790555060008054906101000a900473ffffffffffffffffffffffffffffffffffffffff1673ffffffffffffffffffffffffffffffffffffffff16631e458bee8585846040518463ffffffff1660e01b8152600401610864939291906118af565b600060405180830381600087803b15801561087e57600080fd5b505af1158015610892573d6000803e3d6000fd5b505050508373ffffffffffffffffffffffffffffffffffffffff16817fbc4baef869a8d9fffec842f183b4c4bf035ed3ea57f299e957c46f198a63f04685856040516108df9291906118e6565b60405180910390a350505050565b600160009054906101000a900473ffffffffffffffffffffffffffffffffffffffff1681565b600160009054906101000a900473ffffffffffffffffffffffffffffffffffffffff1673ffffffffffffffffffffffffffffffffffffffff163373ffffffffffffffffffffffffffffffffffffffff16146109a3576040517f08c379a000000000000000000000000000000000000000000000000000000000815260040161099a906115e3565b60405180910390fd5b600073ffffffffffffffffffffffffffffffffffffffff168173ffffffffffffffffffffffffffffffffffffffff161415610a13576040517f08c379a0000000000000000000000000000000000000000000000000000000008152600401610a0a9061195b565b60405180910390fd5b6001600260008373ffffffffffffffffffffffffffffffffffffffff1673ffffffffffffffffffffffffffffffffffffffff16815260200190815260200160002060006101000a81548160ff0219169083151502179055508073ffffffffffffffffffffffffffffffffffffffff167fac6fa858e9350a46cec16539926e0fde25b7629f84b5a72bffaae4df888ae86d60405160405180910390a250565b600160009054906101000a900473ffffffffffffffffffffffffffffffffffffffff1673ffffffffffffffffffffffffffffffffffffffff163373ffffffffffffffffffffffffffffffffffffffff1614610b41576040517f08c379a0000000000000000000000000000000000000000000000000000000008152600401610b38906115e3565b60405180910390fd5b6000600260008373ffffffffffffffffffffffffffffffffffffffff1673ffffffffffffffffffffffffffffffffffffffff16815260200190815260200160002060006101000a81548160ff0219169083151502179055508073ffffffffffffffffffffffffffffffffffffffff167f80c0b871b97b595b16a7741c1b06fed0c6f6f558639f18ccbce50724325dc40d60405160405180910390a250565b60055481565b60008211610c28576040517f08c379a0000000000000000000000000000000000000000000000000000000008152600401610c1f906119c7565b60405180910390fd5b600073ffffffffffffffffffffffffffffffffffffffff168173ffffffffffffffffffffffffffffffffffffffff161415610c98576040517f08c379a0000000000000000000000000000000000000000000000000000000008152600401610c8f90611a33565b60405180910390fd5b8160008054906101000a900473ffffffffffffffffffffffffffffffffffffffff1673ffffffffffffffffffffffffffffffffffffffff166370a08231336040518263ffffffff1660e01b8152600401610cf29190611510565b602060405180830381865afa158015610d0f573d6000803e3d6000fd5b505050506040513d601f19601f82011682018060405250810190610d339190611a68565b1015610d74576040517f08c379a0000000000000000000000000000000000000000000000000000000008152600401610d6b90611ae1565b60405180910390fd5b600033838360055442604051602001610d91959493929190611b01565b60405160208183030381529060405280519060200120905060056000815480929190610dbc90611b8f565b91905055506040518060a001604052803373ffffffffffffffffffffffffffffffffffffffff1681526020018481526020018373ffffffffffffffffffffffffffffffffffffffff168152602001428152602001600015158152506004600083815260200190815260200160002060008201518160000160006101000a81548173ffffffffffffffffffffffffffffffffffffffff021916908373ffffffffffffffffffffffffffffffffffffffff1602179055506020820151816001015560408201518160020160006101000a81548173ffffffffffffffffffffffffffffffffffffffff021916908373ffffffffffffffffffffffffffffffffffffffff1602179055506060820151816003015560808201518160040160006101000a81548160ff02191690831515021790555090505060008054906101000a900473ffffffffffffffffffffffffffffffffffffffff1673ffffffffffffffffffffffffffffffffffffffff1663158a1cc33385846040518463ffffffff1660e01b8152600401610f4c939291906118af565b600060405180830381600087803b158015610f6657600080fd5b505af1158015610f7a573d6000803e3d6000fd5b505050503373ffffffffffffffffffffffffffffffffffffffff16817fd538c920a07ae93ce0f0d0cdc7a11c5ada9534a51c1d4f48a60dba5af2fe352f8585604051610fc7929190611bd8565b60405180910390a3505050565b60006003600083815260200190815260200160002060009054906101000a900460ff169050919050565b600080600080600080600460008881526020019081526020016000206040518060a00160405290816000820160009054906101000a900473ffffffffffffffffffffffffffffffffffffffff1673ffffffffffffffffffffffffffffffffffffffff1673ffffffffffffffffffffffffffffffffffffffff168152602001600182015481526020016002820160009054906101000a900473ffffffffffffffffffffffffffffffffffffffff1673ffffffffffffffffffffffffffffffffffffffff1673ffffffffffffffffffffffffffffffffffffffff168152602001600382015481526020016004820160009054906101000a900460ff161515151581525050905080600001518160200151826040015183606001518460800151955095509550955095505091939590929450565b600160009054906101000a900473ffffffffffffffffffffffffffffffffffffffff1673ffffffffffffffffffffffffffffffffffffffff163373ffffffffffffffffffffffffffffffffffffffff16146111bf576040517f08c379a00000000000000000000000000000000000000000000000000000000081526004016111b6906115e3565b60405180910390fd5b600073ffffffffffffffffffffffffffffffffffffffff168173ffffffffffffffffffffffffffffffffffffffff16141561122f576040517f08c379a000000000000000000000000000000000000000000000000000000000815260040161122690611c4d565b60405180910390fd5b80600160006101000a81548173ffffffffffffffffffffffffffffffffffffffff021916908373ffffffffffffffffffffffffffffffffffffffff16021790555050565b600080fd5b6000819050919050565b61128b81611278565b811461129657600080fd5b50565b6000813590506112a881611282565b92915050565b6000602082840312156112c4576112c3611273565b5b60006112d284828501611299565b91505092915050565b600073ffffffffffffffffffffffffffffffffffffffff82169050919050565b6000611306826112db565b9050919050565b611316816112fb565b82525050565b6000819050919050565b61132f8161131c565b82525050565b60008115159050919050565b61134a81611335565b82525050565b600060a082019050611365600083018861130d565b6113726020830187611326565b61137f604083018661130d565b61138c6060830185611326565b6113996080830184611341565b9695505050505050565b6113ac816112fb565b81146113b757600080fd5b50565b6000813590506113c9816113a3565b92915050565b6000602082840312156113e5576113e4611273565b5b60006113f3848285016113ba565b91505092915050565b60006020820190506114116000830184611341565b92915050565b6000819050919050565b600061143c611437611432846112db565b611417565b6112db565b9050919050565b600061144e82611421565b9050919050565b600061146082611443565b9050919050565b61147081611455565b82525050565b600060208201905061148b6000830184611467565b92915050565b61149a8161131c565b81146114a557600080fd5b50565b6000813590506114b781611491565b92915050565b6000806000606084860312156114d6576114d5611273565b5b60006114e4868287016113ba565b93505060206114f5868287016114a8565b925050604061150686828701611299565b9150509250925092565b6000602082019050611525600083018461130d565b92915050565b60006020820190506115406000830184611326565b92915050565b6000806040838503121561155d5761155c611273565b5b600061156b858286016114a8565b925050602061157c858286016113ba565b9150509250929050565b600082825260208201905092915050565b7f4272696467653a2063616c6c6572206973206e6f74206f776e65720000000000600082015250565b60006115cd601b83611586565b91506115d882611597565b602082019050919050565b600060208201905081810360008301526115fc816115c0565b9050919050565b7f4272696467653a2063616c6c6572206973206e6f74206f70657261746f720000600082015250565b6000611639601e83611586565b915061164482611603565b602082019050919050565b600060208201905081810360008301526116688161162c565b9050919050565b7f4272696467653a207769746864726177206e6f7420666f756e64000000000000600082015250565b60006116a5601a83611586565b91506116b08261166f565b602082019050919050565b600060208201905081810360008301526116d481611698565b9050919050565b7f4272696467653a20616c72656164792070726f63657373656400000000000000600082015250565b6000611711601983611586565b915061171c826116db565b602082019050919050565b6000602082019050818103600083015261174081611704565b9050919050565b6000819050919050565b61176261175d82611278565b611747565b82525050565b60008160601b9050919050565b600061178082611768565b9050919050565b600061179282611775565b9050919050565b6117aa6117a5826112fb565b611787565b82525050565b6000819050919050565b6117cb6117c68261131c565b6117b0565b82525050565b60006117dd8286611751565b6020820191506117ed8285611799565b6014820191506117fd82846117ba565b602082019150819050949350505050565b7f4272696467653a206465706f73697420616c72656164792070726f636573736560008201527f6400000000000000000000000000000000000000000000000000000000000000602082015250565b600061186a602183611586565b91506118758261180e565b604082019050919050565b600060208201905081810360008301526118998161185d565b9050919050565b6118a981611278565b82525050565b60006060820190506118c4600083018661130d565b6118d16020830185611326565b6118de60408301846118a0565b949350505050565b60006040820190506118fb6000830185611326565b61190860208301846118a0565b9392505050565b7f4272696467653a20696e76616c6964206f70657261746f720000000000000000600082015250565b6000611945601883611586565b91506119508261190f565b602082019050919050565b6000602082019050818103600083015261197481611938565b9050919050565b7f4272696467653a20616d6f756e74206d757374206265203e2030000000000000600082015250565b60006119b1601a83611586565b91506119bc8261197b565b602082019050919050565b600060208201905081810360008301526119e0816119a4565b9050919050565b7f4272696467653a20696e76616c696420726563697069656e7400000000000000600082015250565b6000611a1d601983611586565b9150611a28826119e7565b602082019050919050565b60006020820190508181036000830152611a4c81611a10565b9050919050565b600081519050611a6281611491565b92915050565b600060208284031215611a7e57611a7d611273565b5b6000611a8c84828501611a53565b91505092915050565b7f4272696467653a20696e73756666696369656e742062616c616e636500000000600082015250565b6000611acb601c83611586565b9150611ad682611a95565b602082019050919050565b60006020820190508181036000830152611afa81611abe565b9050919050565b6000611b0d8288611799565b601482019150611b1d82876117ba565b602082019150611b2d8286611799565b601482019150611b3d82856117ba565b602082019150611b4d82846117ba565b6020820191508190509695505050505050565b7f4e487b7100000000000000000000000000000000000000000000000000000000600052601160045260246000fd5b6000611b9a8261131c565b91507fffffffffffffffffffffffffffffffffffffffffffffffffffffffffffffffff821415611bcd57611bcc611b60565b5b600182019050919050565b6000604082019050611bed6000830185611326565b611bfa602083018461130d565b9392505050565b7f4272696467653a20696e76616c6964206f776e65720000000000000000000000600082015250565b6000611c37601583611586565b9150611c4282611c01565b602082019050919050565b60006020820190508181036000830152611c6681611c2a565b905091905056fea2646970667358221220fd1a7db3e717c8bf54b1c91e046a3265ce824b22278462ef1e68da6230fba0bd64736f6c634300080a0033",
      "opcodes": "PUSH1 0x80 PUSH1 0x40 MSTORE CALLVALUE DUP1 ISZERO PUSH3 0x11 JUMPI PUSH1 0x0 DUP1 REVERT JUMPDEST POP PUSH1 0x40 MLOAD PUSH3 0x1EA9 CODESIZE SUB DUP1 PUSH3 0x1EA9 DUP4 CODECOPY DUP2 DUP2 ADD PUSH1 0x40 MSTORE DUP2 ADD SWAP1 PUSH3 0x37 SWAP2 SWAP1 PUSH3 0x1C4 JUMP JUMPDEST CALLER PUSH1 0x1 PUSH1 0x0 PUSH2 0x100 EXP DUP2 SLOAD DUP2 PUSH20 0xFFFFFFFFFFFFFFFFFFFFFFFFFFFFFFFFFFFFFFFF MUL NOT AND SWAP1 DUP4 PUSH20 0xFFFFFFFFFFFFFFFFFFFFFFFFFFFFFFFFFFFFFFFF AND MUL OR SWAP1 SSTORE POP DUP1 PUSH1 0x0 DUP1 PUSH2 0x100 EXP DUP2 SLOAD DUP2 PUSH20 0xFFFFFFFFFFFFFFFFFFFFFFFFFFFFFFFFFFFFFFFF MUL NOT AND SWAP1 DUP4 PUSH20 0xFFFFFFFFFFFFFFFFFFFFFFFFFFFFFFFFFFFFFFFF AND MUL OR SWAP1 SSTORE POP PUSH1 0x1 PUSH1 0x2 PUSH1 0x0 CALLER PUSH20 0xFFFFFFFFFFFFFFFFFFFFFFFFFFFFFFFFFFFFFFFF AND PUSH20 0xFFFFFFFFFFFFFFFFFFFFFFFFFFFFFFFFFFFFFFFF AND DUP2 MSTORE PUSH1 0x20 ADD SWAP1 DUP2 MSTORE PUSH1 0x20 ADD PUSH1 0x0 KECCAK256 PUSH1 0x0 PUSH2 0x100 EXP DUP2 SLOAD DUP2 PUSH1 0xFF MUL NOT AND SWAP1 DUP4 ISZERO ISZERO MUL OR SWAP1 SSTORE POP CALLER PUSH20 0xFFFFFFFFFFFFFFFFFFFFFFFFFFFFFFFFFFFFFFFF AND PUSH32 0xAC6FA858E9350A46CEC16539926E0FDE25B7629F84B5A72BFFAAE4DF888AE86D PUSH1 0x40 MLOAD PUSH1 0x40 MLOAD DUP1 SWAP2 SUB SWAP1 LOG2 POP PUSH3 0x1F6 JUMP JUMPDEST PUSH1 0x0 DUP1 REVERT JUMPDEST PUSH1 0x0 PUSH20 0xFFFFFFFFFFFFFFFFFFFFFFFFFFFFFFFFFFFFFFFF DUP3 AND SWAP1 POP SWAP2 SWAP1 POP JUMP JUMPDEST PUSH1 0x0 PUSH3 0x18C DUP3 PUSH3 0x15F JUMP JUMPDEST SWAP1 POP SWAP2 SWAP1 POP JUMP JUMPDEST PUSH3 0x19E DUP2 PUSH3 0x17F JUMP JUMPDEST DUP2 EQ PUSH3 0x1AA JUMPI PUSH1 0x0 DUP1 REVERT JUMPDEST POP JUMP JUMPDEST PUSH1 0x0 DUP2 MLOAD SWAP1 POP PUSH3 0x1BE DUP2 PUSH3 0x193 JUMP JUMPDEST SWAP3 SWAP2 POP POP JUMP JUMPDEST PUSH1 0x0 PUSH1 0x20 DUP3 DUP5 SUB SLT ISZERO PUSH3 0x1DD JUMPI PUSH3 0x1DC PUSH3 0x15A JUMP JUMPDEST JUMPDEST PUSH1 0x0 PUSH3 0x1ED DUP5 DUP3 DUP6 ADD PUSH3 0x1AD JUMP JUMPDEST SWAP2 POP POP SWAP3 SWAP2 POP POP JUMP JUMPDEST PUSH2 0x1CA3 DUP1 PUSH3 0x206 PUSH1 0x0 CODECOPY PUSH1 0x0 RETURN INVALID PUSH1 0x80 PUSH1 0x40 MSTORE CALLVALUE DUP1 ISZERO PUSH2 0x10 JUMPI PUSH1 0x0 DUP1 REVERT JUMPDEST POP PUSH1 0x4 CALLDATASIZE LT PUSH2 0xF5 JUMPI PUSH1 0x0 CALLDATALOAD PUSH1 0xE0 SHR DUP1 PUSH4 0x8DA5CB5B GT PUSH2 0x97 JUMPI DUP1 PUSH4 0xCCC143B8 GT PUSH2 0x66 JUMPI DUP1 PUSH4 0xCCC143B8 EQ PUSH2 0x274 JUMPI DUP1 PUSH4 0xD5D0D21C EQ PUSH2 0x290 JUMPI DUP1 PUSH4 0xE869554D EQ PUSH2 0x2C0 JUMPI DUP1 PUSH4 0xF2FDE38B EQ PUSH2 0x2F4 JUMPI PUSH2 0xF5 JUMP JUMPDEST DUP1 PUSH4 0x8DA5CB5B EQ PUSH2 0x200 JUMPI DUP1 PUSH4 0x9870D7FE EQ PUSH2 0x21E JUMPI DUP1 PUSH4 0xAC8A584A EQ PUSH2 0x23A JUMPI DUP1 PUSH4 0xB8A4E151 EQ PUSH2 0x256 JUMPI PUSH2 0xF5 JUMP JUMPDEST DUP1 PUSH4 0x40C5FAF0 GT PUSH2 0xD3 JUMPI DUP1 PUSH4 0x40C5FAF0 EQ PUSH2 0x17A JUMPI DUP1 PUSH4 0x4592BC14 EQ PUSH2 0x1AA JUMPI DUP1 PUSH4 0x464514AF EQ PUSH2 0x1C8 JUMPI DUP1 PUSH4 0x6E2BC8FF EQ PUSH2 0x1E4 JUMPI PUSH2 0xF5 JUMP JUMPDEST DUP1 PUSH4 0x26508D1 EQ PUSH2 0xFA JUMPI DUP1 PUSH4 0x13E7C9D8 EQ PUSH2 0x12E JUMPI DUP1 PUSH4 0x15E7B12F EQ PUSH2 0x15E JUMPI JUMPDEST PUSH1 0x0 DUP1 REVERT JUMPDEST PUSH2 0x114 PUSH1 0x4 DUP1 CALLDATASIZE SUB DUP2 ADD SWAP1 PUSH2 0x10F SWAP2 SWAP1 PUSH2 0x12AE JUMP JUMPDEST PUSH2 0x310 JUMP JUMPDEST PUSH1 0x40 MLOAD PUSH2 0x125 SWAP6 SWAP5 SWAP4 SWAP3 SWAP2 SWAP1 PUSH2 0x1350 JUMP JUMPDEST PUSH1 0x40 MLOAD DUP1 SWAP2 SUB SWAP1 RETURN JUMPDEST PUSH2 0x148 PUSH1 0x4 DUP1 CALLDATASIZE SUB DUP2 ADD SWAP1 PUSH2 0x143 SWAP2 SWAP1 PUSH2 0x13CF JUMP JUMPDEST PUSH2 0x393 JUMP JUMPDEST PUSH1 0x40 MLOAD PUSH2 0x155 SWAP2 SWAP1 PUSH2 0x13FC JUMP JUMPDEST PUSH1 0x40 MLOAD DUP1 SWAP2 SUB SWAP1 RETURN JUMPDEST PUSH2 0x178 PUSH1 0x4 DUP1 CALLDATASIZE SUB DUP2 ADD SWAP1 PUSH2 0x173 SWAP2 SWAP1 PUSH2 0x13CF JUMP JUMPDEST PUSH2 0x3B3 JUMP JUMPDEST STOP JUMPDEST PUSH2 0x194 PUSH1 0x4 DUP1 CALLDATASIZE SUB DUP2 ADD SWAP1 PUSH2 0x18F SWAP2 SWAP1 PUSH2 0x12AE JUMP JUMPDEST PUSH2 0x486 JUMP JUMPDEST PUSH1 0x40 MLOAD PUSH2 0x1A1 SWAP2 SWAP1 PUSH2 0x13FC JUMP JUMPDEST PUSH1 0x40 MLOAD DUP1 SWAP2 SUB SWAP1 RETURN JUMPDEST PUSH2 0x1B2 PUSH2 0x4A6 JUMP JUMPDEST PUSH1 0x40 MLOAD PUSH2 0x1BF SWAP2 SWAP1 PUSH2 0x1476 JUMP JUMPDEST PUSH1 0x40 MLOAD DUP1 SWAP2 SUB SWAP1 RETURN JUMPDEST PUSH2 0x1E2 PUSH1 0x4 DUP1 CALLDATASIZE SUB DUP2 ADD SWAP1 PUSH2 0x1DD SWAP2 SWAP1 PUSH2 0x12AE JUMP JUMPDEST PUSH2 0x4CA JUMP JUMPDEST STOP JUMPDEST PUSH2 0x1FE PUSH1 0x4 DUP1 CALLDATASIZE SUB DUP2 ADD SWAP1 PUSH2 0x1F9 SWAP2 SWAP1 PUSH2 0x14BD JUMP JUMPDEST PUSH2 0x6BF JUMP JUMPDEST STOP JUMPDEST PUSH2 0x208 PUSH2 0x8ED JUMP JUMPDEST PUSH1 0x40 MLOAD PUSH2 0x215 SWAP2 SWAP1 PUSH2 0x1510 JUMP JUMPDEST PUSH1 0x40 MLOAD DUP1 SWAP2 SUB SWAP1 RETURN JUMPDEST PUSH2 0x238 PUSH1 0x4 DUP1 CALLDATASIZE SUB DUP2 ADD SWAP1 PUSH2 0x233 SWAP2 SWAP1 PUSH2 0x13CF JUMP JUMPDEST PUSH2 0x913 JUMP JUMPDEST STOP JUMPDEST PUSH2 0x254 PUSH1 0x4 DUP1 CALLDATASIZE SUB DUP2 ADD SWAP1 PUSH2 0x24F SWAP2 SWAP1 PUSH2 0x13CF JUMP JUMPDEST PUSH2 0xAB1 JUMP JUMPDEST STOP JUMPDEST PUSH2 0x25E PUSH2 0xBDF JUMP JUMPDEST PUSH1 0x40 MLOAD PUSH2 0x26B SWAP2 SWAP1 PUSH2 0x152B JUMP JUMPDEST PUSH1 0x40 MLOAD DUP1 SWAP2 SUB SWAP1 RETURN JUMPDEST PUSH2 0x28E PUSH1 0x4 DUP1 CALLDATASIZE SUB DUP2 ADD SWAP1 PUSH2 0x289 SWAP2 SWAP1 PUSH2 0x1546 JUMP JUMPDEST PUSH2 0xBE5 JUMP JUMPDEST STOP JUMPDEST PUSH2 0x2AA PUSH1 0x4 DUP1 CALLDATASIZE SUB DUP2 ADD SWAP1 PUSH2 0x2A5 SWAP2 SWAP1 PUSH2 0x12AE JUMP JUMPDEST PUSH2 0xFD4 JUMP JUMPDEST PUSH1 0x40 MLOAD PUSH2 0x2B7 SWAP2 SWAP1 PUSH2 0x13FC JUMP JUMPDEST PUSH1 0x40 MLOAD DUP1 SWAP2 SUB SWAP1 RETURN JUMPDEST PUSH2 0x2DA PUSH1 0x4 DUP1 CALLDATASIZE SUB DUP2 ADD SWAP1 PUSH2 0x2D5 SWAP2 SWAP1 PUSH2 0x12AE JUMP JUMPDEST PUSH2 0xFFE JUMP JUMPDEST PUSH1 0x40 MLOAD PUSH2 0x2EB SWAP6 SWAP5 SWAP4 SWAP3 SWAP2 SWAP1 PUSH2 0x1350 JUMP JUMPDEST PUSH1 0x40 MLOAD DUP1 SWAP2 SUB SWAP1 RETURN JUMPDEST PUSH2 0x30E PUSH1 0x4 DUP1 CALLDATASIZE SUB DUP2 ADD SWAP1 PUSH2 0x309 SWAP2 SWAP1 PUSH2 0x13CF JUMP JUMPDEST PUSH2 0x112F JUMP JUMPDEST STOP JUMPDEST PUSH1 0x4 PUSH1 0x20 MSTORE DUP1 PUSH1 0x0 MSTORE PUSH1 0x40 PUSH1 0x0 KECCAK256 PUSH1 0x0 SWAP2 POP SWAP1 POP DUP1 PUSH1 0x0 ADD PUSH1 0x0 SWAP1 SLOAD SWAP1 PUSH2 0x100 EXP SWAP1 DIV PUSH20 0xFFFFFFFFFFFFFFFFFFFFFFFFFFFFFFFFFFFFFFFF AND SWAP1 DUP1 PUSH1 0x1 ADD SLOAD SWAP1 DUP1 PUSH1 0x2 ADD PUSH1 0x0 SWAP1 SLOAD SWAP1 PUSH2 0x100 EXP SWAP1 DIV PUSH20 0xFFFFFFFFFFFFFFFFFFFFFFFFFFFFFFFFFFFFFFFF AND SWAP1 DUP1 PUSH1 0x3 ADD SLOAD SWAP1 DUP1 PUSH1 0x4 ADD PUSH1 0x0 SWAP1 SLOAD SWAP1 PUSH2 0x100 EXP SWAP1 DIV PUSH1 0xFF AND SWAP1 POP DUP6 JUMP JUMPDEST PUSH1 0x2 PUSH1 0x20 MSTORE DUP1 PUSH1 0x0 MSTORE PUSH1 0x40 PUSH1 0x0 KECCAK256 PUSH1 0x0 SWAP2 POP SLOAD SWAP1 PUSH2 0x100 EXP SWAP1 DIV PUSH1 0xFF AND DUP2 JUMP JUMPDEST PUSH1 0x1 PUSH1 0x0 SWAP1 SLOAD SWAP1 PUSH2 0x100 EXP SWAP1 DIV PUSH20 0xFFFFFFFFFFFFFFFFFFFFFFFFFFFFFFFFFFFFFFFF AND PUSH20 0xFFFFFFFFFFFFFFFFFFFFFFFFFFFFFFFFFFFFFFFF AND CALLER PUSH20 0xFFFFFFFFFFFFFFFFFFFFFFFFFFFFFFFFFFFFFFFF AND EQ PUSH2 0x443 JUMPI PUSH1 0x40 MLOAD PUSH32 0x8C379A000000000000000000000000000000000000000000000000000000000 DUP2 MSTORE PUSH1 0x4 ADD PUSH2 0x43A SWAP1 PUSH2 0x15E3 JUMP JUMPDEST PUSH1 0x40 MLOAD DUP1 SWAP2 SUB SWAP1 REVERT JUMPDEST DUP1 PUSH1 0x0 DUP1 PUSH2 0x100 EXP DUP2 SLOAD DUP2 PUSH20 0xFFFFFFFFFFFFFFFFFFFFFFFFFFFFFFFFFFFFFFFF MUL NOT AND SWAP1 DUP4 PUSH20 0xFFFFFFFFFFFFFFFFFFFFFFFFFFFFFFFFFFFFFFFF AND MUL OR SWAP1 SSTORE POP POP JUMP JUMPDEST PUSH1 0x3 PUSH1 0x20 MSTORE DUP1 PUSH1 0x0 MSTORE PUSH1 0x40 PUSH1 0x0 KECCAK256 PUSH1 0x0 SWAP2 POP SLOAD SWAP1 PUSH2 0x100 EXP SWAP1 DIV PUSH1 0xFF AND DUP2 JUMP JUMPDEST PUSH1 0x0 DUP1 SLOAD SWAP1 PUSH2 0x100 EXP SWAP1 DIV PUSH20 0xFFFFFFFFFFFFFFFFFFFFFFFFFFFFFFFFFFFFFFFF AND DUP2 JUMP JUMPDEST PUSH1 0x2 PUSH1 0x0 CALLER PUSH20 0xFFFFFFFFFFFFFFFFFFFFFFFFFFFFFFFFFFFFFFFF AND PUSH20 0xFFFFFFFFFFFFFFFFFFFFFFFFFFFFFFFFFFFFFFFF AND DUP2 MSTORE PUSH1 0x20 ADD SWAP1 DUP2 MSTORE PUSH1 0x20 ADD PUSH1 0x0 KECCAK256 PUSH1 0x0 SWAP1 SLOAD SWAP1 PUSH2 0x100 EXP SWAP1 DIV PUSH1 0xFF AND PUSH2 0x556 JUMPI PUSH1 0x40 MLOAD PUSH32 0x8C379A000000000000000000000000000000000000000000000000000000000 DUP2 MSTORE PUSH1 0x4 ADD PUSH2 0x54D SWAP1 PUSH2 0x164F JUMP JUMPDEST PUSH1 0x40 MLOAD DUP1 SWAP2 SUB SWAP1 REVERT JUMPDEST PUSH1 0x0 PUSH20 0xFFFFFFFFFFFFFFFFFFFFFFFFFFFFFFFFFFFFFFFF AND PUSH1 0x4 PUSH1 0x0 DUP4 DUP2 MSTORE PUSH1 0x20 ADD SWAP1 DUP2 MSTORE PUSH1 0x20 ADD PUSH1 0x0 KECCAK256 PUSH1 0x0 ADD PUSH1 0x0 SWAP1 SLOAD SWAP1 PUSH2 0x100 EXP SWAP1 DIV PUSH20 0xFFFFFFFFFFFFFFFFFFFFFFFFFFFFFFFFFFFFFFFF AND PUSH20 0xFFFFFFFFFFFFFFFFFFFFFFFFFFFFFFFFFFFFFFFF AND EQ ISZERO PUSH2 0x5FC JUMPI PUSH1 0x40 MLOAD PUSH32 0x8C379A000000000000000000000000000000000000000000000000000000000 DUP2 MSTORE PUSH1 0x4 ADD PUSH2 0x5F3 SWAP1 PUSH2 0x16BB JUMP JUMPDEST PUSH1 0x40 MLOAD DUP1 SWAP2 SUB SWAP1 REVERT JUMPDEST PUSH1 0x4 PUSH1 0x0 DUP3 DUP2 MSTORE PUSH1 0x20 ADD SWAP1 DUP2 MSTORE PUSH1 0x20 ADD PUSH1 0x0 KECCAK256 PUSH1 0x4 ADD PUSH1 0x0 SWAP1 SLOAD SWAP1 PUSH2 0x100 EXP SWAP1 DIV PUSH1 0xFF AND ISZERO PUSH2 0x660 JUMPI PUSH1 0x40 MLOAD PUSH32 0x8C379A000000000000000000000000000000000000000000000000000000000 DUP2 MSTORE PUSH1 0x4 ADD PUSH2 0x657 SWAP1 PUSH2 0x1727 JUMP JUMPDEST PUSH1 0x40 MLOAD DUP1 SWAP2 SUB SWAP1 REVERT JUMPDEST PUSH1 0x1 PUSH1 0x4 PUSH1 0x0 DUP4 DUP2 MSTORE PUSH1 0x20 ADD SWAP1 DUP2 MSTORE PUSH1 0x20 ADD PUSH1 0x0 KECCAK256 PUSH1 0x4 ADD PUSH1 0x0 PUSH2 0x100 EXP DUP2 SLOAD DUP2 PUSH1 0xFF MUL NOT AND SWAP1 DUP4 ISZERO ISZERO MUL OR SWAP1 SSTORE POP DUP1 PUSH32 0x82459F84B3ECF0308611B420B9D42C054F0DBFB50D04C13A22D0804F582F6497 PUSH1 0x40 MLOAD PUSH1 0x40 MLOAD DUP1 SWAP2 SUB SWAP1 LOG2 POP JUMP JUMPDEST PUSH1 0x2 PUSH1 0x0 CALLER PUSH20 0xFFFFFFFFFFFFFFFFFFFFFFFFFFFFFFFFFFFFFFFF AND PUSH20 0xFFFFFFFFFFFFFFFFFFFFFFFFFFFFFFFFFFFFFFFF AND DUP2 MSTORE PUSH1 0x20 ADD SWAP1 DUP2 MSTORE PUSH1 0x20 ADD PUSH1 0x0 KECCAK256 PUSH1 0x0 SWAP1 SLOAD SWAP1 PUSH2 0x100 EXP SWAP1 DIV PUSH1 0xFF AND PUSH2 0x74B JUMPI PUSH1 0x40 MLOAD PUSH32 0x8C379A000000000000000000000000000000000000000000000000000000000 DUP2 MSTORE PUSH1 0x4 ADD PUSH2 0x742 SWAP1 PUSH2 0x164F JUMP JUMPDEST PUSH1 0x40 MLOAD DUP1 SWAP2 SUB SWAP1 REVERT JUMPDEST PUSH1 0x0 DUP2 DUP5 DUP5 PUSH1 0x40 MLOAD PUSH1 0x20 ADD PUSH2 0x762 SWAP4 SWAP3 SWAP2 SWAP1 PUSH2 0x17D1 JUMP JUMPDEST PUSH1 0x40 MLOAD PUSH1 0x20 DUP2 DUP4 SUB SUB DUP2 MSTORE SWAP1 PUSH1 0x40 MSTORE DUP1 MLOAD SWAP1 PUSH1 0x20 ADD KECCAK256 SWAP1 POP PUSH1 0x3 PUSH1 0x0 DUP3 DUP2 MSTORE PUSH1 0x20 ADD SWAP1 DUP2 MSTORE PUSH1 0x20 ADD PUSH1 0x0 KECCAK256 PUSH1 0x0 SWAP1 SLOAD SWAP1 PUSH2 0x100 EXP SWAP1 DIV PUSH1 0xFF AND ISZERO PUSH2 0x7DB JUMPI PUSH1 0x40 MLOAD PUSH32 0x8C379A000000000000000000000000000000000000000000000000000000000 DUP2 MSTORE PUSH1 0x4 ADD PUSH2 0x7D2 SWAP1 PUSH2 0x1880 JUMP JUMPDEST PUSH1 0x40 MLOAD DUP1 SWAP2 SUB SWAP1 REVERT JUMPDEST PUSH1 0x1 PUSH1 0x3 PUSH1 0x0 DUP4 DUP2 MSTORE PUSH1 0x20 ADD SWAP1 DUP2 MSTORE PUSH1 0x20 ADD PUSH1 0x0 KECCAK256 PUSH1 0x0 PUSH2 0x100 EXP DUP2 SLOAD DUP2 PUSH1 0xFF MUL NOT AND SWAP1 DUP4 ISZERO ISZERO MUL OR SWAP1 SSTORE POP PUSH1 0x0 DUP1 SLOAD SWAP1 PUSH2 0x100 EXP SWAP1 DIV PUSH20 0xFFFFFFFFFFFFFFFFFFFFFFFFFFFFFFFFFFFFFFFF AND PUSH20 0xFFFFFFFFFFFFFFFFFFFFFFFFFFFFFFFFFFFFFFFF AND PUSH4 0x1E458BEE DUP6 DUP6 DUP5 PUSH1 0x40 MLOAD DUP5 PUSH4 0xFFFFFFFF AND PUSH1 0xE0 SHL DUP2 MSTORE PUSH1 0x4 ADD PUSH2 0x864 SWAP4 SWAP3 SWAP2 SWAP1 PUSH2 0x18AF JUMP JUMPDEST PUSH1 0x0 PUSH1 0x40 MLOAD DUP1 DUP4 SUB DUP2 PUSH1 0x0 DUP8 DUP1 EXTCODESIZE ISZERO DUP1 ISZERO PUSH2 0x87E JUMPI PUSH1 0x0 DUP1 REVERT JUMPDEST POP GAS CALL ISZERO DUP1 ISZERO PUSH2 0x892 JUMPI RETURNDATASIZE PUSH1 0x0 DUP1 RETURNDATACOPY RETURNDATASIZE PUSH1 0x0 REVERT JUMPDEST POP POP POP POP DUP4 PUSH20 0xFFFFFFFFFFFFFFFFFFFFFFFFFFFFFFFFFFFFFFFF AND DUP2 PUSH32 0xBC4BAEF869A8D9FFFEC842F183B4C4BF035ED3EA57F299E957C46F198A63F046 DUP6 DUP6 PUSH1 0x40 MLOAD PUSH2 0x8DF SWAP3 SWAP2 SWAP1 PUSH2 0x18E6 JUMP JUMPDEST PUSH1 0x40 MLOAD DUP1 SWAP2 SUB SWAP1 LOG3 POP POP POP POP JUMP JUMPDEST PUSH1 0x1 PUSH1 0x0 SWAP1 SLOAD SWAP1 PUSH2 0x100 EXP SWAP1 DIV PUSH20 0xFFFFFFFFFFFFFFFFFFFFFFFFFFFFFFFFFFFFFFFF AND DUP2 JUMP JUMPDEST PUSH1 0x1 PUSH1 0x0 SWAP1 SLOAD SWAP1 PUSH2 0x100 EXP SWAP1 DIV PUSH20 0xFFFFFFFFFFFFFFFFFFFFFFFFFFFFFFFFFFFFFFFF AND PUSH20 0xFFFFFFFFFFFFFFFFFFFFFFFFFFFFFFFFFFFFFFFF AND CALLER PUSH20 0xFFFFFFFFFFFFFFFFFFFFFFFFFFFFFFFFFFFFFFFF AND EQ PUSH2 0x9A3 JUMPI PUSH1 0x40 MLOAD PUSH32 0x8C379A000000000000000000000000000000000000000000000000000000000 DUP2 MSTORE PUSH1 0x4 ADD PUSH2 0x99A SWAP1 PUSH2 0x15E3 JUMP JUMPDEST PUSH1 0x40 MLOAD DUP1 SWAP2 SUB SWAP1 REVERT JUMPDEST PUSH1 0x0 PUSH20 0xFFFFFFFFFFFFFFFFFFFFFFFFFFFFFFFFFFFFFFFF AND DUP2 PUSH20 0xFFFFFFFFFFFFFFFFFFFFFFFFFFFFFFFFFFFFFFFF AND EQ ISZERO PUSH2 0xA13 JUMPI PUSH1 0x40 MLOAD PUSH32 0x8C379A000000000000000000000000000000000000000000000000000000000 DUP2 MSTORE PUSH1 0x4 ADD PUSH2 0xA0A SWAP1 PUSH2 0x195B JUMP JUMPDEST PUSH1 0x40 MLOAD DUP1 SWAP2 SUB SWAP1 REVERT JUMPDEST PUSH1 0x1 PUSH1 0x2 PUSH1 0x0 DUP4 PUSH20 0xFFFFFFFFFFFFFFFFFFFFFFFFFFFFFFFFFFFFFFFF AND PUSH20 0xFFFFFFFFFFFFFFFFFFFFFFFFFFFFFFFFFFFFFFFF AND DUP2 MSTORE PUSH1 0x20 ADD SWAP1 DUP2 MSTORE PUSH1 0x20 ADD PUSH1 0x0 KECCAK256 PUSH1 0x0 PUSH2 0x100 EXP DUP2 SLOAD DUP2 PUSH1 0xFF MUL NOT AND SWAP1 DUP4 ISZERO ISZERO MUL OR SWAP1 SSTORE POP DUP1 PUSH20 0xFFFFFFFFFFFFFFFFFFFFFFFFFFFFFFFFFFFFFFFF AND PUSH32 0xAC6FA858E9350A46CEC16539926E0FDE25B7629F84B5A72BFFAAE4DF888AE86D PUSH1 0x40 MLOAD PUSH1 0x40 MLOAD DUP1 SWAP2 SUB SWAP1 LOG2 POP JUMP JUMPDEST PUSH1 0x1 PUSH1 0x0 SWAP1 SLOAD SWAP1 PUSH2 0x100 EXP SWAP1 DIV PUSH20 0xFFFFFFFFFFFFFFFFFFFFFFFFFFFFFFFFFFFFFFFF AND PUSH20 0xFFFFFFFFFFFFFFFFFFFFFFFFFFFFFFFFFFFFFFFF AND CALLER PUSH20 0xFFFFFFFFFFFFFFFFFFFFFFFFFFFFFFFFFFFFFFFF AND EQ PUSH2 0xB41 JUMPI PUSH1 0x40 MLOAD PUSH32 0x8C379A000000000000000000000000000000000000000000000000000000000 DUP2 MSTORE PUSH1 0x4 ADD PUSH2 0xB38 SWAP1 PUSH2 0x15E3 JUMP JUMPDEST PUSH1 0x40 MLOAD DUP1 SWAP2 SUB SWAP1 REVERT JUMPDEST PUSH1 0x0 PUSH1 0x2 PUSH1 0x0 DUP4 PUSH20 0xFFFFFFFFFFFFFFFFFFFFFFFFFFFFFFFFFFFFFFFF AND PUSH20 0xFFFFFFFFFFFFFFFFFFFFFFFFFFFFFFFFFFFFFFFF AND DUP2 MSTORE PUSH1 0x20 ADD SWAP1 DUP2 MSTORE PUSH1 0x20 ADD PUSH1 0x0 KECCAK256 PUSH1 0x0 PUSH2 0x100 EXP DUP2 SLOAD DUP2 PUSH1 0xFF MUL NOT AND SWAP1 DUP4 ISZERO ISZERO MUL OR SWAP1 SSTORE POP DUP1 PUSH20 0xFFFFFFFFFFFFFFFFFFFFFFFFFFFFFFFFFFFFFFFF AND PUSH32 0x80C0B871B97B595B16A7741C1B06FED0C6F6F558639F18CCBCE50724325DC40D PUSH1 0x40 MLOAD PUSH1 0x40 MLOAD DUP1 SWAP2 SUB SWAP1 LOG2 POP JUMP JUMPDEST PUSH1 0x5 SLOAD DUP2 JUMP JUMPDEST PUSH1 0x0 DUP3 GT PUSH2 0xC28 JUMPI PUSH1 0x40 MLOAD PUSH32 0x8C379A000000000000000000000000000000000000000000000000000000000 DUP2 MSTORE PUSH1 0x4 ADD PUSH2 0xC1F SWAP1 PUSH2 0x19C7 JUMP JUMPDEST PUSH1 0x40 MLOAD DUP1 SWAP2 SUB SWAP1 REVERT JUMPDEST PUSH1 0x0 PUSH20 0xFFFFFFFFFFFFFFFFFFFFFFFFFFFFFFFFFFFFFFFF AND DUP2 PUSH20 0xFFFFFFFFFFFFFFFFFFFFFFFFFFFFFFFFFFFFFFFF AND EQ ISZERO PUSH2 0xC98 JUMPI PUSH1 0x40 MLOAD PUSH32 0x8C379A000000000000000000000000000000000000000000000000000000000 DUP2 MSTORE PUSH1 0x4 ADD PUSH2 0xC8F SWAP1 PUSH2 0x1A33 JUMP JUMPDEST PUSH1 0x40 MLOAD DUP1 SWAP2 SUB SWAP1 REVERT JUMPDEST DUP2 PUSH1 0x0 DUP1 SLOAD SWAP1 PUSH2 0x100 EXP SWAP1 DIV PUSH20 0xFFFFFFFFFFFFFFFFFFFFFFFFFFFFFFFFFFFFFFFF AND PUSH20 0xFFFFFFFFFFFFFFFFFFFFFFFFFFFFFFFFFFFFFFFF AND PUSH4 0x70A08231 CALLER PUSH1 0x40 MLOAD DUP3 PUSH4 0xFFFFFFFF AND PUSH1 0xE0 SHL DUP2 MSTORE PUSH1 0x4 ADD PUSH2 0xCF2 SWAP2 SWAP1 PUSH2 0x1510 JUMP JUMPDEST PUSH1 0x20 PUSH1 0x40 MLOAD DUP1 DUP4 SUB DUP2 DUP7 GAS STATICCALL ISZERO DUP1 ISZERO PUSH2 0xD0F JUMPI RETURNDATASIZE PUSH1 0x0 DUP1 RETURNDATACOPY RETURNDATASIZE PUSH1 0x0 REVERT JUMPDEST POP POP POP POP PUSH1 0x40 MLOAD RETURNDATASIZE PUSH1 0x1F NOT PUSH1 0x1F DUP3 ADD AND DUP3 ADD DUP1 PUSH1 0x40 MSTORE POP DUP2 ADD SWAP1 PUSH2 0xD33 SWAP2 SWAP1 PUSH2 0x1A68 JUMP JUMPDEST LT ISZERO PUSH2 0xD74 JUMPI PUSH1 0x40 MLOAD PUSH32 0x8C379A000000000000000000000000000000000000000000000000000000000 DUP2 MSTORE PUSH1 0x4 ADD PUSH2 0xD6B SWAP1 PUSH2 0x1AE1 JUMP JUMPDEST PUSH1 0x40 MLOAD DUP1 SWAP2 SUB SWAP1 REVERT JUMPDEST PUSH1 0x0 CALLER DUP4 DUP4 PUSH1 0x5 SLOAD TIMESTAMP PUSH1 0x40 MLOAD PUSH1 0x20 ADD PUSH2 0xD91 SWAP6 SWAP5 SWAP4 SWAP3 SWAP2 SWAP1 PUSH2 0x1B01 JUMP JUMPDEST PUSH1 0x40 MLOAD PUSH1 0x20 DUP2 DUP4 SUB SUB DUP2 MSTORE SWAP1 PUSH1 0x40 MSTORE DUP1 MLOAD SWAP1 PUSH1 0x20 ADD KECCAK256 SWAP1 POP PUSH1 0x5 PUSH1 0x0 DUP2 SLOAD DUP1 SWAP3 SWAP2 SWAP1 PUSH2 0xDBC SWAP1 PUSH2 0x1B8F JUMP JUMPDEST SWAP2 SWAP1 POP SSTORE POP PUSH1 0x40 MLOAD DUP1 PUSH1 0xA0 ADD PUSH1 0x40 MSTORE DUP1 CALLER PUSH20 0xFFFFFFFFFFFFFFFFFFFFFFFFFFFFFFFFFFFFFFFF AND DUP2 MSTORE PUSH1 0x20 ADD DUP5 DUP2 MSTORE PUSH1 0x20 ADD DUP4 PUSH20 0xFFFFFFFFFFFFFFFFFFFFFFFFFFFFFFFFFFFFFFFF AND DUP2 MSTORE PUSH1 0x20 ADD TIMESTAMP DUP2 MSTORE PUSH1 0x20 ADD PUSH1 0x0 ISZERO ISZERO DUP2 MSTORE POP PUSH1 0x4 PUSH1 0x0 DUP4 DUP2 MSTORE PUSH1 0x20 ADD SWAP1 DUP2 MSTORE PUSH1 0x20 ADD PUSH1 0x0 KECCAK256 PUSH1 0x0 DUP3 ADD MLOAD DUP2 PUSH1 0x0 ADD PUSH1 0x0 PUSH2 0x100 EXP DUP2 SLOAD DUP2 PUSH20 0xFFFFFFFFFFFFFFFFFFFFFFFFFFFFFFFFFFFFFFFF MUL NOT AND SWAP1 DUP4 PUSH20 0xFFFFFFFFFFFFFFFFFFFFFFFFFFFFFFFFFFFFFFFF AND MUL OR SWAP1 SSTORE POP PUSH1 0x20 DUP3 ADD MLOAD DUP2 PUSH1 0x1 ADD SSTORE PUSH1 0x40 DUP3 ADD MLOAD DUP2 PUSH1 0x2 ADD PUSH1 0x0 PUSH2 0x100 EXP DUP2 SLOAD DUP2 PUSH20 0xFFFFFFFFFFFFFFFFFFFFFFFFFFFFFFFFFFFFFFFF MUL NOT AND SWAP1 DUP4 PUSH20 0xFFFFFFFFFFFFFFFFFFFFFFFFFFFFFFFFFFFFFFFF AND MUL OR SWAP1 SSTORE POP PUSH1 0x60 DUP3 ADD MLOAD DUP2 PUSH1 0x3 ADD SSTORE PUSH1 0x80 DUP3 ADD MLOAD DUP2 PUSH1 0x4 ADD PUSH1 0x0 PUSH2 0x100 EXP DUP2 SLOAD DUP2 PUSH1 0xFF MUL NOT AND SWAP1 DUP4 ISZERO ISZERO MUL OR SWAP1 SSTORE POP SWAP1 POP POP PUSH1 0x0 DUP1 SLOAD SWAP1 PUSH2 0x100 EXP SWAP1 DIV PUSH20 0xFFFFFFFFFFFFFFFFFFFFFFFFFFFFFFFFFFFFFFFF AND PUSH20 0xFFFFFFFFFFFFFFFFFFFFFFFFFFFFFFFFFFFFFFFF AND PUSH4 0x158A1CC3 CALLER DUP6 DUP5 PUSH1 0x40 MLOAD DUP5 PUSH4 0xFFFFFFFF AND PUSH1 0xE0 SHL DUP2 MSTORE PUSH1 0x4 ADD PUSH2 0xF4C SWAP4 SWAP3 SWAP2 SWAP1 PUSH2 0x18AF JUMP JUMPDEST PUSH1 0x0 PUSH1 0x40 MLOAD DUP1 DUP4 SUB DUP2 PUSH1 0x0 DUP8 DUP1 EXTCODESIZE ISZERO DUP1 ISZERO PUSH2 0xF66 JUMPI PUSH1 0x0 DUP1 REVERT JUMPDEST POP GAS CALL ISZERO DUP1 ISZERO PUSH2 0xF7A JUMPI RETURNDATASIZE PUSH1 0x0 DUP1 RETURNDATACOPY RETURNDATASIZE PUSH1 0x0 REVERT JUMPDEST POP POP POP POP CALLER PUSH20 0xFFFFFFFFFFFFFFFFFFFFFFFFFFFFFFFFFFFFFFFF AND DUP2 PUSH32 0xD538C920A07AE93CE0F0D0CDC7A11C5ADA9534A51C1D4F48A60DBA5AF2FE352F DUP6 DUP6 PUSH1 0x40 MLOAD PUSH2 0xFC7 SWAP3 SWAP2 SWAP1 PUSH2 0x1BD8 JUMP JUMPDEST PUSH1 0x40 MLOAD DUP1 SWAP2 SUB SWAP1 LOG3 POP POP POP JUMP JUMPDEST PUSH1 0x0 PUSH1 0x3 PUSH1 0x0 DUP4 DUP2 MSTORE PUSH1 0x20 ADD SWAP1 DUP2 MSTORE PUSH1 0x20 ADD PUSH1 0x0 KECCAK256 PUSH1 0x0 SWAP1 SLOAD SWAP1 PUSH2 0x100 EXP SWAP1 DIV PUSH1 0xFF AND SWAP1 POP SWAP2 SWAP1 POP JUMP JUMPDEST PUSH1 0x0 DUP1 PUSH1 0x0 DUP1 PUSH1 0x0 DUP1 PUSH1 0x4 PUSH1 0x0 DUP9 DUP2 MSTORE PUSH1 0x20 ADD SWAP1 DUP2 MSTORE PUSH1 0x20 ADD PUSH1 0x0 KECCAK256 PUSH1 0x40 MLOAD DUP1 PUSH1 0xA0 ADD PUSH1 0x40 MSTORE SWAP1 DUP2 PUSH1 0x0 DUP3 ADD PUSH1 0x0 SWAP1 SLOAD SWAP1 PUSH2 0x100 EXP SWAP1 DIV PUSH20 0xFFFFFFFFFFFFFFFFFFFFFFFFFFFFFFFFFFFFFFFF AND PUSH20 0xFFFFFFFFFFFFFFFFFFFFFFFFFFFFFFFFFFFFFFFF AND PUSH20 0xFFFFFFFFFFFFFFFFFFFFFFFFFFFFFFFFFFFFFFFF AND DUP2 MSTORE PUSH1 0x20 ADD PUSH1 0x1 DUP3 ADD SLOAD DUP2 MSTORE PUSH1 0x20 ADD PUSH1 0x2 DUP3 ADD PUSH1 0x0 SWAP1 SLOAD SWAP1 PUSH2 0x100 EXP SWAP1 DIV PUSH20 0xFFFFFFFFFFFFFFFFFFFFFFFFFFFFFFFFFFFFFFFF AND PUSH20 0xFFFFFFFFFFFFFFFFFFFFFFFFFFFFFFFFFFFFFFFF AND PUSH20 0xFFFFFFFFFFFFFFFFFFFFFFFFFFFFFFFFFFFFFFFF AND DUP2 MSTORE PUSH1 0x20 ADD PUSH1 0x3 DUP3 ADD SLOAD DUP2 MSTORE PUSH1 0x20 ADD PUSH1 0x4 DUP3 ADD PUSH1 0x0 SWAP1 SLOAD SWAP1 PUSH2 0x100 EXP SWAP1 DIV PUSH1 0xFF AND ISZERO ISZERO ISZERO ISZERO DUP2 MSTORE POP POP SWAP1 POP DUP1 PUSH1 0x0 ADD MLOAD DUP2 PUSH1 0x20 ADD MLOAD DUP3 PUSH1 0x40 ADD MLOAD DUP4 PUSH1 0x60 ADD MLOAD DUP5 PUSH1 0x80 ADD MLOAD SWAP6 POP SWAP6 POP SWAP6 POP SWAP6 POP SWAP6 POP POP SWAP2 SWAP4 SWAP6 SWAP1 SWAP3 SWAP5 POP JUMP JUMPDEST PUSH1 0x1 PUSH1 0x0 SWAP1 SLOAD SWAP1 PUSH2 0x100 EXP SWAP1 DIV PUSH20 0xFFFFFFFFFFFFFFFFFFFFFFFFFFFFFFFFFFFFFFFF AND PUSH20 0xFFFFFFFFFFFFFFFFFFFFFFFFFFFFFFFFFFFFFFFF AND CALLER PUSH20 0xFFFFFFFFFFFFFFFFFFFFFFFFFFFFFFFFFFFFFFFF AND EQ PUSH2 0x11BF JUMPI PUSH1 0x40 MLOAD PUSH32 0x8C379A000000000000000000000000000000000000000000000000000000000 DUP2 MSTORE PUSH1 0x4 ADD PUSH2 0x11B6 SWAP1 PUSH2 0x15E3 JUMP JUMPDEST PUSH1 0x40 MLOAD DUP1 SWAP2 SUB SWAP1 REVERT JUMPDEST PUSH1 0x0 PUSH20 0xFFFFFFFFFFFFFFFFFFFFFFFFFFFFFFFFFFFFFFFF AND DUP2 PUSH20 0xFFFFFFFFFFFFFFFFFFFFFFFFFFFFFFFFFFFFFFFF AND EQ ISZERO PUSH2 0x122F JUMPI PUSH1 0x40 MLOAD PUSH32 0x8C379A000000000000000000000000000000000000000000000000000000000 DUP2 MSTORE PUSH1 0x4 ADD PUSH2 0x1226 SWAP1 PUSH2 0x1C4D JUMP JUMPDEST PUSH1 0x40 MLOAD DUP1 SWAP2 SUB SWAP1 REVERT JUMPDEST DUP1 PUSH1 0x1 PUSH1 0x0 PUSH2 0x100 EXP DUP2 SLOAD DUP2 PUSH20 0xFFFFFFFFFFFFFFFFFFFFFFFFFFFFFFFFFFFFFFFF MUL NOT AND SWAP1 DUP4 PUSH20 0xFFFFFFFFFFFFFFFFFFFFFFFFFFFFFFFFFFFFFFFF AND MUL OR SWAP1 SSTORE POP POP JUMP JUMPDEST PUSH1 0x0 DUP1 REVERT JUMPDEST PUSH1 0x0 DUP2 SWAP1 POP SWAP2 SWAP1 POP JUMP JUMPDEST PUSH2 0x128B DUP2 PUSH2 0x1278 JUMP JUMPDEST DUP2 EQ PUSH2 0x1296 JUMPI PUSH1 0x0 DUP1 REVERT JUMPDEST POP JUMP JUMPDEST PUSH1 0x0 DUP2 CALLDATALOAD SWAP1 POP PUSH2 0x12A8 DUP2 PUSH2 0x1282 JUMP JUMPDEST SWAP3 SWAP2 POP POP JUMP JUMPDEST PUSH1 0x0 PUSH1 0x20 DUP3 DUP5 SUB SLT ISZERO PUSH2 0x12C4 JUMPI PUSH2 0x12C3 PUSH2 0x1273 JUMP JUMPDEST JUMPDEST PUSH1 0x0 PUSH2 0x12D2 DUP5 DUP3 DUP6 ADD PUSH2 0x1299 JUMP JUMPDEST SWAP2 POP POP SWAP3 SWAP2 POP POP JUMP JUMPDEST PUSH1 0x0 PUSH20 0xFFFFFFFFFFFFFFFFFFFFFFFFFFFFFFFFFFFFFFFF DUP3 AND SWAP1 POP SWAP2 SWAP1 POP JUMP JUMPDEST PUSH1 0x0 PUSH2 0x1306 DUP3 PUSH2 0x12DB JUMP JUMPDEST SWAP1 POP SWAP2 SWAP1 POP JUMP JUMPDEST PUSH2 0x1316 DUP2 PUSH2 0x12FB JUMP JUMPDEST DUP3 MSTORE POP POP JUMP JUMPDEST PUSH1 0x0 DUP2 SWAP1 POP SWAP2 SWAP1 POP JUMP JUMPDEST PUSH2 0x132F DUP2 PUSH2 0x131C JUMP JUMPDEST DUP3 MSTORE POP POP JUMP JUMPDEST PUSH1 0x0 DUP2 ISZERO ISZERO SWAP1 POP SWAP2 SWAP1 POP JUMP JUMPDEST PUSH2 0x134A DUP2 PUSH2 0x1335 JUMP JUMPDEST DUP3 MSTORE POP POP JUMP JUMPDEST PUSH1 0x0 PUSH1 0xA0 DUP3 ADD SWAP1 POP PUSH2 0x1365 PUSH1 0x0 DUP4 ADD DUP9 PUSH2 0x130D JUMP JUMPDEST PUSH2 0x1372 PUSH1 0x20 DUP4 ADD DUP8 PUSH2 0x1326 JUMP JUMPDEST PUSH2 0x137F PUSH1 0x40 DUP4 ADD DUP7 PUSH2 0x130D JUMP JUMPDEST PUSH2 0x138C PUSH1 0x60 DUP4 ADD DUP6 PUSH2 0x1326 JUMP JUMPDEST PUSH2 0x1399 PUSH1 0x80 DUP4 ADD DUP5 PUSH2 0x1341 JUMP JUMPDEST SWAP7 SWAP6 POP POP POP POP POP POP JUMP JUMPDEST PUSH2 0x13AC DUP2 PUSH2 0x12FB JUMP JUMPDEST DUP2 EQ PUSH2 0x13B7 JUMPI PUSH1 0x0 DUP1 REVERT JUMPDEST POP JUMP JUMPDEST PUSH1 0x0 DUP2 CALLDATALOAD SWAP1 POP PUSH2 0x13C9 DUP2 PUSH2 0x13A3 JUMP JUMPDEST SWAP3 SWAP2 POP POP JUMP JUMPDEST PUSH1 0x0 PUSH1 0x20 DUP3 DUP5 SUB SLT ISZERO PUSH2 0x13E5 JUMPI PUSH2 0x13E4 PUSH2 0x1273 JUMP JUMPDEST JUMPDEST PUSH1 0x0 PUSH2 0x13F3 DUP5 DUP3 DUP6 ADD PUSH2 0x13BA JUMP JUMPDEST SWAP2 POP POP SWAP3 SWAP2 POP POP JUMP JUMPDEST PUSH1 0x0 PUSH1 0x20 DUP3 ADD SWAP1 POP PUSH2 0x1411 PUSH1 0x0 DUP4 ADD DUP5 PUSH2 0x1341 JUMP JUMPDEST SWAP3 SWAP2 POP POP JUMP JUMPDEST PUSH1 0x0 DUP2 SWAP1 POP SWAP2 SWAP1 POP JUMP JUMPDEST PUSH1 0x0 PUSH2 0x143C PUSH2 0x1437 PUSH2 0x1432 DUP5 PUSH2 0x12DB JUMP JUMPDEST PUSH2 0x1417 JUMP JUMPDEST PUSH2 0x12DB JUMP JUMPDEST SWAP1 POP SWAP2 SWAP1 POP JUMP JUMPDEST PUSH1 0x0 PUSH2 0x144E DUP3 PUSH2 0x1421 JUMP JUMPDEST SWAP1 POP SWAP2 SWAP1 POP JUMP JUMPDEST PUSH1 0x0 PUSH2 0x1460 DUP3 PUSH2 0x1443 JUMP JUMPDEST SWAP1 POP SWAP2 SWAP1 POP JUMP JUMPDEST PUSH2 0x1470 DUP2 PUSH2 0x1455 JUMP JUMPDEST DUP3 MSTORE POP POP JUMP JUMPDEST PUSH1 0x0 PUSH1 0x20 DUP3 ADD SWAP1 POP PUSH2 0x148B PUSH1 0x0 DUP4 ADD DUP5 PUSH2 0x1467 JUMP JUMPDEST SWAP3 SWAP2 POP POP JUMP JUMPDEST PUSH2 0x149A DUP2 PUSH2 0x131C JUMP JUMPDEST DUP2 EQ PUSH2 0x14A5 JUMPI PUSH1 0x0 DUP1 REVERT JUMPDEST POP JUMP JUMPDEST PUSH1 0x0 DUP2 CALLDATALOAD SWAP1 POP PUSH2 0x14B7 DUP2 PUSH2 0x1491 JUMP JUMPDEST SWAP3 SWAP2 POP POP JUMP JUMPDEST PUSH1 0x0 DUP1 PUSH1 0x0 PUSH1 0x60 DUP5 DUP7 SUB SLT ISZERO PUSH2 0x14D6 JUMPI PUSH2 0x14D5 PUSH2 0x1273 JUMP JUMPDEST JUMPDEST PUSH1 0x0 PUSH2 0x14E4 DUP7 DUP3 DUP8 ADD PUSH2 0x13BA JUMP JUMPDEST SWAP4 POP POP PUSH1 0x20 PUSH2 0x14F5 DUP7 DUP3 DUP8 ADD PUSH2 0x14A8 JUMP JUMPDEST SWAP3 POP POP PUSH1 0x40 PUSH2 0x1506 DUP7 DUP3 DUP8 ADD PUSH2 0x1299 JUMP JUMPDEST SWAP2 POP POP SWAP3 POP SWAP3 POP SWAP3 JUMP JUMPDEST PUSH1 0x0 PUSH1 0x20 DUP3 ADD SWAP1 POP PUSH2 0x1525 PUSH1 0x0 DUP4 ADD DUP5 PUSH2 0x130D JUMP JUMPDEST SWAP3 SWAP2 POP POP JUMP JUMPDEST PUSH1 0x0 PUSH1 0x20 DUP3 ADD SWAP1 POP PUSH2 0x1540 PUSH1 0x0 DUP4 ADD DUP5 PUSH2 0x1326 JUMP JUMPDEST SWAP3 SWAP2 POP POP JUMP JUMPDEST PUSH1 0x0 DUP1 PUSH1 0x40 DUP4 DUP6 SUB SLT ISZERO PUSH2 0x155D JUMPI PUSH2 0x155C PUSH2 0x1273 JUMP JUMPDEST JUMPDEST PUSH1 0x0 PUSH2 0x156B DUP6 DUP3 DUP7 ADD PUSH2 0x14A8 JUMP JUMPDEST SWAP3 POP POP PUSH1 0x20 PUSH2 0x157C DUP6 DUP3 DUP7 ADD PUSH2 0x13BA JUMP JUMPDEST SWAP2 POP POP SWAP3 POP SWAP3 SWAP1 POP JUMP JUMPDEST PUSH1 0x0 DUP3 DUP3 MSTORE PUSH1 0x20 DUP3 ADD SWAP1 POP SWAP3 SWAP2 POP POP JUMP JUMPDEST PUSH32 0x4272696467653A2063616C6C6572206973206E6F74206F776E65720000000000 PUSH1 0x0 DUP3 ADD MSTORE POP JUMP JUMPDEST PUSH1 0x0 PUSH2 0x15CD PUSH1 0x1B DUP4 PUSH2 0x1586 JUMP JUMPDEST SWAP2 POP PUSH2 0x15D8 DUP3 PUSH2 0x1597 JUMP JUMPDEST PUSH1 0x20 DUP3 ADD SWAP1 POP SWAP2 SWAP1 POP JUMP JUMPDEST PUSH1 0x0 PUSH1 0x20 DUP3 ADD SWAP1 POP DUP2 DUP2 SUB PUSH1 0x0 DUP4 ADD MSTORE PUSH2 0x15FC DUP2 PUSH2 0x15C0 JUMP JUMPDEST SWAP1 POP SWAP2 SWAP1 POP JUMP JUMPDEST PUSH32 0x4272696467653A2063616C6C6572206973206E6F74206F70657261746F720000 PUSH1 0x0 DUP3 ADD MSTORE POP JUMP JUMPDEST PUSH1 0x0 PUSH2 0x1639 PUSH1 0x1E DUP4 PUSH2 0x1586 JUMP JUMPDEST SWAP2 POP PUSH2 0x1644 DUP3 PUSH2 0x1603 JUMP JUMPDEST PUSH1 0x20 DUP3 ADD SWAP1 POP SWAP2 SWAP1 POP JUMP JUMPDEST PUSH1 0x0 PUSH1 0x20 DUP3 ADD SWAP1 POP DUP2 DUP2 SUB PUSH1 0x0 DUP4 ADD MSTORE PUSH2 0x1668 DUP2 PUSH2 0x162C JUMP JUMPDEST SWAP1 POP SWAP2 SWAP1 POP JUMP JUMPDEST PUSH32 0x4272696467653A207769746864726177206E6F7420666F756E64000000000000 PUSH1 0x0 DUP3 ADD MSTORE POP JUMP JUMPDEST PUSH1 0x0 PUSH2 0x16A5 PUSH1 0x1A DUP4 PUSH2 0x1586 JUMP JUMPDEST SWAP2 POP PUSH2 0x16B0 DUP3 PUSH2 0x166F JUMP JUMPDEST PUSH1 0x20 DUP3 ADD SWAP1 POP SWAP2 SWAP1 POP JUMP JUMPDEST PUSH1 0x0 PUSH1 0x20 DUP3 ADD SWAP1 POP DUP2 DUP2 SUB PUSH1 0x0 DUP4 ADD MSTORE PUSH2 0x16D4 DUP2 PUSH2 0x1698 JUMP JUMPDEST SWAP1 POP SWAP2 SWAP1 POP JUMP JUMPDEST PUSH32 0x4272696467653A20616C72656164792070726F63657373656400000000000000 PUSH1 0x0 DUP3 ADD MSTORE POP JUMP JUMPDEST PUSH1 0x0 PUSH2 0x1711 PUSH1 0x19 DUP4 PUSH2 0x1586 JUMP JUMPDEST SWAP2 POP PUSH2 0x171C DUP3 PUSH2 0x16DB JUMP JUMPDEST PUSH1 0x20 DUP3 ADD SWAP1 POP SWAP2 SWAP1 POP JUMP JUMPDEST PUSH1 0x0 PUSH1 0x20 DUP3 ADD SWAP1 POP DUP2 DUP2 SUB PUSH1 0x0 DUP4 ADD MSTORE PUSH2 0x1740 DUP2 PUSH2 0x1704 JUMP JUMPDEST SWAP1 POP SWAP2 SWAP1 POP JUMP JUMPDEST PUSH1 0x0 DUP2 SWAP1 POP SWAP2 SWAP1 POP JUMP JUMPDEST PUSH2 0x1762 PUSH2 0x175D DUP3 PUSH2 0x1278 JUMP JUMPDEST PUSH2 0x1747 JUMP JUMPDEST DUP3 MSTORE POP POP JUMP JUMPDEST PUSH1 0x0 DUP2 PUSH1 0x60 SHL SWAP1 POP SWAP2 SWAP1 POP JUMP JUMPDEST PUSH1 0x0 PUSH2 0x1780 DUP3 PUSH2 0x1768 JUMP JUMPDEST SWAP1 POP SWAP2 SWAP1 POP JUMP JUMPDEST PUSH1 0x0 PUSH2 0x1792 DUP3 PUSH2 0x1775 JUMP JUMPDEST SWAP1 POP SWAP2 SWAP1 POP JUMP JUMPDEST PUSH2 0x17AA PUSH2 0x17A5 DUP3 PUSH2 0x12FB JUMP JUMPDEST PUSH2 0x1787 JUMP JUMPDEST DUP3 MSTORE POP POP JUMP JUMPDEST PUSH1 0x0 DUP2 SWAP1 POP SWAP2 SWAP1 POP JUMP JUMPDEST PUSH2 0x17CB PUSH2 0x17C6 DUP3 PUSH2 0x131C JUMP JUMPDEST PUSH2 0x17B0 JUMP JUMPDEST DUP3 MSTORE POP POP JUMP JUMPDEST PUSH1 0x0 PUSH2 0x17DD DUP3 DUP7 PUSH2 0x1751 JUMP JUMPDEST PUSH1 0x20 DUP3 ADD SWAP2 POP PUSH2 0x17ED DUP3 DUP6 PUSH2 0x1799 JUMP JUMPDEST PUSH1 0x14 DUP3 ADD SWAP2 POP PUSH2 0x17FD DUP3 DUP5 PUSH2 0x17BA JUMP JUMPDEST PUSH1 0x20 DUP3 ADD SWAP2 POP DUP2 SWAP1 POP SWAP5 SWAP4 POP POP POP POP JUMP JUMPDEST PUSH32 0x4272696467653A206465706F73697420616C72656164792070726F6365737365 PUSH1 0x0 DUP3 ADD MSTORE PUSH32 0x6400000000000000000000000000000000000000000000000000000000000000 PUSH1 0x20 DUP3 ADD MSTORE POP JUMP JUMPDEST PUSH1 0x0 PUSH2 0x186A PUSH1 0x21 DUP4 PUSH2 0x1586 JUMP JUMPDEST SWAP2 POP PUSH2 0x1875 DUP3 PUSH2 0x180E JUMP JUMPDEST PUSH1 0x40 DUP3 ADD SWAP1 POP SWAP2 SWAP1 POP JUMP JUMPDEST PUSH1 0x0 PUSH1 0x20 DUP3 ADD SWAP1 POP DUP2 DUP2 SUB PUSH1 0x0 DUP4 ADD MSTORE PUSH2 0x1899 DUP2 PUSH2 0x185D JUMP JUMPDEST SWAP1 POP SWAP2 SWAP1 POP JUMP JUMPDEST PUSH2 0x18A9 DUP2 PUSH2 0x1278 JUMP JUMPDEST DUP3 MSTORE POP POP JUMP JUMPDEST PUSH1 0x0 PUSH1 0x60 DUP3 ADD SWAP1 POP PUSH2 0x18C4 PUSH1 0x0 DUP4 ADD DUP7 PUSH2 0x130D JUMP JUMPDEST PUSH2 0x18D1 PUSH1 0x20 DUP4 ADD DUP6 PUSH2 0x1326 JUMP JUMPDEST PUSH2 0x18DE PUSH1 0x40 DUP4 ADD DUP5 PUSH2 0x18A0 JUMP JUMPDEST SWAP5 SWAP4 POP POP POP POP JUMP JUMPDEST PUSH1 0x0 PUSH1 0x40 DUP3 ADD SWAP1 POP PUSH2 0x18FB PUSH1 0x0 DUP4 ADD DUP6 PUSH2 0x1326 JUMP JUMPDEST PUSH2 0x1908 PUSH1 0x20 DUP4 ADD DUP5 PUSH2 0x18A0 JUMP JUMPDEST SWAP4 SWAP3 POP POP POP JUMP JUMPDEST PUSH32 0x4272696467653A20696E76616C6964206F70657261746F720000000000000000 PUSH1 0x0 DUP3 ADD MSTORE POP JUMP JUMPDEST PUSH1 0x0 PUSH2 0x1945 PUSH1 0x18 DUP4 PUSH2 0x1586 JUMP JUMPDEST SWAP2 POP PUSH2 0x1950 DUP3 PUSH2 0x190F JUMP JUMPDEST PUSH1 0x20 DUP3 ADD SWAP1 POP SWAP2 SWAP1 POP JUMP JUMPDEST PUSH1 0x0 PUSH1 0x20 DUP3 ADD SWAP1 POP DUP2 DUP2 SUB PUSH1 0x0 DUP4 ADD MSTORE PUSH2 0x1974 DUP2 PUSH2 0x1938 JUMP JUMPDEST SWAP1 POP SWAP2 SWAP1 POP JUMP JUMPDEST PUSH32 0x4272696467653A20616D6F756E74206D757374206265203E2030000000000000 PUSH1 0x0 DUP3 ADD MSTORE POP JUMP JUMPDEST PUSH1 0x0 PUSH2 0x19B1 PUSH1 0x1A DUP4 PUSH2 0x1586 JUMP JUMPDEST SWAP2 POP PUSH2 0x19BC DUP3 PUSH2 0x197B JUMP JUMPDEST PUSH1 0x20 DUP3 ADD SWAP1 POP SWAP2 SWAP1 POP JUMP JUMPDEST PUSH1 0x0 PUSH1 0x20 DUP3 ADD SWAP1 POP DUP2 DUP2 SUB PUSH1 0x0 DUP4 ADD MSTORE PUSH2 0x19E0 DUP2 PUSH2 0x19A4 JUMP JUMPDEST SWAP1 POP SWAP2 SWAP1 POP JUMP JUMPDEST PUSH32 0x4272696467653A20696E76616C696420726563697069656E7400000000000000 PUSH1 0x0 DUP3 ADD MSTORE POP JUMP JUMPDEST PUSH1 0x0 PUSH2 0x1A1D PUSH1 0x19 DUP4 PUSH2 0x1586 JUMP JUMPDEST SWAP2 POP PUSH2 0x1A28 DUP3 PUSH2 0x19E7 JUMP JUMPDEST PUSH1 0x20 DUP3 ADD SWAP1 POP SWAP2 SWAP1 POP JUMP JUMPDEST PUSH1 0x0 PUSH1 0x20 DUP3 ADD SWAP1 POP DUP2 DUP2 SUB PUSH1 0x0 DUP4 ADD MSTORE PUSH2 0x1A4C DUP2 PUSH2 0x1A10 JUMP JUMPDEST SWAP1 POP SWAP2 SWAP1 POP JUMP JUMPDEST PUSH1 0x0 DUP2 MLOAD SWAP1 POP PUSH2 0x1A62 DUP2 PUSH2 0x1491 JUMP JUMPDEST SWAP3 SWAP2 POP POP JUMP JUMPDEST PUSH1 0x0 PUSH1 0x20 DUP3 DUP5 SUB SLT ISZERO PUSH2 0x1A7E JUMPI PUSH2 0x1A7D PUSH2 0x1273 JUMP JUMPDEST JUMPDEST PUSH1 0x0 PUSH2 0x1A8C DUP5 DUP3 DUP6 ADD PUSH2 0x1A53 JUMP JUMPDEST SWAP2 POP POP SWAP3 SWAP2 POP POP JUMP JUMPDEST PUSH32 0x4272696467653A20696E73756666696369656E742062616C616E636500000000 PUSH1 0x0 DUP3 ADD MSTORE POP JUMP JUMPDEST PUSH1 0x0 PUSH2 0x1ACB PUSH1 0x1C DUP4 PUSH2 0x1586 JUMP JUMPDEST SWAP2 POP PUSH2 0x1AD6 DUP3 PUSH2 0x1A95 JUMP JUMPDEST PUSH1 0x20 DUP3 ADD SWAP1 POP SWAP2 SWAP1 POP JUMP JUMPDEST PUSH1 0x0 PUSH1 0x20 DUP3 ADD SWAP1 POP DUP2 DUP2 SUB PUSH1 0x0 DUP4 ADD MSTORE PUSH2 0x1AFA DUP2 PUSH2 0x1ABE JUMP JUMPDEST SWAP1 POP SWAP2 SWAP1 POP JUMP JUMPDEST PUSH1 0x0 PUSH2 0x1B0D DUP3 DUP9 PUSH2 0x1799 JUMP JUMPDEST PUSH1 0x14 DUP3 ADD SWAP2 POP PUSH2 0x1B1D DUP3 DUP8 PUSH2 0x17BA JUMP JUMPDEST PUSH1 0x20 DUP3 ADD SWAP2 POP PUSH2 0x1B2D DUP3 DUP7 PUSH2 0x1799 JUMP JUMPDEST PUSH1 0x14 DUP3 ADD SWAP2 POP PUSH2 0x1B3D DUP3 DUP6 PUSH2 0x17BA JUMP JUMPDEST PUSH1 0x20 DUP3 ADD SWAP2 POP PUSH2 0x1B4D DUP3 DUP5 PUSH2 0x17BA JUMP JUMPDEST PUSH1 0x20 DUP3 ADD SWAP2 POP DUP2 SWAP1 POP SWAP7 SWAP6 POP POP POP POP POP POP JUMP JUMPDEST PUSH32 0x4E487B7100000000000000000000000000000000000000000000000000000000 PUSH1 0x0 MSTORE PUSH1 0x11 PUSH1 0x4 MSTORE PUSH1 0x24 PUSH1 0x0 REVERT JUMPDEST PUSH1 0x0 PUSH2 0x1B9A DUP3 PUSH2 0x131C JUMP JUMPDEST SWAP2 POP PUSH32 0xFFFFFFFFFFFFFFFFFFFFFFFFFFFFFFFFFFFFFFFFFFFFFFFFFFFFFFFFFFFFFFFF DUP3 EQ ISZERO PUSH2 0x1BCD JUMPI PUSH2 0x1BCC PUSH2 0x1B60 JUMP JUMPDEST JUMPDEST PUSH1 0x1 DUP3 ADD SWAP1 POP SWAP2 SWAP1 POP JUMP JUMPDEST PUSH1 0x0 PUSH1 0x40 DUP3 ADD SWAP1 POP PUSH2 0x1BED PUSH1 0x0 DUP4 ADD DUP6 PUSH2 0x1326 JUMP JUMPDEST PUSH2 0x1BFA PUSH1 0x20 DUP4 ADD DUP5 PUSH2 0x130D JUMP JUMPDEST SWAP4 SWAP3 POP POP POP JUMP JUMPDEST PUSH32 0x4272696467653A20696E76616C6964206F776E65720000000000000000000000 PUSH1 0x0 DUP3 ADD MSTORE POP JUMP JUMPDEST PUSH1 0x0 PUSH2 0x1C37 PUSH1 0x15 DUP4 PUSH2 0x1586 JUMP JUMPDEST SWAP2 POP PUSH2 0x1C42 DUP3 PUSH2 0x1C01 JUMP JUMPDEST PUSH1 0x20 DUP3 ADD SWAP1 POP SWAP2 SWAP1 POP JUMP JUMPDEST PUSH1 0x0 PUSH1 0x20 DUP3 ADD SWAP1 POP DUP2 DUP2 SUB PUSH1 0x0 DUP4 ADD MSTORE PUSH2 0x1C66 DUP2 PUSH2 0x1C2A JUMP JUMPDEST SWAP1 POP SWAP2 SWAP1 POP JUMP INVALID LOG2 PUSH5 0x6970667358 0x22 SLT KECCAK256 REVERT BYTE PUSH30 0xB3E717C8BF54B1C91E046A3265CE824B22278462EF1E68DA6230FBA0BD64 PUSH20 0x6F6C634300080A00330000000000000000000000 "
    },
    "gasEstimates": {
      "creation": {
        "codeDepositCost": "1466200",
        "executionCost": "infinite",
        "totalCost": "infinite"
      },
      "external": {
        "addOperator(address)": "28226",
        "getWithdrawRequest(bytes32)": "infinite",
        "isDepositProcessed(bytes32)": "2866",
        "markWithdrawProcessed(bytes32)": "32719",
        "operators(address)": "2891",
        "owner()": "2537",
        "processDeposit(address,uint256,bytes32)": "infinite",
        "processedDeposits(bytes32)": "2819",
        "removeOperator(address)": "28210",
        "requestWithdraw(uint256,address)": "infinite",
        "setUSDCp(address)": "26960",
        "transferOwnership(address)": "27018",
        "usdcp()": "infinite",
        "withdrawNonce()": "2518",
        "withdrawRequests(bytes32)": "infinite"
      }
    },
    "methodIdentifiers": {
      "addOperator(address)": "9870d7fe",
      "getWithdrawRequest(bytes32)": "e869554d",
      "isDepositProcessed(bytes32)": "d5d0d21c",
      "markWithdrawProcessed(bytes32)": "464514af",
      "operators(address)": "13e7c9d8",
      "owner()": "8da5cb5b",
      "processDeposit(address,uint256,bytes32)": "6e2bc8ff",
      "processedDeposits(bytes32)": "40c5faf0",
      "removeOperator(address)": "ac8a584a",
      "requestWithdraw(uint256,address)": "ccc143b8",
      "setUSDCp(address)": "15e7b12f",
      "transferOwnership(address)": "f2fde38b",
      "usdcp()": "4592bc14",
      "withdrawNonce()": "b8a4e151",
      "withdrawRequests(bytes32)": "026508d1"
    }
  },
  "storageLayout": {
    "storage": [
      {
        "astId": 69,
        "contract": "PrivateBridge.sol:PrivateBridge",
        "label": "usdcp",
        "offset": 0,
        "slot": "0",
        "type": "t_contract(USDCp)960"
      },
      {
        "astId": 71,
        "contract": "PrivateBridge.sol:PrivateBridge",
        "label": "owner",
        "offset": 0,
        "slot": "1",
        "type": "t_address"
      },
      {
        "astId": 75,
        "contract": "PrivateBridge.sol:PrivateBridge",
        "label": "operators",
        "offset": 0,
        "slot": "2",
        "type": "t_mapping(t_address,t_bool)"
      },
      {
        "astId": 79,
        "contract": "PrivateBridge.sol:PrivateBridge",
        "label": "processedDeposits",
        "offset": 0,
        "slot": "3",
        "type": "t_mapping(t_bytes32,t_bool)"
      },
      {
        "astId": 84,
        "contract": "PrivateBridge.sol:PrivateBridge",
        "label": "withdrawRequests",
        "offset": 0,
        "slot": "4",
        "type": "t_mapping(t_bytes32,t_struct(WithdrawRequest)97_storage)"
      },
      {
        "astId": 86,
        "contract": "PrivateBridge.sol:PrivateBridge",
        "label": "withdrawNonce",
        "offset": 0,
        "slot": "5",
        "type": "t_uint256"
      }
    ],
    "types": {
      "t_address": {
        "encoding": "inplace",
        "label": "address",
        "numberOfBytes": "20"
      },
      "t_bool": {
        "encoding": "inplace",
        "label": "bool",
        "numberOfBytes": "1"
      },
      "t_bytes32": {
        "encoding": "inplace",
        "label": "bytes32",
        "numberOfBytes": "32"
      },
      "t_contract(USDCp)960": {
        "encoding": "inplace",
        "label": "contract USDCp",
        "numberOfBytes": "20"
      },
      "t_mapping(t_address,t_bool)": {
        "encoding": "mapping",
        "key": "t_address",
        "label": "mapping(address => bool)",
        "numberOfBytes": "32",
        "value": "t_bool"
      },
      "t_mapping(t_bytes32,t_bool)": {
        "encoding": "mapping",
        "key": "t_bytes32",
        "label": "mapping(bytes32 => bool)",
        "numberOfBytes": "32",
        "value": "t_bool"
      },
      "t_mapping(t_bytes32,t_struct(WithdrawRequest)97_storage)": {
        "encoding": "mapping",
        "key": "t_bytes32",
        "label": "mapping(bytes32 => struct PrivateBridge.WithdrawRequest)",
        "numberOfBytes": "32",
        "value": "t_struct(WithdrawRequest)97_storage"
      },
      "t_struct(WithdrawRequest)97_storage": {
        "encoding": "inplace",
        "label": "struct PrivateBridge.WithdrawRequest",
        "members": [
          {
            "astId": 88,
            "contract": "PrivateBridge.sol:PrivateBridge",
            "label": "from",
            "offset": 0,
            "slot": "0",
            "type": "t_address"
          },
          {
            "astId": 90,
            "contract": "PrivateBridge.sol:PrivateBridge",
            "label": "amount",
            "offset": 0,
            "slot": "1",
            "type": "t_uint256"
          },
          {
            "astId": 92,
            "contract": "PrivateBridge.sol:PrivateBridge",
            "label": "publicChainRecipient",
            "offset": 0,
            "slot": "2",
            "type": "t_address"
          },
          {
            "astId": 94,
            "contract": "PrivateBridge.sol:PrivateBridge",
            "label": "timestamp",
            "offset": 0,
            "slot": "3",
            "type": "t_uint256"
          },
          {
            "astId": 96,
            "contract": "PrivateBridge.sol:PrivateBridge",
            "label": "processed",
            "offset": 0,
            "slot": "4",
            "type": "t_bool"
          }
        ],
        "numberOfBytes": "160"
      },
      "t_uint256": {
        "encoding": "inplace",
        "label": "uint256",
        "numberOfBytes": "32"
      }
    }
  },
  "userdoc": {
    "kind": "user",
    "methods": {
      "markWithdrawProcessed(bytes32)": {
        "notice": "Mark withdrawal as processed (called by operator after unlocking on public chain)"
      },
      "processDeposit(address,uint256,bytes32)": {
        "notice": "Process a deposit from public chain (mint USDCp)"
      },
      "requestWithdraw(uint256,address)": {
        "notice": "Request withdrawal to public chain (user calls this)"
      }
    },
    "notice": "Bridge contract on Private Chain for handling USDC <-> USDCp transfers",
    "version": 1
  }
}