{
  "abi": [
    {
      "inputs": [
        {
          "internalType": "address",
          "name": "_usdcp",
          "type": "address"
        }
      ],
      "stateMutability": "nonpayable",
      "type": "constructor"
    },
    {
      "anonymous": false,
      "inputs": [
        {
          "indexed": true,
          "internalType": "bytes32",
          "name": "depositId",
          "type": "bytes32"
        },
        {
          "indexed": true,
          "internalType": "address",
          "name": "recipient",
          "type": "address"
        },
        {
          "indexed": false,
          "internalType": "uint256",
          "name": "amount",
          "type": "uint256"
        },
        {
          "indexed": false,
          "internalType": "bytes32",
          "name": "publicChainTxHash",
          "type": "bytes32"
        }
      ],
      "name": "DepositProcessed",
      "type": "event"
    },
    {
      "anonymous": false,
      "inputs": [
        {
          "indexed": false,
          "internalType": "uint256",
          "name": "minDeposit",
          "type": "uint256"
        },
        {
          "indexed": false,
          "internalType": "uint256",
          "name": "maxDeposit",
          "type": "uint256"
        },
        {
          "indexed": false,
          "internalType": "uint256",
          "name": "minWithdraw",
          "type": "uint256"
        },
        {
          "indexed": false,
          "internalType": "uint256",
          "name": "maxWithdraw",
          "type": "uint256"
        }
      ],
      "name": "LimitsUpdated",
      "type": "event"
    },
    {
      "anonymous": false,
      "inputs": [
        {
          "indexed": true,
          "internalType": "address",
          "name": "operator",
          "type": "address"
        }
      ],
      "name": "OperatorAdded",
      "type": "event"
    },
    {
      "anonymous": false,
      "inputs": [
        {
          "indexed": true,
          "internalType": "address",
          "name": "operator",
          "type": "address"
        }
      ],
      "name": "OperatorRemoved",
      "type": "event"
    },
    {
      "anonymous": false,
      "inputs": [
        {
          "indexed": true,
          "internalType": "address",
          "name": "previousOwner",
          "type": "address"
        },
        {
          "indexed": true,
          "internalType": "address",
          "name": "newOwner",
          "type": "address"
        }
      ],
      "name": "OwnershipTransferStarted",
      "type": "event"
    },
    {
      "anonymous": false,
      "inputs": [
        {
          "indexed": true,
          "internalType": "address",
          "name": "previousOwner",
          "type": "address"
        },
        {
          "indexed": true,
          "internalType": "address",
          "name": "newOwner",
          "type": "address"
        }
      ],
      "name": "OwnershipTransferred",
      "type": "event"
    },
    {
      "anonymous": false,
      "inputs": [
        {
          "indexed": false,
          "internalType": "address",
          "name": "account",
          "type": "address"
        }
      ],
      "name": "Paused",
      "type": "event"
    },
    {
      "anonymous": false,
      "inputs": [
        {
          "indexed": true,
          "internalType": "address",
          "name": "oldUsdcp",
          "type": "address"
        },
        {
          "indexed": true,
          "internalType": "address",
          "name": "newUsdcp",
          "type": "address"
        }
      ],
      "name": "USDCpUpdated",
      "type": "event"
    },
    {
      "anonymous": false,
      "inputs": [
        {
          "indexed": false,
          "internalType": "address",
          "name": "account",
          "type": "address"
        }
      ],
      "name": "Unpaused",
      "type": "event"
    },
    {
      "anonymous": false,
      "inputs": [
        {
          "indexed": true,
          "internalType": "bytes32",
          "name": "withdrawId",
          "type": "bytes32"
        }
      ],
      "name": "WithdrawProcessed",
      "type": "event"
    },
    {
      "anonymous": false,
      "inputs": [
        {
          "indexed": true,
          "internalType": "bytes32",
          "name": "withdrawId",
          "type": "bytes32"
        },
        {
          "indexed": true,
          "internalType": "address",
          "name": "from",
          "type": "address"
        },
        {
          "indexed": false,
          "internalType": "uint256",
          "name": "amount",
          "type": "uint256"
        },
        {
          "indexed": false,
          "internalType": "address",
          "name": "publicChainRecipient",
          "type": "address"
        }
      ],
      "name": "WithdrawRequested",
      "type": "event"
    },
    {
      "inputs": [],
      "name": "acceptOwnership",
      "outputs": [],
      "stateMutability": "nonpayable",
      "type": "function"
    },
    {
      "inputs": [
        {
          "internalType": "address",
          "name": "operator",
          "type": "address"
        }
      ],
      "name": "addOperator",
      "outputs": [],
      "stateMutability": "nonpayable",
      "type": "function"
    },
    {
      "inputs": [
        {
          "internalType": "bytes32",
          "name": "withdrawId",
          "type": "bytes32"
        }
      ],
      "name": "getWithdrawRequest",
      "outputs": [
        {
          "internalType": "address",
          "name": "from",
          "type": "address"
        },
        {
          "internalType": "uint256",
          "name": "amount",
          "type": "uint256"
        },
        {
          "internalType": "address",
          "name": "publicChainRecipient",
          "type": "address"
        },
        {
          "internalType": "uint256",
          "name": "timestamp",
          "type": "uint256"
        },
        {
          "internalType": "bool",
          "name": "processed",
          "type": "bool"
        }
      ],
      "stateMutability": "view",
      "type": "function"
    },
    {
      "inputs": [
        {
          "internalType": "bytes32",
          "name": "depositId",
          "type": "bytes32"
        }
      ],
      "name": "isDepositProcessed",
      "outputs": [
        {
          "internalType": "bool",
          "name": "",
          "type": "bool"
        }
      ],
      "stateMutability": "view",
      "type": "function"
    },
    {
      "inputs": [
        {
          "internalType": "bytes32",
          "name": "withdrawId",
          "type": "bytes32"
        }
      ],
      "name": "markWithdrawProcessed",
      "outputs": [],
      "stateMutability": "nonpayable",
      "type": "function"
    },
    {
      "inputs": [],
      "name": "maxDepositAmount",
      "outputs": [
        {
          "internalType": "uint256",
          "name": "",
          "type": "uint256"
        }
      ],
      "stateMutability": "view",
      "type": "function"
    },
    {
      "inputs": [],
      "name": "maxWithdrawAmount",
      "outputs": [
        {
          "internalType": "uint256",
          "name": "",
          "type": "uint256"
        }
      ],
      "stateMutability": "view",
      "type": "function"
    },
    {
      "inputs": [],
      "name": "minDepositAmount",
      "outputs": [
        {
          "internalType": "uint256",
          "name": "",
          "type": "uint256"
        }
      ],
      "stateMutability": "view",
      "type": "function"
    },
    {
      "inputs": [],
      "name": "minWithdrawAmount",
      "outputs": [
        {
          "internalType": "uint256",
          "name": "",
          "type": "uint256"
        }
      ],
      "stateMutability": "view",
      "type": "function"
    },
    {
      "inputs": [
        {
          "internalType": "address",
          "name": "",
          "type": "address"
        }
      ],
      "name": "operators",
      "outputs": [
        {
          "internalType": "bool",
          "name": "",
          "type": "bool"
        }
      ],
      "stateMutability": "view",
      "type": "function"
    },
    {
      "inputs": [],
      "name": "owner",
      "outputs": [
        {
          "internalType": "address",
          "name": "",
          "type": "address"
        }
      ],
      "stateMutability": "view",
      "type": "function"
    },
    {
      "inputs": [],
      "name": "pause",
      "outputs": [],
      "stateMutability": "nonpayable",
      "type": "function"
    },
    {
      "inputs": [],
      "name": "paused",
      "outputs": [
        {
          "internalType": "bool",
          "name": "",
          "type": "bool"
        }
      ],
      "stateMutability": "view",
      "type": "function"
    },
    {
      "inputs": [],
      "name": "pendingOwner",
      "outputs": [
        {
          "internalType": "address",
          "name": "",
          "type": "address"
        }
      ],
      "stateMutability": "view",
      "type": "function"
    },
    {
      "inputs": [
        {
          "internalType": "address",
          "name": "recipient",
          "type": "address"
        },
        {
          "internalType": "uint256",
          "name": "amount",
          "type": "uint256"
        },
        {
          "internalType": "bytes32",
          "name": "publicChainTxHash",
          "type": "bytes32"
        }
      ],
      "name": "processDeposit",
      "outputs": [],
      "stateMutability": "nonpayable",
      "type": "function"
    },
    {
      "inputs": [
        {
          "internalType": "bytes32",
          "name": "",
          "type": "bytes32"
        }
      ],
      "name": "processedDeposits",
      "outputs": [
        {
          "internalType": "bool",
          "name": "",
          "type": "bool"
        }
      ],
      "stateMutability": "view",
      "type": "function"
    },
    {
      "inputs": [
        {
          "internalType": "address",
          "name": "operator",
          "type": "address"
        }
      ],
      "name": "removeOperator",
      "outputs": [],
      "stateMutability": "nonpayable",
      "type": "function"
    },
    {
      "inputs": [
        {
          "internalType": "uint256",
          "name": "amount",
          "type": "uint256"
        },
        {
          "internalType": "address",
          "name": "publicChainRecipient",
          "type": "address"
        }
      ],
      "name": "requestWithdraw",
      "outputs": [],
      "stateMutability": "nonpayable",
      "type": "function"
    },
    {
      "inputs": [
        {
          "internalType": "uint256",
          "name": "_minDeposit",
          "type": "uint256"
        },
        {
          "internalType": "uint256",
          "name": "_maxDeposit",
          "type": "uint256"
        },
        {
          "internalType": "uint256",
          "name": "_minWithdraw",
          "type": "uint256"
        },
        {
          "internalType": "uint256",
          "name": "_maxWithdraw",
          "type": "uint256"
        }
      ],
      "name": "setLimits",
      "outputs": [],
      "stateMutability": "nonpayable",
      "type": "function"
    },
    {
      "inputs": [
        {
          "internalType": "address",
          "name": "_usdcp",
          "type": "address"
        }
      ],
      "name": "setUSDCp",
      "outputs": [],
      "stateMutability": "nonpayable",
      "type": "function"
    },
    {
      "inputs": [
        {
          "internalType": "address",
          "name": "newOwner",
          "type": "address"
        }
      ],
      "name": "transferOwnership",
      "outputs": [],
      "stateMutability": "nonpayable",
      "type": "function"
    },
    {
      "inputs": [],
      "name": "unpause",
      "outputs": [],
      "stateMutability": "nonpayable",
      "type": "function"
    },
    {
      "inputs": [],
      "name": "usdcp",
      "outputs": [
        {
          "internalType": "contract USDCpV2",
          "name": "",
          "type": "address"
        }
      ],
      "stateMutability": "view",
      "type": "function"
    },
    {
      "inputs": [],
      "name": "withdrawNonce",
      "outputs": [
        {
          "internalType": "uint256",
          "name": "",
          "type": "uint256"
        }
      ],
      "stateMutability": "view",
      "type": "function"
    },
    {
      "inputs": [
        {
          "internalType": "bytes32",
          "name": "",
          "type": "bytes32"
        }
      ],
      "name": "withdrawRequests",
      "outputs": [
        {
          "internalType": "address",
          "name": "from",
          "type": "address"
        },
        {
          "internalType": "uint256",
          "name": "amount",
          "type": "uint256"
        },
        {
          "internalType": "address",
          "name": "publicChainRecipient",
          "type": "address"
        },
        {
          "internalType": "uint256",
          "name": "timestamp",
          "type": "uint256"
        },
        {
          "internalType": "bool",
          "name": "processed",
          "type": "bool"
        }
      ],
      "stateMutability": "view",
      "type": "function"
    }
  ],
  "devdoc": {
    "kind": "dev",
    "methods": {
      "markWithdrawProcessed(bytes32)": {
        "params": {
          "withdrawId": "The withdrawal ID to mark as processed"
        }
      },
      "processDeposit(address,uint256,bytes32)": {
        "params": {
          "amount": "Amount of USDCp to mint",
          "publicChainTxHash": "Transaction hash of the lock on public chain",
          "recipient": "Address to receive USDCp on private chain"
        }
      },
      "requestWithdraw(uint256,address)": {
        "params": {
          "amount": "Amount of USDCp to burn",
          "publicChainRecipient": "Address to receive USDC on public chain"
        }
      }
    },
    "title": "PrivateBridge V2 (Security Enhanced)",
    "version": 1
  },
  "evm": {
    "assembly": "    /* \"PrivateBridgeV2.sol\":219:8616  contract PrivateBridgeV2 {... */\n  mstore(0x40, 0x80)\n    /* \"PrivateBridgeV2.sol\":2339:2886  constructor(address _usdcp) {... */\n  callvalue\n  dup1\n  iszero\n  tag_1\n  jumpi\n  0x00\n  dup1\n  revert\ntag_1:\n  pop\n  mload(0x40)\n  sub(codesize, bytecodeSize)\n  dup1\n  bytecodeSize\n  dup4\n  codecopy\n  dup2\n  dup2\n  add\n  0x40\n  mstore\n  dup2\n  add\n  swap1\n  tag_2\n  swap2\n  swap1\n  tag_3\n  jump\t// in\ntag_2:\n    /* \"PrivateBridgeV2.sol\":2403:2404  0 */\n  0x00\n    /* \"PrivateBridgeV2.sol\":2385:2405  _usdcp != address(0) */\n  0xffffffffffffffffffffffffffffffffffffffff\n  and\n    /* \"PrivateBridgeV2.sol\":2385:2391  _usdcp */\n  dup2\n    /* \"PrivateBridgeV2.sol\":2385:2405  _usdcp != address(0) */\n  0xffffffffffffffffffffffffffffffffffffffff\n  and\n  eq\n  iszero\n    /* \"PrivateBridgeV2.sol\":2377:2439  require(_usdcp != address(0), \"Bridge: invalid usdcp address\") */\n  tag_6\n  jumpi\n  mload(0x40)\n  0x08c379a000000000000000000000000000000000000000000000000000000000\n  dup2\n  mstore\n  0x04\n  add\n  tag_7\n  swap1\n  tag_8\n  jump\t// in\ntag_7:\n  mload(0x40)\n  dup1\n  swap2\n  sub\n  swap1\n  revert\ntag_6:\n    /* \"PrivateBridgeV2.sol\":2457:2467  msg.sender */\n  caller\n    /* \"PrivateBridgeV2.sol\":2449:2454  owner */\n  0x01\n  0x00\n    /* \"PrivateBridgeV2.sol\":2449:2467  owner = msg.sender */\n  0x0100\n  exp\n  dup2\n  sload\n  dup2\n  0xffffffffffffffffffffffffffffffffffffffff\n  mul\n  not\n  and\n  swap1\n  dup4\n  0xffffffffffffffffffffffffffffffffffffffff\n  and\n  mul\n  or\n  swap1\n  sstore\n  pop\n    /* \"PrivateBridgeV2.sol\":2493:2499  _usdcp */\n  dup1\n    /* \"PrivateBridgeV2.sol\":2477:2482  usdcp */\n  0x00\n  dup1\n    /* \"PrivateBridgeV2.sol\":2477:2500  usdcp = USDCpV2(_usdcp) */\n  0x0100\n  exp\n  dup2\n  sload\n  dup2\n  0xffffffffffffffffffffffffffffffffffffffff\n  mul\n  not\n  and\n  swap1\n  dup4\n  0xffffffffffffffffffffffffffffffffffffffff\n  and\n  mul\n  or\n  swap1\n  sstore\n  pop\n    /* \"PrivateBridgeV2.sol\":2534:2538  true */\n  0x01\n    /* \"PrivateBridgeV2.sol\":2510:2519  operators */\n  0x03\n    /* \"PrivateBridgeV2.sol\":2510:2531  operators[msg.sender] */\n  0x00\n    /* \"PrivateBridgeV2.sol\":2520:2530  msg.sender */\n  caller\n    /* \"PrivateBridgeV2.sol\":2510:2531  operators[msg.sender] */\n  0xffffffffffffffffffffffffffffffffffffffff\n  and\n  0xffffffffffffffffffffffffffffffffffffffff\n  and\n  dup2\n  mstore\n  0x20\n  add\n  swap1\n  dup2\n  mstore\n  0x20\n  add\n  0x00\n  keccak256\n  0x00\n    /* \"PrivateBridgeV2.sol\":2510:2538  operators[msg.sender] = true */\n  0x0100\n  exp\n  dup2\n  sload\n  dup2\n  0xff\n  mul\n  not\n  and\n  swap1\n  dup4\n  iszero\n  iszero\n  mul\n  or\n  swap1\n  sstore\n  pop\n    /* \"PrivateBridgeV2.sol\":2567:2577  msg.sender */\n  caller\n    /* \"PrivateBridgeV2.sol\":2553:2578  OperatorAdded(msg.sender) */\n  0xffffffffffffffffffffffffffffffffffffffff\n  and\n  0xac6fa858e9350a46cec16539926e0fde25b7629f84b5a72bffaae4df888ae86d\n  mload(0x40)\n  mload(0x40)\n  dup1\n  swap2\n  sub\n  swap1\n  log2\n    /* \"PrivateBridgeV2.sol\":2654:2663  1 * 10**6 */\n  0x0f4240\n    /* \"PrivateBridgeV2.sol\":2635:2651  minDepositAmount */\n  0x07\n    /* \"PrivateBridgeV2.sol\":2635:2663  minDepositAmount = 1 * 10**6 */\n  dup2\n  swap1\n  sstore\n  pop\n    /* \"PrivateBridgeV2.sol\":2717:2732  1000000 * 10**6 */\n  0xe8d4a51000\n    /* \"PrivateBridgeV2.sol\":2698:2714  maxDepositAmount */\n  0x08\n    /* \"PrivateBridgeV2.sol\":2698:2732  maxDepositAmount = 1000000 * 10**6 */\n  dup2\n  swap1\n  sstore\n  pop\n    /* \"PrivateBridgeV2.sol\":2782:2791  1 * 10**6 */\n  0x0f4240\n    /* \"PrivateBridgeV2.sol\":2762:2779  minWithdrawAmount */\n  0x09\n    /* \"PrivateBridgeV2.sol\":2762:2791  minWithdrawAmount = 1 * 10**6 */\n  dup2\n  swap1\n  sstore\n  pop\n    /* \"PrivateBridgeV2.sol\":2845:2860  1000000 * 10**6 */\n  0xe8d4a51000\n    /* \"PrivateBridgeV2.sol\":2825:2842  maxWithdrawAmount */\n  0x0a\n    /* \"PrivateBridgeV2.sol\":2825:2860  maxWithdrawAmount = 1000000 * 10**6 */\n  dup2\n  swap1\n  sstore\n  pop\n    /* \"PrivateBridgeV2.sol\":2339:2886  constructor(address _usdcp) {... */\n  pop\n    /* \"PrivateBridgeV2.sol\":219:8616  contract PrivateBridgeV2 {... */\n  jump(tag_9)\n    /* \"#utility.yul\":88:205   */\ntag_11:\n    /* \"#utility.yul\":197:198   */\n  0x00\n    /* \"#utility.yul\":194:195   */\n  dup1\n    /* \"#utility.yul\":187:199   */\n  revert\n    /* \"#utility.yul\":334:460   */\ntag_13:\n    /* \"#utility.yul\":371:378   */\n  0x00\n    /* \"#utility.yul\":411:453   */\n  0xffffffffffffffffffffffffffffffffffffffff\n    /* \"#utility.yul\":404:409   */\n  dup3\n    /* \"#utility.yul\":400:454   */\n  and\n    /* \"#utility.yul\":389:454   */\n  swap1\n  pop\n    /* \"#utility.yul\":334:460   */\n  swap2\n  swap1\n  pop\n  jump\t// out\n    /* \"#utility.yul\":466:562   */\ntag_14:\n    /* \"#utility.yul\":503:510   */\n  0x00\n    /* \"#utility.yul\":532:556   */\n  tag_26\n    /* \"#utility.yul\":550:555   */\n  dup3\n    /* \"#utility.yul\":532:556   */\n  tag_13\n  jump\t// in\ntag_26:\n    /* \"#utility.yul\":521:556   */\n  swap1\n  pop\n    /* \"#utility.yul\":466:562   */\n  swap2\n  swap1\n  pop\n  jump\t// out\n    /* \"#utility.yul\":568:690   */\ntag_15:\n    /* \"#utility.yul\":641:665   */\n  tag_28\n    /* \"#utility.yul\":659:664   */\n  dup2\n    /* \"#utility.yul\":641:665   */\n  tag_14\n  jump\t// in\ntag_28:\n    /* \"#utility.yul\":634:639   */\n  dup2\n    /* \"#utility.yul\":631:666   */\n  eq\n    /* \"#utility.yul\":621:684   */\n  tag_29\n  jumpi\n    /* \"#utility.yul\":680:681   */\n  0x00\n    /* \"#utility.yul\":677:678   */\n  dup1\n    /* \"#utility.yul\":670:682   */\n  revert\n    /* \"#utility.yul\":621:684   */\ntag_29:\n    /* \"#utility.yul\":568:690   */\n  pop\n  jump\t// out\n    /* \"#utility.yul\":696:839   */\ntag_16:\n    /* \"#utility.yul\":753:758   */\n  0x00\n    /* \"#utility.yul\":784:790   */\n  dup2\n    /* \"#utility.yul\":778:791   */\n  mload\n    /* \"#utility.yul\":769:791   */\n  swap1\n  pop\n    /* \"#utility.yul\":800:833   */\n  tag_31\n    /* \"#utility.yul\":827:832   */\n  dup2\n    /* \"#utility.yul\":800:833   */\n  tag_15\n  jump\t// in\ntag_31:\n    /* \"#utility.yul\":696:839   */\n  swap3\n  swap2\n  pop\n  pop\n  jump\t// out\n    /* \"#utility.yul\":845:1196   */\ntag_3:\n    /* \"#utility.yul\":915:921   */\n  0x00\n    /* \"#utility.yul\":964:966   */\n  0x20\n    /* \"#utility.yul\":952:961   */\n  dup3\n    /* \"#utility.yul\":943:950   */\n  dup5\n    /* \"#utility.yul\":939:962   */\n  sub\n    /* \"#utility.yul\":935:967   */\n  slt\n    /* \"#utility.yul\":932:1051   */\n  iszero\n  tag_33\n  jumpi\n    /* \"#utility.yul\":970:1049   */\n  tag_34\n  tag_11\n  jump\t// in\ntag_34:\n    /* \"#utility.yul\":932:1051   */\ntag_33:\n    /* \"#utility.yul\":1090:1091   */\n  0x00\n    /* \"#utility.yul\":1115:1179   */\n  tag_35\n    /* \"#utility.yul\":1171:1178   */\n  dup5\n    /* \"#utility.yul\":1162:1168   */\n  dup3\n    /* \"#utility.yul\":1151:1160   */\n  dup6\n    /* \"#utility.yul\":1147:1169   */\n  add\n    /* \"#utility.yul\":1115:1179   */\n  tag_16\n  jump\t// in\ntag_35:\n    /* \"#utility.yul\":1105:1179   */\n  swap2\n  pop\n    /* \"#utility.yul\":1061:1189   */\n  pop\n    /* \"#utility.yul\":845:1196   */\n  swap3\n  swap2\n  pop\n  pop\n  jump\t// out\n    /* \"#utility.yul\":1202:1371   */\ntag_17:\n    /* \"#utility.yul\":1286:1297   */\n  0x00\n    /* \"#utility.yul\":1320:1326   */\n  dup3\n    /* \"#utility.yul\":1315:1318   */\n  dup3\n    /* \"#utility.yul\":1308:1327   */\n  mstore\n    /* \"#utility.yul\":1360:1364   */\n  0x20\n    /* \"#utility.yul\":1355:1358   */\n  dup3\n    /* \"#utility.yul\":1351:1365   */\n  add\n    /* \"#utility.yul\":1336:1365   */\n  swap1\n  pop\n    /* \"#utility.yul\":1202:1371   */\n  swap3\n  swap2\n  pop\n  pop\n  jump\t// out\n    /* \"#utility.yul\":1377:1556   */\ntag_18:\n    /* \"#utility.yul\":1517:1548   */\n  0x4272696467653a20696e76616c69642075736463702061646472657373000000\n    /* \"#utility.yul\":1513:1514   */\n  0x00\n    /* \"#utility.yul\":1505:1511   */\n  dup3\n    /* \"#utility.yul\":1501:1515   */\n  add\n    /* \"#utility.yul\":1494:1549   */\n  mstore\n    /* \"#utility.yul\":1377:1556   */\n  pop\n  jump\t// out\n    /* \"#utility.yul\":1562:1928   */\ntag_19:\n    /* \"#utility.yul\":1704:1707   */\n  0x00\n    /* \"#utility.yul\":1725:1792   */\n  tag_39\n    /* \"#utility.yul\":1789:1791   */\n  0x1d\n    /* \"#utility.yul\":1784:1787   */\n  dup4\n    /* \"#utility.yul\":1725:1792   */\n  tag_17\n  jump\t// in\ntag_39:\n    /* \"#utility.yul\":1718:1792   */\n  swap2\n  pop\n    /* \"#utility.yul\":1801:1894   */\n  tag_40\n    /* \"#utility.yul\":1890:1893   */\n  dup3\n    /* \"#utility.yul\":1801:1894   */\n  tag_18\n  jump\t// in\ntag_40:\n    /* \"#utility.yul\":1919:1921   */\n  0x20\n    /* \"#utility.yul\":1914:1917   */\n  dup3\n    /* \"#utility.yul\":1910:1922   */\n  add\n    /* \"#utility.yul\":1903:1922   */\n  swap1\n  pop\n    /* \"#utility.yul\":1562:1928   */\n  swap2\n  swap1\n  pop\n  jump\t// out\n    /* \"#utility.yul\":1934:2353   */\ntag_8:\n    /* \"#utility.yul\":2100:2104   */\n  0x00\n    /* \"#utility.yul\":2138:2140   */\n  0x20\n    /* \"#utility.yul\":2127:2136   */\n  dup3\n    /* \"#utility.yul\":2123:2141   */\n  add\n    /* \"#utility.yul\":2115:2141   */\n  swap1\n  pop\n    /* \"#utility.yul\":2187:2196   */\n  dup2\n    /* \"#utility.yul\":2181:2185   */\n  dup2\n    /* \"#utility.yul\":2177:2197   */\n  sub\n    /* \"#utility.yul\":2173:2174   */\n  0x00\n    /* \"#utility.yul\":2162:2171   */\n  dup4\n    /* \"#utility.yul\":2158:2175   */\n  add\n    /* \"#utility.yul\":2151:2198   */\n  mstore\n    /* \"#utility.yul\":2215:2346   */\n  tag_42\n    /* \"#utility.yul\":2341:2345   */\n  dup2\n    /* \"#utility.yul\":2215:2346   */\n  tag_19\n  jump\t// in\ntag_42:\n    /* \"#utility.yul\":2207:2346   */\n  swap1\n  pop\n    /* \"#utility.yul\":1934:2353   */\n  swap2\n  swap1\n  pop\n  jump\t// out\n    /* \"PrivateBridgeV2.sol\":219:8616  contract PrivateBridgeV2 {... */\ntag_9:\n  dataSize(sub_0)\n  dup1\n  dataOffset(sub_0)\n  0x00\n  codecopy\n  0x00\n  return\nstop\n\nsub_0: assembly {\n        /* \"PrivateBridgeV2.sol\":219:8616  contract PrivateBridgeV2 {... */\n      mstore(0x40, 0x80)\n      callvalue\n      dup1\n      iszero\n      tag_1\n      jumpi\n      0x00\n      dup1\n      revert\n    tag_1:\n      pop\n      jumpi(tag_2, lt(calldatasize, 0x04))\n      shr(0xe0, calldataload(0x00))\n      dup1\n      0x8456cb59\n      gt\n      tag_28\n      jumpi\n      dup1\n      0xb8a4e151\n      gt\n      tag_29\n      jumpi\n      dup1\n      0xe30c3978\n      gt\n      tag_30\n      jumpi\n      dup1\n      0xe30c3978\n      eq\n      tag_24\n      jumpi\n      dup1\n      0xe869554d\n      eq\n      tag_25\n      jumpi\n      dup1\n      0xf2fde38b\n      eq\n      tag_26\n      jumpi\n      dup1\n      0xf516440c\n      eq\n      tag_27\n      jumpi\n      jump(tag_2)\n    tag_30:\n      dup1\n      0xb8a4e151\n      eq\n      tag_21\n      jumpi\n      dup1\n      0xccc143b8\n      eq\n      tag_22\n      jumpi\n      dup1\n      0xd5d0d21c\n      eq\n      tag_23\n      jumpi\n      jump(tag_2)\n    tag_29:\n      dup1\n      0x8456cb59\n      eq\n      tag_15\n      jumpi\n      dup1\n      0x8da5cb5b\n      eq\n      tag_16\n      jumpi\n      dup1\n      0x8ed83271\n      eq\n      tag_17\n      jumpi\n      dup1\n      0x9870d7fe\n      eq\n      tag_18\n      jumpi\n      dup1\n      0xa075b7c7\n      eq\n      tag_19\n      jumpi\n      dup1\n      0xac8a584a\n      eq\n      tag_20\n      jumpi\n      jump(tag_2)\n    tag_28:\n      dup1\n      0x4592bc14\n      gt\n      tag_31\n      jumpi\n      dup1\n      0x4592bc14\n      eq\n      tag_9\n      jumpi\n      dup1\n      0x464514af\n      eq\n      tag_10\n      jumpi\n      dup1\n      0x5c975abb\n      eq\n      tag_11\n      jumpi\n      dup1\n      0x645006ca\n      eq\n      tag_12\n      jumpi\n      dup1\n      0x6e2bc8ff\n      eq\n      tag_13\n      jumpi\n      dup1\n      0x79ba5097\n      eq\n      tag_14\n      jumpi\n      jump(tag_2)\n    tag_31:\n      dup1\n      0x026508d1\n      eq\n      tag_3\n      jumpi\n      dup1\n      0x13e7c9d8\n      eq\n      tag_4\n      jumpi\n      dup1\n      0x15e7b12f\n      eq\n      tag_5\n      jumpi\n      dup1\n      0x3f4ba83a\n      eq\n      tag_6\n      jumpi\n      dup1\n      0x40c5faf0\n      eq\n      tag_7\n      jumpi\n      dup1\n      0x457e1a49\n      eq\n      tag_8\n      jumpi\n    tag_2:\n      0x00\n      dup1\n      revert\n        /* \"PrivateBridgeV2.sol\":606:665  mapping(bytes32 => WithdrawRequest) public withdrawRequests */\n    tag_3:\n      tag_32\n      0x04\n      dup1\n      calldatasize\n      sub\n      dup2\n      add\n      swap1\n      tag_33\n      swap2\n      swap1\n      tag_34\n      jump\t// in\n    tag_33:\n      tag_35\n      jump\t// in\n    tag_32:\n      mload(0x40)\n      tag_36\n      swap6\n      swap5\n      swap4\n      swap3\n      swap2\n      swap1\n      tag_37\n      jump\t// in\n    tag_36:\n      mload(0x40)\n      dup1\n      swap2\n      sub\n      swap1\n      return\n        /* \"PrivateBridgeV2.sol\":411:452  mapping(address => bool) public operators */\n    tag_4:\n      tag_38\n      0x04\n      dup1\n      calldatasize\n      sub\n      dup2\n      add\n      swap1\n      tag_39\n      swap2\n      swap1\n      tag_40\n      jump\t// in\n    tag_39:\n      tag_41\n      jump\t// in\n    tag_38:\n      mload(0x40)\n      tag_42\n      swap2\n      swap1\n      tag_43\n      jump\t// in\n    tag_42:\n      mload(0x40)\n      dup1\n      swap2\n      sub\n      swap1\n      return\n        /* \"PrivateBridgeV2.sol\":7601:7817  function setUSDCp(address _usdcp) external onlyOwner {... */\n    tag_5:\n      tag_44\n      0x04\n      dup1\n      calldatasize\n      sub\n      dup2\n      add\n      swap1\n      tag_45\n      swap2\n      swap1\n      tag_40\n      jump\t// in\n    tag_45:\n      tag_46\n      jump\t// in\n    tag_44:\n      stop\n        /* \"PrivateBridgeV2.sol\":8510:8614  function unpause() external onlyOwner {... */\n    tag_6:\n      tag_47\n      tag_48\n      jump\t// in\n    tag_47:\n      stop\n        /* \"PrivateBridgeV2.sol\":517:566  mapping(bytes32 => bool) public processedDeposits */\n    tag_7:\n      tag_49\n      0x04\n      dup1\n      calldatasize\n      sub\n      dup2\n      add\n      swap1\n      tag_50\n      swap2\n      swap1\n      tag_34\n      jump\t// in\n    tag_50:\n      tag_51\n      jump\t// in\n    tag_49:\n      mload(0x40)\n      tag_52\n      swap2\n      swap1\n      tag_43\n      jump\t// in\n    tag_52:\n      mload(0x40)\n      dup1\n      swap2\n      sub\n      swap1\n      return\n        /* \"PrivateBridgeV2.sol\":823:855  uint256 public minWithdrawAmount */\n    tag_8:\n      tag_53\n      tag_54\n      jump\t// in\n    tag_53:\n      mload(0x40)\n      tag_55\n      swap2\n      swap1\n      tag_56\n      jump\t// in\n    tag_55:\n      mload(0x40)\n      dup1\n      swap2\n      sub\n      swap1\n      return\n        /* \"PrivateBridgeV2.sol\":250:270  USDCpV2 public usdcp */\n    tag_9:\n      tag_57\n      tag_58\n      jump\t// in\n    tag_57:\n      mload(0x40)\n      tag_59\n      swap2\n      swap1\n      tag_60\n      jump\t// in\n    tag_59:\n      mload(0x40)\n      dup1\n      swap2\n      sub\n      swap1\n      return\n        /* \"PrivateBridgeV2.sol\":5629:5992  function markWithdrawProcessed(bytes32 withdrawId) external onlyOperator {... */\n    tag_10:\n      tag_61\n      0x04\n      dup1\n      calldatasize\n      sub\n      dup2\n      add\n      swap1\n      tag_62\n      swap2\n      swap1\n      tag_34\n      jump\t// in\n    tag_62:\n      tag_63\n      jump\t// in\n    tag_61:\n      stop\n        /* \"PrivateBridgeV2.sol\":335:353  bool public paused */\n    tag_11:\n      tag_64\n      tag_65\n      jump\t// in\n    tag_64:\n      mload(0x40)\n      tag_66\n      swap2\n      swap1\n      tag_43\n      jump\t// in\n    tag_66:\n      mload(0x40)\n      dup1\n      swap2\n      sub\n      swap1\n      return\n        /* \"PrivateBridgeV2.sol\":749:780  uint256 public minDepositAmount */\n    tag_12:\n      tag_67\n      tag_68\n      jump\t// in\n    tag_67:\n      mload(0x40)\n      tag_69\n      swap2\n      swap1\n      tag_56\n      jump\t// in\n    tag_69:\n      mload(0x40)\n      dup1\n      swap2\n      sub\n      swap1\n      return\n        /* \"PrivateBridgeV2.sol\":3213:4053  function processDeposit(... */\n    tag_13:\n      tag_70\n      0x04\n      dup1\n      calldatasize\n      sub\n      dup2\n      add\n      swap1\n      tag_71\n      swap2\n      swap1\n      tag_72\n      jump\t// in\n    tag_71:\n      tag_73\n      jump\t// in\n    tag_70:\n      stop\n        /* \"PrivateBridgeV2.sol\":7347:7595  function acceptOwnership() external {... */\n    tag_14:\n      tag_74\n      tag_75\n      jump\t// in\n    tag_74:\n      stop\n        /* \"PrivateBridgeV2.sol\":8405:8504  function pause() external onlyOwner {... */\n    tag_15:\n      tag_76\n      tag_77\n      jump\t// in\n    tag_76:\n      stop\n        /* \"PrivateBridgeV2.sol\":276:296  address public owner */\n    tag_16:\n      tag_78\n      tag_79\n      jump\t// in\n    tag_78:\n      mload(0x40)\n      tag_80\n      swap2\n      swap1\n      tag_81\n      jump\t// in\n    tag_80:\n      mload(0x40)\n      dup1\n      swap2\n      sub\n      swap1\n      return\n        /* \"PrivateBridgeV2.sol\":786:817  uint256 public maxDepositAmount */\n    tag_17:\n      tag_82\n      tag_83\n      jump\t// in\n    tag_82:\n      mload(0x40)\n      tag_84\n      swap2\n      swap1\n      tag_56\n      jump\t// in\n    tag_84:\n      mload(0x40)\n      dup1\n      swap2\n      sub\n      swap1\n      return\n        /* \"PrivateBridgeV2.sol\":6618:6893  function addOperator(address operator) external onlyOwner {... */\n    tag_18:\n      tag_85\n      0x04\n      dup1\n      calldatasize\n      sub\n      dup2\n      add\n      swap1\n      tag_86\n      swap2\n      swap1\n      tag_40\n      jump\t// in\n    tag_86:\n      tag_87\n      jump\t// in\n    tag_85:\n      stop\n        /* \"PrivateBridgeV2.sol\":7823:8399  function setLimits(... */\n    tag_19:\n      tag_88\n      0x04\n      dup1\n      calldatasize\n      sub\n      dup2\n      add\n      swap1\n      tag_89\n      swap2\n      swap1\n      tag_90\n      jump\t// in\n    tag_89:\n      tag_91\n      jump\t// in\n    tag_88:\n      stop\n        /* \"PrivateBridgeV2.sol\":6899:7109  function removeOperator(address operator) external onlyOwner {... */\n    tag_20:\n      tag_92\n      0x04\n      dup1\n      calldatasize\n      sub\n      dup2\n      add\n      swap1\n      tag_93\n      swap2\n      swap1\n      tag_40\n      jump\t// in\n    tag_93:\n      tag_94\n      jump\t// in\n    tag_92:\n      stop\n        /* \"PrivateBridgeV2.sol\":671:699  uint256 public withdrawNonce */\n    tag_21:\n      tag_95\n      tag_96\n      jump\t// in\n    tag_95:\n      mload(0x40)\n      tag_97\n      swap2\n      swap1\n      tag_56\n      jump\t// in\n    tag_97:\n      mload(0x40)\n      dup1\n      swap2\n      sub\n      swap1\n      return\n        /* \"PrivateBridgeV2.sol\":4263:5499  function requestWithdraw(... */\n    tag_22:\n      tag_98\n      0x04\n      dup1\n      calldatasize\n      sub\n      dup2\n      add\n      swap1\n      tag_99\n      swap2\n      swap1\n      tag_100\n      jump\t// in\n    tag_99:\n      tag_101\n      jump\t// in\n    tag_98:\n      stop\n        /* \"PrivateBridgeV2.sol\":6434:6562  function isDepositProcessed(bytes32 depositId) external view returns (bool) {... */\n    tag_23:\n      tag_102\n      0x04\n      dup1\n      calldatasize\n      sub\n      dup2\n      add\n      swap1\n      tag_103\n      swap2\n      swap1\n      tag_34\n      jump\t// in\n    tag_103:\n      tag_104\n      jump\t// in\n    tag_102:\n      mload(0x40)\n      tag_105\n      swap2\n      swap1\n      tag_43\n      jump\t// in\n    tag_105:\n      mload(0x40)\n      dup1\n      swap2\n      sub\n      swap1\n      return\n        /* \"PrivateBridgeV2.sol\":302:329  address public pendingOwner */\n    tag_24:\n      tag_106\n      tag_107\n      jump\t// in\n    tag_106:\n      mload(0x40)\n      tag_108\n      swap2\n      swap1\n      tag_81\n      jump\t// in\n    tag_108:\n      mload(0x40)\n      dup1\n      swap2\n      sub\n      swap1\n      return\n        /* \"PrivateBridgeV2.sol\":6047:6428  function getWithdrawRequest(bytes32 withdrawId) external view returns (... */\n    tag_25:\n      tag_109\n      0x04\n      dup1\n      calldatasize\n      sub\n      dup2\n      add\n      swap1\n      tag_110\n      swap2\n      swap1\n      tag_34\n      jump\t// in\n    tag_110:\n      tag_111\n      jump\t// in\n    tag_109:\n      mload(0x40)\n      tag_112\n      swap6\n      swap5\n      swap4\n      swap3\n      swap2\n      swap1\n      tag_37\n      jump\t// in\n    tag_112:\n      mload(0x40)\n      dup1\n      swap2\n      sub\n      swap1\n      return\n        /* \"PrivateBridgeV2.sol\":7115:7341  function transferOwnership(address newOwner) external onlyOwner {... */\n    tag_26:\n      tag_113\n      0x04\n      dup1\n      calldatasize\n      sub\n      dup2\n      add\n      swap1\n      tag_114\n      swap2\n      swap1\n      tag_40\n      jump\t// in\n    tag_114:\n      tag_115\n      jump\t// in\n    tag_113:\n      stop\n        /* \"PrivateBridgeV2.sol\":861:893  uint256 public maxWithdrawAmount */\n    tag_27:\n      tag_116\n      tag_117\n      jump\t// in\n    tag_116:\n      mload(0x40)\n      tag_118\n      swap2\n      swap1\n      tag_56\n      jump\t// in\n    tag_118:\n      mload(0x40)\n      dup1\n      swap2\n      sub\n      swap1\n      return\n        /* \"PrivateBridgeV2.sol\":606:665  mapping(bytes32 => WithdrawRequest) public withdrawRequests */\n    tag_35:\n      mstore(0x20, 0x05)\n      dup1\n      0x00\n      mstore\n      keccak256(0x00, 0x40)\n      0x00\n      swap2\n      pop\n      swap1\n      pop\n      dup1\n      0x00\n      add\n      0x00\n      swap1\n      sload\n      swap1\n      0x0100\n      exp\n      swap1\n      div\n      0xffffffffffffffffffffffffffffffffffffffff\n      and\n      swap1\n      dup1\n      0x01\n      add\n      sload\n      swap1\n      dup1\n      0x02\n      add\n      0x00\n      swap1\n      sload\n      swap1\n      0x0100\n      exp\n      swap1\n      div\n      0xffffffffffffffffffffffffffffffffffffffff\n      and\n      swap1\n      dup1\n      0x03\n      add\n      sload\n      swap1\n      dup1\n      0x04\n      add\n      0x00\n      swap1\n      sload\n      swap1\n      0x0100\n      exp\n      swap1\n      div\n      0xff\n      and\n      swap1\n      pop\n      dup6\n      jump\t// out\n        /* \"PrivateBridgeV2.sol\":411:452  mapping(address => bool) public operators */\n    tag_41:\n      mstore(0x20, 0x03)\n      dup1\n      0x00\n      mstore\n      keccak256(0x00, 0x40)\n      0x00\n      swap2\n      pop\n      sload\n      swap1\n      0x0100\n      exp\n      swap1\n      div\n      0xff\n      and\n      dup2\n      jump\t// out\n        /* \"PrivateBridgeV2.sol\":7601:7817  function setUSDCp(address _usdcp) external onlyOwner {... */\n    tag_46:\n        /* \"PrivateBridgeV2.sol\":2063:2068  owner */\n      0x01\n      0x00\n      swap1\n      sload\n      swap1\n      0x0100\n      exp\n      swap1\n      div\n      0xffffffffffffffffffffffffffffffffffffffff\n      and\n        /* \"PrivateBridgeV2.sol\":2049:2068  msg.sender == owner */\n      0xffffffffffffffffffffffffffffffffffffffff\n      and\n        /* \"PrivateBridgeV2.sol\":2049:2059  msg.sender */\n      caller\n        /* \"PrivateBridgeV2.sol\":2049:2068  msg.sender == owner */\n      0xffffffffffffffffffffffffffffffffffffffff\n      and\n      eq\n        /* \"PrivateBridgeV2.sol\":2041:2100  require(msg.sender == owner, \"Bridge: caller is not owner\") */\n      tag_120\n      jumpi\n      mload(0x40)\n      0x08c379a000000000000000000000000000000000000000000000000000000000\n      dup2\n      mstore\n      0x04\n      add\n      tag_121\n      swap1\n      tag_122\n      jump\t// in\n    tag_121:\n      mload(0x40)\n      dup1\n      swap2\n      sub\n      swap1\n      revert\n    tag_120:\n        /* \"PrivateBridgeV2.sol\":7690:7691  0 */\n      0x00\n        /* \"PrivateBridgeV2.sol\":7672:7692  _usdcp != address(0) */\n      0xffffffffffffffffffffffffffffffffffffffff\n      and\n        /* \"PrivateBridgeV2.sol\":7672:7678  _usdcp */\n      dup2\n        /* \"PrivateBridgeV2.sol\":7672:7692  _usdcp != address(0) */\n      0xffffffffffffffffffffffffffffffffffffffff\n      and\n      eq\n      iszero\n        /* \"PrivateBridgeV2.sol\":7664:7726  require(_usdcp != address(0), \"Bridge: invalid usdcp address\") */\n      tag_124\n      jumpi\n      mload(0x40)\n      0x08c379a000000000000000000000000000000000000000000000000000000000\n      dup2\n      mstore\n      0x04\n      add\n      tag_125\n      swap1\n      tag_126\n      jump\t// in\n    tag_125:\n      mload(0x40)\n      dup1\n      swap2\n      sub\n      swap1\n      revert\n    tag_124:\n        /* \"PrivateBridgeV2.sol\":7770:7776  _usdcp */\n      dup1\n        /* \"PrivateBridgeV2.sol\":7741:7777  USDCpUpdated(address(usdcp), _usdcp) */\n      0xffffffffffffffffffffffffffffffffffffffff\n      and\n        /* \"PrivateBridgeV2.sol\":7762:7767  usdcp */\n      0x00\n      dup1\n      sload\n      swap1\n      0x0100\n      exp\n      swap1\n      div\n      0xffffffffffffffffffffffffffffffffffffffff\n      and\n        /* \"PrivateBridgeV2.sol\":7741:7777  USDCpUpdated(address(usdcp), _usdcp) */\n      0xffffffffffffffffffffffffffffffffffffffff\n      and\n      0x9f4029743e25b0c4c4c13f0030d164255396c070582b48d23a96fc904cb26529\n      mload(0x40)\n      mload(0x40)\n      dup1\n      swap2\n      sub\n      swap1\n      log3\n        /* \"PrivateBridgeV2.sol\":7803:7809  _usdcp */\n      dup1\n        /* \"PrivateBridgeV2.sol\":7787:7792  usdcp */\n      0x00\n      dup1\n        /* \"PrivateBridgeV2.sol\":7787:7810  usdcp = USDCpV2(_usdcp) */\n      0x0100\n      exp\n      dup2\n      sload\n      dup2\n      0xffffffffffffffffffffffffffffffffffffffff\n      mul\n      not\n      and\n      swap1\n      dup4\n      0xffffffffffffffffffffffffffffffffffffffff\n      and\n      mul\n      or\n      swap1\n      sstore\n      pop\n        /* \"PrivateBridgeV2.sol\":7601:7817  function setUSDCp(address _usdcp) external onlyOwner {... */\n      pop\n      jump\t// out\n        /* \"PrivateBridgeV2.sol\":8510:8614  function unpause() external onlyOwner {... */\n    tag_48:\n        /* \"PrivateBridgeV2.sol\":2063:2068  owner */\n      0x01\n      0x00\n      swap1\n      sload\n      swap1\n      0x0100\n      exp\n      swap1\n      div\n      0xffffffffffffffffffffffffffffffffffffffff\n      and\n        /* \"PrivateBridgeV2.sol\":2049:2068  msg.sender == owner */\n      0xffffffffffffffffffffffffffffffffffffffff\n      and\n        /* \"PrivateBridgeV2.sol\":2049:2059  msg.sender */\n      caller\n        /* \"PrivateBridgeV2.sol\":2049:2068  msg.sender == owner */\n      0xffffffffffffffffffffffffffffffffffffffff\n      and\n      eq\n        /* \"PrivateBridgeV2.sol\":2041:2100  require(msg.sender == owner, \"Bridge: caller is not owner\") */\n      tag_128\n      jumpi\n      mload(0x40)\n      0x08c379a000000000000000000000000000000000000000000000000000000000\n      dup2\n      mstore\n      0x04\n      add\n      tag_129\n      swap1\n      tag_122\n      jump\t// in\n    tag_129:\n      mload(0x40)\n      dup1\n      swap2\n      sub\n      swap1\n      revert\n    tag_128:\n        /* \"PrivateBridgeV2.sol\":8567:8572  false */\n      0x00\n        /* \"PrivateBridgeV2.sol\":8558:8564  paused */\n      0x02\n      0x14\n        /* \"PrivateBridgeV2.sol\":8558:8572  paused = false */\n      0x0100\n      exp\n      dup2\n      sload\n      dup2\n      0xff\n      mul\n      not\n      and\n      swap1\n      dup4\n      iszero\n      iszero\n      mul\n      or\n      swap1\n      sstore\n      pop\n        /* \"PrivateBridgeV2.sol\":8587:8607  Unpaused(msg.sender) */\n      0x5db9ee0a495bf2e6ff9c91a7834c1ba4fdd244a5e8aa4e537bd38aeae4b073aa\n        /* \"PrivateBridgeV2.sol\":8596:8606  msg.sender */\n      caller\n        /* \"PrivateBridgeV2.sol\":8587:8607  Unpaused(msg.sender) */\n      mload(0x40)\n      tag_131\n      swap2\n      swap1\n      tag_81\n      jump\t// in\n    tag_131:\n      mload(0x40)\n      dup1\n      swap2\n      sub\n      swap1\n      log1\n        /* \"PrivateBridgeV2.sol\":8510:8614  function unpause() external onlyOwner {... */\n      jump\t// out\n        /* \"PrivateBridgeV2.sol\":517:566  mapping(bytes32 => bool) public processedDeposits */\n    tag_51:\n      mstore(0x20, 0x04)\n      dup1\n      0x00\n      mstore\n      keccak256(0x00, 0x40)\n      0x00\n      swap2\n      pop\n      sload\n      swap1\n      0x0100\n      exp\n      swap1\n      div\n      0xff\n      and\n      dup2\n      jump\t// out\n        /* \"PrivateBridgeV2.sol\":823:855  uint256 public minWithdrawAmount */\n    tag_54:\n      sload(0x09)\n      dup2\n      jump\t// out\n        /* \"PrivateBridgeV2.sol\":250:270  USDCpV2 public usdcp */\n    tag_58:\n      0x00\n      dup1\n      sload\n      swap1\n      0x0100\n      exp\n      swap1\n      div\n      0xffffffffffffffffffffffffffffffffffffffff\n      and\n      dup2\n      jump\t// out\n        /* \"PrivateBridgeV2.sol\":5629:5992  function markWithdrawProcessed(bytes32 withdrawId) external onlyOperator {... */\n    tag_63:\n        /* \"PrivateBridgeV2.sol\":2166:2175  operators */\n      0x03\n        /* \"PrivateBridgeV2.sol\":2166:2187  operators[msg.sender] */\n      0x00\n        /* \"PrivateBridgeV2.sol\":2176:2186  msg.sender */\n      caller\n        /* \"PrivateBridgeV2.sol\":2166:2187  operators[msg.sender] */\n      0xffffffffffffffffffffffffffffffffffffffff\n      and\n      0xffffffffffffffffffffffffffffffffffffffff\n      and\n      dup2\n      mstore\n      0x20\n      add\n      swap1\n      dup2\n      mstore\n      0x20\n      add\n      0x00\n      keccak256\n      0x00\n      swap1\n      sload\n      swap1\n      0x0100\n      exp\n      swap1\n      div\n      0xff\n      and\n        /* \"PrivateBridgeV2.sol\":2158:2222  require(operators[msg.sender], \"Bridge: caller is not operator\") */\n      tag_133\n      jumpi\n      mload(0x40)\n      0x08c379a000000000000000000000000000000000000000000000000000000000\n      dup2\n      mstore\n      0x04\n      add\n      tag_134\n      swap1\n      tag_135\n      jump\t// in\n    tag_134:\n      mload(0x40)\n      dup1\n      swap2\n      sub\n      swap1\n      revert\n    tag_133:\n        /* \"PrivateBridgeV2.sol\":5765:5766  0 */\n      0x00\n        /* \"PrivateBridgeV2.sol\":5720:5767  withdrawRequests[withdrawId].from != address(0) */\n      0xffffffffffffffffffffffffffffffffffffffff\n      and\n        /* \"PrivateBridgeV2.sol\":5720:5736  withdrawRequests */\n      0x05\n        /* \"PrivateBridgeV2.sol\":5720:5748  withdrawRequests[withdrawId] */\n      0x00\n        /* \"PrivateBridgeV2.sol\":5737:5747  withdrawId */\n      dup4\n        /* \"PrivateBridgeV2.sol\":5720:5748  withdrawRequests[withdrawId] */\n      dup2\n      mstore\n      0x20\n      add\n      swap1\n      dup2\n      mstore\n      0x20\n      add\n      0x00\n      keccak256\n        /* \"PrivateBridgeV2.sol\":5720:5753  withdrawRequests[withdrawId].from */\n      0x00\n      add\n      0x00\n      swap1\n      sload\n      swap1\n      0x0100\n      exp\n      swap1\n      div\n      0xffffffffffffffffffffffffffffffffffffffff\n      and\n        /* \"PrivateBridgeV2.sol\":5720:5767  withdrawRequests[withdrawId].from != address(0) */\n      0xffffffffffffffffffffffffffffffffffffffff\n      and\n      eq\n      iszero\n        /* \"PrivateBridgeV2.sol\":5712:5798  require(withdrawRequests[withdrawId].from != address(0), \"Bridge: withdraw not found\") */\n      tag_137\n      jumpi\n      mload(0x40)\n      0x08c379a000000000000000000000000000000000000000000000000000000000\n      dup2\n      mstore\n      0x04\n      add\n      tag_138\n      swap1\n      tag_139\n      jump\t// in\n    tag_138:\n      mload(0x40)\n      dup1\n      swap2\n      sub\n      swap1\n      revert\n    tag_137:\n        /* \"PrivateBridgeV2.sol\":5817:5833  withdrawRequests */\n      0x05\n        /* \"PrivateBridgeV2.sol\":5817:5845  withdrawRequests[withdrawId] */\n      0x00\n        /* \"PrivateBridgeV2.sol\":5834:5844  withdrawId */\n      dup3\n        /* \"PrivateBridgeV2.sol\":5817:5845  withdrawRequests[withdrawId] */\n      dup2\n      mstore\n      0x20\n      add\n      swap1\n      dup2\n      mstore\n      0x20\n      add\n      0x00\n      keccak256\n        /* \"PrivateBridgeV2.sol\":5817:5855  withdrawRequests[withdrawId].processed */\n      0x04\n      add\n      0x00\n      swap1\n      sload\n      swap1\n      0x0100\n      exp\n      swap1\n      div\n      0xff\n      and\n        /* \"PrivateBridgeV2.sol\":5816:5855  !withdrawRequests[withdrawId].processed */\n      iszero\n        /* \"PrivateBridgeV2.sol\":5808:5885  require(!withdrawRequests[withdrawId].processed, \"Bridge: already processed\") */\n      tag_140\n      jumpi\n      mload(0x40)\n      0x08c379a000000000000000000000000000000000000000000000000000000000\n      dup2\n      mstore\n      0x04\n      add\n      tag_141\n      swap1\n      tag_142\n      jump\t// in\n    tag_141:\n      mload(0x40)\n      dup1\n      swap2\n      sub\n      swap1\n      revert\n    tag_140:\n        /* \"PrivateBridgeV2.sol\":5937:5941  true */\n      0x01\n        /* \"PrivateBridgeV2.sol\":5896:5912  withdrawRequests */\n      0x05\n        /* \"PrivateBridgeV2.sol\":5896:5924  withdrawRequests[withdrawId] */\n      0x00\n        /* \"PrivateBridgeV2.sol\":5913:5923  withdrawId */\n      dup4\n        /* \"PrivateBridgeV2.sol\":5896:5924  withdrawRequests[withdrawId] */\n      dup2\n      mstore\n      0x20\n      add\n      swap1\n      dup2\n      mstore\n      0x20\n      add\n      0x00\n      keccak256\n        /* \"PrivateBridgeV2.sol\":5896:5934  withdrawRequests[withdrawId].processed */\n      0x04\n      add\n      0x00\n        /* \"PrivateBridgeV2.sol\":5896:5941  withdrawRequests[withdrawId].processed = true */\n      0x0100\n      exp\n      dup2\n      sload\n      dup2\n      0xff\n      mul\n      not\n      and\n      swap1\n      dup4\n      iszero\n      iszero\n      mul\n      or\n      swap1\n      sstore\n      pop\n        /* \"PrivateBridgeV2.sol\":5974:5984  withdrawId */\n      dup1\n        /* \"PrivateBridgeV2.sol\":5956:5985  WithdrawProcessed(withdrawId) */\n      0x82459f84b3ecf0308611b420b9d42c054f0dbfb50d04c13a22d0804f582f6497\n      mload(0x40)\n      mload(0x40)\n      dup1\n      swap2\n      sub\n      swap1\n      log2\n        /* \"PrivateBridgeV2.sol\":5629:5992  function markWithdrawProcessed(bytes32 withdrawId) external onlyOperator {... */\n      pop\n      jump\t// out\n        /* \"PrivateBridgeV2.sol\":335:353  bool public paused */\n    tag_65:\n      0x02\n      0x14\n      swap1\n      sload\n      swap1\n      0x0100\n      exp\n      swap1\n      div\n      0xff\n      and\n      dup2\n      jump\t// out\n        /* \"PrivateBridgeV2.sol\":749:780  uint256 public minDepositAmount */\n    tag_68:\n      sload(0x07)\n      dup2\n      jump\t// out\n        /* \"PrivateBridgeV2.sol\":3213:4053  function processDeposit(... */\n    tag_73:\n        /* \"PrivateBridgeV2.sol\":2166:2175  operators */\n      0x03\n        /* \"PrivateBridgeV2.sol\":2166:2187  operators[msg.sender] */\n      0x00\n        /* \"PrivateBridgeV2.sol\":2176:2186  msg.sender */\n      caller\n        /* \"PrivateBridgeV2.sol\":2166:2187  operators[msg.sender] */\n      0xffffffffffffffffffffffffffffffffffffffff\n      and\n      0xffffffffffffffffffffffffffffffffffffffff\n      and\n      dup2\n      mstore\n      0x20\n      add\n      swap1\n      dup2\n      mstore\n      0x20\n      add\n      0x00\n      keccak256\n      0x00\n      swap1\n      sload\n      swap1\n      0x0100\n      exp\n      swap1\n      div\n      0xff\n      and\n        /* \"PrivateBridgeV2.sol\":2158:2222  require(operators[msg.sender], \"Bridge: caller is not operator\") */\n      tag_144\n      jumpi\n      mload(0x40)\n      0x08c379a000000000000000000000000000000000000000000000000000000000\n      dup2\n      mstore\n      0x04\n      add\n      tag_145\n      swap1\n      tag_135\n      jump\t// in\n    tag_145:\n      mload(0x40)\n      dup1\n      swap2\n      sub\n      swap1\n      revert\n    tag_144:\n        /* \"PrivateBridgeV2.sol\":2290:2296  paused */\n      0x02\n      0x14\n      swap1\n      sload\n      swap1\n      0x0100\n      exp\n      swap1\n      div\n      0xff\n      and\n        /* \"PrivateBridgeV2.sol\":2289:2296  !paused */\n      iszero\n        /* \"PrivateBridgeV2.sol\":2281:2315  require(!paused, \"Bridge: paused\") */\n      tag_147\n      jumpi\n      mload(0x40)\n      0x08c379a000000000000000000000000000000000000000000000000000000000\n      dup2\n      mstore\n      0x04\n      add\n      tag_148\n      swap1\n      tag_149\n      jump\t// in\n    tag_148:\n      mload(0x40)\n      dup1\n      swap2\n      sub\n      swap1\n      revert\n    tag_147:\n        /* \"PrivateBridgeV2.sol\":3404:3405  0 */\n      0x00\n        /* \"PrivateBridgeV2.sol\":3383:3406  recipient != address(0) */\n      0xffffffffffffffffffffffffffffffffffffffff\n      and\n        /* \"PrivateBridgeV2.sol\":3383:3392  recipient */\n      dup4\n        /* \"PrivateBridgeV2.sol\":3383:3406  recipient != address(0) */\n      0xffffffffffffffffffffffffffffffffffffffff\n      and\n      eq\n      iszero\n        /* \"PrivateBridgeV2.sol\":3375:3436  require(recipient != address(0), \"Bridge: invalid recipient\") */\n      tag_151\n      jumpi\n      mload(0x40)\n      0x08c379a000000000000000000000000000000000000000000000000000000000\n      dup2\n      mstore\n      0x04\n      add\n      tag_152\n      swap1\n      tag_153\n      jump\t// in\n    tag_152:\n      mload(0x40)\n      dup1\n      swap2\n      sub\n      swap1\n      revert\n    tag_151:\n        /* \"PrivateBridgeV2.sol\":3464:3480  minDepositAmount */\n      sload(0x07)\n        /* \"PrivateBridgeV2.sol\":3454:3460  amount */\n      dup3\n        /* \"PrivateBridgeV2.sol\":3454:3480  amount >= minDepositAmount */\n      lt\n      iszero\n        /* \"PrivateBridgeV2.sol\":3446:3513  require(amount >= minDepositAmount, \"Bridge: amount below minimum\") */\n      tag_154\n      jumpi\n      mload(0x40)\n      0x08c379a000000000000000000000000000000000000000000000000000000000\n      dup2\n      mstore\n      0x04\n      add\n      tag_155\n      swap1\n      tag_156\n      jump\t// in\n    tag_155:\n      mload(0x40)\n      dup1\n      swap2\n      sub\n      swap1\n      revert\n    tag_154:\n        /* \"PrivateBridgeV2.sol\":3541:3557  maxDepositAmount */\n      sload(0x08)\n        /* \"PrivateBridgeV2.sol\":3531:3537  amount */\n      dup3\n        /* \"PrivateBridgeV2.sol\":3531:3557  amount <= maxDepositAmount */\n      gt\n      iszero\n        /* \"PrivateBridgeV2.sol\":3523:3590  require(amount <= maxDepositAmount, \"Bridge: amount above maximum\") */\n      tag_157\n      jumpi\n      mload(0x40)\n      0x08c379a000000000000000000000000000000000000000000000000000000000\n      dup2\n      mstore\n      0x04\n      add\n      tag_158\n      swap1\n      tag_159\n      jump\t// in\n    tag_158:\n      mload(0x40)\n      dup1\n      swap2\n      sub\n      swap1\n      revert\n    tag_157:\n        /* \"PrivateBridgeV2.sol\":3663:3680  bytes32 depositId */\n      0x00\n        /* \"PrivateBridgeV2.sol\":3710:3727  publicChainTxHash */\n      dup2\n        /* \"PrivateBridgeV2.sol\":3729:3738  recipient */\n      dup5\n        /* \"PrivateBridgeV2.sol\":3740:3746  amount */\n      dup5\n        /* \"PrivateBridgeV2.sol\":3693:3747  abi.encodePacked(publicChainTxHash, recipient, amount) */\n      add(0x20, mload(0x40))\n      tag_160\n      swap4\n      swap3\n      swap2\n      swap1\n      tag_161\n      jump\t// in\n    tag_160:\n      mload(0x40)\n      0x20\n      dup2\n      dup4\n      sub\n      sub\n      dup2\n      mstore\n      swap1\n      0x40\n      mstore\n        /* \"PrivateBridgeV2.sol\":3683:3748  keccak256(abi.encodePacked(publicChainTxHash, recipient, amount)) */\n      dup1\n      mload\n      swap1\n      0x20\n      add\n      keccak256\n        /* \"PrivateBridgeV2.sol\":3663:3748  bytes32 depositId = keccak256(abi.encodePacked(publicChainTxHash, recipient, amount)) */\n      swap1\n      pop\n        /* \"PrivateBridgeV2.sol\":3768:3785  processedDeposits */\n      0x04\n        /* \"PrivateBridgeV2.sol\":3768:3796  processedDeposits[depositId] */\n      0x00\n        /* \"PrivateBridgeV2.sol\":3786:3795  depositId */\n      dup3\n        /* \"PrivateBridgeV2.sol\":3768:3796  processedDeposits[depositId] */\n      dup2\n      mstore\n      0x20\n      add\n      swap1\n      dup2\n      mstore\n      0x20\n      add\n      0x00\n      keccak256\n      0x00\n      swap1\n      sload\n      swap1\n      0x0100\n      exp\n      swap1\n      div\n      0xff\n      and\n        /* \"PrivateBridgeV2.sol\":3767:3796  !processedDeposits[depositId] */\n      iszero\n        /* \"PrivateBridgeV2.sol\":3759:3834  require(!processedDeposits[depositId], \"Bridge: deposit already processed\") */\n      tag_162\n      jumpi\n      mload(0x40)\n      0x08c379a000000000000000000000000000000000000000000000000000000000\n      dup2\n      mstore\n      0x04\n      add\n      tag_163\n      swap1\n      tag_164\n      jump\t// in\n    tag_163:\n      mload(0x40)\n      dup1\n      swap2\n      sub\n      swap1\n      revert\n    tag_162:\n        /* \"PrivateBridgeV2.sol\":3875:3879  true */\n      0x01\n        /* \"PrivateBridgeV2.sol\":3844:3861  processedDeposits */\n      0x04\n        /* \"PrivateBridgeV2.sol\":3844:3872  processedDeposits[depositId] */\n      0x00\n        /* \"PrivateBridgeV2.sol\":3862:3871  depositId */\n      dup4\n        /* \"PrivateBridgeV2.sol\":3844:3872  processedDeposits[depositId] */\n      dup2\n      mstore\n      0x20\n      add\n      swap1\n      dup2\n      mstore\n      0x20\n      add\n      0x00\n      keccak256\n      0x00\n        /* \"PrivateBridgeV2.sol\":3844:3879  processedDeposits[depositId] = true */\n      0x0100\n      exp\n      dup2\n      sload\n      dup2\n      0xff\n      mul\n      not\n      and\n      swap1\n      dup4\n      iszero\n      iszero\n      mul\n      or\n      swap1\n      sstore\n      pop\n        /* \"PrivateBridgeV2.sol\":3925:3930  usdcp */\n      0x00\n      dup1\n      sload\n      swap1\n      0x0100\n      exp\n      swap1\n      div\n      0xffffffffffffffffffffffffffffffffffffffff\n      and\n        /* \"PrivateBridgeV2.sol\":3925:3935  usdcp.mint */\n      0xffffffffffffffffffffffffffffffffffffffff\n      and\n      0x1e458bee\n        /* \"PrivateBridgeV2.sol\":3936:3945  recipient */\n      dup6\n        /* \"PrivateBridgeV2.sol\":3947:3953  amount */\n      dup6\n        /* \"PrivateBridgeV2.sol\":3955:3964  depositId */\n      dup5\n        /* \"PrivateBridgeV2.sol\":3925:3965  usdcp.mint(recipient, amount, depositId) */\n      mload(0x40)\n      dup5\n      0xffffffff\n      and\n      0xe0\n      shl\n      dup2\n      mstore\n      0x04\n      add\n      tag_165\n      swap4\n      swap3\n      swap2\n      swap1\n      tag_166\n      jump\t// in\n    tag_165:\n      0x00\n      mload(0x40)\n      dup1\n      dup4\n      sub\n      dup2\n      0x00\n      dup8\n      dup1\n      extcodesize\n      iszero\n      dup1\n      iszero\n      tag_167\n      jumpi\n      0x00\n      dup1\n      revert\n    tag_167:\n      pop\n      gas\n      call\n      iszero\n      dup1\n      iszero\n      tag_169\n      jumpi\n      returndatasize\n      0x00\n      dup1\n      returndatacopy\n      revert(0x00, returndatasize)\n    tag_169:\n      pop\n      pop\n      pop\n      pop\n        /* \"PrivateBridgeV2.sol\":4009:4018  recipient */\n      dup4\n        /* \"PrivateBridgeV2.sol\":3981:4046  DepositProcessed(depositId, recipient, amount, publicChainTxHash) */\n      0xffffffffffffffffffffffffffffffffffffffff\n      and\n        /* \"PrivateBridgeV2.sol\":3998:4007  depositId */\n      dup2\n        /* \"PrivateBridgeV2.sol\":3981:4046  DepositProcessed(depositId, recipient, amount, publicChainTxHash) */\n      0xbc4baef869a8d9fffec842f183b4c4bf035ed3ea57f299e957c46f198a63f046\n        /* \"PrivateBridgeV2.sol\":4020:4026  amount */\n      dup6\n        /* \"PrivateBridgeV2.sol\":4028:4045  publicChainTxHash */\n      dup6\n        /* \"PrivateBridgeV2.sol\":3981:4046  DepositProcessed(depositId, recipient, amount, publicChainTxHash) */\n      mload(0x40)\n      tag_170\n      swap3\n      swap2\n      swap1\n      tag_171\n      jump\t// in\n    tag_170:\n      mload(0x40)\n      dup1\n      swap2\n      sub\n      swap1\n      log3\n        /* \"PrivateBridgeV2.sol\":3365:4053  {... */\n      pop\n        /* \"PrivateBridgeV2.sol\":3213:4053  function processDeposit(... */\n      pop\n      pop\n      pop\n      jump\t// out\n        /* \"PrivateBridgeV2.sol\":7347:7595  function acceptOwnership() external {... */\n    tag_75:\n        /* \"PrivateBridgeV2.sol\":7415:7427  pendingOwner */\n      0x02\n      0x00\n      swap1\n      sload\n      swap1\n      0x0100\n      exp\n      swap1\n      div\n      0xffffffffffffffffffffffffffffffffffffffff\n      and\n        /* \"PrivateBridgeV2.sol\":7401:7427  msg.sender == pendingOwner */\n      0xffffffffffffffffffffffffffffffffffffffff\n      and\n        /* \"PrivateBridgeV2.sol\":7401:7411  msg.sender */\n      caller\n        /* \"PrivateBridgeV2.sol\":7401:7427  msg.sender == pendingOwner */\n      0xffffffffffffffffffffffffffffffffffffffff\n      and\n      eq\n        /* \"PrivateBridgeV2.sol\":7393:7467  require(msg.sender == pendingOwner, \"Bridge: caller is not pending owner\") */\n      tag_173\n      jumpi\n      mload(0x40)\n      0x08c379a000000000000000000000000000000000000000000000000000000000\n      dup2\n      mstore\n      0x04\n      add\n      tag_174\n      swap1\n      tag_175\n      jump\t// in\n    tag_174:\n      mload(0x40)\n      dup1\n      swap2\n      sub\n      swap1\n      revert\n    tag_173:\n        /* \"PrivateBridgeV2.sol\":7510:7522  pendingOwner */\n      0x02\n      0x00\n      swap1\n      sload\n      swap1\n      0x0100\n      exp\n      swap1\n      div\n      0xffffffffffffffffffffffffffffffffffffffff\n      and\n        /* \"PrivateBridgeV2.sol\":7482:7523  OwnershipTransferred(owner, pendingOwner) */\n      0xffffffffffffffffffffffffffffffffffffffff\n      and\n        /* \"PrivateBridgeV2.sol\":7503:7508  owner */\n      0x01\n      0x00\n      swap1\n      sload\n      swap1\n      0x0100\n      exp\n      swap1\n      div\n      0xffffffffffffffffffffffffffffffffffffffff\n      and\n        /* \"PrivateBridgeV2.sol\":7482:7523  OwnershipTransferred(owner, pendingOwner) */\n      0xffffffffffffffffffffffffffffffffffffffff\n      and\n      0x8be0079c531659141344cd1fd0a4f28419497f9722a3daafe3b4186f6b6457e0\n      mload(0x40)\n      mload(0x40)\n      dup1\n      swap2\n      sub\n      swap1\n      log3\n        /* \"PrivateBridgeV2.sol\":7541:7553  pendingOwner */\n      0x02\n      0x00\n      swap1\n      sload\n      swap1\n      0x0100\n      exp\n      swap1\n      div\n      0xffffffffffffffffffffffffffffffffffffffff\n      and\n        /* \"PrivateBridgeV2.sol\":7533:7538  owner */\n      0x01\n      0x00\n        /* \"PrivateBridgeV2.sol\":7533:7553  owner = pendingOwner */\n      0x0100\n      exp\n      dup2\n      sload\n      dup2\n      0xffffffffffffffffffffffffffffffffffffffff\n      mul\n      not\n      and\n      swap1\n      dup4\n      0xffffffffffffffffffffffffffffffffffffffff\n      and\n      mul\n      or\n      swap1\n      sstore\n      pop\n        /* \"PrivateBridgeV2.sol\":7586:7587  0 */\n      0x00\n        /* \"PrivateBridgeV2.sol\":7563:7575  pendingOwner */\n      0x02\n      0x00\n        /* \"PrivateBridgeV2.sol\":7563:7588  pendingOwner = address(0) */\n      0x0100\n      exp\n      dup2\n      sload\n      dup2\n      0xffffffffffffffffffffffffffffffffffffffff\n      mul\n      not\n      and\n      swap1\n      dup4\n      0xffffffffffffffffffffffffffffffffffffffff\n      and\n      mul\n      or\n      swap1\n      sstore\n      pop\n        /* \"PrivateBridgeV2.sol\":7347:7595  function acceptOwnership() external {... */\n      jump\t// out\n        /* \"PrivateBridgeV2.sol\":8405:8504  function pause() external onlyOwner {... */\n    tag_77:\n        /* \"PrivateBridgeV2.sol\":2063:2068  owner */\n      0x01\n      0x00\n      swap1\n      sload\n      swap1\n      0x0100\n      exp\n      swap1\n      div\n      0xffffffffffffffffffffffffffffffffffffffff\n      and\n        /* \"PrivateBridgeV2.sol\":2049:2068  msg.sender == owner */\n      0xffffffffffffffffffffffffffffffffffffffff\n      and\n        /* \"PrivateBridgeV2.sol\":2049:2059  msg.sender */\n      caller\n        /* \"PrivateBridgeV2.sol\":2049:2068  msg.sender == owner */\n      0xffffffffffffffffffffffffffffffffffffffff\n      and\n      eq\n        /* \"PrivateBridgeV2.sol\":2041:2100  require(msg.sender == owner, \"Bridge: caller is not owner\") */\n      tag_177\n      jumpi\n      mload(0x40)\n      0x08c379a000000000000000000000000000000000000000000000000000000000\n      dup2\n      mstore\n      0x04\n      add\n      tag_178\n      swap1\n      tag_122\n      jump\t// in\n    tag_178:\n      mload(0x40)\n      dup1\n      swap2\n      sub\n      swap1\n      revert\n    tag_177:\n        /* \"PrivateBridgeV2.sol\":8460:8464  true */\n      0x01\n        /* \"PrivateBridgeV2.sol\":8451:8457  paused */\n      0x02\n      0x14\n        /* \"PrivateBridgeV2.sol\":8451:8464  paused = true */\n      0x0100\n      exp\n      dup2\n      sload\n      dup2\n      0xff\n      mul\n      not\n      and\n      swap1\n      dup4\n      iszero\n      iszero\n      mul\n      or\n      swap1\n      sstore\n      pop\n        /* \"PrivateBridgeV2.sol\":8479:8497  Paused(msg.sender) */\n      0x62e78cea01bee320cd4e420270b5ea74000d11b0c9f74754ebdbfc544b05a258\n        /* \"PrivateBridgeV2.sol\":8486:8496  msg.sender */\n      caller\n        /* \"PrivateBridgeV2.sol\":8479:8497  Paused(msg.sender) */\n      mload(0x40)\n      tag_180\n      swap2\n      swap1\n      tag_81\n      jump\t// in\n    tag_180:\n      mload(0x40)\n      dup1\n      swap2\n      sub\n      swap1\n      log1\n        /* \"PrivateBridgeV2.sol\":8405:8504  function pause() external onlyOwner {... */\n      jump\t// out\n        /* \"PrivateBridgeV2.sol\":276:296  address public owner */\n    tag_79:\n      0x01\n      0x00\n      swap1\n      sload\n      swap1\n      0x0100\n      exp\n      swap1\n      div\n      0xffffffffffffffffffffffffffffffffffffffff\n      and\n      dup2\n      jump\t// out\n        /* \"PrivateBridgeV2.sol\":786:817  uint256 public maxDepositAmount */\n    tag_83:\n      sload(0x08)\n      dup2\n      jump\t// out\n        /* \"PrivateBridgeV2.sol\":6618:6893  function addOperator(address operator) external onlyOwner {... */\n    tag_87:\n        /* \"PrivateBridgeV2.sol\":2063:2068  owner */\n      0x01\n      0x00\n      swap1\n      sload\n      swap1\n      0x0100\n      exp\n      swap1\n      div\n      0xffffffffffffffffffffffffffffffffffffffff\n      and\n        /* \"PrivateBridgeV2.sol\":2049:2068  msg.sender == owner */\n      0xffffffffffffffffffffffffffffffffffffffff\n      and\n        /* \"PrivateBridgeV2.sol\":2049:2059  msg.sender */\n      caller\n        /* \"PrivateBridgeV2.sol\":2049:2068  msg.sender == owner */\n      0xffffffffffffffffffffffffffffffffffffffff\n      and\n      eq\n        /* \"PrivateBridgeV2.sol\":2041:2100  require(msg.sender == owner, \"Bridge: caller is not owner\") */\n      tag_182\n      jumpi\n      mload(0x40)\n      0x08c379a000000000000000000000000000000000000000000000000000000000\n      dup2\n      mstore\n      0x04\n      add\n      tag_183\n      swap1\n      tag_122\n      jump\t// in\n    tag_183:\n      mload(0x40)\n      dup1\n      swap2\n      sub\n      swap1\n      revert\n    tag_182:\n        /* \"PrivateBridgeV2.sol\":6714:6715  0 */\n      0x00\n        /* \"PrivateBridgeV2.sol\":6694:6716  operator != address(0) */\n      0xffffffffffffffffffffffffffffffffffffffff\n      and\n        /* \"PrivateBridgeV2.sol\":6694:6702  operator */\n      dup2\n        /* \"PrivateBridgeV2.sol\":6694:6716  operator != address(0) */\n      0xffffffffffffffffffffffffffffffffffffffff\n      and\n      eq\n      iszero\n        /* \"PrivateBridgeV2.sol\":6686:6745  require(operator != address(0), \"Bridge: invalid operator\") */\n      tag_185\n      jumpi\n      mload(0x40)\n      0x08c379a000000000000000000000000000000000000000000000000000000000\n      dup2\n      mstore\n      0x04\n      add\n      tag_186\n      swap1\n      tag_187\n      jump\t// in\n    tag_186:\n      mload(0x40)\n      dup1\n      swap2\n      sub\n      swap1\n      revert\n    tag_185:\n        /* \"PrivateBridgeV2.sol\":6764:6773  operators */\n      0x03\n        /* \"PrivateBridgeV2.sol\":6764:6783  operators[operator] */\n      0x00\n        /* \"PrivateBridgeV2.sol\":6774:6782  operator */\n      dup3\n        /* \"PrivateBridgeV2.sol\":6764:6783  operators[operator] */\n      0xffffffffffffffffffffffffffffffffffffffff\n      and\n      0xffffffffffffffffffffffffffffffffffffffff\n      and\n      dup2\n      mstore\n      0x20\n      add\n      swap1\n      dup2\n      mstore\n      0x20\n      add\n      0x00\n      keccak256\n      0x00\n      swap1\n      sload\n      swap1\n      0x0100\n      exp\n      swap1\n      div\n      0xff\n      and\n        /* \"PrivateBridgeV2.sol\":6763:6783  !operators[operator] */\n      iszero\n        /* \"PrivateBridgeV2.sol\":6755:6812  require(!operators[operator], \"Bridge: already operator\") */\n      tag_188\n      jumpi\n      mload(0x40)\n      0x08c379a000000000000000000000000000000000000000000000000000000000\n      dup2\n      mstore\n      0x04\n      add\n      tag_189\n      swap1\n      tag_190\n      jump\t// in\n    tag_189:\n      mload(0x40)\n      dup1\n      swap2\n      sub\n      swap1\n      revert\n    tag_188:\n        /* \"PrivateBridgeV2.sol\":6844:6848  true */\n      0x01\n        /* \"PrivateBridgeV2.sol\":6822:6831  operators */\n      0x03\n        /* \"PrivateBridgeV2.sol\":6822:6841  operators[operator] */\n      0x00\n        /* \"PrivateBridgeV2.sol\":6832:6840  operator */\n      dup4\n        /* \"PrivateBridgeV2.sol\":6822:6841  operators[operator] */\n      0xffffffffffffffffffffffffffffffffffffffff\n      and\n      0xffffffffffffffffffffffffffffffffffffffff\n      and\n      dup2\n      mstore\n      0x20\n      add\n      swap1\n      dup2\n      mstore\n      0x20\n      add\n      0x00\n      keccak256\n      0x00\n        /* \"PrivateBridgeV2.sol\":6822:6848  operators[operator] = true */\n      0x0100\n      exp\n      dup2\n      sload\n      dup2\n      0xff\n      mul\n      not\n      and\n      swap1\n      dup4\n      iszero\n      iszero\n      mul\n      or\n      swap1\n      sstore\n      pop\n        /* \"PrivateBridgeV2.sol\":6877:6885  operator */\n      dup1\n        /* \"PrivateBridgeV2.sol\":6863:6886  OperatorAdded(operator) */\n      0xffffffffffffffffffffffffffffffffffffffff\n      and\n      0xac6fa858e9350a46cec16539926e0fde25b7629f84b5a72bffaae4df888ae86d\n      mload(0x40)\n      mload(0x40)\n      dup1\n      swap2\n      sub\n      swap1\n      log2\n        /* \"PrivateBridgeV2.sol\":6618:6893  function addOperator(address operator) external onlyOwner {... */\n      pop\n      jump\t// out\n        /* \"PrivateBridgeV2.sol\":7823:8399  function setLimits(... */\n    tag_91:\n        /* \"PrivateBridgeV2.sol\":2063:2068  owner */\n      0x01\n      0x00\n      swap1\n      sload\n      swap1\n      0x0100\n      exp\n      swap1\n      div\n      0xffffffffffffffffffffffffffffffffffffffff\n      and\n        /* \"PrivateBridgeV2.sol\":2049:2068  msg.sender == owner */\n      0xffffffffffffffffffffffffffffffffffffffff\n      and\n        /* \"PrivateBridgeV2.sol\":2049:2059  msg.sender */\n      caller\n        /* \"PrivateBridgeV2.sol\":2049:2068  msg.sender == owner */\n      0xffffffffffffffffffffffffffffffffffffffff\n      and\n      eq\n        /* \"PrivateBridgeV2.sol\":2041:2100  require(msg.sender == owner, \"Bridge: caller is not owner\") */\n      tag_192\n      jumpi\n      mload(0x40)\n      0x08c379a000000000000000000000000000000000000000000000000000000000\n      dup2\n      mstore\n      0x04\n      add\n      tag_193\n      swap1\n      tag_122\n      jump\t// in\n    tag_193:\n      mload(0x40)\n      dup1\n      swap2\n      sub\n      swap1\n      revert\n    tag_192:\n        /* \"PrivateBridgeV2.sol\":8018:8029  _maxDeposit */\n      dup3\n        /* \"PrivateBridgeV2.sol\":8003:8014  _minDeposit */\n      dup5\n        /* \"PrivateBridgeV2.sol\":8003:8029  _minDeposit <= _maxDeposit */\n      gt\n      iszero\n        /* \"PrivateBridgeV2.sol\":7995:8064  require(_minDeposit <= _maxDeposit, \"Bridge: invalid deposit limits\") */\n      tag_195\n      jumpi\n      mload(0x40)\n      0x08c379a000000000000000000000000000000000000000000000000000000000\n      dup2\n      mstore\n      0x04\n      add\n      tag_196\n      swap1\n      tag_197\n      jump\t// in\n    tag_196:\n      mload(0x40)\n      dup1\n      swap2\n      sub\n      swap1\n      revert\n    tag_195:\n        /* \"PrivateBridgeV2.sol\":8098:8110  _maxWithdraw */\n      dup1\n        /* \"PrivateBridgeV2.sol\":8082:8094  _minWithdraw */\n      dup3\n        /* \"PrivateBridgeV2.sol\":8082:8110  _minWithdraw <= _maxWithdraw */\n      gt\n      iszero\n        /* \"PrivateBridgeV2.sol\":8074:8146  require(_minWithdraw <= _maxWithdraw, \"Bridge: invalid withdraw limits\") */\n      tag_198\n      jumpi\n      mload(0x40)\n      0x08c379a000000000000000000000000000000000000000000000000000000000\n      dup2\n      mstore\n      0x04\n      add\n      tag_199\n      swap1\n      tag_200\n      jump\t// in\n    tag_199:\n      mload(0x40)\n      dup1\n      swap2\n      sub\n      swap1\n      revert\n    tag_198:\n        /* \"PrivateBridgeV2.sol\":8175:8186  _minDeposit */\n      dup4\n        /* \"PrivateBridgeV2.sol\":8156:8172  minDepositAmount */\n      0x07\n        /* \"PrivateBridgeV2.sol\":8156:8186  minDepositAmount = _minDeposit */\n      dup2\n      swap1\n      sstore\n      pop\n        /* \"PrivateBridgeV2.sol\":8215:8226  _maxDeposit */\n      dup3\n        /* \"PrivateBridgeV2.sol\":8196:8212  maxDepositAmount */\n      0x08\n        /* \"PrivateBridgeV2.sol\":8196:8226  maxDepositAmount = _maxDeposit */\n      dup2\n      swap1\n      sstore\n      pop\n        /* \"PrivateBridgeV2.sol\":8256:8268  _minWithdraw */\n      dup2\n        /* \"PrivateBridgeV2.sol\":8236:8253  minWithdrawAmount */\n      0x09\n        /* \"PrivateBridgeV2.sol\":8236:8268  minWithdrawAmount = _minWithdraw */\n      dup2\n      swap1\n      sstore\n      pop\n        /* \"PrivateBridgeV2.sol\":8298:8310  _maxWithdraw */\n      dup1\n        /* \"PrivateBridgeV2.sol\":8278:8295  maxWithdrawAmount */\n      0x0a\n        /* \"PrivateBridgeV2.sol\":8278:8310  maxWithdrawAmount = _maxWithdraw */\n      dup2\n      swap1\n      sstore\n      pop\n        /* \"PrivateBridgeV2.sol\":8325:8392  LimitsUpdated(_minDeposit, _maxDeposit, _minWithdraw, _maxWithdraw) */\n      0xe3eb5d4eccdae2d96efa105f65c8db865f9fc72984f2b879a27448fed50d1815\n        /* \"PrivateBridgeV2.sol\":8339:8350  _minDeposit */\n      dup5\n        /* \"PrivateBridgeV2.sol\":8352:8363  _maxDeposit */\n      dup5\n        /* \"PrivateBridgeV2.sol\":8365:8377  _minWithdraw */\n      dup5\n        /* \"PrivateBridgeV2.sol\":8379:8391  _maxWithdraw */\n      dup5\n        /* \"PrivateBridgeV2.sol\":8325:8392  LimitsUpdated(_minDeposit, _maxDeposit, _minWithdraw, _maxWithdraw) */\n      mload(0x40)\n      tag_201\n      swap5\n      swap4\n      swap3\n      swap2\n      swap1\n      tag_202\n      jump\t// in\n    tag_201:\n      mload(0x40)\n      dup1\n      swap2\n      sub\n      swap1\n      log1\n        /* \"PrivateBridgeV2.sol\":7823:8399  function setLimits(... */\n      pop\n      pop\n      pop\n      pop\n      jump\t// out\n        /* \"PrivateBridgeV2.sol\":6899:7109  function removeOperator(address operator) external onlyOwner {... */\n    tag_94:\n        /* \"PrivateBridgeV2.sol\":2063:2068  owner */\n      0x01\n      0x00\n      swap1\n      sload\n      swap1\n      0x0100\n      exp\n      swap1\n      div\n      0xffffffffffffffffffffffffffffffffffffffff\n      and\n        /* \"PrivateBridgeV2.sol\":2049:2068  msg.sender == owner */\n      0xffffffffffffffffffffffffffffffffffffffff\n      and\n        /* \"PrivateBridgeV2.sol\":2049:2059  msg.sender */\n      caller\n        /* \"PrivateBridgeV2.sol\":2049:2068  msg.sender == owner */\n      0xffffffffffffffffffffffffffffffffffffffff\n      and\n      eq\n        /* \"PrivateBridgeV2.sol\":2041:2100  require(msg.sender == owner, \"Bridge: caller is not owner\") */\n      tag_204\n      jumpi\n      mload(0x40)\n      0x08c379a000000000000000000000000000000000000000000000000000000000\n      dup2\n      mstore\n      0x04\n      add\n      tag_205\n      swap1\n      tag_122\n      jump\t// in\n    tag_205:\n      mload(0x40)\n      dup1\n      swap2\n      sub\n      swap1\n      revert\n    tag_204:\n        /* \"PrivateBridgeV2.sol\":6978:6987  operators */\n      0x03\n        /* \"PrivateBridgeV2.sol\":6978:6997  operators[operator] */\n      0x00\n        /* \"PrivateBridgeV2.sol\":6988:6996  operator */\n      dup3\n        /* \"PrivateBridgeV2.sol\":6978:6997  operators[operator] */\n      0xffffffffffffffffffffffffffffffffffffffff\n      and\n      0xffffffffffffffffffffffffffffffffffffffff\n      and\n      dup2\n      mstore\n      0x20\n      add\n      swap1\n      dup2\n      mstore\n      0x20\n      add\n      0x00\n      keccak256\n      0x00\n      swap1\n      sload\n      swap1\n      0x0100\n      exp\n      swap1\n      div\n      0xff\n      and\n        /* \"PrivateBridgeV2.sol\":6970:7025  require(operators[operator], \"Bridge: not an operator\") */\n      tag_207\n      jumpi\n      mload(0x40)\n      0x08c379a000000000000000000000000000000000000000000000000000000000\n      dup2\n      mstore\n      0x04\n      add\n      tag_208\n      swap1\n      tag_209\n      jump\t// in\n    tag_208:\n      mload(0x40)\n      dup1\n      swap2\n      sub\n      swap1\n      revert\n    tag_207:\n        /* \"PrivateBridgeV2.sol\":7057:7062  false */\n      0x00\n        /* \"PrivateBridgeV2.sol\":7035:7044  operators */\n      0x03\n        /* \"PrivateBridgeV2.sol\":7035:7054  operators[operator] */\n      0x00\n        /* \"PrivateBridgeV2.sol\":7045:7053  operator */\n      dup4\n        /* \"PrivateBridgeV2.sol\":7035:7054  operators[operator] */\n      0xffffffffffffffffffffffffffffffffffffffff\n      and\n      0xffffffffffffffffffffffffffffffffffffffff\n      and\n      dup2\n      mstore\n      0x20\n      add\n      swap1\n      dup2\n      mstore\n      0x20\n      add\n      0x00\n      keccak256\n      0x00\n        /* \"PrivateBridgeV2.sol\":7035:7062  operators[operator] = false */\n      0x0100\n      exp\n      dup2\n      sload\n      dup2\n      0xff\n      mul\n      not\n      and\n      swap1\n      dup4\n      iszero\n      iszero\n      mul\n      or\n      swap1\n      sstore\n      pop\n        /* \"PrivateBridgeV2.sol\":7093:7101  operator */\n      dup1\n        /* \"PrivateBridgeV2.sol\":7077:7102  OperatorRemoved(operator) */\n      0xffffffffffffffffffffffffffffffffffffffff\n      and\n      0x80c0b871b97b595b16a7741c1b06fed0c6f6f558639f18ccbce50724325dc40d\n      mload(0x40)\n      mload(0x40)\n      dup1\n      swap2\n      sub\n      swap1\n      log2\n        /* \"PrivateBridgeV2.sol\":6899:7109  function removeOperator(address operator) external onlyOwner {... */\n      pop\n      jump\t// out\n        /* \"PrivateBridgeV2.sol\":671:699  uint256 public withdrawNonce */\n    tag_96:\n      sload(0x06)\n      dup2\n      jump\t// out\n        /* \"PrivateBridgeV2.sol\":4263:5499  function requestWithdraw(... */\n    tag_101:\n        /* \"PrivateBridgeV2.sol\":2290:2296  paused */\n      0x02\n      0x14\n      swap1\n      sload\n      swap1\n      0x0100\n      exp\n      swap1\n      div\n      0xff\n      and\n        /* \"PrivateBridgeV2.sol\":2289:2296  !paused */\n      iszero\n        /* \"PrivateBridgeV2.sol\":2281:2315  require(!paused, \"Bridge: paused\") */\n      tag_211\n      jumpi\n      mload(0x40)\n      0x08c379a000000000000000000000000000000000000000000000000000000000\n      dup2\n      mstore\n      0x04\n      add\n      tag_212\n      swap1\n      tag_149\n      jump\t// in\n    tag_212:\n      mload(0x40)\n      dup1\n      swap2\n      sub\n      swap1\n      revert\n    tag_211:\n        /* \"PrivateBridgeV2.sol\":4407:4424  minWithdrawAmount */\n      sload(0x09)\n        /* \"PrivateBridgeV2.sol\":4397:4403  amount */\n      dup3\n        /* \"PrivateBridgeV2.sol\":4397:4424  amount >= minWithdrawAmount */\n      lt\n      iszero\n        /* \"PrivateBridgeV2.sol\":4389:4457  require(amount >= minWithdrawAmount, \"Bridge: amount below minimum\") */\n      tag_214\n      jumpi\n      mload(0x40)\n      0x08c379a000000000000000000000000000000000000000000000000000000000\n      dup2\n      mstore\n      0x04\n      add\n      tag_215\n      swap1\n      tag_156\n      jump\t// in\n    tag_215:\n      mload(0x40)\n      dup1\n      swap2\n      sub\n      swap1\n      revert\n    tag_214:\n        /* \"PrivateBridgeV2.sol\":4485:4502  maxWithdrawAmount */\n      sload(0x0a)\n        /* \"PrivateBridgeV2.sol\":4475:4481  amount */\n      dup3\n        /* \"PrivateBridgeV2.sol\":4475:4502  amount <= maxWithdrawAmount */\n      gt\n      iszero\n        /* \"PrivateBridgeV2.sol\":4467:4535  require(amount <= maxWithdrawAmount, \"Bridge: amount above maximum\") */\n      tag_216\n      jumpi\n      mload(0x40)\n      0x08c379a000000000000000000000000000000000000000000000000000000000\n      dup2\n      mstore\n      0x04\n      add\n      tag_217\n      swap1\n      tag_159\n      jump\t// in\n    tag_217:\n      mload(0x40)\n      dup1\n      swap2\n      sub\n      swap1\n      revert\n    tag_216:\n        /* \"PrivateBridgeV2.sol\":4585:4586  0 */\n      0x00\n        /* \"PrivateBridgeV2.sol\":4553:4587  publicChainRecipient != address(0) */\n      0xffffffffffffffffffffffffffffffffffffffff\n      and\n        /* \"PrivateBridgeV2.sol\":4553:4573  publicChainRecipient */\n      dup2\n        /* \"PrivateBridgeV2.sol\":4553:4587  publicChainRecipient != address(0) */\n      0xffffffffffffffffffffffffffffffffffffffff\n      and\n      eq\n      iszero\n        /* \"PrivateBridgeV2.sol\":4545:4617  require(publicChainRecipient != address(0), \"Bridge: invalid recipient\") */\n      tag_218\n      jumpi\n      mload(0x40)\n      0x08c379a000000000000000000000000000000000000000000000000000000000\n      dup2\n      mstore\n      0x04\n      add\n      tag_219\n      swap1\n      tag_153\n      jump\t// in\n    tag_219:\n      mload(0x40)\n      dup1\n      swap2\n      sub\n      swap1\n      revert\n    tag_218:\n        /* \"PrivateBridgeV2.sol\":4666:4672  amount */\n      dup2\n        /* \"PrivateBridgeV2.sol\":4635:4640  usdcp */\n      0x00\n      dup1\n      sload\n      swap1\n      0x0100\n      exp\n      swap1\n      div\n      0xffffffffffffffffffffffffffffffffffffffff\n      and\n        /* \"PrivateBridgeV2.sol\":4635:4650  usdcp.balanceOf */\n      0xffffffffffffffffffffffffffffffffffffffff\n      and\n      0x70a08231\n        /* \"PrivateBridgeV2.sol\":4651:4661  msg.sender */\n      caller\n        /* \"PrivateBridgeV2.sol\":4635:4662  usdcp.balanceOf(msg.sender) */\n      mload(0x40)\n      dup3\n      0xffffffff\n      and\n      0xe0\n      shl\n      dup2\n      mstore\n      0x04\n      add\n      tag_220\n      swap2\n      swap1\n      tag_81\n      jump\t// in\n    tag_220:\n      0x20\n      mload(0x40)\n      dup1\n      dup4\n      sub\n      dup2\n      dup7\n      gas\n      staticcall\n      iszero\n      dup1\n      iszero\n      tag_222\n      jumpi\n      returndatasize\n      0x00\n      dup1\n      returndatacopy\n      revert(0x00, returndatasize)\n    tag_222:\n      pop\n      pop\n      pop\n      pop\n      mload(0x40)\n      returndatasize\n      not(0x1f)\n      0x1f\n      dup3\n      add\n      and\n      dup3\n      add\n      dup1\n      0x40\n      mstore\n      pop\n      dup2\n      add\n      swap1\n      tag_223\n      swap2\n      swap1\n      tag_224\n      jump\t// in\n    tag_223:\n        /* \"PrivateBridgeV2.sol\":4635:4672  usdcp.balanceOf(msg.sender) >= amount */\n      lt\n      iszero\n        /* \"PrivateBridgeV2.sol\":4627:4705  require(usdcp.balanceOf(msg.sender) >= amount, \"Bridge: insufficient balance\") */\n      tag_225\n      jumpi\n      mload(0x40)\n      0x08c379a000000000000000000000000000000000000000000000000000000000\n      dup2\n      mstore\n      0x04\n      add\n      tag_226\n      swap1\n      tag_227\n      jump\t// in\n    tag_226:\n      mload(0x40)\n      dup1\n      swap2\n      sub\n      swap1\n      revert\n    tag_225:\n        /* \"PrivateBridgeV2.sol\":4755:4773  bytes32 withdrawId */\n      0x00\n        /* \"PrivateBridgeV2.sol\":4816:4826  msg.sender */\n      caller\n        /* \"PrivateBridgeV2.sol\":4840:4846  amount */\n      dup4\n        /* \"PrivateBridgeV2.sol\":4860:4880  publicChainRecipient */\n      dup4\n        /* \"PrivateBridgeV2.sol\":4894:4907  withdrawNonce */\n      sload(0x06)\n        /* \"PrivateBridgeV2.sol\":4921:4936  block.timestamp */\n      timestamp\n        /* \"PrivateBridgeV2.sol\":4950:4962  block.number */\n      number\n        /* \"PrivateBridgeV2.sol\":4786:5003  abi.encodePacked(... */\n      add(0x20, mload(0x40))\n      tag_228\n      swap7\n      swap6\n      swap5\n      swap4\n      swap3\n      swap2\n      swap1\n      tag_229\n      jump\t// in\n    tag_228:\n      mload(0x40)\n      0x20\n      dup2\n      dup4\n      sub\n      sub\n      dup2\n      mstore\n      swap1\n      0x40\n      mstore\n        /* \"PrivateBridgeV2.sol\":4776:5004  keccak256(abi.encodePacked(... */\n      dup1\n      mload\n      swap1\n      0x20\n      add\n      keccak256\n        /* \"PrivateBridgeV2.sol\":4755:5004  bytes32 withdrawId = keccak256(abi.encodePacked(... */\n      swap1\n      pop\n        /* \"PrivateBridgeV2.sol\":5014:5027  withdrawNonce */\n      0x06\n      0x00\n        /* \"PrivateBridgeV2.sol\":5014:5029  withdrawNonce++ */\n      dup2\n      sload\n      dup1\n      swap3\n      swap2\n      swap1\n      tag_230\n      swap1\n      tag_231\n      jump\t// in\n    tag_230:\n      swap2\n      swap1\n      pop\n      sstore\n      pop\n        /* \"PrivateBridgeV2.sol\":5107:5318  WithdrawRequest({... */\n      mload(0x40)\n      dup1\n      0xa0\n      add\n      0x40\n      mstore\n      dup1\n        /* \"PrivateBridgeV2.sol\":5143:5153  msg.sender */\n      caller\n        /* \"PrivateBridgeV2.sol\":5107:5318  WithdrawRequest({... */\n      0xffffffffffffffffffffffffffffffffffffffff\n      and\n      dup2\n      mstore\n      0x20\n      add\n        /* \"PrivateBridgeV2.sol\":5175:5181  amount */\n      dup5\n        /* \"PrivateBridgeV2.sol\":5107:5318  WithdrawRequest({... */\n      dup2\n      mstore\n      0x20\n      add\n        /* \"PrivateBridgeV2.sol\":5217:5237  publicChainRecipient */\n      dup4\n        /* \"PrivateBridgeV2.sol\":5107:5318  WithdrawRequest({... */\n      0xffffffffffffffffffffffffffffffffffffffff\n      and\n      dup2\n      mstore\n      0x20\n      add\n        /* \"PrivateBridgeV2.sol\":5262:5277  block.timestamp */\n      timestamp\n        /* \"PrivateBridgeV2.sol\":5107:5318  WithdrawRequest({... */\n      dup2\n      mstore\n      0x20\n      add\n        /* \"PrivateBridgeV2.sol\":5302:5307  false */\n      0x00\n        /* \"PrivateBridgeV2.sol\":5107:5318  WithdrawRequest({... */\n      iszero\n      iszero\n      dup2\n      mstore\n      pop\n        /* \"PrivateBridgeV2.sol\":5076:5092  withdrawRequests */\n      0x05\n        /* \"PrivateBridgeV2.sol\":5076:5104  withdrawRequests[withdrawId] */\n      0x00\n        /* \"PrivateBridgeV2.sol\":5093:5103  withdrawId */\n      dup4\n        /* \"PrivateBridgeV2.sol\":5076:5104  withdrawRequests[withdrawId] */\n      dup2\n      mstore\n      0x20\n      add\n      swap1\n      dup2\n      mstore\n      0x20\n      add\n      0x00\n      keccak256\n        /* \"PrivateBridgeV2.sol\":5076:5318  withdrawRequests[withdrawId] = WithdrawRequest({... */\n      0x00\n      dup3\n      add\n      mload\n      dup2\n      0x00\n      add\n      exp(0x0100, 0x00)\n      dup2\n      sload\n      dup2\n      0xffffffffffffffffffffffffffffffffffffffff\n      mul\n      not\n      and\n      swap1\n      dup4\n      0xffffffffffffffffffffffffffffffffffffffff\n      and\n      mul\n      or\n      swap1\n      sstore\n      pop\n      0x20\n      dup3\n      add\n      mload\n      dup2\n      0x01\n      add\n      sstore\n      0x40\n      dup3\n      add\n      mload\n      dup2\n      0x02\n      add\n      exp(0x0100, 0x00)\n      dup2\n      sload\n      dup2\n      0xffffffffffffffffffffffffffffffffffffffff\n      mul\n      not\n      and\n      swap1\n      dup4\n      0xffffffffffffffffffffffffffffffffffffffff\n      and\n      mul\n      or\n      swap1\n      sstore\n      pop\n      0x60\n      dup3\n      add\n      mload\n      dup2\n      0x03\n      add\n      sstore\n      0x80\n      dup3\n      add\n      mload\n      dup2\n      0x04\n      add\n      exp(0x0100, 0x00)\n      dup2\n      sload\n      dup2\n      0xff\n      mul\n      not\n      and\n      swap1\n      dup4\n      iszero\n      iszero\n      mul\n      or\n      swap1\n      sstore\n      pop\n      swap1\n      pop\n      pop\n        /* \"PrivateBridgeV2.sol\":5363:5368  usdcp */\n      0x00\n      dup1\n      sload\n      swap1\n      0x0100\n      exp\n      swap1\n      div\n      0xffffffffffffffffffffffffffffffffffffffff\n      and\n        /* \"PrivateBridgeV2.sol\":5363:5373  usdcp.burn */\n      0xffffffffffffffffffffffffffffffffffffffff\n      and\n      0x158a1cc3\n        /* \"PrivateBridgeV2.sol\":5374:5384  msg.sender */\n      caller\n        /* \"PrivateBridgeV2.sol\":5386:5392  amount */\n      dup6\n        /* \"PrivateBridgeV2.sol\":5394:5404  withdrawId */\n      dup5\n        /* \"PrivateBridgeV2.sol\":5363:5405  usdcp.burn(msg.sender, amount, withdrawId) */\n      mload(0x40)\n      dup5\n      0xffffffff\n      and\n      0xe0\n      shl\n      dup2\n      mstore\n      0x04\n      add\n      tag_232\n      swap4\n      swap3\n      swap2\n      swap1\n      tag_166\n      jump\t// in\n    tag_232:\n      0x00\n      mload(0x40)\n      dup1\n      dup4\n      sub\n      dup2\n      0x00\n      dup8\n      dup1\n      extcodesize\n      iszero\n      dup1\n      iszero\n      tag_233\n      jumpi\n      0x00\n      dup1\n      revert\n    tag_233:\n      pop\n      gas\n      call\n      iszero\n      dup1\n      iszero\n      tag_235\n      jumpi\n      returndatasize\n      0x00\n      dup1\n      returndatacopy\n      revert(0x00, returndatasize)\n    tag_235:\n      pop\n      pop\n      pop\n      pop\n        /* \"PrivateBridgeV2.sol\":5451:5461  msg.sender */\n      caller\n        /* \"PrivateBridgeV2.sol\":5421:5492  WithdrawRequested(withdrawId, msg.sender, amount, publicChainRecipient) */\n      0xffffffffffffffffffffffffffffffffffffffff\n      and\n        /* \"PrivateBridgeV2.sol\":5439:5449  withdrawId */\n      dup2\n        /* \"PrivateBridgeV2.sol\":5421:5492  WithdrawRequested(withdrawId, msg.sender, amount, publicChainRecipient) */\n      0xd538c920a07ae93ce0f0d0cdc7a11c5ada9534a51c1d4f48a60dba5af2fe352f\n        /* \"PrivateBridgeV2.sol\":5463:5469  amount */\n      dup6\n        /* \"PrivateBridgeV2.sol\":5471:5491  publicChainRecipient */\n      dup6\n        /* \"PrivateBridgeV2.sol\":5421:5492  WithdrawRequested(withdrawId, msg.sender, amount, publicChainRecipient) */\n      mload(0x40)\n      tag_236\n      swap3\n      swap2\n      swap1\n      tag_237\n      jump\t// in\n    tag_236:\n      mload(0x40)\n      dup1\n      swap2\n      sub\n      swap1\n      log3\n        /* \"PrivateBridgeV2.sol\":4379:5499  {... */\n      pop\n        /* \"PrivateBridgeV2.sol\":4263:5499  function requestWithdraw(... */\n      pop\n      pop\n      jump\t// out\n        /* \"PrivateBridgeV2.sol\":6434:6562  function isDepositProcessed(bytes32 depositId) external view returns (bool) {... */\n    tag_104:\n        /* \"PrivateBridgeV2.sol\":6504:6508  bool */\n      0x00\n        /* \"PrivateBridgeV2.sol\":6527:6544  processedDeposits */\n      0x04\n        /* \"PrivateBridgeV2.sol\":6527:6555  processedDeposits[depositId] */\n      0x00\n        /* \"PrivateBridgeV2.sol\":6545:6554  depositId */\n      dup4\n        /* \"PrivateBridgeV2.sol\":6527:6555  processedDeposits[depositId] */\n      dup2\n      mstore\n      0x20\n      add\n      swap1\n      dup2\n      mstore\n      0x20\n      add\n      0x00\n      keccak256\n      0x00\n      swap1\n      sload\n      swap1\n      0x0100\n      exp\n      swap1\n      div\n      0xff\n      and\n        /* \"PrivateBridgeV2.sol\":6520:6555  return processedDeposits[depositId] */\n      swap1\n      pop\n        /* \"PrivateBridgeV2.sol\":6434:6562  function isDepositProcessed(bytes32 depositId) external view returns (bool) {... */\n      swap2\n      swap1\n      pop\n      jump\t// out\n        /* \"PrivateBridgeV2.sol\":302:329  address public pendingOwner */\n    tag_107:\n      0x02\n      0x00\n      swap1\n      sload\n      swap1\n      0x0100\n      exp\n      swap1\n      div\n      0xffffffffffffffffffffffffffffffffffffffff\n      and\n      dup2\n      jump\t// out\n        /* \"PrivateBridgeV2.sol\":6047:6428  function getWithdrawRequest(bytes32 withdrawId) external view returns (... */\n    tag_111:\n        /* \"PrivateBridgeV2.sol\":6127:6139  address from */\n      0x00\n        /* \"PrivateBridgeV2.sol\":6149:6163  uint256 amount */\n      dup1\n        /* \"PrivateBridgeV2.sol\":6173:6201  address publicChainRecipient */\n      0x00\n        /* \"PrivateBridgeV2.sol\":6211:6228  uint256 timestamp */\n      dup1\n        /* \"PrivateBridgeV2.sol\":6238:6252  bool processed */\n      0x00\n        /* \"PrivateBridgeV2.sol\":6269:6295  WithdrawRequest memory req */\n      dup1\n        /* \"PrivateBridgeV2.sol\":6298:6314  withdrawRequests */\n      0x05\n        /* \"PrivateBridgeV2.sol\":6298:6326  withdrawRequests[withdrawId] */\n      0x00\n        /* \"PrivateBridgeV2.sol\":6315:6325  withdrawId */\n      dup9\n        /* \"PrivateBridgeV2.sol\":6298:6326  withdrawRequests[withdrawId] */\n      dup2\n      mstore\n      0x20\n      add\n      swap1\n      dup2\n      mstore\n      0x20\n      add\n      0x00\n      keccak256\n        /* \"PrivateBridgeV2.sol\":6269:6326  WithdrawRequest memory req = withdrawRequests[withdrawId] */\n      mload(0x40)\n      dup1\n      0xa0\n      add\n      0x40\n      mstore\n      swap1\n      dup2\n      0x00\n      dup3\n      add\n      0x00\n      swap1\n      sload\n      swap1\n      0x0100\n      exp\n      swap1\n      div\n      0xffffffffffffffffffffffffffffffffffffffff\n      and\n      0xffffffffffffffffffffffffffffffffffffffff\n      and\n      0xffffffffffffffffffffffffffffffffffffffff\n      and\n      dup2\n      mstore\n      0x20\n      add\n      0x01\n      dup3\n      add\n      sload\n      dup2\n      mstore\n      0x20\n      add\n      0x02\n      dup3\n      add\n      0x00\n      swap1\n      sload\n      swap1\n      0x0100\n      exp\n      swap1\n      div\n      0xffffffffffffffffffffffffffffffffffffffff\n      and\n      0xffffffffffffffffffffffffffffffffffffffff\n      and\n      0xffffffffffffffffffffffffffffffffffffffff\n      and\n      dup2\n      mstore\n      0x20\n      add\n      0x03\n      dup3\n      add\n      sload\n      dup2\n      mstore\n      0x20\n      add\n      0x04\n      dup3\n      add\n      0x00\n      swap1\n      sload\n      swap1\n      0x0100\n      exp\n      swap1\n      div\n      0xff\n      and\n      iszero\n      iszero\n      iszero\n      iszero\n      dup2\n      mstore\n      pop\n      pop\n      swap1\n      pop\n        /* \"PrivateBridgeV2.sol\":6344:6347  req */\n      dup1\n        /* \"PrivateBridgeV2.sol\":6344:6352  req.from */\n      0x00\n      add\n      mload\n        /* \"PrivateBridgeV2.sol\":6354:6357  req */\n      dup2\n        /* \"PrivateBridgeV2.sol\":6354:6364  req.amount */\n      0x20\n      add\n      mload\n        /* \"PrivateBridgeV2.sol\":6366:6369  req */\n      dup3\n        /* \"PrivateBridgeV2.sol\":6366:6390  req.publicChainRecipient */\n      0x40\n      add\n      mload\n        /* \"PrivateBridgeV2.sol\":6392:6395  req */\n      dup4\n        /* \"PrivateBridgeV2.sol\":6392:6405  req.timestamp */\n      0x60\n      add\n      mload\n        /* \"PrivateBridgeV2.sol\":6407:6410  req */\n      dup5\n        /* \"PrivateBridgeV2.sol\":6407:6420  req.processed */\n      0x80\n      add\n      mload\n        /* \"PrivateBridgeV2.sol\":6336:6421  return (req.from, req.amount, req.publicChainRecipient, req.timestamp, req.processed) */\n      swap6\n      pop\n      swap6\n      pop\n      swap6\n      pop\n      swap6\n      pop\n      swap6\n      pop\n      pop\n        /* \"PrivateBridgeV2.sol\":6047:6428  function getWithdrawRequest(bytes32 withdrawId) external view returns (... */\n      swap2\n      swap4\n      swap6\n      swap1\n      swap3\n      swap5\n      pop\n      jump\t// out\n        /* \"PrivateBridgeV2.sol\":7115:7341  function transferOwnership(address newOwner) external onlyOwner {... */\n    tag_115:\n        /* \"PrivateBridgeV2.sol\":2063:2068  owner */\n      0x01\n      0x00\n      swap1\n      sload\n      swap1\n      0x0100\n      exp\n      swap1\n      div\n      0xffffffffffffffffffffffffffffffffffffffff\n      and\n        /* \"PrivateBridgeV2.sol\":2049:2068  msg.sender == owner */\n      0xffffffffffffffffffffffffffffffffffffffff\n      and\n        /* \"PrivateBridgeV2.sol\":2049:2059  msg.sender */\n      caller\n        /* \"PrivateBridgeV2.sol\":2049:2068  msg.sender == owner */\n      0xffffffffffffffffffffffffffffffffffffffff\n      and\n      eq\n        /* \"PrivateBridgeV2.sol\":2041:2100  require(msg.sender == owner, \"Bridge: caller is not owner\") */\n      tag_241\n      jumpi\n      mload(0x40)\n      0x08c379a000000000000000000000000000000000000000000000000000000000\n      dup2\n      mstore\n      0x04\n      add\n      tag_242\n      swap1\n      tag_122\n      jump\t// in\n    tag_242:\n      mload(0x40)\n      dup1\n      swap2\n      sub\n      swap1\n      revert\n    tag_241:\n        /* \"PrivateBridgeV2.sol\":7217:7218  0 */\n      0x00\n        /* \"PrivateBridgeV2.sol\":7197:7219  newOwner != address(0) */\n      0xffffffffffffffffffffffffffffffffffffffff\n      and\n        /* \"PrivateBridgeV2.sol\":7197:7205  newOwner */\n      dup2\n        /* \"PrivateBridgeV2.sol\":7197:7219  newOwner != address(0) */\n      0xffffffffffffffffffffffffffffffffffffffff\n      and\n      eq\n      iszero\n        /* \"PrivateBridgeV2.sol\":7189:7245  require(newOwner != address(0), \"Bridge: invalid owner\") */\n      tag_244\n      jumpi\n      mload(0x40)\n      0x08c379a000000000000000000000000000000000000000000000000000000000\n      dup2\n      mstore\n      0x04\n      add\n      tag_245\n      swap1\n      tag_246\n      jump\t// in\n    tag_245:\n      mload(0x40)\n      dup1\n      swap2\n      sub\n      swap1\n      revert\n    tag_244:\n        /* \"PrivateBridgeV2.sol\":7270:7278  newOwner */\n      dup1\n        /* \"PrivateBridgeV2.sol\":7255:7267  pendingOwner */\n      0x02\n      0x00\n        /* \"PrivateBridgeV2.sol\":7255:7278  pendingOwner = newOwner */\n      0x0100\n      exp\n      dup2\n      sload\n      dup2\n      0xffffffffffffffffffffffffffffffffffffffff\n      mul\n      not\n      and\n      swap1\n      dup4\n      0xffffffffffffffffffffffffffffffffffffffff\n      and\n      mul\n      or\n      swap1\n      sstore\n      pop\n        /* \"PrivateBridgeV2.sol\":7325:7333  newOwner */\n      dup1\n        /* \"PrivateBridgeV2.sol\":7293:7334  OwnershipTransferStarted(owner, newOwner) */\n      0xffffffffffffffffffffffffffffffffffffffff\n      and\n        /* \"PrivateBridgeV2.sol\":7318:7323  owner */\n      0x01\n      0x00\n      swap1\n      sload\n      swap1\n      0x0100\n      exp\n      swap1\n      div\n      0xffffffffffffffffffffffffffffffffffffffff\n      and\n        /* \"PrivateBridgeV2.sol\":7293:7334  OwnershipTransferStarted(owner, newOwner) */\n      0xffffffffffffffffffffffffffffffffffffffff\n      and\n      0x38d16b8cac22d99fc7c124b9cd0de2d3fa1faef420bfe791d8c362d765e22700\n      mload(0x40)\n      mload(0x40)\n      dup1\n      swap2\n      sub\n      swap1\n      log3\n        /* \"PrivateBridgeV2.sol\":7115:7341  function transferOwnership(address newOwner) external onlyOwner {... */\n      pop\n      jump\t// out\n        /* \"PrivateBridgeV2.sol\":861:893  uint256 public maxWithdrawAmount */\n    tag_117:\n      sload(0x0a)\n      dup2\n      jump\t// out\n        /* \"#utility.yul\":88:205   */\n    tag_248:\n        /* \"#utility.yul\":197:198   */\n      0x00\n        /* \"#utility.yul\":194:195   */\n      dup1\n        /* \"#utility.yul\":187:199   */\n      revert\n        /* \"#utility.yul\":334:411   */\n    tag_250:\n        /* \"#utility.yul\":371:378   */\n      0x00\n        /* \"#utility.yul\":400:405   */\n      dup2\n        /* \"#utility.yul\":389:405   */\n      swap1\n      pop\n        /* \"#utility.yul\":334:411   */\n      swap2\n      swap1\n      pop\n      jump\t// out\n        /* \"#utility.yul\":417:539   */\n    tag_251:\n        /* \"#utility.yul\":490:514   */\n      tag_323\n        /* \"#utility.yul\":508:513   */\n      dup2\n        /* \"#utility.yul\":490:514   */\n      tag_250\n      jump\t// in\n    tag_323:\n        /* \"#utility.yul\":483:488   */\n      dup2\n        /* \"#utility.yul\":480:515   */\n      eq\n        /* \"#utility.yul\":470:533   */\n      tag_324\n      jumpi\n        /* \"#utility.yul\":529:530   */\n      0x00\n        /* \"#utility.yul\":526:527   */\n      dup1\n        /* \"#utility.yul\":519:531   */\n      revert\n        /* \"#utility.yul\":470:533   */\n    tag_324:\n        /* \"#utility.yul\":417:539   */\n      pop\n      jump\t// out\n        /* \"#utility.yul\":545:684   */\n    tag_252:\n        /* \"#utility.yul\":591:596   */\n      0x00\n        /* \"#utility.yul\":629:635   */\n      dup2\n        /* \"#utility.yul\":616:636   */\n      calldataload\n        /* \"#utility.yul\":607:636   */\n      swap1\n      pop\n        /* \"#utility.yul\":645:678   */\n      tag_326\n        /* \"#utility.yul\":672:677   */\n      dup2\n        /* \"#utility.yul\":645:678   */\n      tag_251\n      jump\t// in\n    tag_326:\n        /* \"#utility.yul\":545:684   */\n      swap3\n      swap2\n      pop\n      pop\n      jump\t// out\n        /* \"#utility.yul\":690:1019   */\n    tag_34:\n        /* \"#utility.yul\":749:755   */\n      0x00\n        /* \"#utility.yul\":798:800   */\n      0x20\n        /* \"#utility.yul\":786:795   */\n      dup3\n        /* \"#utility.yul\":777:784   */\n      dup5\n        /* \"#utility.yul\":773:796   */\n      sub\n        /* \"#utility.yul\":769:801   */\n      slt\n        /* \"#utility.yul\":766:885   */\n      iszero\n      tag_328\n      jumpi\n        /* \"#utility.yul\":804:883   */\n      tag_329\n      tag_248\n      jump\t// in\n    tag_329:\n        /* \"#utility.yul\":766:885   */\n    tag_328:\n        /* \"#utility.yul\":924:925   */\n      0x00\n        /* \"#utility.yul\":949:1002   */\n      tag_330\n        /* \"#utility.yul\":994:1001   */\n      dup5\n        /* \"#utility.yul\":985:991   */\n      dup3\n        /* \"#utility.yul\":974:983   */\n      dup6\n        /* \"#utility.yul\":970:992   */\n      add\n        /* \"#utility.yul\":949:1002   */\n      tag_252\n      jump\t// in\n    tag_330:\n        /* \"#utility.yul\":939:1002   */\n      swap2\n      pop\n        /* \"#utility.yul\":895:1012   */\n      pop\n        /* \"#utility.yul\":690:1019   */\n      swap3\n      swap2\n      pop\n      pop\n      jump\t// out\n        /* \"#utility.yul\":1025:1151   */\n    tag_253:\n        /* \"#utility.yul\":1062:1069   */\n      0x00\n        /* \"#utility.yul\":1102:1144   */\n      0xffffffffffffffffffffffffffffffffffffffff\n        /* \"#utility.yul\":1095:1100   */\n      dup3\n        /* \"#utility.yul\":1091:1145   */\n      and\n        /* \"#utility.yul\":1080:1145   */\n      swap1\n      pop\n        /* \"#utility.yul\":1025:1151   */\n      swap2\n      swap1\n      pop\n      jump\t// out\n        /* \"#utility.yul\":1157:1253   */\n    tag_254:\n        /* \"#utility.yul\":1194:1201   */\n      0x00\n        /* \"#utility.yul\":1223:1247   */\n      tag_333\n        /* \"#utility.yul\":1241:1246   */\n      dup3\n        /* \"#utility.yul\":1223:1247   */\n      tag_253\n      jump\t// in\n    tag_333:\n        /* \"#utility.yul\":1212:1247   */\n      swap1\n      pop\n        /* \"#utility.yul\":1157:1253   */\n      swap2\n      swap1\n      pop\n      jump\t// out\n        /* \"#utility.yul\":1259:1377   */\n    tag_255:\n        /* \"#utility.yul\":1346:1370   */\n      tag_335\n        /* \"#utility.yul\":1364:1369   */\n      dup2\n        /* \"#utility.yul\":1346:1370   */\n      tag_254\n      jump\t// in\n    tag_335:\n        /* \"#utility.yul\":1341:1344   */\n      dup3\n        /* \"#utility.yul\":1334:1371   */\n      mstore\n        /* \"#utility.yul\":1259:1377   */\n      pop\n      pop\n      jump\t// out\n        /* \"#utility.yul\":1383:1460   */\n    tag_256:\n        /* \"#utility.yul\":1420:1427   */\n      0x00\n        /* \"#utility.yul\":1449:1454   */\n      dup2\n        /* \"#utility.yul\":1438:1454   */\n      swap1\n      pop\n        /* \"#utility.yul\":1383:1460   */\n      swap2\n      swap1\n      pop\n      jump\t// out\n        /* \"#utility.yul\":1466:1584   */\n    tag_257:\n        /* \"#utility.yul\":1553:1577   */\n      tag_338\n        /* \"#utility.yul\":1571:1576   */\n      dup2\n        /* \"#utility.yul\":1553:1577   */\n      tag_256\n      jump\t// in\n    tag_338:\n        /* \"#utility.yul\":1548:1551   */\n      dup3\n        /* \"#utility.yul\":1541:1578   */\n      mstore\n        /* \"#utility.yul\":1466:1584   */\n      pop\n      pop\n      jump\t// out\n        /* \"#utility.yul\":1590:1680   */\n    tag_258:\n        /* \"#utility.yul\":1624:1631   */\n      0x00\n        /* \"#utility.yul\":1667:1672   */\n      dup2\n        /* \"#utility.yul\":1660:1673   */\n      iszero\n        /* \"#utility.yul\":1653:1674   */\n      iszero\n        /* \"#utility.yul\":1642:1674   */\n      swap1\n      pop\n        /* \"#utility.yul\":1590:1680   */\n      swap2\n      swap1\n      pop\n      jump\t// out\n        /* \"#utility.yul\":1686:1795   */\n    tag_259:\n        /* \"#utility.yul\":1767:1788   */\n      tag_341\n        /* \"#utility.yul\":1782:1787   */\n      dup2\n        /* \"#utility.yul\":1767:1788   */\n      tag_258\n      jump\t// in\n    tag_341:\n        /* \"#utility.yul\":1762:1765   */\n      dup3\n        /* \"#utility.yul\":1755:1789   */\n      mstore\n        /* \"#utility.yul\":1686:1795   */\n      pop\n      pop\n      jump\t// out\n        /* \"#utility.yul\":1801:2453   */\n    tag_37:\n        /* \"#utility.yul\":2000:2004   */\n      0x00\n        /* \"#utility.yul\":2038:2041   */\n      0xa0\n        /* \"#utility.yul\":2027:2036   */\n      dup3\n        /* \"#utility.yul\":2023:2042   */\n      add\n        /* \"#utility.yul\":2015:2042   */\n      swap1\n      pop\n        /* \"#utility.yul\":2052:2123   */\n      tag_343\n        /* \"#utility.yul\":2120:2121   */\n      0x00\n        /* \"#utility.yul\":2109:2118   */\n      dup4\n        /* \"#utility.yul\":2105:2122   */\n      add\n        /* \"#utility.yul\":2096:2102   */\n      dup9\n        /* \"#utility.yul\":2052:2123   */\n      tag_255\n      jump\t// in\n    tag_343:\n        /* \"#utility.yul\":2133:2205   */\n      tag_344\n        /* \"#utility.yul\":2201:2203   */\n      0x20\n        /* \"#utility.yul\":2190:2199   */\n      dup4\n        /* \"#utility.yul\":2186:2204   */\n      add\n        /* \"#utility.yul\":2177:2183   */\n      dup8\n        /* \"#utility.yul\":2133:2205   */\n      tag_257\n      jump\t// in\n    tag_344:\n        /* \"#utility.yul\":2215:2287   */\n      tag_345\n        /* \"#utility.yul\":2283:2285   */\n      0x40\n        /* \"#utility.yul\":2272:2281   */\n      dup4\n        /* \"#utility.yul\":2268:2286   */\n      add\n        /* \"#utility.yul\":2259:2265   */\n      dup7\n        /* \"#utility.yul\":2215:2287   */\n      tag_255\n      jump\t// in\n    tag_345:\n        /* \"#utility.yul\":2297:2369   */\n      tag_346\n        /* \"#utility.yul\":2365:2367   */\n      0x60\n        /* \"#utility.yul\":2354:2363   */\n      dup4\n        /* \"#utility.yul\":2350:2368   */\n      add\n        /* \"#utility.yul\":2341:2347   */\n      dup6\n        /* \"#utility.yul\":2297:2369   */\n      tag_257\n      jump\t// in\n    tag_346:\n        /* \"#utility.yul\":2379:2446   */\n      tag_347\n        /* \"#utility.yul\":2441:2444   */\n      0x80\n        /* \"#utility.yul\":2430:2439   */\n      dup4\n        /* \"#utility.yul\":2426:2445   */\n      add\n        /* \"#utility.yul\":2417:2423   */\n      dup5\n        /* \"#utility.yul\":2379:2446   */\n      tag_259\n      jump\t// in\n    tag_347:\n        /* \"#utility.yul\":1801:2453   */\n      swap7\n      swap6\n      pop\n      pop\n      pop\n      pop\n      pop\n      pop\n      jump\t// out\n        /* \"#utility.yul\":2459:2581   */\n    tag_260:\n        /* \"#utility.yul\":2532:2556   */\n      tag_349\n        /* \"#utility.yul\":2550:2555   */\n      dup2\n        /* \"#utility.yul\":2532:2556   */\n      tag_254\n      jump\t// in\n    tag_349:\n        /* \"#utility.yul\":2525:2530   */\n      dup2\n        /* \"#utility.yul\":2522:2557   */\n      eq\n        /* \"#utility.yul\":2512:2575   */\n      tag_350\n      jumpi\n        /* \"#utility.yul\":2571:2572   */\n      0x00\n        /* \"#utility.yul\":2568:2569   */\n      dup1\n        /* \"#utility.yul\":2561:2573   */\n      revert\n        /* \"#utility.yul\":2512:2575   */\n    tag_350:\n        /* \"#utility.yul\":2459:2581   */\n      pop\n      jump\t// out\n        /* \"#utility.yul\":2587:2726   */\n    tag_261:\n        /* \"#utility.yul\":2633:2638   */\n      0x00\n        /* \"#utility.yul\":2671:2677   */\n      dup2\n        /* \"#utility.yul\":2658:2678   */\n      calldataload\n        /* \"#utility.yul\":2649:2678   */\n      swap1\n      pop\n        /* \"#utility.yul\":2687:2720   */\n      tag_352\n        /* \"#utility.yul\":2714:2719   */\n      dup2\n        /* \"#utility.yul\":2687:2720   */\n      tag_260\n      jump\t// in\n    tag_352:\n        /* \"#utility.yul\":2587:2726   */\n      swap3\n      swap2\n      pop\n      pop\n      jump\t// out\n        /* \"#utility.yul\":2732:3061   */\n    tag_40:\n        /* \"#utility.yul\":2791:2797   */\n      0x00\n        /* \"#utility.yul\":2840:2842   */\n      0x20\n        /* \"#utility.yul\":2828:2837   */\n      dup3\n        /* \"#utility.yul\":2819:2826   */\n      dup5\n        /* \"#utility.yul\":2815:2838   */\n      sub\n        /* \"#utility.yul\":2811:2843   */\n      slt\n        /* \"#utility.yul\":2808:2927   */\n      iszero\n      tag_354\n      jumpi\n        /* \"#utility.yul\":2846:2925   */\n      tag_355\n      tag_248\n      jump\t// in\n    tag_355:\n        /* \"#utility.yul\":2808:2927   */\n    tag_354:\n        /* \"#utility.yul\":2966:2967   */\n      0x00\n        /* \"#utility.yul\":2991:3044   */\n      tag_356\n        /* \"#utility.yul\":3036:3043   */\n      dup5\n        /* \"#utility.yul\":3027:3033   */\n      dup3\n        /* \"#utility.yul\":3016:3025   */\n      dup6\n        /* \"#utility.yul\":3012:3034   */\n      add\n        /* \"#utility.yul\":2991:3044   */\n      tag_261\n      jump\t// in\n    tag_356:\n        /* \"#utility.yul\":2981:3044   */\n      swap2\n      pop\n        /* \"#utility.yul\":2937:3054   */\n      pop\n        /* \"#utility.yul\":2732:3061   */\n      swap3\n      swap2\n      pop\n      pop\n      jump\t// out\n        /* \"#utility.yul\":3067:3277   */\n    tag_43:\n        /* \"#utility.yul\":3154:3158   */\n      0x00\n        /* \"#utility.yul\":3192:3194   */\n      0x20\n        /* \"#utility.yul\":3181:3190   */\n      dup3\n        /* \"#utility.yul\":3177:3195   */\n      add\n        /* \"#utility.yul\":3169:3195   */\n      swap1\n      pop\n        /* \"#utility.yul\":3205:3270   */\n      tag_358\n        /* \"#utility.yul\":3267:3268   */\n      0x00\n        /* \"#utility.yul\":3256:3265   */\n      dup4\n        /* \"#utility.yul\":3252:3269   */\n      add\n        /* \"#utility.yul\":3243:3249   */\n      dup5\n        /* \"#utility.yul\":3205:3270   */\n      tag_259\n      jump\t// in\n    tag_358:\n        /* \"#utility.yul\":3067:3277   */\n      swap3\n      swap2\n      pop\n      pop\n      jump\t// out\n        /* \"#utility.yul\":3283:3505   */\n    tag_56:\n        /* \"#utility.yul\":3376:3380   */\n      0x00\n        /* \"#utility.yul\":3414:3416   */\n      0x20\n        /* \"#utility.yul\":3403:3412   */\n      dup3\n        /* \"#utility.yul\":3399:3417   */\n      add\n        /* \"#utility.yul\":3391:3417   */\n      swap1\n      pop\n        /* \"#utility.yul\":3427:3498   */\n      tag_360\n        /* \"#utility.yul\":3495:3496   */\n      0x00\n        /* \"#utility.yul\":3484:3493   */\n      dup4\n        /* \"#utility.yul\":3480:3497   */\n      add\n        /* \"#utility.yul\":3471:3477   */\n      dup5\n        /* \"#utility.yul\":3427:3498   */\n      tag_257\n      jump\t// in\n    tag_360:\n        /* \"#utility.yul\":3283:3505   */\n      swap3\n      swap2\n      pop\n      pop\n      jump\t// out\n        /* \"#utility.yul\":3511:3571   */\n    tag_262:\n        /* \"#utility.yul\":3539:3542   */\n      0x00\n        /* \"#utility.yul\":3560:3565   */\n      dup2\n        /* \"#utility.yul\":3553:3565   */\n      swap1\n      pop\n        /* \"#utility.yul\":3511:3571   */\n      swap2\n      swap1\n      pop\n      jump\t// out\n        /* \"#utility.yul\":3577:3719   */\n    tag_263:\n        /* \"#utility.yul\":3627:3636   */\n      0x00\n        /* \"#utility.yul\":3660:3713   */\n      tag_363\n        /* \"#utility.yul\":3678:3712   */\n      tag_364\n        /* \"#utility.yul\":3687:3711   */\n      tag_365\n        /* \"#utility.yul\":3705:3710   */\n      dup5\n        /* \"#utility.yul\":3687:3711   */\n      tag_253\n      jump\t// in\n    tag_365:\n        /* \"#utility.yul\":3678:3712   */\n      tag_262\n      jump\t// in\n    tag_364:\n        /* \"#utility.yul\":3660:3713   */\n      tag_253\n      jump\t// in\n    tag_363:\n        /* \"#utility.yul\":3647:3713   */\n      swap1\n      pop\n        /* \"#utility.yul\":3577:3719   */\n      swap2\n      swap1\n      pop\n      jump\t// out\n        /* \"#utility.yul\":3725:3851   */\n    tag_264:\n        /* \"#utility.yul\":3775:3784   */\n      0x00\n        /* \"#utility.yul\":3808:3845   */\n      tag_367\n        /* \"#utility.yul\":3839:3844   */\n      dup3\n        /* \"#utility.yul\":3808:3845   */\n      tag_263\n      jump\t// in\n    tag_367:\n        /* \"#utility.yul\":3795:3845   */\n      swap1\n      pop\n        /* \"#utility.yul\":3725:3851   */\n      swap2\n      swap1\n      pop\n      jump\t// out\n        /* \"#utility.yul\":3857:3999   */\n    tag_265:\n        /* \"#utility.yul\":3923:3932   */\n      0x00\n        /* \"#utility.yul\":3956:3993   */\n      tag_369\n        /* \"#utility.yul\":3987:3992   */\n      dup3\n        /* \"#utility.yul\":3956:3993   */\n      tag_264\n      jump\t// in\n    tag_369:\n        /* \"#utility.yul\":3943:3993   */\n      swap1\n      pop\n        /* \"#utility.yul\":3857:3999   */\n      swap2\n      swap1\n      pop\n      jump\t// out\n        /* \"#utility.yul\":4005:4168   */\n    tag_266:\n        /* \"#utility.yul\":4108:4161   */\n      tag_371\n        /* \"#utility.yul\":4155:4160   */\n      dup2\n        /* \"#utility.yul\":4108:4161   */\n      tag_265\n      jump\t// in\n    tag_371:\n        /* \"#utility.yul\":4103:4106   */\n      dup3\n        /* \"#utility.yul\":4096:4162   */\n      mstore\n        /* \"#utility.yul\":4005:4168   */\n      pop\n      pop\n      jump\t// out\n        /* \"#utility.yul\":4174:4428   */\n    tag_60:\n        /* \"#utility.yul\":4283:4287   */\n      0x00\n        /* \"#utility.yul\":4321:4323   */\n      0x20\n        /* \"#utility.yul\":4310:4319   */\n      dup3\n        /* \"#utility.yul\":4306:4324   */\n      add\n        /* \"#utility.yul\":4298:4324   */\n      swap1\n      pop\n        /* \"#utility.yul\":4334:4421   */\n      tag_373\n        /* \"#utility.yul\":4418:4419   */\n      0x00\n        /* \"#utility.yul\":4407:4416   */\n      dup4\n        /* \"#utility.yul\":4403:4420   */\n      add\n        /* \"#utility.yul\":4394:4400   */\n      dup5\n        /* \"#utility.yul\":4334:4421   */\n      tag_266\n      jump\t// in\n    tag_373:\n        /* \"#utility.yul\":4174:4428   */\n      swap3\n      swap2\n      pop\n      pop\n      jump\t// out\n        /* \"#utility.yul\":4434:4556   */\n    tag_267:\n        /* \"#utility.yul\":4507:4531   */\n      tag_375\n        /* \"#utility.yul\":4525:4530   */\n      dup2\n        /* \"#utility.yul\":4507:4531   */\n      tag_256\n      jump\t// in\n    tag_375:\n        /* \"#utility.yul\":4500:4505   */\n      dup2\n        /* \"#utility.yul\":4497:4532   */\n      eq\n        /* \"#utility.yul\":4487:4550   */\n      tag_376\n      jumpi\n        /* \"#utility.yul\":4546:4547   */\n      0x00\n        /* \"#utility.yul\":4543:4544   */\n      dup1\n        /* \"#utility.yul\":4536:4548   */\n      revert\n        /* \"#utility.yul\":4487:4550   */\n    tag_376:\n        /* \"#utility.yul\":4434:4556   */\n      pop\n      jump\t// out\n        /* \"#utility.yul\":4562:4701   */\n    tag_268:\n        /* \"#utility.yul\":4608:4613   */\n      0x00\n        /* \"#utility.yul\":4646:4652   */\n      dup2\n        /* \"#utility.yul\":4633:4653   */\n      calldataload\n        /* \"#utility.yul\":4624:4653   */\n      swap1\n      pop\n        /* \"#utility.yul\":4662:4695   */\n      tag_378\n        /* \"#utility.yul\":4689:4694   */\n      dup2\n        /* \"#utility.yul\":4662:4695   */\n      tag_267\n      jump\t// in\n    tag_378:\n        /* \"#utility.yul\":4562:4701   */\n      swap3\n      swap2\n      pop\n      pop\n      jump\t// out\n        /* \"#utility.yul\":4707:5326   */\n    tag_72:\n        /* \"#utility.yul\":4784:4790   */\n      0x00\n        /* \"#utility.yul\":4792:4798   */\n      dup1\n        /* \"#utility.yul\":4800:4806   */\n      0x00\n        /* \"#utility.yul\":4849:4851   */\n      0x60\n        /* \"#utility.yul\":4837:4846   */\n      dup5\n        /* \"#utility.yul\":4828:4835   */\n      dup7\n        /* \"#utility.yul\":4824:4847   */\n      sub\n        /* \"#utility.yul\":4820:4852   */\n      slt\n        /* \"#utility.yul\":4817:4936   */\n      iszero\n      tag_380\n      jumpi\n        /* \"#utility.yul\":4855:4934   */\n      tag_381\n      tag_248\n      jump\t// in\n    tag_381:\n        /* \"#utility.yul\":4817:4936   */\n    tag_380:\n        /* \"#utility.yul\":4975:4976   */\n      0x00\n        /* \"#utility.yul\":5000:5053   */\n      tag_382\n        /* \"#utility.yul\":5045:5052   */\n      dup7\n        /* \"#utility.yul\":5036:5042   */\n      dup3\n        /* \"#utility.yul\":5025:5034   */\n      dup8\n        /* \"#utility.yul\":5021:5043   */\n      add\n        /* \"#utility.yul\":5000:5053   */\n      tag_261\n      jump\t// in\n    tag_382:\n        /* \"#utility.yul\":4990:5053   */\n      swap4\n      pop\n        /* \"#utility.yul\":4946:5063   */\n      pop\n        /* \"#utility.yul\":5102:5104   */\n      0x20\n        /* \"#utility.yul\":5128:5181   */\n      tag_383\n        /* \"#utility.yul\":5173:5180   */\n      dup7\n        /* \"#utility.yul\":5164:5170   */\n      dup3\n        /* \"#utility.yul\":5153:5162   */\n      dup8\n        /* \"#utility.yul\":5149:5171   */\n      add\n        /* \"#utility.yul\":5128:5181   */\n      tag_268\n      jump\t// in\n    tag_383:\n        /* \"#utility.yul\":5118:5181   */\n      swap3\n      pop\n        /* \"#utility.yul\":5073:5191   */\n      pop\n        /* \"#utility.yul\":5230:5232   */\n      0x40\n        /* \"#utility.yul\":5256:5309   */\n      tag_384\n        /* \"#utility.yul\":5301:5308   */\n      dup7\n        /* \"#utility.yul\":5292:5298   */\n      dup3\n        /* \"#utility.yul\":5281:5290   */\n      dup8\n        /* \"#utility.yul\":5277:5299   */\n      add\n        /* \"#utility.yul\":5256:5309   */\n      tag_252\n      jump\t// in\n    tag_384:\n        /* \"#utility.yul\":5246:5309   */\n      swap2\n      pop\n        /* \"#utility.yul\":5201:5319   */\n      pop\n        /* \"#utility.yul\":4707:5326   */\n      swap3\n      pop\n      swap3\n      pop\n      swap3\n      jump\t// out\n        /* \"#utility.yul\":5332:5554   */\n    tag_81:\n        /* \"#utility.yul\":5425:5429   */\n      0x00\n        /* \"#utility.yul\":5463:5465   */\n      0x20\n        /* \"#utility.yul\":5452:5461   */\n      dup3\n        /* \"#utility.yul\":5448:5466   */\n      add\n        /* \"#utility.yul\":5440:5466   */\n      swap1\n      pop\n        /* \"#utility.yul\":5476:5547   */\n      tag_386\n        /* \"#utility.yul\":5544:5545   */\n      0x00\n        /* \"#utility.yul\":5533:5542   */\n      dup4\n        /* \"#utility.yul\":5529:5546   */\n      add\n        /* \"#utility.yul\":5520:5526   */\n      dup5\n        /* \"#utility.yul\":5476:5547   */\n      tag_255\n      jump\t// in\n    tag_386:\n        /* \"#utility.yul\":5332:5554   */\n      swap3\n      swap2\n      pop\n      pop\n      jump\t// out\n        /* \"#utility.yul\":5560:6325   */\n    tag_90:\n        /* \"#utility.yul\":5646:5652   */\n      0x00\n        /* \"#utility.yul\":5654:5660   */\n      dup1\n        /* \"#utility.yul\":5662:5668   */\n      0x00\n        /* \"#utility.yul\":5670:5676   */\n      dup1\n        /* \"#utility.yul\":5719:5722   */\n      0x80\n        /* \"#utility.yul\":5707:5716   */\n      dup6\n        /* \"#utility.yul\":5698:5705   */\n      dup8\n        /* \"#utility.yul\":5694:5717   */\n      sub\n        /* \"#utility.yul\":5690:5723   */\n      slt\n        /* \"#utility.yul\":5687:5807   */\n      iszero\n      tag_388\n      jumpi\n        /* \"#utility.yul\":5726:5805   */\n      tag_389\n      tag_248\n      jump\t// in\n    tag_389:\n        /* \"#utility.yul\":5687:5807   */\n    tag_388:\n        /* \"#utility.yul\":5846:5847   */\n      0x00\n        /* \"#utility.yul\":5871:5924   */\n      tag_390\n        /* \"#utility.yul\":5916:5923   */\n      dup8\n        /* \"#utility.yul\":5907:5913   */\n      dup3\n        /* \"#utility.yul\":5896:5905   */\n      dup9\n        /* \"#utility.yul\":5892:5914   */\n      add\n        /* \"#utility.yul\":5871:5924   */\n      tag_268\n      jump\t// in\n    tag_390:\n        /* \"#utility.yul\":5861:5924   */\n      swap5\n      pop\n        /* \"#utility.yul\":5817:5934   */\n      pop\n        /* \"#utility.yul\":5973:5975   */\n      0x20\n        /* \"#utility.yul\":5999:6052   */\n      tag_391\n        /* \"#utility.yul\":6044:6051   */\n      dup8\n        /* \"#utility.yul\":6035:6041   */\n      dup3\n        /* \"#utility.yul\":6024:6033   */\n      dup9\n        /* \"#utility.yul\":6020:6042   */\n      add\n        /* \"#utility.yul\":5999:6052   */\n      tag_268\n      jump\t// in\n    tag_391:\n        /* \"#utility.yul\":5989:6052   */\n      swap4\n      pop\n        /* \"#utility.yul\":5944:6062   */\n      pop\n        /* \"#utility.yul\":6101:6103   */\n      0x40\n        /* \"#utility.yul\":6127:6180   */\n      tag_392\n        /* \"#utility.yul\":6172:6179   */\n      dup8\n        /* \"#utility.yul\":6163:6169   */\n      dup3\n        /* \"#utility.yul\":6152:6161   */\n      dup9\n        /* \"#utility.yul\":6148:6170   */\n      add\n        /* \"#utility.yul\":6127:6180   */\n      tag_268\n      jump\t// in\n    tag_392:\n        /* \"#utility.yul\":6117:6180   */\n      swap3\n      pop\n        /* \"#utility.yul\":6072:6190   */\n      pop\n        /* \"#utility.yul\":6229:6231   */\n      0x60\n        /* \"#utility.yul\":6255:6308   */\n      tag_393\n        /* \"#utility.yul\":6300:6307   */\n      dup8\n        /* \"#utility.yul\":6291:6297   */\n      dup3\n        /* \"#utility.yul\":6280:6289   */\n      dup9\n        /* \"#utility.yul\":6276:6298   */\n      add\n        /* \"#utility.yul\":6255:6308   */\n      tag_268\n      jump\t// in\n    tag_393:\n        /* \"#utility.yul\":6245:6308   */\n      swap2\n      pop\n        /* \"#utility.yul\":6200:6318   */\n      pop\n        /* \"#utility.yul\":5560:6325   */\n      swap3\n      swap6\n      swap2\n      swap5\n      pop\n      swap3\n      pop\n      jump\t// out\n        /* \"#utility.yul\":6331:6805   */\n    tag_100:\n        /* \"#utility.yul\":6399:6405   */\n      0x00\n        /* \"#utility.yul\":6407:6413   */\n      dup1\n        /* \"#utility.yul\":6456:6458   */\n      0x40\n        /* \"#utility.yul\":6444:6453   */\n      dup4\n        /* \"#utility.yul\":6435:6442   */\n      dup6\n        /* \"#utility.yul\":6431:6454   */\n      sub\n        /* \"#utility.yul\":6427:6459   */\n      slt\n        /* \"#utility.yul\":6424:6543   */\n      iszero\n      tag_395\n      jumpi\n        /* \"#utility.yul\":6462:6541   */\n      tag_396\n      tag_248\n      jump\t// in\n    tag_396:\n        /* \"#utility.yul\":6424:6543   */\n    tag_395:\n        /* \"#utility.yul\":6582:6583   */\n      0x00\n        /* \"#utility.yul\":6607:6660   */\n      tag_397\n        /* \"#utility.yul\":6652:6659   */\n      dup6\n        /* \"#utility.yul\":6643:6649   */\n      dup3\n        /* \"#utility.yul\":6632:6641   */\n      dup7\n        /* \"#utility.yul\":6628:6650   */\n      add\n        /* \"#utility.yul\":6607:6660   */\n      tag_268\n      jump\t// in\n    tag_397:\n        /* \"#utility.yul\":6597:6660   */\n      swap3\n      pop\n        /* \"#utility.yul\":6553:6670   */\n      pop\n        /* \"#utility.yul\":6709:6711   */\n      0x20\n        /* \"#utility.yul\":6735:6788   */\n      tag_398\n        /* \"#utility.yul\":6780:6787   */\n      dup6\n        /* \"#utility.yul\":6771:6777   */\n      dup3\n        /* \"#utility.yul\":6760:6769   */\n      dup7\n        /* \"#utility.yul\":6756:6778   */\n      add\n        /* \"#utility.yul\":6735:6788   */\n      tag_261\n      jump\t// in\n    tag_398:\n        /* \"#utility.yul\":6725:6788   */\n      swap2\n      pop\n        /* \"#utility.yul\":6680:6798   */\n      pop\n        /* \"#utility.yul\":6331:6805   */\n      swap3\n      pop\n      swap3\n      swap1\n      pop\n      jump\t// out\n        /* \"#utility.yul\":6811:6980   */\n    tag_269:\n        /* \"#utility.yul\":6895:6906   */\n      0x00\n        /* \"#utility.yul\":6929:6935   */\n      dup3\n        /* \"#utility.yul\":6924:6927   */\n      dup3\n        /* \"#utility.yul\":6917:6936   */\n      mstore\n        /* \"#utility.yul\":6969:6973   */\n      0x20\n        /* \"#utility.yul\":6964:6967   */\n      dup3\n        /* \"#utility.yul\":6960:6974   */\n      add\n        /* \"#utility.yul\":6945:6974   */\n      swap1\n      pop\n        /* \"#utility.yul\":6811:6980   */\n      swap3\n      swap2\n      pop\n      pop\n      jump\t// out\n        /* \"#utility.yul\":6986:7163   */\n    tag_270:\n        /* \"#utility.yul\":7126:7155   */\n      0x4272696467653a2063616c6c6572206973206e6f74206f776e65720000000000\n        /* \"#utility.yul\":7122:7123   */\n      0x00\n        /* \"#utility.yul\":7114:7120   */\n      dup3\n        /* \"#utility.yul\":7110:7124   */\n      add\n        /* \"#utility.yul\":7103:7156   */\n      mstore\n        /* \"#utility.yul\":6986:7163   */\n      pop\n      jump\t// out\n        /* \"#utility.yul\":7169:7535   */\n    tag_271:\n        /* \"#utility.yul\":7311:7314   */\n      0x00\n        /* \"#utility.yul\":7332:7399   */\n      tag_402\n        /* \"#utility.yul\":7396:7398   */\n      0x1b\n        /* \"#utility.yul\":7391:7394   */\n      dup4\n        /* \"#utility.yul\":7332:7399   */\n      tag_269\n      jump\t// in\n    tag_402:\n        /* \"#utility.yul\":7325:7399   */\n      swap2\n      pop\n        /* \"#utility.yul\":7408:7501   */\n      tag_403\n        /* \"#utility.yul\":7497:7500   */\n      dup3\n        /* \"#utility.yul\":7408:7501   */\n      tag_270\n      jump\t// in\n    tag_403:\n        /* \"#utility.yul\":7526:7528   */\n      0x20\n        /* \"#utility.yul\":7521:7524   */\n      dup3\n        /* \"#utility.yul\":7517:7529   */\n      add\n        /* \"#utility.yul\":7510:7529   */\n      swap1\n      pop\n        /* \"#utility.yul\":7169:7535   */\n      swap2\n      swap1\n      pop\n      jump\t// out\n        /* \"#utility.yul\":7541:7960   */\n    tag_122:\n        /* \"#utility.yul\":7707:7711   */\n      0x00\n        /* \"#utility.yul\":7745:7747   */\n      0x20\n        /* \"#utility.yul\":7734:7743   */\n      dup3\n        /* \"#utility.yul\":7730:7748   */\n      add\n        /* \"#utility.yul\":7722:7748   */\n      swap1\n      pop\n        /* \"#utility.yul\":7794:7803   */\n      dup2\n        /* \"#utility.yul\":7788:7792   */\n      dup2\n        /* \"#utility.yul\":7784:7804   */\n      sub\n        /* \"#utility.yul\":7780:7781   */\n      0x00\n        /* \"#utility.yul\":7769:7778   */\n      dup4\n        /* \"#utility.yul\":7765:7782   */\n      add\n        /* \"#utility.yul\":7758:7805   */\n      mstore\n        /* \"#utility.yul\":7822:7953   */\n      tag_405\n        /* \"#utility.yul\":7948:7952   */\n      dup2\n        /* \"#utility.yul\":7822:7953   */\n      tag_271\n      jump\t// in\n    tag_405:\n        /* \"#utility.yul\":7814:7953   */\n      swap1\n      pop\n        /* \"#utility.yul\":7541:7960   */\n      swap2\n      swap1\n      pop\n      jump\t// out\n        /* \"#utility.yul\":7966:8145   */\n    tag_272:\n        /* \"#utility.yul\":8106:8137   */\n      0x4272696467653a20696e76616c69642075736463702061646472657373000000\n        /* \"#utility.yul\":8102:8103   */\n      0x00\n        /* \"#utility.yul\":8094:8100   */\n      dup3\n        /* \"#utility.yul\":8090:8104   */\n      add\n        /* \"#utility.yul\":8083:8138   */\n      mstore\n        /* \"#utility.yul\":7966:8145   */\n      pop\n      jump\t// out\n        /* \"#utility.yul\":8151:8517   */\n    tag_273:\n        /* \"#utility.yul\":8293:8296   */\n      0x00\n        /* \"#utility.yul\":8314:8381   */\n      tag_408\n        /* \"#utility.yul\":8378:8380   */\n      0x1d\n        /* \"#utility.yul\":8373:8376   */\n      dup4\n        /* \"#utility.yul\":8314:8381   */\n      tag_269\n      jump\t// in\n    tag_408:\n        /* \"#utility.yul\":8307:8381   */\n      swap2\n      pop\n        /* \"#utility.yul\":8390:8483   */\n      tag_409\n        /* \"#utility.yul\":8479:8482   */\n      dup3\n        /* \"#utility.yul\":8390:8483   */\n      tag_272\n      jump\t// in\n    tag_409:\n        /* \"#utility.yul\":8508:8510   */\n      0x20\n        /* \"#utility.yul\":8503:8506   */\n      dup3\n        /* \"#utility.yul\":8499:8511   */\n      add\n        /* \"#utility.yul\":8492:8511   */\n      swap1\n      pop\n        /* \"#utility.yul\":8151:8517   */\n      swap2\n      swap1\n      pop\n      jump\t// out\n        /* \"#utility.yul\":8523:8942   */\n    tag_126:\n        /* \"#utility.yul\":8689:8693   */\n      0x00\n        /* \"#utility.yul\":8727:8729   */\n      0x20\n        /* \"#utility.yul\":8716:8725   */\n      dup3\n        /* \"#utility.yul\":8712:8730   */\n      add\n        /* \"#utility.yul\":8704:8730   */\n      swap1\n      pop\n        /* \"#utility.yul\":8776:8785   */\n      dup2\n        /* \"#utility.yul\":8770:8774   */\n      dup2\n        /* \"#utility.yul\":8766:8786   */\n      sub\n        /* \"#utility.yul\":8762:8763   */\n      0x00\n        /* \"#utility.yul\":8751:8760   */\n      dup4\n        /* \"#utility.yul\":8747:8764   */\n      add\n        /* \"#utility.yul\":8740:8787   */\n      mstore\n        /* \"#utility.yul\":8804:8935   */\n      tag_411\n        /* \"#utility.yul\":8930:8934   */\n      dup2\n        /* \"#utility.yul\":8804:8935   */\n      tag_273\n      jump\t// in\n    tag_411:\n        /* \"#utility.yul\":8796:8935   */\n      swap1\n      pop\n        /* \"#utility.yul\":8523:8942   */\n      swap2\n      swap1\n      pop\n      jump\t// out\n        /* \"#utility.yul\":8948:9128   */\n    tag_274:\n        /* \"#utility.yul\":9088:9120   */\n      0x4272696467653a2063616c6c6572206973206e6f74206f70657261746f720000\n        /* \"#utility.yul\":9084:9085   */\n      0x00\n        /* \"#utility.yul\":9076:9082   */\n      dup3\n        /* \"#utility.yul\":9072:9086   */\n      add\n        /* \"#utility.yul\":9065:9121   */\n      mstore\n        /* \"#utility.yul\":8948:9128   */\n      pop\n      jump\t// out\n        /* \"#utility.yul\":9134:9500   */\n    tag_275:\n        /* \"#utility.yul\":9276:9279   */\n      0x00\n        /* \"#utility.yul\":9297:9364   */\n      tag_414\n        /* \"#utility.yul\":9361:9363   */\n      0x1e\n        /* \"#utility.yul\":9356:9359   */\n      dup4\n        /* \"#utility.yul\":9297:9364   */\n      tag_269\n      jump\t// in\n    tag_414:\n        /* \"#utility.yul\":9290:9364   */\n      swap2\n      pop\n        /* \"#utility.yul\":9373:9466   */\n      tag_415\n        /* \"#utility.yul\":9462:9465   */\n      dup3\n        /* \"#utility.yul\":9373:9466   */\n      tag_274\n      jump\t// in\n    tag_415:\n        /* \"#utility.yul\":9491:9493   */\n      0x20\n        /* \"#utility.yul\":9486:9489   */\n      dup3\n        /* \"#utility.yul\":9482:9494   */\n      add\n        /* \"#utility.yul\":9475:9494   */\n      swap1\n      pop\n        /* \"#utility.yul\":9134:9500   */\n      swap2\n      swap1\n      pop\n      jump\t// out\n        /* \"#utility.yul\":9506:9925   */\n    tag_135:\n        /* \"#utility.yul\":9672:9676   */\n      0x00\n        /* \"#utility.yul\":9710:9712   */\n      0x20\n        /* \"#utility.yul\":9699:9708   */\n      dup3\n        /* \"#utility.yul\":9695:9713   */\n      add\n        /* \"#utility.yul\":9687:9713   */\n      swap1\n      pop\n        /* \"#utility.yul\":9759:9768   */\n      dup2\n        /* \"#utility.yul\":9753:9757   */\n      dup2\n        /* \"#utility.yul\":9749:9769   */\n      sub\n        /* \"#utility.yul\":9745:9746   */\n      0x00\n        /* \"#utility.yul\":9734:9743   */\n      dup4\n        /* \"#utility.yul\":9730:9747   */\n      add\n        /* \"#utility.yul\":9723:9770   */\n      mstore\n        /* \"#utility.yul\":9787:9918   */\n      tag_417\n        /* \"#utility.yul\":9913:9917   */\n      dup2\n        /* \"#utility.yul\":9787:9918   */\n      tag_275\n      jump\t// in\n    tag_417:\n        /* \"#utility.yul\":9779:9918   */\n      swap1\n      pop\n        /* \"#utility.yul\":9506:9925   */\n      swap2\n      swap1\n      pop\n      jump\t// out\n        /* \"#utility.yul\":9931:10107   */\n    tag_276:\n        /* \"#utility.yul\":10071:10099   */\n      0x4272696467653a207769746864726177206e6f7420666f756e64000000000000\n        /* \"#utility.yul\":10067:10068   */\n      0x00\n        /* \"#utility.yul\":10059:10065   */\n      dup3\n        /* \"#utility.yul\":10055:10069   */\n      add\n        /* \"#utility.yul\":10048:10100   */\n      mstore\n        /* \"#utility.yul\":9931:10107   */\n      pop\n      jump\t// out\n        /* \"#utility.yul\":10113:10479   */\n    tag_277:\n        /* \"#utility.yul\":10255:10258   */\n      0x00\n        /* \"#utility.yul\":10276:10343   */\n      tag_420\n        /* \"#utility.yul\":10340:10342   */\n      0x1a\n        /* \"#utility.yul\":10335:10338   */\n      dup4\n        /* \"#utility.yul\":10276:10343   */\n      tag_269\n      jump\t// in\n    tag_420:\n        /* \"#utility.yul\":10269:10343   */\n      swap2\n      pop\n        /* \"#utility.yul\":10352:10445   */\n      tag_421\n        /* \"#utility.yul\":10441:10444   */\n      dup3\n        /* \"#utility.yul\":10352:10445   */\n      tag_276\n      jump\t// in\n    tag_421:\n        /* \"#utility.yul\":10470:10472   */\n      0x20\n        /* \"#utility.yul\":10465:10468   */\n      dup3\n        /* \"#utility.yul\":10461:10473   */\n      add\n        /* \"#utility.yul\":10454:10473   */\n      swap1\n      pop\n        /* \"#utility.yul\":10113:10479   */\n      swap2\n      swap1\n      pop\n      jump\t// out\n        /* \"#utility.yul\":10485:10904   */\n    tag_139:\n        /* \"#utility.yul\":10651:10655   */\n      0x00\n        /* \"#utility.yul\":10689:10691   */\n      0x20\n        /* \"#utility.yul\":10678:10687   */\n      dup3\n        /* \"#utility.yul\":10674:10692   */\n      add\n        /* \"#utility.yul\":10666:10692   */\n      swap1\n      pop\n        /* \"#utility.yul\":10738:10747   */\n      dup2\n        /* \"#utility.yul\":10732:10736   */\n      dup2\n        /* \"#utility.yul\":10728:10748   */\n      sub\n        /* \"#utility.yul\":10724:10725   */\n      0x00\n        /* \"#utility.yul\":10713:10722   */\n      dup4\n        /* \"#utility.yul\":10709:10726   */\n      add\n        /* \"#utility.yul\":10702:10749   */\n      mstore\n        /* \"#utility.yul\":10766:10897   */\n      tag_423\n        /* \"#utility.yul\":10892:10896   */\n      dup2\n        /* \"#utility.yul\":10766:10897   */\n      tag_277\n      jump\t// in\n    tag_423:\n        /* \"#utility.yul\":10758:10897   */\n      swap1\n      pop\n        /* \"#utility.yul\":10485:10904   */\n      swap2\n      swap1\n      pop\n      jump\t// out\n        /* \"#utility.yul\":10910:11085   */\n    tag_278:\n        /* \"#utility.yul\":11050:11077   */\n      0x4272696467653a20616c72656164792070726f63657373656400000000000000\n        /* \"#utility.yul\":11046:11047   */\n      0x00\n        /* \"#utility.yul\":11038:11044   */\n      dup3\n        /* \"#utility.yul\":11034:11048   */\n      add\n        /* \"#utility.yul\":11027:11078   */\n      mstore\n        /* \"#utility.yul\":10910:11085   */\n      pop\n      jump\t// out\n        /* \"#utility.yul\":11091:11457   */\n    tag_279:\n        /* \"#utility.yul\":11233:11236   */\n      0x00\n        /* \"#utility.yul\":11254:11321   */\n      tag_426\n        /* \"#utility.yul\":11318:11320   */\n      0x19\n        /* \"#utility.yul\":11313:11316   */\n      dup4\n        /* \"#utility.yul\":11254:11321   */\n      tag_269\n      jump\t// in\n    tag_426:\n        /* \"#utility.yul\":11247:11321   */\n      swap2\n      pop\n        /* \"#utility.yul\":11330:11423   */\n      tag_427\n        /* \"#utility.yul\":11419:11422   */\n      dup3\n        /* \"#utility.yul\":11330:11423   */\n      tag_278\n      jump\t// in\n    tag_427:\n        /* \"#utility.yul\":11448:11450   */\n      0x20\n        /* \"#utility.yul\":11443:11446   */\n      dup3\n        /* \"#utility.yul\":11439:11451   */\n      add\n        /* \"#utility.yul\":11432:11451   */\n      swap1\n      pop\n        /* \"#utility.yul\":11091:11457   */\n      swap2\n      swap1\n      pop\n      jump\t// out\n        /* \"#utility.yul\":11463:11882   */\n    tag_142:\n        /* \"#utility.yul\":11629:11633   */\n      0x00\n        /* \"#utility.yul\":11667:11669   */\n      0x20\n        /* \"#utility.yul\":11656:11665   */\n      dup3\n        /* \"#utility.yul\":11652:11670   */\n      add\n        /* \"#utility.yul\":11644:11670   */\n      swap1\n      pop\n        /* \"#utility.yul\":11716:11725   */\n      dup2\n        /* \"#utility.yul\":11710:11714   */\n      dup2\n        /* \"#utility.yul\":11706:11726   */\n      sub\n        /* \"#utility.yul\":11702:11703   */\n      0x00\n        /* \"#utility.yul\":11691:11700   */\n      dup4\n        /* \"#utility.yul\":11687:11704   */\n      add\n        /* \"#utility.yul\":11680:11727   */\n      mstore\n        /* \"#utility.yul\":11744:11875   */\n      tag_429\n        /* \"#utility.yul\":11870:11874   */\n      dup2\n        /* \"#utility.yul\":11744:11875   */\n      tag_279\n      jump\t// in\n    tag_429:\n        /* \"#utility.yul\":11736:11875   */\n      swap1\n      pop\n        /* \"#utility.yul\":11463:11882   */\n      swap2\n      swap1\n      pop\n      jump\t// out\n        /* \"#utility.yul\":11888:12052   */\n    tag_280:\n        /* \"#utility.yul\":12028:12044   */\n      0x4272696467653a20706175736564000000000000000000000000000000000000\n        /* \"#utility.yul\":12024:12025   */\n      0x00\n        /* \"#utility.yul\":12016:12022   */\n      dup3\n        /* \"#utility.yul\":12012:12026   */\n      add\n        /* \"#utility.yul\":12005:12045   */\n      mstore\n        /* \"#utility.yul\":11888:12052   */\n      pop\n      jump\t// out\n        /* \"#utility.yul\":12058:12424   */\n    tag_281:\n        /* \"#utility.yul\":12200:12203   */\n      0x00\n        /* \"#utility.yul\":12221:12288   */\n      tag_432\n        /* \"#utility.yul\":12285:12287   */\n      0x0e\n        /* \"#utility.yul\":12280:12283   */\n      dup4\n        /* \"#utility.yul\":12221:12288   */\n      tag_269\n      jump\t// in\n    tag_432:\n        /* \"#utility.yul\":12214:12288   */\n      swap2\n      pop\n        /* \"#utility.yul\":12297:12390   */\n      tag_433\n        /* \"#utility.yul\":12386:12389   */\n      dup3\n        /* \"#utility.yul\":12297:12390   */\n      tag_280\n      jump\t// in\n    tag_433:\n        /* \"#utility.yul\":12415:12417   */\n      0x20\n        /* \"#utility.yul\":12410:12413   */\n      dup3\n        /* \"#utility.yul\":12406:12418   */\n      add\n        /* \"#utility.yul\":12399:12418   */\n      swap1\n      pop\n        /* \"#utility.yul\":12058:12424   */\n      swap2\n      swap1\n      pop\n      jump\t// out\n        /* \"#utility.yul\":12430:12849   */\n    tag_149:\n        /* \"#utility.yul\":12596:12600   */\n      0x00\n        /* \"#utility.yul\":12634:12636   */\n      0x20\n        /* \"#utility.yul\":12623:12632   */\n      dup3\n        /* \"#utility.yul\":12619:12637   */\n      add\n        /* \"#utility.yul\":12611:12637   */\n      swap1\n      pop\n        /* \"#utility.yul\":12683:12692   */\n      dup2\n        /* \"#utility.yul\":12677:12681   */\n      dup2\n        /* \"#utility.yul\":12673:12693   */\n      sub\n        /* \"#utility.yul\":12669:12670   */\n      0x00\n        /* \"#utility.yul\":12658:12667   */\n      dup4\n        /* \"#utility.yul\":12654:12671   */\n      add\n        /* \"#utility.yul\":12647:12694   */\n      mstore\n        /* \"#utility.yul\":12711:12842   */\n      tag_435\n        /* \"#utility.yul\":12837:12841   */\n      dup2\n        /* \"#utility.yul\":12711:12842   */\n      tag_281\n      jump\t// in\n    tag_435:\n        /* \"#utility.yul\":12703:12842   */\n      swap1\n      pop\n        /* \"#utility.yul\":12430:12849   */\n      swap2\n      swap1\n      pop\n      jump\t// out\n        /* \"#utility.yul\":12855:13030   */\n    tag_282:\n        /* \"#utility.yul\":12995:13022   */\n      0x4272696467653a20696e76616c696420726563697069656e7400000000000000\n        /* \"#utility.yul\":12991:12992   */\n      0x00\n        /* \"#utility.yul\":12983:12989   */\n      dup3\n        /* \"#utility.yul\":12979:12993   */\n      add\n        /* \"#utility.yul\":12972:13023   */\n      mstore\n        /* \"#utility.yul\":12855:13030   */\n      pop\n      jump\t// out\n        /* \"#utility.yul\":13036:13402   */\n    tag_283:\n        /* \"#utility.yul\":13178:13181   */\n      0x00\n        /* \"#utility.yul\":13199:13266   */\n      tag_438\n        /* \"#utility.yul\":13263:13265   */\n      0x19\n        /* \"#utility.yul\":13258:13261   */\n      dup4\n        /* \"#utility.yul\":13199:13266   */\n      tag_269\n      jump\t// in\n    tag_438:\n        /* \"#utility.yul\":13192:13266   */\n      swap2\n      pop\n        /* \"#utility.yul\":13275:13368   */\n      tag_439\n        /* \"#utility.yul\":13364:13367   */\n      dup3\n        /* \"#utility.yul\":13275:13368   */\n      tag_282\n      jump\t// in\n    tag_439:\n        /* \"#utility.yul\":13393:13395   */\n      0x20\n        /* \"#utility.yul\":13388:13391   */\n      dup3\n        /* \"#utility.yul\":13384:13396   */\n      add\n        /* \"#utility.yul\":13377:13396   */\n      swap1\n      pop\n        /* \"#utility.yul\":13036:13402   */\n      swap2\n      swap1\n      pop\n      jump\t// out\n        /* \"#utility.yul\":13408:13827   */\n    tag_153:\n        /* \"#utility.yul\":13574:13578   */\n      0x00\n        /* \"#utility.yul\":13612:13614   */\n      0x20\n        /* \"#utility.yul\":13601:13610   */\n      dup3\n        /* \"#utility.yul\":13597:13615   */\n      add\n        /* \"#utility.yul\":13589:13615   */\n      swap1\n      pop\n        /* \"#utility.yul\":13661:13670   */\n      dup2\n        /* \"#utility.yul\":13655:13659   */\n      dup2\n        /* \"#utility.yul\":13651:13671   */\n      sub\n        /* \"#utility.yul\":13647:13648   */\n      0x00\n        /* \"#utility.yul\":13636:13645   */\n      dup4\n        /* \"#utility.yul\":13632:13649   */\n      add\n        /* \"#utility.yul\":13625:13672   */\n      mstore\n        /* \"#utility.yul\":13689:13820   */\n      tag_441\n        /* \"#utility.yul\":13815:13819   */\n      dup2\n        /* \"#utility.yul\":13689:13820   */\n      tag_283\n      jump\t// in\n    tag_441:\n        /* \"#utility.yul\":13681:13820   */\n      swap1\n      pop\n        /* \"#utility.yul\":13408:13827   */\n      swap2\n      swap1\n      pop\n      jump\t// out\n        /* \"#utility.yul\":13833:14011   */\n    tag_284:\n        /* \"#utility.yul\":13973:14003   */\n      0x4272696467653a20616d6f756e742062656c6f77206d696e696d756d00000000\n        /* \"#utility.yul\":13969:13970   */\n      0x00\n        /* \"#utility.yul\":13961:13967   */\n      dup3\n        /* \"#utility.yul\":13957:13971   */\n      add\n        /* \"#utility.yul\":13950:14004   */\n      mstore\n        /* \"#utility.yul\":13833:14011   */\n      pop\n      jump\t// out\n        /* \"#utility.yul\":14017:14383   */\n    tag_285:\n        /* \"#utility.yul\":14159:14162   */\n      0x00\n        /* \"#utility.yul\":14180:14247   */\n      tag_444\n        /* \"#utility.yul\":14244:14246   */\n      0x1c\n        /* \"#utility.yul\":14239:14242   */\n      dup4\n        /* \"#utility.yul\":14180:14247   */\n      tag_269\n      jump\t// in\n    tag_444:\n        /* \"#utility.yul\":14173:14247   */\n      swap2\n      pop\n        /* \"#utility.yul\":14256:14349   */\n      tag_445\n        /* \"#utility.yul\":14345:14348   */\n      dup3\n        /* \"#utility.yul\":14256:14349   */\n      tag_284\n      jump\t// in\n    tag_445:\n        /* \"#utility.yul\":14374:14376   */\n      0x20\n        /* \"#utility.yul\":14369:14372   */\n      dup3\n        /* \"#utility.yul\":14365:14377   */\n      add\n        /* \"#utility.yul\":14358:14377   */\n      swap1\n      pop\n        /* \"#utility.yul\":14017:14383   */\n      swap2\n      swap1\n      pop\n      jump\t// out\n        /* \"#utility.yul\":14389:14808   */\n    tag_156:\n        /* \"#utility.yul\":14555:14559   */\n      0x00\n        /* \"#utility.yul\":14593:14595   */\n      0x20\n        /* \"#utility.yul\":14582:14591   */\n      dup3\n        /* \"#utility.yul\":14578:14596   */\n      add\n        /* \"#utility.yul\":14570:14596   */\n      swap1\n      pop\n        /* \"#utility.yul\":14642:14651   */\n      dup2\n        /* \"#utility.yul\":14636:14640   */\n      dup2\n        /* \"#utility.yul\":14632:14652   */\n      sub\n        /* \"#utility.yul\":14628:14629   */\n      0x00\n        /* \"#utility.yul\":14617:14626   */\n      dup4\n        /* \"#utility.yul\":14613:14630   */\n      add\n        /* \"#utility.yul\":14606:14653   */\n      mstore\n        /* \"#utility.yul\":14670:14801   */\n      tag_447\n        /* \"#utility.yul\":14796:14800   */\n      dup2\n        /* \"#utility.yul\":14670:14801   */\n      tag_285\n      jump\t// in\n    tag_447:\n        /* \"#utility.yul\":14662:14801   */\n      swap1\n      pop\n        /* \"#utility.yul\":14389:14808   */\n      swap2\n      swap1\n      pop\n      jump\t// out\n        /* \"#utility.yul\":14814:14992   */\n    tag_286:\n        /* \"#utility.yul\":14954:14984   */\n      0x4272696467653a20616d6f756e742061626f7665206d6178696d756d00000000\n        /* \"#utility.yul\":14950:14951   */\n      0x00\n        /* \"#utility.yul\":14942:14948   */\n      dup3\n        /* \"#utility.yul\":14938:14952   */\n      add\n        /* \"#utility.yul\":14931:14985   */\n      mstore\n        /* \"#utility.yul\":14814:14992   */\n      pop\n      jump\t// out\n        /* \"#utility.yul\":14998:15364   */\n    tag_287:\n        /* \"#utility.yul\":15140:15143   */\n      0x00\n        /* \"#utility.yul\":15161:15228   */\n      tag_450\n        /* \"#utility.yul\":15225:15227   */\n      0x1c\n        /* \"#utility.yul\":15220:15223   */\n      dup4\n        /* \"#utility.yul\":15161:15228   */\n      tag_269\n      jump\t// in\n    tag_450:\n        /* \"#utility.yul\":15154:15228   */\n      swap2\n      pop\n        /* \"#utility.yul\":15237:15330   */\n      tag_451\n        /* \"#utility.yul\":15326:15329   */\n      dup3\n        /* \"#utility.yul\":15237:15330   */\n      tag_286\n      jump\t// in\n    tag_451:\n        /* \"#utility.yul\":15355:15357   */\n      0x20\n        /* \"#utility.yul\":15350:15353   */\n      dup3\n        /* \"#utility.yul\":15346:15358   */\n      add\n        /* \"#utility.yul\":15339:15358   */\n      swap1\n      pop\n        /* \"#utility.yul\":14998:15364   */\n      swap2\n      swap1\n      pop\n      jump\t// out\n        /* \"#utility.yul\":15370:15789   */\n    tag_159:\n        /* \"#utility.yul\":15536:15540   */\n      0x00\n        /* \"#utility.yul\":15574:15576   */\n      0x20\n        /* \"#utility.yul\":15563:15572   */\n      dup3\n        /* \"#utility.yul\":15559:15577   */\n      add\n        /* \"#utility.yul\":15551:15577   */\n      swap1\n      pop\n        /* \"#utility.yul\":15623:15632   */\n      dup2\n        /* \"#utility.yul\":15617:15621   */\n      dup2\n        /* \"#utility.yul\":15613:15633   */\n      sub\n        /* \"#utility.yul\":15609:15610   */\n      0x00\n        /* \"#utility.yul\":15598:15607   */\n      dup4\n        /* \"#utility.yul\":15594:15611   */\n      add\n        /* \"#utility.yul\":15587:15634   */\n      mstore\n        /* \"#utility.yul\":15651:15782   */\n      tag_453\n        /* \"#utility.yul\":15777:15781   */\n      dup2\n        /* \"#utility.yul\":15651:15782   */\n      tag_287\n      jump\t// in\n    tag_453:\n        /* \"#utility.yul\":15643:15782   */\n      swap1\n      pop\n        /* \"#utility.yul\":15370:15789   */\n      swap2\n      swap1\n      pop\n      jump\t// out\n        /* \"#utility.yul\":15795:15874   */\n    tag_288:\n        /* \"#utility.yul\":15834:15841   */\n      0x00\n        /* \"#utility.yul\":15863:15868   */\n      dup2\n        /* \"#utility.yul\":15852:15868   */\n      swap1\n      pop\n        /* \"#utility.yul\":15795:15874   */\n      swap2\n      swap1\n      pop\n      jump\t// out\n        /* \"#utility.yul\":15880:16037   */\n    tag_289:\n        /* \"#utility.yul\":15985:16030   */\n      tag_456\n        /* \"#utility.yul\":16005:16029   */\n      tag_457\n        /* \"#utility.yul\":16023:16028   */\n      dup3\n        /* \"#utility.yul\":16005:16029   */\n      tag_250\n      jump\t// in\n    tag_457:\n        /* \"#utility.yul\":15985:16030   */\n      tag_288\n      jump\t// in\n    tag_456:\n        /* \"#utility.yul\":15980:15983   */\n      dup3\n        /* \"#utility.yul\":15973:16031   */\n      mstore\n        /* \"#utility.yul\":15880:16037   */\n      pop\n      pop\n      jump\t// out\n        /* \"#utility.yul\":16043:16137   */\n    tag_290:\n        /* \"#utility.yul\":16076:16084   */\n      0x00\n        /* \"#utility.yul\":16124:16129   */\n      dup2\n        /* \"#utility.yul\":16120:16122   */\n      0x60\n        /* \"#utility.yul\":16116:16130   */\n      shl\n        /* \"#utility.yul\":16095:16130   */\n      swap1\n      pop\n        /* \"#utility.yul\":16043:16137   */\n      swap2\n      swap1\n      pop\n      jump\t// out\n        /* \"#utility.yul\":16143:16237   */\n    tag_291:\n        /* \"#utility.yul\":16182:16189   */\n      0x00\n        /* \"#utility.yul\":16211:16231   */\n      tag_460\n        /* \"#utility.yul\":16225:16230   */\n      dup3\n        /* \"#utility.yul\":16211:16231   */\n      tag_290\n      jump\t// in\n    tag_460:\n        /* \"#utility.yul\":16200:16231   */\n      swap1\n      pop\n        /* \"#utility.yul\":16143:16237   */\n      swap2\n      swap1\n      pop\n      jump\t// out\n        /* \"#utility.yul\":16243:16343   */\n    tag_292:\n        /* \"#utility.yul\":16282:16289   */\n      0x00\n        /* \"#utility.yul\":16311:16337   */\n      tag_462\n        /* \"#utility.yul\":16331:16336   */\n      dup3\n        /* \"#utility.yul\":16311:16337   */\n      tag_291\n      jump\t// in\n    tag_462:\n        /* \"#utility.yul\":16300:16337   */\n      swap1\n      pop\n        /* \"#utility.yul\":16243:16343   */\n      swap2\n      swap1\n      pop\n      jump\t// out\n        /* \"#utility.yul\":16349:16506   */\n    tag_293:\n        /* \"#utility.yul\":16454:16499   */\n      tag_464\n        /* \"#utility.yul\":16474:16498   */\n      tag_465\n        /* \"#utility.yul\":16492:16497   */\n      dup3\n        /* \"#utility.yul\":16474:16498   */\n      tag_254\n      jump\t// in\n    tag_465:\n        /* \"#utility.yul\":16454:16499   */\n      tag_292\n      jump\t// in\n    tag_464:\n        /* \"#utility.yul\":16449:16452   */\n      dup3\n        /* \"#utility.yul\":16442:16500   */\n      mstore\n        /* \"#utility.yul\":16349:16506   */\n      pop\n      pop\n      jump\t// out\n        /* \"#utility.yul\":16512:16591   */\n    tag_294:\n        /* \"#utility.yul\":16551:16558   */\n      0x00\n        /* \"#utility.yul\":16580:16585   */\n      dup2\n        /* \"#utility.yul\":16569:16585   */\n      swap1\n      pop\n        /* \"#utility.yul\":16512:16591   */\n      swap2\n      swap1\n      pop\n      jump\t// out\n        /* \"#utility.yul\":16597:16754   */\n    tag_295:\n        /* \"#utility.yul\":16702:16747   */\n      tag_468\n        /* \"#utility.yul\":16722:16746   */\n      tag_469\n        /* \"#utility.yul\":16740:16745   */\n      dup3\n        /* \"#utility.yul\":16722:16746   */\n      tag_256\n      jump\t// in\n    tag_469:\n        /* \"#utility.yul\":16702:16747   */\n      tag_294\n      jump\t// in\n    tag_468:\n        /* \"#utility.yul\":16697:16700   */\n      dup3\n        /* \"#utility.yul\":16690:16748   */\n      mstore\n        /* \"#utility.yul\":16597:16754   */\n      pop\n      pop\n      jump\t// out\n        /* \"#utility.yul\":16760:17298   */\n    tag_161:\n        /* \"#utility.yul\":16928:16931   */\n      0x00\n        /* \"#utility.yul\":16943:17018   */\n      tag_471\n        /* \"#utility.yul\":17014:17017   */\n      dup3\n        /* \"#utility.yul\":17005:17011   */\n      dup7\n        /* \"#utility.yul\":16943:17018   */\n      tag_289\n      jump\t// in\n    tag_471:\n        /* \"#utility.yul\":17043:17045   */\n      0x20\n        /* \"#utility.yul\":17038:17041   */\n      dup3\n        /* \"#utility.yul\":17034:17046   */\n      add\n        /* \"#utility.yul\":17027:17046   */\n      swap2\n      pop\n        /* \"#utility.yul\":17056:17131   */\n      tag_472\n        /* \"#utility.yul\":17127:17130   */\n      dup3\n        /* \"#utility.yul\":17118:17124   */\n      dup6\n        /* \"#utility.yul\":17056:17131   */\n      tag_293\n      jump\t// in\n    tag_472:\n        /* \"#utility.yul\":17156:17158   */\n      0x14\n        /* \"#utility.yul\":17151:17154   */\n      dup3\n        /* \"#utility.yul\":17147:17159   */\n      add\n        /* \"#utility.yul\":17140:17159   */\n      swap2\n      pop\n        /* \"#utility.yul\":17169:17244   */\n      tag_473\n        /* \"#utility.yul\":17240:17243   */\n      dup3\n        /* \"#utility.yul\":17231:17237   */\n      dup5\n        /* \"#utility.yul\":17169:17244   */\n      tag_295\n      jump\t// in\n    tag_473:\n        /* \"#utility.yul\":17269:17271   */\n      0x20\n        /* \"#utility.yul\":17264:17267   */\n      dup3\n        /* \"#utility.yul\":17260:17272   */\n      add\n        /* \"#utility.yul\":17253:17272   */\n      swap2\n      pop\n        /* \"#utility.yul\":17289:17292   */\n      dup2\n        /* \"#utility.yul\":17282:17292   */\n      swap1\n      pop\n        /* \"#utility.yul\":16760:17298   */\n      swap5\n      swap4\n      pop\n      pop\n      pop\n      pop\n      jump\t// out\n        /* \"#utility.yul\":17304:17524   */\n    tag_296:\n        /* \"#utility.yul\":17444:17478   */\n      0x4272696467653a206465706f73697420616c72656164792070726f6365737365\n        /* \"#utility.yul\":17440:17441   */\n      0x00\n        /* \"#utility.yul\":17432:17438   */\n      dup3\n        /* \"#utility.yul\":17428:17442   */\n      add\n        /* \"#utility.yul\":17421:17479   */\n      mstore\n        /* \"#utility.yul\":17513:17516   */\n      0x6400000000000000000000000000000000000000000000000000000000000000\n        /* \"#utility.yul\":17508:17510   */\n      0x20\n        /* \"#utility.yul\":17500:17506   */\n      dup3\n        /* \"#utility.yul\":17496:17511   */\n      add\n        /* \"#utility.yul\":17489:17517   */\n      mstore\n        /* \"#utility.yul\":17304:17524   */\n      pop\n      jump\t// out\n        /* \"#utility.yul\":17530:17896   */\n    tag_297:\n        /* \"#utility.yul\":17672:17675   */\n      0x00\n        /* \"#utility.yul\":17693:17760   */\n      tag_476\n        /* \"#utility.yul\":17757:17759   */\n      0x21\n        /* \"#utility.yul\":17752:17755   */\n      dup4\n        /* \"#utility.yul\":17693:17760   */\n      tag_269\n      jump\t// in\n    tag_476:\n        /* \"#utility.yul\":17686:17760   */\n      swap2\n      pop\n        /* \"#utility.yul\":17769:17862   */\n      tag_477\n        /* \"#utility.yul\":17858:17861   */\n      dup3\n        /* \"#utility.yul\":17769:17862   */\n      tag_296\n      jump\t// in\n    tag_477:\n        /* \"#utility.yul\":17887:17889   */\n      0x40\n        /* \"#utility.yul\":17882:17885   */\n      dup3\n        /* \"#utility.yul\":17878:17890   */\n      add\n        /* \"#utility.yul\":17871:17890   */\n      swap1\n      pop\n        /* \"#utility.yul\":17530:17896   */\n      swap2\n      swap1\n      pop\n      jump\t// out\n        /* \"#utility.yul\":17902:18321   */\n    tag_164:\n        /* \"#utility.yul\":18068:18072   */\n      0x00\n        /* \"#utility.yul\":18106:18108   */\n      0x20\n        /* \"#utility.yul\":18095:18104   */\n      dup3\n        /* \"#utility.yul\":18091:18109   */\n      add\n        /* \"#utility.yul\":18083:18109   */\n      swap1\n      pop\n        /* \"#utility.yul\":18155:18164   */\n      dup2\n        /* \"#utility.yul\":18149:18153   */\n      dup2\n        /* \"#utility.yul\":18145:18165   */\n      sub\n        /* \"#utility.yul\":18141:18142   */\n      0x00\n        /* \"#utility.yul\":18130:18139   */\n      dup4\n        /* \"#utility.yul\":18126:18143   */\n      add\n        /* \"#utility.yul\":18119:18166   */\n      mstore\n        /* \"#utility.yul\":18183:18314   */\n      tag_479\n        /* \"#utility.yul\":18309:18313   */\n      dup2\n        /* \"#utility.yul\":18183:18314   */\n      tag_297\n      jump\t// in\n    tag_479:\n        /* \"#utility.yul\":18175:18314   */\n      swap1\n      pop\n        /* \"#utility.yul\":17902:18321   */\n      swap2\n      swap1\n      pop\n      jump\t// out\n        /* \"#utility.yul\":18327:18445   */\n    tag_298:\n        /* \"#utility.yul\":18414:18438   */\n      tag_481\n        /* \"#utility.yul\":18432:18437   */\n      dup2\n        /* \"#utility.yul\":18414:18438   */\n      tag_250\n      jump\t// in\n    tag_481:\n        /* \"#utility.yul\":18409:18412   */\n      dup3\n        /* \"#utility.yul\":18402:18439   */\n      mstore\n        /* \"#utility.yul\":18327:18445   */\n      pop\n      pop\n      jump\t// out\n        /* \"#utility.yul\":18451:18893   */\n    tag_166:\n        /* \"#utility.yul\":18600:18604   */\n      0x00\n        /* \"#utility.yul\":18638:18640   */\n      0x60\n        /* \"#utility.yul\":18627:18636   */\n      dup3\n        /* \"#utility.yul\":18623:18641   */\n      add\n        /* \"#utility.yul\":18615:18641   */\n      swap1\n      pop\n        /* \"#utility.yul\":18651:18722   */\n      tag_483\n        /* \"#utility.yul\":18719:18720   */\n      0x00\n        /* \"#utility.yul\":18708:18717   */\n      dup4\n        /* \"#utility.yul\":18704:18721   */\n      add\n        /* \"#utility.yul\":18695:18701   */\n      dup7\n        /* \"#utility.yul\":18651:18722   */\n      tag_255\n      jump\t// in\n    tag_483:\n        /* \"#utility.yul\":18732:18804   */\n      tag_484\n        /* \"#utility.yul\":18800:18802   */\n      0x20\n        /* \"#utility.yul\":18789:18798   */\n      dup4\n        /* \"#utility.yul\":18785:18803   */\n      add\n        /* \"#utility.yul\":18776:18782   */\n      dup6\n        /* \"#utility.yul\":18732:18804   */\n      tag_257\n      jump\t// in\n    tag_484:\n        /* \"#utility.yul\":18814:18886   */\n      tag_485\n        /* \"#utility.yul\":18882:18884   */\n      0x40\n        /* \"#utility.yul\":18871:18880   */\n      dup4\n        /* \"#utility.yul\":18867:18885   */\n      add\n        /* \"#utility.yul\":18858:18864   */\n      dup5\n        /* \"#utility.yul\":18814:18886   */\n      tag_298\n      jump\t// in\n    tag_485:\n        /* \"#utility.yul\":18451:18893   */\n      swap5\n      swap4\n      pop\n      pop\n      pop\n      pop\n      jump\t// out\n        /* \"#utility.yul\":18899:19231   */\n    tag_171:\n        /* \"#utility.yul\":19020:19024   */\n      0x00\n        /* \"#utility.yul\":19058:19060   */\n      0x40\n        /* \"#utility.yul\":19047:19056   */\n      dup3\n        /* \"#utility.yul\":19043:19061   */\n      add\n        /* \"#utility.yul\":19035:19061   */\n      swap1\n      pop\n        /* \"#utility.yul\":19071:19142   */\n      tag_487\n        /* \"#utility.yul\":19139:19140   */\n      0x00\n        /* \"#utility.yul\":19128:19137   */\n      dup4\n        /* \"#utility.yul\":19124:19141   */\n      add\n        /* \"#utility.yul\":19115:19121   */\n      dup6\n        /* \"#utility.yul\":19071:19142   */\n      tag_257\n      jump\t// in\n    tag_487:\n        /* \"#utility.yul\":19152:19224   */\n      tag_488\n        /* \"#utility.yul\":19220:19222   */\n      0x20\n        /* \"#utility.yul\":19209:19218   */\n      dup4\n        /* \"#utility.yul\":19205:19223   */\n      add\n        /* \"#utility.yul\":19196:19202   */\n      dup5\n        /* \"#utility.yul\":19152:19224   */\n      tag_298\n      jump\t// in\n    tag_488:\n        /* \"#utility.yul\":18899:19231   */\n      swap4\n      swap3\n      pop\n      pop\n      pop\n      jump\t// out\n        /* \"#utility.yul\":19237:19459   */\n    tag_299:\n        /* \"#utility.yul\":19377:19411   */\n      0x4272696467653a2063616c6c6572206973206e6f742070656e64696e67206f77\n        /* \"#utility.yul\":19373:19374   */\n      0x00\n        /* \"#utility.yul\":19365:19371   */\n      dup3\n        /* \"#utility.yul\":19361:19375   */\n      add\n        /* \"#utility.yul\":19354:19412   */\n      mstore\n        /* \"#utility.yul\":19446:19451   */\n      0x6e65720000000000000000000000000000000000000000000000000000000000\n        /* \"#utility.yul\":19441:19443   */\n      0x20\n        /* \"#utility.yul\":19433:19439   */\n      dup3\n        /* \"#utility.yul\":19429:19444   */\n      add\n        /* \"#utility.yul\":19422:19452   */\n      mstore\n        /* \"#utility.yul\":19237:19459   */\n      pop\n      jump\t// out\n        /* \"#utility.yul\":19465:19831   */\n    tag_300:\n        /* \"#utility.yul\":19607:19610   */\n      0x00\n        /* \"#utility.yul\":19628:19695   */\n      tag_491\n        /* \"#utility.yul\":19692:19694   */\n      0x23\n        /* \"#utility.yul\":19687:19690   */\n      dup4\n        /* \"#utility.yul\":19628:19695   */\n      tag_269\n      jump\t// in\n    tag_491:\n        /* \"#utility.yul\":19621:19695   */\n      swap2\n      pop\n        /* \"#utility.yul\":19704:19797   */\n      tag_492\n        /* \"#utility.yul\":19793:19796   */\n      dup3\n        /* \"#utility.yul\":19704:19797   */\n      tag_299\n      jump\t// in\n    tag_492:\n        /* \"#utility.yul\":19822:19824   */\n      0x40\n        /* \"#utility.yul\":19817:19820   */\n      dup3\n        /* \"#utility.yul\":19813:19825   */\n      add\n        /* \"#utility.yul\":19806:19825   */\n      swap1\n      pop\n        /* \"#utility.yul\":19465:19831   */\n      swap2\n      swap1\n      pop\n      jump\t// out\n        /* \"#utility.yul\":19837:20256   */\n    tag_175:\n        /* \"#utility.yul\":20003:20007   */\n      0x00\n        /* \"#utility.yul\":20041:20043   */\n      0x20\n        /* \"#utility.yul\":20030:20039   */\n      dup3\n        /* \"#utility.yul\":20026:20044   */\n      add\n        /* \"#utility.yul\":20018:20044   */\n      swap1\n      pop\n        /* \"#utility.yul\":20090:20099   */\n      dup2\n        /* \"#utility.yul\":20084:20088   */\n      dup2\n        /* \"#utility.yul\":20080:20100   */\n      sub\n        /* \"#utility.yul\":20076:20077   */\n      0x00\n        /* \"#utility.yul\":20065:20074   */\n      dup4\n        /* \"#utility.yul\":20061:20078   */\n      add\n        /* \"#utility.yul\":20054:20101   */\n      mstore\n        /* \"#utility.yul\":20118:20249   */\n      tag_494\n        /* \"#utility.yul\":20244:20248   */\n      dup2\n        /* \"#utility.yul\":20118:20249   */\n      tag_300\n      jump\t// in\n    tag_494:\n        /* \"#utility.yul\":20110:20249   */\n      swap1\n      pop\n        /* \"#utility.yul\":19837:20256   */\n      swap2\n      swap1\n      pop\n      jump\t// out\n        /* \"#utility.yul\":20262:20436   */\n    tag_301:\n        /* \"#utility.yul\":20402:20428   */\n      0x4272696467653a20696e76616c6964206f70657261746f720000000000000000\n        /* \"#utility.yul\":20398:20399   */\n      0x00\n        /* \"#utility.yul\":20390:20396   */\n      dup3\n        /* \"#utility.yul\":20386:20400   */\n      add\n        /* \"#utility.yul\":20379:20429   */\n      mstore\n        /* \"#utility.yul\":20262:20436   */\n      pop\n      jump\t// out\n        /* \"#utility.yul\":20442:20808   */\n    tag_302:\n        /* \"#utility.yul\":20584:20587   */\n      0x00\n        /* \"#utility.yul\":20605:20672   */\n      tag_497\n        /* \"#utility.yul\":20669:20671   */\n      0x18\n        /* \"#utility.yul\":20664:20667   */\n      dup4\n        /* \"#utility.yul\":20605:20672   */\n      tag_269\n      jump\t// in\n    tag_497:\n        /* \"#utility.yul\":20598:20672   */\n      swap2\n      pop\n        /* \"#utility.yul\":20681:20774   */\n      tag_498\n        /* \"#utility.yul\":20770:20773   */\n      dup3\n        /* \"#utility.yul\":20681:20774   */\n      tag_301\n      jump\t// in\n    tag_498:\n        /* \"#utility.yul\":20799:20801   */\n      0x20\n        /* \"#utility.yul\":20794:20797   */\n      dup3\n        /* \"#utility.yul\":20790:20802   */\n      add\n        /* \"#utility.yul\":20783:20802   */\n      swap1\n      pop\n        /* \"#utility.yul\":20442:20808   */\n      swap2\n      swap1\n      pop\n      jump\t// out\n        /* \"#utility.yul\":20814:21233   */\n    tag_187:\n        /* \"#utility.yul\":20980:20984   */\n      0x00\n        /* \"#utility.yul\":21018:21020   */\n      0x20\n        /* \"#utility.yul\":21007:21016   */\n      dup3\n        /* \"#utility.yul\":21003:21021   */\n      add\n        /* \"#utility.yul\":20995:21021   */\n      swap1\n      pop\n        /* \"#utility.yul\":21067:21076   */\n      dup2\n        /* \"#utility.yul\":21061:21065   */\n      dup2\n        /* \"#utility.yul\":21057:21077   */\n      sub\n        /* \"#utility.yul\":21053:21054   */\n      0x00\n        /* \"#utility.yul\":21042:21051   */\n      dup4\n        /* \"#utility.yul\":21038:21055   */\n      add\n        /* \"#utility.yul\":21031:21078   */\n      mstore\n        /* \"#utility.yul\":21095:21226   */\n      tag_500\n        /* \"#utility.yul\":21221:21225   */\n      dup2\n        /* \"#utility.yul\":21095:21226   */\n      tag_302\n      jump\t// in\n    tag_500:\n        /* \"#utility.yul\":21087:21226   */\n      swap1\n      pop\n        /* \"#utility.yul\":20814:21233   */\n      swap2\n      swap1\n      pop\n      jump\t// out\n        /* \"#utility.yul\":21239:21413   */\n    tag_303:\n        /* \"#utility.yul\":21379:21405   */\n      0x4272696467653a20616c7265616479206f70657261746f720000000000000000\n        /* \"#utility.yul\":21375:21376   */\n      0x00\n        /* \"#utility.yul\":21367:21373   */\n      dup3\n        /* \"#utility.yul\":21363:21377   */\n      add\n        /* \"#utility.yul\":21356:21406   */\n      mstore\n        /* \"#utility.yul\":21239:21413   */\n      pop\n      jump\t// out\n        /* \"#utility.yul\":21419:21785   */\n    tag_304:\n        /* \"#utility.yul\":21561:21564   */\n      0x00\n        /* \"#utility.yul\":21582:21649   */\n      tag_503\n        /* \"#utility.yul\":21646:21648   */\n      0x18\n        /* \"#utility.yul\":21641:21644   */\n      dup4\n        /* \"#utility.yul\":21582:21649   */\n      tag_269\n      jump\t// in\n    tag_503:\n        /* \"#utility.yul\":21575:21649   */\n      swap2\n      pop\n        /* \"#utility.yul\":21658:21751   */\n      tag_504\n        /* \"#utility.yul\":21747:21750   */\n      dup3\n        /* \"#utility.yul\":21658:21751   */\n      tag_303\n      jump\t// in\n    tag_504:\n        /* \"#utility.yul\":21776:21778   */\n      0x20\n        /* \"#utility.yul\":21771:21774   */\n      dup3\n        /* \"#utility.yul\":21767:21779   */\n      add\n        /* \"#utility.yul\":21760:21779   */\n      swap1\n      pop\n        /* \"#utility.yul\":21419:21785   */\n      swap2\n      swap1\n      pop\n      jump\t// out\n        /* \"#utility.yul\":21791:22210   */\n    tag_190:\n        /* \"#utility.yul\":21957:21961   */\n      0x00\n        /* \"#utility.yul\":21995:21997   */\n      0x20\n        /* \"#utility.yul\":21984:21993   */\n      dup3\n        /* \"#utility.yul\":21980:21998   */\n      add\n        /* \"#utility.yul\":21972:21998   */\n      swap1\n      pop\n        /* \"#utility.yul\":22044:22053   */\n      dup2\n        /* \"#utility.yul\":22038:22042   */\n      dup2\n        /* \"#utility.yul\":22034:22054   */\n      sub\n        /* \"#utility.yul\":22030:22031   */\n      0x00\n        /* \"#utility.yul\":22019:22028   */\n      dup4\n        /* \"#utility.yul\":22015:22032   */\n      add\n        /* \"#utility.yul\":22008:22055   */\n      mstore\n        /* \"#utility.yul\":22072:22203   */\n      tag_506\n        /* \"#utility.yul\":22198:22202   */\n      dup2\n        /* \"#utility.yul\":22072:22203   */\n      tag_304\n      jump\t// in\n    tag_506:\n        /* \"#utility.yul\":22064:22203   */\n      swap1\n      pop\n        /* \"#utility.yul\":21791:22210   */\n      swap2\n      swap1\n      pop\n      jump\t// out\n        /* \"#utility.yul\":22216:22396   */\n    tag_305:\n        /* \"#utility.yul\":22356:22388   */\n      0x4272696467653a20696e76616c6964206465706f736974206c696d6974730000\n        /* \"#utility.yul\":22352:22353   */\n      0x00\n        /* \"#utility.yul\":22344:22350   */\n      dup3\n        /* \"#utility.yul\":22340:22354   */\n      add\n        /* \"#utility.yul\":22333:22389   */\n      mstore\n        /* \"#utility.yul\":22216:22396   */\n      pop\n      jump\t// out\n        /* \"#utility.yul\":22402:22768   */\n    tag_306:\n        /* \"#utility.yul\":22544:22547   */\n      0x00\n        /* \"#utility.yul\":22565:22632   */\n      tag_509\n        /* \"#utility.yul\":22629:22631   */\n      0x1e\n        /* \"#utility.yul\":22624:22627   */\n      dup4\n        /* \"#utility.yul\":22565:22632   */\n      tag_269\n      jump\t// in\n    tag_509:\n        /* \"#utility.yul\":22558:22632   */\n      swap2\n      pop\n        /* \"#utility.yul\":22641:22734   */\n      tag_510\n        /* \"#utility.yul\":22730:22733   */\n      dup3\n        /* \"#utility.yul\":22641:22734   */\n      tag_305\n      jump\t// in\n    tag_510:\n        /* \"#utility.yul\":22759:22761   */\n      0x20\n        /* \"#utility.yul\":22754:22757   */\n      dup3\n        /* \"#utility.yul\":22750:22762   */\n      add\n        /* \"#utility.yul\":22743:22762   */\n      swap1\n      pop\n        /* \"#utility.yul\":22402:22768   */\n      swap2\n      swap1\n      pop\n      jump\t// out\n        /* \"#utility.yul\":22774:23193   */\n    tag_197:\n        /* \"#utility.yul\":22940:22944   */\n      0x00\n        /* \"#utility.yul\":22978:22980   */\n      0x20\n        /* \"#utility.yul\":22967:22976   */\n      dup3\n        /* \"#utility.yul\":22963:22981   */\n      add\n        /* \"#utility.yul\":22955:22981   */\n      swap1\n      pop\n        /* \"#utility.yul\":23027:23036   */\n      dup2\n        /* \"#utility.yul\":23021:23025   */\n      dup2\n        /* \"#utility.yul\":23017:23037   */\n      sub\n        /* \"#utility.yul\":23013:23014   */\n      0x00\n        /* \"#utility.yul\":23002:23011   */\n      dup4\n        /* \"#utility.yul\":22998:23015   */\n      add\n        /* \"#utility.yul\":22991:23038   */\n      mstore\n        /* \"#utility.yul\":23055:23186   */\n      tag_512\n        /* \"#utility.yul\":23181:23185   */\n      dup2\n        /* \"#utility.yul\":23055:23186   */\n      tag_306\n      jump\t// in\n    tag_512:\n        /* \"#utility.yul\":23047:23186   */\n      swap1\n      pop\n        /* \"#utility.yul\":22774:23193   */\n      swap2\n      swap1\n      pop\n      jump\t// out\n        /* \"#utility.yul\":23199:23380   */\n    tag_307:\n        /* \"#utility.yul\":23339:23372   */\n      0x4272696467653a20696e76616c6964207769746864726177206c696d69747300\n        /* \"#utility.yul\":23335:23336   */\n      0x00\n        /* \"#utility.yul\":23327:23333   */\n      dup3\n        /* \"#utility.yul\":23323:23337   */\n      add\n        /* \"#utility.yul\":23316:23373   */\n      mstore\n        /* \"#utility.yul\":23199:23380   */\n      pop\n      jump\t// out\n        /* \"#utility.yul\":23386:23752   */\n    tag_308:\n        /* \"#utility.yul\":23528:23531   */\n      0x00\n        /* \"#utility.yul\":23549:23616   */\n      tag_515\n        /* \"#utility.yul\":23613:23615   */\n      0x1f\n        /* \"#utility.yul\":23608:23611   */\n      dup4\n        /* \"#utility.yul\":23549:23616   */\n      tag_269\n      jump\t// in\n    tag_515:\n        /* \"#utility.yul\":23542:23616   */\n      swap2\n      pop\n        /* \"#utility.yul\":23625:23718   */\n      tag_516\n        /* \"#utility.yul\":23714:23717   */\n      dup3\n        /* \"#utility.yul\":23625:23718   */\n      tag_307\n      jump\t// in\n    tag_516:\n        /* \"#utility.yul\":23743:23745   */\n      0x20\n        /* \"#utility.yul\":23738:23741   */\n      dup3\n        /* \"#utility.yul\":23734:23746   */\n      add\n        /* \"#utility.yul\":23727:23746   */\n      swap1\n      pop\n        /* \"#utility.yul\":23386:23752   */\n      swap2\n      swap1\n      pop\n      jump\t// out\n        /* \"#utility.yul\":23758:24177   */\n    tag_200:\n        /* \"#utility.yul\":23924:23928   */\n      0x00\n        /* \"#utility.yul\":23962:23964   */\n      0x20\n        /* \"#utility.yul\":23951:23960   */\n      dup3\n        /* \"#utility.yul\":23947:23965   */\n      add\n        /* \"#utility.yul\":23939:23965   */\n      swap1\n      pop\n        /* \"#utility.yul\":24011:24020   */\n      dup2\n        /* \"#utility.yul\":24005:24009   */\n      dup2\n        /* \"#utility.yul\":24001:24021   */\n      sub\n        /* \"#utility.yul\":23997:23998   */\n      0x00\n        /* \"#utility.yul\":23986:23995   */\n      dup4\n        /* \"#utility.yul\":23982:23999   */\n      add\n        /* \"#utility.yul\":23975:24022   */\n      mstore\n        /* \"#utility.yul\":24039:24170   */\n      tag_518\n        /* \"#utility.yul\":24165:24169   */\n      dup2\n        /* \"#utility.yul\":24039:24170   */\n      tag_308\n      jump\t// in\n    tag_518:\n        /* \"#utility.yul\":24031:24170   */\n      swap1\n      pop\n        /* \"#utility.yul\":23758:24177   */\n      swap2\n      swap1\n      pop\n      jump\t// out\n        /* \"#utility.yul\":24183:24736   */\n    tag_202:\n        /* \"#utility.yul\":24360:24364   */\n      0x00\n        /* \"#utility.yul\":24398:24401   */\n      0x80\n        /* \"#utility.yul\":24387:24396   */\n      dup3\n        /* \"#utility.yul\":24383:24402   */\n      add\n        /* \"#utility.yul\":24375:24402   */\n      swap1\n      pop\n        /* \"#utility.yul\":24412:24483   */\n      tag_520\n        /* \"#utility.yul\":24480:24481   */\n      0x00\n        /* \"#utility.yul\":24469:24478   */\n      dup4\n        /* \"#utility.yul\":24465:24482   */\n      add\n        /* \"#utility.yul\":24456:24462   */\n      dup8\n        /* \"#utility.yul\":24412:24483   */\n      tag_257\n      jump\t// in\n    tag_520:\n        /* \"#utility.yul\":24493:24565   */\n      tag_521\n        /* \"#utility.yul\":24561:24563   */\n      0x20\n        /* \"#utility.yul\":24550:24559   */\n      dup4\n        /* \"#utility.yul\":24546:24564   */\n      add\n        /* \"#utility.yul\":24537:24543   */\n      dup7\n        /* \"#utility.yul\":24493:24565   */\n      tag_257\n      jump\t// in\n    tag_521:\n        /* \"#utility.yul\":24575:24647   */\n      tag_522\n        /* \"#utility.yul\":24643:24645   */\n      0x40\n        /* \"#utility.yul\":24632:24641   */\n      dup4\n        /* \"#utility.yul\":24628:24646   */\n      add\n        /* \"#utility.yul\":24619:24625   */\n      dup6\n        /* \"#utility.yul\":24575:24647   */\n      tag_257\n      jump\t// in\n    tag_522:\n        /* \"#utility.yul\":24657:24729   */\n      tag_523\n        /* \"#utility.yul\":24725:24727   */\n      0x60\n        /* \"#utility.yul\":24714:24723   */\n      dup4\n        /* \"#utility.yul\":24710:24728   */\n      add\n        /* \"#utility.yul\":24701:24707   */\n      dup5\n        /* \"#utility.yul\":24657:24729   */\n      tag_257\n      jump\t// in\n    tag_523:\n        /* \"#utility.yul\":24183:24736   */\n      swap6\n      swap5\n      pop\n      pop\n      pop\n      pop\n      pop\n      jump\t// out\n        /* \"#utility.yul\":24742:24915   */\n    tag_309:\n        /* \"#utility.yul\":24882:24907   */\n      0x4272696467653a206e6f7420616e206f70657261746f72000000000000000000\n        /* \"#utility.yul\":24878:24879   */\n      0x00\n        /* \"#utility.yul\":24870:24876   */\n      dup3\n        /* \"#utility.yul\":24866:24880   */\n      add\n        /* \"#utility.yul\":24859:24908   */\n      mstore\n        /* \"#utility.yul\":24742:24915   */\n      pop\n      jump\t// out\n        /* \"#utility.yul\":24921:25287   */\n    tag_310:\n        /* \"#utility.yul\":25063:25066   */\n      0x00\n        /* \"#utility.yul\":25084:25151   */\n      tag_526\n        /* \"#utility.yul\":25148:25150   */\n      0x17\n        /* \"#utility.yul\":25143:25146   */\n      dup4\n        /* \"#utility.yul\":25084:25151   */\n      tag_269\n      jump\t// in\n    tag_526:\n        /* \"#utility.yul\":25077:25151   */\n      swap2\n      pop\n        /* \"#utility.yul\":25160:25253   */\n      tag_527\n        /* \"#utility.yul\":25249:25252   */\n      dup3\n        /* \"#utility.yul\":25160:25253   */\n      tag_309\n      jump\t// in\n    tag_527:\n        /* \"#utility.yul\":25278:25280   */\n      0x20\n        /* \"#utility.yul\":25273:25276   */\n      dup3\n        /* \"#utility.yul\":25269:25281   */\n      add\n        /* \"#utility.yul\":25262:25281   */\n      swap1\n      pop\n        /* \"#utility.yul\":24921:25287   */\n      swap2\n      swap1\n      pop\n      jump\t// out\n        /* \"#utility.yul\":25293:25712   */\n    tag_209:\n        /* \"#utility.yul\":25459:25463   */\n      0x00\n        /* \"#utility.yul\":25497:25499   */\n      0x20\n        /* \"#utility.yul\":25486:25495   */\n      dup3\n        /* \"#utility.yul\":25482:25500   */\n      add\n        /* \"#utility.yul\":25474:25500   */\n      swap1\n      pop\n        /* \"#utility.yul\":25546:25555   */\n      dup2\n        /* \"#utility.yul\":25540:25544   */\n      dup2\n        /* \"#utility.yul\":25536:25556   */\n      sub\n        /* \"#utility.yul\":25532:25533   */\n      0x00\n        /* \"#utility.yul\":25521:25530   */\n      dup4\n        /* \"#utility.yul\":25517:25534   */\n      add\n        /* \"#utility.yul\":25510:25557   */\n      mstore\n        /* \"#utility.yul\":25574:25705   */\n      tag_529\n        /* \"#utility.yul\":25700:25704   */\n      dup2\n        /* \"#utility.yul\":25574:25705   */\n      tag_310\n      jump\t// in\n    tag_529:\n        /* \"#utility.yul\":25566:25705   */\n      swap1\n      pop\n        /* \"#utility.yul\":25293:25712   */\n      swap2\n      swap1\n      pop\n      jump\t// out\n        /* \"#utility.yul\":25718:25861   */\n    tag_311:\n        /* \"#utility.yul\":25775:25780   */\n      0x00\n        /* \"#utility.yul\":25806:25812   */\n      dup2\n        /* \"#utility.yul\":25800:25813   */\n      mload\n        /* \"#utility.yul\":25791:25813   */\n      swap1\n      pop\n        /* \"#utility.yul\":25822:25855   */\n      tag_531\n        /* \"#utility.yul\":25849:25854   */\n      dup2\n        /* \"#utility.yul\":25822:25855   */\n      tag_267\n      jump\t// in\n    tag_531:\n        /* \"#utility.yul\":25718:25861   */\n      swap3\n      swap2\n      pop\n      pop\n      jump\t// out\n        /* \"#utility.yul\":25867:26218   */\n    tag_224:\n        /* \"#utility.yul\":25937:25943   */\n      0x00\n        /* \"#utility.yul\":25986:25988   */\n      0x20\n        /* \"#utility.yul\":25974:25983   */\n      dup3\n        /* \"#utility.yul\":25965:25972   */\n      dup5\n        /* \"#utility.yul\":25961:25984   */\n      sub\n        /* \"#utility.yul\":25957:25989   */\n      slt\n        /* \"#utility.yul\":25954:26073   */\n      iszero\n      tag_533\n      jumpi\n        /* \"#utility.yul\":25992:26071   */\n      tag_534\n      tag_248\n      jump\t// in\n    tag_534:\n        /* \"#utility.yul\":25954:26073   */\n    tag_533:\n        /* \"#utility.yul\":26112:26113   */\n      0x00\n        /* \"#utility.yul\":26137:26201   */\n      tag_535\n        /* \"#utility.yul\":26193:26200   */\n      dup5\n        /* \"#utility.yul\":26184:26190   */\n      dup3\n        /* \"#utility.yul\":26173:26182   */\n      dup6\n        /* \"#utility.yul\":26169:26191   */\n      add\n        /* \"#utility.yul\":26137:26201   */\n      tag_311\n      jump\t// in\n    tag_535:\n        /* \"#utility.yul\":26127:26201   */\n      swap2\n      pop\n        /* \"#utility.yul\":26083:26211   */\n      pop\n        /* \"#utility.yul\":25867:26218   */\n      swap3\n      swap2\n      pop\n      pop\n      jump\t// out\n        /* \"#utility.yul\":26224:26402   */\n    tag_312:\n        /* \"#utility.yul\":26364:26394   */\n      0x4272696467653a20696e73756666696369656e742062616c616e636500000000\n        /* \"#utility.yul\":26360:26361   */\n      0x00\n        /* \"#utility.yul\":26352:26358   */\n      dup3\n        /* \"#utility.yul\":26348:26362   */\n      add\n        /* \"#utility.yul\":26341:26395   */\n      mstore\n        /* \"#utility.yul\":26224:26402   */\n      pop\n      jump\t// out\n        /* \"#utility.yul\":26408:26774   */\n    tag_313:\n        /* \"#utility.yul\":26550:26553   */\n      0x00\n        /* \"#utility.yul\":26571:26638   */\n      tag_538\n        /* \"#utility.yul\":26635:26637   */\n      0x1c\n        /* \"#utility.yul\":26630:26633   */\n      dup4\n        /* \"#utility.yul\":26571:26638   */\n      tag_269\n      jump\t// in\n    tag_538:\n        /* \"#utility.yul\":26564:26638   */\n      swap2\n      pop\n        /* \"#utility.yul\":26647:26740   */\n      tag_539\n        /* \"#utility.yul\":26736:26739   */\n      dup3\n        /* \"#utility.yul\":26647:26740   */\n      tag_312\n      jump\t// in\n    tag_539:\n        /* \"#utility.yul\":26765:26767   */\n      0x20\n        /* \"#utility.yul\":26760:26763   */\n      dup3\n        /* \"#utility.yul\":26756:26768   */\n      add\n        /* \"#utility.yul\":26749:26768   */\n      swap1\n      pop\n        /* \"#utility.yul\":26408:26774   */\n      swap2\n      swap1\n      pop\n      jump\t// out\n        /* \"#utility.yul\":26780:27199   */\n    tag_227:\n        /* \"#utility.yul\":26946:26950   */\n      0x00\n        /* \"#utility.yul\":26984:26986   */\n      0x20\n        /* \"#utility.yul\":26973:26982   */\n      dup3\n        /* \"#utility.yul\":26969:26987   */\n      add\n        /* \"#utility.yul\":26961:26987   */\n      swap1\n      pop\n        /* \"#utility.yul\":27033:27042   */\n      dup2\n        /* \"#utility.yul\":27027:27031   */\n      dup2\n        /* \"#utility.yul\":27023:27043   */\n      sub\n        /* \"#utility.yul\":27019:27020   */\n      0x00\n        /* \"#utility.yul\":27008:27017   */\n      dup4\n        /* \"#utility.yul\":27004:27021   */\n      add\n        /* \"#utility.yul\":26997:27044   */\n      mstore\n        /* \"#utility.yul\":27061:27192   */\n      tag_541\n        /* \"#utility.yul\":27187:27191   */\n      dup2\n        /* \"#utility.yul\":27061:27192   */\n      tag_313\n      jump\t// in\n    tag_541:\n        /* \"#utility.yul\":27053:27192   */\n      swap1\n      pop\n        /* \"#utility.yul\":26780:27199   */\n      swap2\n      swap1\n      pop\n      jump\t// out\n        /* \"#utility.yul\":27205:28166   */\n    tag_229:\n        /* \"#utility.yul\":27457:27460   */\n      0x00\n        /* \"#utility.yul\":27472:27547   */\n      tag_543\n        /* \"#utility.yul\":27543:27546   */\n      dup3\n        /* \"#utility.yul\":27534:27540   */\n      dup10\n        /* \"#utility.yul\":27472:27547   */\n      tag_293\n      jump\t// in\n    tag_543:\n        /* \"#utility.yul\":27572:27574   */\n      0x14\n        /* \"#utility.yul\":27567:27570   */\n      dup3\n        /* \"#utility.yul\":27563:27575   */\n      add\n        /* \"#utility.yul\":27556:27575   */\n      swap2\n      pop\n        /* \"#utility.yul\":27585:27660   */\n      tag_544\n        /* \"#utility.yul\":27656:27659   */\n      dup3\n        /* \"#utility.yul\":27647:27653   */\n      dup9\n        /* \"#utility.yul\":27585:27660   */\n      tag_295\n      jump\t// in\n    tag_544:\n        /* \"#utility.yul\":27685:27687   */\n      0x20\n        /* \"#utility.yul\":27680:27683   */\n      dup3\n        /* \"#utility.yul\":27676:27688   */\n      add\n        /* \"#utility.yul\":27669:27688   */\n      swap2\n      pop\n        /* \"#utility.yul\":27698:27773   */\n      tag_545\n        /* \"#utility.yul\":27769:27772   */\n      dup3\n        /* \"#utility.yul\":27760:27766   */\n      dup8\n        /* \"#utility.yul\":27698:27773   */\n      tag_293\n      jump\t// in\n    tag_545:\n        /* \"#utility.yul\":27798:27800   */\n      0x14\n        /* \"#utility.yul\":27793:27796   */\n      dup3\n        /* \"#utility.yul\":27789:27801   */\n      add\n        /* \"#utility.yul\":27782:27801   */\n      swap2\n      pop\n        /* \"#utility.yul\":27811:27886   */\n      tag_546\n        /* \"#utility.yul\":27882:27885   */\n      dup3\n        /* \"#utility.yul\":27873:27879   */\n      dup7\n        /* \"#utility.yul\":27811:27886   */\n      tag_295\n      jump\t// in\n    tag_546:\n        /* \"#utility.yul\":27911:27913   */\n      0x20\n        /* \"#utility.yul\":27906:27909   */\n      dup3\n        /* \"#utility.yul\":27902:27914   */\n      add\n        /* \"#utility.yul\":27895:27914   */\n      swap2\n      pop\n        /* \"#utility.yul\":27924:27999   */\n      tag_547\n        /* \"#utility.yul\":27995:27998   */\n      dup3\n        /* \"#utility.yul\":27986:27992   */\n      dup6\n        /* \"#utility.yul\":27924:27999   */\n      tag_295\n      jump\t// in\n    tag_547:\n        /* \"#utility.yul\":28024:28026   */\n      0x20\n        /* \"#utility.yul\":28019:28022   */\n      dup3\n        /* \"#utility.yul\":28015:28027   */\n      add\n        /* \"#utility.yul\":28008:28027   */\n      swap2\n      pop\n        /* \"#utility.yul\":28037:28112   */\n      tag_548\n        /* \"#utility.yul\":28108:28111   */\n      dup3\n        /* \"#utility.yul\":28099:28105   */\n      dup5\n        /* \"#utility.yul\":28037:28112   */\n      tag_295\n      jump\t// in\n    tag_548:\n        /* \"#utility.yul\":28137:28139   */\n      0x20\n        /* \"#utility.yul\":28132:28135   */\n      dup3\n        /* \"#utility.yul\":28128:28140   */\n      add\n        /* \"#utility.yul\":28121:28140   */\n      swap2\n      pop\n        /* \"#utility.yul\":28157:28160   */\n      dup2\n        /* \"#utility.yul\":28150:28160   */\n      swap1\n      pop\n        /* \"#utility.yul\":27205:28166   */\n      swap8\n      swap7\n      pop\n      pop\n      pop\n      pop\n      pop\n      pop\n      pop\n      jump\t// out\n        /* \"#utility.yul\":28172:28352   */\n    tag_314:\n        /* \"#utility.yul\":28220:28297   */\n      0x4e487b7100000000000000000000000000000000000000000000000000000000\n        /* \"#utility.yul\":28217:28218   */\n      0x00\n        /* \"#utility.yul\":28210:28298   */\n      mstore\n        /* \"#utility.yul\":28317:28321   */\n      0x11\n        /* \"#utility.yul\":28314:28315   */\n      0x04\n        /* \"#utility.yul\":28307:28322   */\n      mstore\n        /* \"#utility.yul\":28341:28345   */\n      0x24\n        /* \"#utility.yul\":28338:28339   */\n      0x00\n        /* \"#utility.yul\":28331:28346   */\n      revert\n        /* \"#utility.yul\":28358:28591   */\n    tag_231:\n        /* \"#utility.yul\":28397:28400   */\n      0x00\n        /* \"#utility.yul\":28420:28444   */\n      tag_551\n        /* \"#utility.yul\":28438:28443   */\n      dup3\n        /* \"#utility.yul\":28420:28444   */\n      tag_256\n      jump\t// in\n    tag_551:\n        /* \"#utility.yul\":28411:28444   */\n      swap2\n      pop\n        /* \"#utility.yul\":28466:28532   */\n      0xffffffffffffffffffffffffffffffffffffffffffffffffffffffffffffffff\n        /* \"#utility.yul\":28459:28464   */\n      dup3\n        /* \"#utility.yul\":28456:28533   */\n      eq\n        /* \"#utility.yul\":28453:28556   */\n      iszero\n      tag_552\n      jumpi\n        /* \"#utility.yul\":28536:28554   */\n      tag_553\n      tag_314\n      jump\t// in\n    tag_553:\n        /* \"#utility.yul\":28453:28556   */\n    tag_552:\n        /* \"#utility.yul\":28583:28584   */\n      0x01\n        /* \"#utility.yul\":28576:28581   */\n      dup3\n        /* \"#utility.yul\":28572:28585   */\n      add\n        /* \"#utility.yul\":28565:28585   */\n      swap1\n      pop\n        /* \"#utility.yul\":28358:28591   */\n      swap2\n      swap1\n      pop\n      jump\t// out\n        /* \"#utility.yul\":28597:28929   */\n    tag_237:\n        /* \"#utility.yul\":28718:28722   */\n      0x00\n        /* \"#utility.yul\":28756:28758   */\n      0x40\n        /* \"#utility.yul\":28745:28754   */\n      dup3\n        /* \"#utility.yul\":28741:28759   */\n      add\n        /* \"#utility.yul\":28733:28759   */\n      swap1\n      pop\n        /* \"#utility.yul\":28769:28840   */\n      tag_555\n        /* \"#utility.yul\":28837:28838   */\n      0x00\n        /* \"#utility.yul\":28826:28835   */\n      dup4\n        /* \"#utility.yul\":28822:28839   */\n      add\n        /* \"#utility.yul\":28813:28819   */\n      dup6\n        /* \"#utility.yul\":28769:28840   */\n      tag_257\n      jump\t// in\n    tag_555:\n        /* \"#utility.yul\":28850:28922   */\n      tag_556\n        /* \"#utility.yul\":28918:28920   */\n      0x20\n        /* \"#utility.yul\":28907:28916   */\n      dup4\n        /* \"#utility.yul\":28903:28921   */\n      add\n        /* \"#utility.yul\":28894:28900   */\n      dup5\n        /* \"#utility.yul\":28850:28922   */\n      tag_255\n      jump\t// in\n    tag_556:\n        /* \"#utility.yul\":28597:28929   */\n      swap4\n      swap3\n      pop\n      pop\n      pop\n      jump\t// out\n        /* \"#utility.yul\":28935:29106   */\n    tag_315:\n        /* \"#utility.yul\":29075:29098   */\n      0x4272696467653a20696e76616c6964206f776e65720000000000000000000000\n        /* \"#utility.yul\":29071:29072   */\n      0x00\n        /* \"#utility.yul\":29063:29069   */\n      dup3\n        /* \"#utility.yul\":29059:29073   */\n      add\n        /* \"#utility.yul\":29052:29099   */\n      mstore\n        /* \"#utility.yul\":28935:29106   */\n      pop\n      jump\t// out\n        /* \"#utility.yul\":29112:29478   */\n    tag_316:\n        /* \"#utility.yul\":29254:29257   */\n      0x00\n        /* \"#utility.yul\":29275:29342   */\n      tag_559\n        /* \"#utility.yul\":29339:29341   */\n      0x15\n        /* \"#utility.yul\":29334:29337   */\n      dup4\n        /* \"#utility.yul\":29275:29342   */\n      tag_269\n      jump\t// in\n    tag_559:\n        /* \"#utility.yul\":29268:29342   */\n      swap2\n      pop\n        /* \"#utility.yul\":29351:29444   */\n      tag_560\n        /* \"#utility.yul\":29440:29443   */\n      dup3\n        /* \"#utility.yul\":29351:29444   */\n      tag_315\n      jump\t// in\n    tag_560:\n        /* \"#utility.yul\":29469:29471   */\n      0x20\n        /* \"#utility.yul\":29464:29467   */\n      dup3\n        /* \"#utility.yul\":29460:29472   */\n      add\n        /* \"#utility.yul\":29453:29472   */\n      swap1\n      pop\n        /* \"#utility.yul\":29112:29478   */\n      swap2\n      swap1\n      pop\n      jump\t// out\n        /* \"#utility.yul\":29484:29903   */\n    tag_246:\n        /* \"#utility.yul\":29650:29654   */\n      0x00\n        /* \"#utility.yul\":29688:29690   */\n      0x20\n        /* \"#utility.yul\":29677:29686   */\n      dup3\n        /* \"#utility.yul\":29673:29691   */\n      add\n        /* \"#utility.yul\":29665:29691   */\n      swap1\n      pop\n        /* \"#utility.yul\":29737:29746   */\n      dup2\n        /* \"#utility.yul\":29731:29735   */\n      dup2\n        /* \"#utility.yul\":29727:29747   */\n      sub\n        /* \"#utility.yul\":29723:29724   */\n      0x00\n        /* \"#utility.yul\":29712:29721   */\n      dup4\n        /* \"#utility.yul\":29708:29725   */\n      add\n        /* \"#utility.yul\":29701:29748   */\n      mstore\n        /* \"#utility.yul\":29765:29896   */\n      tag_562\n        /* \"#utility.yul\":29891:29895   */\n      dup2\n        /* \"#utility.yul\":29765:29896   */\n      tag_316\n      jump\t// in\n    tag_562:\n        /* \"#utility.yul\":29757:29896   */\n      swap1\n      pop\n        /* \"#utility.yul\":29484:29903   */\n      swap2\n      swap1\n      pop\n      jump\t// out\n\n    auxdata: 0xa264697066735822122006af043b96b92efe348d87f1932b601943c924ece9661717067321974728dd7964736f6c634300080a0033\n}\n",
    "bytecode": {
      "linkReferences": {},
      "object": "60806040523480156200001157600080fd5b5060405162002f3f38038062002f3f833981810160405281019062000037919062000263565b600073ffffffffffffffffffffffffffffffffffffffff168173ffffffffffffffffffffffffffffffffffffffff161415620000aa576040517f08c379a0000000000000000000000000000000000000000000000000000000008152600401620000a190620002f6565b60405180910390fd5b33600160006101000a81548173ffffffffffffffffffffffffffffffffffffffff021916908373ffffffffffffffffffffffffffffffffffffffff160217905550806000806101000a81548173ffffffffffffffffffffffffffffffffffffffff021916908373ffffffffffffffffffffffffffffffffffffffff1602179055506001600360003373ffffffffffffffffffffffffffffffffffffffff1673ffffffffffffffffffffffffffffffffffffffff16815260200190815260200160002060006101000a81548160ff0219169083151502179055503373ffffffffffffffffffffffffffffffffffffffff167fac6fa858e9350a46cec16539926e0fde25b7629f84b5a72bffaae4df888ae86d60405160405180910390a2620f424060078190555064e8d4a51000600881905550620f424060098190555064e8d4a51000600a819055505062000318565b600080fd5b600073ffffffffffffffffffffffffffffffffffffffff82169050919050565b60006200022b82620001fe565b9050919050565b6200023d816200021e565b81146200024957600080fd5b50565b6000815190506200025d8162000232565b92915050565b6000602082840312156200027c576200027b620001f9565b5b60006200028c848285016200024c565b91505092915050565b600082825260208201905092915050565b7f4272696467653a20696e76616c69642075736463702061646472657373000000600082015250565b6000620002de601d8362000295565b9150620002eb82620002a6565b602082019050919050565b600060208201905081810360008301526200031181620002cf565b9050919050565b612c1780620003286000396000f3fe608060405234801561001057600080fd5b50600436106101735760003560e01c80638456cb59116100de578063b8a4e15111610097578063e30c397811610071578063e30c3978146103f0578063e869554d1461040e578063f2fde38b14610442578063f516440c1461045e57610173565b8063b8a4e15114610386578063ccc143b8146103a4578063d5d0d21c146103c057610173565b80638456cb59146102ec5780638da5cb5b146102f65780638ed83271146103145780639870d7fe14610332578063a075b7c71461034e578063ac8a584a1461036a57610173565b80634592bc14116101305780634592bc1414610250578063464514af1461026e5780635c975abb1461028a578063645006ca146102a85780636e2bc8ff146102c657806379ba5097146102e257610173565b8063026508d11461017857806313e7c9d8146101ac57806315e7b12f146101dc5780633f4ba83a146101f857806340c5faf014610202578063457e1a4914610232575b600080fd5b610192600480360381019061018d9190611ddf565b61047c565b6040516101a3959493929190611e81565b60405180910390f35b6101c660048036038101906101c19190611f00565b6104ff565b6040516101d39190611f2d565b60405180910390f35b6101f660048036038101906101f19190611f00565b61051f565b005b6102006106dc565b005b61021c60048036038101906102179190611ddf565b6107c0565b6040516102299190611f2d565b60405180910390f35b61023a6107e0565b6040516102479190611f48565b60405180910390f35b6102586107e6565b6040516102659190611fc2565b60405180910390f35b61028860048036038101906102839190611ddf565b61080a565b005b6102926109ff565b60405161029f9190611f2d565b60405180910390f35b6102b0610a12565b6040516102bd9190611f48565b60405180910390f35b6102e060048036038101906102db9190612009565b610a18565b005b6102ea610d90565b005b6102f4610f65565b005b6102fe611049565b60405161030b919061205c565b60405180910390f35b61031c61106f565b6040516103299190611f48565b60405180910390f35b61034c60048036038101906103479190611f00565b611075565b005b61036860048036038101906103639190612077565b6112a0565b005b610384600480360381019061037f9190611f00565b611415565b005b61038e6115cf565b60405161039b9190611f48565b60405180910390f35b6103be60048036038101906103b991906120de565b6115d5565b005b6103da60048036038101906103d59190611ddf565b611a5d565b6040516103e79190611f2d565b60405180910390f35b6103f8611a87565b604051610405919061205c565b60405180910390f35b61042860048036038101906104239190611ddf565b611aad565b604051610439959493929190611e81565b60405180910390f35b61045c60048036038101906104579190611f00565b611bde565b005b610466611d9e565b6040516104739190611f48565b60405180910390f35b60056020528060005260406000206000915090508060000160009054906101000a900473ffffffffffffffffffffffffffffffffffffffff16908060010154908060020160009054906101000a900473ffffffffffffffffffffffffffffffffffffffff16908060030154908060040160009054906101000a900460ff16905085565b60036020528060005260406000206000915054906101000a900460ff1681565b600160009054906101000a900473ffffffffffffffffffffffffffffffffffffffff1673ffffffffffffffffffffffffffffffffffffffff163373ffffffffffffffffffffffffffffffffffffffff16146105af576040517f08c379a00000000000000000000000000000000000000000000000000000000081526004016105a69061217b565b60405180910390fd5b600073ffffffffffffffffffffffffffffffffffffffff168173ffffffffffffffffffffffffffffffffffffffff16141561061f576040517f08c379a0000000000000000000000000000000000000000000000000000000008152600401610616906121e7565b60405180910390fd5b8073ffffffffffffffffffffffffffffffffffffffff1660008054906101000a900473ffffffffffffffffffffffffffffffffffffffff1673ffffffffffffffffffffffffffffffffffffffff167f9f4029743e25b0c4c4c13f0030d164255396c070582b48d23a96fc904cb2652960405160405180910390a3806000806101000a81548173ffffffffffffffffffffffffffffffffffffffff021916908373ffffffffffffffffffffffffffffffffffffffff16021790555050565b600160009054906101000a900473ffffffffffffffffffffffffffffffffffffffff1673ffffffffffffffffffffffffffffffffffffffff163373ffffffffffffffffffffffffffffffffffffffff161461076c576040517f08c379a00000000000000000000000000000000000000000000000000000000081526004016107639061217b565b60405180910390fd5b6000600260146101000a81548160ff0219169083151502179055507f5db9ee0a495bf2e6ff9c91a7834c1ba4fdd244a5e8aa4e537bd38aeae4b073aa336040516107b6919061205c565b60405180910390a1565b60046020528060005260406000206000915054906101000a900460ff1681565b60095481565b60008054906101000a900473ffffffffffffffffffffffffffffffffffffffff1681565b600360003373ffffffffffffffffffffffffffffffffffffffff1673ffffffffffffffffffffffffffffffffffffffff16815260200190815260200160002060009054906101000a900460ff16610896576040517f08c379a000000000000000000000000000000000000000000000000000000000815260040161088d90612253565b60405180910390fd5b600073ffffffffffffffffffffffffffffffffffffffff166005600083815260200190815260200160002060000160009054906101000a900473ffffffffffffffffffffffffffffffffffffffff1673ffffffffffffffffffffffffffffffffffffffff16141561093c576040517f08c379a0000000000000000000000000000000000000000000000000000000008152600401610933906122bf565b60405180910390fd5b6005600082815260200190815260200160002060040160009054906101000a900460ff16156109a0576040517f08c379a00000000000000000000000000000000000000000000000000000000081526004016109979061232b565b60405180910390fd5b60016005600083815260200190815260200160002060040160006101000a81548160ff021916908315150217905550807f82459f84b3ecf0308611b420b9d42c054f0dbfb50d04c13a22d0804f582f649760405160405180910390a250565b600260149054906101000a900460ff1681565b60075481565b600360003373ffffffffffffffffffffffffffffffffffffffff1673ffffffffffffffffffffffffffffffffffffffff16815260200190815260200160002060009054906101000a900460ff16610aa4576040517f08c379a0000000000000000000000000000000000000000000000000000000008152600401610a9b90612253565b60405180910390fd5b600260149054906101000a900460ff1615610af4576040517f08c379a0000000000000000000000000000000000000000000000000000000008152600401610aeb90612397565b60405180910390fd5b600073ffffffffffffffffffffffffffffffffffffffff168373ffffffffffffffffffffffffffffffffffffffff161415610b64576040517f08c379a0000000000000000000000000000000000000000000000000000000008152600401610b5b90612403565b60405180910390fd5b600754821015610ba9576040517f08c379a0000000000000000000000000000000000000000000000000000000008152600401610ba09061246f565b60405180910390fd5b600854821115610bee576040517f08c379a0000000000000000000000000000000000000000000000000000000008152600401610be5906124db565b60405180910390fd5b6000818484604051602001610c0593929190612585565b6040516020818303038152906040528051906020012090506004600082815260200190815260200160002060009054906101000a900460ff1615610c7e576040517f08c379a0000000000000000000000000000000000000000000000000000000008152600401610c7590612634565b60405180910390fd5b60016004600083815260200190815260200160002060006101000a81548160ff02191690831515021790555060008054906101000a900473ffffffffffffffffffffffffffffffffffffffff1673ffffffffffffffffffffffffffffffffffffffff16631e458bee8585846040518463ffffffff1660e01b8152600401610d0793929190612663565b600060405180830381600087803b158015610d2157600080fd5b505af1158015610d35573d6000803e3d6000fd5b505050508373ffffffffffffffffffffffffffffffffffffffff16817fbc4baef869a8d9fffec842f183b4c4bf035ed3ea57f299e957c46f198a63f0468585604051610d8292919061269a565b60405180910390a350505050565b600260009054906101000a900473ffffffffffffffffffffffffffffffffffffffff1673ffffffffffffffffffffffffffffffffffffffff163373ffffffffffffffffffffffffffffffffffffffff1614610e20576040517f08c379a0000000000000000000000000000000000000000000000000000000008152600401610e1790612735565b60405180910390fd5b600260009054906101000a900473ffffffffffffffffffffffffffffffffffffffff1673ffffffffffffffffffffffffffffffffffffffff16600160009054906101000a900473ffffffffffffffffffffffffffffffffffffffff1673ffffffffffffffffffffffffffffffffffffffff167f8be0079c531659141344cd1fd0a4f28419497f9722a3daafe3b4186f6b6457e060405160405180910390a3600260009054906101000a900473ffffffffffffffffffffffffffffffffffffffff16600160006101000a81548173ffffffffffffffffffffffffffffffffffffffff021916908373ffffffffffffffffffffffffffffffffffffffff1602179055506000600260006101000a81548173ffffffffffffffffffffffffffffffffffffffff021916908373ffffffffffffffffffffffffffffffffffffffff160217905550565b600160009054906101000a900473ffffffffffffffffffffffffffffffffffffffff1673ffffffffffffffffffffffffffffffffffffffff163373ffffffffffffffffffffffffffffffffffffffff1614610ff5576040517f08c379a0000000000000000000000000000000000000000000000000000000008152600401610fec9061217b565b60405180910390fd5b6001600260146101000a81548160ff0219169083151502179055507f62e78cea01bee320cd4e420270b5ea74000d11b0c9f74754ebdbfc544b05a2583360405161103f919061205c565b60405180910390a1565b600160009054906101000a900473ffffffffffffffffffffffffffffffffffffffff1681565b60085481565b600160009054906101000a900473ffffffffffffffffffffffffffffffffffffffff1673ffffffffffffffffffffffffffffffffffffffff163373ffffffffffffffffffffffffffffffffffffffff1614611105576040517f08c379a00000000000000000000000000000000000000000000000000000000081526004016110fc9061217b565b60405180910390fd5b600073ffffffffffffffffffffffffffffffffffffffff168173ffffffffffffffffffffffffffffffffffffffff161415611175576040517f08c379a000000000000000000000000000000000000000000000000000000000815260040161116c906127a1565b60405180910390fd5b600360008273ffffffffffffffffffffffffffffffffffffffff1673ffffffffffffffffffffffffffffffffffffffff16815260200190815260200160002060009054906101000a900460ff1615611202576040517f08c379a00000000000000000000000000000000000000000000000000000000081526004016111f99061280d565b60405180910390fd5b6001600360008373ffffffffffffffffffffffffffffffffffffffff1673ffffffffffffffffffffffffffffffffffffffff16815260200190815260200160002060006101000a81548160ff0219169083151502179055508073ffffffffffffffffffffffffffffffffffffffff167fac6fa858e9350a46cec16539926e0fde25b7629f84b5a72bffaae4df888ae86d60405160405180910390a250565b600160009054906101000a900473ffffffffffffffffffffffffffffffffffffffff1673ffffffffffffffffffffffffffffffffffffffff163373ffffffffffffffffffffffffffffffffffffffff1614611330576040517f08c379a00000000000000000000000000000000000000000000000000000000081526004016113279061217b565b60405180910390fd5b82841115611373576040517f08c379a000000000000000000000000000000000000000000000000000000000815260040161136a90612879565b60405180910390fd5b808211156113b6576040517f08c379a00000000000000000000000000000000000000000000000000000000081526004016113ad906128e5565b60405180910390fd5b83600781905550826008819055508160098190555080600a819055507fe3eb5d4eccdae2d96efa105f65c8db865f9fc72984f2b879a27448fed50d1815848484846040516114079493929190612905565b60405180910390a150505050565b600160009054906101000a900473ffffffffffffffffffffffffffffffffffffffff1673ffffffffffffffffffffffffffffffffffffffff163373ffffffffffffffffffffffffffffffffffffffff16146114a5576040517f08c379a000000000000000000000000000000000000000000000000000000000815260040161149c9061217b565b60405180910390fd5b600360008273ffffffffffffffffffffffffffffffffffffffff1673ffffffffffffffffffffffffffffffffffffffff16815260200190815260200160002060009054906101000a900460ff16611531576040517f08c379a000000000000000000000000000000000000000000000000000000000815260040161152890612996565b60405180910390fd5b6000600360008373ffffffffffffffffffffffffffffffffffffffff1673ffffffffffffffffffffffffffffffffffffffff16815260200190815260200160002060006101000a81548160ff0219169083151502179055508073ffffffffffffffffffffffffffffffffffffffff167f80c0b871b97b595b16a7741c1b06fed0c6f6f558639f18ccbce50724325dc40d60405160405180910390a250565b60065481565b600260149054906101000a900460ff1615611625576040517f08c379a000000000000000000000000000000000000000000000000000000000815260040161161c90612397565b60405180910390fd5b60095482101561166a576040517f08c379a00000000000000000000000000000000000000000000000000000000081526004016116619061246f565b60405180910390fd5b600a548211156116af576040517f08c379a00000000000000000000000000000000000000000000000000000000081526004016116a6906124db565b60405180910390fd5b600073ffffffffffffffffffffffffffffffffffffffff168173ffffffffffffffffffffffffffffffffffffffff16141561171f576040517f08c379a000000000000000000000000000000000000000000000000000000000815260040161171690612403565b60405180910390fd5b8160008054906101000a900473ffffffffffffffffffffffffffffffffffffffff1673ffffffffffffffffffffffffffffffffffffffff166370a08231336040518263ffffffff1660e01b8152600401611779919061205c565b602060405180830381865afa158015611796573d6000803e3d6000fd5b505050506040513d601f19601f820116820180604052508101906117ba91906129cb565b10156117fb576040517f08c379a00000000000000000000000000000000000000000000000000000000081526004016117f290612a44565b60405180910390fd5b6000338383600654424360405160200161181a96959493929190612a64565b6040516020818303038152906040528051906020012090506006600081548092919061184590612b03565b91905055506040518060a001604052803373ffffffffffffffffffffffffffffffffffffffff1681526020018481526020018373ffffffffffffffffffffffffffffffffffffffff168152602001428152602001600015158152506005600083815260200190815260200160002060008201518160000160006101000a81548173ffffffffffffffffffffffffffffffffffffffff021916908373ffffffffffffffffffffffffffffffffffffffff1602179055506020820151816001015560408201518160020160006101000a81548173ffffffffffffffffffffffffffffffffffffffff021916908373ffffffffffffffffffffffffffffffffffffffff1602179055506060820151816003015560808201518160040160006101000a81548160ff02191690831515021790555090505060008054906101000a900473ffffffffffffffffffffffffffffffffffffffff1673ffffffffffffffffffffffffffffffffffffffff1663158a1cc33385846040518463ffffffff1660e01b81526004016119d593929190612663565b600060405180830381600087803b1580156119ef57600080fd5b505af1158015611a03573d6000803e3d6000fd5b505050503373ffffffffffffffffffffffffffffffffffffffff16817fd538c920a07ae93ce0f0d0cdc7a11c5ada9534a51c1d4f48a60dba5af2fe352f8585604051611a50929190612b4c565b60405180910390a3505050565b60006004600083815260200190815260200160002060009054906101000a900460ff169050919050565b600260009054906101000a900473ffffffffffffffffffffffffffffffffffffffff1681565b600080600080600080600560008881526020019081526020016000206040518060a00160405290816000820160009054906101000a900473ffffffffffffffffffffffffffffffffffffffff1673ffffffffffffffffffffffffffffffffffffffff1673ffffffffffffffffffffffffffffffffffffffff168152602001600182015481526020016002820160009054906101000a900473ffffffffffffffffffffffffffffffffffffffff1673ffffffffffffffffffffffffffffffffffffffff1673ffffffffffffffffffffffffffffffffffffffff168152602001600382015481526020016004820160009054906101000a900460ff161515151581525050905080600001518160200151826040015183606001518460800151955095509550955095505091939590929450565b600160009054906101000a900473ffffffffffffffffffffffffffffffffffffffff1673ffffffffffffffffffffffffffffffffffffffff163373ffffffffffffffffffffffffffffffffffffffff1614611c6e576040517f08c379a0000000000000000000000000000000000000000000000000000000008152600401611c659061217b565b60405180910390fd5b600073ffffffffffffffffffffffffffffffffffffffff168173ffffffffffffffffffffffffffffffffffffffff161415611cde576040517f08c379a0000000000000000000000000000000000000000000000000000000008152600401611cd590612bc1565b60405180910390fd5b80600260006101000a81548173ffffffffffffffffffffffffffffffffffffffff021916908373ffffffffffffffffffffffffffffffffffffffff1602179055508073ffffffffffffffffffffffffffffffffffffffff16600160009054906101000a900473ffffffffffffffffffffffffffffffffffffffff1673ffffffffffffffffffffffffffffffffffffffff167f38d16b8cac22d99fc7c124b9cd0de2d3fa1faef420bfe791d8c362d765e2270060405160405180910390a350565b600a5481565b600080fd5b6000819050919050565b611dbc81611da9565b8114611dc757600080fd5b50565b600081359050611dd981611db3565b92915050565b600060208284031215611df557611df4611da4565b5b6000611e0384828501611dca565b91505092915050565b600073ffffffffffffffffffffffffffffffffffffffff82169050919050565b6000611e3782611e0c565b9050919050565b611e4781611e2c565b82525050565b6000819050919050565b611e6081611e4d565b82525050565b60008115159050919050565b611e7b81611e66565b82525050565b600060a082019050611e966000830188611e3e565b611ea36020830187611e57565b611eb06040830186611e3e565b611ebd6060830185611e57565b611eca6080830184611e72565b9695505050505050565b611edd81611e2c565b8114611ee857600080fd5b50565b600081359050611efa81611ed4565b92915050565b600060208284031215611f1657611f15611da4565b5b6000611f2484828501611eeb565b91505092915050565b6000602082019050611f426000830184611e72565b92915050565b6000602082019050611f5d6000830184611e57565b92915050565b6000819050919050565b6000611f88611f83611f7e84611e0c565b611f63565b611e0c565b9050919050565b6000611f9a82611f6d565b9050919050565b6000611fac82611f8f565b9050919050565b611fbc81611fa1565b82525050565b6000602082019050611fd76000830184611fb3565b92915050565b611fe681611e4d565b8114611ff157600080fd5b50565b60008135905061200381611fdd565b92915050565b60008060006060848603121561202257612021611da4565b5b600061203086828701611eeb565b935050602061204186828701611ff4565b925050604061205286828701611dca565b9150509250925092565b60006020820190506120716000830184611e3e565b92915050565b6000806000806080858703121561209157612090611da4565b5b600061209f87828801611ff4565b94505060206120b087828801611ff4565b93505060406120c187828801611ff4565b92505060606120d287828801611ff4565b91505092959194509250565b600080604083850312156120f5576120f4611da4565b5b600061210385828601611ff4565b925050602061211485828601611eeb565b9150509250929050565b600082825260208201905092915050565b7f4272696467653a2063616c6c6572206973206e6f74206f776e65720000000000600082015250565b6000612165601b8361211e565b91506121708261212f565b602082019050919050565b6000602082019050818103600083015261219481612158565b9050919050565b7f4272696467653a20696e76616c69642075736463702061646472657373000000600082015250565b60006121d1601d8361211e565b91506121dc8261219b565b602082019050919050565b60006020820190508181036000830152612200816121c4565b9050919050565b7f4272696467653a2063616c6c6572206973206e6f74206f70657261746f720000600082015250565b600061223d601e8361211e565b915061224882612207565b602082019050919050565b6000602082019050818103600083015261226c81612230565b9050919050565b7f4272696467653a207769746864726177206e6f7420666f756e64000000000000600082015250565b60006122a9601a8361211e565b91506122b482612273565b602082019050919050565b600060208201905081810360008301526122d88161229c565b9050919050565b7f4272696467653a20616c72656164792070726f63657373656400000000000000600082015250565b600061231560198361211e565b9150612320826122df565b602082019050919050565b6000602082019050818103600083015261234481612308565b9050919050565b7f4272696467653a20706175736564000000000000000000000000000000000000600082015250565b6000612381600e8361211e565b915061238c8261234b565b602082019050919050565b600060208201905081810360008301526123b081612374565b9050919050565b7f4272696467653a20696e76616c696420726563697069656e7400000000000000600082015250565b60006123ed60198361211e565b91506123f8826123b7565b602082019050919050565b6000602082019050818103600083015261241c816123e0565b9050919050565b7f4272696467653a20616d6f756e742062656c6f77206d696e696d756d00000000600082015250565b6000612459601c8361211e565b915061246482612423565b602082019050919050565b600060208201905081810360008301526124888161244c565b9050919050565b7f4272696467653a20616d6f756e742061626f7665206d6178696d756d00000000600082015250565b60006124c5601c8361211e565b91506124d08261248f565b602082019050919050565b600060208201905081810360008301526124f4816124b8565b9050919050565b6000819050919050565b61251661251182611da9565b6124fb565b82525050565b60008160601b9050919050565b60006125348261251c565b9050919050565b600061254682612529565b9050919050565b61255e61255982611e2c565b61253b565b82525050565b6000819050919050565b61257f61257a82611e4d565b612564565b82525050565b60006125918286612505565b6020820191506125a1828561254d565b6014820191506125b1828461256e565b602082019150819050949350505050565b7f4272696467653a206465706f73697420616c72656164792070726f636573736560008201527f6400000000000000000000000000000000000000000000000000000000000000602082015250565b600061261e60218361211e565b9150612629826125c2565b604082019050919050565b6000602082019050818103600083015261264d81612611565b9050919050565b61265d81611da9565b82525050565b60006060820190506126786000830186611e3e565b6126856020830185611e57565b6126926040830184612654565b949350505050565b60006040820190506126af6000830185611e57565b6126bc6020830184612654565b9392505050565b7f4272696467653a2063616c6c6572206973206e6f742070656e64696e67206f7760008201527f6e65720000000000000000000000000000000000000000000000000000000000602082015250565b600061271f60238361211e565b915061272a826126c3565b604082019050919050565b6000602082019050818103600083015261274e81612712565b9050919050565b7f4272696467653a20696e76616c6964206f70657261746f720000000000000000600082015250565b600061278b60188361211e565b915061279682612755565b602082019050919050565b600060208201905081810360008301526127ba8161277e565b9050919050565b7f4272696467653a20616c7265616479206f70657261746f720000000000000000600082015250565b60006127f760188361211e565b9150612802826127c1565b602082019050919050565b60006020820190508181036000830152612826816127ea565b9050919050565b7f4272696467653a20696e76616c6964206465706f736974206c696d6974730000600082015250565b6000612863601e8361211e565b915061286e8261282d565b602082019050919050565b6000602082019050818103600083015261289281612856565b9050919050565b7f4272696467653a20696e76616c6964207769746864726177206c696d69747300600082015250565b60006128cf601f8361211e565b91506128da82612899565b602082019050919050565b600060208201905081810360008301526128fe816128c2565b9050919050565b600060808201905061291a6000830187611e57565b6129276020830186611e57565b6129346040830185611e57565b6129416060830184611e57565b95945050505050565b7f4272696467653a206e6f7420616e206f70657261746f72000000000000000000600082015250565b600061298060178361211e565b915061298b8261294a565b602082019050919050565b600060208201905081810360008301526129af81612973565b9050919050565b6000815190506129c581611fdd565b92915050565b6000602082840312156129e1576129e0611da4565b5b60006129ef848285016129b6565b91505092915050565b7f4272696467653a20696e73756666696369656e742062616c616e636500000000600082015250565b6000612a2e601c8361211e565b9150612a39826129f8565b602082019050919050565b60006020820190508181036000830152612a5d81612a21565b9050919050565b6000612a70828961254d565b601482019150612a80828861256e565b602082019150612a90828761254d565b601482019150612aa0828661256e565b602082019150612ab0828561256e565b602082019150612ac0828461256e565b602082019150819050979650505050505050565b7f4e487b7100000000000000000000000000000000000000000000000000000000600052601160045260246000fd5b6000612b0e82611e4d565b91507fffffffffffffffffffffffffffffffffffffffffffffffffffffffffffffffff821415612b4157612b40612ad4565b5b600182019050919050565b6000604082019050612b616000830185611e57565b612b6e6020830184611e3e565b9392505050565b7f4272696467653a20696e76616c6964206f776e65720000000000000000000000600082015250565b6000612bab60158361211e565b9150612bb682612b75565b602082019050919050565b60006020820190508181036000830152612bda81612b9e565b905091905056fea264697066735822122006af043b96b92efe348d87f1932b601943c924ece9661717067321974728dd7964736f6c634300080a0033",
      "opcodes": "PUSH1 0x80 PUSH1 0x40 MSTORE CALLVALUE DUP1 ISZERO PUSH3 0x11 JUMPI PUSH1 0x0 DUP1 REVERT JUMPDEST POP PUSH1 0x40 MLOAD PUSH3 0x2F3F CODESIZE SUB DUP1 PUSH3 0x2F3F DUP4 CODECOPY DUP2 DUP2 ADD PUSH1 0x40 MSTORE DUP2 ADD SWAP1 PUSH3 0x37 SWAP2 SWAP1 PUSH3 0x263 JUMP JUMPDEST PUSH1 0x0 PUSH20 0xFFFFFFFFFFFFFFFFFFFFFFFFFFFFFFFFFFFFFFFF AND DUP2 PUSH20 0xFFFFFFFFFFFFFFFFFFFFFFFFFFFFFFFFFFFFFFFF AND EQ ISZERO PUSH3 0xAA JUMPI PUSH1 0x40 MLOAD PUSH32 0x8C379A000000000000000000000000000000000000000000000000000000000 DUP2 MSTORE PUSH1 0x4 ADD PUSH3 0xA1 SWAP1 PUSH3 0x2F6 JUMP JUMPDEST PUSH1 0x40 MLOAD DUP1 SWAP2 SUB SWAP1 REVERT JUMPDEST CALLER PUSH1 0x1 PUSH1 0x0 PUSH2 0x100 EXP DUP2 SLOAD DUP2 PUSH20 0xFFFFFFFFFFFFFFFFFFFFFFFFFFFFFFFFFFFFFFFF MUL NOT AND SWAP1 DUP4 PUSH20 0xFFFFFFFFFFFFFFFFFFFFFFFFFFFFFFFFFFFFFFFF AND MUL OR SWAP1 SSTORE POP DUP1 PUSH1 0x0 DUP1 PUSH2 0x100 EXP DUP2 SLOAD DUP2 PUSH20 0xFFFFFFFFFFFFFFFFFFFFFFFFFFFFFFFFFFFFFFFF MUL NOT AND SWAP1 DUP4 PUSH20 0xFFFFFFFFFFFFFFFFFFFFFFFFFFFFFFFFFFFFFFFF AND MUL OR SWAP1 SSTORE POP PUSH1 0x1 PUSH1 0x3 PUSH1 0x0 CALLER PUSH20 0xFFFFFFFFFFFFFFFFFFFFFFFFFFFFFFFFFFFFFFFF AND PUSH20 0xFFFFFFFFFFFFFFFFFFFFFFFFFFFFFFFFFFFFFFFF AND DUP2 MSTORE PUSH1 0x20 ADD SWAP1 DUP2 MSTORE PUSH1 0x20 ADD PUSH1 0x0 KECCAK256 PUSH1 0x0 PUSH2 0x100 EXP DUP2 SLOAD DUP2 PUSH1 0xFF MUL NOT AND SWAP1 DUP4 ISZERO ISZERO MUL OR SWAP1 SSTORE POP CALLER PUSH20 0xFFFFFFFFFFFFFFFFFFFFFFFFFFFFFFFFFFFFFFFF AND PUSH32 0xAC6FA858E9350A46CEC16539926E0FDE25B7629F84B5A72BFFAAE4DF888AE86D PUSH1 0x40 MLOAD PUSH1 0x40 MLOAD DUP1 SWAP2 SUB SWAP1 LOG2 PUSH3 0xF4240 PUSH1 0x7 DUP2 SWAP1 SSTORE POP PUSH5 0xE8D4A51000 PUSH1 0x8 DUP2 SWAP1 SSTORE POP PUSH3 0xF4240 PUSH1 0x9 DUP2 SWAP1 SSTORE POP PUSH5 0xE8D4A51000 PUSH1 0xA DUP2 SWAP1 SSTORE POP POP PUSH3 0x318 JUMP JUMPDEST PUSH1 0x0 DUP1 REVERT JUMPDEST PUSH1 0x0 PUSH20 0xFFFFFFFFFFFFFFFFFFFFFFFFFFFFFFFFFFFFFFFF DUP3 AND SWAP1 POP SWAP2 SWAP1 POP JUMP JUMPDEST PUSH1 0x0 PUSH3 0x22B DUP3 PUSH3 0x1FE JUMP JUMPDEST SWAP1 POP SWAP2 SWAP1 POP JUMP JUMPDEST PUSH3 0x23D DUP2 PUSH3 0x21E JUMP JUMPDEST DUP2 EQ PUSH3 0x249 JUMPI PUSH1 0x0 DUP1 REVERT JUMPDEST POP JUMP JUMPDEST PUSH1 0x0 DUP2 MLOAD SWAP1 POP PUSH3 0x25D DUP2 PUSH3 0x232 JUMP JUMPDEST SWAP3 SWAP2 POP POP JUMP JUMPDEST PUSH1 0x0 PUSH1 0x20 DUP3 DUP5 SUB SLT ISZERO PUSH3 0x27C JUMPI PUSH3 0x27B PUSH3 0x1F9 JUMP JUMPDEST JUMPDEST PUSH1 0x0 PUSH3 0x28C DUP5 DUP3 DUP6 ADD PUSH3 0x24C JUMP JUMPDEST SWAP2 POP POP SWAP3 SWAP2 POP POP JUMP JUMPDEST PUSH1 0x0 DUP3 DUP3 MSTORE PUSH1 0x20 DUP3 ADD SWAP1 POP SWAP3 SWAP2 POP POP JUMP JUMPDEST PUSH32 0x4272696467653A20696E76616C69642075736463702061646472657373000000 PUSH1 0x0 DUP3 ADD MSTORE POP JUMP JUMPDEST PUSH1 0x0 PUSH3 0x2DE PUSH1 0x1D DUP4 PUSH3 0x295 JUMP JUMPDEST SWAP2 POP PUSH3 0x2EB DUP3 PUSH3 0x2A6 JUMP JUMPDEST PUSH1 0x20 DUP3 ADD SWAP1 POP SWAP2 SWAP1 POP JUMP JUMPDEST PUSH1 0x0 PUSH1 0x20 DUP3 ADD SWAP1 POP DUP2 DUP2 SUB PUSH1 0x0 DUP4 ADD MSTORE PUSH3 0x311 DUP2 PUSH3 0x2CF JUMP JUMPDEST SWAP1 POP SWAP2 SWAP1 POP JUMP JUMPDEST PUSH2 0x2C17 DUP1 PUSH3 0x328 PUSH1 0x0 CODECOPY PUSH1 0x0 RETURN INVALID PUSH1 0x80 PUSH1 0x40 MSTORE CALLVALUE DUP1 ISZERO PUSH2 0x10 JUMPI PUSH1 0x0 DUP1 REVERT JUMPDEST POP PUSH1 0x4 CALLDATASIZE LT PUSH2 0x173 JUMPI PUSH1 0x0 CALLDATALOAD PUSH1 0xE0 SHR DUP1 PUSH4 0x8456CB59 GT PUSH2 0xDE JUMPI DUP1 PUSH4 0xB8A4E151 GT PUSH2 0x97 JUMPI DUP1 PUSH4 0xE30C3978 GT PUSH2 0x71 JUMPI DUP1 PUSH4 0xE30C3978 EQ PUSH2 0x3F0 JUMPI DUP1 PUSH4 0xE869554D EQ PUSH2 0x40E JUMPI DUP1 PUSH4 0xF2FDE38B EQ PUSH2 0x442 JUMPI DUP1 PUSH4 0xF516440C EQ PUSH2 0x45E JUMPI PUSH2 0x173 JUMP JUMPDEST DUP1 PUSH4 0xB8A4E151 EQ PUSH2 0x386 JUMPI DUP1 PUSH4 0xCCC143B8 EQ PUSH2 0x3A4 JUMPI DUP1 PUSH4 0xD5D0D21C EQ PUSH2 0x3C0 JUMPI PUSH2 0x173 JUMP JUMPDEST DUP1 PUSH4 0x8456CB59 EQ PUSH2 0x2EC JUMPI DUP1 PUSH4 0x8DA5CB5B EQ PUSH2 0x2F6 JUMPI DUP1 PUSH4 0x8ED83271 EQ PUSH2 0x314 JUMPI DUP1 PUSH4 0x9870D7FE EQ PUSH2 0x332 JUMPI DUP1 PUSH4 0xA075B7C7 EQ PUSH2 0x34E JUMPI DUP1 PUSH4 0xAC8A584A EQ PUSH2 0x36A JUMPI PUSH2 0x173 JUMP JUMPDEST DUP1 PUSH4 0x4592BC14 GT PUSH2 0x130 JUMPI DUP1 PUSH4 0x4592BC14 EQ PUSH2 0x250 JUMPI DUP1 PUSH4 0x464514AF EQ PUSH2 0x26E JUMPI DUP1 PUSH4 0x5C975ABB EQ PUSH2 0x28A JUMPI DUP1 PUSH4 0x645006CA EQ PUSH2 0x2A8 JUMPI DUP1 PUSH4 0x6E2BC8FF EQ PUSH2 0x2C6 JUMPI DUP1 PUSH4 0x79BA5097 EQ PUSH2 0x2E2 JUMPI PUSH2 0x173 JUMP JUMPDEST DUP1 PUSH4 0x26508D1 EQ PUSH2 0x178 JUMPI DUP1 PUSH4 0x13E7C9D8 EQ PUSH2 0x1AC JUMPI DUP1 PUSH4 0x15E7B12F EQ PUSH2 0x1DC JUMPI DUP1 PUSH4 0x3F4BA83A EQ PUSH2 0x1F8 JUMPI DUP1 PUSH4 0x40C5FAF0 EQ PUSH2 0x202 JUMPI DUP1 PUSH4 0x457E1A49 EQ PUSH2 0x232 JUMPI JUMPDEST PUSH1 0x0 DUP1 REVERT JUMPDEST PUSH2 0x192 PUSH1 0x4 DUP1 CALLDATASIZE SUB DUP2 ADD SWAP1 PUSH2 0x18D SWAP2 SWAP1 PUSH2 0x1DDF JUMP JUMPDEST PUSH2 0x47C JUMP JUMPDEST PUSH1 0x40 MLOAD PUSH2 0x1A3 SWAP6 SWAP5 SWAP4 SWAP3 SWAP2 SWAP1 PUSH2 0x1E81 JUMP JUMPDEST PUSH1 0x40 MLOAD DUP1 SWAP2 SUB SWAP1 RETURN JUMPDEST PUSH2 0x1C6 PUSH1 0x4 DUP1 CALLDATASIZE SUB DUP2 ADD SWAP1 PUSH2 0x1C1 SWAP2 SWAP1 PUSH2 0x1F00 JUMP JUMPDEST PUSH2 0x4FF JUMP JUMPDEST PUSH1 0x40 MLOAD PUSH2 0x1D3 SWAP2 SWAP1 PUSH2 0x1F2D JUMP JUMPDEST PUSH1 0x40 MLOAD DUP1 SWAP2 SUB SWAP1 RETURN JUMPDEST PUSH2 0x1F6 PUSH1 0x4 DUP1 CALLDATASIZE SUB DUP2 ADD SWAP1 PUSH2 0x1F1 SWAP2 SWAP1 PUSH2 0x1F00 JUMP JUMPDEST PUSH2 0x51F JUMP JUMPDEST STOP JUMPDEST PUSH2 0x200 PUSH2 0x6DC JUMP JUMPDEST STOP JUMPDEST PUSH2 0x21C PUSH1 0x4 DUP1 CALLDATASIZE SUB DUP2 ADD SWAP1 PUSH2 0x217 SWAP2 SWAP1 PUSH2 0x1DDF JUMP JUMPDEST PUSH2 0x7C0 JUMP JUMPDEST PUSH1 0x40 MLOAD PUSH2 0x229 SWAP2 SWAP1 PUSH2 0x1F2D JUMP JUMPDEST PUSH1 0x40 MLOAD DUP1 SWAP2 SUB SWAP1 RETURN JUMPDEST PUSH2 0x23A PUSH2 0x7E0 JUMP JUMPDEST PUSH1 0x40 MLOAD PUSH2 0x247 SWAP2 SWAP1 PUSH2 0x1F48 JUMP JUMPDEST PUSH1 0x40 MLOAD DUP1 SWAP2 SUB SWAP1 RETURN JUMPDEST PUSH2 0x258 PUSH2 0x7E6 JUMP JUMPDEST PUSH1 0x40 MLOAD PUSH2 0x265 SWAP2 SWAP1 PUSH2 0x1FC2 JUMP JUMPDEST PUSH1 0x40 MLOAD DUP1 SWAP2 SUB SWAP1 RETURN JUMPDEST PUSH2 0x288 PUSH1 0x4 DUP1 CALLDATASIZE SUB DUP2 ADD SWAP1 PUSH2 0x283 SWAP2 SWAP1 PUSH2 0x1DDF JUMP JUMPDEST PUSH2 0x80A JUMP JUMPDEST STOP JUMPDEST PUSH2 0x292 PUSH2 0x9FF JUMP JUMPDEST PUSH1 0x40 MLOAD PUSH2 0x29F SWAP2 SWAP1 PUSH2 0x1F2D JUMP JUMPDEST PUSH1 0x40 MLOAD DUP1 SWAP2 SUB SWAP1 RETURN JUMPDEST PUSH2 0x2B0 PUSH2 0xA12 JUMP JUMPDEST PUSH1 0x40 MLOAD PUSH2 0x2BD SWAP2 SWAP1 PUSH2 0x1F48 JUMP JUMPDEST PUSH1 0x40 MLOAD DUP1 SWAP2 SUB SWAP1 RETURN JUMPDEST PUSH2 0x2E0 PUSH1 0x4 DUP1 CALLDATASIZE SUB DUP2 ADD SWAP1 PUSH2 0x2DB SWAP2 SWAP1 PUSH2 0x2009 JUMP JUMPDEST PUSH2 0xA18 JUMP JUMPDEST STOP JUMPDEST PUSH2 0x2EA PUSH2 0xD90 JUMP JUMPDEST STOP JUMPDEST PUSH2 0x2F4 PUSH2 0xF65 JUMP JUMPDEST STOP JUMPDEST PUSH2 0x2FE PUSH2 0x1049 JUMP JUMPDEST PUSH1 0x40 MLOAD PUSH2 0x30B SWAP2 SWAP1 PUSH2 0x205C JUMP JUMPDEST PUSH1 0x40 MLOAD DUP1 SWAP2 SUB SWAP1 RETURN JUMPDEST PUSH2 0x31C PUSH2 0x106F JUMP JUMPDEST PUSH1 0x40 MLOAD PUSH2 0x329 SWAP2 SWAP1 PUSH2 0x1F48 JUMP JUMPDEST PUSH1 0x40 MLOAD DUP1 SWAP2 SUB SWAP1 RETURN JUMPDEST PUSH2 0x34C PUSH1 0x4 DUP1 CALLDATASIZE SUB DUP2 ADD SWAP1 PUSH2 0x347 SWAP2 SWAP1 PUSH2 0x1F00 JUMP JUMPDEST PUSH2 0x1075 JUMP JUMPDEST STOP JUMPDEST PUSH2 0x368 PUSH1 0x4 DUP1 CALLDATASIZE SUB DUP2 ADD SWAP1 PUSH2 0x363 SWAP2 SWAP1 PUSH2 0x2077 JUMP JUMPDEST PUSH2 0x12A0 JUMP JUMPDEST STOP JUMPDEST PUSH2 0x384 PUSH1 0x4 DUP1 CALLDATASIZE SUB DUP2 ADD SWAP1 PUSH2 0x37F SWAP2 SWAP1 PUSH2 0x1F00 JUMP JUMPDEST PUSH2 0x1415 JUMP JUMPDEST STOP JUMPDEST PUSH2 0x38E PUSH2 0x15CF JUMP JUMPDEST PUSH1 0x40 MLOAD PUSH2 0x39B SWAP2 SWAP1 PUSH2 0x1F48 JUMP JUMPDEST PUSH1 0x40 MLOAD DUP1 SWAP2 SUB SWAP1 RETURN JUMPDEST PUSH2 0x3BE PUSH1 0x4 DUP1 CALLDATASIZE SUB DUP2 ADD SWAP1 PUSH2 0x3B9 SWAP2 SWAP1 PUSH2 0x20DE JUMP JUMPDEST PUSH2 0x15D5 JUMP JUMPDEST STOP JUMPDEST PUSH2 0x3DA PUSH1 0x4 DUP1 CALLDATASIZE SUB DUP2 ADD SWAP1 PUSH2 0x3D5 SWAP2 SWAP1 PUSH2 0x1DDF JUMP JUMPDEST PUSH2 0x1A5D JUMP JUMPDEST PUSH1 0x40 MLOAD PUSH2 0x3E7 SWAP2 SWAP1 PUSH2 0x1F2D JUMP JUMPDEST PUSH1 0x40 MLOAD DUP1 SWAP2 SUB SWAP1 RETURN JUMPDEST PUSH2 0x3F8 PUSH2 0x1A87 JUMP JUMPDEST PUSH1 0x40 MLOAD PUSH2 0x405 SWAP2 SWAP1 PUSH2 0x205C JUMP JUMPDEST PUSH1 0x40 MLOAD DUP1 SWAP2 SUB SWAP1 RETURN JUMPDEST PUSH2 0x428 PUSH1 0x4 DUP1 CALLDATASIZE SUB DUP2 ADD SWAP1 PUSH2 0x423 SWAP2 SWAP1 PUSH2 0x1DDF JUMP JUMPDEST PUSH2 0x1AAD JUMP JUMPDEST PUSH1 0x40 MLOAD PUSH2 0x439 SWAP6 SWAP5 SWAP4 SWAP3 SWAP2 SWAP1 PUSH2 0x1E81 JUMP JUMPDEST PUSH1 0x40 MLOAD DUP1 SWAP2 SUB SWAP1 RETURN JUMPDEST PUSH2 0x45C PUSH1 0x4 DUP1 CALLDATASIZE SUB DUP2 ADD SWAP1 PUSH2 0x457 SWAP2 SWAP1 PUSH2 0x1F00 JUMP JUMPDEST PUSH2 0x1BDE JUMP JUMPDEST STOP JUMPDEST PUSH2 0x466 PUSH2 0x1D9E JUMP JUMPDEST PUSH1 0x40 MLOAD PUSH2 0x473 SWAP2 SWAP1 PUSH2 0x1F48 JUMP JUMPDEST PUSH1 0x40 MLOAD DUP1 SWAP2 SUB SWAP1 RETURN JUMPDEST PUSH1 0x5 PUSH1 0x20 MSTORE DUP1 PUSH1 0x0 MSTORE PUSH1 0x40 PUSH1 0x0 KECCAK256 PUSH1 0x0 SWAP2 POP SWAP1 POP DUP1 PUSH1 0x0 ADD PUSH1 0x0 SWAP1 SLOAD SWAP1 PUSH2 0x100 EXP SWAP1 DIV PUSH20 0xFFFFFFFFFFFFFFFFFFFFFFFFFFFFFFFFFFFFFFFF AND SWAP1 DUP1 PUSH1 0x1 ADD SLOAD SWAP1 DUP1 PUSH1 0x2 ADD PUSH1 0x0 SWAP1 SLOAD SWAP1 PUSH2 0x100 EXP SWAP1 DIV PUSH20 0xFFFFFFFFFFFFFFFFFFFFFFFFFFFFFFFFFFFFFFFF AND SWAP1 DUP1 PUSH1 0x3 ADD SLOAD SWAP1 DUP1 PUSH1 0x4 ADD PUSH1 0x0 SWAP1 SLOAD SWAP1 PUSH2 0x100 EXP SWAP1 DIV PUSH1 0xFF AND SWAP1 POP DUP6 JUMP JUMPDEST PUSH1 0x3 PUSH1 0x20 MSTORE DUP1 PUSH1 0x0 MSTORE PUSH1 0x40 PUSH1 0x0 KECCAK256 PUSH1 0x0 SWAP2 POP SLOAD SWAP1 PUSH2 0x100 EXP SWAP1 DIV PUSH1 0xFF AND DUP2 JUMP JUMPDEST PUSH1 0x1 PUSH1 0x0 SWAP1 SLOAD SWAP1 PUSH2 0x100 EXP SWAP1 DIV PUSH20 0xFFFFFFFFFFFFFFFFFFFFFFFFFFFFFFFFFFFFFFFF AND PUSH20 0xFFFFFFFFFFFFFFFFFFFFFFFFFFFFFFFFFFFFFFFF AND CALLER PUSH20 0xFFFFFFFFFFFFFFFFFFFFFFFFFFFFFFFFFFFFFFFF AND EQ PUSH2 0x5AF JUMPI PUSH1 0x40 MLOAD PUSH32 0x8C379A000000000000000000000000000000000000000000000000000000000 DUP2 MSTORE PUSH1 0x4 ADD PUSH2 0x5A6 SWAP1 PUSH2 0x217B JUMP JUMPDEST PUSH1 0x40 MLOAD DUP1 SWAP2 SUB SWAP1 REVERT JUMPDEST PUSH1 0x0 PUSH20 0xFFFFFFFFFFFFFFFFFFFFFFFFFFFFFFFFFFFFFFFF AND DUP2 PUSH20 0xFFFFFFFFFFFFFFFFFFFFFFFFFFFFFFFFFFFFFFFF AND EQ ISZERO PUSH2 0x61F JUMPI PUSH1 0x40 MLOAD PUSH32 0x8C379A000000000000000000000000000000000000000000000000000000000 DUP2 MSTORE PUSH1 0x4 ADD PUSH2 0x616 SWAP1 PUSH2 0x21E7 JUMP JUMPDEST PUSH1 0x40 MLOAD DUP1 SWAP2 SUB SWAP1 REVERT JUMPDEST DUP1 PUSH20 0xFFFFFFFFFFFFFFFFFFFFFFFFFFFFFFFFFFFFFFFF AND PUSH1 0x0 DUP1 SLOAD SWAP1 PUSH2 0x100 EXP SWAP1 DIV PUSH20 0xFFFFFFFFFFFFFFFFFFFFFFFFFFFFFFFFFFFFFFFF AND PUSH20 0xFFFFFFFFFFFFFFFFFFFFFFFFFFFFFFFFFFFFFFFF AND PUSH32 0x9F4029743E25B0C4C4C13F0030D164255396C070582B48D23A96FC904CB26529 PUSH1 0x40 MLOAD PUSH1 0x40 MLOAD DUP1 SWAP2 SUB SWAP1 LOG3 DUP1 PUSH1 0x0 DUP1 PUSH2 0x100 EXP DUP2 SLOAD DUP2 PUSH20 0xFFFFFFFFFFFFFFFFFFFFFFFFFFFFFFFFFFFFFFFF MUL NOT AND SWAP1 DUP4 PUSH20 0xFFFFFFFFFFFFFFFFFFFFFFFFFFFFFFFFFFFFFFFF AND MUL OR SWAP1 SSTORE POP POP JUMP JUMPDEST PUSH1 0x1 PUSH1 0x0 SWAP1 SLOAD SWAP1 PUSH2 0x100 EXP SWAP1 DIV PUSH20 0xFFFFFFFFFFFFFFFFFFFFFFFFFFFFFFFFFFFFFFFF AND PUSH20 0xFFFFFFFFFFFFFFFFFFFFFFFFFFFFFFFFFFFFFFFF AND CALLER PUSH20 0xFFFFFFFFFFFFFFFFFFFFFFFFFFFFFFFFFFFFFFFF AND EQ PUSH2 0x76C JUMPI PUSH1 0x40 MLOAD PUSH32 0x8C379A000000000000000000000000000000000000000000000000000000000 DUP2 MSTORE PUSH1 0x4 ADD PUSH2 0x763 SWAP1 PUSH2 0x217B JUMP JUMPDEST PUSH1 0x40 MLOAD DUP1 SWAP2 SUB SWAP1 REVERT JUMPDEST PUSH1 0x0 PUSH1 0x2 PUSH1 0x14 PUSH2 0x100 EXP DUP2 SLOAD DUP2 PUSH1 0xFF MUL NOT AND SWAP1 DUP4 ISZERO ISZERO MUL OR SWAP1 SSTORE POP PUSH32 0x5DB9EE0A495BF2E6FF9C91A7834C1BA4FDD244A5E8AA4E537BD38AEAE4B073AA CALLER PUSH1 0x40 MLOAD PUSH2 0x7B6 SWAP2 SWAP1 PUSH2 0x205C JUMP JUMPDEST PUSH1 0x40 MLOAD DUP1 SWAP2 SUB SWAP1 LOG1 JUMP JUMPDEST PUSH1 0x4 PUSH1 0x20 MSTORE DUP1 PUSH1 0x0 MSTORE PUSH1 0x40 PUSH1 0x0 KECCAK256 PUSH1 0x0 SWAP2 POP SLOAD SWAP1 PUSH2 0x100 EXP SWAP1 DIV PUSH1 0xFF AND DUP2 JUMP JUMPDEST PUSH1 0x9 SLOAD DUP2 JUMP JUMPDEST PUSH1 0x0 DUP1 SLOAD SWAP1 PUSH2 0x100 EXP SWAP1 DIV PUSH20 0xFFFFFFFFFFFFFFFFFFFFFFFFFFFFFFFFFFFFFFFF AND DUP2 JUMP JUMPDEST PUSH1 0x3 PUSH1 0x0 CALLER PUSH20 0xFFFFFFFFFFFFFFFFFFFFFFFFFFFFFFFFFFFFFFFF AND PUSH20 0xFFFFFFFFFFFFFFFFFFFFFFFFFFFFFFFFFFFFFFFF AND DUP2 MSTORE PUSH1 0x20 ADD SWAP1 DUP2 MSTORE PUSH1 0x20 ADD PUSH1 0x0 KECCAK256 PUSH1 0x0 SWAP1 SLOAD SWAP1 PUSH2 0x100 EXP SWAP1 DIV PUSH1 0xFF AND PUSH2 0x896 JUMPI PUSH1 0x40 MLOAD PUSH32 0x8C379A000000000000000000000000000000000000000000000000000000000 DUP2 MSTORE PUSH1 0x4 ADD PUSH2 0x88D SWAP1 PUSH2 0x2253 JUMP JUMPDEST PUSH1 0x40 MLOAD DUP1 SWAP2 SUB SWAP1 REVERT JUMPDEST PUSH1 0x0 PUSH20 0xFFFFFFFFFFFFFFFFFFFFFFFFFFFFFFFFFFFFFFFF AND PUSH1 0x5 PUSH1 0x0 DUP4 DUP2 MSTORE PUSH1 0x20 ADD SWAP1 DUP2 MSTORE PUSH1 0x20 ADD PUSH1 0x0 KECCAK256 PUSH1 0x0 ADD PUSH1 0x0 SWAP1 SLOAD SWAP1 PUSH2 0x100 EXP SWAP1 DIV PUSH20 0xFFFFFFFFFFFFFFFFFFFFFFFFFFFFFFFFFFFFFFFF AND PUSH20 0xFFFFFFFFFFFFFFFFFFFFFFFFFFFFFFFFFFFFFFFF AND EQ ISZERO PUSH2 0x93C JUMPI PUSH1 0x40 MLOAD PUSH32 0x8C379A000000000000000000000000000000000000000000000000000000000 DUP2 MSTORE PUSH1 0x4 ADD PUSH2 0x933 SWAP1 PUSH2 0x22BF JUMP JUMPDEST PUSH1 0x40 MLOAD DUP1 SWAP2 SUB SWAP1 REVERT JUMPDEST PUSH1 0x5 PUSH1 0x0 DUP3 DUP2 MSTORE PUSH1 0x20 ADD SWAP1 DUP2 MSTORE PUSH1 0x20 ADD PUSH1 0x0 KECCAK256 PUSH1 0x4 ADD PUSH1 0x0 SWAP1 SLOAD SWAP1 PUSH2 0x100 EXP SWAP1 DIV PUSH1 0xFF AND ISZERO PUSH2 0x9A0 JUMPI PUSH1 0x40 MLOAD PUSH32 0x8C379A000000000000000000000000000000000000000000000000000000000 DUP2 MSTORE PUSH1 0x4 ADD PUSH2 0x997 SWAP1 PUSH2 0x232B JUMP JUMPDEST PUSH1 0x40 MLOAD DUP1 SWAP2 SUB SWAP1 REVERT JUMPDEST PUSH1 0x1 PUSH1 0x5 PUSH1 0x0 DUP4 DUP2 MSTORE PUSH1 0x20 ADD SWAP1 DUP2 MSTORE PUSH1 0x20 ADD PUSH1 0x0 KECCAK256 PUSH1 0x4 ADD PUSH1 0x0 PUSH2 0x100 EXP DUP2 SLOAD DUP2 PUSH1 0xFF MUL NOT AND SWAP1 DUP4 ISZERO ISZERO MUL OR SWAP1 SSTORE POP DUP1 PUSH32 0x82459F84B3ECF0308611B420B9D42C054F0DBFB50D04C13A22D0804F582F6497 PUSH1 0x40 MLOAD PUSH1 0x40 MLOAD DUP1 SWAP2 SUB SWAP1 LOG2 POP JUMP JUMPDEST PUSH1 0x2 PUSH1 0x14 SWAP1 SLOAD SWAP1 PUSH2 0x100 EXP SWAP1 DIV PUSH1 0xFF AND DUP2 JUMP JUMPDEST PUSH1 0x7 SLOAD DUP2 JUMP JUMPDEST PUSH1 0x3 PUSH1 0x0 CALLER PUSH20 0xFFFFFFFFFFFFFFFFFFFFFFFFFFFFFFFFFFFFFFFF AND PUSH20 0xFFFFFFFFFFFFFFFFFFFFFFFFFFFFFFFFFFFFFFFF AND DUP2 MSTORE PUSH1 0x20 ADD SWAP1 DUP2 MSTORE PUSH1 0x20 ADD PUSH1 0x0 KECCAK256 PUSH1 0x0 SWAP1 SLOAD SWAP1 PUSH2 0x100 EXP SWAP1 DIV PUSH1 0xFF AND PUSH2 0xAA4 JUMPI PUSH1 0x40 MLOAD PUSH32 0x8C379A000000000000000000000000000000000000000000000000000000000 DUP2 MSTORE PUSH1 0x4 ADD PUSH2 0xA9B SWAP1 PUSH2 0x2253 JUMP JUMPDEST PUSH1 0x40 MLOAD DUP1 SWAP2 SUB SWAP1 REVERT JUMPDEST PUSH1 0x2 PUSH1 0x14 SWAP1 SLOAD SWAP1 PUSH2 0x100 EXP SWAP1 DIV PUSH1 0xFF AND ISZERO PUSH2 0xAF4 JUMPI PUSH1 0x40 MLOAD PUSH32 0x8C379A000000000000000000000000000000000000000000000000000000000 DUP2 MSTORE PUSH1 0x4 ADD PUSH2 0xAEB SWAP1 PUSH2 0x2397 JUMP JUMPDEST PUSH1 0x40 MLOAD DUP1 SWAP2 SUB SWAP1 REVERT JUMPDEST PUSH1 0x0 PUSH20 0xFFFFFFFFFFFFFFFFFFFFFFFFFFFFFFFFFFFFFFFF AND DUP4 PUSH20 0xFFFFFFFFFFFFFFFFFFFFFFFFFFFFFFFFFFFFFFFF AND EQ ISZERO PUSH2 0xB64 JUMPI PUSH1 0x40 MLOAD PUSH32 0x8C379A000000000000000000000000000000000000000000000000000000000 DUP2 MSTORE PUSH1 0x4 ADD PUSH2 0xB5B SWAP1 PUSH2 0x2403 JUMP JUMPDEST PUSH1 0x40 MLOAD DUP1 SWAP2 SUB SWAP1 REVERT JUMPDEST PUSH1 0x7 SLOAD DUP3 LT ISZERO PUSH2 0xBA9 JUMPI PUSH1 0x40 MLOAD PUSH32 0x8C379A000000000000000000000000000000000000000000000000000000000 DUP2 MSTORE PUSH1 0x4 ADD PUSH2 0xBA0 SWAP1 PUSH2 0x246F JUMP JUMPDEST PUSH1 0x40 MLOAD DUP1 SWAP2 SUB SWAP1 REVERT JUMPDEST PUSH1 0x8 SLOAD DUP3 GT ISZERO PUSH2 0xBEE JUMPI PUSH1 0x40 MLOAD PUSH32 0x8C379A000000000000000000000000000000000000000000000000000000000 DUP2 MSTORE PUSH1 0x4 ADD PUSH2 0xBE5 SWAP1 PUSH2 0x24DB JUMP JUMPDEST PUSH1 0x40 MLOAD DUP1 SWAP2 SUB SWAP1 REVERT JUMPDEST PUSH1 0x0 DUP2 DUP5 DUP5 PUSH1 0x40 MLOAD PUSH1 0x20 ADD PUSH2 0xC05 SWAP4 SWAP3 SWAP2 SWAP1 PUSH2 0x2585 JUMP JUMPDEST PUSH1 0x40 MLOAD PUSH1 0x20 DUP2 DUP4 SUB SUB DUP2 MSTORE SWAP1 PUSH1 0x40 MSTORE DUP1 MLOAD SWAP1 PUSH1 0x20 ADD KECCAK256 SWAP1 POP PUSH1 0x4 PUSH1 0x0 DUP3 DUP2 MSTORE PUSH1 0x20 ADD SWAP1 DUP2 MSTORE PUSH1 0x20 ADD PUSH1 0x0 KECCAK256 PUSH1 0x0 SWAP1 SLOAD SWAP1 PUSH2 0x100 EXP SWAP1 DIV PUSH1 0xFF AND ISZERO PUSH2 0xC7E JUMPI PUSH1 0x40 MLOAD PUSH32 0x8C379A000000000000000000000000000000000000000000000000000000000 DUP2 MSTORE PUSH1 0x4 ADD PUSH2 0xC75 SWAP1 PUSH2 0x2634 JUMP JUMPDEST PUSH1 0x40 MLOAD DUP1 SWAP2 SUB SWAP1 REVERT JUMPDEST PUSH1 0x1 PUSH1 0x4 PUSH1 0x0 DUP4 DUP2 MSTORE PUSH1 0x20 ADD SWAP1 DUP2 MSTORE PUSH1 0x20 ADD PUSH1 0x0 KECCAK256 PUSH1 0x0 PUSH2 0x100 EXP DUP2 SLOAD DUP2 PUSH1 0xFF MUL NOT AND SWAP1 DUP4 ISZERO ISZERO MUL OR SWAP1 SSTORE POP PUSH1 0x0 DUP1 SLOAD SWAP1 PUSH2 0x100 EXP SWAP1 DIV PUSH20 0xFFFFFFFFFFFFFFFFFFFFFFFFFFFFFFFFFFFFFFFF AND PUSH20 0xFFFFFFFFFFFFFFFFFFFFFFFFFFFFFFFFFFFFFFFF AND PUSH4 0x1E458BEE DUP6 DUP6 DUP5 PUSH1 0x40 MLOAD DUP5 PUSH4 0xFFFFFFFF AND PUSH1 0xE0 SHL DUP2 MSTORE PUSH1 0x4 ADD PUSH2 0xD07 SWAP4 SWAP3 SWAP2 SWAP1 PUSH2 0x2663 JUMP JUMPDEST PUSH1 0x0 PUSH1 0x40 MLOAD DUP1 DUP4 SUB DUP2 PUSH1 0x0 DUP8 DUP1 EXTCODESIZE ISZERO DUP1 ISZERO PUSH2 0xD21 JUMPI PUSH1 0x0 DUP1 REVERT JUMPDEST POP GAS CALL ISZERO DUP1 ISZERO PUSH2 0xD35 JUMPI RETURNDATASIZE PUSH1 0x0 DUP1 RETURNDATACOPY RETURNDATASIZE PUSH1 0x0 REVERT JUMPDEST POP POP POP POP DUP4 PUSH20 0xFFFFFFFFFFFFFFFFFFFFFFFFFFFFFFFFFFFFFFFF AND DUP2 PUSH32 0xBC4BAEF869A8D9FFFEC842F183B4C4BF035ED3EA57F299E957C46F198A63F046 DUP6 DUP6 PUSH1 0x40 MLOAD PUSH2 0xD82 SWAP3 SWAP2 SWAP1 PUSH2 0x269A JUMP JUMPDEST PUSH1 0x40 MLOAD DUP1 SWAP2 SUB SWAP1 LOG3 POP POP POP POP JUMP JUMPDEST PUSH1 0x2 PUSH1 0x0 SWAP1 SLOAD SWAP1 PUSH2 0x100 EXP SWAP1 DIV PUSH20 0xFFFFFFFFFFFFFFFFFFFFFFFFFFFFFFFFFFFFFFFF AND PUSH20 0xFFFFFFFFFFFFFFFFFFFFFFFFFFFFFFFFFFFFFFFF AND CALLER PUSH20 0xFFFFFFFFFFFFFFFFFFFFFFFFFFFFFFFFFFFFFFFF AND EQ PUSH2 0xE20 JUMPI PUSH1 0x40 MLOAD PUSH32 0x8C379A000000000000000000000000000000000000000000000000000000000 DUP2 MSTORE PUSH1 0x4 ADD PUSH2 0xE17 SWAP1 PUSH2 0x2735 JUMP JUMPDEST PUSH1 0x40 MLOAD DUP1 SWAP2 SUB SWAP1 REVERT JUMPDEST PUSH1 0x2 PUSH1 0x0 SWAP1 SLOAD SWAP1 PUSH2 0x100 EXP SWAP1 DIV PUSH20 0xFFFFFFFFFFFFFFFFFFFFFFFFFFFFFFFFFFFFFFFF AND PUSH20 0xFFFFFFFFFFFFFFFFFFFFFFFFFFFFFFFFFFFFFFFF AND PUSH1 0x1 PUSH1 0x0 SWAP1 SLOAD SWAP1 PUSH2 0x100 EXP SWAP1 DIV PUSH20 0xFFFFFFFFFFFFFFFFFFFFFFFFFFFFFFFFFFFFFFFF AND PUSH20 0xFFFFFFFFFFFFFFFFFFFFFFFFFFFFFFFFFFFFFFFF AND PUSH32 0x8BE0079C531659141344CD1FD0A4F28419497F9722A3DAAFE3B4186F6B6457E0 PUSH1 0x40 MLOAD PUSH1 0x40 MLOAD DUP1 SWAP2 SUB SWAP1 LOG3 PUSH1 0x2 PUSH1 0x0 SWAP1 SLOAD SWAP1 PUSH2 0x100 EXP SWAP1 DIV PUSH20 0xFFFFFFFFFFFFFFFFFFFFFFFFFFFFFFFFFFFFFFFF AND PUSH1 0x1 PUSH1 0x0 PUSH2 0x100 EXP DUP2 SLOAD DUP2 PUSH20 0xFFFFFFFFFFFFFFFFFFFFFFFFFFFFFFFFFFFFFFFF MUL NOT AND SWAP1 DUP4 PUSH20 0xFFFFFFFFFFFFFFFFFFFFFFFFFFFFFFFFFFFFFFFF AND MUL OR SWAP1 SSTORE POP PUSH1 0x0 PUSH1 0x2 PUSH1 0x0 PUSH2 0x100 EXP DUP2 SLOAD DUP2 PUSH20 0xFFFFFFFFFFFFFFFFFFFFFFFFFFFFFFFFFFFFFFFF MUL NOT AND SWAP1 DUP4 PUSH20 0xFFFFFFFFFFFFFFFFFFFFFFFFFFFFFFFFFFFFFFFF AND MUL OR SWAP1 SSTORE POP JUMP JUMPDEST PUSH1 0x1 PUSH1 0x0 SWAP1 SLOAD SWAP1 PUSH2 0x100 EXP SWAP1 DIV PUSH20 0xFFFFFFFFFFFFFFFFFFFFFFFFFFFFFFFFFFFFFFFF AND PUSH20 0xFFFFFFFFFFFFFFFFFFFFFFFFFFFFFFFFFFFFFFFF AND CALLER PUSH20 0xFFFFFFFFFFFFFFFFFFFFFFFFFFFFFFFFFFFFFFFF AND EQ PUSH2 0xFF5 JUMPI PUSH1 0x40 MLOAD PUSH32 0x8C379A000000000000000000000000000000000000000000000000000000000 DUP2 MSTORE PUSH1 0x4 ADD PUSH2 0xFEC SWAP1 PUSH2 0x217B JUMP JUMPDEST PUSH1 0x40 MLOAD DUP1 SWAP2 SUB SWAP1 REVERT JUMPDEST PUSH1 0x1 PUSH1 0x2 PUSH1 0x14 PUSH2 0x100 EXP DUP2 SLOAD DUP2 PUSH1 0xFF MUL NOT AND SWAP1 DUP4 ISZERO ISZERO MUL OR SWAP1 SSTORE POP PUSH32 0x62E78CEA01BEE320CD4E420270B5EA74000D11B0C9F74754EBDBFC544B05A258 CALLER PUSH1 0x40 MLOAD PUSH2 0x103F SWAP2 SWAP1 PUSH2 0x205C JUMP JUMPDEST PUSH1 0x40 MLOAD DUP1 SWAP2 SUB SWAP1 LOG1 JUMP JUMPDEST PUSH1 0x1 PUSH1 0x0 SWAP1 SLOAD SWAP1 PUSH2 0x100 EXP SWAP1 DIV PUSH20 0xFFFFFFFFFFFFFFFFFFFFFFFFFFFFFFFFFFFFFFFF AND DUP2 JUMP JUMPDEST PUSH1 0x8 SLOAD DUP2 JUMP JUMPDEST PUSH1 0x1 PUSH1 0x0 SWAP1 SLOAD SWAP1 PUSH2 0x100 EXP SWAP1 DIV PUSH20 0xFFFFFFFFFFFFFFFFFFFFFFFFFFFFFFFFFFFFFFFF AND PUSH20 0xFFFFFFFFFFFFFFFFFFFFFFFFFFFFFFFFFFFFFFFF AND CALLER PUSH20 0xFFFFFFFFFFFFFFFFFFFFFFFFFFFFFFFFFFFFFFFF AND EQ PUSH2 0x1105 JUMPI PUSH1 0x40 MLOAD PUSH32 0x8C379A000000000000000000000000000000000000000000000000000000000 DUP2 MSTORE PUSH1 0x4 ADD PUSH2 0x10FC SWAP1 PUSH2 0x217B JUMP JUMPDEST PUSH1 0x40 MLOAD DUP1 SWAP2 SUB SWAP1 REVERT JUMPDEST PUSH1 0x0 PUSH20 0xFFFFFFFFFFFFFFFFFFFFFFFFFFFFFFFFFFFFFFFF AND DUP2 PUSH20 0xFFFFFFFFFFFFFFFFFFFFFFFFFFFFFFFFFFFFFFFF AND EQ ISZERO PUSH2 0x1175 JUMPI PUSH1 0x40 MLOAD PUSH32 0x8C379A000000000000000000000000000000000000000000000000000000000 DUP2 MSTORE PUSH1 0x4 ADD PUSH2 0x116C SWAP1 PUSH2 0x27A1 JUMP JUMPDEST PUSH1 0x40 MLOAD DUP1 SWAP2 SUB SWAP1 REVERT JUMPDEST PUSH1 0x3 PUSH1 0x0 DUP3 PUSH20 0xFFFFFFFFFFFFFFFFFFFFFFFFFFFFFFFFFFFFFFFF AND PUSH20 0xFFFFFFFFFFFFFFFFFFFFFFFFFFFFFFFFFFFFFFFF AND DUP2 MSTORE PUSH1 0x20 ADD SWAP1 DUP2 MSTORE PUSH1 0x20 ADD PUSH1 0x0 KECCAK256 PUSH1 0x0 SWAP1 SLOAD SWAP1 PUSH2 0x100 EXP SWAP1 DIV PUSH1 0xFF AND ISZERO PUSH2 0x1202 JUMPI PUSH1 0x40 MLOAD PUSH32 0x8C379A000000000000000000000000000000000000000000000000000000000 DUP2 MSTORE PUSH1 0x4 ADD PUSH2 0x11F9 SWAP1 PUSH2 0x280D JUMP JUMPDEST PUSH1 0x40 MLOAD DUP1 SWAP2 SUB SWAP1 REVERT JUMPDEST PUSH1 0x1 PUSH1 0x3 PUSH1 0x0 DUP4 PUSH20 0xFFFFFFFFFFFFFFFFFFFFFFFFFFFFFFFFFFFFFFFF AND PUSH20 0xFFFFFFFFFFFFFFFFFFFFFFFFFFFFFFFFFFFFFFFF AND DUP2 MSTORE PUSH1 0x20 ADD SWAP1 DUP2 MSTORE PUSH1 0x20 ADD PUSH1 0x0 KECCAK256 PUSH1 0x0 PUSH2 0x100 EXP DUP2 SLOAD DUP2 PUSH1 0xFF MUL NOT AND SWAP1 DUP4 ISZERO ISZERO MUL OR SWAP1 SSTORE POP DUP1 PUSH20 0xFFFFFFFFFFFFFFFFFFFFFFFFFFFFFFFFFFFFFFFF AND PUSH32 0xAC6FA858E9350A46CEC16539926E0FDE25B7629F84B5A72BFFAAE4DF888AE86D PUSH1 0x40 MLOAD PUSH1 0x40 MLOAD DUP1 SWAP2 SUB SWAP1 LOG2 POP JUMP JUMPDEST PUSH1 0x1 PUSH1 0x0 SWAP1 SLOAD SWAP1 PUSH2 0x100 EXP SWAP1 DIV PUSH20 0xFFFFFFFFFFFFFFFFFFFFFFFFFFFFFFFFFFFFFFFF AND PUSH20 0xFFFFFFFFFFFFFFFFFFFFFFFFFFFFFFFFFFFFFFFF AND CALLER PUSH20 0xFFFFFFFFFFFFFFFFFFFFFFFFFFFFFFFFFFFFFFFF AND EQ PUSH2 0x1330 JUMPI PUSH1 0x40 MLOAD PUSH32 0x8C379A000000000000000000000000000000000000000000000000000000000 DUP2 MSTORE PUSH1 0x4 ADD PUSH2 0x1327 SWAP1 PUSH2 0x217B JUMP JUMPDEST PUSH1 0x40 MLOAD DUP1 SWAP2 SUB SWAP1 REVERT JUMPDEST DUP3 DUP5 GT ISZERO PUSH2 0x1373 JUMPI PUSH1 0x40 MLOAD PUSH32 0x8C379A000000000000000000000000000000000000000000000000000000000 DUP2 MSTORE PUSH1 0x4 ADD PUSH2 0x136A SWAP1 PUSH2 0x2879 JUMP JUMPDEST PUSH1 0x40 MLOAD DUP1 SWAP2 SUB SWAP1 REVERT JUMPDEST DUP1 DUP3 GT ISZERO PUSH2 0x13B6 JUMPI PUSH1 0x40 MLOAD PUSH32 0x8C379A000000000000000000000000000000000000000000000000000000000 DUP2 MSTORE PUSH1 0x4 ADD PUSH2 0x13AD SWAP1 PUSH2 0x28E5 JUMP JUMPDEST PUSH1 0x40 MLOAD DUP1 SWAP2 SUB SWAP1 REVERT JUMPDEST DUP4 PUSH1 0x7 DUP2 SWAP1 SSTORE POP DUP3 PUSH1 0x8 DUP2 SWAP1 SSTORE POP DUP2 PUSH1 0x9 DUP2 SWAP1 SSTORE POP DUP1 PUSH1 0xA DUP2 SWAP1 SSTORE POP PUSH32 0xE3EB5D4ECCDAE2D96EFA105F65C8DB865F9FC72984F2B879A27448FED50D1815 DUP5 DUP5 DUP5 DUP5 PUSH1 0x40 MLOAD PUSH2 0x1407 SWAP5 SWAP4 SWAP3 SWAP2 SWAP1 PUSH2 0x2905 JUMP JUMPDEST PUSH1 0x40 MLOAD DUP1 SWAP2 SUB SWAP1 LOG1 POP POP POP POP JUMP JUMPDEST PUSH1 0x1 PUSH1 0x0 SWAP1 SLOAD SWAP1 PUSH2 0x100 EXP SWAP1 DIV PUSH20 0xFFFFFFFFFFFFFFFFFFFFFFFFFFFFFFFFFFFFFFFF AND PUSH20 0xFFFFFFFFFFFFFFFFFFFFFFFFFFFFFFFFFFFFFFFF AND CALLER PUSH20 0xFFFFFFFFFFFFFFFFFFFFFFFFFFFFFFFFFFFFFFFF AND EQ PUSH2 0x14A5 JUMPI PUSH1 0x40 MLOAD PUSH32 0x8C379A000000000000000000000000000000000000000000000000000000000 DUP2 MSTORE PUSH1 0x4 ADD PUSH2 0x149C SWAP1 PUSH2 0x217B JUMP JUMPDEST PUSH1 0x40 MLOAD DUP1 SWAP2 SUB SWAP1 REVERT JUMPDEST PUSH1 0x3 PUSH1 0x0 DUP3 PUSH20 0xFFFFFFFFFFFFFFFFFFFFFFFFFFFFFFFFFFFFFFFF AND PUSH20 0xFFFFFFFFFFFFFFFFFFFFFFFFFFFFFFFFFFFFFFFF AND DUP2 MSTORE PUSH1 0x20 ADD SWAP1 DUP2 MSTORE PUSH1 0x20 ADD PUSH1 0x0 KECCAK256 PUSH1 0x0 SWAP1 SLOAD SWAP1 PUSH2 0x100 EXP SWAP1 DIV PUSH1 0xFF AND PUSH2 0x1531 JUMPI PUSH1 0x40 MLOAD PUSH32 0x8C379A000000000000000000000000000000000000000000000000000000000 DUP2 MSTORE PUSH1 0x4 ADD PUSH2 0x1528 SWAP1 PUSH2 0x2996 JUMP JUMPDEST PUSH1 0x40 MLOAD DUP1 SWAP2 SUB SWAP1 REVERT JUMPDEST PUSH1 0x0 PUSH1 0x3 PUSH1 0x0 DUP4 PUSH20 0xFFFFFFFFFFFFFFFFFFFFFFFFFFFFFFFFFFFFFFFF AND PUSH20 0xFFFFFFFFFFFFFFFFFFFFFFFFFFFFFFFFFFFFFFFF AND DUP2 MSTORE PUSH1 0x20 ADD SWAP1 DUP2 MSTORE PUSH1 0x20 ADD PUSH1 0x0 KECCAK256 PUSH1 0x0 PUSH2 0x100 EXP DUP2 SLOAD DUP2 PUSH1 0xFF MUL NOT AND SWAP1 DUP4 ISZERO ISZERO MUL OR SWAP1 SSTORE POP DUP1 PUSH20 0xFFFFFFFFFFFFFFFFFFFFFFFFFFFFFFFFFFFFFFFF AND PUSH32 0x80C0B871B97B595B16A7741C1B06FED0C6F6F558639F18CCBCE50724325DC40D PUSH1 0x40 MLOAD PUSH1 0x40 MLOAD DUP1 SWAP2 SUB SWAP1 LOG2 POP JUMP JUMPDEST PUSH1 0x6 SLOAD DUP2 JUMP JUMPDEST PUSH1 0x2 PUSH1 0x14 SWAP1 SLOAD SWAP1 PUSH2 0x100 EXP SWAP1 DIV PUSH1 0xFF AND ISZERO PUSH2 0x1625 JUMPI PUSH1 0x40 MLOAD PUSH32 0x8C379A000000000000000000000000000000000000000000000000000000000 DUP2 MSTORE PUSH1 0x4 ADD PUSH2 0x161C SWAP1 PUSH2 0x2397 JUMP JUMPDEST PUSH1 0x40 MLOAD DUP1 SWAP2 SUB SWAP1 REVERT JUMPDEST PUSH1 0x9 SLOAD DUP3 LT ISZERO PUSH2 0x166A JUMPI PUSH1 0x40 MLOAD PUSH32 0x8C379A000000000000000000000000000000000000000000000000000000000 DUP2 MSTORE PUSH1 0x4 ADD PUSH2 0x1661 SWAP1 PUSH2 0x246F JUMP JUMPDEST PUSH1 0x40 MLOAD DUP1 SWAP2 SUB SWAP1 REVERT JUMPDEST PUSH1 0xA SLOAD DUP3 GT ISZERO PUSH2 0x16AF JUMPI PUSH1 0x40 MLOAD PUSH32 0x8C379A000000000000000000000000000000000000000000000000000000000 DUP2 MSTORE PUSH1 0x4 ADD PUSH2 0x16A6 SWAP1 PUSH2 0x24DB JUMP JUMPDEST PUSH1 0x40 MLOAD DUP1 SWAP2 SUB SWAP1 REVERT JUMPDEST PUSH1 0x0 PUSH20 0xFFFFFFFFFFFFFFFFFFFFFFFFFFFFFFFFFFFFFFFF AND DUP2 PUSH20 0xFFFFFFFFFFFFFFFFFFFFFFFFFFFFFFFFFFFFFFFF AND EQ ISZERO PUSH2 0x171F JUMPI PUSH1 0x40 MLOAD PUSH32 0x8C379A000000000000000000000000000000000000000000000000000000000 DUP2 MSTORE PUSH1 0x4 ADD PUSH2 0x1716 SWAP1 PUSH2 0x2403 JUMP JUMPDEST PUSH1 0x40 MLOAD DUP1 SWAP2 SUB SWAP1 REVERT JUMPDEST DUP2 PUSH1 0x0 DUP1 SLOAD SWAP1 PUSH2 0x100 EXP SWAP1 DIV PUSH20 0xFFFFFFFFFFFFFFFFFFFFFFFFFFFFFFFFFFFFFFFF AND PUSH20 0xFFFFFFFFFFFFFFFFFFFFFFFFFFFFFFFFFFFFFFFF AND PUSH4 0x70A08231 CALLER PUSH1 0x40 MLOAD DUP3 PUSH4 0xFFFFFFFF AND PUSH1 0xE0 SHL DUP2 MSTORE PUSH1 0x4 ADD PUSH2 0x1779 SWAP2 SWAP1 PUSH2 0x205C JUMP JUMPDEST PUSH1 0x20 PUSH1 0x40 MLOAD DUP1 DUP4 SUB DUP2 DUP7 GAS STATICCALL ISZERO DUP1 ISZERO PUSH2 0x1796 JUMPI RETURNDATASIZE PUSH1 0x0 DUP1 RETURNDATACOPY RETURNDATASIZE PUSH1 0x0 REVERT JUMPDEST POP POP POP POP PUSH1 0x40 MLOAD RETURNDATASIZE PUSH1 0x1F NOT PUSH1 0x1F DUP3 ADD AND DUP3 ADD DUP1 PUSH1 0x40 MSTORE POP DUP2 ADD SWAP1 PUSH2 0x17BA SWAP2 SWAP1 PUSH2 0x29CB JUMP JUMPDEST LT ISZERO PUSH2 0x17FB JUMPI PUSH1 0x40 MLOAD PUSH32 0x8C379A000000000000000000000000000000000000000000000000000000000 DUP2 MSTORE PUSH1 0x4 ADD PUSH2 0x17F2 SWAP1 PUSH2 0x2A44 JUMP JUMPDEST PUSH1 0x40 MLOAD DUP1 SWAP2 SUB SWAP1 REVERT JUMPDEST PUSH1 0x0 CALLER DUP4 DUP4 PUSH1 0x6 SLOAD TIMESTAMP NUMBER PUSH1 0x40 MLOAD PUSH1 0x20 ADD PUSH2 0x181A SWAP7 SWAP6 SWAP5 SWAP4 SWAP3 SWAP2 SWAP1 PUSH2 0x2A64 JUMP JUMPDEST PUSH1 0x40 MLOAD PUSH1 0x20 DUP2 DUP4 SUB SUB DUP2 MSTORE SWAP1 PUSH1 0x40 MSTORE DUP1 MLOAD SWAP1 PUSH1 0x20 ADD KECCAK256 SWAP1 POP PUSH1 0x6 PUSH1 0x0 DUP2 SLOAD DUP1 SWAP3 SWAP2 SWAP1 PUSH2 0x1845 SWAP1 PUSH2 0x2B03 JUMP JUMPDEST SWAP2 SWAP1 POP SSTORE POP PUSH1 0x40 MLOAD DUP1 PUSH1 0xA0 ADD PUSH1 0x40 MSTORE DUP1 CALLER PUSH20 0xFFFFFFFFFFFFFFFFFFFFFFFFFFFFFFFFFFFFFFFF AND DUP2 MSTORE PUSH1 0x20 ADD DUP5 DUP2 MSTORE PUSH1 0x20 ADD DUP4 PUSH20 0xFFFFFFFFFFFFFFFFFFFFFFFFFFFFFFFFFFFFFFFF AND DUP2 MSTORE PUSH1 0x20 ADD TIMESTAMP DUP2 MSTORE PUSH1 0x20 ADD PUSH1 0x0 ISZERO ISZERO DUP2 MSTORE POP PUSH1 0x5 PUSH1 0x0 DUP4 DUP2 MSTORE PUSH1 0x20 ADD SWAP1 DUP2 MSTORE PUSH1 0x20 ADD PUSH1 0x0 KECCAK256 PUSH1 0x0 DUP3 ADD MLOAD DUP2 PUSH1 0x0 ADD PUSH1 0x0 PUSH2 0x100 EXP DUP2 SLOAD DUP2 PUSH20 0xFFFFFFFFFFFFFFFFFFFFFFFFFFFFFFFFFFFFFFFF MUL NOT AND SWAP1 DUP4 PUSH20 0xFFFFFFFFFFFFFFFFFFFFFFFFFFFFFFFFFFFFFFFF AND MUL OR SWAP1 SSTORE POP PUSH1 0x20 DUP3 ADD MLOAD DUP2 PUSH1 0x1 ADD SSTORE PUSH1 0x40 DUP3 ADD MLOAD DUP2 PUSH1 0x2 ADD PUSH1 0x0 PUSH2 0x100 EXP DUP2 SLOAD DUP2 PUSH20 0xFFFFFFFFFFFFFFFFFFFFFFFFFFFFFFFFFFFFFFFF MUL NOT AND SWAP1 DUP4 PUSH20 0xFFFFFFFFFFFFFFFFFFFFFFFFFFFFFFFFFFFFFFFF AND MUL OR SWAP1 SSTORE POP PUSH1 0x60 DUP3 ADD MLOAD DUP2 PUSH1 0x3 ADD SSTORE PUSH1 0x80 DUP3 ADD MLOAD DUP2 PUSH1 0x4 ADD PUSH1 0x0 PUSH2 0x100 EXP DUP2 SLOAD DUP2 PUSH1 0xFF MUL NOT AND SWAP1 DUP4 ISZERO ISZERO MUL OR SWAP1 SSTORE POP SWAP1 POP POP PUSH1 0x0 DUP1 SLOAD SWAP1 PUSH2 0x100 EXP SWAP1 DIV PUSH20 0xFFFFFFFFFFFFFFFFFFFFFFFFFFFFFFFFFFFFFFFF AND PUSH20 0xFFFFFFFFFFFFFFFFFFFFFFFFFFFFFFFFFFFFFFFF AND PUSH4 0x158A1CC3 CALLER DUP6 DUP5 PUSH1 0x40 MLOAD DUP5 PUSH4 0xFFFFFFFF AND PUSH1 0xE0 SHL DUP2 MSTORE PUSH1 0x4 ADD PUSH2 0x19D5 SWAP4 SWAP3 SWAP2 SWAP1 PUSH2 0x2663 JUMP JUMPDEST PUSH1 0x0 PUSH1 0x40 MLOAD DUP1 DUP4 SUB DUP2 PUSH1 0x0 DUP8 DUP1 EXTCODESIZE ISZERO DUP1 ISZERO PUSH2 0x19EF JUMPI PUSH1 0x0 DUP1 REVERT JUMPDEST POP GAS CALL ISZERO DUP1 ISZERO PUSH2 0x1A03 JUMPI RETURNDATASIZE PUSH1 0x0 DUP1 RETURNDATACOPY RETURNDATASIZE PUSH1 0x0 REVERT JUMPDEST POP POP POP POP CALLER PUSH20 0xFFFFFFFFFFFFFFFFFFFFFFFFFFFFFFFFFFFFFFFF AND DUP2 PUSH32 0xD538C920A07AE93CE0F0D0CDC7A11C5ADA9534A51C1D4F48A60DBA5AF2FE352F DUP6 DUP6 PUSH1 0x40 MLOAD PUSH2 0x1A50 SWAP3 SWAP2 SWAP1 PUSH2 0x2B4C JUMP JUMPDEST PUSH1 0x40 MLOAD DUP1 SWAP2 SUB SWAP1 LOG3 POP POP POP JUMP JUMPDEST PUSH1 0x0 PUSH1 0x4 PUSH1 0x0 DUP4 DUP2 MSTORE PUSH1 0x20 ADD SWAP1 DUP2 MSTORE PUSH1 0x20 ADD PUSH1 0x0 KECCAK256 PUSH1 0x0 SWAP1 SLOAD SWAP1 PUSH2 0x100 EXP SWAP1 DIV PUSH1 0xFF AND SWAP1 POP SWAP2 SWAP1 POP JUMP JUMPDEST PUSH1 0x2 PUSH1 0x0 SWAP1 SLOAD SWAP1 PUSH2 0x100 EXP SWAP1 DIV PUSH20 0xFFFFFFFFFFFFFFFFFFFFFFFFFFFFFFFFFFFFFFFF AND DUP2 JUMP JUMPDEST PUSH1 0x0 DUP1 PUSH1 0x0 DUP1 PUSH1 0x0 DUP1 PUSH1 0x5 PUSH1 0x0 DUP9 DUP2 MSTORE PUSH1 0x20 ADD SWAP1 DUP2 MSTORE PUSH1 0x20 ADD PUSH1 0x0 KECCAK256 PUSH1 0x40 MLOAD DUP1 PUSH1 0xA0 ADD PUSH1 0x40 MSTORE SWAP1 DUP2 PUSH1 0x0 DUP3 ADD PUSH1 0x0 SWAP1 SLOAD SWAP1 PUSH2 0x100 EXP SWAP1 DIV PUSH20 0xFFFFFFFFFFFFFFFFFFFFFFFFFFFFFFFFFFFFFFFF AND PUSH20 0xFFFFFFFFFFFFFFFFFFFFFFFFFFFFFFFFFFFFFFFF AND PUSH20 0xFFFFFFFFFFFFFFFFFFFFFFFFFFFFFFFFFFFFFFFF AND DUP2 MSTORE PUSH1 0x20 ADD PUSH1 0x1 DUP3 ADD SLOAD DUP2 MSTORE PUSH1 0x20 ADD PUSH1 0x2 DUP3 ADD PUSH1 0x0 SWAP1 SLOAD SWAP1 PUSH2 0x100 EXP SWAP1 DIV PUSH20 0xFFFFFFFFFFFFFFFFFFFFFFFFFFFFFFFFFFFFFFFF AND PUSH20 0xFFFFFFFFFFFFFFFFFFFFFFFFFFFFFFFFFFFFFFFF AND PUSH20 0xFFFFFFFFFFFFFFFFFFFFFFFFFFFFFFFFFFFFFFFF AND DUP2 MSTORE PUSH1 0x20 ADD PUSH1 0x3 DUP3 ADD SLOAD DUP2 MSTORE PUSH1 0x20 ADD PUSH1 0x4 DUP3 ADD PUSH1 0x0 SWAP1 SLOAD SWAP1 PUSH2 0x100 EXP SWAP1 DIV PUSH1 0xFF AND ISZERO ISZERO ISZERO ISZERO DUP2 MSTORE POP POP SWAP1 POP DUP1 PUSH1 0x0 ADD MLOAD DUP2 PUSH1 0x20 ADD MLOAD DUP3 PUSH1 0x40 ADD MLOAD DUP4 PUSH1 0x60 ADD MLOAD DUP5 PUSH1 0x80 ADD MLOAD SWAP6 POP SWAP6 POP SWAP6 POP SWAP6 POP SWAP6 POP POP SWAP2 SWAP4 SWAP6 SWAP1 SWAP3 SWAP5 POP JUMP JUMPDEST PUSH1 0x1 PUSH1 0x0 SWAP1 SLOAD SWAP1 PUSH2 0x100 EXP SWAP1 DIV PUSH20 0xFFFFFFFFFFFFFFFFFFFFFFFFFFFFFFFFFFFFFFFF AND PUSH20 0xFFFFFFFFFFFFFFFFFFFFFFFFFFFFFFFFFFFFFFFF AND CALLER PUSH20 0xFFFFFFFFFFFFFFFFFFFFFFFFFFFFFFFFFFFFFFFF AND EQ PUSH2 0x1C6E JUMPI PUSH1 0x40 MLOAD PUSH32 0x8C379A000000000000000000000000000000000000000000000000000000000 DUP2 MSTORE PUSH1 0x4 ADD PUSH2 0x1C65 SWAP1 PUSH2 0x217B JUMP JUMPDEST PUSH1 0x40 MLOAD DUP1 SWAP2 SUB SWAP1 REVERT JUMPDEST PUSH1 0x0 PUSH20 0xFFFFFFFFFFFFFFFFFFFFFFFFFFFFFFFFFFFFFFFF AND DUP2 PUSH20 0xFFFFFFFFFFFFFFFFFFFFFFFFFFFFFFFFFFFFFFFF AND EQ ISZERO PUSH2 0x1CDE JUMPI PUSH1 0x40 MLOAD PUSH32 0x8C379A000000000000000000000000000000000000000000000000000000000 DUP2 MSTORE PUSH1 0x4 ADD PUSH2 0x1CD5 SWAP1 PUSH2 0x2BC1 JUMP JUMPDEST PUSH1 0x40 MLOAD DUP1 SWAP2 SUB SWAP1 REVERT JUMPDEST DUP1 PUSH1 0x2 PUSH1 0x0 PUSH2 0x100 EXP DUP2 SLOAD DUP2 PUSH20 0xFFFFFFFFFFFFFFFFFFFFFFFFFFFFFFFFFFFFFFFF MUL NOT AND SWAP1 DUP4 PUSH20 0xFFFFFFFFFFFFFFFFFFFFFFFFFFFFFFFFFFFFFFFF AND MUL OR SWAP1 SSTORE POP DUP1 PUSH20 0xFFFFFFFFFFFFFFFFFFFFFFFFFFFFFFFFFFFFFFFF AND PUSH1 0x1 PUSH1 0x0 SWAP1 SLOAD SWAP1 PUSH2 0x100 EXP SWAP1 DIV PUSH20 0xFFFFFFFFFFFFFFFFFFFFFFFFFFFFFFFFFFFFFFFF AND PUSH20 0xFFFFFFFFFFFFFFFFFFFFFFFFFFFFFFFFFFFFFFFF AND PUSH32 0x38D16B8CAC22D99FC7C124B9CD0DE2D3FA1FAEF420BFE791D8C362D765E22700 PUSH1 0x40 MLOAD PUSH1 0x40 MLOAD DUP1 SWAP2 SUB SWAP1 LOG3 POP JUMP JUMPDEST PUSH1 0xA SLOAD DUP2 JUMP JUMPDEST PUSH1 0x0 DUP1 REVERT JUMPDEST PUSH1 0x0 DUP2 SWAP1 POP SWAP2 SWAP1 POP JUMP JUMPDEST PUSH2 0x1DBC DUP2 PUSH2 0x1DA9 JUMP JUMPDEST DUP2 EQ PUSH2 0x1DC7 JUMPI PUSH1 0x0 DUP1 REVERT JUMPDEST POP JUMP JUMPDEST PUSH1 0x0 DUP2 CALLDATALOAD SWAP1 POP PUSH2 0x1DD9 DUP2 PUSH2 0x1DB3 JUMP JUMPDEST SWAP3 SWAP2 POP POP JUMP JUMPDEST PUSH1 0x0 PUSH1 0x20 DUP3 DUP5 SUB SLT ISZERO PUSH2 0x1DF5 JUMPI PUSH2 0x1DF4 PUSH2 0x1DA4 JUMP JUMPDEST JUMPDEST PUSH1 0x0 PUSH2 0x1E03 DUP5 DUP3 DUP6 ADD PUSH2 0x1DCA JUMP JUMPDEST SWAP2 POP POP SWAP3 SWAP2 POP POP JUMP JUMPDEST PUSH1 0x0 PUSH20 0xFFFFFFFFFFFFFFFFFFFFFFFFFFFFFFFFFFFFFFFF DUP3 AND SWAP1 POP SWAP2 SWAP1 POP JUMP JUMPDEST PUSH1 0x0 PUSH2 0x1E37 DUP3 PUSH2 0x1E0C JUMP JUMPDEST SWAP1 POP SWAP2 SWAP1 POP JUMP JUMPDEST PUSH2 0x1E47 DUP2 PUSH2 0x1E2C JUMP JUMPDEST DUP3 MSTORE POP POP JUMP JUMPDEST PUSH1 0x0 DUP2 SWAP1 POP SWAP2 SWAP1 POP JUMP JUMPDEST PUSH2 0x1E60 DUP2 PUSH2 0x1E4D JUMP JUMPDEST DUP3 MSTORE POP POP JUMP JUMPDEST PUSH1 0x0 DUP2 ISZERO ISZERO SWAP1 POP SWAP2 SWAP1 POP JUMP JUMPDEST PUSH2 0x1E7B DUP2 PUSH2 0x1E66 JUMP JUMPDEST DUP3 MSTORE POP POP JUMP JUMPDEST PUSH1 0x0 PUSH1 0xA0 DUP3 ADD SWAP1 POP PUSH2 0x1E96 PUSH1 0x0 DUP4 ADD DUP9 PUSH2 0x1E3E JUMP JUMPDEST PUSH2 0x1EA3 PUSH1 0x20 DUP4 ADD DUP8 PUSH2 0x1E57 JUMP JUMPDEST PUSH2 0x1EB0 PUSH1 0x40 DUP4 ADD DUP7 PUSH2 0x1E3E JUMP JUMPDEST PUSH2 0x1EBD PUSH1 0x60 DUP4 ADD DUP6 PUSH2 0x1E57 JUMP JUMPDEST PUSH2 0x1ECA PUSH1 0x80 DUP4 ADD DUP5 PUSH2 0x1E72 JUMP JUMPDEST SWAP7 SWAP6 POP POP POP POP POP POP JUMP JUMPDEST PUSH2 0x1EDD DUP2 PUSH2 0x1E2C JUMP JUMPDEST DUP2 EQ PUSH2 0x1EE8 JUMPI PUSH1 0x0 DUP1 REVERT JUMPDEST POP JUMP JUMPDEST PUSH1 0x0 DUP2 CALLDATALOAD SWAP1 POP PUSH2 0x1EFA DUP2 PUSH2 0x1ED4 JUMP JUMPDEST SWAP3 SWAP2 POP POP JUMP JUMPDEST PUSH1 0x0 PUSH1 0x20 DUP3 DUP5 SUB SLT ISZERO PUSH2 0x1F16 JUMPI PUSH2 0x1F15 PUSH2 0x1DA4 JUMP JUMPDEST JUMPDEST PUSH1 0x0 PUSH2 0x1F24 DUP5 DUP3 DUP6 ADD PUSH2 0x1EEB JUMP JUMPDEST SWAP2 POP POP SWAP3 SWAP2 POP POP JUMP JUMPDEST PUSH1 0x0 PUSH1 0x20 DUP3 ADD SWAP1 POP PUSH2 0x1F42 PUSH1 0x0 DUP4 ADD DUP5 PUSH2 0x1E72 JUMP JUMPDEST SWAP3 SWAP2 POP POP JUMP JUMPDEST PUSH1 0x0 PUSH1 0x20 DUP3 ADD SWAP1 POP PUSH2 0x1F5D PUSH1 0x0 DUP4 ADD DUP5 PUSH2 0x1E57 JUMP JUMPDEST SWAP3 SWAP2 POP POP JUMP JUMPDEST PUSH1 0x0 DUP2 SWAP1 POP SWAP2 SWAP1 POP JUMP JUMPDEST PUSH1 0x0 PUSH2 0x1F88 PUSH2 0x1F83 PUSH2 0x1F7E DUP5 PUSH2 0x1E0C JUMP JUMPDEST PUSH2 0x1F63 JUMP JUMPDEST PUSH2 0x1E0C JUMP JUMPDEST SWAP1 POP SWAP2 SWAP1 POP JUMP JUMPDEST PUSH1 0x0 PUSH2 0x1F9A DUP3 PUSH2 0x1F6D JUMP JUMPDEST SWAP1 POP SWAP2 SWAP1 POP JUMP JUMPDEST PUSH1 0x0 PUSH2 0x1FAC DUP3 PUSH2 0x1F8F JUMP JUMPDEST SWAP1 POP SWAP2 SWAP1 POP JUMP JUMPDEST PUSH2 0x1FBC DUP2 PUSH2 0x1FA1 JUMP JUMPDEST DUP3 MSTORE POP POP JUMP JUMPDEST PUSH1 0x0 PUSH1 0x20 DUP3 ADD SWAP1 POP PUSH2 0x1FD7 PUSH1 0x0 DUP4 ADD DUP5 PUSH2 0x1FB3 JUMP JUMPDEST SWAP3 SWAP2 POP POP JUMP JUMPDEST PUSH2 0x1FE6 DUP2 PUSH2 0x1E4D JUMP JUMPDEST DUP2 EQ PUSH2 0x1FF1 JUMPI PUSH1 0x0 DUP1 REVERT JUMPDEST POP JUMP JUMPDEST PUSH1 0x0 DUP2 CALLDATALOAD SWAP1 POP PUSH2 0x2003 DUP2 PUSH2 0x1FDD JUMP JUMPDEST SWAP3 SWAP2 POP POP JUMP JUMPDEST PUSH1 0x0 DUP1 PUSH1 0x0 PUSH1 0x60 DUP5 DUP7 SUB SLT ISZERO PUSH2 0x2022 JUMPI PUSH2 0x2021 PUSH2 0x1DA4 JUMP JUMPDEST JUMPDEST PUSH1 0x0 PUSH2 0x2030 DUP7 DUP3 DUP8 ADD PUSH2 0x1EEB JUMP JUMPDEST SWAP4 POP POP PUSH1 0x20 PUSH2 0x2041 DUP7 DUP3 DUP8 ADD PUSH2 0x1FF4 JUMP JUMPDEST SWAP3 POP POP PUSH1 0x40 PUSH2 0x2052 DUP7 DUP3 DUP8 ADD PUSH2 0x1DCA JUMP JUMPDEST SWAP2 POP POP SWAP3 POP SWAP3 POP SWAP3 JUMP JUMPDEST PUSH1 0x0 PUSH1 0x20 DUP3 ADD SWAP1 POP PUSH2 0x2071 PUSH1 0x0 DUP4 ADD DUP5 PUSH2 0x1E3E JUMP JUMPDEST SWAP3 SWAP2 POP POP JUMP JUMPDEST PUSH1 0x0 DUP1 PUSH1 0x0 DUP1 PUSH1 0x80 DUP6 DUP8 SUB SLT ISZERO PUSH2 0x2091 JUMPI PUSH2 0x2090 PUSH2 0x1DA4 JUMP JUMPDEST JUMPDEST PUSH1 0x0 PUSH2 0x209F DUP8 DUP3 DUP9 ADD PUSH2 0x1FF4 JUMP JUMPDEST SWAP5 POP POP PUSH1 0x20 PUSH2 0x20B0 DUP8 DUP3 DUP9 ADD PUSH2 0x1FF4 JUMP JUMPDEST SWAP4 POP POP PUSH1 0x40 PUSH2 0x20C1 DUP8 DUP3 DUP9 ADD PUSH2 0x1FF4 JUMP JUMPDEST SWAP3 POP POP PUSH1 0x60 PUSH2 0x20D2 DUP8 DUP3 DUP9 ADD PUSH2 0x1FF4 JUMP JUMPDEST SWAP2 POP POP SWAP3 SWAP6 SWAP2 SWAP5 POP SWAP3 POP JUMP JUMPDEST PUSH1 0x0 DUP1 PUSH1 0x40 DUP4 DUP6 SUB SLT ISZERO PUSH2 0x20F5 JUMPI PUSH2 0x20F4 PUSH2 0x1DA4 JUMP JUMPDEST JUMPDEST PUSH1 0x0 PUSH2 0x2103 DUP6 DUP3 DUP7 ADD PUSH2 0x1FF4 JUMP JUMPDEST SWAP3 POP POP PUSH1 0x20 PUSH2 0x2114 DUP6 DUP3 DUP7 ADD PUSH2 0x1EEB JUMP JUMPDEST SWAP2 POP POP SWAP3 POP SWAP3 SWAP1 POP JUMP JUMPDEST PUSH1 0x0 DUP3 DUP3 MSTORE PUSH1 0x20 DUP3 ADD SWAP1 POP SWAP3 SWAP2 POP POP JUMP JUMPDEST PUSH32 0x4272696467653A2063616C6C6572206973206E6F74206F776E65720000000000 PUSH1 0x0 DUP3 ADD MSTORE POP JUMP JUMPDEST PUSH1 0x0 PUSH2 0x2165 PUSH1 0x1B DUP4 PUSH2 0x211E JUMP JUMPDEST SWAP2 POP PUSH2 0x2170 DUP3 PUSH2 0x212F JUMP JUMPDEST PUSH1 0x20 DUP3 ADD SWAP1 POP SWAP2 SWAP1 POP JUMP JUMPDEST PUSH1 0x0 PUSH1 0x20 DUP3 ADD SWAP1 POP DUP2 DUP2 SUB PUSH1 0x0 DUP4 ADD MSTORE PUSH2 0x2194 DUP2 PUSH2 0x2158 JUMP JUMPDEST SWAP1 POP SWAP2 SWAP1 POP JUMP JUMPDEST PUSH32 0x4272696467653A20696E76616C69642075736463702061646472657373000000 PUSH1 0x0 DUP3 ADD MSTORE POP JUMP JUMPDEST PUSH1 0x0 PUSH2 0x21D1 PUSH1 0x1D DUP4 PUSH2 0x211E JUMP JUMPDEST SWAP2 POP PUSH2 0x21DC DUP3 PUSH2 0x219B JUMP JUMPDEST PUSH1 0x20 DUP3 ADD SWAP1 POP SWAP2 SWAP1 POP JUMP JUMPDEST PUSH1 0x0 PUSH1 0x20 DUP3 ADD SWAP1 POP DUP2 DUP2 SUB PUSH1 0x0 DUP4 ADD MSTORE PUSH2 0x2200 DUP2 PUSH2 0x21C4 JUMP JUMPDEST SWAP1 POP SWAP2 SWAP1 POP JUMP JUMPDEST PUSH32 0x4272696467653A2063616C6C6572206973206E6F74206F70657261746F720000 PUSH1 0x0 DUP3 ADD MSTORE POP JUMP JUMPDEST PUSH1 0x0 PUSH2 0x223D PUSH1 0x1E DUP4 PUSH2 0x211E JUMP JUMPDEST SWAP2 POP PUSH2 0x2248 DUP3 PUSH2 0x2207 JUMP JUMPDEST PUSH1 0x20 DUP3 ADD SWAP1 POP SWAP2 SWAP1 POP JUMP JUMPDEST PUSH1 0x0 PUSH1 0x20 DUP3 ADD SWAP1 POP DUP2 DUP2 SUB PUSH1 0x0 DUP4 ADD MSTORE PUSH2 0x226C DUP2 PUSH2 0x2230 JUMP JUMPDEST SWAP1 POP SWAP2 SWAP1 POP JUMP JUMPDEST PUSH32 0x4272696467653A207769746864726177206E6F7420666F756E64000000000000 PUSH1 0x0 DUP3 ADD MSTORE POP JUMP JUMPDEST PUSH1 0x0 PUSH2 0x22A9 PUSH1 0x1A DUP4 PUSH2 0x211E JUMP JUMPDEST SWAP2 POP PUSH2 0x22B4 DUP3 PUSH2 0x2273 JUMP JUMPDEST PUSH1 0x20 DUP3 ADD SWAP1 POP SWAP2 SWAP1 POP JUMP JUMPDEST PUSH1 0x0 PUSH1 0x20 DUP3 ADD SWAP1 POP DUP2 DUP2 SUB PUSH1 0x0 DUP4 ADD MSTORE PUSH2 0x22D8 DUP2 PUSH2 0x229C JUMP JUMPDEST SWAP1 POP SWAP2 SWAP1 POP JUMP JUMPDEST PUSH32 0x4272696467653A20616C72656164792070726F63657373656400000000000000 PUSH1 0x0 DUP3 ADD MSTORE POP JUMP JUMPDEST PUSH1 0x0 PUSH2 0x2315 PUSH1 0x19 DUP4 PUSH2 0x211E JUMP JUMPDEST SWAP2 POP PUSH2 0x2320 DUP3 PUSH2 0x22DF JUMP JUMPDEST PUSH1 0x20 DUP3 ADD SWAP1 POP SWAP2 SWAP1 POP JUMP JUMPDEST PUSH1 0x0 PUSH1 0x20 DUP3 ADD SWAP1 POP DUP2 DUP2 SUB PUSH1 0x0 DUP4 ADD MSTORE PUSH2 0x2344 DUP2 PUSH2 0x2308 JUMP JUMPDEST SWAP1 POP SWAP2 SWAP1 POP JUMP JUMPDEST PUSH32 0x4272696467653A20706175736564000000000000000000000000000000000000 PUSH1 0x0 DUP3 ADD MSTORE POP JUMP JUMPDEST PUSH1 0x0 PUSH2 0x2381 PUSH1 0xE DUP4 PUSH2 0x211E JUMP JUMPDEST SWAP2 POP PUSH2 0x238C DUP3 PUSH2 0x234B JUMP JUMPDEST PUSH1 0x20 DUP3 ADD SWAP1 POP SWAP2 SWAP1 POP JUMP JUMPDEST PUSH1 0x0 PUSH1 0x20 DUP3 ADD SWAP1 POP DUP2 DUP2 SUB PUSH1 0x0 DUP4 ADD MSTORE PUSH2 0x23B0 DUP2 PUSH2 0x2374 JUMP JUMPDEST SWAP1 POP SWAP2 SWAP1 POP JUMP JUMPDEST PUSH32 0x4272696467653A20696E76616C696420726563697069656E7400000000000000 PUSH1 0x0 DUP3 ADD MSTORE POP JUMP JUMPDEST PUSH1 0x0 PUSH2 0x23ED PUSH1 0x19 DUP4 PUSH2 0x211E JUMP JUMPDEST SWAP2 POP PUSH2 0x23F8 DUP3 PUSH2 0x23B7 JUMP JUMPDEST PUSH1 0x20 DUP3 ADD SWAP1 POP SWAP2 SWAP1 POP JUMP JUMPDEST PUSH1 0x0 PUSH1 0x20 DUP3 ADD SWAP1 POP DUP2 DUP2 SUB PUSH1 0x0 DUP4 ADD MSTORE PUSH2 0x241C DUP2 PUSH2 0x23E0 JUMP JUMPDEST SWAP1 POP SWAP2 SWAP1 POP JUMP JUMPDEST PUSH32 0x4272696467653A20616D6F756E742062656C6F77206D696E696D756D00000000 PUSH1 0x0 DUP3 ADD MSTORE POP JUMP JUMPDEST PUSH1 0x0 PUSH2 0x2459 PUSH1 0x1C DUP4 PUSH2 0x211E JUMP JUMPDEST SWAP2 POP PUSH2 0x2464 DUP3 PUSH2 0x2423 JUMP JUMPDEST PUSH1 0x20 DUP3 ADD SWAP1 POP SWAP2 SWAP1 POP JUMP JUMPDEST PUSH1 0x0 PUSH1 0x20 DUP3 ADD SWAP1 POP DUP2 DUP2 SUB PUSH1 0x0 DUP4 ADD MSTORE PUSH2 0x2488 DUP2 PUSH2 0x244C JUMP JUMPDEST SWAP1 POP SWAP2 SWAP1 POP JUMP JUMPDEST PUSH32 0x4272696467653A20616D6F756E742061626F7665206D6178696D756D00000000 PUSH1 0x0 DUP3 ADD MSTORE POP JUMP JUMPDEST PUSH1 0x0 PUSH2 0x24C5 PUSH1 0x1C DUP4 PUSH2 0x211E JUMP JUMPDEST SWAP2 POP PUSH2 0x24D0 DUP3 PUSH2 0x248F JUMP JUMPDEST PUSH1 0x20 DUP3 ADD SWAP1 POP SWAP2 SWAP1 POP JUMP JUMPDEST PUSH1 0x0 PUSH1 0x20 DUP3 ADD SWAP1 POP DUP2 DUP2 SUB PUSH1 0x0 DUP4 ADD MSTORE PUSH2 0x24F4 DUP2 PUSH2 0x24B8 JUMP JUMPDEST SWAP1 POP SWAP2 SWAP1 POP JUMP JUMPDEST PUSH1 0x0 DUP2 SWAP1 POP SWAP2 SWAP1 POP JUMP JUMPDEST PUSH2 0x2516 PUSH2 0x2511 DUP3 PUSH2 0x1DA9 JUMP JUMPDEST PUSH2 0x24FB JUMP JUMPDEST DUP3 MSTORE POP POP JUMP JUMPDEST PUSH1 0x0 DUP2 PUSH1 0x60 SHL SWAP1 POP SWAP2 SWAP1 POP JUMP JUMPDEST PUSH1 0x0 PUSH2 0x2534 DUP3 PUSH2 0x251C JUMP JUMPDEST SWAP1 POP SWAP2 SWAP1 POP JUMP JUMPDEST PUSH1 0x0 PUSH2 0x2546 DUP3 PUSH2 0x2529 JUMP JUMPDEST SWAP1 POP SWAP2 SWAP1 POP JUMP JUMPDEST PUSH2 0x255E PUSH2 0x2559 DUP3 PUSH2 0x1E2C JUMP JUMPDEST PUSH2 0x253B JUMP JUMPDEST DUP3 MSTORE POP POP JUMP JUMPDEST PUSH1 0x0 DUP2 SWAP1 POP SWAP2 SWAP1 POP JUMP JUMPDEST PUSH2 0x257F PUSH2 0x257A DUP3 PUSH2 0x1E4D JUMP JUMPDEST PUSH2 0x2564 JUMP JUMPDEST DUP3 MSTORE POP POP JUMP JUMPDEST PUSH1 0x0 PUSH2 0x2591 DUP3 DUP7 PUSH2 0x2505 JUMP JUMPDEST PUSH1 0x20 DUP3 ADD SWAP2 POP PUSH2 0x25A1 DUP3 DUP6 PUSH2 0x254D JUMP JUMPDEST PUSH1 0x14 DUP3 ADD SWAP2 POP PUSH2 0x25B1 DUP3 DUP5 PUSH2 0x256E JUMP JUMPDEST PUSH1 0x20 DUP3 ADD SWAP2 POP DUP2 SWAP1 POP SWAP5 SWAP4 POP POP POP POP JUMP JUMPDEST PUSH32 0x4272696467653A206465706F73697420616C72656164792070726F6365737365 PUSH1 0x0 DUP3 ADD MSTORE PUSH32 0x6400000000000000000000000000000000000000000000000000000000000000 PUSH1 0x20 DUP3 ADD MSTORE POP JUMP JUMPDEST PUSH1 0x0 PUSH2 0x261E PUSH1 0x21 DUP4 PUSH2 0x211E JUMP JUMPDEST SWAP2 POP PUSH2 0x2629 DUP3 PUSH2 0x25C2 JUMP JUMPDEST PUSH1 0x40 DUP3 ADD SWAP1 POP SWAP2 SWAP1 POP JUMP JUMPDEST PUSH1 0x0 PUSH1 0x20 DUP3 ADD SWAP1 POP DUP2 DUP2 SUB PUSH1 0x0 DUP4 ADD MSTORE PUSH2 0x264D DUP2 PUSH2 0x2611 JUMP JUMPDEST SWAP1 POP SWAP2 SWAP1 POP JUMP JUMPDEST PUSH2 0x265D DUP2 PUSH2 0x1DA9 JUMP JUMPDEST DUP3 MSTORE POP POP JUMP JUMPDEST PUSH1 0x0 PUSH1 0x60 DUP3 ADD SWAP1 POP PUSH2 0x2678 PUSH1 0x0 DUP4 ADD DUP7 PUSH2 0x1E3E JUMP JUMPDEST PUSH2 0x2685 PUSH1 0x20 DUP4 ADD DUP6 PUSH2 0x1E57 JUMP JUMPDEST PUSH2 0x2692 PUSH1 0x40 DUP4 ADD DUP5 PUSH2 0x2654 JUMP JUMPDEST SWAP5 SWAP4 POP POP POP POP JUMP JUMPDEST PUSH1 0x0 PUSH1 0x40 DUP3 ADD SWAP1 POP PUSH2 0x26AF PUSH1 0x0 DUP4 ADD DUP6 PUSH2 0x1E57 JUMP JUMPDEST PUSH2 0x26BC PUSH1 0x20 DUP4 ADD DUP5 PUSH2 0x2654 JUMP JUMPDEST SWAP4 SWAP3 POP POP POP JUMP JUMPDEST PUSH32 0x4272696467653A2063616C6C6572206973206E6F742070656E64696E67206F77 PUSH1 0x0 DUP3 ADD MSTORE PUSH32 0x6E65720000000000000000000000000000000000000000000000000000000000 PUSH1 0x20 DUP3 ADD MSTORE POP JUMP JUMPDEST PUSH1 0x0 PUSH2 0x271F PUSH1 0x23 DUP4 PUSH2 0x211E JUMP JUMPDEST SWAP2 POP PUSH2 0x272A DUP3 PUSH2 0x26C3 JUMP JUMPDEST PUSH1 0x40 DUP3 ADD SWAP1 POP SWAP2 SWAP1 POP JUMP JUMPDEST PUSH1 0x0 PUSH1 0x20 DUP3 ADD SWAP1 POP DUP2 DUP2 SUB PUSH1 0x0 DUP4 ADD MSTORE PUSH2 0x274E DUP2 PUSH2 0x2712 JUMP JUMPDEST SWAP1 POP SWAP2 SWAP1 POP JUMP JUMPDEST PUSH32 0x4272696467653A20696E76616C6964206F70657261746F720000000000000000 PUSH1 0x0 DUP3 ADD MSTORE POP JUMP JUMPDEST PUSH1 0x0 PUSH2 0x278B PUSH1 0x18 DUP4 PUSH2 0x211E JUMP JUMPDEST SWAP2 POP PUSH2 0x2796 DUP3 PUSH2 0x2755 JUMP JUMPDEST PUSH1 0x20 DUP3 ADD SWAP1 POP SWAP2 SWAP1 POP JUMP JUMPDEST PUSH1 0x0 PUSH1 0x20 DUP3 ADD SWAP1 POP DUP2 DUP2 SUB PUSH1 0x0 DUP4 ADD MSTORE PUSH2 0x27BA DUP2 PUSH2 0x277E JUMP JUMPDEST SWAP1 POP SWAP2 SWAP1 POP JUMP JUMPDEST PUSH32 0x4272696467653A20616C7265616479206F70657261746F720000000000000000 PUSH1 0x0 DUP3 ADD MSTORE POP JUMP JUMPDEST PUSH1 0x0 PUSH2 0x27F7 PUSH1 0x18 DUP4 PUSH2 0x211E JUMP JUMPDEST SWAP2 POP PUSH2 0x2802 DUP3 PUSH2 0x27C1 JUMP JUMPDEST PUSH1 0x20 DUP3 ADD SWAP1 POP SWAP2 SWAP1 POP JUMP JUMPDEST PUSH1 0x0 PUSH1 0x20 DUP3 ADD SWAP1 POP DUP2 DUP2 SUB PUSH1 0x0 DUP4 ADD MSTORE PUSH2 0x2826 DUP2 PUSH2 0x27EA JUMP JUMPDEST SWAP1 POP SWAP2 SWAP1 POP JUMP JUMPDEST PUSH32 0x4272696467653A20696E76616C6964206465706F736974206C696D6974730000 PUSH1 0x0 DUP3 ADD MSTORE POP JUMP JUMPDEST PUSH1 0x0 PUSH2 0x2863 PUSH1 0x1E DUP4 PUSH2 0x211E JUMP JUMPDEST SWAP2 POP PUSH2 0x286E DUP3 PUSH2 0x282D JUMP JUMPDEST PUSH1 0x20 DUP3 ADD SWAP1 POP SWAP2 SWAP1 POP JUMP JUMPDEST PUSH1 0x0 PUSH1 0x20 DUP3 ADD SWAP1 POP DUP2 DUP2 SUB PUSH1 0x0 DUP4 ADD MSTORE PUSH2 0x2892 DUP2 PUSH2 0x2856 JUMP JUMPDEST SWAP1 POP SWAP2 SWAP1 POP JUMP JUMPDEST PUSH32 0x4272696467653A20696E76616C6964207769746864726177206C696D69747300 PUSH1 0x0 DUP3 ADD MSTORE POP JUMP JUMPDEST PUSH1 0x0 PUSH2 0x28CF PUSH1 0x1F DUP4 PUSH2 0x211E JUMP JUMPDEST SWAP2 POP PUSH2 0x28DA DUP3 PUSH2 0x2899 JUMP JUMPDEST PUSH1 0x20 DUP3 ADD SWAP1 POP SWAP2 SWAP1 POP JUMP JUMPDEST PUSH1 0x0 PUSH1 0x20 DUP3 ADD SWAP1 POP DUP2 DUP2 SUB PUSH1 0x0 DUP4 ADD MSTORE PUSH2 0x28FE DUP2 PUSH2 0x28C2 JUMP JUMPDEST SWAP1 POP SWAP2 SWAP1 POP JUMP JUMPDEST PUSH1 0x0 PUSH1 0x80 DUP3 ADD SWAP1 POP PUSH2 0x291A PUSH1 0x0 DUP4 ADD DUP8 PUSH2 0x1E57 JUMP JUMPDEST PUSH2 0x2927 PUSH1 0x20 DUP4 ADD DUP7 PUSH2 0x1E57 JUMP JUMPDEST PUSH2 0x2934 PUSH1 0x40 DUP4 ADD DUP6 PUSH2 0x1E57 JUMP JUMPDEST PUSH2 0x2941 PUSH1 0x60 DUP4 ADD DUP5 PUSH2 0x1E57 JUMP JUMPDEST SWAP6 SWAP5 POP POP POP POP POP JUMP JUMPDEST PUSH32 0x4272696467653A206E6F7420616E206F70657261746F72000000000000000000 PUSH1 0x0 DUP3 ADD MSTORE POP JUMP JUMPDEST PUSH1 0x0 PUSH2 0x2980 PUSH1 0x17 DUP4 PUSH2 0x211E JUMP JUMPDEST SWAP2 POP PUSH2 0x298B DUP3 PUSH2 0x294A JUMP JUMPDEST PUSH1 0x20 DUP3 ADD SWAP1 POP SWAP2 SWAP1 POP JUMP JUMPDEST PUSH1 0x0 PUSH1 0x20 DUP3 ADD SWAP1 POP DUP2 DUP2 SUB PUSH1 0x0 DUP4 ADD MSTORE PUSH2 0x29AF DUP2 PUSH2 0x2973 JUMP JUMPDEST SWAP1 POP SWAP2 SWAP1 POP JUMP JUMPDEST PUSH1 0x0 DUP2 MLOAD SWAP1 POP PUSH2 0x29C5 DUP2 PUSH2 0x1FDD JUMP JUMPDEST SWAP3 SWAP2 POP POP JUMP JUMPDEST PUSH1 0x0 PUSH1 0x20 DUP3 DUP5 SUB SLT ISZERO PUSH2 0x29E1 JUMPI PUSH2 0x29E0 PUSH2 0x1DA4 JUMP JUMPDEST JUMPDEST PUSH1 0x0 PUSH2 0x29EF DUP5 DUP3 DUP6 ADD PUSH2 0x29B6 JUMP JUMPDEST SWAP2 POP POP SWAP3 SWAP2 POP POP JUMP JUMPDEST PUSH32 0x4272696467653A20696E73756666696369656E742062616C616E636500000000 PUSH1 0x0 DUP3 ADD MSTORE POP JUMP JUMPDEST PUSH1 0x0 PUSH2 0x2A2E PUSH1 0x1C DUP4 PUSH2 0x211E JUMP JUMPDEST SWAP2 POP PUSH2 0x2A39 DUP3 PUSH2 0x29F8 JUMP JUMPDEST PUSH1 0x20 DUP3 ADD SWAP1 POP SWAP2 SWAP1 POP JUMP JUMPDEST PUSH1 0x0 PUSH1 0x20 DUP3 ADD SWAP1 POP DUP2 DUP2 SUB PUSH1 0x0 DUP4 ADD MSTORE PUSH2 0x2A5D DUP2 PUSH2 0x2A21 JUMP JUMPDEST SWAP1 POP SWAP2 SWAP1 POP JUMP JUMPDEST PUSH1 0x0 PUSH2 0x2A70 DUP3 DUP10 PUSH2 0x254D JUMP JUMPDEST PUSH1 0x14 DUP3 ADD SWAP2 POP PUSH2 0x2A80 DUP3 DUP9 PUSH2 0x256E JUMP JUMPDEST PUSH1 0x20 DUP3 ADD SWAP2 POP PUSH2 0x2A90 DUP3 DUP8 PUSH2 0x254D JUMP JUMPDEST PUSH1 0x14 DUP3 ADD SWAP2 POP PUSH2 0x2AA0 DUP3 DUP7 PUSH2 0x256E JUMP JUMPDEST PUSH1 0x20 DUP3 ADD SWAP2 POP PUSH2 0x2AB0 DUP3 DUP6 PUSH2 0x256E JUMP JUMPDEST PUSH1 0x20 DUP3 ADD SWAP2 POP PUSH2 0x2AC0 DUP3 DUP5 PUSH2 0x256E JUMP JUMPDEST PUSH1 0x20 DUP3 ADD SWAP2 POP DUP2 SWAP1 POP SWAP8 SWAP7 POP POP POP POP POP POP POP JUMP JUMPDEST PUSH32 0x4E487B7100000000000000000000000000000000000000000000000000000000 PUSH1 0x0 MSTORE PUSH1 0x11 PUSH1 0x4 MSTORE PUSH1 0x24 PUSH1 0x0 REVERT JUMPDEST PUSH1 0x0 PUSH2 0x2B0E DUP3 PUSH2 0x1E4D JUMP JUMPDEST SWAP2 POP PUSH32 0xFFFFFFFFFFFFFFFFFFFFFFFFFFFFFFFFFFFFFFFFFFFFFFFFFFFFFFFFFFFFFFFF DUP3 EQ ISZERO PUSH2 0x2B41 JUMPI PUSH2 0x2B40 PUSH2 0x2AD4 JUMP JUMPDEST JUMPDEST PUSH1 0x1 DUP3 ADD SWAP1 POP SWAP2 SWAP1 POP JUMP JUMPDEST PUSH1 0x0 PUSH1 0x40 DUP3 ADD SWAP1 POP PUSH2 0x2B61 PUSH1 0x0 DUP4 ADD DUP6 PUSH2 0x1E57 JUMP JUMPDEST PUSH2 0x2B6E PUSH1 0x20 DUP4 ADD DUP5 PUSH2 0x1E3E JUMP JUMPDEST SWAP4 SWAP3 POP POP POP JUMP JUMPDEST PUSH32 0x4272696467653A20696E76616C6964206F776E65720000000000000000000000 PUSH1 0x0 DUP3 ADD MSTORE POP JUMP JUMPDEST PUSH1 0x0 PUSH2 0x2BAB PUSH1 0x15 DUP4 PUSH2 0x211E JUMP JUMPDEST SWAP2 POP PUSH2 0x2BB6 DUP3 PUSH2 0x2B75 JUMP JUMPDEST PUSH1 0x20 DUP3 ADD SWAP1 POP SWAP2 SWAP1 POP JUMP JUMPDEST PUSH1 0x0 PUSH1 0x20 DUP3 ADD SWAP1 POP DUP2 DUP2 SUB PUSH1 0x0 DUP4 ADD MSTORE PUSH2 0x2BDA DUP2 PUSH2 0x2B9E JUMP JUMPDEST SWAP1 POP SWAP2 SWAP1 POP JUMP INVALID LOG2 PUSH5 0x6970667358 0x22 SLT KECCAK256 MOD 0xAF DIV EXTCODESIZE SWAP7 0xB9 0x2E INVALID CALLVALUE DUP14 DUP8 CALL SWAP4 0x2B PUSH1 0x19 NUMBER 0xC9 0x24 0xEC 0xE9 PUSH7 0x17170673219747 0x28 0xDD PUSH26 0x64736F6C634300080A0033000000000000000000000000000000 "
    },
    "gasEstimates": {
      "creation": {
        "codeDepositCost": "2257400",
        "executionCost": "infinite",
        "totalCost": "infinite"
      },
      "external": {
        "acceptOwnership()": "58934",
        "addOperator(address)": "30516",
        "getWithdrawRequest(bytes32)": "infinite",
        "isDepositProcessed(bytes32)": "2911",
        "markWithdrawProcessed(bytes32)": "32697",
        "maxDepositAmount()": "2496",
        "maxWithdrawAmount()": "2539",
        "minDepositAmount()": "2518",
        "minWithdrawAmount()": "2563",
        "operators(address)": "2891",
        "owner()": "2559",
        "pause()": "27893",
        "paused()": "2588",
        "pendingOwner()": "2558",
        "processDeposit(address,uint256,bytes32)": "infinite",
        "processedDeposits(bytes32)": "2908",
        "removeOperator(address)": "30519",
        "requestWithdraw(uint256,address)": "infinite",
        "setLimits(uint256,uint256,uint256,uint256)": "infinite",
        "setUSDCp(address)": "30676",
        "transferOwnership(address)": "30699",
        "unpause()": "27960",
        "usdcp()": "infinite",
        "withdrawNonce()": "2474",
        "withdrawRequests(bytes32)": "infinite"
      }
    },
    "methodIdentifiers": {
      "acceptOwnership()": "79ba5097",
      "addOperator(address)": "9870d7fe",
      "getWithdrawRequest(bytes32)": "e869554d",
      "isDepositProcessed(bytes32)": "d5d0d21c",
      "markWithdrawProcessed(bytes32)": "464514af",
      "maxDepositAmount()": "8ed83271",
      "maxWithdrawAmount()": "f516440c",
      "minDepositAmount()": "645006ca",
      "minWithdrawAmount()": "457e1a49",
      "operators(address)": "13e7c9d8",
      "owner()": "8da5cb5b",
      "pause()": "8456cb59",
      "paused()": "5c975abb",
      "pendingOwner()": "e30c3978",
      "processDeposit(address,uint256,bytes32)": "6e2bc8ff",
      "processedDeposits(bytes32)": "40c5faf0",
      "removeOperator(address)": "ac8a584a",
      "requestWithdraw(uint256,address)": "ccc143b8",
      "setLimits(uint256,uint256,uint256,uint256)": "a075b7c7",
      "setUSDCp(address)": "15e7b12f",
      "transferOwnership(address)": "f2fde38b",
      "unpause()": "3f4ba83a",
      "usdcp()": "4592bc14",
      "withdrawNonce()": "b8a4e151",
      "withdrawRequests(bytes32)": "026508d1"
    }
  },
  "storageLayout": {
    "storage": [
      {
        "astId": 500,
        "contract": "PrivateBridgeV2.sol:PrivateBridgeV2",
        "label": "usdcp",
        "offset": 0,
        "slot": "0",
        "type": "t_contract(USDCpV2)2325"
      },
      {
        "astId": 502,
        "contract": "PrivateBridgeV2.sol:PrivateBridgeV2",
        "label": "owner",
        "offset": 0,
        "slot": "1",
        "type": "t_address"
      },
      {
        "astId": 504,
        "contract": "PrivateBridgeV2.sol:PrivateBridgeV2",
        "label": "pendingOwner",
        "offset": 0,
        "slot": "2",
        "type": "t_address"
      },
      {
        "astId": 506,
        "contract": "PrivateBridgeV2.sol:PrivateBridgeV2",
        "label": "paused",
        "offset": 20,
        "slot": "2",
        "type": "t_bool"
      },
      {
        "astId": 510,
        "contract": "PrivateBridgeV2.sol:PrivateBridgeV2",
        "label": "operators",
        "offset": 0,
        "slot": "3",
        "type": "t_mapping(t_address,t_bool)"
      },
      {
        "astId": 514,
        "contract": "PrivateBridgeV2.sol:PrivateBridgeV2",
        "label": "processedDeposits",
        "offset": 0,
        "slot": "4",
        "type": "t_mapping(t_bytes32,t_bool)"
      },
      {
        "astId": 519,
        "contract": "PrivateBridgeV2.sol:PrivateBridgeV2",
        "label": "withdrawRequests",
        "offset": 0,
        "slot": "5",
        "type": "t_mapping(t_bytes32,t_struct(WithdrawRequest)540_storage)"
      },
      {
        "astId": 521,
        "contract": "PrivateBridgeV2.sol:PrivateBridgeV2",
        "label": "withdrawNonce",
        "offset": 0,
        "slot": "6",
        "type": "t_uint256"
      },
      {
        "astId": 523,
        "contract": "PrivateBridgeV2.sol:PrivateBridgeV2",
        "label": "minDepositAmount",
        "offset": 0,
        "slot": "7",
        "type": "t_uint256"
      },
      {
        "astId": 525,
        "contract": "PrivateBridgeV2.sol:PrivateBridgeV2",
        "label": "maxDepositAmount",
        "offset": 0,
        "slot": "8",
        "type": "t_uint256"
      },
      {
        "astId": 527,
        "contract": "PrivateBridgeV2.sol:PrivateBridgeV2",
        "label": "minWithdrawAmount",
        "offset": 0,
        "slot": "9",
        "type": "t_uint256"
      },
      {
        "astId": 529,
        "contract": "PrivateBridgeV2.sol:PrivateBridgeV2",
        "label": "maxWithdrawAmount",
        "offset": 0,
        "slot": "10",
        "type": "t_uint256"
      }
    ],
    "types": {
      "t_address": {
        "encoding": "inplace",
        "label": "address",
        "numberOfBytes": "20"
      },
      "t_bool": {
        "encoding": "inplace",
        "label": "bool",
        "numberOfBytes": "1"
      },
      "t_bytes32": {
        "encoding": "inplace",
        "label": "bytes32",
        "numberOfBytes": "32"
      },
      "t_contract(USDCpV2)2325": {
        "encoding": "inplace",
        "label": "contract USDCpV2",
        "numberOfBytes": "20"
      },
      "t_mapping(t_address,t_bool)": {
        "encoding": "mapping",
        "key": "t_address",
        "label": "mapping(address => bool)",
        "numberOfBytes": "32",
        "value": "t_bool"
      },
      "t_mapping(t_bytes32,t_bool)": {
        "encoding": "mapping",
        "key": "t_bytes32",
        "label": "mapping(bytes32 => bool)",
        "numberOfBytes": "32",
        "value": "t_bool"
      },
      "t_mapping(t_bytes32,t_struct(WithdrawRequest)540_storage)": {
        "encoding": "mapping",
        "key": "t_bytes32",
        "label": "mapping(bytes32 => struct PrivateBridgeV2.WithdrawRequest)",
        "numberOfBytes": "32",
        "value": "t_struct(WithdrawRequest)540_storage"
      },
      "t_struct(WithdrawRequest)540_storage": {
        "encoding": "inplace",
        "label": "struct PrivateBridgeV2.WithdrawRequest",
        "members": [
          {
            "astId": 531,
            "contract": "PrivateBridgeV2.sol:PrivateBridgeV2",
            "label": "from",
            "offset": 0,
            "slot": "0",
            "type": "t_address"
          },
          {
            "astId": 533,
            "contract": "PrivateBridgeV2.sol:PrivateBridgeV2",
            "label": "amount",
            "offset": 0,
            "slot": "1",
            "type": "t_uint256"
          },
          {
            "astId": 535,
            "contract": "PrivateBridgeV2.sol:PrivateBridgeV2",
            "label": "publicChainRecipient",
            "offset": 0,
            "slot": "2",
            "type": "t_address"
          },
          {
            "astId": 537,
            "contract": "PrivateBridgeV2.sol:PrivateBridgeV2",
            "label": "timestamp",
            "offset": 0,
            "slot": "3",
            "type": "t_uint256"
          },
          {
            "astId": 539,
            "contract": "PrivateBridgeV2.sol:PrivateBridgeV2",
            "label": "processed",
            "offset": 0,
            "slot": "4",
            "type": "t_bool"
          }
        ],
        "numberOfBytes": "160"
      },
      "t_uint256": {
        "encoding": "inplace",
        "label": "uint256",
        "numberOfBytes": "32"
      }
    }
  },
  "userdoc": {
    "kind": "user",
    "methods": {
      "markWithdrawProcessed(bytes32)": {
        "notice": "Mark withdrawal as processed"
      },
      "processDeposit(address,uint256,bytes32)": {
        "notice": "Process a deposit from public chain (mint USDCp)"
      },
      "requestWithdraw(uint256,address)": {
        "notice": "Request withdrawal to public chain (user calls this)"
      }
    },
    "notice": "Bridge contract on Private Chain for handling USDC <-> USDCp transfers",
    "version": 1
  }
}