{
  "abi": [
    {
      "inputs": [
        {
          "internalType": "address",
          "name": "_bridge",
          "type": "address"
        }
      ],
      "stateMutability": "nonpayable",
      "type": "constructor"
    },
    {
      "anonymous": false,
      "inputs": [
        {
          "indexed": true,
          "internalType": "address",
          "name": "owner",
          "type": "address"
        },
        {
          "indexed": true,
          "internalType": "address",
          "name": "spender",
          "type": "address"
        },
        {
          "indexed": false,
          "internalType": "uint256",
          "name": "value",
          "type": "uint256"
        }
      ],
      "name": "Approval",
      "type": "event"
    },
    {
      "anonymous": false,
      "inputs": [
        {
          "indexed": true,
          "internalType": "address",
          "name": "oldBridge",
          "type": "address"
        },
        {
          "indexed": true,
          "internalType": "address",
          "name": "newBridge",
          "type": "address"
        }
      ],
      "name": "BridgeUpdated",
      "type": "event"
    },
    {
      "anonymous": false,
      "inputs": [
        {
          "indexed": true,
          "internalType": "address",
          "name": "from",
          "type": "address"
        },
        {
          "indexed": false,
          "internalType": "uint256",
          "name": "amount",
          "type": "uint256"
        },
        {
          "indexed": true,
          "internalType": "bytes32",
          "name": "withdrawId",
          "type": "bytes32"
        }
      ],
      "name": "Burn",
      "type": "event"
    },
    {
      "anonymous": false,
      "inputs": [
        {
          "indexed": true,
          "internalType": "address",
          "name": "to",
          "type": "address"
        },
        {
          "indexed": false,
          "internalType": "uint256",
          "name": "amount",
          "type": "uint256"
        },
        {
          "indexed": true,
          "internalType": "bytes32",
          "name": "depositId",
          "type": "bytes32"
        }
      ],
      "name": "Mint",
      "type": "event"
    },
    {
      "anonymous": false,
      "inputs": [
        {
          "indexed": true,
          "internalType": "address",
          "name": "from",
          "type": "address"
        },
        {
          "indexed": true,
          "internalType": "address",
          "name": "to",
          "type": "address"
        },
        {
          "indexed": false,
          "internalType": "uint256",
          "name": "value",
          "type": "uint256"
        }
      ],
      "name": "Transfer",
      "type": "event"
    },
    {
      "inputs": [
        {
          "internalType": "address",
          "name": "",
          "type": "address"
        },
        {
          "internalType": "address",
          "name": "",
          "type": "address"
        }
      ],
      "name": "allowance",
      "outputs": [
        {
          "internalType": "uint256",
          "name": "",
          "type": "uint256"
        }
      ],
      "stateMutability": "view",
      "type": "function"
    },
    {
      "inputs": [
        {
          "internalType": "address",
          "name": "spender",
          "type": "address"
        },
        {
          "internalType": "uint256",
          "name": "amount",
          "type": "uint256"
        }
      ],
      "name": "approve",
      "outputs": [
        {
          "internalType": "bool",
          "name": "",
          "type": "bool"
        }
      ],
      "stateMutability": "nonpayable",
      "type": "function"
    },
    {
      "inputs": [
        {
          "internalType": "address",
          "name": "",
          "type": "address"
        }
      ],
      "name": "balanceOf",
      "outputs": [
        {
          "internalType": "uint256",
          "name": "",
          "type": "uint256"
        }
      ],
      "stateMutability": "view",
      "type": "function"
    },
    {
      "inputs": [],
      "name": "bridge",
      "outputs": [
        {
          "internalType": "address",
          "name": "",
          "type": "address"
        }
      ],
      "stateMutability": "view",
      "type": "function"
    },
    {
      "inputs": [
        {
          "internalType": "address",
          "name": "from",
          "type": "address"
        },
        {
          "internalType": "uint256",
          "name": "amount",
          "type": "uint256"
        },
        {
          "internalType": "bytes32",
          "name": "withdrawId",
          "type": "bytes32"
        }
      ],
      "name": "burn",
      "outputs": [],
      "stateMutability": "nonpayable",
      "type": "function"
    },
    {
      "inputs": [],
      "name": "decimals",
      "outputs": [
        {
          "internalType": "uint8",
          "name": "",
          "type": "uint8"
        }
      ],
      "stateMutability": "view",
      "type": "function"
    },
    {
      "inputs": [
        {
          "internalType": "address",
          "name": "to",
          "type": "address"
        },
        {
          "internalType": "uint256",
          "name": "amount",
          "type": "uint256"
        },
        {
          "internalType": "bytes32",
          "name": "depositId",
          "type": "bytes32"
        }
      ],
      "name": "mint",
      "outputs": [],
      "stateMutability": "nonpayable",
      "type": "function"
    },
    {
      "inputs": [],
      "name": "name",
      "outputs": [
        {
          "internalType": "string",
          "name": "",
          "type": "string"
        }
      ],
      "stateMutability": "view",
      "type": "function"
    },
    {
      "inputs": [],
      "name": "owner",
      "outputs": [
        {
          "internalType": "address",
          "name": "",
          "type": "address"
        }
      ],
      "stateMutability": "view",
      "type": "function"
    },
    {
      "inputs": [
        {
          "internalType": "address",
          "name": "newBridge",
          "type": "address"
        }
      ],
      "name": "setBridge",
      "outputs": [],
      "stateMutability": "nonpayable",
      "type": "function"
    },
    {
      "inputs": [],
      "name": "symbol",
      "outputs": [
        {
          "internalType": "string",
          "name": "",
          "type": "string"
        }
      ],
      "stateMutability": "view",
      "type": "function"
    },
    {
      "inputs": [],
      "name": "totalSupply",
      "outputs": [
        {
          "internalType": "uint256",
          "name": "",
          "type": "uint256"
        }
      ],
      "stateMutability": "view",
      "type": "function"
    },
    {
      "inputs": [
        {
          "internalType": "address",
          "name": "to",
          "type": "address"
        },
        {
          "internalType": "uint256",
          "name": "amount",
          "type": "uint256"
        }
      ],
      "name": "transfer",
      "outputs": [
        {
          "internalType": "bool",
          "name": "",
          "type": "bool"
        }
      ],
      "stateMutability": "nonpayable",
      "type": "function"
    },
    {
      "inputs": [
        {
          "internalType": "address",
          "name": "from",
          "type": "address"
        },
        {
          "internalType": "address",
          "name": "to",
          "type": "address"
        },
        {
          "internalType": "uint256",
          "name": "amount",
          "type": "uint256"
        }
      ],
      "name": "transferFrom",
      "outputs": [
        {
          "internalType": "bool",
          "name": "",
          "type": "bool"
        }
      ],
      "stateMutability": "nonpayable",
      "type": "function"
    },
    {
      "inputs": [
        {
          "internalType": "address",
          "name": "newOwner",
          "type": "address"
        }
      ],
      "name": "transferOwnership",
      "outputs": [],
      "stateMutability": "nonpayable",
      "type": "function"
    }
  ],
  "devdoc": {
    "kind": "dev",
    "methods": {
      "burn(address,uint256,bytes32)": {
        "params": {
          "amount": "Amount to burn",
          "from": "Address burning tokens",
          "withdrawId": "Unique identifier for this withdrawal"
        }
      },
      "mint(address,uint256,bytes32)": {
        "params": {
          "amount": "Amount to mint (in 6 decimals)",
          "depositId": "Unique identifier for the deposit on public chain",
          "to": "Recipient address on private chain"
        }
      }
    },
    "title": "USDCp - Bridged USDC for Private Chain",
    "version": 1
  },
  "evm": {
    "assembly": "    /* \"USDCp.sol\":189:4319  contract USDCp {... */\n  mstore(0x40, 0x80)\n    /* \"USDCp.sol\":1231:1321  constructor(address _bridge) {... */\n  callvalue\n  dup1\n  iszero\n  tag_1\n  jumpi\n  0x00\n  dup1\n  revert\ntag_1:\n  pop\n  mload(0x40)\n  sub(codesize, bytecodeSize)\n  dup1\n  bytecodeSize\n  dup4\n  codecopy\n  dup2\n  dup2\n  add\n  0x40\n  mstore\n  dup2\n  add\n  swap1\n  tag_2\n  swap2\n  swap1\n  tag_3\n  jump\t// in\ntag_2:\n    /* \"USDCp.sol\":1278:1288  msg.sender */\n  caller\n    /* \"USDCp.sol\":1270:1275  owner */\n  0x04\n  0x00\n    /* \"USDCp.sol\":1270:1288  owner = msg.sender */\n  0x0100\n  exp\n  dup2\n  sload\n  dup2\n  0xffffffffffffffffffffffffffffffffffffffff\n  mul\n  not\n  and\n  swap1\n  dup4\n  0xffffffffffffffffffffffffffffffffffffffff\n  and\n  mul\n  or\n  swap1\n  sstore\n  pop\n    /* \"USDCp.sol\":1307:1314  _bridge */\n  dup1\n    /* \"USDCp.sol\":1298:1304  bridge */\n  0x03\n  0x00\n    /* \"USDCp.sol\":1298:1314  bridge = _bridge */\n  0x0100\n  exp\n  dup2\n  sload\n  dup2\n  0xffffffffffffffffffffffffffffffffffffffff\n  mul\n  not\n  and\n  swap1\n  dup4\n  0xffffffffffffffffffffffffffffffffffffffff\n  and\n  mul\n  or\n  swap1\n  sstore\n  pop\n    /* \"USDCp.sol\":1231:1321  constructor(address _bridge) {... */\n  pop\n    /* \"USDCp.sol\":189:4319  contract USDCp {... */\n  jump(tag_6)\n    /* \"#utility.yul\":88:205   */\ntag_8:\n    /* \"#utility.yul\":197:198   */\n  0x00\n    /* \"#utility.yul\":194:195   */\n  dup1\n    /* \"#utility.yul\":187:199   */\n  revert\n    /* \"#utility.yul\":334:460   */\ntag_10:\n    /* \"#utility.yul\":371:378   */\n  0x00\n    /* \"#utility.yul\":411:453   */\n  0xffffffffffffffffffffffffffffffffffffffff\n    /* \"#utility.yul\":404:409   */\n  dup3\n    /* \"#utility.yul\":400:454   */\n  and\n    /* \"#utility.yul\":389:454   */\n  swap1\n  pop\n    /* \"#utility.yul\":334:460   */\n  swap2\n  swap1\n  pop\n  jump\t// out\n    /* \"#utility.yul\":466:562   */\ntag_11:\n    /* \"#utility.yul\":503:510   */\n  0x00\n    /* \"#utility.yul\":532:556   */\n  tag_20\n    /* \"#utility.yul\":550:555   */\n  dup3\n    /* \"#utility.yul\":532:556   */\n  tag_10\n  jump\t// in\ntag_20:\n    /* \"#utility.yul\":521:556   */\n  swap1\n  pop\n    /* \"#utility.yul\":466:562   */\n  swap2\n  swap1\n  pop\n  jump\t// out\n    /* \"#utility.yul\":568:690   */\ntag_12:\n    /* \"#utility.yul\":641:665   */\n  tag_22\n    /* \"#utility.yul\":659:664   */\n  dup2\n    /* \"#utility.yul\":641:665   */\n  tag_11\n  jump\t// in\ntag_22:\n    /* \"#utility.yul\":634:639   */\n  dup2\n    /* \"#utility.yul\":631:666   */\n  eq\n    /* \"#utility.yul\":621:684   */\n  tag_23\n  jumpi\n    /* \"#utility.yul\":680:681   */\n  0x00\n    /* \"#utility.yul\":677:678   */\n  dup1\n    /* \"#utility.yul\":670:682   */\n  revert\n    /* \"#utility.yul\":621:684   */\ntag_23:\n    /* \"#utility.yul\":568:690   */\n  pop\n  jump\t// out\n    /* \"#utility.yul\":696:839   */\ntag_13:\n    /* \"#utility.yul\":753:758   */\n  0x00\n    /* \"#utility.yul\":784:790   */\n  dup2\n    /* \"#utility.yul\":778:791   */\n  mload\n    /* \"#utility.yul\":769:791   */\n  swap1\n  pop\n    /* \"#utility.yul\":800:833   */\n  tag_25\n    /* \"#utility.yul\":827:832   */\n  dup2\n    /* \"#utility.yul\":800:833   */\n  tag_12\n  jump\t// in\ntag_25:\n    /* \"#utility.yul\":696:839   */\n  swap3\n  swap2\n  pop\n  pop\n  jump\t// out\n    /* \"#utility.yul\":845:1196   */\ntag_3:\n    /* \"#utility.yul\":915:921   */\n  0x00\n    /* \"#utility.yul\":964:966   */\n  0x20\n    /* \"#utility.yul\":952:961   */\n  dup3\n    /* \"#utility.yul\":943:950   */\n  dup5\n    /* \"#utility.yul\":939:962   */\n  sub\n    /* \"#utility.yul\":935:967   */\n  slt\n    /* \"#utility.yul\":932:1051   */\n  iszero\n  tag_27\n  jumpi\n    /* \"#utility.yul\":970:1049   */\n  tag_28\n  tag_8\n  jump\t// in\ntag_28:\n    /* \"#utility.yul\":932:1051   */\ntag_27:\n    /* \"#utility.yul\":1090:1091   */\n  0x00\n    /* \"#utility.yul\":1115:1179   */\n  tag_29\n    /* \"#utility.yul\":1171:1178   */\n  dup5\n    /* \"#utility.yul\":1162:1168   */\n  dup3\n    /* \"#utility.yul\":1151:1160   */\n  dup6\n    /* \"#utility.yul\":1147:1169   */\n  add\n    /* \"#utility.yul\":1115:1179   */\n  tag_13\n  jump\t// in\ntag_29:\n    /* \"#utility.yul\":1105:1179   */\n  swap2\n  pop\n    /* \"#utility.yul\":1061:1189   */\n  pop\n    /* \"#utility.yul\":845:1196   */\n  swap3\n  swap2\n  pop\n  pop\n  jump\t// out\n    /* \"USDCp.sol\":189:4319  contract USDCp {... */\ntag_6:\n  dataSize(sub_0)\n  dup1\n  dataOffset(sub_0)\n  0x00\n  codecopy\n  0x00\n  return\nstop\n\nsub_0: assembly {\n        /* \"USDCp.sol\":189:4319  contract USDCp {... */\n      mstore(0x40, 0x80)\n      callvalue\n      dup1\n      iszero\n      tag_1\n      jumpi\n      0x00\n      dup1\n      revert\n    tag_1:\n      pop\n      jumpi(tag_2, lt(calldatasize, 0x04))\n      shr(0xe0, calldataload(0x00))\n      dup1\n      0x70a08231\n      gt\n      tag_18\n      jumpi\n      dup1\n      0xa9059cbb\n      gt\n      tag_19\n      jumpi\n      dup1\n      0xa9059cbb\n      eq\n      tag_14\n      jumpi\n      dup1\n      0xdd62ed3e\n      eq\n      tag_15\n      jumpi\n      dup1\n      0xe78cea92\n      eq\n      tag_16\n      jumpi\n      dup1\n      0xf2fde38b\n      eq\n      tag_17\n      jumpi\n      jump(tag_2)\n    tag_19:\n      dup1\n      0x70a08231\n      eq\n      tag_10\n      jumpi\n      dup1\n      0x8da5cb5b\n      eq\n      tag_11\n      jumpi\n      dup1\n      0x8dd14802\n      eq\n      tag_12\n      jumpi\n      dup1\n      0x95d89b41\n      eq\n      tag_13\n      jumpi\n      jump(tag_2)\n    tag_18:\n      dup1\n      0x18160ddd\n      gt\n      tag_20\n      jumpi\n      dup1\n      0x18160ddd\n      eq\n      tag_6\n      jumpi\n      dup1\n      0x1e458bee\n      eq\n      tag_7\n      jumpi\n      dup1\n      0x23b872dd\n      eq\n      tag_8\n      jumpi\n      dup1\n      0x313ce567\n      eq\n      tag_9\n      jumpi\n      jump(tag_2)\n    tag_20:\n      dup1\n      0x06fdde03\n      eq\n      tag_3\n      jumpi\n      dup1\n      0x095ea7b3\n      eq\n      tag_4\n      jumpi\n      dup1\n      0x158a1cc3\n      eq\n      tag_5\n      jumpi\n    tag_2:\n      0x00\n      dup1\n      revert\n        /* \"USDCp.sol\":210:264  string public constant name = \"Bridged USDC (Private)\" */\n    tag_3:\n      tag_21\n      tag_22\n      jump\t// in\n    tag_21:\n      mload(0x40)\n      tag_23\n      swap2\n      swap1\n      tag_24\n      jump\t// in\n    tag_23:\n      mload(0x40)\n      dup1\n      swap2\n      sub\n      swap1\n      return\n        /* \"USDCp.sol\":1764:1967  function approve(address spender, uint256 amount) external returns (bool) {... */\n    tag_4:\n      tag_25\n      0x04\n      dup1\n      calldatasize\n      sub\n      dup2\n      add\n      swap1\n      tag_26\n      swap2\n      swap1\n      tag_27\n      jump\t// in\n    tag_26:\n      tag_28\n      jump\t// in\n    tag_25:\n      mload(0x40)\n      tag_29\n      swap2\n      swap1\n      tag_30\n      jump\t// in\n    tag_29:\n      mload(0x40)\n      dup1\n      swap2\n      sub\n      swap1\n      return\n        /* \"USDCp.sol\":3454:3853  function burn(address from, uint256 amount, bytes32 withdrawId) external onlyBridge {... */\n    tag_5:\n      tag_31\n      0x04\n      dup1\n      calldatasize\n      sub\n      dup2\n      add\n      swap1\n      tag_32\n      swap2\n      swap1\n      tag_33\n      jump\t// in\n    tag_32:\n      tag_34\n      jump\t// in\n    tag_31:\n      stop\n        /* \"USDCp.sol\":372:398  uint256 public totalSupply */\n    tag_6:\n      tag_35\n      tag_36\n      jump\t// in\n    tag_35:\n      mload(0x40)\n      tag_37\n      swap2\n      swap1\n      tag_38\n      jump\t// in\n    tag_37:\n      mload(0x40)\n      dup1\n      swap2\n      sub\n      swap1\n      return\n        /* \"USDCp.sol\":2823:3195  function mint(address to, uint256 amount, bytes32 depositId) external onlyBridge {... */\n    tag_7:\n      tag_39\n      0x04\n      dup1\n      calldatasize\n      sub\n      dup2\n      add\n      swap1\n      tag_40\n      swap2\n      swap1\n      tag_33\n      jump\t// in\n    tag_40:\n      tag_41\n      jump\t// in\n    tag_39:\n      stop\n        /* \"USDCp.sol\":1973:2481  function transferFrom(address from, address to, uint256 amount) external returns (bool) {... */\n    tag_8:\n      tag_42\n      0x04\n      dup1\n      calldatasize\n      sub\n      dup2\n      add\n      swap1\n      tag_43\n      swap2\n      swap1\n      tag_44\n      jump\t// in\n    tag_43:\n      tag_45\n      jump\t// in\n    tag_42:\n      mload(0x40)\n      tag_46\n      swap2\n      swap1\n      tag_30\n      jump\t// in\n    tag_46:\n      mload(0x40)\n      dup1\n      swap2\n      sub\n      swap1\n      return\n        /* \"USDCp.sol\":315:349  uint8 public constant decimals = 6 */\n    tag_9:\n      tag_47\n      tag_48\n      jump\t// in\n    tag_47:\n      mload(0x40)\n      tag_49\n      swap2\n      swap1\n      tag_50\n      jump\t// in\n    tag_49:\n      mload(0x40)\n      dup1\n      swap2\n      sub\n      swap1\n      return\n        /* \"USDCp.sol\":404:448  mapping(address => uint256) public balanceOf */\n    tag_10:\n      tag_51\n      0x04\n      dup1\n      calldatasize\n      sub\n      dup2\n      add\n      swap1\n      tag_52\n      swap2\n      swap1\n      tag_53\n      jump\t// in\n    tag_52:\n      tag_54\n      jump\t// in\n    tag_51:\n      mload(0x40)\n      tag_55\n      swap2\n      swap1\n      tag_38\n      jump\t// in\n    tag_55:\n      mload(0x40)\n      dup1\n      swap2\n      sub\n      swap1\n      return\n        /* \"USDCp.sol\":552:572  address public owner */\n    tag_11:\n      tag_56\n      tag_57\n      jump\t// in\n    tag_56:\n      mload(0x40)\n      tag_58\n      swap2\n      swap1\n      tag_59\n      jump\t// in\n    tag_58:\n      mload(0x40)\n      dup1\n      swap2\n      sub\n      swap1\n      return\n        /* \"USDCp.sol\":3909:4130  function setBridge(address newBridge) external onlyOwner {... */\n    tag_12:\n      tag_60\n      0x04\n      dup1\n      calldatasize\n      sub\n      dup2\n      add\n      swap1\n      tag_61\n      swap2\n      swap1\n      tag_53\n      jump\t// in\n    tag_61:\n      tag_62\n      jump\t// in\n    tag_60:\n      stop\n        /* \"USDCp.sol\":270:309  string public constant symbol = \"USDCp\" */\n    tag_13:\n      tag_63\n      tag_64\n      jump\t// in\n    tag_63:\n      mload(0x40)\n      tag_65\n      swap2\n      swap1\n      tag_24\n      jump\t// in\n    tag_65:\n      mload(0x40)\n      dup1\n      swap2\n      sub\n      swap1\n      return\n        /* \"USDCp.sol\":1386:1758  function transfer(address to, uint256 amount) external returns (bool) {... */\n    tag_14:\n      tag_66\n      0x04\n      dup1\n      calldatasize\n      sub\n      dup2\n      add\n      swap1\n      tag_67\n      swap2\n      swap1\n      tag_27\n      jump\t// in\n    tag_67:\n      tag_68\n      jump\t// in\n    tag_66:\n      mload(0x40)\n      tag_69\n      swap2\n      swap1\n      tag_30\n      jump\t// in\n    tag_69:\n      mload(0x40)\n      dup1\n      swap2\n      sub\n      swap1\n      return\n        /* \"USDCp.sol\":454:518  mapping(address => mapping(address => uint256)) public allowance */\n    tag_15:\n      tag_70\n      0x04\n      dup1\n      calldatasize\n      sub\n      dup2\n      add\n      swap1\n      tag_71\n      swap2\n      swap1\n      tag_72\n      jump\t// in\n    tag_71:\n      tag_73\n      jump\t// in\n    tag_70:\n      mload(0x40)\n      tag_74\n      swap2\n      swap1\n      tag_38\n      jump\t// in\n    tag_74:\n      mload(0x40)\n      dup1\n      swap2\n      sub\n      swap1\n      return\n        /* \"USDCp.sol\":525:546  address public bridge */\n    tag_16:\n      tag_75\n      tag_76\n      jump\t// in\n    tag_75:\n      mload(0x40)\n      tag_77\n      swap2\n      swap1\n      tag_59\n      jump\t// in\n    tag_77:\n      mload(0x40)\n      dup1\n      swap2\n      sub\n      swap1\n      return\n        /* \"USDCp.sol\":4136:4317  function transferOwnership(address newOwner) external onlyOwner {... */\n    tag_17:\n      tag_78\n      0x04\n      dup1\n      calldatasize\n      sub\n      dup2\n      add\n      swap1\n      tag_79\n      swap2\n      swap1\n      tag_53\n      jump\t// in\n    tag_79:\n      tag_80\n      jump\t// in\n    tag_78:\n      stop\n        /* \"USDCp.sol\":210:264  string public constant name = \"Bridged USDC (Private)\" */\n    tag_22:\n      mload(0x40)\n      dup1\n      0x40\n      add\n      0x40\n      mstore\n      dup1\n      0x16\n      dup2\n      mstore\n      0x20\n      add\n      0x4272696467656420555344432028507269766174652900000000000000000000\n      dup2\n      mstore\n      pop\n      dup2\n      jump\t// out\n        /* \"USDCp.sol\":1764:1967  function approve(address spender, uint256 amount) external returns (bool) {... */\n    tag_28:\n        /* \"USDCp.sol\":1832:1836  bool */\n      0x00\n        /* \"USDCp.sol\":1881:1887  amount */\n      dup2\n        /* \"USDCp.sol\":1848:1857  allowance */\n      0x02\n        /* \"USDCp.sol\":1848:1869  allowance[msg.sender] */\n      0x00\n        /* \"USDCp.sol\":1858:1868  msg.sender */\n      caller\n        /* \"USDCp.sol\":1848:1869  allowance[msg.sender] */\n      0xffffffffffffffffffffffffffffffffffffffff\n      and\n      0xffffffffffffffffffffffffffffffffffffffff\n      and\n      dup2\n      mstore\n      0x20\n      add\n      swap1\n      dup2\n      mstore\n      0x20\n      add\n      0x00\n      keccak256\n        /* \"USDCp.sol\":1848:1878  allowance[msg.sender][spender] */\n      0x00\n        /* \"USDCp.sol\":1870:1877  spender */\n      dup6\n        /* \"USDCp.sol\":1848:1878  allowance[msg.sender][spender] */\n      0xffffffffffffffffffffffffffffffffffffffff\n      and\n      0xffffffffffffffffffffffffffffffffffffffff\n      and\n      dup2\n      mstore\n      0x20\n      add\n      swap1\n      dup2\n      mstore\n      0x20\n      add\n      0x00\n      keccak256\n        /* \"USDCp.sol\":1848:1887  allowance[msg.sender][spender] = amount */\n      dup2\n      swap1\n      sstore\n      pop\n        /* \"USDCp.sol\":1923:1930  spender */\n      dup3\n        /* \"USDCp.sol\":1902:1939  Approval(msg.sender, spender, amount) */\n      0xffffffffffffffffffffffffffffffffffffffff\n      and\n        /* \"USDCp.sol\":1911:1921  msg.sender */\n      caller\n        /* \"USDCp.sol\":1902:1939  Approval(msg.sender, spender, amount) */\n      0xffffffffffffffffffffffffffffffffffffffff\n      and\n      0x8c5be1e5ebec7d5bd14f71427d1e84f3dd0314c0f7b2291e5b200ac8c7c3b925\n        /* \"USDCp.sol\":1932:1938  amount */\n      dup5\n        /* \"USDCp.sol\":1902:1939  Approval(msg.sender, spender, amount) */\n      mload(0x40)\n      tag_82\n      swap2\n      swap1\n      tag_38\n      jump\t// in\n    tag_82:\n      mload(0x40)\n      dup1\n      swap2\n      sub\n      swap1\n      log3\n        /* \"USDCp.sol\":1956:1960  true */\n      0x01\n        /* \"USDCp.sol\":1949:1960  return true */\n      swap1\n      pop\n        /* \"USDCp.sol\":1764:1967  function approve(address spender, uint256 amount) external returns (bool) {... */\n      swap3\n      swap2\n      pop\n      pop\n      jump\t// out\n        /* \"USDCp.sol\":3454:3853  function burn(address from, uint256 amount, bytes32 withdrawId) external onlyBridge {... */\n    tag_34:\n        /* \"USDCp.sol\":1048:1054  bridge */\n      0x03\n      0x00\n      swap1\n      sload\n      swap1\n      0x0100\n      exp\n      swap1\n      div\n      0xffffffffffffffffffffffffffffffffffffffff\n      and\n        /* \"USDCp.sol\":1034:1054  msg.sender == bridge */\n      0xffffffffffffffffffffffffffffffffffffffff\n      and\n        /* \"USDCp.sol\":1034:1044  msg.sender */\n      caller\n        /* \"USDCp.sol\":1034:1054  msg.sender == bridge */\n      0xffffffffffffffffffffffffffffffffffffffff\n      and\n      eq\n        /* \"USDCp.sol\":1026:1090  require(msg.sender == bridge, \"USDCp: caller is not the bridge\") */\n      tag_84\n      jumpi\n      mload(0x40)\n      0x08c379a000000000000000000000000000000000000000000000000000000000\n      dup2\n      mstore\n      0x04\n      add\n      tag_85\n      swap1\n      tag_86\n      jump\t// in\n    tag_85:\n      mload(0x40)\n      dup1\n      swap2\n      sub\n      swap1\n      revert\n    tag_84:\n        /* \"USDCp.sol\":3575:3581  amount */\n      dup2\n        /* \"USDCp.sol\":3556:3565  balanceOf */\n      0x01\n        /* \"USDCp.sol\":3556:3571  balanceOf[from] */\n      0x00\n        /* \"USDCp.sol\":3566:3570  from */\n      dup6\n        /* \"USDCp.sol\":3556:3571  balanceOf[from] */\n      0xffffffffffffffffffffffffffffffffffffffff\n      and\n      0xffffffffffffffffffffffffffffffffffffffff\n      and\n      dup2\n      mstore\n      0x20\n      add\n      swap1\n      dup2\n      mstore\n      0x20\n      add\n      0x00\n      keccak256\n      sload\n        /* \"USDCp.sol\":3556:3581  balanceOf[from] >= amount */\n      lt\n      iszero\n        /* \"USDCp.sol\":3548:3621  require(balanceOf[from] >= amount, \"USDCp: insufficient balance to burn\") */\n      tag_88\n      jumpi\n      mload(0x40)\n      0x08c379a000000000000000000000000000000000000000000000000000000000\n      dup2\n      mstore\n      0x04\n      add\n      tag_89\n      swap1\n      tag_90\n      jump\t// in\n    tag_89:\n      mload(0x40)\n      dup1\n      swap2\n      sub\n      swap1\n      revert\n    tag_88:\n        /* \"USDCp.sol\":3648:3649  0 */\n      0x00\n        /* \"USDCp.sol\":3639:3645  amount */\n      dup3\n        /* \"USDCp.sol\":3639:3649  amount > 0 */\n      gt\n        /* \"USDCp.sol\":3631:3684  require(amount > 0, \"USDCp: burn amount must be > 0\") */\n      tag_91\n      jumpi\n      mload(0x40)\n      0x08c379a000000000000000000000000000000000000000000000000000000000\n      dup2\n      mstore\n      0x04\n      add\n      tag_92\n      swap1\n      tag_93\n      jump\t// in\n    tag_92:\n      mload(0x40)\n      dup1\n      swap2\n      sub\n      swap1\n      revert\n    tag_91:\n        /* \"USDCp.sol\":3714:3720  amount */\n      dup2\n        /* \"USDCp.sol\":3695:3704  balanceOf */\n      0x01\n        /* \"USDCp.sol\":3695:3710  balanceOf[from] */\n      0x00\n        /* \"USDCp.sol\":3705:3709  from */\n      dup6\n        /* \"USDCp.sol\":3695:3710  balanceOf[from] */\n      0xffffffffffffffffffffffffffffffffffffffff\n      and\n      0xffffffffffffffffffffffffffffffffffffffff\n      and\n      dup2\n      mstore\n      0x20\n      add\n      swap1\n      dup2\n      mstore\n      0x20\n      add\n      0x00\n      keccak256\n      0x00\n        /* \"USDCp.sol\":3695:3720  balanceOf[from] -= amount */\n      dup3\n      dup3\n      sload\n      tag_94\n      swap2\n      swap1\n      tag_95\n      jump\t// in\n    tag_94:\n      swap3\n      pop\n      pop\n      dup2\n      swap1\n      sstore\n      pop\n        /* \"USDCp.sol\":3745:3751  amount */\n      dup2\n        /* \"USDCp.sol\":3730:3741  totalSupply */\n      0x00\n      dup1\n        /* \"USDCp.sol\":3730:3751  totalSupply -= amount */\n      dup3\n      dup3\n      sload\n      tag_96\n      swap2\n      swap1\n      tag_95\n      jump\t// in\n    tag_96:\n      swap3\n      pop\n      pop\n      dup2\n      swap1\n      sstore\n      pop\n        /* \"USDCp.sol\":3790:3791  0 */\n      0x00\n        /* \"USDCp.sol\":3767:3801  Transfer(from, address(0), amount) */\n      0xffffffffffffffffffffffffffffffffffffffff\n      and\n        /* \"USDCp.sol\":3776:3780  from */\n      dup4\n        /* \"USDCp.sol\":3767:3801  Transfer(from, address(0), amount) */\n      0xffffffffffffffffffffffffffffffffffffffff\n      and\n      0xddf252ad1be2c89b69c2b068fc378daa952ba7f163c4a11628f55a4df523b3ef\n        /* \"USDCp.sol\":3794:3800  amount */\n      dup5\n        /* \"USDCp.sol\":3767:3801  Transfer(from, address(0), amount) */\n      mload(0x40)\n      tag_97\n      swap2\n      swap1\n      tag_38\n      jump\t// in\n    tag_97:\n      mload(0x40)\n      dup1\n      swap2\n      sub\n      swap1\n      log3\n        /* \"USDCp.sol\":3835:3845  withdrawId */\n      dup1\n        /* \"USDCp.sol\":3821:3825  from */\n      dup4\n        /* \"USDCp.sol\":3816:3846  Burn(from, amount, withdrawId) */\n      0xffffffffffffffffffffffffffffffffffffffff\n      and\n      0xc6c4132f6250531f66c30d176444d900432e0ff7bb9e3e4ef8c8b33670218419\n        /* \"USDCp.sol\":3827:3833  amount */\n      dup5\n        /* \"USDCp.sol\":3816:3846  Burn(from, amount, withdrawId) */\n      mload(0x40)\n      tag_98\n      swap2\n      swap1\n      tag_38\n      jump\t// in\n    tag_98:\n      mload(0x40)\n      dup1\n      swap2\n      sub\n      swap1\n      log3\n        /* \"USDCp.sol\":3454:3853  function burn(address from, uint256 amount, bytes32 withdrawId) external onlyBridge {... */\n      pop\n      pop\n      pop\n      jump\t// out\n        /* \"USDCp.sol\":372:398  uint256 public totalSupply */\n    tag_36:\n      sload(0x00)\n      dup2\n      jump\t// out\n        /* \"USDCp.sol\":2823:3195  function mint(address to, uint256 amount, bytes32 depositId) external onlyBridge {... */\n    tag_41:\n        /* \"USDCp.sol\":1048:1054  bridge */\n      0x03\n      0x00\n      swap1\n      sload\n      swap1\n      0x0100\n      exp\n      swap1\n      div\n      0xffffffffffffffffffffffffffffffffffffffff\n      and\n        /* \"USDCp.sol\":1034:1054  msg.sender == bridge */\n      0xffffffffffffffffffffffffffffffffffffffff\n      and\n        /* \"USDCp.sol\":1034:1044  msg.sender */\n      caller\n        /* \"USDCp.sol\":1034:1054  msg.sender == bridge */\n      0xffffffffffffffffffffffffffffffffffffffff\n      and\n      eq\n        /* \"USDCp.sol\":1026:1090  require(msg.sender == bridge, \"USDCp: caller is not the bridge\") */\n      tag_100\n      jumpi\n      mload(0x40)\n      0x08c379a000000000000000000000000000000000000000000000000000000000\n      dup2\n      mstore\n      0x04\n      add\n      tag_101\n      swap1\n      tag_86\n      jump\t// in\n    tag_101:\n      mload(0x40)\n      dup1\n      swap2\n      sub\n      swap1\n      revert\n    tag_100:\n        /* \"USDCp.sol\":2936:2937  0 */\n      0x00\n        /* \"USDCp.sol\":2922:2938  to != address(0) */\n      0xffffffffffffffffffffffffffffffffffffffff\n      and\n        /* \"USDCp.sol\":2922:2924  to */\n      dup4\n        /* \"USDCp.sol\":2922:2938  to != address(0) */\n      0xffffffffffffffffffffffffffffffffffffffff\n      and\n      eq\n      iszero\n        /* \"USDCp.sol\":2914:2970  require(to != address(0), \"USDCp: mint to zero address\") */\n      tag_103\n      jumpi\n      mload(0x40)\n      0x08c379a000000000000000000000000000000000000000000000000000000000\n      dup2\n      mstore\n      0x04\n      add\n      tag_104\n      swap1\n      tag_105\n      jump\t// in\n    tag_104:\n      mload(0x40)\n      dup1\n      swap2\n      sub\n      swap1\n      revert\n    tag_103:\n        /* \"USDCp.sol\":2997:2998  0 */\n      0x00\n        /* \"USDCp.sol\":2988:2994  amount */\n      dup3\n        /* \"USDCp.sol\":2988:2998  amount > 0 */\n      gt\n        /* \"USDCp.sol\":2980:3033  require(amount > 0, \"USDCp: mint amount must be > 0\") */\n      tag_106\n      jumpi\n      mload(0x40)\n      0x08c379a000000000000000000000000000000000000000000000000000000000\n      dup2\n      mstore\n      0x04\n      add\n      tag_107\n      swap1\n      tag_108\n      jump\t// in\n    tag_107:\n      mload(0x40)\n      dup1\n      swap2\n      sub\n      swap1\n      revert\n    tag_106:\n        /* \"USDCp.sol\":3059:3065  amount */\n      dup2\n        /* \"USDCp.sol\":3044:3055  totalSupply */\n      0x00\n      dup1\n        /* \"USDCp.sol\":3044:3065  totalSupply += amount */\n      dup3\n      dup3\n      sload\n      tag_109\n      swap2\n      swap1\n      tag_110\n      jump\t// in\n    tag_109:\n      swap3\n      pop\n      pop\n      dup2\n      swap1\n      sstore\n      pop\n        /* \"USDCp.sol\":3092:3098  amount */\n      dup2\n        /* \"USDCp.sol\":3075:3084  balanceOf */\n      0x01\n        /* \"USDCp.sol\":3075:3088  balanceOf[to] */\n      0x00\n        /* \"USDCp.sol\":3085:3087  to */\n      dup6\n        /* \"USDCp.sol\":3075:3088  balanceOf[to] */\n      0xffffffffffffffffffffffffffffffffffffffff\n      and\n      0xffffffffffffffffffffffffffffffffffffffff\n      and\n      dup2\n      mstore\n      0x20\n      add\n      swap1\n      dup2\n      mstore\n      0x20\n      add\n      0x00\n      keccak256\n      0x00\n        /* \"USDCp.sol\":3075:3098  balanceOf[to] += amount */\n      dup3\n      dup3\n      sload\n      tag_111\n      swap2\n      swap1\n      tag_110\n      jump\t// in\n    tag_111:\n      swap3\n      pop\n      pop\n      dup2\n      swap1\n      sstore\n      pop\n        /* \"USDCp.sol\":3135:3137  to */\n      dup3\n        /* \"USDCp.sol\":3114:3146  Transfer(address(0), to, amount) */\n      0xffffffffffffffffffffffffffffffffffffffff\n      and\n        /* \"USDCp.sol\":3131:3132  0 */\n      0x00\n        /* \"USDCp.sol\":3114:3146  Transfer(address(0), to, amount) */\n      0xffffffffffffffffffffffffffffffffffffffff\n      and\n      0xddf252ad1be2c89b69c2b068fc378daa952ba7f163c4a11628f55a4df523b3ef\n        /* \"USDCp.sol\":3139:3145  amount */\n      dup5\n        /* \"USDCp.sol\":3114:3146  Transfer(address(0), to, amount) */\n      mload(0x40)\n      tag_112\n      swap2\n      swap1\n      tag_38\n      jump\t// in\n    tag_112:\n      mload(0x40)\n      dup1\n      swap2\n      sub\n      swap1\n      log3\n        /* \"USDCp.sol\":3178:3187  depositId */\n      dup1\n        /* \"USDCp.sol\":3166:3168  to */\n      dup4\n        /* \"USDCp.sol\":3161:3188  Mint(to, amount, depositId) */\n      0xffffffffffffffffffffffffffffffffffffffff\n      and\n      0x3dec94b8abc8f801eaade1616d3aadd3114b556a284267905e0a053b2df39892\n        /* \"USDCp.sol\":3170:3176  amount */\n      dup5\n        /* \"USDCp.sol\":3161:3188  Mint(to, amount, depositId) */\n      mload(0x40)\n      tag_113\n      swap2\n      swap1\n      tag_38\n      jump\t// in\n    tag_113:\n      mload(0x40)\n      dup1\n      swap2\n      sub\n      swap1\n      log3\n        /* \"USDCp.sol\":2823:3195  function mint(address to, uint256 amount, bytes32 depositId) external onlyBridge {... */\n      pop\n      pop\n      pop\n      jump\t// out\n        /* \"USDCp.sol\":1973:2481  function transferFrom(address from, address to, uint256 amount) external returns (bool) {... */\n    tag_45:\n        /* \"USDCp.sol\":2055:2059  bool */\n      0x00\n        /* \"USDCp.sol\":2093:2094  0 */\n      dup1\n        /* \"USDCp.sol\":2079:2095  to != address(0) */\n      0xffffffffffffffffffffffffffffffffffffffff\n      and\n        /* \"USDCp.sol\":2079:2081  to */\n      dup4\n        /* \"USDCp.sol\":2079:2095  to != address(0) */\n      0xffffffffffffffffffffffffffffffffffffffff\n      and\n      eq\n      iszero\n        /* \"USDCp.sol\":2071:2131  require(to != address(0), \"USDCp: transfer to zero address\") */\n      tag_115\n      jumpi\n      mload(0x40)\n      0x08c379a000000000000000000000000000000000000000000000000000000000\n      dup2\n      mstore\n      0x04\n      add\n      tag_116\n      swap1\n      tag_117\n      jump\t// in\n    tag_116:\n      mload(0x40)\n      dup1\n      swap2\n      sub\n      swap1\n      revert\n    tag_115:\n        /* \"USDCp.sol\":2168:2174  amount */\n      dup2\n        /* \"USDCp.sol\":2149:2158  balanceOf */\n      0x01\n        /* \"USDCp.sol\":2149:2164  balanceOf[from] */\n      0x00\n        /* \"USDCp.sol\":2159:2163  from */\n      dup7\n        /* \"USDCp.sol\":2149:2164  balanceOf[from] */\n      0xffffffffffffffffffffffffffffffffffffffff\n      and\n      0xffffffffffffffffffffffffffffffffffffffff\n      and\n      dup2\n      mstore\n      0x20\n      add\n      swap1\n      dup2\n      mstore\n      0x20\n      add\n      0x00\n      keccak256\n      sload\n        /* \"USDCp.sol\":2149:2174  balanceOf[from] >= amount */\n      lt\n      iszero\n        /* \"USDCp.sol\":2141:2206  require(balanceOf[from] >= amount, \"USDCp: insufficient balance\") */\n      tag_118\n      jumpi\n      mload(0x40)\n      0x08c379a000000000000000000000000000000000000000000000000000000000\n      dup2\n      mstore\n      0x04\n      add\n      tag_119\n      swap1\n      tag_120\n      jump\t// in\n    tag_119:\n      mload(0x40)\n      dup1\n      swap2\n      sub\n      swap1\n      revert\n    tag_118:\n        /* \"USDCp.sol\":2255:2261  amount */\n      dup2\n        /* \"USDCp.sol\":2224:2233  allowance */\n      0x02\n        /* \"USDCp.sol\":2224:2239  allowance[from] */\n      0x00\n        /* \"USDCp.sol\":2234:2238  from */\n      dup7\n        /* \"USDCp.sol\":2224:2239  allowance[from] */\n      0xffffffffffffffffffffffffffffffffffffffff\n      and\n      0xffffffffffffffffffffffffffffffffffffffff\n      and\n      dup2\n      mstore\n      0x20\n      add\n      swap1\n      dup2\n      mstore\n      0x20\n      add\n      0x00\n      keccak256\n        /* \"USDCp.sol\":2224:2251  allowance[from][msg.sender] */\n      0x00\n        /* \"USDCp.sol\":2240:2250  msg.sender */\n      caller\n        /* \"USDCp.sol\":2224:2251  allowance[from][msg.sender] */\n      0xffffffffffffffffffffffffffffffffffffffff\n      and\n      0xffffffffffffffffffffffffffffffffffffffff\n      and\n      dup2\n      mstore\n      0x20\n      add\n      swap1\n      dup2\n      mstore\n      0x20\n      add\n      0x00\n      keccak256\n      sload\n        /* \"USDCp.sol\":2224:2261  allowance[from][msg.sender] >= amount */\n      lt\n      iszero\n        /* \"USDCp.sol\":2216:2295  require(allowance[from][msg.sender] >= amount, \"USDCp: insufficient allowance\") */\n      tag_121\n      jumpi\n      mload(0x40)\n      0x08c379a000000000000000000000000000000000000000000000000000000000\n      dup2\n      mstore\n      0x04\n      add\n      tag_122\n      swap1\n      tag_123\n      jump\t// in\n    tag_122:\n      mload(0x40)\n      dup1\n      swap2\n      sub\n      swap1\n      revert\n    tag_121:\n        /* \"USDCp.sol\":2337:2343  amount */\n      dup2\n        /* \"USDCp.sol\":2306:2315  allowance */\n      0x02\n        /* \"USDCp.sol\":2306:2321  allowance[from] */\n      0x00\n        /* \"USDCp.sol\":2316:2320  from */\n      dup7\n        /* \"USDCp.sol\":2306:2321  allowance[from] */\n      0xffffffffffffffffffffffffffffffffffffffff\n      and\n      0xffffffffffffffffffffffffffffffffffffffff\n      and\n      dup2\n      mstore\n      0x20\n      add\n      swap1\n      dup2\n      mstore\n      0x20\n      add\n      0x00\n      keccak256\n        /* \"USDCp.sol\":2306:2333  allowance[from][msg.sender] */\n      0x00\n        /* \"USDCp.sol\":2322:2332  msg.sender */\n      caller\n        /* \"USDCp.sol\":2306:2333  allowance[from][msg.sender] */\n      0xffffffffffffffffffffffffffffffffffffffff\n      and\n      0xffffffffffffffffffffffffffffffffffffffff\n      and\n      dup2\n      mstore\n      0x20\n      add\n      swap1\n      dup2\n      mstore\n      0x20\n      add\n      0x00\n      keccak256\n      0x00\n        /* \"USDCp.sol\":2306:2343  allowance[from][msg.sender] -= amount */\n      dup3\n      dup3\n      sload\n      tag_124\n      swap2\n      swap1\n      tag_95\n      jump\t// in\n    tag_124:\n      swap3\n      pop\n      pop\n      dup2\n      swap1\n      sstore\n      pop\n        /* \"USDCp.sol\":2372:2378  amount */\n      dup2\n        /* \"USDCp.sol\":2353:2362  balanceOf */\n      0x01\n        /* \"USDCp.sol\":2353:2368  balanceOf[from] */\n      0x00\n        /* \"USDCp.sol\":2363:2367  from */\n      dup7\n        /* \"USDCp.sol\":2353:2368  balanceOf[from] */\n      0xffffffffffffffffffffffffffffffffffffffff\n      and\n      0xffffffffffffffffffffffffffffffffffffffff\n      and\n      dup2\n      mstore\n      0x20\n      add\n      swap1\n      dup2\n      mstore\n      0x20\n      add\n      0x00\n      keccak256\n      0x00\n        /* \"USDCp.sol\":2353:2378  balanceOf[from] -= amount */\n      dup3\n      dup3\n      sload\n      tag_125\n      swap2\n      swap1\n      tag_95\n      jump\t// in\n    tag_125:\n      swap3\n      pop\n      pop\n      dup2\n      swap1\n      sstore\n      pop\n        /* \"USDCp.sol\":2405:2411  amount */\n      dup2\n        /* \"USDCp.sol\":2388:2397  balanceOf */\n      0x01\n        /* \"USDCp.sol\":2388:2401  balanceOf[to] */\n      0x00\n        /* \"USDCp.sol\":2398:2400  to */\n      dup6\n        /* \"USDCp.sol\":2388:2401  balanceOf[to] */\n      0xffffffffffffffffffffffffffffffffffffffff\n      and\n      0xffffffffffffffffffffffffffffffffffffffff\n      and\n      dup2\n      mstore\n      0x20\n      add\n      swap1\n      dup2\n      mstore\n      0x20\n      add\n      0x00\n      keccak256\n      0x00\n        /* \"USDCp.sol\":2388:2411  balanceOf[to] += amount */\n      dup3\n      dup3\n      sload\n      tag_126\n      swap2\n      swap1\n      tag_110\n      jump\t// in\n    tag_126:\n      swap3\n      pop\n      pop\n      dup2\n      swap1\n      sstore\n      pop\n        /* \"USDCp.sol\":2442:2444  to */\n      dup3\n        /* \"USDCp.sol\":2427:2453  Transfer(from, to, amount) */\n      0xffffffffffffffffffffffffffffffffffffffff\n      and\n        /* \"USDCp.sol\":2436:2440  from */\n      dup5\n        /* \"USDCp.sol\":2427:2453  Transfer(from, to, amount) */\n      0xffffffffffffffffffffffffffffffffffffffff\n      and\n      0xddf252ad1be2c89b69c2b068fc378daa952ba7f163c4a11628f55a4df523b3ef\n        /* \"USDCp.sol\":2446:2452  amount */\n      dup5\n        /* \"USDCp.sol\":2427:2453  Transfer(from, to, amount) */\n      mload(0x40)\n      tag_127\n      swap2\n      swap1\n      tag_38\n      jump\t// in\n    tag_127:\n      mload(0x40)\n      dup1\n      swap2\n      sub\n      swap1\n      log3\n        /* \"USDCp.sol\":2470:2474  true */\n      0x01\n        /* \"USDCp.sol\":2463:2474  return true */\n      swap1\n      pop\n        /* \"USDCp.sol\":1973:2481  function transferFrom(address from, address to, uint256 amount) external returns (bool) {... */\n      swap4\n      swap3\n      pop\n      pop\n      pop\n      jump\t// out\n        /* \"USDCp.sol\":315:349  uint8 public constant decimals = 6 */\n    tag_48:\n        /* \"USDCp.sol\":348:349  6 */\n      0x06\n        /* \"USDCp.sol\":315:349  uint8 public constant decimals = 6 */\n      dup2\n      jump\t// out\n        /* \"USDCp.sol\":404:448  mapping(address => uint256) public balanceOf */\n    tag_54:\n      mstore(0x20, 0x01)\n      dup1\n      0x00\n      mstore\n      keccak256(0x00, 0x40)\n      0x00\n      swap2\n      pop\n      swap1\n      pop\n      sload\n      dup2\n      jump\t// out\n        /* \"USDCp.sol\":552:572  address public owner */\n    tag_57:\n      0x04\n      0x00\n      swap1\n      sload\n      swap1\n      0x0100\n      exp\n      swap1\n      div\n      0xffffffffffffffffffffffffffffffffffffffff\n      and\n      dup2\n      jump\t// out\n        /* \"USDCp.sol\":3909:4130  function setBridge(address newBridge) external onlyOwner {... */\n    tag_62:\n        /* \"USDCp.sol\":1167:1172  owner */\n      0x04\n      0x00\n      swap1\n      sload\n      swap1\n      0x0100\n      exp\n      swap1\n      div\n      0xffffffffffffffffffffffffffffffffffffffff\n      and\n        /* \"USDCp.sol\":1153:1172  msg.sender == owner */\n      0xffffffffffffffffffffffffffffffffffffffff\n      and\n        /* \"USDCp.sol\":1153:1163  msg.sender */\n      caller\n        /* \"USDCp.sol\":1153:1172  msg.sender == owner */\n      0xffffffffffffffffffffffffffffffffffffffff\n      and\n      eq\n        /* \"USDCp.sol\":1145:1207  require(msg.sender == owner, \"USDCp: caller is not the owner\") */\n      tag_129\n      jumpi\n      mload(0x40)\n      0x08c379a000000000000000000000000000000000000000000000000000000000\n      dup2\n      mstore\n      0x04\n      add\n      tag_130\n      swap1\n      tag_131\n      jump\t// in\n    tag_130:\n      mload(0x40)\n      dup1\n      swap2\n      sub\n      swap1\n      revert\n    tag_129:\n        /* \"USDCp.sol\":4005:4006  0 */\n      0x00\n        /* \"USDCp.sol\":3984:4007  newBridge != address(0) */\n      0xffffffffffffffffffffffffffffffffffffffff\n      and\n        /* \"USDCp.sol\":3984:3993  newBridge */\n      dup2\n        /* \"USDCp.sol\":3984:4007  newBridge != address(0) */\n      0xffffffffffffffffffffffffffffffffffffffff\n      and\n      eq\n      iszero\n        /* \"USDCp.sol\":3976:4048  require(newBridge != address(0), \"USDCp: bridge cannot be zero address\") */\n      tag_133\n      jumpi\n      mload(0x40)\n      0x08c379a000000000000000000000000000000000000000000000000000000000\n      dup2\n      mstore\n      0x04\n      add\n      tag_134\n      swap1\n      tag_135\n      jump\t// in\n    tag_134:\n      mload(0x40)\n      dup1\n      swap2\n      sub\n      swap1\n      revert\n    tag_133:\n        /* \"USDCp.sol\":4085:4094  newBridge */\n      dup1\n        /* \"USDCp.sol\":4063:4095  BridgeUpdated(bridge, newBridge) */\n      0xffffffffffffffffffffffffffffffffffffffff\n      and\n        /* \"USDCp.sol\":4077:4083  bridge */\n      0x03\n      0x00\n      swap1\n      sload\n      swap1\n      0x0100\n      exp\n      swap1\n      div\n      0xffffffffffffffffffffffffffffffffffffffff\n      and\n        /* \"USDCp.sol\":4063:4095  BridgeUpdated(bridge, newBridge) */\n      0xffffffffffffffffffffffffffffffffffffffff\n      and\n      0xaae9beddccf584528e87b66c6ff2563825c8a1433305b8a656e9b5f9bf390499\n      mload(0x40)\n      mload(0x40)\n      dup1\n      swap2\n      sub\n      swap1\n      log3\n        /* \"USDCp.sol\":4114:4123  newBridge */\n      dup1\n        /* \"USDCp.sol\":4105:4111  bridge */\n      0x03\n      0x00\n        /* \"USDCp.sol\":4105:4123  bridge = newBridge */\n      0x0100\n      exp\n      dup2\n      sload\n      dup2\n      0xffffffffffffffffffffffffffffffffffffffff\n      mul\n      not\n      and\n      swap1\n      dup4\n      0xffffffffffffffffffffffffffffffffffffffff\n      and\n      mul\n      or\n      swap1\n      sstore\n      pop\n        /* \"USDCp.sol\":3909:4130  function setBridge(address newBridge) external onlyOwner {... */\n      pop\n      jump\t// out\n        /* \"USDCp.sol\":270:309  string public constant symbol = \"USDCp\" */\n    tag_64:\n      mload(0x40)\n      dup1\n      0x40\n      add\n      0x40\n      mstore\n      dup1\n      0x05\n      dup2\n      mstore\n      0x20\n      add\n      0x5553444370000000000000000000000000000000000000000000000000000000\n      dup2\n      mstore\n      pop\n      dup2\n      jump\t// out\n        /* \"USDCp.sol\":1386:1758  function transfer(address to, uint256 amount) external returns (bool) {... */\n    tag_68:\n        /* \"USDCp.sol\":1450:1454  bool */\n      0x00\n        /* \"USDCp.sol\":1488:1489  0 */\n      dup1\n        /* \"USDCp.sol\":1474:1490  to != address(0) */\n      0xffffffffffffffffffffffffffffffffffffffff\n      and\n        /* \"USDCp.sol\":1474:1476  to */\n      dup4\n        /* \"USDCp.sol\":1474:1490  to != address(0) */\n      0xffffffffffffffffffffffffffffffffffffffff\n      and\n      eq\n      iszero\n        /* \"USDCp.sol\":1466:1526  require(to != address(0), \"USDCp: transfer to zero address\") */\n      tag_137\n      jumpi\n      mload(0x40)\n      0x08c379a000000000000000000000000000000000000000000000000000000000\n      dup2\n      mstore\n      0x04\n      add\n      tag_138\n      swap1\n      tag_117\n      jump\t// in\n    tag_138:\n      mload(0x40)\n      dup1\n      swap2\n      sub\n      swap1\n      revert\n    tag_137:\n        /* \"USDCp.sol\":1569:1575  amount */\n      dup2\n        /* \"USDCp.sol\":1544:1553  balanceOf */\n      0x01\n        /* \"USDCp.sol\":1544:1565  balanceOf[msg.sender] */\n      0x00\n        /* \"USDCp.sol\":1554:1564  msg.sender */\n      caller\n        /* \"USDCp.sol\":1544:1565  balanceOf[msg.sender] */\n      0xffffffffffffffffffffffffffffffffffffffff\n      and\n      0xffffffffffffffffffffffffffffffffffffffff\n      and\n      dup2\n      mstore\n      0x20\n      add\n      swap1\n      dup2\n      mstore\n      0x20\n      add\n      0x00\n      keccak256\n      sload\n        /* \"USDCp.sol\":1544:1575  balanceOf[msg.sender] >= amount */\n      lt\n      iszero\n        /* \"USDCp.sol\":1536:1607  require(balanceOf[msg.sender] >= amount, \"USDCp: insufficient balance\") */\n      tag_139\n      jumpi\n      mload(0x40)\n      0x08c379a000000000000000000000000000000000000000000000000000000000\n      dup2\n      mstore\n      0x04\n      add\n      tag_140\n      swap1\n      tag_120\n      jump\t// in\n    tag_140:\n      mload(0x40)\n      dup1\n      swap2\n      sub\n      swap1\n      revert\n    tag_139:\n        /* \"USDCp.sol\":1643:1649  amount */\n      dup2\n        /* \"USDCp.sol\":1618:1627  balanceOf */\n      0x01\n        /* \"USDCp.sol\":1618:1639  balanceOf[msg.sender] */\n      0x00\n        /* \"USDCp.sol\":1628:1638  msg.sender */\n      caller\n        /* \"USDCp.sol\":1618:1639  balanceOf[msg.sender] */\n      0xffffffffffffffffffffffffffffffffffffffff\n      and\n      0xffffffffffffffffffffffffffffffffffffffff\n      and\n      dup2\n      mstore\n      0x20\n      add\n      swap1\n      dup2\n      mstore\n      0x20\n      add\n      0x00\n      keccak256\n      0x00\n        /* \"USDCp.sol\":1618:1649  balanceOf[msg.sender] -= amount */\n      dup3\n      dup3\n      sload\n      tag_141\n      swap2\n      swap1\n      tag_95\n      jump\t// in\n    tag_141:\n      swap3\n      pop\n      pop\n      dup2\n      swap1\n      sstore\n      pop\n        /* \"USDCp.sol\":1676:1682  amount */\n      dup2\n        /* \"USDCp.sol\":1659:1668  balanceOf */\n      0x01\n        /* \"USDCp.sol\":1659:1672  balanceOf[to] */\n      0x00\n        /* \"USDCp.sol\":1669:1671  to */\n      dup6\n        /* \"USDCp.sol\":1659:1672  balanceOf[to] */\n      0xffffffffffffffffffffffffffffffffffffffff\n      and\n      0xffffffffffffffffffffffffffffffffffffffff\n      and\n      dup2\n      mstore\n      0x20\n      add\n      swap1\n      dup2\n      mstore\n      0x20\n      add\n      0x00\n      keccak256\n      0x00\n        /* \"USDCp.sol\":1659:1682  balanceOf[to] += amount */\n      dup3\n      dup3\n      sload\n      tag_142\n      swap2\n      swap1\n      tag_110\n      jump\t// in\n    tag_142:\n      swap3\n      pop\n      pop\n      dup2\n      swap1\n      sstore\n      pop\n        /* \"USDCp.sol\":1719:1721  to */\n      dup3\n        /* \"USDCp.sol\":1698:1730  Transfer(msg.sender, to, amount) */\n      0xffffffffffffffffffffffffffffffffffffffff\n      and\n        /* \"USDCp.sol\":1707:1717  msg.sender */\n      caller\n        /* \"USDCp.sol\":1698:1730  Transfer(msg.sender, to, amount) */\n      0xffffffffffffffffffffffffffffffffffffffff\n      and\n      0xddf252ad1be2c89b69c2b068fc378daa952ba7f163c4a11628f55a4df523b3ef\n        /* \"USDCp.sol\":1723:1729  amount */\n      dup5\n        /* \"USDCp.sol\":1698:1730  Transfer(msg.sender, to, amount) */\n      mload(0x40)\n      tag_143\n      swap2\n      swap1\n      tag_38\n      jump\t// in\n    tag_143:\n      mload(0x40)\n      dup1\n      swap2\n      sub\n      swap1\n      log3\n        /* \"USDCp.sol\":1747:1751  true */\n      0x01\n        /* \"USDCp.sol\":1740:1751  return true */\n      swap1\n      pop\n        /* \"USDCp.sol\":1386:1758  function transfer(address to, uint256 amount) external returns (bool) {... */\n      swap3\n      swap2\n      pop\n      pop\n      jump\t// out\n        /* \"USDCp.sol\":454:518  mapping(address => mapping(address => uint256)) public allowance */\n    tag_73:\n      mstore(0x20, 0x02)\n      dup2\n      0x00\n      mstore\n      mstore(0x20, keccak256(0x00, 0x40))\n      dup1\n      0x00\n      mstore\n      keccak256(0x00, 0x40)\n      0x00\n      swap2\n      pop\n      swap2\n      pop\n      pop\n      sload\n      dup2\n      jump\t// out\n        /* \"USDCp.sol\":525:546  address public bridge */\n    tag_76:\n      0x03\n      0x00\n      swap1\n      sload\n      swap1\n      0x0100\n      exp\n      swap1\n      div\n      0xffffffffffffffffffffffffffffffffffffffff\n      and\n      dup2\n      jump\t// out\n        /* \"USDCp.sol\":4136:4317  function transferOwnership(address newOwner) external onlyOwner {... */\n    tag_80:\n        /* \"USDCp.sol\":1167:1172  owner */\n      0x04\n      0x00\n      swap1\n      sload\n      swap1\n      0x0100\n      exp\n      swap1\n      div\n      0xffffffffffffffffffffffffffffffffffffffff\n      and\n        /* \"USDCp.sol\":1153:1172  msg.sender == owner */\n      0xffffffffffffffffffffffffffffffffffffffff\n      and\n        /* \"USDCp.sol\":1153:1163  msg.sender */\n      caller\n        /* \"USDCp.sol\":1153:1172  msg.sender == owner */\n      0xffffffffffffffffffffffffffffffffffffffff\n      and\n      eq\n        /* \"USDCp.sol\":1145:1207  require(msg.sender == owner, \"USDCp: caller is not the owner\") */\n      tag_145\n      jumpi\n      mload(0x40)\n      0x08c379a000000000000000000000000000000000000000000000000000000000\n      dup2\n      mstore\n      0x04\n      add\n      tag_146\n      swap1\n      tag_131\n      jump\t// in\n    tag_146:\n      mload(0x40)\n      dup1\n      swap2\n      sub\n      swap1\n      revert\n    tag_145:\n        /* \"USDCp.sol\":4238:4239  0 */\n      0x00\n        /* \"USDCp.sol\":4218:4240  newOwner != address(0) */\n      0xffffffffffffffffffffffffffffffffffffffff\n      and\n        /* \"USDCp.sol\":4218:4226  newOwner */\n      dup2\n        /* \"USDCp.sol\":4218:4240  newOwner != address(0) */\n      0xffffffffffffffffffffffffffffffffffffffff\n      and\n      eq\n      iszero\n        /* \"USDCp.sol\":4210:4284  require(newOwner != address(0), \"USDCp: new owner cannot be zero address\") */\n      tag_148\n      jumpi\n      mload(0x40)\n      0x08c379a000000000000000000000000000000000000000000000000000000000\n      dup2\n      mstore\n      0x04\n      add\n      tag_149\n      swap1\n      tag_150\n      jump\t// in\n    tag_149:\n      mload(0x40)\n      dup1\n      swap2\n      sub\n      swap1\n      revert\n    tag_148:\n        /* \"USDCp.sol\":4302:4310  newOwner */\n      dup1\n        /* \"USDCp.sol\":4294:4299  owner */\n      0x04\n      0x00\n        /* \"USDCp.sol\":4294:4310  owner = newOwner */\n      0x0100\n      exp\n      dup2\n      sload\n      dup2\n      0xffffffffffffffffffffffffffffffffffffffff\n      mul\n      not\n      and\n      swap1\n      dup4\n      0xffffffffffffffffffffffffffffffffffffffff\n      and\n      mul\n      or\n      swap1\n      sstore\n      pop\n        /* \"USDCp.sol\":4136:4317  function transferOwnership(address newOwner) external onlyOwner {... */\n      pop\n      jump\t// out\n        /* \"#utility.yul\":7:106   */\n    tag_151:\n        /* \"#utility.yul\":59:65   */\n      0x00\n        /* \"#utility.yul\":93:98   */\n      dup2\n        /* \"#utility.yul\":87:99   */\n      mload\n        /* \"#utility.yul\":77:99   */\n      swap1\n      pop\n        /* \"#utility.yul\":7:106   */\n      swap2\n      swap1\n      pop\n      jump\t// out\n        /* \"#utility.yul\":112:281   */\n    tag_152:\n        /* \"#utility.yul\":196:207   */\n      0x00\n        /* \"#utility.yul\":230:236   */\n      dup3\n        /* \"#utility.yul\":225:228   */\n      dup3\n        /* \"#utility.yul\":218:237   */\n      mstore\n        /* \"#utility.yul\":270:274   */\n      0x20\n        /* \"#utility.yul\":265:268   */\n      dup3\n        /* \"#utility.yul\":261:275   */\n      add\n        /* \"#utility.yul\":246:275   */\n      swap1\n      pop\n        /* \"#utility.yul\":112:281   */\n      swap3\n      swap2\n      pop\n      pop\n      jump\t// out\n        /* \"#utility.yul\":287:594   */\n    tag_153:\n        /* \"#utility.yul\":355:356   */\n      0x00\n        /* \"#utility.yul\":365:478   */\n    tag_202:\n        /* \"#utility.yul\":379:385   */\n      dup4\n        /* \"#utility.yul\":376:377   */\n      dup2\n        /* \"#utility.yul\":373:386   */\n      lt\n        /* \"#utility.yul\":365:478   */\n      iszero\n      tag_204\n      jumpi\n        /* \"#utility.yul\":464:465   */\n      dup1\n        /* \"#utility.yul\":459:462   */\n      dup3\n        /* \"#utility.yul\":455:466   */\n      add\n        /* \"#utility.yul\":449:467   */\n      mload\n        /* \"#utility.yul\":445:446   */\n      dup2\n        /* \"#utility.yul\":440:443   */\n      dup5\n        /* \"#utility.yul\":436:447   */\n      add\n        /* \"#utility.yul\":429:468   */\n      mstore\n        /* \"#utility.yul\":401:403   */\n      0x20\n        /* \"#utility.yul\":398:399   */\n      dup2\n        /* \"#utility.yul\":394:404   */\n      add\n        /* \"#utility.yul\":389:404   */\n      swap1\n      pop\n        /* \"#utility.yul\":365:478   */\n      jump(tag_202)\n    tag_204:\n        /* \"#utility.yul\":496:502   */\n      dup4\n        /* \"#utility.yul\":493:494   */\n      dup2\n        /* \"#utility.yul\":490:503   */\n      gt\n        /* \"#utility.yul\":487:588   */\n      iszero\n      tag_205\n      jumpi\n        /* \"#utility.yul\":576:577   */\n      0x00\n        /* \"#utility.yul\":567:573   */\n      dup5\n        /* \"#utility.yul\":562:565   */\n      dup5\n        /* \"#utility.yul\":558:574   */\n      add\n        /* \"#utility.yul\":551:578   */\n      mstore\n        /* \"#utility.yul\":487:588   */\n    tag_205:\n        /* \"#utility.yul\":336:594   */\n      pop\n        /* \"#utility.yul\":287:594   */\n      pop\n      pop\n      pop\n      jump\t// out\n        /* \"#utility.yul\":600:702   */\n    tag_154:\n        /* \"#utility.yul\":641:647   */\n      0x00\n        /* \"#utility.yul\":692:694   */\n      0x1f\n        /* \"#utility.yul\":688:695   */\n      not\n        /* \"#utility.yul\":683:685   */\n      0x1f\n        /* \"#utility.yul\":676:681   */\n      dup4\n        /* \"#utility.yul\":672:686   */\n      add\n        /* \"#utility.yul\":668:696   */\n      and\n        /* \"#utility.yul\":658:696   */\n      swap1\n      pop\n        /* \"#utility.yul\":600:702   */\n      swap2\n      swap1\n      pop\n      jump\t// out\n        /* \"#utility.yul\":708:1072   */\n    tag_155:\n        /* \"#utility.yul\":796:799   */\n      0x00\n        /* \"#utility.yul\":824:863   */\n      tag_208\n        /* \"#utility.yul\":857:862   */\n      dup3\n        /* \"#utility.yul\":824:863   */\n      tag_151\n      jump\t// in\n    tag_208:\n        /* \"#utility.yul\":879:950   */\n      tag_209\n        /* \"#utility.yul\":943:949   */\n      dup2\n        /* \"#utility.yul\":938:941   */\n      dup6\n        /* \"#utility.yul\":879:950   */\n      tag_152\n      jump\t// in\n    tag_209:\n        /* \"#utility.yul\":872:950   */\n      swap4\n      pop\n        /* \"#utility.yul\":959:1011   */\n      tag_210\n        /* \"#utility.yul\":1004:1010   */\n      dup2\n        /* \"#utility.yul\":999:1002   */\n      dup6\n        /* \"#utility.yul\":992:996   */\n      0x20\n        /* \"#utility.yul\":985:990   */\n      dup7\n        /* \"#utility.yul\":981:997   */\n      add\n        /* \"#utility.yul\":959:1011   */\n      tag_153\n      jump\t// in\n    tag_210:\n        /* \"#utility.yul\":1036:1065   */\n      tag_211\n        /* \"#utility.yul\":1058:1064   */\n      dup2\n        /* \"#utility.yul\":1036:1065   */\n      tag_154\n      jump\t// in\n    tag_211:\n        /* \"#utility.yul\":1031:1034   */\n      dup5\n        /* \"#utility.yul\":1027:1066   */\n      add\n        /* \"#utility.yul\":1020:1066   */\n      swap2\n      pop\n        /* \"#utility.yul\":800:1072   */\n      pop\n        /* \"#utility.yul\":708:1072   */\n      swap3\n      swap2\n      pop\n      pop\n      jump\t// out\n        /* \"#utility.yul\":1078:1391   */\n    tag_24:\n        /* \"#utility.yul\":1191:1195   */\n      0x00\n        /* \"#utility.yul\":1229:1231   */\n      0x20\n        /* \"#utility.yul\":1218:1227   */\n      dup3\n        /* \"#utility.yul\":1214:1232   */\n      add\n        /* \"#utility.yul\":1206:1232   */\n      swap1\n      pop\n        /* \"#utility.yul\":1278:1287   */\n      dup2\n        /* \"#utility.yul\":1272:1276   */\n      dup2\n        /* \"#utility.yul\":1268:1288   */\n      sub\n        /* \"#utility.yul\":1264:1265   */\n      0x00\n        /* \"#utility.yul\":1253:1262   */\n      dup4\n        /* \"#utility.yul\":1249:1266   */\n      add\n        /* \"#utility.yul\":1242:1289   */\n      mstore\n        /* \"#utility.yul\":1306:1384   */\n      tag_213\n        /* \"#utility.yul\":1379:1383   */\n      dup2\n        /* \"#utility.yul\":1370:1376   */\n      dup5\n        /* \"#utility.yul\":1306:1384   */\n      tag_155\n      jump\t// in\n    tag_213:\n        /* \"#utility.yul\":1298:1384   */\n      swap1\n      pop\n        /* \"#utility.yul\":1078:1391   */\n      swap3\n      swap2\n      pop\n      pop\n      jump\t// out\n        /* \"#utility.yul\":1478:1595   */\n    tag_157:\n        /* \"#utility.yul\":1587:1588   */\n      0x00\n        /* \"#utility.yul\":1584:1585   */\n      dup1\n        /* \"#utility.yul\":1577:1589   */\n      revert\n        /* \"#utility.yul\":1724:1850   */\n    tag_159:\n        /* \"#utility.yul\":1761:1768   */\n      0x00\n        /* \"#utility.yul\":1801:1843   */\n      0xffffffffffffffffffffffffffffffffffffffff\n        /* \"#utility.yul\":1794:1799   */\n      dup3\n        /* \"#utility.yul\":1790:1844   */\n      and\n        /* \"#utility.yul\":1779:1844   */\n      swap1\n      pop\n        /* \"#utility.yul\":1724:1850   */\n      swap2\n      swap1\n      pop\n      jump\t// out\n        /* \"#utility.yul\":1856:1952   */\n    tag_160:\n        /* \"#utility.yul\":1893:1900   */\n      0x00\n        /* \"#utility.yul\":1922:1946   */\n      tag_219\n        /* \"#utility.yul\":1940:1945   */\n      dup3\n        /* \"#utility.yul\":1922:1946   */\n      tag_159\n      jump\t// in\n    tag_219:\n        /* \"#utility.yul\":1911:1946   */\n      swap1\n      pop\n        /* \"#utility.yul\":1856:1952   */\n      swap2\n      swap1\n      pop\n      jump\t// out\n        /* \"#utility.yul\":1958:2080   */\n    tag_161:\n        /* \"#utility.yul\":2031:2055   */\n      tag_221\n        /* \"#utility.yul\":2049:2054   */\n      dup2\n        /* \"#utility.yul\":2031:2055   */\n      tag_160\n      jump\t// in\n    tag_221:\n        /* \"#utility.yul\":2024:2029   */\n      dup2\n        /* \"#utility.yul\":2021:2056   */\n      eq\n        /* \"#utility.yul\":2011:2074   */\n      tag_222\n      jumpi\n        /* \"#utility.yul\":2070:2071   */\n      0x00\n        /* \"#utility.yul\":2067:2068   */\n      dup1\n        /* \"#utility.yul\":2060:2072   */\n      revert\n        /* \"#utility.yul\":2011:2074   */\n    tag_222:\n        /* \"#utility.yul\":1958:2080   */\n      pop\n      jump\t// out\n        /* \"#utility.yul\":2086:2225   */\n    tag_162:\n        /* \"#utility.yul\":2132:2137   */\n      0x00\n        /* \"#utility.yul\":2170:2176   */\n      dup2\n        /* \"#utility.yul\":2157:2177   */\n      calldataload\n        /* \"#utility.yul\":2148:2177   */\n      swap1\n      pop\n        /* \"#utility.yul\":2186:2219   */\n      tag_224\n        /* \"#utility.yul\":2213:2218   */\n      dup2\n        /* \"#utility.yul\":2186:2219   */\n      tag_161\n      jump\t// in\n    tag_224:\n        /* \"#utility.yul\":2086:2225   */\n      swap3\n      swap2\n      pop\n      pop\n      jump\t// out\n        /* \"#utility.yul\":2231:2308   */\n    tag_163:\n        /* \"#utility.yul\":2268:2275   */\n      0x00\n        /* \"#utility.yul\":2297:2302   */\n      dup2\n        /* \"#utility.yul\":2286:2302   */\n      swap1\n      pop\n        /* \"#utility.yul\":2231:2308   */\n      swap2\n      swap1\n      pop\n      jump\t// out\n        /* \"#utility.yul\":2314:2436   */\n    tag_164:\n        /* \"#utility.yul\":2387:2411   */\n      tag_227\n        /* \"#utility.yul\":2405:2410   */\n      dup2\n        /* \"#utility.yul\":2387:2411   */\n      tag_163\n      jump\t// in\n    tag_227:\n        /* \"#utility.yul\":2380:2385   */\n      dup2\n        /* \"#utility.yul\":2377:2412   */\n      eq\n        /* \"#utility.yul\":2367:2430   */\n      tag_228\n      jumpi\n        /* \"#utility.yul\":2426:2427   */\n      0x00\n        /* \"#utility.yul\":2423:2424   */\n      dup1\n        /* \"#utility.yul\":2416:2428   */\n      revert\n        /* \"#utility.yul\":2367:2430   */\n    tag_228:\n        /* \"#utility.yul\":2314:2436   */\n      pop\n      jump\t// out\n        /* \"#utility.yul\":2442:2581   */\n    tag_165:\n        /* \"#utility.yul\":2488:2493   */\n      0x00\n        /* \"#utility.yul\":2526:2532   */\n      dup2\n        /* \"#utility.yul\":2513:2533   */\n      calldataload\n        /* \"#utility.yul\":2504:2533   */\n      swap1\n      pop\n        /* \"#utility.yul\":2542:2575   */\n      tag_230\n        /* \"#utility.yul\":2569:2574   */\n      dup2\n        /* \"#utility.yul\":2542:2575   */\n      tag_164\n      jump\t// in\n    tag_230:\n        /* \"#utility.yul\":2442:2581   */\n      swap3\n      swap2\n      pop\n      pop\n      jump\t// out\n        /* \"#utility.yul\":2587:3061   */\n    tag_27:\n        /* \"#utility.yul\":2655:2661   */\n      0x00\n        /* \"#utility.yul\":2663:2669   */\n      dup1\n        /* \"#utility.yul\":2712:2714   */\n      0x40\n        /* \"#utility.yul\":2700:2709   */\n      dup4\n        /* \"#utility.yul\":2691:2698   */\n      dup6\n        /* \"#utility.yul\":2687:2710   */\n      sub\n        /* \"#utility.yul\":2683:2715   */\n      slt\n        /* \"#utility.yul\":2680:2799   */\n      iszero\n      tag_232\n      jumpi\n        /* \"#utility.yul\":2718:2797   */\n      tag_233\n      tag_157\n      jump\t// in\n    tag_233:\n        /* \"#utility.yul\":2680:2799   */\n    tag_232:\n        /* \"#utility.yul\":2838:2839   */\n      0x00\n        /* \"#utility.yul\":2863:2916   */\n      tag_234\n        /* \"#utility.yul\":2908:2915   */\n      dup6\n        /* \"#utility.yul\":2899:2905   */\n      dup3\n        /* \"#utility.yul\":2888:2897   */\n      dup7\n        /* \"#utility.yul\":2884:2906   */\n      add\n        /* \"#utility.yul\":2863:2916   */\n      tag_162\n      jump\t// in\n    tag_234:\n        /* \"#utility.yul\":2853:2916   */\n      swap3\n      pop\n        /* \"#utility.yul\":2809:2926   */\n      pop\n        /* \"#utility.yul\":2965:2967   */\n      0x20\n        /* \"#utility.yul\":2991:3044   */\n      tag_235\n        /* \"#utility.yul\":3036:3043   */\n      dup6\n        /* \"#utility.yul\":3027:3033   */\n      dup3\n        /* \"#utility.yul\":3016:3025   */\n      dup7\n        /* \"#utility.yul\":3012:3034   */\n      add\n        /* \"#utility.yul\":2991:3044   */\n      tag_165\n      jump\t// in\n    tag_235:\n        /* \"#utility.yul\":2981:3044   */\n      swap2\n      pop\n        /* \"#utility.yul\":2936:3054   */\n      pop\n        /* \"#utility.yul\":2587:3061   */\n      swap3\n      pop\n      swap3\n      swap1\n      pop\n      jump\t// out\n        /* \"#utility.yul\":3067:3157   */\n    tag_166:\n        /* \"#utility.yul\":3101:3108   */\n      0x00\n        /* \"#utility.yul\":3144:3149   */\n      dup2\n        /* \"#utility.yul\":3137:3150   */\n      iszero\n        /* \"#utility.yul\":3130:3151   */\n      iszero\n        /* \"#utility.yul\":3119:3151   */\n      swap1\n      pop\n        /* \"#utility.yul\":3067:3157   */\n      swap2\n      swap1\n      pop\n      jump\t// out\n        /* \"#utility.yul\":3163:3272   */\n    tag_167:\n        /* \"#utility.yul\":3244:3265   */\n      tag_238\n        /* \"#utility.yul\":3259:3264   */\n      dup2\n        /* \"#utility.yul\":3244:3265   */\n      tag_166\n      jump\t// in\n    tag_238:\n        /* \"#utility.yul\":3239:3242   */\n      dup3\n        /* \"#utility.yul\":3232:3266   */\n      mstore\n        /* \"#utility.yul\":3163:3272   */\n      pop\n      pop\n      jump\t// out\n        /* \"#utility.yul\":3278:3488   */\n    tag_30:\n        /* \"#utility.yul\":3365:3369   */\n      0x00\n        /* \"#utility.yul\":3403:3405   */\n      0x20\n        /* \"#utility.yul\":3392:3401   */\n      dup3\n        /* \"#utility.yul\":3388:3406   */\n      add\n        /* \"#utility.yul\":3380:3406   */\n      swap1\n      pop\n        /* \"#utility.yul\":3416:3481   */\n      tag_240\n        /* \"#utility.yul\":3478:3479   */\n      0x00\n        /* \"#utility.yul\":3467:3476   */\n      dup4\n        /* \"#utility.yul\":3463:3480   */\n      add\n        /* \"#utility.yul\":3454:3460   */\n      dup5\n        /* \"#utility.yul\":3416:3481   */\n      tag_167\n      jump\t// in\n    tag_240:\n        /* \"#utility.yul\":3278:3488   */\n      swap3\n      swap2\n      pop\n      pop\n      jump\t// out\n        /* \"#utility.yul\":3494:3571   */\n    tag_168:\n        /* \"#utility.yul\":3531:3538   */\n      0x00\n        /* \"#utility.yul\":3560:3565   */\n      dup2\n        /* \"#utility.yul\":3549:3565   */\n      swap1\n      pop\n        /* \"#utility.yul\":3494:3571   */\n      swap2\n      swap1\n      pop\n      jump\t// out\n        /* \"#utility.yul\":3577:3699   */\n    tag_169:\n        /* \"#utility.yul\":3650:3674   */\n      tag_243\n        /* \"#utility.yul\":3668:3673   */\n      dup2\n        /* \"#utility.yul\":3650:3674   */\n      tag_168\n      jump\t// in\n    tag_243:\n        /* \"#utility.yul\":3643:3648   */\n      dup2\n        /* \"#utility.yul\":3640:3675   */\n      eq\n        /* \"#utility.yul\":3630:3693   */\n      tag_244\n      jumpi\n        /* \"#utility.yul\":3689:3690   */\n      0x00\n        /* \"#utility.yul\":3686:3687   */\n      dup1\n        /* \"#utility.yul\":3679:3691   */\n      revert\n        /* \"#utility.yul\":3630:3693   */\n    tag_244:\n        /* \"#utility.yul\":3577:3699   */\n      pop\n      jump\t// out\n        /* \"#utility.yul\":3705:3844   */\n    tag_170:\n        /* \"#utility.yul\":3751:3756   */\n      0x00\n        /* \"#utility.yul\":3789:3795   */\n      dup2\n        /* \"#utility.yul\":3776:3796   */\n      calldataload\n        /* \"#utility.yul\":3767:3796   */\n      swap1\n      pop\n        /* \"#utility.yul\":3805:3838   */\n      tag_246\n        /* \"#utility.yul\":3832:3837   */\n      dup2\n        /* \"#utility.yul\":3805:3838   */\n      tag_169\n      jump\t// in\n    tag_246:\n        /* \"#utility.yul\":3705:3844   */\n      swap3\n      swap2\n      pop\n      pop\n      jump\t// out\n        /* \"#utility.yul\":3850:4469   */\n    tag_33:\n        /* \"#utility.yul\":3927:3933   */\n      0x00\n        /* \"#utility.yul\":3935:3941   */\n      dup1\n        /* \"#utility.yul\":3943:3949   */\n      0x00\n        /* \"#utility.yul\":3992:3994   */\n      0x60\n        /* \"#utility.yul\":3980:3989   */\n      dup5\n        /* \"#utility.yul\":3971:3978   */\n      dup7\n        /* \"#utility.yul\":3967:3990   */\n      sub\n        /* \"#utility.yul\":3963:3995   */\n      slt\n        /* \"#utility.yul\":3960:4079   */\n      iszero\n      tag_248\n      jumpi\n        /* \"#utility.yul\":3998:4077   */\n      tag_249\n      tag_157\n      jump\t// in\n    tag_249:\n        /* \"#utility.yul\":3960:4079   */\n    tag_248:\n        /* \"#utility.yul\":4118:4119   */\n      0x00\n        /* \"#utility.yul\":4143:4196   */\n      tag_250\n        /* \"#utility.yul\":4188:4195   */\n      dup7\n        /* \"#utility.yul\":4179:4185   */\n      dup3\n        /* \"#utility.yul\":4168:4177   */\n      dup8\n        /* \"#utility.yul\":4164:4186   */\n      add\n        /* \"#utility.yul\":4143:4196   */\n      tag_162\n      jump\t// in\n    tag_250:\n        /* \"#utility.yul\":4133:4196   */\n      swap4\n      pop\n        /* \"#utility.yul\":4089:4206   */\n      pop\n        /* \"#utility.yul\":4245:4247   */\n      0x20\n        /* \"#utility.yul\":4271:4324   */\n      tag_251\n        /* \"#utility.yul\":4316:4323   */\n      dup7\n        /* \"#utility.yul\":4307:4313   */\n      dup3\n        /* \"#utility.yul\":4296:4305   */\n      dup8\n        /* \"#utility.yul\":4292:4314   */\n      add\n        /* \"#utility.yul\":4271:4324   */\n      tag_165\n      jump\t// in\n    tag_251:\n        /* \"#utility.yul\":4261:4324   */\n      swap3\n      pop\n        /* \"#utility.yul\":4216:4334   */\n      pop\n        /* \"#utility.yul\":4373:4375   */\n      0x40\n        /* \"#utility.yul\":4399:4452   */\n      tag_252\n        /* \"#utility.yul\":4444:4451   */\n      dup7\n        /* \"#utility.yul\":4435:4441   */\n      dup3\n        /* \"#utility.yul\":4424:4433   */\n      dup8\n        /* \"#utility.yul\":4420:4442   */\n      add\n        /* \"#utility.yul\":4399:4452   */\n      tag_170\n      jump\t// in\n    tag_252:\n        /* \"#utility.yul\":4389:4452   */\n      swap2\n      pop\n        /* \"#utility.yul\":4344:4462   */\n      pop\n        /* \"#utility.yul\":3850:4469   */\n      swap3\n      pop\n      swap3\n      pop\n      swap3\n      jump\t// out\n        /* \"#utility.yul\":4475:4593   */\n    tag_171:\n        /* \"#utility.yul\":4562:4586   */\n      tag_254\n        /* \"#utility.yul\":4580:4585   */\n      dup2\n        /* \"#utility.yul\":4562:4586   */\n      tag_163\n      jump\t// in\n    tag_254:\n        /* \"#utility.yul\":4557:4560   */\n      dup3\n        /* \"#utility.yul\":4550:4587   */\n      mstore\n        /* \"#utility.yul\":4475:4593   */\n      pop\n      pop\n      jump\t// out\n        /* \"#utility.yul\":4599:4821   */\n    tag_38:\n        /* \"#utility.yul\":4692:4696   */\n      0x00\n        /* \"#utility.yul\":4730:4732   */\n      0x20\n        /* \"#utility.yul\":4719:4728   */\n      dup3\n        /* \"#utility.yul\":4715:4733   */\n      add\n        /* \"#utility.yul\":4707:4733   */\n      swap1\n      pop\n        /* \"#utility.yul\":4743:4814   */\n      tag_256\n        /* \"#utility.yul\":4811:4812   */\n      0x00\n        /* \"#utility.yul\":4800:4809   */\n      dup4\n        /* \"#utility.yul\":4796:4813   */\n      add\n        /* \"#utility.yul\":4787:4793   */\n      dup5\n        /* \"#utility.yul\":4743:4814   */\n      tag_171\n      jump\t// in\n    tag_256:\n        /* \"#utility.yul\":4599:4821   */\n      swap3\n      swap2\n      pop\n      pop\n      jump\t// out\n        /* \"#utility.yul\":4827:5446   */\n    tag_44:\n        /* \"#utility.yul\":4904:4910   */\n      0x00\n        /* \"#utility.yul\":4912:4918   */\n      dup1\n        /* \"#utility.yul\":4920:4926   */\n      0x00\n        /* \"#utility.yul\":4969:4971   */\n      0x60\n        /* \"#utility.yul\":4957:4966   */\n      dup5\n        /* \"#utility.yul\":4948:4955   */\n      dup7\n        /* \"#utility.yul\":4944:4967   */\n      sub\n        /* \"#utility.yul\":4940:4972   */\n      slt\n        /* \"#utility.yul\":4937:5056   */\n      iszero\n      tag_258\n      jumpi\n        /* \"#utility.yul\":4975:5054   */\n      tag_259\n      tag_157\n      jump\t// in\n    tag_259:\n        /* \"#utility.yul\":4937:5056   */\n    tag_258:\n        /* \"#utility.yul\":5095:5096   */\n      0x00\n        /* \"#utility.yul\":5120:5173   */\n      tag_260\n        /* \"#utility.yul\":5165:5172   */\n      dup7\n        /* \"#utility.yul\":5156:5162   */\n      dup3\n        /* \"#utility.yul\":5145:5154   */\n      dup8\n        /* \"#utility.yul\":5141:5163   */\n      add\n        /* \"#utility.yul\":5120:5173   */\n      tag_162\n      jump\t// in\n    tag_260:\n        /* \"#utility.yul\":5110:5173   */\n      swap4\n      pop\n        /* \"#utility.yul\":5066:5183   */\n      pop\n        /* \"#utility.yul\":5222:5224   */\n      0x20\n        /* \"#utility.yul\":5248:5301   */\n      tag_261\n        /* \"#utility.yul\":5293:5300   */\n      dup7\n        /* \"#utility.yul\":5284:5290   */\n      dup3\n        /* \"#utility.yul\":5273:5282   */\n      dup8\n        /* \"#utility.yul\":5269:5291   */\n      add\n        /* \"#utility.yul\":5248:5301   */\n      tag_162\n      jump\t// in\n    tag_261:\n        /* \"#utility.yul\":5238:5301   */\n      swap3\n      pop\n        /* \"#utility.yul\":5193:5311   */\n      pop\n        /* \"#utility.yul\":5350:5352   */\n      0x40\n        /* \"#utility.yul\":5376:5429   */\n      tag_262\n        /* \"#utility.yul\":5421:5428   */\n      dup7\n        /* \"#utility.yul\":5412:5418   */\n      dup3\n        /* \"#utility.yul\":5401:5410   */\n      dup8\n        /* \"#utility.yul\":5397:5419   */\n      add\n        /* \"#utility.yul\":5376:5429   */\n      tag_165\n      jump\t// in\n    tag_262:\n        /* \"#utility.yul\":5366:5429   */\n      swap2\n      pop\n        /* \"#utility.yul\":5321:5439   */\n      pop\n        /* \"#utility.yul\":4827:5446   */\n      swap3\n      pop\n      swap3\n      pop\n      swap3\n      jump\t// out\n        /* \"#utility.yul\":5452:5538   */\n    tag_172:\n        /* \"#utility.yul\":5487:5494   */\n      0x00\n        /* \"#utility.yul\":5527:5531   */\n      0xff\n        /* \"#utility.yul\":5520:5525   */\n      dup3\n        /* \"#utility.yul\":5516:5532   */\n      and\n        /* \"#utility.yul\":5505:5532   */\n      swap1\n      pop\n        /* \"#utility.yul\":5452:5538   */\n      swap2\n      swap1\n      pop\n      jump\t// out\n        /* \"#utility.yul\":5544:5656   */\n    tag_173:\n        /* \"#utility.yul\":5627:5649   */\n      tag_265\n        /* \"#utility.yul\":5643:5648   */\n      dup2\n        /* \"#utility.yul\":5627:5649   */\n      tag_172\n      jump\t// in\n    tag_265:\n        /* \"#utility.yul\":5622:5625   */\n      dup3\n        /* \"#utility.yul\":5615:5650   */\n      mstore\n        /* \"#utility.yul\":5544:5656   */\n      pop\n      pop\n      jump\t// out\n        /* \"#utility.yul\":5662:5876   */\n    tag_50:\n        /* \"#utility.yul\":5751:5755   */\n      0x00\n        /* \"#utility.yul\":5789:5791   */\n      0x20\n        /* \"#utility.yul\":5778:5787   */\n      dup3\n        /* \"#utility.yul\":5774:5792   */\n      add\n        /* \"#utility.yul\":5766:5792   */\n      swap1\n      pop\n        /* \"#utility.yul\":5802:5869   */\n      tag_267\n        /* \"#utility.yul\":5866:5867   */\n      0x00\n        /* \"#utility.yul\":5855:5864   */\n      dup4\n        /* \"#utility.yul\":5851:5868   */\n      add\n        /* \"#utility.yul\":5842:5848   */\n      dup5\n        /* \"#utility.yul\":5802:5869   */\n      tag_173\n      jump\t// in\n    tag_267:\n        /* \"#utility.yul\":5662:5876   */\n      swap3\n      swap2\n      pop\n      pop\n      jump\t// out\n        /* \"#utility.yul\":5882:6211   */\n    tag_53:\n        /* \"#utility.yul\":5941:5947   */\n      0x00\n        /* \"#utility.yul\":5990:5992   */\n      0x20\n        /* \"#utility.yul\":5978:5987   */\n      dup3\n        /* \"#utility.yul\":5969:5976   */\n      dup5\n        /* \"#utility.yul\":5965:5988   */\n      sub\n        /* \"#utility.yul\":5961:5993   */\n      slt\n        /* \"#utility.yul\":5958:6077   */\n      iszero\n      tag_269\n      jumpi\n        /* \"#utility.yul\":5996:6075   */\n      tag_270\n      tag_157\n      jump\t// in\n    tag_270:\n        /* \"#utility.yul\":5958:6077   */\n    tag_269:\n        /* \"#utility.yul\":6116:6117   */\n      0x00\n        /* \"#utility.yul\":6141:6194   */\n      tag_271\n        /* \"#utility.yul\":6186:6193   */\n      dup5\n        /* \"#utility.yul\":6177:6183   */\n      dup3\n        /* \"#utility.yul\":6166:6175   */\n      dup6\n        /* \"#utility.yul\":6162:6184   */\n      add\n        /* \"#utility.yul\":6141:6194   */\n      tag_162\n      jump\t// in\n    tag_271:\n        /* \"#utility.yul\":6131:6194   */\n      swap2\n      pop\n        /* \"#utility.yul\":6087:6204   */\n      pop\n        /* \"#utility.yul\":5882:6211   */\n      swap3\n      swap2\n      pop\n      pop\n      jump\t// out\n        /* \"#utility.yul\":6217:6335   */\n    tag_174:\n        /* \"#utility.yul\":6304:6328   */\n      tag_273\n        /* \"#utility.yul\":6322:6327   */\n      dup2\n        /* \"#utility.yul\":6304:6328   */\n      tag_160\n      jump\t// in\n    tag_273:\n        /* \"#utility.yul\":6299:6302   */\n      dup3\n        /* \"#utility.yul\":6292:6329   */\n      mstore\n        /* \"#utility.yul\":6217:6335   */\n      pop\n      pop\n      jump\t// out\n        /* \"#utility.yul\":6341:6563   */\n    tag_59:\n        /* \"#utility.yul\":6434:6438   */\n      0x00\n        /* \"#utility.yul\":6472:6474   */\n      0x20\n        /* \"#utility.yul\":6461:6470   */\n      dup3\n        /* \"#utility.yul\":6457:6475   */\n      add\n        /* \"#utility.yul\":6449:6475   */\n      swap1\n      pop\n        /* \"#utility.yul\":6485:6556   */\n      tag_275\n        /* \"#utility.yul\":6553:6554   */\n      0x00\n        /* \"#utility.yul\":6542:6551   */\n      dup4\n        /* \"#utility.yul\":6538:6555   */\n      add\n        /* \"#utility.yul\":6529:6535   */\n      dup5\n        /* \"#utility.yul\":6485:6556   */\n      tag_174\n      jump\t// in\n    tag_275:\n        /* \"#utility.yul\":6341:6563   */\n      swap3\n      swap2\n      pop\n      pop\n      jump\t// out\n        /* \"#utility.yul\":6569:7043   */\n    tag_72:\n        /* \"#utility.yul\":6637:6643   */\n      0x00\n        /* \"#utility.yul\":6645:6651   */\n      dup1\n        /* \"#utility.yul\":6694:6696   */\n      0x40\n        /* \"#utility.yul\":6682:6691   */\n      dup4\n        /* \"#utility.yul\":6673:6680   */\n      dup6\n        /* \"#utility.yul\":6669:6692   */\n      sub\n        /* \"#utility.yul\":6665:6697   */\n      slt\n        /* \"#utility.yul\":6662:6781   */\n      iszero\n      tag_277\n      jumpi\n        /* \"#utility.yul\":6700:6779   */\n      tag_278\n      tag_157\n      jump\t// in\n    tag_278:\n        /* \"#utility.yul\":6662:6781   */\n    tag_277:\n        /* \"#utility.yul\":6820:6821   */\n      0x00\n        /* \"#utility.yul\":6845:6898   */\n      tag_279\n        /* \"#utility.yul\":6890:6897   */\n      dup6\n        /* \"#utility.yul\":6881:6887   */\n      dup3\n        /* \"#utility.yul\":6870:6879   */\n      dup7\n        /* \"#utility.yul\":6866:6888   */\n      add\n        /* \"#utility.yul\":6845:6898   */\n      tag_162\n      jump\t// in\n    tag_279:\n        /* \"#utility.yul\":6835:6898   */\n      swap3\n      pop\n        /* \"#utility.yul\":6791:6908   */\n      pop\n        /* \"#utility.yul\":6947:6949   */\n      0x20\n        /* \"#utility.yul\":6973:7026   */\n      tag_280\n        /* \"#utility.yul\":7018:7025   */\n      dup6\n        /* \"#utility.yul\":7009:7015   */\n      dup3\n        /* \"#utility.yul\":6998:7007   */\n      dup7\n        /* \"#utility.yul\":6994:7016   */\n      add\n        /* \"#utility.yul\":6973:7026   */\n      tag_162\n      jump\t// in\n    tag_280:\n        /* \"#utility.yul\":6963:7026   */\n      swap2\n      pop\n        /* \"#utility.yul\":6918:7036   */\n      pop\n        /* \"#utility.yul\":6569:7043   */\n      swap3\n      pop\n      swap3\n      swap1\n      pop\n      jump\t// out\n        /* \"#utility.yul\":7049:7230   */\n    tag_175:\n        /* \"#utility.yul\":7189:7222   */\n      0x55534443703a2063616c6c6572206973206e6f74207468652062726964676500\n        /* \"#utility.yul\":7185:7186   */\n      0x00\n        /* \"#utility.yul\":7177:7183   */\n      dup3\n        /* \"#utility.yul\":7173:7187   */\n      add\n        /* \"#utility.yul\":7166:7223   */\n      mstore\n        /* \"#utility.yul\":7049:7230   */\n      pop\n      jump\t// out\n        /* \"#utility.yul\":7236:7602   */\n    tag_176:\n        /* \"#utility.yul\":7378:7381   */\n      0x00\n        /* \"#utility.yul\":7399:7466   */\n      tag_283\n        /* \"#utility.yul\":7463:7465   */\n      0x1f\n        /* \"#utility.yul\":7458:7461   */\n      dup4\n        /* \"#utility.yul\":7399:7466   */\n      tag_152\n      jump\t// in\n    tag_283:\n        /* \"#utility.yul\":7392:7466   */\n      swap2\n      pop\n        /* \"#utility.yul\":7475:7568   */\n      tag_284\n        /* \"#utility.yul\":7564:7567   */\n      dup3\n        /* \"#utility.yul\":7475:7568   */\n      tag_175\n      jump\t// in\n    tag_284:\n        /* \"#utility.yul\":7593:7595   */\n      0x20\n        /* \"#utility.yul\":7588:7591   */\n      dup3\n        /* \"#utility.yul\":7584:7596   */\n      add\n        /* \"#utility.yul\":7577:7596   */\n      swap1\n      pop\n        /* \"#utility.yul\":7236:7602   */\n      swap2\n      swap1\n      pop\n      jump\t// out\n        /* \"#utility.yul\":7608:8027   */\n    tag_86:\n        /* \"#utility.yul\":7774:7778   */\n      0x00\n        /* \"#utility.yul\":7812:7814   */\n      0x20\n        /* \"#utility.yul\":7801:7810   */\n      dup3\n        /* \"#utility.yul\":7797:7815   */\n      add\n        /* \"#utility.yul\":7789:7815   */\n      swap1\n      pop\n        /* \"#utility.yul\":7861:7870   */\n      dup2\n        /* \"#utility.yul\":7855:7859   */\n      dup2\n        /* \"#utility.yul\":7851:7871   */\n      sub\n        /* \"#utility.yul\":7847:7848   */\n      0x00\n        /* \"#utility.yul\":7836:7845   */\n      dup4\n        /* \"#utility.yul\":7832:7849   */\n      add\n        /* \"#utility.yul\":7825:7872   */\n      mstore\n        /* \"#utility.yul\":7889:8020   */\n      tag_286\n        /* \"#utility.yul\":8015:8019   */\n      dup2\n        /* \"#utility.yul\":7889:8020   */\n      tag_176\n      jump\t// in\n    tag_286:\n        /* \"#utility.yul\":7881:8020   */\n      swap1\n      pop\n        /* \"#utility.yul\":7608:8027   */\n      swap2\n      swap1\n      pop\n      jump\t// out\n        /* \"#utility.yul\":8033:8255   */\n    tag_177:\n        /* \"#utility.yul\":8173:8207   */\n      0x55534443703a20696e73756666696369656e742062616c616e636520746f2062\n        /* \"#utility.yul\":8169:8170   */\n      0x00\n        /* \"#utility.yul\":8161:8167   */\n      dup3\n        /* \"#utility.yul\":8157:8171   */\n      add\n        /* \"#utility.yul\":8150:8208   */\n      mstore\n        /* \"#utility.yul\":8242:8247   */\n      0x75726e0000000000000000000000000000000000000000000000000000000000\n        /* \"#utility.yul\":8237:8239   */\n      0x20\n        /* \"#utility.yul\":8229:8235   */\n      dup3\n        /* \"#utility.yul\":8225:8240   */\n      add\n        /* \"#utility.yul\":8218:8248   */\n      mstore\n        /* \"#utility.yul\":8033:8255   */\n      pop\n      jump\t// out\n        /* \"#utility.yul\":8261:8627   */\n    tag_178:\n        /* \"#utility.yul\":8403:8406   */\n      0x00\n        /* \"#utility.yul\":8424:8491   */\n      tag_289\n        /* \"#utility.yul\":8488:8490   */\n      0x23\n        /* \"#utility.yul\":8483:8486   */\n      dup4\n        /* \"#utility.yul\":8424:8491   */\n      tag_152\n      jump\t// in\n    tag_289:\n        /* \"#utility.yul\":8417:8491   */\n      swap2\n      pop\n        /* \"#utility.yul\":8500:8593   */\n      tag_290\n        /* \"#utility.yul\":8589:8592   */\n      dup3\n        /* \"#utility.yul\":8500:8593   */\n      tag_177\n      jump\t// in\n    tag_290:\n        /* \"#utility.yul\":8618:8620   */\n      0x40\n        /* \"#utility.yul\":8613:8616   */\n      dup3\n        /* \"#utility.yul\":8609:8621   */\n      add\n        /* \"#utility.yul\":8602:8621   */\n      swap1\n      pop\n        /* \"#utility.yul\":8261:8627   */\n      swap2\n      swap1\n      pop\n      jump\t// out\n        /* \"#utility.yul\":8633:9052   */\n    tag_90:\n        /* \"#utility.yul\":8799:8803   */\n      0x00\n        /* \"#utility.yul\":8837:8839   */\n      0x20\n        /* \"#utility.yul\":8826:8835   */\n      dup3\n        /* \"#utility.yul\":8822:8840   */\n      add\n        /* \"#utility.yul\":8814:8840   */\n      swap1\n      pop\n        /* \"#utility.yul\":8886:8895   */\n      dup2\n        /* \"#utility.yul\":8880:8884   */\n      dup2\n        /* \"#utility.yul\":8876:8896   */\n      sub\n        /* \"#utility.yul\":8872:8873   */\n      0x00\n        /* \"#utility.yul\":8861:8870   */\n      dup4\n        /* \"#utility.yul\":8857:8874   */\n      add\n        /* \"#utility.yul\":8850:8897   */\n      mstore\n        /* \"#utility.yul\":8914:9045   */\n      tag_292\n        /* \"#utility.yul\":9040:9044   */\n      dup2\n        /* \"#utility.yul\":8914:9045   */\n      tag_178\n      jump\t// in\n    tag_292:\n        /* \"#utility.yul\":8906:9045   */\n      swap1\n      pop\n        /* \"#utility.yul\":8633:9052   */\n      swap2\n      swap1\n      pop\n      jump\t// out\n        /* \"#utility.yul\":9058:9238   */\n    tag_179:\n        /* \"#utility.yul\":9198:9230   */\n      0x55534443703a206275726e20616d6f756e74206d757374206265203e20300000\n        /* \"#utility.yul\":9194:9195   */\n      0x00\n        /* \"#utility.yul\":9186:9192   */\n      dup3\n        /* \"#utility.yul\":9182:9196   */\n      add\n        /* \"#utility.yul\":9175:9231   */\n      mstore\n        /* \"#utility.yul\":9058:9238   */\n      pop\n      jump\t// out\n        /* \"#utility.yul\":9244:9610   */\n    tag_180:\n        /* \"#utility.yul\":9386:9389   */\n      0x00\n        /* \"#utility.yul\":9407:9474   */\n      tag_295\n        /* \"#utility.yul\":9471:9473   */\n      0x1e\n        /* \"#utility.yul\":9466:9469   */\n      dup4\n        /* \"#utility.yul\":9407:9474   */\n      tag_152\n      jump\t// in\n    tag_295:\n        /* \"#utility.yul\":9400:9474   */\n      swap2\n      pop\n        /* \"#utility.yul\":9483:9576   */\n      tag_296\n        /* \"#utility.yul\":9572:9575   */\n      dup3\n        /* \"#utility.yul\":9483:9576   */\n      tag_179\n      jump\t// in\n    tag_296:\n        /* \"#utility.yul\":9601:9603   */\n      0x20\n        /* \"#utility.yul\":9596:9599   */\n      dup3\n        /* \"#utility.yul\":9592:9604   */\n      add\n        /* \"#utility.yul\":9585:9604   */\n      swap1\n      pop\n        /* \"#utility.yul\":9244:9610   */\n      swap2\n      swap1\n      pop\n      jump\t// out\n        /* \"#utility.yul\":9616:10035   */\n    tag_93:\n        /* \"#utility.yul\":9782:9786   */\n      0x00\n        /* \"#utility.yul\":9820:9822   */\n      0x20\n        /* \"#utility.yul\":9809:9818   */\n      dup3\n        /* \"#utility.yul\":9805:9823   */\n      add\n        /* \"#utility.yul\":9797:9823   */\n      swap1\n      pop\n        /* \"#utility.yul\":9869:9878   */\n      dup2\n        /* \"#utility.yul\":9863:9867   */\n      dup2\n        /* \"#utility.yul\":9859:9879   */\n      sub\n        /* \"#utility.yul\":9855:9856   */\n      0x00\n        /* \"#utility.yul\":9844:9853   */\n      dup4\n        /* \"#utility.yul\":9840:9857   */\n      add\n        /* \"#utility.yul\":9833:9880   */\n      mstore\n        /* \"#utility.yul\":9897:10028   */\n      tag_298\n        /* \"#utility.yul\":10023:10027   */\n      dup2\n        /* \"#utility.yul\":9897:10028   */\n      tag_180\n      jump\t// in\n    tag_298:\n        /* \"#utility.yul\":9889:10028   */\n      swap1\n      pop\n        /* \"#utility.yul\":9616:10035   */\n      swap2\n      swap1\n      pop\n      jump\t// out\n        /* \"#utility.yul\":10041:10221   */\n    tag_181:\n        /* \"#utility.yul\":10089:10166   */\n      0x4e487b7100000000000000000000000000000000000000000000000000000000\n        /* \"#utility.yul\":10086:10087   */\n      0x00\n        /* \"#utility.yul\":10079:10167   */\n      mstore\n        /* \"#utility.yul\":10186:10190   */\n      0x11\n        /* \"#utility.yul\":10183:10184   */\n      0x04\n        /* \"#utility.yul\":10176:10191   */\n      mstore\n        /* \"#utility.yul\":10210:10214   */\n      0x24\n        /* \"#utility.yul\":10207:10208   */\n      0x00\n        /* \"#utility.yul\":10200:10215   */\n      revert\n        /* \"#utility.yul\":10227:10418   */\n    tag_95:\n        /* \"#utility.yul\":10267:10271   */\n      0x00\n        /* \"#utility.yul\":10287:10307   */\n      tag_301\n        /* \"#utility.yul\":10305:10306   */\n      dup3\n        /* \"#utility.yul\":10287:10307   */\n      tag_163\n      jump\t// in\n    tag_301:\n        /* \"#utility.yul\":10282:10307   */\n      swap2\n      pop\n        /* \"#utility.yul\":10321:10341   */\n      tag_302\n        /* \"#utility.yul\":10339:10340   */\n      dup4\n        /* \"#utility.yul\":10321:10341   */\n      tag_163\n      jump\t// in\n    tag_302:\n        /* \"#utility.yul\":10316:10341   */\n      swap3\n      pop\n        /* \"#utility.yul\":10360:10361   */\n      dup3\n        /* \"#utility.yul\":10357:10358   */\n      dup3\n        /* \"#utility.yul\":10354:10362   */\n      lt\n        /* \"#utility.yul\":10351:10385   */\n      iszero\n      tag_303\n      jumpi\n        /* \"#utility.yul\":10365:10383   */\n      tag_304\n      tag_181\n      jump\t// in\n    tag_304:\n        /* \"#utility.yul\":10351:10385   */\n    tag_303:\n        /* \"#utility.yul\":10410:10411   */\n      dup3\n        /* \"#utility.yul\":10407:10408   */\n      dup3\n        /* \"#utility.yul\":10403:10412   */\n      sub\n        /* \"#utility.yul\":10395:10412   */\n      swap1\n      pop\n        /* \"#utility.yul\":10227:10418   */\n      swap3\n      swap2\n      pop\n      pop\n      jump\t// out\n        /* \"#utility.yul\":10424:10601   */\n    tag_182:\n        /* \"#utility.yul\":10564:10593   */\n      0x55534443703a206d696e7420746f207a65726f20616464726573730000000000\n        /* \"#utility.yul\":10560:10561   */\n      0x00\n        /* \"#utility.yul\":10552:10558   */\n      dup3\n        /* \"#utility.yul\":10548:10562   */\n      add\n        /* \"#utility.yul\":10541:10594   */\n      mstore\n        /* \"#utility.yul\":10424:10601   */\n      pop\n      jump\t// out\n        /* \"#utility.yul\":10607:10973   */\n    tag_183:\n        /* \"#utility.yul\":10749:10752   */\n      0x00\n        /* \"#utility.yul\":10770:10837   */\n      tag_307\n        /* \"#utility.yul\":10834:10836   */\n      0x1b\n        /* \"#utility.yul\":10829:10832   */\n      dup4\n        /* \"#utility.yul\":10770:10837   */\n      tag_152\n      jump\t// in\n    tag_307:\n        /* \"#utility.yul\":10763:10837   */\n      swap2\n      pop\n        /* \"#utility.yul\":10846:10939   */\n      tag_308\n        /* \"#utility.yul\":10935:10938   */\n      dup3\n        /* \"#utility.yul\":10846:10939   */\n      tag_182\n      jump\t// in\n    tag_308:\n        /* \"#utility.yul\":10964:10966   */\n      0x20\n        /* \"#utility.yul\":10959:10962   */\n      dup3\n        /* \"#utility.yul\":10955:10967   */\n      add\n        /* \"#utility.yul\":10948:10967   */\n      swap1\n      pop\n        /* \"#utility.yul\":10607:10973   */\n      swap2\n      swap1\n      pop\n      jump\t// out\n        /* \"#utility.yul\":10979:11398   */\n    tag_105:\n        /* \"#utility.yul\":11145:11149   */\n      0x00\n        /* \"#utility.yul\":11183:11185   */\n      0x20\n        /* \"#utility.yul\":11172:11181   */\n      dup3\n        /* \"#utility.yul\":11168:11186   */\n      add\n        /* \"#utility.yul\":11160:11186   */\n      swap1\n      pop\n        /* \"#utility.yul\":11232:11241   */\n      dup2\n        /* \"#utility.yul\":11226:11230   */\n      dup2\n        /* \"#utility.yul\":11222:11242   */\n      sub\n        /* \"#utility.yul\":11218:11219   */\n      0x00\n        /* \"#utility.yul\":11207:11216   */\n      dup4\n        /* \"#utility.yul\":11203:11220   */\n      add\n        /* \"#utility.yul\":11196:11243   */\n      mstore\n        /* \"#utility.yul\":11260:11391   */\n      tag_310\n        /* \"#utility.yul\":11386:11390   */\n      dup2\n        /* \"#utility.yul\":11260:11391   */\n      tag_183\n      jump\t// in\n    tag_310:\n        /* \"#utility.yul\":11252:11391   */\n      swap1\n      pop\n        /* \"#utility.yul\":10979:11398   */\n      swap2\n      swap1\n      pop\n      jump\t// out\n        /* \"#utility.yul\":11404:11584   */\n    tag_184:\n        /* \"#utility.yul\":11544:11576   */\n      0x55534443703a206d696e7420616d6f756e74206d757374206265203e20300000\n        /* \"#utility.yul\":11540:11541   */\n      0x00\n        /* \"#utility.yul\":11532:11538   */\n      dup3\n        /* \"#utility.yul\":11528:11542   */\n      add\n        /* \"#utility.yul\":11521:11577   */\n      mstore\n        /* \"#utility.yul\":11404:11584   */\n      pop\n      jump\t// out\n        /* \"#utility.yul\":11590:11956   */\n    tag_185:\n        /* \"#utility.yul\":11732:11735   */\n      0x00\n        /* \"#utility.yul\":11753:11820   */\n      tag_313\n        /* \"#utility.yul\":11817:11819   */\n      0x1e\n        /* \"#utility.yul\":11812:11815   */\n      dup4\n        /* \"#utility.yul\":11753:11820   */\n      tag_152\n      jump\t// in\n    tag_313:\n        /* \"#utility.yul\":11746:11820   */\n      swap2\n      pop\n        /* \"#utility.yul\":11829:11922   */\n      tag_314\n        /* \"#utility.yul\":11918:11921   */\n      dup3\n        /* \"#utility.yul\":11829:11922   */\n      tag_184\n      jump\t// in\n    tag_314:\n        /* \"#utility.yul\":11947:11949   */\n      0x20\n        /* \"#utility.yul\":11942:11945   */\n      dup3\n        /* \"#utility.yul\":11938:11950   */\n      add\n        /* \"#utility.yul\":11931:11950   */\n      swap1\n      pop\n        /* \"#utility.yul\":11590:11956   */\n      swap2\n      swap1\n      pop\n      jump\t// out\n        /* \"#utility.yul\":11962:12381   */\n    tag_108:\n        /* \"#utility.yul\":12128:12132   */\n      0x00\n        /* \"#utility.yul\":12166:12168   */\n      0x20\n        /* \"#utility.yul\":12155:12164   */\n      dup3\n        /* \"#utility.yul\":12151:12169   */\n      add\n        /* \"#utility.yul\":12143:12169   */\n      swap1\n      pop\n        /* \"#utility.yul\":12215:12224   */\n      dup2\n        /* \"#utility.yul\":12209:12213   */\n      dup2\n        /* \"#utility.yul\":12205:12225   */\n      sub\n        /* \"#utility.yul\":12201:12202   */\n      0x00\n        /* \"#utility.yul\":12190:12199   */\n      dup4\n        /* \"#utility.yul\":12186:12203   */\n      add\n        /* \"#utility.yul\":12179:12226   */\n      mstore\n        /* \"#utility.yul\":12243:12374   */\n      tag_316\n        /* \"#utility.yul\":12369:12373   */\n      dup2\n        /* \"#utility.yul\":12243:12374   */\n      tag_185\n      jump\t// in\n    tag_316:\n        /* \"#utility.yul\":12235:12374   */\n      swap1\n      pop\n        /* \"#utility.yul\":11962:12381   */\n      swap2\n      swap1\n      pop\n      jump\t// out\n        /* \"#utility.yul\":12387:12692   */\n    tag_110:\n        /* \"#utility.yul\":12427:12430   */\n      0x00\n        /* \"#utility.yul\":12446:12466   */\n      tag_318\n        /* \"#utility.yul\":12464:12465   */\n      dup3\n        /* \"#utility.yul\":12446:12466   */\n      tag_163\n      jump\t// in\n    tag_318:\n        /* \"#utility.yul\":12441:12466   */\n      swap2\n      pop\n        /* \"#utility.yul\":12480:12500   */\n      tag_319\n        /* \"#utility.yul\":12498:12499   */\n      dup4\n        /* \"#utility.yul\":12480:12500   */\n      tag_163\n      jump\t// in\n    tag_319:\n        /* \"#utility.yul\":12475:12500   */\n      swap3\n      pop\n        /* \"#utility.yul\":12634:12635   */\n      dup3\n        /* \"#utility.yul\":12566:12632   */\n      0xffffffffffffffffffffffffffffffffffffffffffffffffffffffffffffffff\n        /* \"#utility.yul\":12562:12636   */\n      sub\n        /* \"#utility.yul\":12559:12560   */\n      dup3\n        /* \"#utility.yul\":12556:12637   */\n      gt\n        /* \"#utility.yul\":12553:12660   */\n      iszero\n      tag_320\n      jumpi\n        /* \"#utility.yul\":12640:12658   */\n      tag_321\n      tag_181\n      jump\t// in\n    tag_321:\n        /* \"#utility.yul\":12553:12660   */\n    tag_320:\n        /* \"#utility.yul\":12684:12685   */\n      dup3\n        /* \"#utility.yul\":12681:12682   */\n      dup3\n        /* \"#utility.yul\":12677:12686   */\n      add\n        /* \"#utility.yul\":12670:12686   */\n      swap1\n      pop\n        /* \"#utility.yul\":12387:12692   */\n      swap3\n      swap2\n      pop\n      pop\n      jump\t// out\n        /* \"#utility.yul\":12698:12879   */\n    tag_186:\n        /* \"#utility.yul\":12838:12871   */\n      0x55534443703a207472616e7366657220746f207a65726f206164647265737300\n        /* \"#utility.yul\":12834:12835   */\n      0x00\n        /* \"#utility.yul\":12826:12832   */\n      dup3\n        /* \"#utility.yul\":12822:12836   */\n      add\n        /* \"#utility.yul\":12815:12872   */\n      mstore\n        /* \"#utility.yul\":12698:12879   */\n      pop\n      jump\t// out\n        /* \"#utility.yul\":12885:13251   */\n    tag_187:\n        /* \"#utility.yul\":13027:13030   */\n      0x00\n        /* \"#utility.yul\":13048:13115   */\n      tag_324\n        /* \"#utility.yul\":13112:13114   */\n      0x1f\n        /* \"#utility.yul\":13107:13110   */\n      dup4\n        /* \"#utility.yul\":13048:13115   */\n      tag_152\n      jump\t// in\n    tag_324:\n        /* \"#utility.yul\":13041:13115   */\n      swap2\n      pop\n        /* \"#utility.yul\":13124:13217   */\n      tag_325\n        /* \"#utility.yul\":13213:13216   */\n      dup3\n        /* \"#utility.yul\":13124:13217   */\n      tag_186\n      jump\t// in\n    tag_325:\n        /* \"#utility.yul\":13242:13244   */\n      0x20\n        /* \"#utility.yul\":13237:13240   */\n      dup3\n        /* \"#utility.yul\":13233:13245   */\n      add\n        /* \"#utility.yul\":13226:13245   */\n      swap1\n      pop\n        /* \"#utility.yul\":12885:13251   */\n      swap2\n      swap1\n      pop\n      jump\t// out\n        /* \"#utility.yul\":13257:13676   */\n    tag_117:\n        /* \"#utility.yul\":13423:13427   */\n      0x00\n        /* \"#utility.yul\":13461:13463   */\n      0x20\n        /* \"#utility.yul\":13450:13459   */\n      dup3\n        /* \"#utility.yul\":13446:13464   */\n      add\n        /* \"#utility.yul\":13438:13464   */\n      swap1\n      pop\n        /* \"#utility.yul\":13510:13519   */\n      dup2\n        /* \"#utility.yul\":13504:13508   */\n      dup2\n        /* \"#utility.yul\":13500:13520   */\n      sub\n        /* \"#utility.yul\":13496:13497   */\n      0x00\n        /* \"#utility.yul\":13485:13494   */\n      dup4\n        /* \"#utility.yul\":13481:13498   */\n      add\n        /* \"#utility.yul\":13474:13521   */\n      mstore\n        /* \"#utility.yul\":13538:13669   */\n      tag_327\n        /* \"#utility.yul\":13664:13668   */\n      dup2\n        /* \"#utility.yul\":13538:13669   */\n      tag_187\n      jump\t// in\n    tag_327:\n        /* \"#utility.yul\":13530:13669   */\n      swap1\n      pop\n        /* \"#utility.yul\":13257:13676   */\n      swap2\n      swap1\n      pop\n      jump\t// out\n        /* \"#utility.yul\":13682:13859   */\n    tag_188:\n        /* \"#utility.yul\":13822:13851   */\n      0x55534443703a20696e73756666696369656e742062616c616e63650000000000\n        /* \"#utility.yul\":13818:13819   */\n      0x00\n        /* \"#utility.yul\":13810:13816   */\n      dup3\n        /* \"#utility.yul\":13806:13820   */\n      add\n        /* \"#utility.yul\":13799:13852   */\n      mstore\n        /* \"#utility.yul\":13682:13859   */\n      pop\n      jump\t// out\n        /* \"#utility.yul\":13865:14231   */\n    tag_189:\n        /* \"#utility.yul\":14007:14010   */\n      0x00\n        /* \"#utility.yul\":14028:14095   */\n      tag_330\n        /* \"#utility.yul\":14092:14094   */\n      0x1b\n        /* \"#utility.yul\":14087:14090   */\n      dup4\n        /* \"#utility.yul\":14028:14095   */\n      tag_152\n      jump\t// in\n    tag_330:\n        /* \"#utility.yul\":14021:14095   */\n      swap2\n      pop\n        /* \"#utility.yul\":14104:14197   */\n      tag_331\n        /* \"#utility.yul\":14193:14196   */\n      dup3\n        /* \"#utility.yul\":14104:14197   */\n      tag_188\n      jump\t// in\n    tag_331:\n        /* \"#utility.yul\":14222:14224   */\n      0x20\n        /* \"#utility.yul\":14217:14220   */\n      dup3\n        /* \"#utility.yul\":14213:14225   */\n      add\n        /* \"#utility.yul\":14206:14225   */\n      swap1\n      pop\n        /* \"#utility.yul\":13865:14231   */\n      swap2\n      swap1\n      pop\n      jump\t// out\n        /* \"#utility.yul\":14237:14656   */\n    tag_120:\n        /* \"#utility.yul\":14403:14407   */\n      0x00\n        /* \"#utility.yul\":14441:14443   */\n      0x20\n        /* \"#utility.yul\":14430:14439   */\n      dup3\n        /* \"#utility.yul\":14426:14444   */\n      add\n        /* \"#utility.yul\":14418:14444   */\n      swap1\n      pop\n        /* \"#utility.yul\":14490:14499   */\n      dup2\n        /* \"#utility.yul\":14484:14488   */\n      dup2\n        /* \"#utility.yul\":14480:14500   */\n      sub\n        /* \"#utility.yul\":14476:14477   */\n      0x00\n        /* \"#utility.yul\":14465:14474   */\n      dup4\n        /* \"#utility.yul\":14461:14478   */\n      add\n        /* \"#utility.yul\":14454:14501   */\n      mstore\n        /* \"#utility.yul\":14518:14649   */\n      tag_333\n        /* \"#utility.yul\":14644:14648   */\n      dup2\n        /* \"#utility.yul\":14518:14649   */\n      tag_189\n      jump\t// in\n    tag_333:\n        /* \"#utility.yul\":14510:14649   */\n      swap1\n      pop\n        /* \"#utility.yul\":14237:14656   */\n      swap2\n      swap1\n      pop\n      jump\t// out\n        /* \"#utility.yul\":14662:14841   */\n    tag_190:\n        /* \"#utility.yul\":14802:14833   */\n      0x55534443703a20696e73756666696369656e7420616c6c6f77616e6365000000\n        /* \"#utility.yul\":14798:14799   */\n      0x00\n        /* \"#utility.yul\":14790:14796   */\n      dup3\n        /* \"#utility.yul\":14786:14800   */\n      add\n        /* \"#utility.yul\":14779:14834   */\n      mstore\n        /* \"#utility.yul\":14662:14841   */\n      pop\n      jump\t// out\n        /* \"#utility.yul\":14847:15213   */\n    tag_191:\n        /* \"#utility.yul\":14989:14992   */\n      0x00\n        /* \"#utility.yul\":15010:15077   */\n      tag_336\n        /* \"#utility.yul\":15074:15076   */\n      0x1d\n        /* \"#utility.yul\":15069:15072   */\n      dup4\n        /* \"#utility.yul\":15010:15077   */\n      tag_152\n      jump\t// in\n    tag_336:\n        /* \"#utility.yul\":15003:15077   */\n      swap2\n      pop\n        /* \"#utility.yul\":15086:15179   */\n      tag_337\n        /* \"#utility.yul\":15175:15178   */\n      dup3\n        /* \"#utility.yul\":15086:15179   */\n      tag_190\n      jump\t// in\n    tag_337:\n        /* \"#utility.yul\":15204:15206   */\n      0x20\n        /* \"#utility.yul\":15199:15202   */\n      dup3\n        /* \"#utility.yul\":15195:15207   */\n      add\n        /* \"#utility.yul\":15188:15207   */\n      swap1\n      pop\n        /* \"#utility.yul\":14847:15213   */\n      swap2\n      swap1\n      pop\n      jump\t// out\n        /* \"#utility.yul\":15219:15638   */\n    tag_123:\n        /* \"#utility.yul\":15385:15389   */\n      0x00\n        /* \"#utility.yul\":15423:15425   */\n      0x20\n        /* \"#utility.yul\":15412:15421   */\n      dup3\n        /* \"#utility.yul\":15408:15426   */\n      add\n        /* \"#utility.yul\":15400:15426   */\n      swap1\n      pop\n        /* \"#utility.yul\":15472:15481   */\n      dup2\n        /* \"#utility.yul\":15466:15470   */\n      dup2\n        /* \"#utility.yul\":15462:15482   */\n      sub\n        /* \"#utility.yul\":15458:15459   */\n      0x00\n        /* \"#utility.yul\":15447:15456   */\n      dup4\n        /* \"#utility.yul\":15443:15460   */\n      add\n        /* \"#utility.yul\":15436:15483   */\n      mstore\n        /* \"#utility.yul\":15500:15631   */\n      tag_339\n        /* \"#utility.yul\":15626:15630   */\n      dup2\n        /* \"#utility.yul\":15500:15631   */\n      tag_191\n      jump\t// in\n    tag_339:\n        /* \"#utility.yul\":15492:15631   */\n      swap1\n      pop\n        /* \"#utility.yul\":15219:15638   */\n      swap2\n      swap1\n      pop\n      jump\t// out\n        /* \"#utility.yul\":15644:15824   */\n    tag_192:\n        /* \"#utility.yul\":15784:15816   */\n      0x55534443703a2063616c6c6572206973206e6f7420746865206f776e65720000\n        /* \"#utility.yul\":15780:15781   */\n      0x00\n        /* \"#utility.yul\":15772:15778   */\n      dup3\n        /* \"#utility.yul\":15768:15782   */\n      add\n        /* \"#utility.yul\":15761:15817   */\n      mstore\n        /* \"#utility.yul\":15644:15824   */\n      pop\n      jump\t// out\n        /* \"#utility.yul\":15830:16196   */\n    tag_193:\n        /* \"#utility.yul\":15972:15975   */\n      0x00\n        /* \"#utility.yul\":15993:16060   */\n      tag_342\n        /* \"#utility.yul\":16057:16059   */\n      0x1e\n        /* \"#utility.yul\":16052:16055   */\n      dup4\n        /* \"#utility.yul\":15993:16060   */\n      tag_152\n      jump\t// in\n    tag_342:\n        /* \"#utility.yul\":15986:16060   */\n      swap2\n      pop\n        /* \"#utility.yul\":16069:16162   */\n      tag_343\n        /* \"#utility.yul\":16158:16161   */\n      dup3\n        /* \"#utility.yul\":16069:16162   */\n      tag_192\n      jump\t// in\n    tag_343:\n        /* \"#utility.yul\":16187:16189   */\n      0x20\n        /* \"#utility.yul\":16182:16185   */\n      dup3\n        /* \"#utility.yul\":16178:16190   */\n      add\n        /* \"#utility.yul\":16171:16190   */\n      swap1\n      pop\n        /* \"#utility.yul\":15830:16196   */\n      swap2\n      swap1\n      pop\n      jump\t// out\n        /* \"#utility.yul\":16202:16621   */\n    tag_131:\n        /* \"#utility.yul\":16368:16372   */\n      0x00\n        /* \"#utility.yul\":16406:16408   */\n      0x20\n        /* \"#utility.yul\":16395:16404   */\n      dup3\n        /* \"#utility.yul\":16391:16409   */\n      add\n        /* \"#utility.yul\":16383:16409   */\n      swap1\n      pop\n        /* \"#utility.yul\":16455:16464   */\n      dup2\n        /* \"#utility.yul\":16449:16453   */\n      dup2\n        /* \"#utility.yul\":16445:16465   */\n      sub\n        /* \"#utility.yul\":16441:16442   */\n      0x00\n        /* \"#utility.yul\":16430:16439   */\n      dup4\n        /* \"#utility.yul\":16426:16443   */\n      add\n        /* \"#utility.yul\":16419:16466   */\n      mstore\n        /* \"#utility.yul\":16483:16614   */\n      tag_345\n        /* \"#utility.yul\":16609:16613   */\n      dup2\n        /* \"#utility.yul\":16483:16614   */\n      tag_193\n      jump\t// in\n    tag_345:\n        /* \"#utility.yul\":16475:16614   */\n      swap1\n      pop\n        /* \"#utility.yul\":16202:16621   */\n      swap2\n      swap1\n      pop\n      jump\t// out\n        /* \"#utility.yul\":16627:16850   */\n    tag_194:\n        /* \"#utility.yul\":16767:16801   */\n      0x55534443703a206272696467652063616e6e6f74206265207a65726f20616464\n        /* \"#utility.yul\":16763:16764   */\n      0x00\n        /* \"#utility.yul\":16755:16761   */\n      dup3\n        /* \"#utility.yul\":16751:16765   */\n      add\n        /* \"#utility.yul\":16744:16802   */\n      mstore\n        /* \"#utility.yul\":16836:16842   */\n      0x7265737300000000000000000000000000000000000000000000000000000000\n        /* \"#utility.yul\":16831:16833   */\n      0x20\n        /* \"#utility.yul\":16823:16829   */\n      dup3\n        /* \"#utility.yul\":16819:16834   */\n      add\n        /* \"#utility.yul\":16812:16843   */\n      mstore\n        /* \"#utility.yul\":16627:16850   */\n      pop\n      jump\t// out\n        /* \"#utility.yul\":16856:17222   */\n    tag_195:\n        /* \"#utility.yul\":16998:17001   */\n      0x00\n        /* \"#utility.yul\":17019:17086   */\n      tag_348\n        /* \"#utility.yul\":17083:17085   */\n      0x24\n        /* \"#utility.yul\":17078:17081   */\n      dup4\n        /* \"#utility.yul\":17019:17086   */\n      tag_152\n      jump\t// in\n    tag_348:\n        /* \"#utility.yul\":17012:17086   */\n      swap2\n      pop\n        /* \"#utility.yul\":17095:17188   */\n      tag_349\n        /* \"#utility.yul\":17184:17187   */\n      dup3\n        /* \"#utility.yul\":17095:17188   */\n      tag_194\n      jump\t// in\n    tag_349:\n        /* \"#utility.yul\":17213:17215   */\n      0x40\n        /* \"#utility.yul\":17208:17211   */\n      dup3\n        /* \"#utility.yul\":17204:17216   */\n      add\n        /* \"#utility.yul\":17197:17216   */\n      swap1\n      pop\n        /* \"#utility.yul\":16856:17222   */\n      swap2\n      swap1\n      pop\n      jump\t// out\n        /* \"#utility.yul\":17228:17647   */\n    tag_135:\n        /* \"#utility.yul\":17394:17398   */\n      0x00\n        /* \"#utility.yul\":17432:17434   */\n      0x20\n        /* \"#utility.yul\":17421:17430   */\n      dup3\n        /* \"#utility.yul\":17417:17435   */\n      add\n        /* \"#utility.yul\":17409:17435   */\n      swap1\n      pop\n        /* \"#utility.yul\":17481:17490   */\n      dup2\n        /* \"#utility.yul\":17475:17479   */\n      dup2\n        /* \"#utility.yul\":17471:17491   */\n      sub\n        /* \"#utility.yul\":17467:17468   */\n      0x00\n        /* \"#utility.yul\":17456:17465   */\n      dup4\n        /* \"#utility.yul\":17452:17469   */\n      add\n        /* \"#utility.yul\":17445:17492   */\n      mstore\n        /* \"#utility.yul\":17509:17640   */\n      tag_351\n        /* \"#utility.yul\":17635:17639   */\n      dup2\n        /* \"#utility.yul\":17509:17640   */\n      tag_195\n      jump\t// in\n    tag_351:\n        /* \"#utility.yul\":17501:17640   */\n      swap1\n      pop\n        /* \"#utility.yul\":17228:17647   */\n      swap2\n      swap1\n      pop\n      jump\t// out\n        /* \"#utility.yul\":17653:17879   */\n    tag_196:\n        /* \"#utility.yul\":17793:17827   */\n      0x55534443703a206e6577206f776e65722063616e6e6f74206265207a65726f20\n        /* \"#utility.yul\":17789:17790   */\n      0x00\n        /* \"#utility.yul\":17781:17787   */\n      dup3\n        /* \"#utility.yul\":17777:17791   */\n      add\n        /* \"#utility.yul\":17770:17828   */\n      mstore\n        /* \"#utility.yul\":17862:17871   */\n      0x6164647265737300000000000000000000000000000000000000000000000000\n        /* \"#utility.yul\":17857:17859   */\n      0x20\n        /* \"#utility.yul\":17849:17855   */\n      dup3\n        /* \"#utility.yul\":17845:17860   */\n      add\n        /* \"#utility.yul\":17838:17872   */\n      mstore\n        /* \"#utility.yul\":17653:17879   */\n      pop\n      jump\t// out\n        /* \"#utility.yul\":17885:18251   */\n    tag_197:\n        /* \"#utility.yul\":18027:18030   */\n      0x00\n        /* \"#utility.yul\":18048:18115   */\n      tag_354\n        /* \"#utility.yul\":18112:18114   */\n      0x27\n        /* \"#utility.yul\":18107:18110   */\n      dup4\n        /* \"#utility.yul\":18048:18115   */\n      tag_152\n      jump\t// in\n    tag_354:\n        /* \"#utility.yul\":18041:18115   */\n      swap2\n      pop\n        /* \"#utility.yul\":18124:18217   */\n      tag_355\n        /* \"#utility.yul\":18213:18216   */\n      dup3\n        /* \"#utility.yul\":18124:18217   */\n      tag_196\n      jump\t// in\n    tag_355:\n        /* \"#utility.yul\":18242:18244   */\n      0x40\n        /* \"#utility.yul\":18237:18240   */\n      dup3\n        /* \"#utility.yul\":18233:18245   */\n      add\n        /* \"#utility.yul\":18226:18245   */\n      swap1\n      pop\n        /* \"#utility.yul\":17885:18251   */\n      swap2\n      swap1\n      pop\n      jump\t// out\n        /* \"#utility.yul\":18257:18676   */\n    tag_150:\n        /* \"#utility.yul\":18423:18427   */\n      0x00\n        /* \"#utility.yul\":18461:18463   */\n      0x20\n        /* \"#utility.yul\":18450:18459   */\n      dup3\n        /* \"#utility.yul\":18446:18464   */\n      add\n        /* \"#utility.yul\":18438:18464   */\n      swap1\n      pop\n        /* \"#utility.yul\":18510:18519   */\n      dup2\n        /* \"#utility.yul\":18504:18508   */\n      dup2\n        /* \"#utility.yul\":18500:18520   */\n      sub\n        /* \"#utility.yul\":18496:18497   */\n      0x00\n        /* \"#utility.yul\":18485:18494   */\n      dup4\n        /* \"#utility.yul\":18481:18498   */\n      add\n        /* \"#utility.yul\":18474:18521   */\n      mstore\n        /* \"#utility.yul\":18538:18669   */\n      tag_357\n        /* \"#utility.yul\":18664:18668   */\n      dup2\n        /* \"#utility.yul\":18538:18669   */\n      tag_197\n      jump\t// in\n    tag_357:\n        /* \"#utility.yul\":18530:18669   */\n      swap1\n      pop\n        /* \"#utility.yul\":18257:18676   */\n      swap2\n      swap1\n      pop\n      jump\t// out\n\n    auxdata: 0xa2646970667358221220bc191f51784ef4224aae69b00609f29763a93a6f312f2ee6907391dee5bae08364736f6c634300080a0033\n}\n",
    "bytecode": {
      "linkReferences": {},
      "object": "60806040523480156200001157600080fd5b5060405162001d7038038062001d7083398181016040528101906200003791906200012a565b33600460006101000a81548173ffffffffffffffffffffffffffffffffffffffff021916908373ffffffffffffffffffffffffffffffffffffffff16021790555080600360006101000a81548173ffffffffffffffffffffffffffffffffffffffff021916908373ffffffffffffffffffffffffffffffffffffffff160217905550506200015c565b600080fd5b600073ffffffffffffffffffffffffffffffffffffffff82169050919050565b6000620000f282620000c5565b9050919050565b6200010481620000e5565b81146200011057600080fd5b50565b6000815190506200012481620000f9565b92915050565b600060208284031215620001435762000142620000c0565b5b6000620001538482850162000113565b91505092915050565b611c04806200016c6000396000f3fe608060405234801561001057600080fd5b50600436106100f55760003560e01c806370a0823111610097578063a9059cbb11610066578063a9059cbb14610274578063dd62ed3e146102a4578063e78cea92146102d4578063f2fde38b146102f2576100f5565b806370a08231146101ec5780638da5cb5b1461021c5780638dd148021461023a57806395d89b4114610256576100f5565b806318160ddd116100d357806318160ddd146101645780631e458bee1461018257806323b872dd1461019e578063313ce567146101ce576100f5565b806306fdde03146100fa578063095ea7b314610118578063158a1cc314610148575b600080fd5b61010261030e565b60405161010f91906112fa565b60405180910390f35b610132600480360381019061012d91906113b5565b610347565b60405161013f9190611410565b60405180910390f35b610162600480360381019061015d9190611461565b610439565b005b61016c6106b6565b60405161017991906114c3565b60405180910390f35b61019c60048036038101906101979190611461565b6106bc565b005b6101b860048036038101906101b391906114de565b610927565b6040516101c59190611410565b60405180910390f35b6101d6610c88565b6040516101e3919061154d565b60405180910390f35b61020660048036038101906102019190611568565b610c8d565b60405161021391906114c3565b60405180910390f35b610224610ca5565b60405161023191906115a4565b60405180910390f35b610254600480360381019061024f9190611568565b610ccb565b005b61025e610e8b565b60405161026b91906112fa565b60405180910390f35b61028e600480360381019061028991906113b5565b610ec4565b60405161029b9190611410565b60405180910390f35b6102be60048036038101906102b991906115bf565b6110d2565b6040516102cb91906114c3565b60405180910390f35b6102dc6110f7565b6040516102e991906115a4565b60405180910390f35b61030c60048036038101906103079190611568565b61111d565b005b6040518060400160405280601681526020017f427269646765642055534443202850726976617465290000000000000000000081525081565b600081600260003373ffffffffffffffffffffffffffffffffffffffff1673ffffffffffffffffffffffffffffffffffffffff16815260200190815260200160002060008573ffffffffffffffffffffffffffffffffffffffff1673ffffffffffffffffffffffffffffffffffffffff168152602001908152602001600020819055508273ffffffffffffffffffffffffffffffffffffffff163373ffffffffffffffffffffffffffffffffffffffff167f8c5be1e5ebec7d5bd14f71427d1e84f3dd0314c0f7b2291e5b200ac8c7c3b9258460405161042791906114c3565b60405180910390a36001905092915050565b600360009054906101000a900473ffffffffffffffffffffffffffffffffffffffff1673ffffffffffffffffffffffffffffffffffffffff163373ffffffffffffffffffffffffffffffffffffffff16146104c9576040517f08c379a00000000000000000000000000000000000000000000000000000000081526004016104c09061164b565b60405180910390fd5b81600160008573ffffffffffffffffffffffffffffffffffffffff1673ffffffffffffffffffffffffffffffffffffffff16815260200190815260200160002054101561054b576040517f08c379a0000000000000000000000000000000000000000000000000000000008152600401610542906116dd565b60405180910390fd5b6000821161058e576040517f08c379a000000000000000000000000000000000000000000000000000000000815260040161058590611749565b60405180910390fd5b81600160008573ffffffffffffffffffffffffffffffffffffffff1673ffffffffffffffffffffffffffffffffffffffff16815260200190815260200160002060008282546105dd9190611798565b92505081905550816000808282546105f59190611798565b92505081905550600073ffffffffffffffffffffffffffffffffffffffff168373ffffffffffffffffffffffffffffffffffffffff167fddf252ad1be2c89b69c2b068fc378daa952ba7f163c4a11628f55a4df523b3ef8460405161065a91906114c3565b60405180910390a3808373ffffffffffffffffffffffffffffffffffffffff167fc6c4132f6250531f66c30d176444d900432e0ff7bb9e3e4ef8c8b33670218419846040516106a991906114c3565b60405180910390a3505050565b60005481565b600360009054906101000a900473ffffffffffffffffffffffffffffffffffffffff1673ffffffffffffffffffffffffffffffffffffffff163373ffffffffffffffffffffffffffffffffffffffff161461074c576040517f08c379a00000000000000000000000000000000000000000000000000000000081526004016107439061164b565b60405180910390fd5b600073ffffffffffffffffffffffffffffffffffffffff168373ffffffffffffffffffffffffffffffffffffffff1614156107bc576040517f08c379a00000000000000000000000000000000000000000000000000000000081526004016107b390611818565b60405180910390fd5b600082116107ff576040517f08c379a00000000000000000000000000000000000000000000000000000000081526004016107f690611884565b60405180910390fd5b8160008082825461081091906118a4565b9250508190555081600160008573ffffffffffffffffffffffffffffffffffffffff1673ffffffffffffffffffffffffffffffffffffffff168152602001908152602001600020600082825461086691906118a4565b925050819055508273ffffffffffffffffffffffffffffffffffffffff16600073ffffffffffffffffffffffffffffffffffffffff167fddf252ad1be2c89b69c2b068fc378daa952ba7f163c4a11628f55a4df523b3ef846040516108cb91906114c3565b60405180910390a3808373ffffffffffffffffffffffffffffffffffffffff167f3dec94b8abc8f801eaade1616d3aadd3114b556a284267905e0a053b2df398928460405161091a91906114c3565b60405180910390a3505050565b60008073ffffffffffffffffffffffffffffffffffffffff168373ffffffffffffffffffffffffffffffffffffffff161415610998576040517f08c379a000000000000000000000000000000000000000000000000000000000815260040161098f90611946565b60405180910390fd5b81600160008673ffffffffffffffffffffffffffffffffffffffff1673ffffffffffffffffffffffffffffffffffffffff168152602001908152602001600020541015610a1a576040517f08c379a0000000000000000000000000000000000000000000000000000000008152600401610a11906119b2565b60405180910390fd5b81600260008673ffffffffffffffffffffffffffffffffffffffff1673ffffffffffffffffffffffffffffffffffffffff16815260200190815260200160002060003373ffffffffffffffffffffffffffffffffffffffff1673ffffffffffffffffffffffffffffffffffffffff168152602001908152602001600020541015610ad9576040517f08c379a0000000000000000000000000000000000000000000000000000000008152600401610ad090611a1e565b60405180910390fd5b81600260008673ffffffffffffffffffffffffffffffffffffffff1673ffffffffffffffffffffffffffffffffffffffff16815260200190815260200160002060003373ffffffffffffffffffffffffffffffffffffffff1673ffffffffffffffffffffffffffffffffffffffff1681526020019081526020016000206000828254610b659190611798565b9250508190555081600160008673ffffffffffffffffffffffffffffffffffffffff1673ffffffffffffffffffffffffffffffffffffffff1681526020019081526020016000206000828254610bbb9190611798565b9250508190555081600160008573ffffffffffffffffffffffffffffffffffffffff1673ffffffffffffffffffffffffffffffffffffffff1681526020019081526020016000206000828254610c1191906118a4565b925050819055508273ffffffffffffffffffffffffffffffffffffffff168473ffffffffffffffffffffffffffffffffffffffff167fddf252ad1be2c89b69c2b068fc378daa952ba7f163c4a11628f55a4df523b3ef84604051610c7591906114c3565b60405180910390a3600190509392505050565b600681565b60016020528060005260406000206000915090505481565b600460009054906101000a900473ffffffffffffffffffffffffffffffffffffffff1681565b600460009054906101000a900473ffffffffffffffffffffffffffffffffffffffff1673ffffffffffffffffffffffffffffffffffffffff163373ffffffffffffffffffffffffffffffffffffffff1614610d5b576040517f08c379a0000000000000000000000000000000000000000000000000000000008152600401610d5290611a8a565b60405180910390fd5b600073ffffffffffffffffffffffffffffffffffffffff168173ffffffffffffffffffffffffffffffffffffffff161415610dcb576040517f08c379a0000000000000000000000000000000000000000000000000000000008152600401610dc290611b1c565b60405180910390fd5b8073ffffffffffffffffffffffffffffffffffffffff16600360009054906101000a900473ffffffffffffffffffffffffffffffffffffffff1673ffffffffffffffffffffffffffffffffffffffff167faae9beddccf584528e87b66c6ff2563825c8a1433305b8a656e9b5f9bf39049960405160405180910390a380600360006101000a81548173ffffffffffffffffffffffffffffffffffffffff021916908373ffffffffffffffffffffffffffffffffffffffff16021790555050565b6040518060400160405280600581526020017f555344437000000000000000000000000000000000000000000000000000000081525081565b60008073ffffffffffffffffffffffffffffffffffffffff168373ffffffffffffffffffffffffffffffffffffffff161415610f35576040517f08c379a0000000000000000000000000000000000000000000000000000000008152600401610f2c90611946565b60405180910390fd5b81600160003373ffffffffffffffffffffffffffffffffffffffff1673ffffffffffffffffffffffffffffffffffffffff168152602001908152602001600020541015610fb7576040517f08c379a0000000000000000000000000000000000000000000000000000000008152600401610fae906119b2565b60405180910390fd5b81600160003373ffffffffffffffffffffffffffffffffffffffff1673ffffffffffffffffffffffffffffffffffffffff16815260200190815260200160002060008282546110069190611798565b9250508190555081600160008573ffffffffffffffffffffffffffffffffffffffff1673ffffffffffffffffffffffffffffffffffffffff168152602001908152602001600020600082825461105c91906118a4565b925050819055508273ffffffffffffffffffffffffffffffffffffffff163373ffffffffffffffffffffffffffffffffffffffff167fddf252ad1be2c89b69c2b068fc378daa952ba7f163c4a11628f55a4df523b3ef846040516110c091906114c3565b60405180910390a36001905092915050565b6002602052816000526040600020602052806000526040600020600091509150505481565b600360009054906101000a900473ffffffffffffffffffffffffffffffffffffffff1681565b600460009054906101000a900473ffffffffffffffffffffffffffffffffffffffff1673ffffffffffffffffffffffffffffffffffffffff163373ffffffffffffffffffffffffffffffffffffffff16146111ad576040517f08c379a00000000000000000000000000000000000000000000000000000000081526004016111a490611a8a565b60405180910390fd5b600073ffffffffffffffffffffffffffffffffffffffff168173ffffffffffffffffffffffffffffffffffffffff16141561121d576040517f08c379a000000000000000000000000000000000000000000000000000000000815260040161121490611bae565b60405180910390fd5b80600460006101000a81548173ffffffffffffffffffffffffffffffffffffffff021916908373ffffffffffffffffffffffffffffffffffffffff16021790555050565b600081519050919050565b600082825260208201905092915050565b60005b8381101561129b578082015181840152602081019050611280565b838111156112aa576000848401525b50505050565b6000601f19601f8301169050919050565b60006112cc82611261565b6112d6818561126c565b93506112e681856020860161127d565b6112ef816112b0565b840191505092915050565b6000602082019050818103600083015261131481846112c1565b905092915050565b600080fd5b600073ffffffffffffffffffffffffffffffffffffffff82169050919050565b600061134c82611321565b9050919050565b61135c81611341565b811461136757600080fd5b50565b60008135905061137981611353565b92915050565b6000819050919050565b6113928161137f565b811461139d57600080fd5b50565b6000813590506113af81611389565b92915050565b600080604083850312156113cc576113cb61131c565b5b60006113da8582860161136a565b92505060206113eb858286016113a0565b9150509250929050565b60008115159050919050565b61140a816113f5565b82525050565b60006020820190506114256000830184611401565b92915050565b6000819050919050565b61143e8161142b565b811461144957600080fd5b50565b60008135905061145b81611435565b92915050565b60008060006060848603121561147a5761147961131c565b5b60006114888682870161136a565b9350506020611499868287016113a0565b92505060406114aa8682870161144c565b9150509250925092565b6114bd8161137f565b82525050565b60006020820190506114d860008301846114b4565b92915050565b6000806000606084860312156114f7576114f661131c565b5b60006115058682870161136a565b93505060206115168682870161136a565b9250506040611527868287016113a0565b9150509250925092565b600060ff82169050919050565b61154781611531565b82525050565b6000602082019050611562600083018461153e565b92915050565b60006020828403121561157e5761157d61131c565b5b600061158c8482850161136a565b91505092915050565b61159e81611341565b82525050565b60006020820190506115b96000830184611595565b92915050565b600080604083850312156115d6576115d561131c565b5b60006115e48582860161136a565b92505060206115f58582860161136a565b9150509250929050565b7f55534443703a2063616c6c6572206973206e6f74207468652062726964676500600082015250565b6000611635601f8361126c565b9150611640826115ff565b602082019050919050565b6000602082019050818103600083015261166481611628565b9050919050565b7f55534443703a20696e73756666696369656e742062616c616e636520746f206260008201527f75726e0000000000000000000000000000000000000000000000000000000000602082015250565b60006116c760238361126c565b91506116d28261166b565b604082019050919050565b600060208201905081810360008301526116f6816116ba565b9050919050565b7f55534443703a206275726e20616d6f756e74206d757374206265203e20300000600082015250565b6000611733601e8361126c565b915061173e826116fd565b602082019050919050565b6000602082019050818103600083015261176281611726565b9050919050565b7f4e487b7100000000000000000000000000000000000000000000000000000000600052601160045260246000fd5b60006117a38261137f565b91506117ae8361137f565b9250828210156117c1576117c0611769565b5b828203905092915050565b7f55534443703a206d696e7420746f207a65726f20616464726573730000000000600082015250565b6000611802601b8361126c565b915061180d826117cc565b602082019050919050565b60006020820190508181036000830152611831816117f5565b9050919050565b7f55534443703a206d696e7420616d6f756e74206d757374206265203e20300000600082015250565b600061186e601e8361126c565b915061187982611838565b602082019050919050565b6000602082019050818103600083015261189d81611861565b9050919050565b60006118af8261137f565b91506118ba8361137f565b9250827fffffffffffffffffffffffffffffffffffffffffffffffffffffffffffffffff038211156118ef576118ee611769565b5b828201905092915050565b7f55534443703a207472616e7366657220746f207a65726f206164647265737300600082015250565b6000611930601f8361126c565b915061193b826118fa565b602082019050919050565b6000602082019050818103600083015261195f81611923565b9050919050565b7f55534443703a20696e73756666696369656e742062616c616e63650000000000600082015250565b600061199c601b8361126c565b91506119a782611966565b602082019050919050565b600060208201905081810360008301526119cb8161198f565b9050919050565b7f55534443703a20696e73756666696369656e7420616c6c6f77616e6365000000600082015250565b6000611a08601d8361126c565b9150611a13826119d2565b602082019050919050565b60006020820190508181036000830152611a37816119fb565b9050919050565b7f55534443703a2063616c6c6572206973206e6f7420746865206f776e65720000600082015250565b6000611a74601e8361126c565b9150611a7f82611a3e565b602082019050919050565b60006020820190508181036000830152611aa381611a67565b9050919050565b7f55534443703a206272696467652063616e6e6f74206265207a65726f2061646460008201527f7265737300000000000000000000000000000000000000000000000000000000602082015250565b6000611b0660248361126c565b9150611b1182611aaa565b604082019050919050565b60006020820190508181036000830152611b3581611af9565b9050919050565b7f55534443703a206e6577206f776e65722063616e6e6f74206265207a65726f2060008201527f6164647265737300000000000000000000000000000000000000000000000000602082015250565b6000611b9860278361126c565b9150611ba382611b3c565b604082019050919050565b60006020820190508181036000830152611bc781611b8b565b905091905056fea2646970667358221220bc191f51784ef4224aae69b00609f29763a93a6f312f2ee6907391dee5bae08364736f6c634300080a0033",
      "opcodes": "PUSH1 0x80 PUSH1 0x40 MSTORE CALLVALUE DUP1 ISZERO PUSH3 0x11 JUMPI PUSH1 0x0 DUP1 REVERT JUMPDEST POP PUSH1 0x40 MLOAD PUSH3 0x1D70 CODESIZE SUB DUP1 PUSH3 0x1D70 DUP4 CODECOPY DUP2 DUP2 ADD PUSH1 0x40 MSTORE DUP2 ADD SWAP1 PUSH3 0x37 SWAP2 SWAP1 PUSH3 0x12A JUMP JUMPDEST CALLER PUSH1 0x4 PUSH1 0x0 PUSH2 0x100 EXP DUP2 SLOAD DUP2 PUSH20 0xFFFFFFFFFFFFFFFFFFFFFFFFFFFFFFFFFFFFFFFF MUL NOT AND SWAP1 DUP4 PUSH20 0xFFFFFFFFFFFFFFFFFFFFFFFFFFFFFFFFFFFFFFFF AND MUL OR SWAP1 SSTORE POP DUP1 PUSH1 0x3 PUSH1 0x0 PUSH2 0x100 EXP DUP2 SLOAD DUP2 PUSH20 0xFFFFFFFFFFFFFFFFFFFFFFFFFFFFFFFFFFFFFFFF MUL NOT AND SWAP1 DUP4 PUSH20 0xFFFFFFFFFFFFFFFFFFFFFFFFFFFFFFFFFFFFFFFF AND MUL OR SWAP1 SSTORE POP POP PUSH3 0x15C JUMP JUMPDEST PUSH1 0x0 DUP1 REVERT JUMPDEST PUSH1 0x0 PUSH20 0xFFFFFFFFFFFFFFFFFFFFFFFFFFFFFFFFFFFFFFFF DUP3 AND SWAP1 POP SWAP2 SWAP1 POP JUMP JUMPDEST PUSH1 0x0 PUSH3 0xF2 DUP3 PUSH3 0xC5 JUMP JUMPDEST SWAP1 POP SWAP2 SWAP1 POP JUMP JUMPDEST PUSH3 0x104 DUP2 PUSH3 0xE5 JUMP JUMPDEST DUP2 EQ PUSH3 0x110 JUMPI PUSH1 0x0 DUP1 REVERT JUMPDEST POP JUMP JUMPDEST PUSH1 0x0 DUP2 MLOAD SWAP1 POP PUSH3 0x124 DUP2 PUSH3 0xF9 JUMP JUMPDEST SWAP3 SWAP2 POP POP JUMP JUMPDEST PUSH1 0x0 PUSH1 0x20 DUP3 DUP5 SUB SLT ISZERO PUSH3 0x143 JUMPI PUSH3 0x142 PUSH3 0xC0 JUMP JUMPDEST JUMPDEST PUSH1 0x0 PUSH3 0x153 DUP5 DUP3 DUP6 ADD PUSH3 0x113 JUMP JUMPDEST SWAP2 POP POP SWAP3 SWAP2 POP POP JUMP JUMPDEST PUSH2 0x1C04 DUP1 PUSH3 0x16C PUSH1 0x0 CODECOPY PUSH1 0x0 RETURN INVALID PUSH1 0x80 PUSH1 0x40 MSTORE CALLVALUE DUP1 ISZERO PUSH2 0x10 JUMPI PUSH1 0x0 DUP1 REVERT JUMPDEST POP PUSH1 0x4 CALLDATASIZE LT PUSH2 0xF5 JUMPI PUSH1 0x0 CALLDATALOAD PUSH1 0xE0 SHR DUP1 PUSH4 0x70A08231 GT PUSH2 0x97 JUMPI DUP1 PUSH4 0xA9059CBB GT PUSH2 0x66 JUMPI DUP1 PUSH4 0xA9059CBB EQ PUSH2 0x274 JUMPI DUP1 PUSH4 0xDD62ED3E EQ PUSH2 0x2A4 JUMPI DUP1 PUSH4 0xE78CEA92 EQ PUSH2 0x2D4 JUMPI DUP1 PUSH4 0xF2FDE38B EQ PUSH2 0x2F2 JUMPI PUSH2 0xF5 JUMP JUMPDEST DUP1 PUSH4 0x70A08231 EQ PUSH2 0x1EC JUMPI DUP1 PUSH4 0x8DA5CB5B EQ PUSH2 0x21C JUMPI DUP1 PUSH4 0x8DD14802 EQ PUSH2 0x23A JUMPI DUP1 PUSH4 0x95D89B41 EQ PUSH2 0x256 JUMPI PUSH2 0xF5 JUMP JUMPDEST DUP1 PUSH4 0x18160DDD GT PUSH2 0xD3 JUMPI DUP1 PUSH4 0x18160DDD EQ PUSH2 0x164 JUMPI DUP1 PUSH4 0x1E458BEE EQ PUSH2 0x182 JUMPI DUP1 PUSH4 0x23B872DD EQ PUSH2 0x19E JUMPI DUP1 PUSH4 0x313CE567 EQ PUSH2 0x1CE JUMPI PUSH2 0xF5 JUMP JUMPDEST DUP1 PUSH4 0x6FDDE03 EQ PUSH2 0xFA JUMPI DUP1 PUSH4 0x95EA7B3 EQ PUSH2 0x118 JUMPI DUP1 PUSH4 0x158A1CC3 EQ PUSH2 0x148 JUMPI JUMPDEST PUSH1 0x0 DUP1 REVERT JUMPDEST PUSH2 0x102 PUSH2 0x30E JUMP JUMPDEST PUSH1 0x40 MLOAD PUSH2 0x10F SWAP2 SWAP1 PUSH2 0x12FA JUMP JUMPDEST PUSH1 0x40 MLOAD DUP1 SWAP2 SUB SWAP1 RETURN JUMPDEST PUSH2 0x132 PUSH1 0x4 DUP1 CALLDATASIZE SUB DUP2 ADD SWAP1 PUSH2 0x12D SWAP2 SWAP1 PUSH2 0x13B5 JUMP JUMPDEST PUSH2 0x347 JUMP JUMPDEST PUSH1 0x40 MLOAD PUSH2 0x13F SWAP2 SWAP1 PUSH2 0x1410 JUMP JUMPDEST PUSH1 0x40 MLOAD DUP1 SWAP2 SUB SWAP1 RETURN JUMPDEST PUSH2 0x162 PUSH1 0x4 DUP1 CALLDATASIZE SUB DUP2 ADD SWAP1 PUSH2 0x15D SWAP2 SWAP1 PUSH2 0x1461 JUMP JUMPDEST PUSH2 0x439 JUMP JUMPDEST STOP JUMPDEST PUSH2 0x16C PUSH2 0x6B6 JUMP JUMPDEST PUSH1 0x40 MLOAD PUSH2 0x179 SWAP2 SWAP1 PUSH2 0x14C3 JUMP JUMPDEST PUSH1 0x40 MLOAD DUP1 SWAP2 SUB SWAP1 RETURN JUMPDEST PUSH2 0x19C PUSH1 0x4 DUP1 CALLDATASIZE SUB DUP2 ADD SWAP1 PUSH2 0x197 SWAP2 SWAP1 PUSH2 0x1461 JUMP JUMPDEST PUSH2 0x6BC JUMP JUMPDEST STOP JUMPDEST PUSH2 0x1B8 PUSH1 0x4 DUP1 CALLDATASIZE SUB DUP2 ADD SWAP1 PUSH2 0x1B3 SWAP2 SWAP1 PUSH2 0x14DE JUMP JUMPDEST PUSH2 0x927 JUMP JUMPDEST PUSH1 0x40 MLOAD PUSH2 0x1C5 SWAP2 SWAP1 PUSH2 0x1410 JUMP JUMPDEST PUSH1 0x40 MLOAD DUP1 SWAP2 SUB SWAP1 RETURN JUMPDEST PUSH2 0x1D6 PUSH2 0xC88 JUMP JUMPDEST PUSH1 0x40 MLOAD PUSH2 0x1E3 SWAP2 SWAP1 PUSH2 0x154D JUMP JUMPDEST PUSH1 0x40 MLOAD DUP1 SWAP2 SUB SWAP1 RETURN JUMPDEST PUSH2 0x206 PUSH1 0x4 DUP1 CALLDATASIZE SUB DUP2 ADD SWAP1 PUSH2 0x201 SWAP2 SWAP1 PUSH2 0x1568 JUMP JUMPDEST PUSH2 0xC8D JUMP JUMPDEST PUSH1 0x40 MLOAD PUSH2 0x213 SWAP2 SWAP1 PUSH2 0x14C3 JUMP JUMPDEST PUSH1 0x40 MLOAD DUP1 SWAP2 SUB SWAP1 RETURN JUMPDEST PUSH2 0x224 PUSH2 0xCA5 JUMP JUMPDEST PUSH1 0x40 MLOAD PUSH2 0x231 SWAP2 SWAP1 PUSH2 0x15A4 JUMP JUMPDEST PUSH1 0x40 MLOAD DUP1 SWAP2 SUB SWAP1 RETURN JUMPDEST PUSH2 0x254 PUSH1 0x4 DUP1 CALLDATASIZE SUB DUP2 ADD SWAP1 PUSH2 0x24F SWAP2 SWAP1 PUSH2 0x1568 JUMP JUMPDEST PUSH2 0xCCB JUMP JUMPDEST STOP JUMPDEST PUSH2 0x25E PUSH2 0xE8B JUMP JUMPDEST PUSH1 0x40 MLOAD PUSH2 0x26B SWAP2 SWAP1 PUSH2 0x12FA JUMP JUMPDEST PUSH1 0x40 MLOAD DUP1 SWAP2 SUB SWAP1 RETURN JUMPDEST PUSH2 0x28E PUSH1 0x4 DUP1 CALLDATASIZE SUB DUP2 ADD SWAP1 PUSH2 0x289 SWAP2 SWAP1 PUSH2 0x13B5 JUMP JUMPDEST PUSH2 0xEC4 JUMP JUMPDEST PUSH1 0x40 MLOAD PUSH2 0x29B SWAP2 SWAP1 PUSH2 0x1410 JUMP JUMPDEST PUSH1 0x40 MLOAD DUP1 SWAP2 SUB SWAP1 RETURN JUMPDEST PUSH2 0x2BE PUSH1 0x4 DUP1 CALLDATASIZE SUB DUP2 ADD SWAP1 PUSH2 0x2B9 SWAP2 SWAP1 PUSH2 0x15BF JUMP JUMPDEST PUSH2 0x10D2 JUMP JUMPDEST PUSH1 0x40 MLOAD PUSH2 0x2CB SWAP2 SWAP1 PUSH2 0x14C3 JUMP JUMPDEST PUSH1 0x40 MLOAD DUP1 SWAP2 SUB SWAP1 RETURN JUMPDEST PUSH2 0x2DC PUSH2 0x10F7 JUMP JUMPDEST PUSH1 0x40 MLOAD PUSH2 0x2E9 SWAP2 SWAP1 PUSH2 0x15A4 JUMP JUMPDEST PUSH1 0x40 MLOAD DUP1 SWAP2 SUB SWAP1 RETURN JUMPDEST PUSH2 0x30C PUSH1 0x4 DUP1 CALLDATASIZE SUB DUP2 ADD SWAP1 PUSH2 0x307 SWAP2 SWAP1 PUSH2 0x1568 JUMP JUMPDEST PUSH2 0x111D JUMP JUMPDEST STOP JUMPDEST PUSH1 0x40 MLOAD DUP1 PUSH1 0x40 ADD PUSH1 0x40 MSTORE DUP1 PUSH1 0x16 DUP2 MSTORE PUSH1 0x20 ADD PUSH32 0x4272696467656420555344432028507269766174652900000000000000000000 DUP2 MSTORE POP DUP2 JUMP JUMPDEST PUSH1 0x0 DUP2 PUSH1 0x2 PUSH1 0x0 CALLER PUSH20 0xFFFFFFFFFFFFFFFFFFFFFFFFFFFFFFFFFFFFFFFF AND PUSH20 0xFFFFFFFFFFFFFFFFFFFFFFFFFFFFFFFFFFFFFFFF AND DUP2 MSTORE PUSH1 0x20 ADD SWAP1 DUP2 MSTORE PUSH1 0x20 ADD PUSH1 0x0 KECCAK256 PUSH1 0x0 DUP6 PUSH20 0xFFFFFFFFFFFFFFFFFFFFFFFFFFFFFFFFFFFFFFFF AND PUSH20 0xFFFFFFFFFFFFFFFFFFFFFFFFFFFFFFFFFFFFFFFF AND DUP2 MSTORE PUSH1 0x20 ADD SWAP1 DUP2 MSTORE PUSH1 0x20 ADD PUSH1 0x0 KECCAK256 DUP2 SWAP1 SSTORE POP DUP3 PUSH20 0xFFFFFFFFFFFFFFFFFFFFFFFFFFFFFFFFFFFFFFFF AND CALLER PUSH20 0xFFFFFFFFFFFFFFFFFFFFFFFFFFFFFFFFFFFFFFFF AND PUSH32 0x8C5BE1E5EBEC7D5BD14F71427D1E84F3DD0314C0F7B2291E5B200AC8C7C3B925 DUP5 PUSH1 0x40 MLOAD PUSH2 0x427 SWAP2 SWAP1 PUSH2 0x14C3 JUMP JUMPDEST PUSH1 0x40 MLOAD DUP1 SWAP2 SUB SWAP1 LOG3 PUSH1 0x1 SWAP1 POP SWAP3 SWAP2 POP POP JUMP JUMPDEST PUSH1 0x3 PUSH1 0x0 SWAP1 SLOAD SWAP1 PUSH2 0x100 EXP SWAP1 DIV PUSH20 0xFFFFFFFFFFFFFFFFFFFFFFFFFFFFFFFFFFFFFFFF AND PUSH20 0xFFFFFFFFFFFFFFFFFFFFFFFFFFFFFFFFFFFFFFFF AND CALLER PUSH20 0xFFFFFFFFFFFFFFFFFFFFFFFFFFFFFFFFFFFFFFFF AND EQ PUSH2 0x4C9 JUMPI PUSH1 0x40 MLOAD PUSH32 0x8C379A000000000000000000000000000000000000000000000000000000000 DUP2 MSTORE PUSH1 0x4 ADD PUSH2 0x4C0 SWAP1 PUSH2 0x164B JUMP JUMPDEST PUSH1 0x40 MLOAD DUP1 SWAP2 SUB SWAP1 REVERT JUMPDEST DUP2 PUSH1 0x1 PUSH1 0x0 DUP6 PUSH20 0xFFFFFFFFFFFFFFFFFFFFFFFFFFFFFFFFFFFFFFFF AND PUSH20 0xFFFFFFFFFFFFFFFFFFFFFFFFFFFFFFFFFFFFFFFF AND DUP2 MSTORE PUSH1 0x20 ADD SWAP1 DUP2 MSTORE PUSH1 0x20 ADD PUSH1 0x0 KECCAK256 SLOAD LT ISZERO PUSH2 0x54B JUMPI PUSH1 0x40 MLOAD PUSH32 0x8C379A000000000000000000000000000000000000000000000000000000000 DUP2 MSTORE PUSH1 0x4 ADD PUSH2 0x542 SWAP1 PUSH2 0x16DD JUMP JUMPDEST PUSH1 0x40 MLOAD DUP1 SWAP2 SUB SWAP1 REVERT JUMPDEST PUSH1 0x0 DUP3 GT PUSH2 0x58E JUMPI PUSH1 0x40 MLOAD PUSH32 0x8C379A000000000000000000000000000000000000000000000000000000000 DUP2 MSTORE PUSH1 0x4 ADD PUSH2 0x585 SWAP1 PUSH2 0x1749 JUMP JUMPDEST PUSH1 0x40 MLOAD DUP1 SWAP2 SUB SWAP1 REVERT JUMPDEST DUP2 PUSH1 0x1 PUSH1 0x0 DUP6 PUSH20 0xFFFFFFFFFFFFFFFFFFFFFFFFFFFFFFFFFFFFFFFF AND PUSH20 0xFFFFFFFFFFFFFFFFFFFFFFFFFFFFFFFFFFFFFFFF AND DUP2 MSTORE PUSH1 0x20 ADD SWAP1 DUP2 MSTORE PUSH1 0x20 ADD PUSH1 0x0 KECCAK256 PUSH1 0x0 DUP3 DUP3 SLOAD PUSH2 0x5DD SWAP2 SWAP1 PUSH2 0x1798 JUMP JUMPDEST SWAP3 POP POP DUP2 SWAP1 SSTORE POP DUP2 PUSH1 0x0 DUP1 DUP3 DUP3 SLOAD PUSH2 0x5F5 SWAP2 SWAP1 PUSH2 0x1798 JUMP JUMPDEST SWAP3 POP POP DUP2 SWAP1 SSTORE POP PUSH1 0x0 PUSH20 0xFFFFFFFFFFFFFFFFFFFFFFFFFFFFFFFFFFFFFFFF AND DUP4 PUSH20 0xFFFFFFFFFFFFFFFFFFFFFFFFFFFFFFFFFFFFFFFF AND PUSH32 0xDDF252AD1BE2C89B69C2B068FC378DAA952BA7F163C4A11628F55A4DF523B3EF DUP5 PUSH1 0x40 MLOAD PUSH2 0x65A SWAP2 SWAP1 PUSH2 0x14C3 JUMP JUMPDEST PUSH1 0x40 MLOAD DUP1 SWAP2 SUB SWAP1 LOG3 DUP1 DUP4 PUSH20 0xFFFFFFFFFFFFFFFFFFFFFFFFFFFFFFFFFFFFFFFF AND PUSH32 0xC6C4132F6250531F66C30D176444D900432E0FF7BB9E3E4EF8C8B33670218419 DUP5 PUSH1 0x40 MLOAD PUSH2 0x6A9 SWAP2 SWAP1 PUSH2 0x14C3 JUMP JUMPDEST PUSH1 0x40 MLOAD DUP1 SWAP2 SUB SWAP1 LOG3 POP POP POP JUMP JUMPDEST PUSH1 0x0 SLOAD DUP2 JUMP JUMPDEST PUSH1 0x3 PUSH1 0x0 SWAP1 SLOAD SWAP1 PUSH2 0x100 EXP SWAP1 DIV PUSH20 0xFFFFFFFFFFFFFFFFFFFFFFFFFFFFFFFFFFFFFFFF AND PUSH20 0xFFFFFFFFFFFFFFFFFFFFFFFFFFFFFFFFFFFFFFFF AND CALLER PUSH20 0xFFFFFFFFFFFFFFFFFFFFFFFFFFFFFFFFFFFFFFFF AND EQ PUSH2 0x74C JUMPI PUSH1 0x40 MLOAD PUSH32 0x8C379A000000000000000000000000000000000000000000000000000000000 DUP2 MSTORE PUSH1 0x4 ADD PUSH2 0x743 SWAP1 PUSH2 0x164B JUMP JUMPDEST PUSH1 0x40 MLOAD DUP1 SWAP2 SUB SWAP1 REVERT JUMPDEST PUSH1 0x0 PUSH20 0xFFFFFFFFFFFFFFFFFFFFFFFFFFFFFFFFFFFFFFFF AND DUP4 PUSH20 0xFFFFFFFFFFFFFFFFFFFFFFFFFFFFFFFFFFFFFFFF AND EQ ISZERO PUSH2 0x7BC JUMPI PUSH1 0x40 MLOAD PUSH32 0x8C379A000000000000000000000000000000000000000000000000000000000 DUP2 MSTORE PUSH1 0x4 ADD PUSH2 0x7B3 SWAP1 PUSH2 0x1818 JUMP JUMPDEST PUSH1 0x40 MLOAD DUP1 SWAP2 SUB SWAP1 REVERT JUMPDEST PUSH1 0x0 DUP3 GT PUSH2 0x7FF JUMPI PUSH1 0x40 MLOAD PUSH32 0x8C379A000000000000000000000000000000000000000000000000000000000 DUP2 MSTORE PUSH1 0x4 ADD PUSH2 0x7F6 SWAP1 PUSH2 0x1884 JUMP JUMPDEST PUSH1 0x40 MLOAD DUP1 SWAP2 SUB SWAP1 REVERT JUMPDEST DUP2 PUSH1 0x0 DUP1 DUP3 DUP3 SLOAD PUSH2 0x810 SWAP2 SWAP1 PUSH2 0x18A4 JUMP JUMPDEST SWAP3 POP POP DUP2 SWAP1 SSTORE POP DUP2 PUSH1 0x1 PUSH1 0x0 DUP6 PUSH20 0xFFFFFFFFFFFFFFFFFFFFFFFFFFFFFFFFFFFFFFFF AND PUSH20 0xFFFFFFFFFFFFFFFFFFFFFFFFFFFFFFFFFFFFFFFF AND DUP2 MSTORE PUSH1 0x20 ADD SWAP1 DUP2 MSTORE PUSH1 0x20 ADD PUSH1 0x0 KECCAK256 PUSH1 0x0 DUP3 DUP3 SLOAD PUSH2 0x866 SWAP2 SWAP1 PUSH2 0x18A4 JUMP JUMPDEST SWAP3 POP POP DUP2 SWAP1 SSTORE POP DUP3 PUSH20 0xFFFFFFFFFFFFFFFFFFFFFFFFFFFFFFFFFFFFFFFF AND PUSH1 0x0 PUSH20 0xFFFFFFFFFFFFFFFFFFFFFFFFFFFFFFFFFFFFFFFF AND PUSH32 0xDDF252AD1BE2C89B69C2B068FC378DAA952BA7F163C4A11628F55A4DF523B3EF DUP5 PUSH1 0x40 MLOAD PUSH2 0x8CB SWAP2 SWAP1 PUSH2 0x14C3 JUMP JUMPDEST PUSH1 0x40 MLOAD DUP1 SWAP2 SUB SWAP1 LOG3 DUP1 DUP4 PUSH20 0xFFFFFFFFFFFFFFFFFFFFFFFFFFFFFFFFFFFFFFFF AND PUSH32 0x3DEC94B8ABC8F801EAADE1616D3AADD3114B556A284267905E0A053B2DF39892 DUP5 PUSH1 0x40 MLOAD PUSH2 0x91A SWAP2 SWAP1 PUSH2 0x14C3 JUMP JUMPDEST PUSH1 0x40 MLOAD DUP1 SWAP2 SUB SWAP1 LOG3 POP POP POP JUMP JUMPDEST PUSH1 0x0 DUP1 PUSH20 0xFFFFFFFFFFFFFFFFFFFFFFFFFFFFFFFFFFFFFFFF AND DUP4 PUSH20 0xFFFFFFFFFFFFFFFFFFFFFFFFFFFFFFFFFFFFFFFF AND EQ ISZERO PUSH2 0x998 JUMPI PUSH1 0x40 MLOAD PUSH32 0x8C379A000000000000000000000000000000000000000000000000000000000 DUP2 MSTORE PUSH1 0x4 ADD PUSH2 0x98F SWAP1 PUSH2 0x1946 JUMP JUMPDEST PUSH1 0x40 MLOAD DUP1 SWAP2 SUB SWAP1 REVERT JUMPDEST DUP2 PUSH1 0x1 PUSH1 0x0 DUP7 PUSH20 0xFFFFFFFFFFFFFFFFFFFFFFFFFFFFFFFFFFFFFFFF AND PUSH20 0xFFFFFFFFFFFFFFFFFFFFFFFFFFFFFFFFFFFFFFFF AND DUP2 MSTORE PUSH1 0x20 ADD SWAP1 DUP2 MSTORE PUSH1 0x20 ADD PUSH1 0x0 KECCAK256 SLOAD LT ISZERO PUSH2 0xA1A JUMPI PUSH1 0x40 MLOAD PUSH32 0x8C379A000000000000000000000000000000000000000000000000000000000 DUP2 MSTORE PUSH1 0x4 ADD PUSH2 0xA11 SWAP1 PUSH2 0x19B2 JUMP JUMPDEST PUSH1 0x40 MLOAD DUP1 SWAP2 SUB SWAP1 REVERT JUMPDEST DUP2 PUSH1 0x2 PUSH1 0x0 DUP7 PUSH20 0xFFFFFFFFFFFFFFFFFFFFFFFFFFFFFFFFFFFFFFFF AND PUSH20 0xFFFFFFFFFFFFFFFFFFFFFFFFFFFFFFFFFFFFFFFF AND DUP2 MSTORE PUSH1 0x20 ADD SWAP1 DUP2 MSTORE PUSH1 0x20 ADD PUSH1 0x0 KECCAK256 PUSH1 0x0 CALLER PUSH20 0xFFFFFFFFFFFFFFFFFFFFFFFFFFFFFFFFFFFFFFFF AND PUSH20 0xFFFFFFFFFFFFFFFFFFFFFFFFFFFFFFFFFFFFFFFF AND DUP2 MSTORE PUSH1 0x20 ADD SWAP1 DUP2 MSTORE PUSH1 0x20 ADD PUSH1 0x0 KECCAK256 SLOAD LT ISZERO PUSH2 0xAD9 JUMPI PUSH1 0x40 MLOAD PUSH32 0x8C379A000000000000000000000000000000000000000000000000000000000 DUP2 MSTORE PUSH1 0x4 ADD PUSH2 0xAD0 SWAP1 PUSH2 0x1A1E JUMP JUMPDEST PUSH1 0x40 MLOAD DUP1 SWAP2 SUB SWAP1 REVERT JUMPDEST DUP2 PUSH1 0x2 PUSH1 0x0 DUP7 PUSH20 0xFFFFFFFFFFFFFFFFFFFFFFFFFFFFFFFFFFFFFFFF AND PUSH20 0xFFFFFFFFFFFFFFFFFFFFFFFFFFFFFFFFFFFFFFFF AND DUP2 MSTORE PUSH1 0x20 ADD SWAP1 DUP2 MSTORE PUSH1 0x20 ADD PUSH1 0x0 KECCAK256 PUSH1 0x0 CALLER PUSH20 0xFFFFFFFFFFFFFFFFFFFFFFFFFFFFFFFFFFFFFFFF AND PUSH20 0xFFFFFFFFFFFFFFFFFFFFFFFFFFFFFFFFFFFFFFFF AND DUP2 MSTORE PUSH1 0x20 ADD SWAP1 DUP2 MSTORE PUSH1 0x20 ADD PUSH1 0x0 KECCAK256 PUSH1 0x0 DUP3 DUP3 SLOAD PUSH2 0xB65 SWAP2 SWAP1 PUSH2 0x1798 JUMP JUMPDEST SWAP3 POP POP DUP2 SWAP1 SSTORE POP DUP2 PUSH1 0x1 PUSH1 0x0 DUP7 PUSH20 0xFFFFFFFFFFFFFFFFFFFFFFFFFFFFFFFFFFFFFFFF AND PUSH20 0xFFFFFFFFFFFFFFFFFFFFFFFFFFFFFFFFFFFFFFFF AND DUP2 MSTORE PUSH1 0x20 ADD SWAP1 DUP2 MSTORE PUSH1 0x20 ADD PUSH1 0x0 KECCAK256 PUSH1 0x0 DUP3 DUP3 SLOAD PUSH2 0xBBB SWAP2 SWAP1 PUSH2 0x1798 JUMP JUMPDEST SWAP3 POP POP DUP2 SWAP1 SSTORE POP DUP2 PUSH1 0x1 PUSH1 0x0 DUP6 PUSH20 0xFFFFFFFFFFFFFFFFFFFFFFFFFFFFFFFFFFFFFFFF AND PUSH20 0xFFFFFFFFFFFFFFFFFFFFFFFFFFFFFFFFFFFFFFFF AND DUP2 MSTORE PUSH1 0x20 ADD SWAP1 DUP2 MSTORE PUSH1 0x20 ADD PUSH1 0x0 KECCAK256 PUSH1 0x0 DUP3 DUP3 SLOAD PUSH2 0xC11 SWAP2 SWAP1 PUSH2 0x18A4 JUMP JUMPDEST SWAP3 POP POP DUP2 SWAP1 SSTORE POP DUP3 PUSH20 0xFFFFFFFFFFFFFFFFFFFFFFFFFFFFFFFFFFFFFFFF AND DUP5 PUSH20 0xFFFFFFFFFFFFFFFFFFFFFFFFFFFFFFFFFFFFFFFF AND PUSH32 0xDDF252AD1BE2C89B69C2B068FC378DAA952BA7F163C4A11628F55A4DF523B3EF DUP5 PUSH1 0x40 MLOAD PUSH2 0xC75 SWAP2 SWAP1 PUSH2 0x14C3 JUMP JUMPDEST PUSH1 0x40 MLOAD DUP1 SWAP2 SUB SWAP1 LOG3 PUSH1 0x1 SWAP1 POP SWAP4 SWAP3 POP POP POP JUMP JUMPDEST PUSH1 0x6 DUP2 JUMP JUMPDEST PUSH1 0x1 PUSH1 0x20 MSTORE DUP1 PUSH1 0x0 MSTORE PUSH1 0x40 PUSH1 0x0 KECCAK256 PUSH1 0x0 SWAP2 POP SWAP1 POP SLOAD DUP2 JUMP JUMPDEST PUSH1 0x4 PUSH1 0x0 SWAP1 SLOAD SWAP1 PUSH2 0x100 EXP SWAP1 DIV PUSH20 0xFFFFFFFFFFFFFFFFFFFFFFFFFFFFFFFFFFFFFFFF AND DUP2 JUMP JUMPDEST PUSH1 0x4 PUSH1 0x0 SWAP1 SLOAD SWAP1 PUSH2 0x100 EXP SWAP1 DIV PUSH20 0xFFFFFFFFFFFFFFFFFFFFFFFFFFFFFFFFFFFFFFFF AND PUSH20 0xFFFFFFFFFFFFFFFFFFFFFFFFFFFFFFFFFFFFFFFF AND CALLER PUSH20 0xFFFFFFFFFFFFFFFFFFFFFFFFFFFFFFFFFFFFFFFF AND EQ PUSH2 0xD5B JUMPI PUSH1 0x40 MLOAD PUSH32 0x8C379A000000000000000000000000000000000000000000000000000000000 DUP2 MSTORE PUSH1 0x4 ADD PUSH2 0xD52 SWAP1 PUSH2 0x1A8A JUMP JUMPDEST PUSH1 0x40 MLOAD DUP1 SWAP2 SUB SWAP1 REVERT JUMPDEST PUSH1 0x0 PUSH20 0xFFFFFFFFFFFFFFFFFFFFFFFFFFFFFFFFFFFFFFFF AND DUP2 PUSH20 0xFFFFFFFFFFFFFFFFFFFFFFFFFFFFFFFFFFFFFFFF AND EQ ISZERO PUSH2 0xDCB JUMPI PUSH1 0x40 MLOAD PUSH32 0x8C379A000000000000000000000000000000000000000000000000000000000 DUP2 MSTORE PUSH1 0x4 ADD PUSH2 0xDC2 SWAP1 PUSH2 0x1B1C JUMP JUMPDEST PUSH1 0x40 MLOAD DUP1 SWAP2 SUB SWAP1 REVERT JUMPDEST DUP1 PUSH20 0xFFFFFFFFFFFFFFFFFFFFFFFFFFFFFFFFFFFFFFFF AND PUSH1 0x3 PUSH1 0x0 SWAP1 SLOAD SWAP1 PUSH2 0x100 EXP SWAP1 DIV PUSH20 0xFFFFFFFFFFFFFFFFFFFFFFFFFFFFFFFFFFFFFFFF AND PUSH20 0xFFFFFFFFFFFFFFFFFFFFFFFFFFFFFFFFFFFFFFFF AND PUSH32 0xAAE9BEDDCCF584528E87B66C6FF2563825C8A1433305B8A656E9B5F9BF390499 PUSH1 0x40 MLOAD PUSH1 0x40 MLOAD DUP1 SWAP2 SUB SWAP1 LOG3 DUP1 PUSH1 0x3 PUSH1 0x0 PUSH2 0x100 EXP DUP2 SLOAD DUP2 PUSH20 0xFFFFFFFFFFFFFFFFFFFFFFFFFFFFFFFFFFFFFFFF MUL NOT AND SWAP1 DUP4 PUSH20 0xFFFFFFFFFFFFFFFFFFFFFFFFFFFFFFFFFFFFFFFF AND MUL OR SWAP1 SSTORE POP POP JUMP JUMPDEST PUSH1 0x40 MLOAD DUP1 PUSH1 0x40 ADD PUSH1 0x40 MSTORE DUP1 PUSH1 0x5 DUP2 MSTORE PUSH1 0x20 ADD PUSH32 0x5553444370000000000000000000000000000000000000000000000000000000 DUP2 MSTORE POP DUP2 JUMP JUMPDEST PUSH1 0x0 DUP1 PUSH20 0xFFFFFFFFFFFFFFFFFFFFFFFFFFFFFFFFFFFFFFFF AND DUP4 PUSH20 0xFFFFFFFFFFFFFFFFFFFFFFFFFFFFFFFFFFFFFFFF AND EQ ISZERO PUSH2 0xF35 JUMPI PUSH1 0x40 MLOAD PUSH32 0x8C379A000000000000000000000000000000000000000000000000000000000 DUP2 MSTORE PUSH1 0x4 ADD PUSH2 0xF2C SWAP1 PUSH2 0x1946 JUMP JUMPDEST PUSH1 0x40 MLOAD DUP1 SWAP2 SUB SWAP1 REVERT JUMPDEST DUP2 PUSH1 0x1 PUSH1 0x0 CALLER PUSH20 0xFFFFFFFFFFFFFFFFFFFFFFFFFFFFFFFFFFFFFFFF AND PUSH20 0xFFFFFFFFFFFFFFFFFFFFFFFFFFFFFFFFFFFFFFFF AND DUP2 MSTORE PUSH1 0x20 ADD SWAP1 DUP2 MSTORE PUSH1 0x20 ADD PUSH1 0x0 KECCAK256 SLOAD LT ISZERO PUSH2 0xFB7 JUMPI PUSH1 0x40 MLOAD PUSH32 0x8C379A000000000000000000000000000000000000000000000000000000000 DUP2 MSTORE PUSH1 0x4 ADD PUSH2 0xFAE SWAP1 PUSH2 0x19B2 JUMP JUMPDEST PUSH1 0x40 MLOAD DUP1 SWAP2 SUB SWAP1 REVERT JUMPDEST DUP2 PUSH1 0x1 PUSH1 0x0 CALLER PUSH20 0xFFFFFFFFFFFFFFFFFFFFFFFFFFFFFFFFFFFFFFFF AND PUSH20 0xFFFFFFFFFFFFFFFFFFFFFFFFFFFFFFFFFFFFFFFF AND DUP2 MSTORE PUSH1 0x20 ADD SWAP1 DUP2 MSTORE PUSH1 0x20 ADD PUSH1 0x0 KECCAK256 PUSH1 0x0 DUP3 DUP3 SLOAD PUSH2 0x1006 SWAP2 SWAP1 PUSH2 0x1798 JUMP JUMPDEST SWAP3 POP POP DUP2 SWAP1 SSTORE POP DUP2 PUSH1 0x1 PUSH1 0x0 DUP6 PUSH20 0xFFFFFFFFFFFFFFFFFFFFFFFFFFFFFFFFFFFFFFFF AND PUSH20 0xFFFFFFFFFFFFFFFFFFFFFFFFFFFFFFFFFFFFFFFF AND DUP2 MSTORE PUSH1 0x20 ADD SWAP1 DUP2 MSTORE PUSH1 0x20 ADD PUSH1 0x0 KECCAK256 PUSH1 0x0 DUP3 DUP3 SLOAD PUSH2 0x105C SWAP2 SWAP1 PUSH2 0x18A4 JUMP JUMPDEST SWAP3 POP POP DUP2 SWAP1 SSTORE POP DUP3 PUSH20 0xFFFFFFFFFFFFFFFFFFFFFFFFFFFFFFFFFFFFFFFF AND CALLER PUSH20 0xFFFFFFFFFFFFFFFFFFFFFFFFFFFFFFFFFFFFFFFF AND PUSH32 0xDDF252AD1BE2C89B69C2B068FC378DAA952BA7F163C4A11628F55A4DF523B3EF DUP5 PUSH1 0x40 MLOAD PUSH2 0x10C0 SWAP2 SWAP1 PUSH2 0x14C3 JUMP JUMPDEST PUSH1 0x40 MLOAD DUP1 SWAP2 SUB SWAP1 LOG3 PUSH1 0x1 SWAP1 POP SWAP3 SWAP2 POP POP JUMP JUMPDEST PUSH1 0x2 PUSH1 0x20 MSTORE DUP2 PUSH1 0x0 MSTORE PUSH1 0x40 PUSH1 0x0 KECCAK256 PUSH1 0x20 MSTORE DUP1 PUSH1 0x0 MSTORE PUSH1 0x40 PUSH1 0x0 KECCAK256 PUSH1 0x0 SWAP2 POP SWAP2 POP POP SLOAD DUP2 JUMP JUMPDEST PUSH1 0x3 PUSH1 0x0 SWAP1 SLOAD SWAP1 PUSH2 0x100 EXP SWAP1 DIV PUSH20 0xFFFFFFFFFFFFFFFFFFFFFFFFFFFFFFFFFFFFFFFF AND DUP2 JUMP JUMPDEST PUSH1 0x4 PUSH1 0x0 SWAP1 SLOAD SWAP1 PUSH2 0x100 EXP SWAP1 DIV PUSH20 0xFFFFFFFFFFFFFFFFFFFFFFFFFFFFFFFFFFFFFFFF AND PUSH20 0xFFFFFFFFFFFFFFFFFFFFFFFFFFFFFFFFFFFFFFFF AND CALLER PUSH20 0xFFFFFFFFFFFFFFFFFFFFFFFFFFFFFFFFFFFFFFFF AND EQ PUSH2 0x11AD JUMPI PUSH1 0x40 MLOAD PUSH32 0x8C379A000000000000000000000000000000000000000000000000000000000 DUP2 MSTORE PUSH1 0x4 ADD PUSH2 0x11A4 SWAP1 PUSH2 0x1A8A JUMP JUMPDEST PUSH1 0x40 MLOAD DUP1 SWAP2 SUB SWAP1 REVERT JUMPDEST PUSH1 0x0 PUSH20 0xFFFFFFFFFFFFFFFFFFFFFFFFFFFFFFFFFFFFFFFF AND DUP2 PUSH20 0xFFFFFFFFFFFFFFFFFFFFFFFFFFFFFFFFFFFFFFFF AND EQ ISZERO PUSH2 0x121D JUMPI PUSH1 0x40 MLOAD PUSH32 0x8C379A000000000000000000000000000000000000000000000000000000000 DUP2 MSTORE PUSH1 0x4 ADD PUSH2 0x1214 SWAP1 PUSH2 0x1BAE JUMP JUMPDEST PUSH1 0x40 MLOAD DUP1 SWAP2 SUB SWAP1 REVERT JUMPDEST DUP1 PUSH1 0x4 PUSH1 0x0 PUSH2 0x100 EXP DUP2 SLOAD DUP2 PUSH20 0xFFFFFFFFFFFFFFFFFFFFFFFFFFFFFFFFFFFFFFFF MUL NOT AND SWAP1 DUP4 PUSH20 0xFFFFFFFFFFFFFFFFFFFFFFFFFFFFFFFFFFFFFFFF AND MUL OR SWAP1 SSTORE POP POP JUMP JUMPDEST PUSH1 0x0 DUP2 MLOAD SWAP1 POP SWAP2 SWAP1 POP JUMP JUMPDEST PUSH1 0x0 DUP3 DUP3 MSTORE PUSH1 0x20 DUP3 ADD SWAP1 POP SWAP3 SWAP2 POP POP JUMP JUMPDEST PUSH1 0x0 JUMPDEST DUP4 DUP2 LT ISZERO PUSH2 0x129B JUMPI DUP1 DUP3 ADD MLOAD DUP2 DUP5 ADD MSTORE PUSH1 0x20 DUP2 ADD SWAP1 POP PUSH2 0x1280 JUMP JUMPDEST DUP4 DUP2 GT ISZERO PUSH2 0x12AA JUMPI PUSH1 0x0 DUP5 DUP5 ADD MSTORE JUMPDEST POP POP POP POP JUMP JUMPDEST PUSH1 0x0 PUSH1 0x1F NOT PUSH1 0x1F DUP4 ADD AND SWAP1 POP SWAP2 SWAP1 POP JUMP JUMPDEST PUSH1 0x0 PUSH2 0x12CC DUP3 PUSH2 0x1261 JUMP JUMPDEST PUSH2 0x12D6 DUP2 DUP6 PUSH2 0x126C JUMP JUMPDEST SWAP4 POP PUSH2 0x12E6 DUP2 DUP6 PUSH1 0x20 DUP7 ADD PUSH2 0x127D JUMP JUMPDEST PUSH2 0x12EF DUP2 PUSH2 0x12B0 JUMP JUMPDEST DUP5 ADD SWAP2 POP POP SWAP3 SWAP2 POP POP JUMP JUMPDEST PUSH1 0x0 PUSH1 0x20 DUP3 ADD SWAP1 POP DUP2 DUP2 SUB PUSH1 0x0 DUP4 ADD MSTORE PUSH2 0x1314 DUP2 DUP5 PUSH2 0x12C1 JUMP JUMPDEST SWAP1 POP SWAP3 SWAP2 POP POP JUMP JUMPDEST PUSH1 0x0 DUP1 REVERT JUMPDEST PUSH1 0x0 PUSH20 0xFFFFFFFFFFFFFFFFFFFFFFFFFFFFFFFFFFFFFFFF DUP3 AND SWAP1 POP SWAP2 SWAP1 POP JUMP JUMPDEST PUSH1 0x0 PUSH2 0x134C DUP3 PUSH2 0x1321 JUMP JUMPDEST SWAP1 POP SWAP2 SWAP1 POP JUMP JUMPDEST PUSH2 0x135C DUP2 PUSH2 0x1341 JUMP JUMPDEST DUP2 EQ PUSH2 0x1367 JUMPI PUSH1 0x0 DUP1 REVERT JUMPDEST POP JUMP JUMPDEST PUSH1 0x0 DUP2 CALLDATALOAD SWAP1 POP PUSH2 0x1379 DUP2 PUSH2 0x1353 JUMP JUMPDEST SWAP3 SWAP2 POP POP JUMP JUMPDEST PUSH1 0x0 DUP2 SWAP1 POP SWAP2 SWAP1 POP JUMP JUMPDEST PUSH2 0x1392 DUP2 PUSH2 0x137F JUMP JUMPDEST DUP2 EQ PUSH2 0x139D JUMPI PUSH1 0x0 DUP1 REVERT JUMPDEST POP JUMP JUMPDEST PUSH1 0x0 DUP2 CALLDATALOAD SWAP1 POP PUSH2 0x13AF DUP2 PUSH2 0x1389 JUMP JUMPDEST SWAP3 SWAP2 POP POP JUMP JUMPDEST PUSH1 0x0 DUP1 PUSH1 0x40 DUP4 DUP6 SUB SLT ISZERO PUSH2 0x13CC JUMPI PUSH2 0x13CB PUSH2 0x131C JUMP JUMPDEST JUMPDEST PUSH1 0x0 PUSH2 0x13DA DUP6 DUP3 DUP7 ADD PUSH2 0x136A JUMP JUMPDEST SWAP3 POP POP PUSH1 0x20 PUSH2 0x13EB DUP6 DUP3 DUP7 ADD PUSH2 0x13A0 JUMP JUMPDEST SWAP2 POP POP SWAP3 POP SWAP3 SWAP1 POP JUMP JUMPDEST PUSH1 0x0 DUP2 ISZERO ISZERO SWAP1 POP SWAP2 SWAP1 POP JUMP JUMPDEST PUSH2 0x140A DUP2 PUSH2 0x13F5 JUMP JUMPDEST DUP3 MSTORE POP POP JUMP JUMPDEST PUSH1 0x0 PUSH1 0x20 DUP3 ADD SWAP1 POP PUSH2 0x1425 PUSH1 0x0 DUP4 ADD DUP5 PUSH2 0x1401 JUMP JUMPDEST SWAP3 SWAP2 POP POP JUMP JUMPDEST PUSH1 0x0 DUP2 SWAP1 POP SWAP2 SWAP1 POP JUMP JUMPDEST PUSH2 0x143E DUP2 PUSH2 0x142B JUMP JUMPDEST DUP2 EQ PUSH2 0x1449 JUMPI PUSH1 0x0 DUP1 REVERT JUMPDEST POP JUMP JUMPDEST PUSH1 0x0 DUP2 CALLDATALOAD SWAP1 POP PUSH2 0x145B DUP2 PUSH2 0x1435 JUMP JUMPDEST SWAP3 SWAP2 POP POP JUMP JUMPDEST PUSH1 0x0 DUP1 PUSH1 0x0 PUSH1 0x60 DUP5 DUP7 SUB SLT ISZERO PUSH2 0x147A JUMPI PUSH2 0x1479 PUSH2 0x131C JUMP JUMPDEST JUMPDEST PUSH1 0x0 PUSH2 0x1488 DUP7 DUP3 DUP8 ADD PUSH2 0x136A JUMP JUMPDEST SWAP4 POP POP PUSH1 0x20 PUSH2 0x1499 DUP7 DUP3 DUP8 ADD PUSH2 0x13A0 JUMP JUMPDEST SWAP3 POP POP PUSH1 0x40 PUSH2 0x14AA DUP7 DUP3 DUP8 ADD PUSH2 0x144C JUMP JUMPDEST SWAP2 POP POP SWAP3 POP SWAP3 POP SWAP3 JUMP JUMPDEST PUSH2 0x14BD DUP2 PUSH2 0x137F JUMP JUMPDEST DUP3 MSTORE POP POP JUMP JUMPDEST PUSH1 0x0 PUSH1 0x20 DUP3 ADD SWAP1 POP PUSH2 0x14D8 PUSH1 0x0 DUP4 ADD DUP5 PUSH2 0x14B4 JUMP JUMPDEST SWAP3 SWAP2 POP POP JUMP JUMPDEST PUSH1 0x0 DUP1 PUSH1 0x0 PUSH1 0x60 DUP5 DUP7 SUB SLT ISZERO PUSH2 0x14F7 JUMPI PUSH2 0x14F6 PUSH2 0x131C JUMP JUMPDEST JUMPDEST PUSH1 0x0 PUSH2 0x1505 DUP7 DUP3 DUP8 ADD PUSH2 0x136A JUMP JUMPDEST SWAP4 POP POP PUSH1 0x20 PUSH2 0x1516 DUP7 DUP3 DUP8 ADD PUSH2 0x136A JUMP JUMPDEST SWAP3 POP POP PUSH1 0x40 PUSH2 0x1527 DUP7 DUP3 DUP8 ADD PUSH2 0x13A0 JUMP JUMPDEST SWAP2 POP POP SWAP3 POP SWAP3 POP SWAP3 JUMP JUMPDEST PUSH1 0x0 PUSH1 0xFF DUP3 AND SWAP1 POP SWAP2 SWAP1 POP JUMP JUMPDEST PUSH2 0x1547 DUP2 PUSH2 0x1531 JUMP JUMPDEST DUP3 MSTORE POP POP JUMP JUMPDEST PUSH1 0x0 PUSH1 0x20 DUP3 ADD SWAP1 POP PUSH2 0x1562 PUSH1 0x0 DUP4 ADD DUP5 PUSH2 0x153E JUMP JUMPDEST SWAP3 SWAP2 POP POP JUMP JUMPDEST PUSH1 0x0 PUSH1 0x20 DUP3 DUP5 SUB SLT ISZERO PUSH2 0x157E JUMPI PUSH2 0x157D PUSH2 0x131C JUMP JUMPDEST JUMPDEST PUSH1 0x0 PUSH2 0x158C DUP5 DUP3 DUP6 ADD PUSH2 0x136A JUMP JUMPDEST SWAP2 POP POP SWAP3 SWAP2 POP POP JUMP JUMPDEST PUSH2 0x159E DUP2 PUSH2 0x1341 JUMP JUMPDEST DUP3 MSTORE POP POP JUMP JUMPDEST PUSH1 0x0 PUSH1 0x20 DUP3 ADD SWAP1 POP PUSH2 0x15B9 PUSH1 0x0 DUP4 ADD DUP5 PUSH2 0x1595 JUMP JUMPDEST SWAP3 SWAP2 POP POP JUMP JUMPDEST PUSH1 0x0 DUP1 PUSH1 0x40 DUP4 DUP6 SUB SLT ISZERO PUSH2 0x15D6 JUMPI PUSH2 0x15D5 PUSH2 0x131C JUMP JUMPDEST JUMPDEST PUSH1 0x0 PUSH2 0x15E4 DUP6 DUP3 DUP7 ADD PUSH2 0x136A JUMP JUMPDEST SWAP3 POP POP PUSH1 0x20 PUSH2 0x15F5 DUP6 DUP3 DUP7 ADD PUSH2 0x136A JUMP JUMPDEST SWAP2 POP POP SWAP3 POP SWAP3 SWAP1 POP JUMP JUMPDEST PUSH32 0x55534443703A2063616C6C6572206973206E6F74207468652062726964676500 PUSH1 0x0 DUP3 ADD MSTORE POP JUMP JUMPDEST PUSH1 0x0 PUSH2 0x1635 PUSH1 0x1F DUP4 PUSH2 0x126C JUMP JUMPDEST SWAP2 POP PUSH2 0x1640 DUP3 PUSH2 0x15FF JUMP JUMPDEST PUSH1 0x20 DUP3 ADD SWAP1 POP SWAP2 SWAP1 POP JUMP JUMPDEST PUSH1 0x0 PUSH1 0x20 DUP3 ADD SWAP1 POP DUP2 DUP2 SUB PUSH1 0x0 DUP4 ADD MSTORE PUSH2 0x1664 DUP2 PUSH2 0x1628 JUMP JUMPDEST SWAP1 POP SWAP2 SWAP1 POP JUMP JUMPDEST PUSH32 0x55534443703A20696E73756666696369656E742062616C616E636520746F2062 PUSH1 0x0 DUP3 ADD MSTORE PUSH32 0x75726E0000000000000000000000000000000000000000000000000000000000 PUSH1 0x20 DUP3 ADD MSTORE POP JUMP JUMPDEST PUSH1 0x0 PUSH2 0x16C7 PUSH1 0x23 DUP4 PUSH2 0x126C JUMP JUMPDEST SWAP2 POP PUSH2 0x16D2 DUP3 PUSH2 0x166B JUMP JUMPDEST PUSH1 0x40 DUP3 ADD SWAP1 POP SWAP2 SWAP1 POP JUMP JUMPDEST PUSH1 0x0 PUSH1 0x20 DUP3 ADD SWAP1 POP DUP2 DUP2 SUB PUSH1 0x0 DUP4 ADD MSTORE PUSH2 0x16F6 DUP2 PUSH2 0x16BA JUMP JUMPDEST SWAP1 POP SWAP2 SWAP1 POP JUMP JUMPDEST PUSH32 0x55534443703A206275726E20616D6F756E74206D757374206265203E20300000 PUSH1 0x0 DUP3 ADD MSTORE POP JUMP JUMPDEST PUSH1 0x0 PUSH2 0x1733 PUSH1 0x1E DUP4 PUSH2 0x126C JUMP JUMPDEST SWAP2 POP PUSH2 0x173E DUP3 PUSH2 0x16FD JUMP JUMPDEST PUSH1 0x20 DUP3 ADD SWAP1 POP SWAP2 SWAP1 POP JUMP JUMPDEST PUSH1 0x0 PUSH1 0x20 DUP3 ADD SWAP1 POP DUP2 DUP2 SUB PUSH1 0x0 DUP4 ADD MSTORE PUSH2 0x1762 DUP2 PUSH2 0x1726 JUMP JUMPDEST SWAP1 POP SWAP2 SWAP1 POP JUMP JUMPDEST PUSH32 0x4E487B7100000000000000000000000000000000000000000000000000000000 PUSH1 0x0 MSTORE PUSH1 0x11 PUSH1 0x4 MSTORE PUSH1 0x24 PUSH1 0x0 REVERT JUMPDEST PUSH1 0x0 PUSH2 0x17A3 DUP3 PUSH2 0x137F JUMP JUMPDEST SWAP2 POP PUSH2 0x17AE DUP4 PUSH2 0x137F JUMP JUMPDEST SWAP3 POP DUP3 DUP3 LT ISZERO PUSH2 0x17C1 JUMPI PUSH2 0x17C0 PUSH2 0x1769 JUMP JUMPDEST JUMPDEST DUP3 DUP3 SUB SWAP1 POP SWAP3 SWAP2 POP POP JUMP JUMPDEST PUSH32 0x55534443703A206D696E7420746F207A65726F20616464726573730000000000 PUSH1 0x0 DUP3 ADD MSTORE POP JUMP JUMPDEST PUSH1 0x0 PUSH2 0x1802 PUSH1 0x1B DUP4 PUSH2 0x126C JUMP JUMPDEST SWAP2 POP PUSH2 0x180D DUP3 PUSH2 0x17CC JUMP JUMPDEST PUSH1 0x20 DUP3 ADD SWAP1 POP SWAP2 SWAP1 POP JUMP JUMPDEST PUSH1 0x0 PUSH1 0x20 DUP3 ADD SWAP1 POP DUP2 DUP2 SUB PUSH1 0x0 DUP4 ADD MSTORE PUSH2 0x1831 DUP2 PUSH2 0x17F5 JUMP JUMPDEST SWAP1 POP SWAP2 SWAP1 POP JUMP JUMPDEST PUSH32 0x55534443703A206D696E7420616D6F756E74206D757374206265203E20300000 PUSH1 0x0 DUP3 ADD MSTORE POP JUMP JUMPDEST PUSH1 0x0 PUSH2 0x186E PUSH1 0x1E DUP4 PUSH2 0x126C JUMP JUMPDEST SWAP2 POP PUSH2 0x1879 DUP3 PUSH2 0x1838 JUMP JUMPDEST PUSH1 0x20 DUP3 ADD SWAP1 POP SWAP2 SWAP1 POP JUMP JUMPDEST PUSH1 0x0 PUSH1 0x20 DUP3 ADD SWAP1 POP DUP2 DUP2 SUB PUSH1 0x0 DUP4 ADD MSTORE PUSH2 0x189D DUP2 PUSH2 0x1861 JUMP JUMPDEST SWAP1 POP SWAP2 SWAP1 POP JUMP JUMPDEST PUSH1 0x0 PUSH2 0x18AF DUP3 PUSH2 0x137F JUMP JUMPDEST SWAP2 POP PUSH2 0x18BA DUP4 PUSH2 0x137F JUMP JUMPDEST SWAP3 POP DUP3 PUSH32 0xFFFFFFFFFFFFFFFFFFFFFFFFFFFFFFFFFFFFFFFFFFFFFFFFFFFFFFFFFFFFFFFF SUB DUP3 GT ISZERO PUSH2 0x18EF JUMPI PUSH2 0x18EE PUSH2 0x1769 JUMP JUMPDEST JUMPDEST DUP3 DUP3 ADD SWAP1 POP SWAP3 SWAP2 POP POP JUMP JUMPDEST PUSH32 0x55534443703A207472616E7366657220746F207A65726F206164647265737300 PUSH1 0x0 DUP3 ADD MSTORE POP JUMP JUMPDEST PUSH1 0x0 PUSH2 0x1930 PUSH1 0x1F DUP4 PUSH2 0x126C JUMP JUMPDEST SWAP2 POP PUSH2 0x193B DUP3 PUSH2 0x18FA JUMP JUMPDEST PUSH1 0x20 DUP3 ADD SWAP1 POP SWAP2 SWAP1 POP JUMP JUMPDEST PUSH1 0x0 PUSH1 0x20 DUP3 ADD SWAP1 POP DUP2 DUP2 SUB PUSH1 0x0 DUP4 ADD MSTORE PUSH2 0x195F DUP2 PUSH2 0x1923 JUMP JUMPDEST SWAP1 POP SWAP2 SWAP1 POP JUMP JUMPDEST PUSH32 0x55534443703A20696E73756666696369656E742062616C616E63650000000000 PUSH1 0x0 DUP3 ADD MSTORE POP JUMP JUMPDEST PUSH1 0x0 PUSH2 0x199C PUSH1 0x1B DUP4 PUSH2 0x126C JUMP JUMPDEST SWAP2 POP PUSH2 0x19A7 DUP3 PUSH2 0x1966 JUMP JUMPDEST PUSH1 0x20 DUP3 ADD SWAP1 POP SWAP2 SWAP1 POP JUMP JUMPDEST PUSH1 0x0 PUSH1 0x20 DUP3 ADD SWAP1 POP DUP2 DUP2 SUB PUSH1 0x0 DUP4 ADD MSTORE PUSH2 0x19CB DUP2 PUSH2 0x198F JUMP JUMPDEST SWAP1 POP SWAP2 SWAP1 POP JUMP JUMPDEST PUSH32 0x55534443703A20696E73756666696369656E7420616C6C6F77616E6365000000 PUSH1 0x0 DUP3 ADD MSTORE POP JUMP JUMPDEST PUSH1 0x0 PUSH2 0x1A08 PUSH1 0x1D DUP4 PUSH2 0x126C JUMP JUMPDEST SWAP2 POP PUSH2 0x1A13 DUP3 PUSH2 0x19D2 JUMP JUMPDEST PUSH1 0x20 DUP3 ADD SWAP1 POP SWAP2 SWAP1 POP JUMP JUMPDEST PUSH1 0x0 PUSH1 0x20 DUP3 ADD SWAP1 POP DUP2 DUP2 SUB PUSH1 0x0 DUP4 ADD MSTORE PUSH2 0x1A37 DUP2 PUSH2 0x19FB JUMP JUMPDEST SWAP1 POP SWAP2 SWAP1 POP JUMP JUMPDEST PUSH32 0x55534443703A2063616C6C6572206973206E6F7420746865206F776E65720000 PUSH1 0x0 DUP3 ADD MSTORE POP JUMP JUMPDEST PUSH1 0x0 PUSH2 0x1A74 PUSH1 0x1E DUP4 PUSH2 0x126C JUMP JUMPDEST SWAP2 POP PUSH2 0x1A7F DUP3 PUSH2 0x1A3E JUMP JUMPDEST PUSH1 0x20 DUP3 ADD SWAP1 POP SWAP2 SWAP1 POP JUMP JUMPDEST PUSH1 0x0 PUSH1 0x20 DUP3 ADD SWAP1 POP DUP2 DUP2 SUB PUSH1 0x0 DUP4 ADD MSTORE PUSH2 0x1AA3 DUP2 PUSH2 0x1A67 JUMP JUMPDEST SWAP1 POP SWAP2 SWAP1 POP JUMP JUMPDEST PUSH32 0x55534443703A206272696467652063616E6E6F74206265207A65726F20616464 PUSH1 0x0 DUP3 ADD MSTORE PUSH32 0x7265737300000000000000000000000000000000000000000000000000000000 PUSH1 0x20 DUP3 ADD MSTORE POP JUMP JUMPDEST PUSH1 0x0 PUSH2 0x1B06 PUSH1 0x24 DUP4 PUSH2 0x126C JUMP JUMPDEST SWAP2 POP PUSH2 0x1B11 DUP3 PUSH2 0x1AAA JUMP JUMPDEST PUSH1 0x40 DUP3 ADD SWAP1 POP SWAP2 SWAP1 POP JUMP JUMPDEST PUSH1 0x0 PUSH1 0x20 DUP3 ADD SWAP1 POP DUP2 DUP2 SUB PUSH1 0x0 DUP4 ADD MSTORE PUSH2 0x1B35 DUP2 PUSH2 0x1AF9 JUMP JUMPDEST SWAP1 POP SWAP2 SWAP1 POP JUMP JUMPDEST PUSH32 0x55534443703A206E6577206F776E65722063616E6E6F74206265207A65726F20 PUSH1 0x0 DUP3 ADD MSTORE PUSH32 0x6164647265737300000000000000000000000000000000000000000000000000 PUSH1 0x20 DUP3 ADD MSTORE POP JUMP JUMPDEST PUSH1 0x0 PUSH2 0x1B98 PUSH1 0x27 DUP4 PUSH2 0x126C JUMP JUMPDEST SWAP2 POP PUSH2 0x1BA3 DUP3 PUSH2 0x1B3C JUMP JUMPDEST PUSH1 0x40 DUP3 ADD SWAP1 POP SWAP2 SWAP1 POP JUMP JUMPDEST PUSH1 0x0 PUSH1 0x20 DUP3 ADD SWAP1 POP DUP2 DUP2 SUB PUSH1 0x0 DUP4 ADD MSTORE PUSH2 0x1BC7 DUP2 PUSH2 0x1B8B JUMP JUMPDEST SWAP1 POP SWAP2 SWAP1 POP JUMP INVALID LOG2 PUSH5 0x6970667358 0x22 SLT KECCAK256 0xBC NOT 0x1F MLOAD PUSH25 0x4EF4224AAE69B00609F29763A93A6F312F2EE6907391DEE5BA 0xE0 DUP4 PUSH5 0x736F6C6343 STOP ADDMOD EXP STOP CALLER "
    },
    "gasEstimates": {
      "creation": {
        "codeDepositCost": "1434400",
        "executionCost": "infinite",
        "totalCost": "infinite"
      },
      "external": {
        "allowance(address,address)": "infinite",
        "approve(address,uint256)": "infinite",
        "balanceOf(address)": "2837",
        "bridge()": "2580",
        "burn(address,uint256,bytes32)": "infinite",
        "decimals()": "424",
        "mint(address,uint256,bytes32)": "infinite",
        "name()": "infinite",
        "owner()": "2559",
        "setBridge(address)": "30678",
        "symbol()": "infinite",
        "totalSupply()": "2452",
        "transfer(address,uint256)": "infinite",
        "transferFrom(address,address,uint256)": "infinite",
        "transferOwnership(address)": "27018"
      }
    },
    "methodIdentifiers": {
      "allowance(address,address)": "dd62ed3e",
      "approve(address,uint256)": "095ea7b3",
      "balanceOf(address)": "70a08231",
      "bridge()": "e78cea92",
      "burn(address,uint256,bytes32)": "158a1cc3",
      "decimals()": "313ce567",
      "mint(address,uint256,bytes32)": "1e458bee",
      "name()": "06fdde03",
      "owner()": "8da5cb5b",
      "setBridge(address)": "8dd14802",
      "symbol()": "95d89b41",
      "totalSupply()": "18160ddd",
      "transfer(address,uint256)": "a9059cbb",
      "transferFrom(address,address,uint256)": "23b872dd",
      "transferOwnership(address)": "f2fde38b"
    }
  },
  "storageLayout": {
    "storage": [
      {
        "astId": 558,
        "contract": "USDCp.sol:USDCp",
        "label": "totalSupply",
        "offset": 0,
        "slot": "0",
        "type": "t_uint256"
      },
      {
        "astId": 562,
        "contract": "USDCp.sol:USDCp",
        "label": "balanceOf",
        "offset": 0,
        "slot": "1",
        "type": "t_mapping(t_address,t_uint256)"
      },
      {
        "astId": 568,
        "contract": "USDCp.sol:USDCp",
        "label": "allowance",
        "offset": 0,
        "slot": "2",
        "type": "t_mapping(t_address,t_mapping(t_address,t_uint256))"
      },
      {
        "astId": 570,
        "contract": "USDCp.sol:USDCp",
        "label": "bridge",
        "offset": 0,
        "slot": "3",
        "type": "t_address"
      },
      {
        "astId": 572,
        "contract": "USDCp.sol:USDCp",
        "label": "owner",
        "offset": 0,
        "slot": "4",
        "type": "t_address"
      }
    ],
    "types": {
      "t_address": {
        "encoding": "inplace",
        "label": "address",
        "numberOfBytes": "20"
      },
      "t_mapping(t_address,t_mapping(t_address,t_uint256))": {
        "encoding": "mapping",
        "key": "t_address",
        "label": "mapping(address => mapping(address => uint256))",
        "numberOfBytes": "32",
        "value": "t_mapping(t_address,t_uint256)"
      },
      "t_mapping(t_address,t_uint256)": {
        "encoding": "mapping",
        "key": "t_address",
        "label": "mapping(address => uint256)",
        "numberOfBytes": "32",
        "value": "t_uint256"
      },
      "t_uint256": {
        "encoding": "inplace",
        "label": "uint256",
        "numberOfBytes": "32"
      }
    }
  },
  "userdoc": {
    "kind": "user",
    "methods": {
      "burn(address,uint256,bytes32)": {
        "notice": "Burn USDCp tokens (called by bridge when user wants to withdraw to public chain)"
      },
      "mint(address,uint256,bytes32)": {
        "notice": "Mint USDCp tokens (called by bridge when USDC is deposited on public chain)"
      }
    },
    "notice": "ERC20 token with mint/burn functionality controlled by a bridge",
    "version": 1
  }
}