{
  "abi": [
    {
      "inputs": [
        {
          "internalType": "address",
          "name": "_bridge",
          "type": "address"
        }
      ],
      "stateMutability": "nonpayable",
      "type": "constructor"
    },
    {
      "anonymous": false,
      "inputs": [
        {
          "indexed": true,
          "internalType": "address",
          "name": "owner",
          "type": "address"
        },
        {
          "indexed": true,
          "internalType": "address",
          "name": "spender",
          "type": "address"
        },
        {
          "indexed": false,
          "internalType": "uint256",
          "name": "value",
          "type": "uint256"
        }
      ],
      "name": "Approval",
      "type": "event"
    },
    {
      "anonymous": false,
      "inputs": [
        {
          "indexed": true,
          "internalType": "address",
          "name": "oldBridge",
          "type": "address"
        },
        {
          "indexed": true,
          "internalType": "address",
          "name": "newBridge",
          "type": "address"
        }
      ],
      "name": "BridgeUpdated",
      "type": "event"
    },
    {
      "anonymous": false,
      "inputs": [
        {
          "indexed": true,
          "internalType": "address",
          "name": "from",
          "type": "address"
        },
        {
          "indexed": false,
          "internalType": "uint256",
          "name": "amount",
          "type": "uint256"
        },
        {
          "indexed": true,
          "internalType": "bytes32",
          "name": "withdrawId",
          "type": "bytes32"
        }
      ],
      "name": "Burn",
      "type": "event"
    },
    {
      "anonymous": false,
      "inputs": [
        {
          "indexed": true,
          "internalType": "address",
          "name": "to",
          "type": "address"
        },
        {
          "indexed": false,
          "internalType": "uint256",
          "name": "amount",
          "type": "uint256"
        },
        {
          "indexed": true,
          "internalType": "bytes32",
          "name": "depositId",
          "type": "bytes32"
        }
      ],
      "name": "Mint",
      "type": "event"
    },
    {
      "anonymous": false,
      "inputs": [
        {
          "indexed": true,
          "internalType": "address",
          "name": "previousOwner",
          "type": "address"
        },
        {
          "indexed": true,
          "internalType": "address",
          "name": "newOwner",
          "type": "address"
        }
      ],
      "name": "OwnershipTransferStarted",
      "type": "event"
    },
    {
      "anonymous": false,
      "inputs": [
        {
          "indexed": true,
          "internalType": "address",
          "name": "previousOwner",
          "type": "address"
        },
        {
          "indexed": true,
          "internalType": "address",
          "name": "newOwner",
          "type": "address"
        }
      ],
      "name": "OwnershipTransferred",
      "type": "event"
    },
    {
      "anonymous": false,
      "inputs": [
        {
          "indexed": false,
          "internalType": "address",
          "name": "account",
          "type": "address"
        }
      ],
      "name": "Paused",
      "type": "event"
    },
    {
      "anonymous": false,
      "inputs": [
        {
          "indexed": true,
          "internalType": "address",
          "name": "from",
          "type": "address"
        },
        {
          "indexed": true,
          "internalType": "address",
          "name": "to",
          "type": "address"
        },
        {
          "indexed": false,
          "internalType": "uint256",
          "name": "value",
          "type": "uint256"
        }
      ],
      "name": "Transfer",
      "type": "event"
    },
    {
      "anonymous": false,
      "inputs": [
        {
          "indexed": false,
          "internalType": "address",
          "name": "account",
          "type": "address"
        }
      ],
      "name": "Unpaused",
      "type": "event"
    },
    {
      "inputs": [],
      "name": "acceptOwnership",
      "outputs": [],
      "stateMutability": "nonpayable",
      "type": "function"
    },
    {
      "inputs": [
        {
          "internalType": "address",
          "name": "",
          "type": "address"
        },
        {
          "internalType": "address",
          "name": "",
          "type": "address"
        }
      ],
      "name": "allowance",
      "outputs": [
        {
          "internalType": "uint256",
          "name": "",
          "type": "uint256"
        }
      ],
      "stateMutability": "view",
      "type": "function"
    },
    {
      "inputs": [
        {
          "internalType": "address",
          "name": "spender",
          "type": "address"
        },
        {
          "internalType": "uint256",
          "name": "amount",
          "type": "uint256"
        }
      ],
      "name": "approve",
      "outputs": [
        {
          "internalType": "bool",
          "name": "",
          "type": "bool"
        }
      ],
      "stateMutability": "nonpayable",
      "type": "function"
    },
    {
      "inputs": [
        {
          "internalType": "address",
          "name": "",
          "type": "address"
        }
      ],
      "name": "balanceOf",
      "outputs": [
        {
          "internalType": "uint256",
          "name": "",
          "type": "uint256"
        }
      ],
      "stateMutability": "view",
      "type": "function"
    },
    {
      "inputs": [],
      "name": "bridge",
      "outputs": [
        {
          "internalType": "address",
          "name": "",
          "type": "address"
        }
      ],
      "stateMutability": "view",
      "type": "function"
    },
    {
      "inputs": [
        {
          "internalType": "address",
          "name": "from",
          "type": "address"
        },
        {
          "internalType": "uint256",
          "name": "amount",
          "type": "uint256"
        },
        {
          "internalType": "bytes32",
          "name": "withdrawId",
          "type": "bytes32"
        }
      ],
      "name": "burn",
      "outputs": [],
      "stateMutability": "nonpayable",
      "type": "function"
    },
    {
      "inputs": [],
      "name": "decimals",
      "outputs": [
        {
          "internalType": "uint8",
          "name": "",
          "type": "uint8"
        }
      ],
      "stateMutability": "view",
      "type": "function"
    },
    {
      "inputs": [
        {
          "internalType": "address",
          "name": "spender",
          "type": "address"
        },
        {
          "internalType": "uint256",
          "name": "subtractedValue",
          "type": "uint256"
        }
      ],
      "name": "decreaseAllowance",
      "outputs": [
        {
          "internalType": "bool",
          "name": "",
          "type": "bool"
        }
      ],
      "stateMutability": "nonpayable",
      "type": "function"
    },
    {
      "inputs": [
        {
          "internalType": "address",
          "name": "spender",
          "type": "address"
        },
        {
          "internalType": "uint256",
          "name": "addedValue",
          "type": "uint256"
        }
      ],
      "name": "increaseAllowance",
      "outputs": [
        {
          "internalType": "bool",
          "name": "",
          "type": "bool"
        }
      ],
      "stateMutability": "nonpayable",
      "type": "function"
    },
    {
      "inputs": [
        {
          "internalType": "address",
          "name": "to",
          "type": "address"
        },
        {
          "internalType": "uint256",
          "name": "amount",
          "type": "uint256"
        },
        {
          "internalType": "bytes32",
          "name": "depositId",
          "type": "bytes32"
        }
      ],
      "name": "mint",
      "outputs": [],
      "stateMutability": "nonpayable",
      "type": "function"
    },
    {
      "inputs": [],
      "name": "name",
      "outputs": [
        {
          "internalType": "string",
          "name": "",
          "type": "string"
        }
      ],
      "stateMutability": "view",
      "type": "function"
    },
    {
      "inputs": [],
      "name": "owner",
      "outputs": [
        {
          "internalType": "address",
          "name": "",
          "type": "address"
        }
      ],
      "stateMutability": "view",
      "type": "function"
    },
    {
      "inputs": [],
      "name": "pause",
      "outputs": [],
      "stateMutability": "nonpayable",
      "type": "function"
    },
    {
      "inputs": [],
      "name": "paused",
      "outputs": [
        {
          "internalType": "bool",
          "name": "",
          "type": "bool"
        }
      ],
      "stateMutability": "view",
      "type": "function"
    },
    {
      "inputs": [],
      "name": "pendingOwner",
      "outputs": [
        {
          "internalType": "address",
          "name": "",
          "type": "address"
        }
      ],
      "stateMutability": "view",
      "type": "function"
    },
    {
      "inputs": [
        {
          "internalType": "address",
          "name": "newBridge",
          "type": "address"
        }
      ],
      "name": "setBridge",
      "outputs": [],
      "stateMutability": "nonpayable",
      "type": "function"
    },
    {
      "inputs": [],
      "name": "symbol",
      "outputs": [
        {
          "internalType": "string",
          "name": "",
          "type": "string"
        }
      ],
      "stateMutability": "view",
      "type": "function"
    },
    {
      "inputs": [],
      "name": "totalSupply",
      "outputs": [
        {
          "internalType": "uint256",
          "name": "",
          "type": "uint256"
        }
      ],
      "stateMutability": "view",
      "type": "function"
    },
    {
      "inputs": [
        {
          "internalType": "address",
          "name": "to",
          "type": "address"
        },
        {
          "internalType": "uint256",
          "name": "amount",
          "type": "uint256"
        }
      ],
      "name": "transfer",
      "outputs": [
        {
          "internalType": "bool",
          "name": "",
          "type": "bool"
        }
      ],
      "stateMutability": "nonpayable",
      "type": "function"
    },
    {
      "inputs": [
        {
          "internalType": "address",
          "name": "from",
          "type": "address"
        },
        {
          "internalType": "address",
          "name": "to",
          "type": "address"
        },
        {
          "internalType": "uint256",
          "name": "amount",
          "type": "uint256"
        }
      ],
      "name": "transferFrom",
      "outputs": [
        {
          "internalType": "bool",
          "name": "",
          "type": "bool"
        }
      ],
      "stateMutability": "nonpayable",
      "type": "function"
    },
    {
      "inputs": [
        {
          "internalType": "address",
          "name": "newOwner",
          "type": "address"
        }
      ],
      "name": "transferOwnership",
      "outputs": [],
      "stateMutability": "nonpayable",
      "type": "function"
    },
    {
      "inputs": [],
      "name": "unpause",
      "outputs": [],
      "stateMutability": "nonpayable",
      "type": "function"
    }
  ],
  "devdoc": {
    "events": {
      "Transfer(address,address,uint256)": {
        "details": "from=0x0 はmint、to=0x0 はburnを意味する"
      }
    },
    "kind": "dev",
    "methods": {
      "approve(address,uint256)": {
        "details": "spenderがtransferFromで使える上限を設定",
        "params": {
          "amount": "許可する量",
          "spender": "許可を与える相手"
        },
        "returns": {
          "_0": "success 成功したらtrue ⚠️ セキュリティ注意: approve(100)の後にapprove(50)を呼ぶと、攻撃者が間に100を使って さらに50を使える可能性がある（race condition） → increaseAllowance/decreaseAllowance の使用を推奨"
        }
      },
      "burn(address,uint256,bytes32)": {
        "details": "ユーザーがPublic ChainでUSDCを受け取りたい時にBridgeが呼び出す",
        "params": {
          "amount": "焼却量",
          "from": "焼却元アドレス",
          "withdrawId": "一意の引き出しID"
        }
      },
      "decreaseAllowance(address,uint256)": {
        "params": {
          "spender": "許可を与える相手",
          "subtractedValue": "減らす許可量"
        }
      },
      "increaseAllowance(address,uint256)": {
        "params": {
          "addedValue": "追加する許可量",
          "spender": "許可を与える相手"
        }
      },
      "mint(address,uint256,bytes32)": {
        "details": "Public ChainでUSDCがロックされた時にBridgeが呼び出す",
        "params": {
          "amount": "発行量",
          "depositId": "一意のデポジットID（重複防止用）",
          "to": "発行先アドレス"
        }
      },
      "transfer(address,uint256)": {
        "details": "自分のbalanceからtoのbalanceへamount移動",
        "params": {
          "amount": "送金額",
          "to": "送金先アドレス"
        },
        "returns": {
          "_0": "success 成功したらtrue 処理フロー: 1. toがゼロアドレスでないことを確認 2. 送金者の残高が十分あることを確認 3. 送金者の残高を減らす 4. 受取者の残高を増やす 5. Transferイベントを発行"
        }
      },
      "transferFrom(address,address,uint256)": {
        "details": "DEXなどが使用。ユーザーがapproveした後、DEXがtransferFromで引き出す",
        "params": {
          "amount": "送金額",
          "from": "送金元",
          "to": "送金先"
        },
        "returns": {
          "_0": "success 成功したらtrue"
        }
      }
    },
    "stateVariables": {
      "allowance": {
        "details": "allowance[owner][spender] = amountownerがspenderに対してamount分の使用を許可"
      },
      "balanceOf": {
        "details": "balanceOf[address] = amount"
      },
      "decimals": {
        "details": "USDCは6桁 (1 USDC = 1,000,000 units)ETHは18桁 (1 ETH = 1,000,000,000,000,000,000 wei)"
      }
    },
    "title": "USDCp V2 - Bridged USDC for Private Chain (Security Enhanced)",
    "version": 1
  },
  "evm": {
    "assembly": "    /* \"USDCpV2.sol\":1498:11965  contract USDCpV2 {... */\n  mstore(0x40, 0x80)\n    /* \"USDCpV2.sol\":4890:5052  constructor(address _bridge) {... */\n  callvalue\n  dup1\n  iszero\n  tag_1\n  jumpi\n  0x00\n  dup1\n  revert\ntag_1:\n  pop\n  mload(0x40)\n  sub(codesize, bytecodeSize)\n  dup1\n  bytecodeSize\n  dup4\n  codecopy\n  dup2\n  dup2\n  add\n  0x40\n  mstore\n  dup2\n  add\n  swap1\n  tag_2\n  swap2\n  swap1\n  tag_3\n  jump\t// in\ntag_2:\n    /* \"USDCpV2.sol\":4956:4957  0 */\n  0x00\n    /* \"USDCpV2.sol\":4937:4958  _bridge != address(0) */\n  0xffffffffffffffffffffffffffffffffffffffff\n  and\n    /* \"USDCpV2.sol\":4937:4944  _bridge */\n  dup2\n    /* \"USDCpV2.sol\":4937:4958  _bridge != address(0) */\n  0xffffffffffffffffffffffffffffffffffffffff\n  and\n  eq\n  iszero\n    /* \"USDCpV2.sol\":4929:4991  require(_bridge != address(0), \"USDCp: bridge cannot be zero\") */\n  tag_6\n  jumpi\n  mload(0x40)\n  0x08c379a000000000000000000000000000000000000000000000000000000000\n  dup2\n  mstore\n  0x04\n  add\n  tag_7\n  swap1\n  tag_8\n  jump\t// in\ntag_7:\n  mload(0x40)\n  dup1\n  swap2\n  sub\n  swap1\n  revert\ntag_6:\n    /* \"USDCpV2.sol\":5009:5019  msg.sender */\n  caller\n    /* \"USDCpV2.sol\":5001:5006  owner */\n  0x04\n  0x00\n    /* \"USDCpV2.sol\":5001:5019  owner = msg.sender */\n  0x0100\n  exp\n  dup2\n  sload\n  dup2\n  0xffffffffffffffffffffffffffffffffffffffff\n  mul\n  not\n  and\n  swap1\n  dup4\n  0xffffffffffffffffffffffffffffffffffffffff\n  and\n  mul\n  or\n  swap1\n  sstore\n  pop\n    /* \"USDCpV2.sol\":5038:5045  _bridge */\n  dup1\n    /* \"USDCpV2.sol\":5029:5035  bridge */\n  0x03\n  0x00\n    /* \"USDCpV2.sol\":5029:5045  bridge = _bridge */\n  0x0100\n  exp\n  dup2\n  sload\n  dup2\n  0xffffffffffffffffffffffffffffffffffffffff\n  mul\n  not\n  and\n  swap1\n  dup4\n  0xffffffffffffffffffffffffffffffffffffffff\n  and\n  mul\n  or\n  swap1\n  sstore\n  pop\n    /* \"USDCpV2.sol\":4890:5052  constructor(address _bridge) {... */\n  pop\n    /* \"USDCpV2.sol\":1498:11965  contract USDCpV2 {... */\n  jump(tag_9)\n    /* \"#utility.yul\":88:205   */\ntag_11:\n    /* \"#utility.yul\":197:198   */\n  0x00\n    /* \"#utility.yul\":194:195   */\n  dup1\n    /* \"#utility.yul\":187:199   */\n  revert\n    /* \"#utility.yul\":334:460   */\ntag_13:\n    /* \"#utility.yul\":371:378   */\n  0x00\n    /* \"#utility.yul\":411:453   */\n  0xffffffffffffffffffffffffffffffffffffffff\n    /* \"#utility.yul\":404:409   */\n  dup3\n    /* \"#utility.yul\":400:454   */\n  and\n    /* \"#utility.yul\":389:454   */\n  swap1\n  pop\n    /* \"#utility.yul\":334:460   */\n  swap2\n  swap1\n  pop\n  jump\t// out\n    /* \"#utility.yul\":466:562   */\ntag_14:\n    /* \"#utility.yul\":503:510   */\n  0x00\n    /* \"#utility.yul\":532:556   */\n  tag_26\n    /* \"#utility.yul\":550:555   */\n  dup3\n    /* \"#utility.yul\":532:556   */\n  tag_13\n  jump\t// in\ntag_26:\n    /* \"#utility.yul\":521:556   */\n  swap1\n  pop\n    /* \"#utility.yul\":466:562   */\n  swap2\n  swap1\n  pop\n  jump\t// out\n    /* \"#utility.yul\":568:690   */\ntag_15:\n    /* \"#utility.yul\":641:665   */\n  tag_28\n    /* \"#utility.yul\":659:664   */\n  dup2\n    /* \"#utility.yul\":641:665   */\n  tag_14\n  jump\t// in\ntag_28:\n    /* \"#utility.yul\":634:639   */\n  dup2\n    /* \"#utility.yul\":631:666   */\n  eq\n    /* \"#utility.yul\":621:684   */\n  tag_29\n  jumpi\n    /* \"#utility.yul\":680:681   */\n  0x00\n    /* \"#utility.yul\":677:678   */\n  dup1\n    /* \"#utility.yul\":670:682   */\n  revert\n    /* \"#utility.yul\":621:684   */\ntag_29:\n    /* \"#utility.yul\":568:690   */\n  pop\n  jump\t// out\n    /* \"#utility.yul\":696:839   */\ntag_16:\n    /* \"#utility.yul\":753:758   */\n  0x00\n    /* \"#utility.yul\":784:790   */\n  dup2\n    /* \"#utility.yul\":778:791   */\n  mload\n    /* \"#utility.yul\":769:791   */\n  swap1\n  pop\n    /* \"#utility.yul\":800:833   */\n  tag_31\n    /* \"#utility.yul\":827:832   */\n  dup2\n    /* \"#utility.yul\":800:833   */\n  tag_15\n  jump\t// in\ntag_31:\n    /* \"#utility.yul\":696:839   */\n  swap3\n  swap2\n  pop\n  pop\n  jump\t// out\n    /* \"#utility.yul\":845:1196   */\ntag_3:\n    /* \"#utility.yul\":915:921   */\n  0x00\n    /* \"#utility.yul\":964:966   */\n  0x20\n    /* \"#utility.yul\":952:961   */\n  dup3\n    /* \"#utility.yul\":943:950   */\n  dup5\n    /* \"#utility.yul\":939:962   */\n  sub\n    /* \"#utility.yul\":935:967   */\n  slt\n    /* \"#utility.yul\":932:1051   */\n  iszero\n  tag_33\n  jumpi\n    /* \"#utility.yul\":970:1049   */\n  tag_34\n  tag_11\n  jump\t// in\ntag_34:\n    /* \"#utility.yul\":932:1051   */\ntag_33:\n    /* \"#utility.yul\":1090:1091   */\n  0x00\n    /* \"#utility.yul\":1115:1179   */\n  tag_35\n    /* \"#utility.yul\":1171:1178   */\n  dup5\n    /* \"#utility.yul\":1162:1168   */\n  dup3\n    /* \"#utility.yul\":1151:1160   */\n  dup6\n    /* \"#utility.yul\":1147:1169   */\n  add\n    /* \"#utility.yul\":1115:1179   */\n  tag_16\n  jump\t// in\ntag_35:\n    /* \"#utility.yul\":1105:1179   */\n  swap2\n  pop\n    /* \"#utility.yul\":1061:1189   */\n  pop\n    /* \"#utility.yul\":845:1196   */\n  swap3\n  swap2\n  pop\n  pop\n  jump\t// out\n    /* \"#utility.yul\":1202:1371   */\ntag_17:\n    /* \"#utility.yul\":1286:1297   */\n  0x00\n    /* \"#utility.yul\":1320:1326   */\n  dup3\n    /* \"#utility.yul\":1315:1318   */\n  dup3\n    /* \"#utility.yul\":1308:1327   */\n  mstore\n    /* \"#utility.yul\":1360:1364   */\n  0x20\n    /* \"#utility.yul\":1355:1358   */\n  dup3\n    /* \"#utility.yul\":1351:1365   */\n  add\n    /* \"#utility.yul\":1336:1365   */\n  swap1\n  pop\n    /* \"#utility.yul\":1202:1371   */\n  swap3\n  swap2\n  pop\n  pop\n  jump\t// out\n    /* \"#utility.yul\":1377:1555   */\ntag_18:\n    /* \"#utility.yul\":1517:1547   */\n  0x55534443703a206272696467652063616e6e6f74206265207a65726f00000000\n    /* \"#utility.yul\":1513:1514   */\n  0x00\n    /* \"#utility.yul\":1505:1511   */\n  dup3\n    /* \"#utility.yul\":1501:1515   */\n  add\n    /* \"#utility.yul\":1494:1548   */\n  mstore\n    /* \"#utility.yul\":1377:1555   */\n  pop\n  jump\t// out\n    /* \"#utility.yul\":1561:1927   */\ntag_19:\n    /* \"#utility.yul\":1703:1706   */\n  0x00\n    /* \"#utility.yul\":1724:1791   */\n  tag_39\n    /* \"#utility.yul\":1788:1790   */\n  0x1c\n    /* \"#utility.yul\":1783:1786   */\n  dup4\n    /* \"#utility.yul\":1724:1791   */\n  tag_17\n  jump\t// in\ntag_39:\n    /* \"#utility.yul\":1717:1791   */\n  swap2\n  pop\n    /* \"#utility.yul\":1800:1893   */\n  tag_40\n    /* \"#utility.yul\":1889:1892   */\n  dup3\n    /* \"#utility.yul\":1800:1893   */\n  tag_18\n  jump\t// in\ntag_40:\n    /* \"#utility.yul\":1918:1920   */\n  0x20\n    /* \"#utility.yul\":1913:1916   */\n  dup3\n    /* \"#utility.yul\":1909:1921   */\n  add\n    /* \"#utility.yul\":1902:1921   */\n  swap1\n  pop\n    /* \"#utility.yul\":1561:1927   */\n  swap2\n  swap1\n  pop\n  jump\t// out\n    /* \"#utility.yul\":1933:2352   */\ntag_8:\n    /* \"#utility.yul\":2099:2103   */\n  0x00\n    /* \"#utility.yul\":2137:2139   */\n  0x20\n    /* \"#utility.yul\":2126:2135   */\n  dup3\n    /* \"#utility.yul\":2122:2140   */\n  add\n    /* \"#utility.yul\":2114:2140   */\n  swap1\n  pop\n    /* \"#utility.yul\":2186:2195   */\n  dup2\n    /* \"#utility.yul\":2180:2184   */\n  dup2\n    /* \"#utility.yul\":2176:2196   */\n  sub\n    /* \"#utility.yul\":2172:2173   */\n  0x00\n    /* \"#utility.yul\":2161:2170   */\n  dup4\n    /* \"#utility.yul\":2157:2174   */\n  add\n    /* \"#utility.yul\":2150:2197   */\n  mstore\n    /* \"#utility.yul\":2214:2345   */\n  tag_42\n    /* \"#utility.yul\":2340:2344   */\n  dup2\n    /* \"#utility.yul\":2214:2345   */\n  tag_19\n  jump\t// in\ntag_42:\n    /* \"#utility.yul\":2206:2345   */\n  swap1\n  pop\n    /* \"#utility.yul\":1933:2352   */\n  swap2\n  swap1\n  pop\n  jump\t// out\n    /* \"USDCpV2.sol\":1498:11965  contract USDCpV2 {... */\ntag_9:\n  dataSize(sub_0)\n  dup1\n  dataOffset(sub_0)\n  0x00\n  codecopy\n  0x00\n  return\nstop\n\nsub_0: assembly {\n        /* \"USDCpV2.sol\":1498:11965  contract USDCpV2 {... */\n      mstore(0x40, 0x80)\n      callvalue\n      dup1\n      iszero\n      tag_1\n      jumpi\n      0x00\n      dup1\n      revert\n    tag_1:\n      pop\n      jumpi(tag_2, lt(calldatasize, 0x04))\n      shr(0xe0, calldataload(0x00))\n      dup1\n      0x79ba5097\n      gt\n      tag_25\n      jumpi\n      dup1\n      0xa457c2d7\n      gt\n      tag_26\n      jumpi\n      dup1\n      0xa457c2d7\n      eq\n      tag_19\n      jumpi\n      dup1\n      0xa9059cbb\n      eq\n      tag_20\n      jumpi\n      dup1\n      0xdd62ed3e\n      eq\n      tag_21\n      jumpi\n      dup1\n      0xe30c3978\n      eq\n      tag_22\n      jumpi\n      dup1\n      0xe78cea92\n      eq\n      tag_23\n      jumpi\n      dup1\n      0xf2fde38b\n      eq\n      tag_24\n      jumpi\n      jump(tag_2)\n    tag_26:\n      dup1\n      0x79ba5097\n      eq\n      tag_14\n      jumpi\n      dup1\n      0x8456cb59\n      eq\n      tag_15\n      jumpi\n      dup1\n      0x8da5cb5b\n      eq\n      tag_16\n      jumpi\n      dup1\n      0x8dd14802\n      eq\n      tag_17\n      jumpi\n      dup1\n      0x95d89b41\n      eq\n      tag_18\n      jumpi\n      jump(tag_2)\n    tag_25:\n      dup1\n      0x23b872dd\n      gt\n      tag_27\n      jumpi\n      dup1\n      0x23b872dd\n      eq\n      tag_8\n      jumpi\n      dup1\n      0x313ce567\n      eq\n      tag_9\n      jumpi\n      dup1\n      0x39509351\n      eq\n      tag_10\n      jumpi\n      dup1\n      0x3f4ba83a\n      eq\n      tag_11\n      jumpi\n      dup1\n      0x5c975abb\n      eq\n      tag_12\n      jumpi\n      dup1\n      0x70a08231\n      eq\n      tag_13\n      jumpi\n      jump(tag_2)\n    tag_27:\n      dup1\n      0x06fdde03\n      eq\n      tag_3\n      jumpi\n      dup1\n      0x095ea7b3\n      eq\n      tag_4\n      jumpi\n      dup1\n      0x158a1cc3\n      eq\n      tag_5\n      jumpi\n      dup1\n      0x18160ddd\n      eq\n      tag_6\n      jumpi\n      dup1\n      0x1e458bee\n      eq\n      tag_7\n      jumpi\n    tag_2:\n      0x00\n      dup1\n      revert\n        /* \"USDCpV2.sol\":1779:1833  string public constant name = \"Bridged USDC (Private)\" */\n    tag_3:\n      tag_28\n      tag_29\n      jump\t// in\n    tag_28:\n      mload(0x40)\n      tag_30\n      swap2\n      swap1\n      tag_31\n      jump\t// in\n    tag_30:\n      mload(0x40)\n      dup1\n      swap2\n      sub\n      swap1\n      return\n        /* \"USDCpV2.sol\":6743:6906  function approve(address spender, uint256 amount) external whenNotPaused returns (bool) {... */\n    tag_4:\n      tag_32\n      0x04\n      dup1\n      calldatasize\n      sub\n      dup2\n      add\n      swap1\n      tag_33\n      swap2\n      swap1\n      tag_34\n      jump\t// in\n    tag_33:\n      tag_35\n      jump\t// in\n    tag_32:\n      mload(0x40)\n      tag_36\n      swap2\n      swap1\n      tag_37\n      jump\t// in\n    tag_36:\n      mload(0x40)\n      dup1\n      swap2\n      sub\n      swap1\n      return\n        /* \"USDCpV2.sol\":10173:10613  function burn(address from, uint256 amount, bytes32 withdrawId) external onlyBridge whenNotPaused {... */\n    tag_5:\n      tag_38\n      0x04\n      dup1\n      calldatasize\n      sub\n      dup2\n      add\n      swap1\n      tag_39\n      swap2\n      swap1\n      tag_40\n      jump\t// in\n    tag_39:\n      tag_41\n      jump\t// in\n    tag_38:\n      stop\n        /* \"USDCpV2.sol\":2222:2248  uint256 public totalSupply */\n    tag_6:\n      tag_42\n      tag_43\n      jump\t// in\n    tag_42:\n      mload(0x40)\n      tag_44\n      swap2\n      swap1\n      tag_45\n      jump\t// in\n    tag_44:\n      mload(0x40)\n      dup1\n      swap2\n      sub\n      swap1\n      return\n        /* \"USDCpV2.sol\":9473:9888  function mint(address to, uint256 amount, bytes32 depositId) external onlyBridge whenNotPaused {... */\n    tag_7:\n      tag_46\n      0x04\n      dup1\n      calldatasize\n      sub\n      dup2\n      add\n      swap1\n      tag_47\n      swap2\n      swap1\n      tag_40\n      jump\t// in\n    tag_47:\n      tag_48\n      jump\t// in\n    tag_46:\n      stop\n        /* \"USDCpV2.sol\":7229:7751  function transferFrom(address from, address to, uint256 amount) external whenNotPaused returns (bool) {... */\n    tag_8:\n      tag_49\n      0x04\n      dup1\n      calldatasize\n      sub\n      dup2\n      add\n      swap1\n      tag_50\n      swap2\n      swap1\n      tag_51\n      jump\t// in\n    tag_50:\n      tag_52\n      jump\t// in\n    tag_49:\n      mload(0x40)\n      tag_53\n      swap2\n      swap1\n      tag_37\n      jump\t// in\n    tag_53:\n      mload(0x40)\n      dup1\n      swap2\n      sub\n      swap1\n      return\n        /* \"USDCpV2.sol\":2114:2148  uint8 public constant decimals = 6 */\n    tag_9:\n      tag_54\n      tag_55\n      jump\t// in\n    tag_54:\n      mload(0x40)\n      tag_56\n      swap2\n      swap1\n      tag_57\n      jump\t// in\n    tag_56:\n      mload(0x40)\n      dup1\n      swap2\n      sub\n      swap1\n      return\n        /* \"USDCpV2.sol\":7936:8150  function increaseAllowance(address spender, uint256 addedValue) external whenNotPaused returns (bool) {... */\n    tag_10:\n      tag_58\n      0x04\n      dup1\n      calldatasize\n      sub\n      dup2\n      add\n      swap1\n      tag_59\n      swap2\n      swap1\n      tag_34\n      jump\t// in\n    tag_59:\n      tag_60\n      jump\t// in\n    tag_58:\n      mload(0x40)\n      tag_61\n      swap2\n      swap1\n      tag_37\n      jump\t// in\n    tag_61:\n      mload(0x40)\n      dup1\n      swap2\n      sub\n      swap1\n      return\n        /* \"USDCpV2.sol\":11859:11963  function unpause() external onlyOwner {... */\n    tag_11:\n      tag_62\n      tag_63\n      jump\t// in\n    tag_62:\n      stop\n        /* \"USDCpV2.sol\":2903:2921  bool public paused */\n    tag_12:\n      tag_64\n      tag_65\n      jump\t// in\n    tag_64:\n      mload(0x40)\n      tag_66\n      swap2\n      swap1\n      tag_37\n      jump\t// in\n    tag_66:\n      mload(0x40)\n      dup1\n      swap2\n      sub\n      swap1\n      return\n        /* \"USDCpV2.sol\":2337:2381  mapping(address => uint256) public balanceOf */\n    tag_13:\n      tag_67\n      0x04\n      dup1\n      calldatasize\n      sub\n      dup2\n      add\n      swap1\n      tag_68\n      swap2\n      swap1\n      tag_69\n      jump\t// in\n    tag_68:\n      tag_70\n      jump\t// in\n    tag_67:\n      mload(0x40)\n      tag_71\n      swap2\n      swap1\n      tag_45\n      jump\t// in\n    tag_71:\n      mload(0x40)\n      dup1\n      swap2\n      sub\n      swap1\n      return\n        /* \"USDCpV2.sol\":11437:11684  function acceptOwnership() external {... */\n    tag_14:\n      tag_72\n      tag_73\n      jump\t// in\n    tag_72:\n      stop\n        /* \"USDCpV2.sol\":11719:11818  function pause() external onlyOwner {... */\n    tag_15:\n      tag_74\n      tag_75\n      jump\t// in\n    tag_74:\n      stop\n        /* \"USDCpV2.sol\":2815:2835  address public owner */\n    tag_16:\n      tag_76\n      tag_77\n      jump\t// in\n    tag_76:\n      mload(0x40)\n      tag_78\n      swap2\n      swap1\n      tag_79\n      jump\t// in\n    tag_78:\n      mload(0x40)\n      dup1\n      swap2\n      sub\n      swap1\n      return\n        /* \"USDCpV2.sol\":10823:11044  function setBridge(address newBridge) external onlyOwner {... */\n    tag_17:\n      tag_80\n      0x04\n      dup1\n      calldatasize\n      sub\n      dup2\n      add\n      swap1\n      tag_81\n      swap2\n      swap1\n      tag_69\n      jump\t// in\n    tag_81:\n      tag_82\n      jump\t// in\n    tag_80:\n      stop\n        /* \"USDCpV2.sol\":1910:1949  string public constant symbol = \"USDCp\" */\n    tag_18:\n      tag_83\n      tag_84\n      jump\t// in\n    tag_83:\n      mload(0x40)\n      tag_85\n      swap2\n      swap1\n      tag_31\n      jump\t// in\n    tag_85:\n      mload(0x40)\n      dup1\n      swap2\n      sub\n      swap1\n      return\n        /* \"USDCpV2.sol\":8337:8709  function decreaseAllowance(address spender, uint256 subtractedValue) external whenNotPaused returns (bool) {... */\n    tag_19:\n      tag_86\n      0x04\n      dup1\n      calldatasize\n      sub\n      dup2\n      add\n      swap1\n      tag_87\n      swap2\n      swap1\n      tag_34\n      jump\t// in\n    tag_87:\n      tag_88\n      jump\t// in\n    tag_86:\n      mload(0x40)\n      tag_89\n      swap2\n      swap1\n      tag_37\n      jump\t// in\n    tag_89:\n      mload(0x40)\n      dup1\n      swap2\n      sub\n      swap1\n      return\n        /* \"USDCpV2.sol\":5725:6204  function transfer(address to, uint256 amount) external whenNotPaused returns (bool) {... */\n    tag_20:\n      tag_90\n      0x04\n      dup1\n      calldatasize\n      sub\n      dup2\n      add\n      swap1\n      tag_91\n      swap2\n      swap1\n      tag_34\n      jump\t// in\n    tag_91:\n      tag_92\n      jump\t// in\n    tag_90:\n      mload(0x40)\n      tag_93\n      swap2\n      swap1\n      tag_37\n      jump\t// in\n    tag_93:\n      mload(0x40)\n      dup1\n      swap2\n      sub\n      swap1\n      return\n        /* \"USDCpV2.sol\":2542:2606  mapping(address => mapping(address => uint256)) public allowance */\n    tag_21:\n      tag_94\n      0x04\n      dup1\n      calldatasize\n      sub\n      dup2\n      add\n      swap1\n      tag_95\n      swap2\n      swap1\n      tag_96\n      jump\t// in\n    tag_95:\n      tag_97\n      jump\t// in\n    tag_94:\n      mload(0x40)\n      tag_98\n      swap2\n      swap1\n      tag_45\n      jump\t// in\n    tag_98:\n      mload(0x40)\n      dup1\n      swap2\n      sub\n      swap1\n      return\n        /* \"USDCpV2.sol\":2841:2868  address public pendingOwner */\n    tag_22:\n      tag_99\n      tag_100\n      jump\t// in\n    tag_99:\n      mload(0x40)\n      tag_101\n      swap2\n      swap1\n      tag_79\n      jump\t// in\n    tag_101:\n      mload(0x40)\n      dup1\n      swap2\n      sub\n      swap1\n      return\n        /* \"USDCpV2.sol\":2788:2809  address public bridge */\n    tag_23:\n      tag_102\n      tag_103\n      jump\t// in\n    tag_102:\n      mload(0x40)\n      tag_104\n      swap2\n      swap1\n      tag_79\n      jump\t// in\n    tag_104:\n      mload(0x40)\n      dup1\n      swap2\n      sub\n      swap1\n      return\n        /* \"USDCpV2.sol\":11110:11354  function transferOwnership(address newOwner) external onlyOwner {... */\n    tag_24:\n      tag_105\n      0x04\n      dup1\n      calldatasize\n      sub\n      dup2\n      add\n      swap1\n      tag_106\n      swap2\n      swap1\n      tag_69\n      jump\t// in\n    tag_106:\n      tag_107\n      jump\t// in\n    tag_105:\n      stop\n        /* \"USDCpV2.sol\":1779:1833  string public constant name = \"Bridged USDC (Private)\" */\n    tag_29:\n      mload(0x40)\n      dup1\n      0x40\n      add\n      0x40\n      mstore\n      dup1\n      0x16\n      dup2\n      mstore\n      0x20\n      add\n      0x4272696467656420555344432028507269766174652900000000000000000000\n      dup2\n      mstore\n      pop\n      dup2\n      jump\t// out\n        /* \"USDCpV2.sol\":6743:6906  function approve(address spender, uint256 amount) external whenNotPaused returns (bool) {... */\n    tag_35:\n        /* \"USDCpV2.sol\":6825:6829  bool */\n      0x00\n        /* \"USDCpV2.sol\":4676:4682  paused */\n      0x05\n      0x14\n      swap1\n      sload\n      swap1\n      0x0100\n      exp\n      swap1\n      div\n      0xff\n      and\n        /* \"USDCpV2.sol\":4675:4682  !paused */\n      iszero\n        /* \"USDCpV2.sol\":4667:4700  require(!paused, \"USDCp: paused\") */\n      tag_109\n      jumpi\n      mload(0x40)\n      0x08c379a000000000000000000000000000000000000000000000000000000000\n      dup2\n      mstore\n      0x04\n      add\n      tag_110\n      swap1\n      tag_111\n      jump\t// in\n    tag_110:\n      mload(0x40)\n      dup1\n      swap2\n      sub\n      swap1\n      revert\n    tag_109:\n        /* \"USDCpV2.sol\":6841:6878  _approve(msg.sender, spender, amount) */\n      tag_113\n        /* \"USDCpV2.sol\":6850:6860  msg.sender */\n      caller\n        /* \"USDCpV2.sol\":6862:6869  spender */\n      dup5\n        /* \"USDCpV2.sol\":6871:6877  amount */\n      dup5\n        /* \"USDCpV2.sol\":6841:6849  _approve */\n      tag_114\n        /* \"USDCpV2.sol\":6841:6878  _approve(msg.sender, spender, amount) */\n      jump\t// in\n    tag_113:\n        /* \"USDCpV2.sol\":6895:6899  true */\n      0x01\n        /* \"USDCpV2.sol\":6888:6899  return true */\n      swap1\n      pop\n        /* \"USDCpV2.sol\":6743:6906  function approve(address spender, uint256 amount) external whenNotPaused returns (bool) {... */\n      swap3\n      swap2\n      pop\n      pop\n      jump\t// out\n        /* \"USDCpV2.sol\":10173:10613  function burn(address from, uint256 amount, bytes32 withdrawId) external onlyBridge whenNotPaused {... */\n    tag_41:\n        /* \"USDCpV2.sol\":4449:4455  bridge */\n      0x03\n      0x00\n      swap1\n      sload\n      swap1\n      0x0100\n      exp\n      swap1\n      div\n      0xffffffffffffffffffffffffffffffffffffffff\n      and\n        /* \"USDCpV2.sol\":4435:4455  msg.sender == bridge */\n      0xffffffffffffffffffffffffffffffffffffffff\n      and\n        /* \"USDCpV2.sol\":4435:4445  msg.sender */\n      caller\n        /* \"USDCpV2.sol\":4435:4455  msg.sender == bridge */\n      0xffffffffffffffffffffffffffffffffffffffff\n      and\n      eq\n        /* \"USDCpV2.sol\":4427:4491  require(msg.sender == bridge, \"USDCp: caller is not the bridge\") */\n      tag_116\n      jumpi\n      mload(0x40)\n      0x08c379a000000000000000000000000000000000000000000000000000000000\n      dup2\n      mstore\n      0x04\n      add\n      tag_117\n      swap1\n      tag_118\n      jump\t// in\n    tag_117:\n      mload(0x40)\n      dup1\n      swap2\n      sub\n      swap1\n      revert\n    tag_116:\n        /* \"USDCpV2.sol\":4676:4682  paused */\n      0x05\n      0x14\n      swap1\n      sload\n      swap1\n      0x0100\n      exp\n      swap1\n      div\n      0xff\n      and\n        /* \"USDCpV2.sol\":4675:4682  !paused */\n      iszero\n        /* \"USDCpV2.sol\":4667:4700  require(!paused, \"USDCp: paused\") */\n      tag_120\n      jumpi\n      mload(0x40)\n      0x08c379a000000000000000000000000000000000000000000000000000000000\n      dup2\n      mstore\n      0x04\n      add\n      tag_121\n      swap1\n      tag_111\n      jump\t// in\n    tag_121:\n      mload(0x40)\n      dup1\n      swap2\n      sub\n      swap1\n      revert\n    tag_120:\n        /* \"USDCpV2.sol\":10308:10314  amount */\n      dup2\n        /* \"USDCpV2.sol\":10289:10298  balanceOf */\n      0x01\n        /* \"USDCpV2.sol\":10289:10304  balanceOf[from] */\n      0x00\n        /* \"USDCpV2.sol\":10299:10303  from */\n      dup6\n        /* \"USDCpV2.sol\":10289:10304  balanceOf[from] */\n      0xffffffffffffffffffffffffffffffffffffffff\n      and\n      0xffffffffffffffffffffffffffffffffffffffff\n      and\n      dup2\n      mstore\n      0x20\n      add\n      swap1\n      dup2\n      mstore\n      0x20\n      add\n      0x00\n      keccak256\n      sload\n        /* \"USDCpV2.sol\":10289:10314  balanceOf[from] >= amount */\n      lt\n      iszero\n        /* \"USDCpV2.sol\":10281:10354  require(balanceOf[from] >= amount, \"USDCp: insufficient balance to burn\") */\n      tag_123\n      jumpi\n      mload(0x40)\n      0x08c379a000000000000000000000000000000000000000000000000000000000\n      dup2\n      mstore\n      0x04\n      add\n      tag_124\n      swap1\n      tag_125\n      jump\t// in\n    tag_124:\n      mload(0x40)\n      dup1\n      swap2\n      sub\n      swap1\n      revert\n    tag_123:\n        /* \"USDCpV2.sol\":10381:10382  0 */\n      0x00\n        /* \"USDCpV2.sol\":10372:10378  amount */\n      dup3\n        /* \"USDCpV2.sol\":10372:10382  amount > 0 */\n      gt\n        /* \"USDCpV2.sol\":10364:10417  require(amount > 0, \"USDCp: burn amount must be > 0\") */\n      tag_126\n      jumpi\n      mload(0x40)\n      0x08c379a000000000000000000000000000000000000000000000000000000000\n      dup2\n      mstore\n      0x04\n      add\n      tag_127\n      swap1\n      tag_128\n      jump\t// in\n    tag_127:\n      mload(0x40)\n      dup1\n      swap2\n      sub\n      swap1\n      revert\n    tag_126:\n        /* \"USDCpV2.sol\":10447:10453  amount */\n      dup2\n        /* \"USDCpV2.sol\":10428:10437  balanceOf */\n      0x01\n        /* \"USDCpV2.sol\":10428:10443  balanceOf[from] */\n      0x00\n        /* \"USDCpV2.sol\":10438:10442  from */\n      dup6\n        /* \"USDCpV2.sol\":10428:10443  balanceOf[from] */\n      0xffffffffffffffffffffffffffffffffffffffff\n      and\n      0xffffffffffffffffffffffffffffffffffffffff\n      and\n      dup2\n      mstore\n      0x20\n      add\n      swap1\n      dup2\n      mstore\n      0x20\n      add\n      0x00\n      keccak256\n      0x00\n        /* \"USDCpV2.sol\":10428:10453  balanceOf[from] -= amount */\n      dup3\n      dup3\n      sload\n      tag_129\n      swap2\n      swap1\n      tag_130\n      jump\t// in\n    tag_129:\n      swap3\n      pop\n      pop\n      dup2\n      swap1\n      sstore\n      pop\n        /* \"USDCpV2.sol\":10478:10484  amount */\n      dup2\n        /* \"USDCpV2.sol\":10463:10474  totalSupply */\n      0x00\n      dup1\n        /* \"USDCpV2.sol\":10463:10484  totalSupply -= amount */\n      dup3\n      dup3\n      sload\n      tag_131\n      swap2\n      swap1\n      tag_130\n      jump\t// in\n    tag_131:\n      swap3\n      pop\n      pop\n      dup2\n      swap1\n      sstore\n      pop\n        /* \"USDCpV2.sol\":10523:10524  0 */\n      0x00\n        /* \"USDCpV2.sol\":10500:10534  Transfer(from, address(0), amount) */\n      0xffffffffffffffffffffffffffffffffffffffff\n      and\n        /* \"USDCpV2.sol\":10509:10513  from */\n      dup4\n        /* \"USDCpV2.sol\":10500:10534  Transfer(from, address(0), amount) */\n      0xffffffffffffffffffffffffffffffffffffffff\n      and\n      0xddf252ad1be2c89b69c2b068fc378daa952ba7f163c4a11628f55a4df523b3ef\n        /* \"USDCpV2.sol\":10527:10533  amount */\n      dup5\n        /* \"USDCpV2.sol\":10500:10534  Transfer(from, address(0), amount) */\n      mload(0x40)\n      tag_132\n      swap2\n      swap1\n      tag_45\n      jump\t// in\n    tag_132:\n      mload(0x40)\n      dup1\n      swap2\n      sub\n      swap1\n      log3\n        /* \"USDCpV2.sol\":10595:10605  withdrawId */\n      dup1\n        /* \"USDCpV2.sol\":10581:10585  from */\n      dup4\n        /* \"USDCpV2.sol\":10576:10606  Burn(from, amount, withdrawId) */\n      0xffffffffffffffffffffffffffffffffffffffff\n      and\n      0xc6c4132f6250531f66c30d176444d900432e0ff7bb9e3e4ef8c8b33670218419\n        /* \"USDCpV2.sol\":10587:10593  amount */\n      dup5\n        /* \"USDCpV2.sol\":10576:10606  Burn(from, amount, withdrawId) */\n      mload(0x40)\n      tag_133\n      swap2\n      swap1\n      tag_45\n      jump\t// in\n    tag_133:\n      mload(0x40)\n      dup1\n      swap2\n      sub\n      swap1\n      log3\n        /* \"USDCpV2.sol\":10173:10613  function burn(address from, uint256 amount, bytes32 withdrawId) external onlyBridge whenNotPaused {... */\n      pop\n      pop\n      pop\n      jump\t// out\n        /* \"USDCpV2.sol\":2222:2248  uint256 public totalSupply */\n    tag_43:\n      sload(0x00)\n      dup2\n      jump\t// out\n        /* \"USDCpV2.sol\":9473:9888  function mint(address to, uint256 amount, bytes32 depositId) external onlyBridge whenNotPaused {... */\n    tag_48:\n        /* \"USDCpV2.sol\":4449:4455  bridge */\n      0x03\n      0x00\n      swap1\n      sload\n      swap1\n      0x0100\n      exp\n      swap1\n      div\n      0xffffffffffffffffffffffffffffffffffffffff\n      and\n        /* \"USDCpV2.sol\":4435:4455  msg.sender == bridge */\n      0xffffffffffffffffffffffffffffffffffffffff\n      and\n        /* \"USDCpV2.sol\":4435:4445  msg.sender */\n      caller\n        /* \"USDCpV2.sol\":4435:4455  msg.sender == bridge */\n      0xffffffffffffffffffffffffffffffffffffffff\n      and\n      eq\n        /* \"USDCpV2.sol\":4427:4491  require(msg.sender == bridge, \"USDCp: caller is not the bridge\") */\n      tag_135\n      jumpi\n      mload(0x40)\n      0x08c379a000000000000000000000000000000000000000000000000000000000\n      dup2\n      mstore\n      0x04\n      add\n      tag_136\n      swap1\n      tag_118\n      jump\t// in\n    tag_136:\n      mload(0x40)\n      dup1\n      swap2\n      sub\n      swap1\n      revert\n    tag_135:\n        /* \"USDCpV2.sol\":4676:4682  paused */\n      0x05\n      0x14\n      swap1\n      sload\n      swap1\n      0x0100\n      exp\n      swap1\n      div\n      0xff\n      and\n        /* \"USDCpV2.sol\":4675:4682  !paused */\n      iszero\n        /* \"USDCpV2.sol\":4667:4700  require(!paused, \"USDCp: paused\") */\n      tag_138\n      jumpi\n      mload(0x40)\n      0x08c379a000000000000000000000000000000000000000000000000000000000\n      dup2\n      mstore\n      0x04\n      add\n      tag_139\n      swap1\n      tag_111\n      jump\t// in\n    tag_139:\n      mload(0x40)\n      dup1\n      swap2\n      sub\n      swap1\n      revert\n    tag_138:\n        /* \"USDCpV2.sol\":9600:9601  0 */\n      0x00\n        /* \"USDCpV2.sol\":9586:9602  to != address(0) */\n      0xffffffffffffffffffffffffffffffffffffffff\n      and\n        /* \"USDCpV2.sol\":9586:9588  to */\n      dup4\n        /* \"USDCpV2.sol\":9586:9602  to != address(0) */\n      0xffffffffffffffffffffffffffffffffffffffff\n      and\n      eq\n      iszero\n        /* \"USDCpV2.sol\":9578:9634  require(to != address(0), \"USDCp: mint to zero address\") */\n      tag_141\n      jumpi\n      mload(0x40)\n      0x08c379a000000000000000000000000000000000000000000000000000000000\n      dup2\n      mstore\n      0x04\n      add\n      tag_142\n      swap1\n      tag_143\n      jump\t// in\n    tag_142:\n      mload(0x40)\n      dup1\n      swap2\n      sub\n      swap1\n      revert\n    tag_141:\n        /* \"USDCpV2.sol\":9661:9662  0 */\n      0x00\n        /* \"USDCpV2.sol\":9652:9658  amount */\n      dup3\n        /* \"USDCpV2.sol\":9652:9662  amount > 0 */\n      gt\n        /* \"USDCpV2.sol\":9644:9697  require(amount > 0, \"USDCp: mint amount must be > 0\") */\n      tag_144\n      jumpi\n      mload(0x40)\n      0x08c379a000000000000000000000000000000000000000000000000000000000\n      dup2\n      mstore\n      0x04\n      add\n      tag_145\n      swap1\n      tag_146\n      jump\t// in\n    tag_145:\n      mload(0x40)\n      dup1\n      swap2\n      sub\n      swap1\n      revert\n    tag_144:\n        /* \"USDCpV2.sol\":9723:9729  amount */\n      dup2\n        /* \"USDCpV2.sol\":9708:9719  totalSupply */\n      0x00\n      dup1\n        /* \"USDCpV2.sol\":9708:9729  totalSupply += amount */\n      dup3\n      dup3\n      sload\n      tag_147\n      swap2\n      swap1\n      tag_148\n      jump\t// in\n    tag_147:\n      swap3\n      pop\n      pop\n      dup2\n      swap1\n      sstore\n      pop\n        /* \"USDCpV2.sol\":9756:9762  amount */\n      dup2\n        /* \"USDCpV2.sol\":9739:9748  balanceOf */\n      0x01\n        /* \"USDCpV2.sol\":9739:9752  balanceOf[to] */\n      0x00\n        /* \"USDCpV2.sol\":9749:9751  to */\n      dup6\n        /* \"USDCpV2.sol\":9739:9752  balanceOf[to] */\n      0xffffffffffffffffffffffffffffffffffffffff\n      and\n      0xffffffffffffffffffffffffffffffffffffffff\n      and\n      dup2\n      mstore\n      0x20\n      add\n      swap1\n      dup2\n      mstore\n      0x20\n      add\n      0x00\n      keccak256\n      0x00\n        /* \"USDCpV2.sol\":9739:9762  balanceOf[to] += amount */\n      dup3\n      dup3\n      sload\n      tag_149\n      swap2\n      swap1\n      tag_148\n      jump\t// in\n    tag_149:\n      swap3\n      pop\n      pop\n      dup2\n      swap1\n      sstore\n      pop\n        /* \"USDCpV2.sol\":9799:9801  to */\n      dup3\n        /* \"USDCpV2.sol\":9778:9810  Transfer(address(0), to, amount) */\n      0xffffffffffffffffffffffffffffffffffffffff\n      and\n        /* \"USDCpV2.sol\":9795:9796  0 */\n      0x00\n        /* \"USDCpV2.sol\":9778:9810  Transfer(address(0), to, amount) */\n      0xffffffffffffffffffffffffffffffffffffffff\n      and\n      0xddf252ad1be2c89b69c2b068fc378daa952ba7f163c4a11628f55a4df523b3ef\n        /* \"USDCpV2.sol\":9803:9809  amount */\n      dup5\n        /* \"USDCpV2.sol\":9778:9810  Transfer(address(0), to, amount) */\n      mload(0x40)\n      tag_150\n      swap2\n      swap1\n      tag_45\n      jump\t// in\n    tag_150:\n      mload(0x40)\n      dup1\n      swap2\n      sub\n      swap1\n      log3\n        /* \"USDCpV2.sol\":9871:9880  depositId */\n      dup1\n        /* \"USDCpV2.sol\":9859:9861  to */\n      dup4\n        /* \"USDCpV2.sol\":9854:9881  Mint(to, amount, depositId) */\n      0xffffffffffffffffffffffffffffffffffffffff\n      and\n      0x3dec94b8abc8f801eaade1616d3aadd3114b556a284267905e0a053b2df39892\n        /* \"USDCpV2.sol\":9863:9869  amount */\n      dup5\n        /* \"USDCpV2.sol\":9854:9881  Mint(to, amount, depositId) */\n      mload(0x40)\n      tag_151\n      swap2\n      swap1\n      tag_45\n      jump\t// in\n    tag_151:\n      mload(0x40)\n      dup1\n      swap2\n      sub\n      swap1\n      log3\n        /* \"USDCpV2.sol\":9473:9888  function mint(address to, uint256 amount, bytes32 depositId) external onlyBridge whenNotPaused {... */\n      pop\n      pop\n      pop\n      jump\t// out\n        /* \"USDCpV2.sol\":7229:7751  function transferFrom(address from, address to, uint256 amount) external whenNotPaused returns (bool) {... */\n    tag_52:\n        /* \"USDCpV2.sol\":7325:7329  bool */\n      0x00\n        /* \"USDCpV2.sol\":4676:4682  paused */\n      0x05\n      0x14\n      swap1\n      sload\n      swap1\n      0x0100\n      exp\n      swap1\n      div\n      0xff\n      and\n        /* \"USDCpV2.sol\":4675:4682  !paused */\n      iszero\n        /* \"USDCpV2.sol\":4667:4700  require(!paused, \"USDCp: paused\") */\n      tag_153\n      jumpi\n      mload(0x40)\n      0x08c379a000000000000000000000000000000000000000000000000000000000\n      dup2\n      mstore\n      0x04\n      add\n      tag_154\n      swap1\n      tag_111\n      jump\t// in\n    tag_154:\n      mload(0x40)\n      dup1\n      swap2\n      sub\n      swap1\n      revert\n    tag_153:\n        /* \"USDCpV2.sol\":7363:7364  0 */\n      0x00\n        /* \"USDCpV2.sol\":7349:7365  to != address(0) */\n      0xffffffffffffffffffffffffffffffffffffffff\n      and\n        /* \"USDCpV2.sol\":7349:7351  to */\n      dup4\n        /* \"USDCpV2.sol\":7349:7365  to != address(0) */\n      0xffffffffffffffffffffffffffffffffffffffff\n      and\n      eq\n      iszero\n        /* \"USDCpV2.sol\":7341:7401  require(to != address(0), \"USDCp: transfer to zero address\") */\n      tag_156\n      jumpi\n      mload(0x40)\n      0x08c379a000000000000000000000000000000000000000000000000000000000\n      dup2\n      mstore\n      0x04\n      add\n      tag_157\n      swap1\n      tag_158\n      jump\t// in\n    tag_157:\n      mload(0x40)\n      dup1\n      swap2\n      sub\n      swap1\n      revert\n    tag_156:\n        /* \"USDCpV2.sol\":7438:7444  amount */\n      dup2\n        /* \"USDCpV2.sol\":7419:7428  balanceOf */\n      0x01\n        /* \"USDCpV2.sol\":7419:7434  balanceOf[from] */\n      0x00\n        /* \"USDCpV2.sol\":7429:7433  from */\n      dup7\n        /* \"USDCpV2.sol\":7419:7434  balanceOf[from] */\n      0xffffffffffffffffffffffffffffffffffffffff\n      and\n      0xffffffffffffffffffffffffffffffffffffffff\n      and\n      dup2\n      mstore\n      0x20\n      add\n      swap1\n      dup2\n      mstore\n      0x20\n      add\n      0x00\n      keccak256\n      sload\n        /* \"USDCpV2.sol\":7419:7444  balanceOf[from] >= amount */\n      lt\n      iszero\n        /* \"USDCpV2.sol\":7411:7476  require(balanceOf[from] >= amount, \"USDCp: insufficient balance\") */\n      tag_159\n      jumpi\n      mload(0x40)\n      0x08c379a000000000000000000000000000000000000000000000000000000000\n      dup2\n      mstore\n      0x04\n      add\n      tag_160\n      swap1\n      tag_161\n      jump\t// in\n    tag_160:\n      mload(0x40)\n      dup1\n      swap2\n      sub\n      swap1\n      revert\n    tag_159:\n        /* \"USDCpV2.sol\":7525:7531  amount */\n      dup2\n        /* \"USDCpV2.sol\":7494:7503  allowance */\n      0x02\n        /* \"USDCpV2.sol\":7494:7509  allowance[from] */\n      0x00\n        /* \"USDCpV2.sol\":7504:7508  from */\n      dup7\n        /* \"USDCpV2.sol\":7494:7509  allowance[from] */\n      0xffffffffffffffffffffffffffffffffffffffff\n      and\n      0xffffffffffffffffffffffffffffffffffffffff\n      and\n      dup2\n      mstore\n      0x20\n      add\n      swap1\n      dup2\n      mstore\n      0x20\n      add\n      0x00\n      keccak256\n        /* \"USDCpV2.sol\":7494:7521  allowance[from][msg.sender] */\n      0x00\n        /* \"USDCpV2.sol\":7510:7520  msg.sender */\n      caller\n        /* \"USDCpV2.sol\":7494:7521  allowance[from][msg.sender] */\n      0xffffffffffffffffffffffffffffffffffffffff\n      and\n      0xffffffffffffffffffffffffffffffffffffffff\n      and\n      dup2\n      mstore\n      0x20\n      add\n      swap1\n      dup2\n      mstore\n      0x20\n      add\n      0x00\n      keccak256\n      sload\n        /* \"USDCpV2.sol\":7494:7531  allowance[from][msg.sender] >= amount */\n      lt\n      iszero\n        /* \"USDCpV2.sol\":7486:7565  require(allowance[from][msg.sender] >= amount, \"USDCp: insufficient allowance\") */\n      tag_162\n      jumpi\n      mload(0x40)\n      0x08c379a000000000000000000000000000000000000000000000000000000000\n      dup2\n      mstore\n      0x04\n      add\n      tag_163\n      swap1\n      tag_164\n      jump\t// in\n    tag_163:\n      mload(0x40)\n      dup1\n      swap2\n      sub\n      swap1\n      revert\n    tag_162:\n        /* \"USDCpV2.sol\":7607:7613  amount */\n      dup2\n        /* \"USDCpV2.sol\":7576:7585  allowance */\n      0x02\n        /* \"USDCpV2.sol\":7576:7591  allowance[from] */\n      0x00\n        /* \"USDCpV2.sol\":7586:7590  from */\n      dup7\n        /* \"USDCpV2.sol\":7576:7591  allowance[from] */\n      0xffffffffffffffffffffffffffffffffffffffff\n      and\n      0xffffffffffffffffffffffffffffffffffffffff\n      and\n      dup2\n      mstore\n      0x20\n      add\n      swap1\n      dup2\n      mstore\n      0x20\n      add\n      0x00\n      keccak256\n        /* \"USDCpV2.sol\":7576:7603  allowance[from][msg.sender] */\n      0x00\n        /* \"USDCpV2.sol\":7592:7602  msg.sender */\n      caller\n        /* \"USDCpV2.sol\":7576:7603  allowance[from][msg.sender] */\n      0xffffffffffffffffffffffffffffffffffffffff\n      and\n      0xffffffffffffffffffffffffffffffffffffffff\n      and\n      dup2\n      mstore\n      0x20\n      add\n      swap1\n      dup2\n      mstore\n      0x20\n      add\n      0x00\n      keccak256\n      0x00\n        /* \"USDCpV2.sol\":7576:7613  allowance[from][msg.sender] -= amount */\n      dup3\n      dup3\n      sload\n      tag_165\n      swap2\n      swap1\n      tag_130\n      jump\t// in\n    tag_165:\n      swap3\n      pop\n      pop\n      dup2\n      swap1\n      sstore\n      pop\n        /* \"USDCpV2.sol\":7642:7648  amount */\n      dup2\n        /* \"USDCpV2.sol\":7623:7632  balanceOf */\n      0x01\n        /* \"USDCpV2.sol\":7623:7638  balanceOf[from] */\n      0x00\n        /* \"USDCpV2.sol\":7633:7637  from */\n      dup7\n        /* \"USDCpV2.sol\":7623:7638  balanceOf[from] */\n      0xffffffffffffffffffffffffffffffffffffffff\n      and\n      0xffffffffffffffffffffffffffffffffffffffff\n      and\n      dup2\n      mstore\n      0x20\n      add\n      swap1\n      dup2\n      mstore\n      0x20\n      add\n      0x00\n      keccak256\n      0x00\n        /* \"USDCpV2.sol\":7623:7648  balanceOf[from] -= amount */\n      dup3\n      dup3\n      sload\n      tag_166\n      swap2\n      swap1\n      tag_130\n      jump\t// in\n    tag_166:\n      swap3\n      pop\n      pop\n      dup2\n      swap1\n      sstore\n      pop\n        /* \"USDCpV2.sol\":7675:7681  amount */\n      dup2\n        /* \"USDCpV2.sol\":7658:7667  balanceOf */\n      0x01\n        /* \"USDCpV2.sol\":7658:7671  balanceOf[to] */\n      0x00\n        /* \"USDCpV2.sol\":7668:7670  to */\n      dup6\n        /* \"USDCpV2.sol\":7658:7671  balanceOf[to] */\n      0xffffffffffffffffffffffffffffffffffffffff\n      and\n      0xffffffffffffffffffffffffffffffffffffffff\n      and\n      dup2\n      mstore\n      0x20\n      add\n      swap1\n      dup2\n      mstore\n      0x20\n      add\n      0x00\n      keccak256\n      0x00\n        /* \"USDCpV2.sol\":7658:7681  balanceOf[to] += amount */\n      dup3\n      dup3\n      sload\n      tag_167\n      swap2\n      swap1\n      tag_148\n      jump\t// in\n    tag_167:\n      swap3\n      pop\n      pop\n      dup2\n      swap1\n      sstore\n      pop\n        /* \"USDCpV2.sol\":7712:7714  to */\n      dup3\n        /* \"USDCpV2.sol\":7697:7723  Transfer(from, to, amount) */\n      0xffffffffffffffffffffffffffffffffffffffff\n      and\n        /* \"USDCpV2.sol\":7706:7710  from */\n      dup5\n        /* \"USDCpV2.sol\":7697:7723  Transfer(from, to, amount) */\n      0xffffffffffffffffffffffffffffffffffffffff\n      and\n      0xddf252ad1be2c89b69c2b068fc378daa952ba7f163c4a11628f55a4df523b3ef\n        /* \"USDCpV2.sol\":7716:7722  amount */\n      dup5\n        /* \"USDCpV2.sol\":7697:7723  Transfer(from, to, amount) */\n      mload(0x40)\n      tag_168\n      swap2\n      swap1\n      tag_45\n      jump\t// in\n    tag_168:\n      mload(0x40)\n      dup1\n      swap2\n      sub\n      swap1\n      log3\n        /* \"USDCpV2.sol\":7740:7744  true */\n      0x01\n        /* \"USDCpV2.sol\":7733:7744  return true */\n      swap1\n      pop\n        /* \"USDCpV2.sol\":7229:7751  function transferFrom(address from, address to, uint256 amount) external whenNotPaused returns (bool) {... */\n      swap4\n      swap3\n      pop\n      pop\n      pop\n      jump\t// out\n        /* \"USDCpV2.sol\":2114:2148  uint8 public constant decimals = 6 */\n    tag_55:\n        /* \"USDCpV2.sol\":2147:2148  6 */\n      0x06\n        /* \"USDCpV2.sol\":2114:2148  uint8 public constant decimals = 6 */\n      dup2\n      jump\t// out\n        /* \"USDCpV2.sol\":7936:8150  function increaseAllowance(address spender, uint256 addedValue) external whenNotPaused returns (bool) {... */\n    tag_60:\n        /* \"USDCpV2.sol\":8032:8036  bool */\n      0x00\n        /* \"USDCpV2.sol\":4676:4682  paused */\n      0x05\n      0x14\n      swap1\n      sload\n      swap1\n      0x0100\n      exp\n      swap1\n      div\n      0xff\n      and\n        /* \"USDCpV2.sol\":4675:4682  !paused */\n      iszero\n        /* \"USDCpV2.sol\":4667:4700  require(!paused, \"USDCp: paused\") */\n      tag_170\n      jumpi\n      mload(0x40)\n      0x08c379a000000000000000000000000000000000000000000000000000000000\n      dup2\n      mstore\n      0x04\n      add\n      tag_171\n      swap1\n      tag_111\n      jump\t// in\n    tag_171:\n      mload(0x40)\n      dup1\n      swap2\n      sub\n      swap1\n      revert\n    tag_170:\n        /* \"USDCpV2.sol\":8048:8122  _approve(msg.sender, spender, allowance[msg.sender][spender] + addedValue) */\n      tag_173\n        /* \"USDCpV2.sol\":8057:8067  msg.sender */\n      caller\n        /* \"USDCpV2.sol\":8069:8076  spender */\n      dup5\n        /* \"USDCpV2.sol\":8111:8121  addedValue */\n      dup5\n        /* \"USDCpV2.sol\":8078:8087  allowance */\n      0x02\n        /* \"USDCpV2.sol\":8078:8099  allowance[msg.sender] */\n      0x00\n        /* \"USDCpV2.sol\":8088:8098  msg.sender */\n      caller\n        /* \"USDCpV2.sol\":8078:8099  allowance[msg.sender] */\n      0xffffffffffffffffffffffffffffffffffffffff\n      and\n      0xffffffffffffffffffffffffffffffffffffffff\n      and\n      dup2\n      mstore\n      0x20\n      add\n      swap1\n      dup2\n      mstore\n      0x20\n      add\n      0x00\n      keccak256\n        /* \"USDCpV2.sol\":8078:8108  allowance[msg.sender][spender] */\n      0x00\n        /* \"USDCpV2.sol\":8100:8107  spender */\n      dup9\n        /* \"USDCpV2.sol\":8078:8108  allowance[msg.sender][spender] */\n      0xffffffffffffffffffffffffffffffffffffffff\n      and\n      0xffffffffffffffffffffffffffffffffffffffff\n      and\n      dup2\n      mstore\n      0x20\n      add\n      swap1\n      dup2\n      mstore\n      0x20\n      add\n      0x00\n      keccak256\n      sload\n        /* \"USDCpV2.sol\":8078:8121  allowance[msg.sender][spender] + addedValue */\n      tag_174\n      swap2\n      swap1\n      tag_148\n      jump\t// in\n    tag_174:\n        /* \"USDCpV2.sol\":8048:8056  _approve */\n      tag_114\n        /* \"USDCpV2.sol\":8048:8122  _approve(msg.sender, spender, allowance[msg.sender][spender] + addedValue) */\n      jump\t// in\n    tag_173:\n        /* \"USDCpV2.sol\":8139:8143  true */\n      0x01\n        /* \"USDCpV2.sol\":8132:8143  return true */\n      swap1\n      pop\n        /* \"USDCpV2.sol\":7936:8150  function increaseAllowance(address spender, uint256 addedValue) external whenNotPaused returns (bool) {... */\n      swap3\n      swap2\n      pop\n      pop\n      jump\t// out\n        /* \"USDCpV2.sol\":11859:11963  function unpause() external onlyOwner {... */\n    tag_63:\n        /* \"USDCpV2.sol\":4568:4573  owner */\n      0x04\n      0x00\n      swap1\n      sload\n      swap1\n      0x0100\n      exp\n      swap1\n      div\n      0xffffffffffffffffffffffffffffffffffffffff\n      and\n        /* \"USDCpV2.sol\":4554:4573  msg.sender == owner */\n      0xffffffffffffffffffffffffffffffffffffffff\n      and\n        /* \"USDCpV2.sol\":4554:4564  msg.sender */\n      caller\n        /* \"USDCpV2.sol\":4554:4573  msg.sender == owner */\n      0xffffffffffffffffffffffffffffffffffffffff\n      and\n      eq\n        /* \"USDCpV2.sol\":4546:4608  require(msg.sender == owner, \"USDCp: caller is not the owner\") */\n      tag_176\n      jumpi\n      mload(0x40)\n      0x08c379a000000000000000000000000000000000000000000000000000000000\n      dup2\n      mstore\n      0x04\n      add\n      tag_177\n      swap1\n      tag_178\n      jump\t// in\n    tag_177:\n      mload(0x40)\n      dup1\n      swap2\n      sub\n      swap1\n      revert\n    tag_176:\n        /* \"USDCpV2.sol\":11916:11921  false */\n      0x00\n        /* \"USDCpV2.sol\":11907:11913  paused */\n      0x05\n      0x14\n        /* \"USDCpV2.sol\":11907:11921  paused = false */\n      0x0100\n      exp\n      dup2\n      sload\n      dup2\n      0xff\n      mul\n      not\n      and\n      swap1\n      dup4\n      iszero\n      iszero\n      mul\n      or\n      swap1\n      sstore\n      pop\n        /* \"USDCpV2.sol\":11936:11956  Unpaused(msg.sender) */\n      0x5db9ee0a495bf2e6ff9c91a7834c1ba4fdd244a5e8aa4e537bd38aeae4b073aa\n        /* \"USDCpV2.sol\":11945:11955  msg.sender */\n      caller\n        /* \"USDCpV2.sol\":11936:11956  Unpaused(msg.sender) */\n      mload(0x40)\n      tag_180\n      swap2\n      swap1\n      tag_79\n      jump\t// in\n    tag_180:\n      mload(0x40)\n      dup1\n      swap2\n      sub\n      swap1\n      log1\n        /* \"USDCpV2.sol\":11859:11963  function unpause() external onlyOwner {... */\n      jump\t// out\n        /* \"USDCpV2.sol\":2903:2921  bool public paused */\n    tag_65:\n      0x05\n      0x14\n      swap1\n      sload\n      swap1\n      0x0100\n      exp\n      swap1\n      div\n      0xff\n      and\n      dup2\n      jump\t// out\n        /* \"USDCpV2.sol\":2337:2381  mapping(address => uint256) public balanceOf */\n    tag_70:\n      mstore(0x20, 0x01)\n      dup1\n      0x00\n      mstore\n      keccak256(0x00, 0x40)\n      0x00\n      swap2\n      pop\n      swap1\n      pop\n      sload\n      dup2\n      jump\t// out\n        /* \"USDCpV2.sol\":11437:11684  function acceptOwnership() external {... */\n    tag_73:\n        /* \"USDCpV2.sol\":11505:11517  pendingOwner */\n      0x05\n      0x00\n      swap1\n      sload\n      swap1\n      0x0100\n      exp\n      swap1\n      div\n      0xffffffffffffffffffffffffffffffffffffffff\n      and\n        /* \"USDCpV2.sol\":11491:11517  msg.sender == pendingOwner */\n      0xffffffffffffffffffffffffffffffffffffffff\n      and\n        /* \"USDCpV2.sol\":11491:11501  msg.sender */\n      caller\n        /* \"USDCpV2.sol\":11491:11517  msg.sender == pendingOwner */\n      0xffffffffffffffffffffffffffffffffffffffff\n      and\n      eq\n        /* \"USDCpV2.sol\":11483:11556  require(msg.sender == pendingOwner, \"USDCp: caller is not pending owner\") */\n      tag_182\n      jumpi\n      mload(0x40)\n      0x08c379a000000000000000000000000000000000000000000000000000000000\n      dup2\n      mstore\n      0x04\n      add\n      tag_183\n      swap1\n      tag_184\n      jump\t// in\n    tag_183:\n      mload(0x40)\n      dup1\n      swap2\n      sub\n      swap1\n      revert\n    tag_182:\n        /* \"USDCpV2.sol\":11599:11611  pendingOwner */\n      0x05\n      0x00\n      swap1\n      sload\n      swap1\n      0x0100\n      exp\n      swap1\n      div\n      0xffffffffffffffffffffffffffffffffffffffff\n      and\n        /* \"USDCpV2.sol\":11571:11612  OwnershipTransferred(owner, pendingOwner) */\n      0xffffffffffffffffffffffffffffffffffffffff\n      and\n        /* \"USDCpV2.sol\":11592:11597  owner */\n      0x04\n      0x00\n      swap1\n      sload\n      swap1\n      0x0100\n      exp\n      swap1\n      div\n      0xffffffffffffffffffffffffffffffffffffffff\n      and\n        /* \"USDCpV2.sol\":11571:11612  OwnershipTransferred(owner, pendingOwner) */\n      0xffffffffffffffffffffffffffffffffffffffff\n      and\n      0x8be0079c531659141344cd1fd0a4f28419497f9722a3daafe3b4186f6b6457e0\n      mload(0x40)\n      mload(0x40)\n      dup1\n      swap2\n      sub\n      swap1\n      log3\n        /* \"USDCpV2.sol\":11630:11642  pendingOwner */\n      0x05\n      0x00\n      swap1\n      sload\n      swap1\n      0x0100\n      exp\n      swap1\n      div\n      0xffffffffffffffffffffffffffffffffffffffff\n      and\n        /* \"USDCpV2.sol\":11622:11627  owner */\n      0x04\n      0x00\n        /* \"USDCpV2.sol\":11622:11642  owner = pendingOwner */\n      0x0100\n      exp\n      dup2\n      sload\n      dup2\n      0xffffffffffffffffffffffffffffffffffffffff\n      mul\n      not\n      and\n      swap1\n      dup4\n      0xffffffffffffffffffffffffffffffffffffffff\n      and\n      mul\n      or\n      swap1\n      sstore\n      pop\n        /* \"USDCpV2.sol\":11675:11676  0 */\n      0x00\n        /* \"USDCpV2.sol\":11652:11664  pendingOwner */\n      0x05\n      0x00\n        /* \"USDCpV2.sol\":11652:11677  pendingOwner = address(0) */\n      0x0100\n      exp\n      dup2\n      sload\n      dup2\n      0xffffffffffffffffffffffffffffffffffffffff\n      mul\n      not\n      and\n      swap1\n      dup4\n      0xffffffffffffffffffffffffffffffffffffffff\n      and\n      mul\n      or\n      swap1\n      sstore\n      pop\n        /* \"USDCpV2.sol\":11437:11684  function acceptOwnership() external {... */\n      jump\t// out\n        /* \"USDCpV2.sol\":11719:11818  function pause() external onlyOwner {... */\n    tag_75:\n        /* \"USDCpV2.sol\":4568:4573  owner */\n      0x04\n      0x00\n      swap1\n      sload\n      swap1\n      0x0100\n      exp\n      swap1\n      div\n      0xffffffffffffffffffffffffffffffffffffffff\n      and\n        /* \"USDCpV2.sol\":4554:4573  msg.sender == owner */\n      0xffffffffffffffffffffffffffffffffffffffff\n      and\n        /* \"USDCpV2.sol\":4554:4564  msg.sender */\n      caller\n        /* \"USDCpV2.sol\":4554:4573  msg.sender == owner */\n      0xffffffffffffffffffffffffffffffffffffffff\n      and\n      eq\n        /* \"USDCpV2.sol\":4546:4608  require(msg.sender == owner, \"USDCp: caller is not the owner\") */\n      tag_186\n      jumpi\n      mload(0x40)\n      0x08c379a000000000000000000000000000000000000000000000000000000000\n      dup2\n      mstore\n      0x04\n      add\n      tag_187\n      swap1\n      tag_178\n      jump\t// in\n    tag_187:\n      mload(0x40)\n      dup1\n      swap2\n      sub\n      swap1\n      revert\n    tag_186:\n        /* \"USDCpV2.sol\":11774:11778  true */\n      0x01\n        /* \"USDCpV2.sol\":11765:11771  paused */\n      0x05\n      0x14\n        /* \"USDCpV2.sol\":11765:11778  paused = true */\n      0x0100\n      exp\n      dup2\n      sload\n      dup2\n      0xff\n      mul\n      not\n      and\n      swap1\n      dup4\n      iszero\n      iszero\n      mul\n      or\n      swap1\n      sstore\n      pop\n        /* \"USDCpV2.sol\":11793:11811  Paused(msg.sender) */\n      0x62e78cea01bee320cd4e420270b5ea74000d11b0c9f74754ebdbfc544b05a258\n        /* \"USDCpV2.sol\":11800:11810  msg.sender */\n      caller\n        /* \"USDCpV2.sol\":11793:11811  Paused(msg.sender) */\n      mload(0x40)\n      tag_189\n      swap2\n      swap1\n      tag_79\n      jump\t// in\n    tag_189:\n      mload(0x40)\n      dup1\n      swap2\n      sub\n      swap1\n      log1\n        /* \"USDCpV2.sol\":11719:11818  function pause() external onlyOwner {... */\n      jump\t// out\n        /* \"USDCpV2.sol\":2815:2835  address public owner */\n    tag_77:\n      0x04\n      0x00\n      swap1\n      sload\n      swap1\n      0x0100\n      exp\n      swap1\n      div\n      0xffffffffffffffffffffffffffffffffffffffff\n      and\n      dup2\n      jump\t// out\n        /* \"USDCpV2.sol\":10823:11044  function setBridge(address newBridge) external onlyOwner {... */\n    tag_82:\n        /* \"USDCpV2.sol\":4568:4573  owner */\n      0x04\n      0x00\n      swap1\n      sload\n      swap1\n      0x0100\n      exp\n      swap1\n      div\n      0xffffffffffffffffffffffffffffffffffffffff\n      and\n        /* \"USDCpV2.sol\":4554:4573  msg.sender == owner */\n      0xffffffffffffffffffffffffffffffffffffffff\n      and\n        /* \"USDCpV2.sol\":4554:4564  msg.sender */\n      caller\n        /* \"USDCpV2.sol\":4554:4573  msg.sender == owner */\n      0xffffffffffffffffffffffffffffffffffffffff\n      and\n      eq\n        /* \"USDCpV2.sol\":4546:4608  require(msg.sender == owner, \"USDCp: caller is not the owner\") */\n      tag_191\n      jumpi\n      mload(0x40)\n      0x08c379a000000000000000000000000000000000000000000000000000000000\n      dup2\n      mstore\n      0x04\n      add\n      tag_192\n      swap1\n      tag_178\n      jump\t// in\n    tag_192:\n      mload(0x40)\n      dup1\n      swap2\n      sub\n      swap1\n      revert\n    tag_191:\n        /* \"USDCpV2.sol\":10919:10920  0 */\n      0x00\n        /* \"USDCpV2.sol\":10898:10921  newBridge != address(0) */\n      0xffffffffffffffffffffffffffffffffffffffff\n      and\n        /* \"USDCpV2.sol\":10898:10907  newBridge */\n      dup2\n        /* \"USDCpV2.sol\":10898:10921  newBridge != address(0) */\n      0xffffffffffffffffffffffffffffffffffffffff\n      and\n      eq\n      iszero\n        /* \"USDCpV2.sol\":10890:10962  require(newBridge != address(0), \"USDCp: bridge cannot be zero address\") */\n      tag_194\n      jumpi\n      mload(0x40)\n      0x08c379a000000000000000000000000000000000000000000000000000000000\n      dup2\n      mstore\n      0x04\n      add\n      tag_195\n      swap1\n      tag_196\n      jump\t// in\n    tag_195:\n      mload(0x40)\n      dup1\n      swap2\n      sub\n      swap1\n      revert\n    tag_194:\n        /* \"USDCpV2.sol\":10999:11008  newBridge */\n      dup1\n        /* \"USDCpV2.sol\":10977:11009  BridgeUpdated(bridge, newBridge) */\n      0xffffffffffffffffffffffffffffffffffffffff\n      and\n        /* \"USDCpV2.sol\":10991:10997  bridge */\n      0x03\n      0x00\n      swap1\n      sload\n      swap1\n      0x0100\n      exp\n      swap1\n      div\n      0xffffffffffffffffffffffffffffffffffffffff\n      and\n        /* \"USDCpV2.sol\":10977:11009  BridgeUpdated(bridge, newBridge) */\n      0xffffffffffffffffffffffffffffffffffffffff\n      and\n      0xaae9beddccf584528e87b66c6ff2563825c8a1433305b8a656e9b5f9bf390499\n      mload(0x40)\n      mload(0x40)\n      dup1\n      swap2\n      sub\n      swap1\n      log3\n        /* \"USDCpV2.sol\":11028:11037  newBridge */\n      dup1\n        /* \"USDCpV2.sol\":11019:11025  bridge */\n      0x03\n      0x00\n        /* \"USDCpV2.sol\":11019:11037  bridge = newBridge */\n      0x0100\n      exp\n      dup2\n      sload\n      dup2\n      0xffffffffffffffffffffffffffffffffffffffff\n      mul\n      not\n      and\n      swap1\n      dup4\n      0xffffffffffffffffffffffffffffffffffffffff\n      and\n      mul\n      or\n      swap1\n      sstore\n      pop\n        /* \"USDCpV2.sol\":10823:11044  function setBridge(address newBridge) external onlyOwner {... */\n      pop\n      jump\t// out\n        /* \"USDCpV2.sol\":1910:1949  string public constant symbol = \"USDCp\" */\n    tag_84:\n      mload(0x40)\n      dup1\n      0x40\n      add\n      0x40\n      mstore\n      dup1\n      0x05\n      dup2\n      mstore\n      0x20\n      add\n      0x5553444370000000000000000000000000000000000000000000000000000000\n      dup2\n      mstore\n      pop\n      dup2\n      jump\t// out\n        /* \"USDCpV2.sol\":8337:8709  function decreaseAllowance(address spender, uint256 subtractedValue) external whenNotPaused returns (bool) {... */\n    tag_88:\n        /* \"USDCpV2.sol\":8438:8442  bool */\n      0x00\n        /* \"USDCpV2.sol\":4676:4682  paused */\n      0x05\n      0x14\n      swap1\n      sload\n      swap1\n      0x0100\n      exp\n      swap1\n      div\n      0xff\n      and\n        /* \"USDCpV2.sol\":4675:4682  !paused */\n      iszero\n        /* \"USDCpV2.sol\":4667:4700  require(!paused, \"USDCp: paused\") */\n      tag_198\n      jumpi\n      mload(0x40)\n      0x08c379a000000000000000000000000000000000000000000000000000000000\n      dup2\n      mstore\n      0x04\n      add\n      tag_199\n      swap1\n      tag_111\n      jump\t// in\n    tag_199:\n      mload(0x40)\n      dup1\n      swap2\n      sub\n      swap1\n      revert\n    tag_198:\n        /* \"USDCpV2.sol\":8454:8478  uint256 currentAllowance */\n      0x00\n        /* \"USDCpV2.sol\":8481:8490  allowance */\n      0x02\n        /* \"USDCpV2.sol\":8481:8502  allowance[msg.sender] */\n      0x00\n        /* \"USDCpV2.sol\":8491:8501  msg.sender */\n      caller\n        /* \"USDCpV2.sol\":8481:8502  allowance[msg.sender] */\n      0xffffffffffffffffffffffffffffffffffffffff\n      and\n      0xffffffffffffffffffffffffffffffffffffffff\n      and\n      dup2\n      mstore\n      0x20\n      add\n      swap1\n      dup2\n      mstore\n      0x20\n      add\n      0x00\n      keccak256\n        /* \"USDCpV2.sol\":8481:8511  allowance[msg.sender][spender] */\n      0x00\n        /* \"USDCpV2.sol\":8503:8510  spender */\n      dup6\n        /* \"USDCpV2.sol\":8481:8511  allowance[msg.sender][spender] */\n      0xffffffffffffffffffffffffffffffffffffffff\n      and\n      0xffffffffffffffffffffffffffffffffffffffff\n      and\n      dup2\n      mstore\n      0x20\n      add\n      swap1\n      dup2\n      mstore\n      0x20\n      add\n      0x00\n      keccak256\n      sload\n        /* \"USDCpV2.sol\":8454:8511  uint256 currentAllowance = allowance[msg.sender][spender] */\n      swap1\n      pop\n        /* \"USDCpV2.sol\":8549:8564  subtractedValue */\n      dup3\n        /* \"USDCpV2.sol\":8529:8545  currentAllowance */\n      dup2\n        /* \"USDCpV2.sol\":8529:8564  currentAllowance >= subtractedValue */\n      lt\n      iszero\n        /* \"USDCpV2.sol\":8521:8606  require(currentAllowance >= subtractedValue, \"USDCp: decreased allowance below zero\") */\n      tag_201\n      jumpi\n      mload(0x40)\n      0x08c379a000000000000000000000000000000000000000000000000000000000\n      dup2\n      mstore\n      0x04\n      add\n      tag_202\n      swap1\n      tag_203\n      jump\t// in\n    tag_202:\n      mload(0x40)\n      dup1\n      swap2\n      sub\n      swap1\n      revert\n    tag_201:\n        /* \"USDCpV2.sol\":8616:8681  _approve(msg.sender, spender, currentAllowance - subtractedValue) */\n      tag_204\n        /* \"USDCpV2.sol\":8625:8635  msg.sender */\n      caller\n        /* \"USDCpV2.sol\":8637:8644  spender */\n      dup6\n        /* \"USDCpV2.sol\":8665:8680  subtractedValue */\n      dup6\n        /* \"USDCpV2.sol\":8646:8662  currentAllowance */\n      dup5\n        /* \"USDCpV2.sol\":8646:8680  currentAllowance - subtractedValue */\n      tag_205\n      swap2\n      swap1\n      tag_130\n      jump\t// in\n    tag_205:\n        /* \"USDCpV2.sol\":8616:8624  _approve */\n      tag_114\n        /* \"USDCpV2.sol\":8616:8681  _approve(msg.sender, spender, currentAllowance - subtractedValue) */\n      jump\t// in\n    tag_204:\n        /* \"USDCpV2.sol\":8698:8702  true */\n      0x01\n        /* \"USDCpV2.sol\":8691:8702  return true */\n      swap2\n      pop\n      pop\n        /* \"USDCpV2.sol\":8337:8709  function decreaseAllowance(address spender, uint256 subtractedValue) external whenNotPaused returns (bool) {... */\n      swap3\n      swap2\n      pop\n      pop\n      jump\t// out\n        /* \"USDCpV2.sol\":5725:6204  function transfer(address to, uint256 amount) external whenNotPaused returns (bool) {... */\n    tag_92:\n        /* \"USDCpV2.sol\":5803:5807  bool */\n      0x00\n        /* \"USDCpV2.sol\":4676:4682  paused */\n      0x05\n      0x14\n      swap1\n      sload\n      swap1\n      0x0100\n      exp\n      swap1\n      div\n      0xff\n      and\n        /* \"USDCpV2.sol\":4675:4682  !paused */\n      iszero\n        /* \"USDCpV2.sol\":4667:4700  require(!paused, \"USDCp: paused\") */\n      tag_207\n      jumpi\n      mload(0x40)\n      0x08c379a000000000000000000000000000000000000000000000000000000000\n      dup2\n      mstore\n      0x04\n      add\n      tag_208\n      swap1\n      tag_111\n      jump\t// in\n    tag_208:\n      mload(0x40)\n      dup1\n      swap2\n      sub\n      swap1\n      revert\n    tag_207:\n        /* \"USDCpV2.sol\":5841:5842  0 */\n      0x00\n        /* \"USDCpV2.sol\":5827:5843  to != address(0) */\n      0xffffffffffffffffffffffffffffffffffffffff\n      and\n        /* \"USDCpV2.sol\":5827:5829  to */\n      dup4\n        /* \"USDCpV2.sol\":5827:5843  to != address(0) */\n      0xffffffffffffffffffffffffffffffffffffffff\n      and\n      eq\n      iszero\n        /* \"USDCpV2.sol\":5819:5879  require(to != address(0), \"USDCp: transfer to zero address\") */\n      tag_210\n      jumpi\n      mload(0x40)\n      0x08c379a000000000000000000000000000000000000000000000000000000000\n      dup2\n      mstore\n      0x04\n      add\n      tag_211\n      swap1\n      tag_158\n      jump\t// in\n    tag_211:\n      mload(0x40)\n      dup1\n      swap2\n      sub\n      swap1\n      revert\n    tag_210:\n        /* \"USDCpV2.sol\":5922:5928  amount */\n      dup2\n        /* \"USDCpV2.sol\":5897:5906  balanceOf */\n      0x01\n        /* \"USDCpV2.sol\":5897:5918  balanceOf[msg.sender] */\n      0x00\n        /* \"USDCpV2.sol\":5907:5917  msg.sender */\n      caller\n        /* \"USDCpV2.sol\":5897:5918  balanceOf[msg.sender] */\n      0xffffffffffffffffffffffffffffffffffffffff\n      and\n      0xffffffffffffffffffffffffffffffffffffffff\n      and\n      dup2\n      mstore\n      0x20\n      add\n      swap1\n      dup2\n      mstore\n      0x20\n      add\n      0x00\n      keccak256\n      sload\n        /* \"USDCpV2.sol\":5897:5928  balanceOf[msg.sender] >= amount */\n      lt\n      iszero\n        /* \"USDCpV2.sol\":5889:5960  require(balanceOf[msg.sender] >= amount, \"USDCp: insufficient balance\") */\n      tag_212\n      jumpi\n      mload(0x40)\n      0x08c379a000000000000000000000000000000000000000000000000000000000\n      dup2\n      mstore\n      0x04\n      add\n      tag_213\n      swap1\n      tag_161\n      jump\t// in\n    tag_213:\n      mload(0x40)\n      dup1\n      swap2\n      sub\n      swap1\n      revert\n    tag_212:\n        /* \"USDCpV2.sol\":6089:6095  amount */\n      dup2\n        /* \"USDCpV2.sol\":6064:6073  balanceOf */\n      0x01\n        /* \"USDCpV2.sol\":6064:6085  balanceOf[msg.sender] */\n      0x00\n        /* \"USDCpV2.sol\":6074:6084  msg.sender */\n      caller\n        /* \"USDCpV2.sol\":6064:6085  balanceOf[msg.sender] */\n      0xffffffffffffffffffffffffffffffffffffffff\n      and\n      0xffffffffffffffffffffffffffffffffffffffff\n      and\n      dup2\n      mstore\n      0x20\n      add\n      swap1\n      dup2\n      mstore\n      0x20\n      add\n      0x00\n      keccak256\n      0x00\n        /* \"USDCpV2.sol\":6064:6095  balanceOf[msg.sender] -= amount */\n      dup3\n      dup3\n      sload\n      tag_214\n      swap2\n      swap1\n      tag_130\n      jump\t// in\n    tag_214:\n      swap3\n      pop\n      pop\n      dup2\n      swap1\n      sstore\n      pop\n        /* \"USDCpV2.sol\":6122:6128  amount */\n      dup2\n        /* \"USDCpV2.sol\":6105:6114  balanceOf */\n      0x01\n        /* \"USDCpV2.sol\":6105:6118  balanceOf[to] */\n      0x00\n        /* \"USDCpV2.sol\":6115:6117  to */\n      dup6\n        /* \"USDCpV2.sol\":6105:6118  balanceOf[to] */\n      0xffffffffffffffffffffffffffffffffffffffff\n      and\n      0xffffffffffffffffffffffffffffffffffffffff\n      and\n      dup2\n      mstore\n      0x20\n      add\n      swap1\n      dup2\n      mstore\n      0x20\n      add\n      0x00\n      keccak256\n      0x00\n        /* \"USDCpV2.sol\":6105:6128  balanceOf[to] += amount */\n      dup3\n      dup3\n      sload\n      tag_215\n      swap2\n      swap1\n      tag_148\n      jump\t// in\n    tag_215:\n      swap3\n      pop\n      pop\n      dup2\n      swap1\n      sstore\n      pop\n        /* \"USDCpV2.sol\":6165:6167  to */\n      dup3\n        /* \"USDCpV2.sol\":6144:6176  Transfer(msg.sender, to, amount) */\n      0xffffffffffffffffffffffffffffffffffffffff\n      and\n        /* \"USDCpV2.sol\":6153:6163  msg.sender */\n      caller\n        /* \"USDCpV2.sol\":6144:6176  Transfer(msg.sender, to, amount) */\n      0xffffffffffffffffffffffffffffffffffffffff\n      and\n      0xddf252ad1be2c89b69c2b068fc378daa952ba7f163c4a11628f55a4df523b3ef\n        /* \"USDCpV2.sol\":6169:6175  amount */\n      dup5\n        /* \"USDCpV2.sol\":6144:6176  Transfer(msg.sender, to, amount) */\n      mload(0x40)\n      tag_216\n      swap2\n      swap1\n      tag_45\n      jump\t// in\n    tag_216:\n      mload(0x40)\n      dup1\n      swap2\n      sub\n      swap1\n      log3\n        /* \"USDCpV2.sol\":6193:6197  true */\n      0x01\n        /* \"USDCpV2.sol\":6186:6197  return true */\n      swap1\n      pop\n        /* \"USDCpV2.sol\":5725:6204  function transfer(address to, uint256 amount) external whenNotPaused returns (bool) {... */\n      swap3\n      swap2\n      pop\n      pop\n      jump\t// out\n        /* \"USDCpV2.sol\":2542:2606  mapping(address => mapping(address => uint256)) public allowance */\n    tag_97:\n      mstore(0x20, 0x02)\n      dup2\n      0x00\n      mstore\n      mstore(0x20, keccak256(0x00, 0x40))\n      dup1\n      0x00\n      mstore\n      keccak256(0x00, 0x40)\n      0x00\n      swap2\n      pop\n      swap2\n      pop\n      pop\n      sload\n      dup2\n      jump\t// out\n        /* \"USDCpV2.sol\":2841:2868  address public pendingOwner */\n    tag_100:\n      0x05\n      0x00\n      swap1\n      sload\n      swap1\n      0x0100\n      exp\n      swap1\n      div\n      0xffffffffffffffffffffffffffffffffffffffff\n      and\n      dup2\n      jump\t// out\n        /* \"USDCpV2.sol\":2788:2809  address public bridge */\n    tag_103:\n      0x03\n      0x00\n      swap1\n      sload\n      swap1\n      0x0100\n      exp\n      swap1\n      div\n      0xffffffffffffffffffffffffffffffffffffffff\n      and\n      dup2\n      jump\t// out\n        /* \"USDCpV2.sol\":11110:11354  function transferOwnership(address newOwner) external onlyOwner {... */\n    tag_107:\n        /* \"USDCpV2.sol\":4568:4573  owner */\n      0x04\n      0x00\n      swap1\n      sload\n      swap1\n      0x0100\n      exp\n      swap1\n      div\n      0xffffffffffffffffffffffffffffffffffffffff\n      and\n        /* \"USDCpV2.sol\":4554:4573  msg.sender == owner */\n      0xffffffffffffffffffffffffffffffffffffffff\n      and\n        /* \"USDCpV2.sol\":4554:4564  msg.sender */\n      caller\n        /* \"USDCpV2.sol\":4554:4573  msg.sender == owner */\n      0xffffffffffffffffffffffffffffffffffffffff\n      and\n      eq\n        /* \"USDCpV2.sol\":4546:4608  require(msg.sender == owner, \"USDCp: caller is not the owner\") */\n      tag_218\n      jumpi\n      mload(0x40)\n      0x08c379a000000000000000000000000000000000000000000000000000000000\n      dup2\n      mstore\n      0x04\n      add\n      tag_219\n      swap1\n      tag_178\n      jump\t// in\n    tag_219:\n      mload(0x40)\n      dup1\n      swap2\n      sub\n      swap1\n      revert\n    tag_218:\n        /* \"USDCpV2.sol\":11212:11213  0 */\n      0x00\n        /* \"USDCpV2.sol\":11192:11214  newOwner != address(0) */\n      0xffffffffffffffffffffffffffffffffffffffff\n      and\n        /* \"USDCpV2.sol\":11192:11200  newOwner */\n      dup2\n        /* \"USDCpV2.sol\":11192:11214  newOwner != address(0) */\n      0xffffffffffffffffffffffffffffffffffffffff\n      and\n      eq\n      iszero\n        /* \"USDCpV2.sol\":11184:11258  require(newOwner != address(0), \"USDCp: new owner cannot be zero address\") */\n      tag_221\n      jumpi\n      mload(0x40)\n      0x08c379a000000000000000000000000000000000000000000000000000000000\n      dup2\n      mstore\n      0x04\n      add\n      tag_222\n      swap1\n      tag_223\n      jump\t// in\n    tag_222:\n      mload(0x40)\n      dup1\n      swap2\n      sub\n      swap1\n      revert\n    tag_221:\n        /* \"USDCpV2.sol\":11283:11291  newOwner */\n      dup1\n        /* \"USDCpV2.sol\":11268:11280  pendingOwner */\n      0x05\n      0x00\n        /* \"USDCpV2.sol\":11268:11291  pendingOwner = newOwner */\n      0x0100\n      exp\n      dup2\n      sload\n      dup2\n      0xffffffffffffffffffffffffffffffffffffffff\n      mul\n      not\n      and\n      swap1\n      dup4\n      0xffffffffffffffffffffffffffffffffffffffff\n      and\n      mul\n      or\n      swap1\n      sstore\n      pop\n        /* \"USDCpV2.sol\":11338:11346  newOwner */\n      dup1\n        /* \"USDCpV2.sol\":11306:11347  OwnershipTransferStarted(owner, newOwner) */\n      0xffffffffffffffffffffffffffffffffffffffff\n      and\n        /* \"USDCpV2.sol\":11331:11336  owner */\n      0x04\n      0x00\n      swap1\n      sload\n      swap1\n      0x0100\n      exp\n      swap1\n      div\n      0xffffffffffffffffffffffffffffffffffffffff\n      and\n        /* \"USDCpV2.sol\":11306:11347  OwnershipTransferStarted(owner, newOwner) */\n      0xffffffffffffffffffffffffffffffffffffffff\n      and\n      0x38d16b8cac22d99fc7c124b9cd0de2d3fa1faef420bfe791d8c362d765e22700\n      mload(0x40)\n      mload(0x40)\n      dup1\n      swap2\n      sub\n      swap1\n      log3\n        /* \"USDCpV2.sol\":11110:11354  function transferOwnership(address newOwner) external onlyOwner {... */\n      pop\n      jump\t// out\n        /* \"USDCpV2.sol\":8748:8998  function _approve(address _owner, address spender, uint256 amount) internal {... */\n    tag_114:\n        /* \"USDCpV2.sol\":8861:8862  0 */\n      0x00\n        /* \"USDCpV2.sol\":8842:8863  spender != address(0) */\n      0xffffffffffffffffffffffffffffffffffffffff\n      and\n        /* \"USDCpV2.sol\":8842:8849  spender */\n      dup3\n        /* \"USDCpV2.sol\":8842:8863  spender != address(0) */\n      0xffffffffffffffffffffffffffffffffffffffff\n      and\n      eq\n      iszero\n        /* \"USDCpV2.sol\":8834:8898  require(spender != address(0), \"USDCp: approve to zero address\") */\n      tag_225\n      jumpi\n      mload(0x40)\n      0x08c379a000000000000000000000000000000000000000000000000000000000\n      dup2\n      mstore\n      0x04\n      add\n      tag_226\n      swap1\n      tag_227\n      jump\t// in\n    tag_226:\n      mload(0x40)\n      dup1\n      swap2\n      sub\n      swap1\n      revert\n    tag_225:\n        /* \"USDCpV2.sol\":8937:8943  amount */\n      dup1\n        /* \"USDCpV2.sol\":8908:8917  allowance */\n      0x02\n        /* \"USDCpV2.sol\":8908:8925  allowance[_owner] */\n      0x00\n        /* \"USDCpV2.sol\":8918:8924  _owner */\n      dup6\n        /* \"USDCpV2.sol\":8908:8925  allowance[_owner] */\n      0xffffffffffffffffffffffffffffffffffffffff\n      and\n      0xffffffffffffffffffffffffffffffffffffffff\n      and\n      dup2\n      mstore\n      0x20\n      add\n      swap1\n      dup2\n      mstore\n      0x20\n      add\n      0x00\n      keccak256\n        /* \"USDCpV2.sol\":8908:8934  allowance[_owner][spender] */\n      0x00\n        /* \"USDCpV2.sol\":8926:8933  spender */\n      dup5\n        /* \"USDCpV2.sol\":8908:8934  allowance[_owner][spender] */\n      0xffffffffffffffffffffffffffffffffffffffff\n      and\n      0xffffffffffffffffffffffffffffffffffffffff\n      and\n      dup2\n      mstore\n      0x20\n      add\n      swap1\n      dup2\n      mstore\n      0x20\n      add\n      0x00\n      keccak256\n        /* \"USDCpV2.sol\":8908:8943  allowance[_owner][spender] = amount */\n      dup2\n      swap1\n      sstore\n      pop\n        /* \"USDCpV2.sol\":8975:8982  spender */\n      dup2\n        /* \"USDCpV2.sol\":8958:8991  Approval(_owner, spender, amount) */\n      0xffffffffffffffffffffffffffffffffffffffff\n      and\n        /* \"USDCpV2.sol\":8967:8973  _owner */\n      dup4\n        /* \"USDCpV2.sol\":8958:8991  Approval(_owner, spender, amount) */\n      0xffffffffffffffffffffffffffffffffffffffff\n      and\n      0x8c5be1e5ebec7d5bd14f71427d1e84f3dd0314c0f7b2291e5b200ac8c7c3b925\n        /* \"USDCpV2.sol\":8984:8990  amount */\n      dup4\n        /* \"USDCpV2.sol\":8958:8991  Approval(_owner, spender, amount) */\n      mload(0x40)\n      tag_228\n      swap2\n      swap1\n      tag_45\n      jump\t// in\n    tag_228:\n      mload(0x40)\n      dup1\n      swap2\n      sub\n      swap1\n      log3\n        /* \"USDCpV2.sol\":8748:8998  function _approve(address _owner, address spender, uint256 amount) internal {... */\n      pop\n      pop\n      pop\n      jump\t// out\n        /* \"#utility.yul\":7:106   */\n    tag_229:\n        /* \"#utility.yul\":59:65   */\n      0x00\n        /* \"#utility.yul\":93:98   */\n      dup2\n        /* \"#utility.yul\":87:99   */\n      mload\n        /* \"#utility.yul\":77:99   */\n      swap1\n      pop\n        /* \"#utility.yul\":7:106   */\n      swap2\n      swap1\n      pop\n      jump\t// out\n        /* \"#utility.yul\":112:281   */\n    tag_230:\n        /* \"#utility.yul\":196:207   */\n      0x00\n        /* \"#utility.yul\":230:236   */\n      dup3\n        /* \"#utility.yul\":225:228   */\n      dup3\n        /* \"#utility.yul\":218:237   */\n      mstore\n        /* \"#utility.yul\":270:274   */\n      0x20\n        /* \"#utility.yul\":265:268   */\n      dup3\n        /* \"#utility.yul\":261:275   */\n      add\n        /* \"#utility.yul\":246:275   */\n      swap1\n      pop\n        /* \"#utility.yul\":112:281   */\n      swap3\n      swap2\n      pop\n      pop\n      jump\t// out\n        /* \"#utility.yul\":287:594   */\n    tag_231:\n        /* \"#utility.yul\":355:356   */\n      0x00\n        /* \"#utility.yul\":365:478   */\n    tag_288:\n        /* \"#utility.yul\":379:385   */\n      dup4\n        /* \"#utility.yul\":376:377   */\n      dup2\n        /* \"#utility.yul\":373:386   */\n      lt\n        /* \"#utility.yul\":365:478   */\n      iszero\n      tag_290\n      jumpi\n        /* \"#utility.yul\":464:465   */\n      dup1\n        /* \"#utility.yul\":459:462   */\n      dup3\n        /* \"#utility.yul\":455:466   */\n      add\n        /* \"#utility.yul\":449:467   */\n      mload\n        /* \"#utility.yul\":445:446   */\n      dup2\n        /* \"#utility.yul\":440:443   */\n      dup5\n        /* \"#utility.yul\":436:447   */\n      add\n        /* \"#utility.yul\":429:468   */\n      mstore\n        /* \"#utility.yul\":401:403   */\n      0x20\n        /* \"#utility.yul\":398:399   */\n      dup2\n        /* \"#utility.yul\":394:404   */\n      add\n        /* \"#utility.yul\":389:404   */\n      swap1\n      pop\n        /* \"#utility.yul\":365:478   */\n      jump(tag_288)\n    tag_290:\n        /* \"#utility.yul\":496:502   */\n      dup4\n        /* \"#utility.yul\":493:494   */\n      dup2\n        /* \"#utility.yul\":490:503   */\n      gt\n        /* \"#utility.yul\":487:588   */\n      iszero\n      tag_291\n      jumpi\n        /* \"#utility.yul\":576:577   */\n      0x00\n        /* \"#utility.yul\":567:573   */\n      dup5\n        /* \"#utility.yul\":562:565   */\n      dup5\n        /* \"#utility.yul\":558:574   */\n      add\n        /* \"#utility.yul\":551:578   */\n      mstore\n        /* \"#utility.yul\":487:588   */\n    tag_291:\n        /* \"#utility.yul\":336:594   */\n      pop\n        /* \"#utility.yul\":287:594   */\n      pop\n      pop\n      pop\n      jump\t// out\n        /* \"#utility.yul\":600:702   */\n    tag_232:\n        /* \"#utility.yul\":641:647   */\n      0x00\n        /* \"#utility.yul\":692:694   */\n      0x1f\n        /* \"#utility.yul\":688:695   */\n      not\n        /* \"#utility.yul\":683:685   */\n      0x1f\n        /* \"#utility.yul\":676:681   */\n      dup4\n        /* \"#utility.yul\":672:686   */\n      add\n        /* \"#utility.yul\":668:696   */\n      and\n        /* \"#utility.yul\":658:696   */\n      swap1\n      pop\n        /* \"#utility.yul\":600:702   */\n      swap2\n      swap1\n      pop\n      jump\t// out\n        /* \"#utility.yul\":708:1072   */\n    tag_233:\n        /* \"#utility.yul\":796:799   */\n      0x00\n        /* \"#utility.yul\":824:863   */\n      tag_294\n        /* \"#utility.yul\":857:862   */\n      dup3\n        /* \"#utility.yul\":824:863   */\n      tag_229\n      jump\t// in\n    tag_294:\n        /* \"#utility.yul\":879:950   */\n      tag_295\n        /* \"#utility.yul\":943:949   */\n      dup2\n        /* \"#utility.yul\":938:941   */\n      dup6\n        /* \"#utility.yul\":879:950   */\n      tag_230\n      jump\t// in\n    tag_295:\n        /* \"#utility.yul\":872:950   */\n      swap4\n      pop\n        /* \"#utility.yul\":959:1011   */\n      tag_296\n        /* \"#utility.yul\":1004:1010   */\n      dup2\n        /* \"#utility.yul\":999:1002   */\n      dup6\n        /* \"#utility.yul\":992:996   */\n      0x20\n        /* \"#utility.yul\":985:990   */\n      dup7\n        /* \"#utility.yul\":981:997   */\n      add\n        /* \"#utility.yul\":959:1011   */\n      tag_231\n      jump\t// in\n    tag_296:\n        /* \"#utility.yul\":1036:1065   */\n      tag_297\n        /* \"#utility.yul\":1058:1064   */\n      dup2\n        /* \"#utility.yul\":1036:1065   */\n      tag_232\n      jump\t// in\n    tag_297:\n        /* \"#utility.yul\":1031:1034   */\n      dup5\n        /* \"#utility.yul\":1027:1066   */\n      add\n        /* \"#utility.yul\":1020:1066   */\n      swap2\n      pop\n        /* \"#utility.yul\":800:1072   */\n      pop\n        /* \"#utility.yul\":708:1072   */\n      swap3\n      swap2\n      pop\n      pop\n      jump\t// out\n        /* \"#utility.yul\":1078:1391   */\n    tag_31:\n        /* \"#utility.yul\":1191:1195   */\n      0x00\n        /* \"#utility.yul\":1229:1231   */\n      0x20\n        /* \"#utility.yul\":1218:1227   */\n      dup3\n        /* \"#utility.yul\":1214:1232   */\n      add\n        /* \"#utility.yul\":1206:1232   */\n      swap1\n      pop\n        /* \"#utility.yul\":1278:1287   */\n      dup2\n        /* \"#utility.yul\":1272:1276   */\n      dup2\n        /* \"#utility.yul\":1268:1288   */\n      sub\n        /* \"#utility.yul\":1264:1265   */\n      0x00\n        /* \"#utility.yul\":1253:1262   */\n      dup4\n        /* \"#utility.yul\":1249:1266   */\n      add\n        /* \"#utility.yul\":1242:1289   */\n      mstore\n        /* \"#utility.yul\":1306:1384   */\n      tag_299\n        /* \"#utility.yul\":1379:1383   */\n      dup2\n        /* \"#utility.yul\":1370:1376   */\n      dup5\n        /* \"#utility.yul\":1306:1384   */\n      tag_233\n      jump\t// in\n    tag_299:\n        /* \"#utility.yul\":1298:1384   */\n      swap1\n      pop\n        /* \"#utility.yul\":1078:1391   */\n      swap3\n      swap2\n      pop\n      pop\n      jump\t// out\n        /* \"#utility.yul\":1478:1595   */\n    tag_235:\n        /* \"#utility.yul\":1587:1588   */\n      0x00\n        /* \"#utility.yul\":1584:1585   */\n      dup1\n        /* \"#utility.yul\":1577:1589   */\n      revert\n        /* \"#utility.yul\":1724:1850   */\n    tag_237:\n        /* \"#utility.yul\":1761:1768   */\n      0x00\n        /* \"#utility.yul\":1801:1843   */\n      0xffffffffffffffffffffffffffffffffffffffff\n        /* \"#utility.yul\":1794:1799   */\n      dup3\n        /* \"#utility.yul\":1790:1844   */\n      and\n        /* \"#utility.yul\":1779:1844   */\n      swap1\n      pop\n        /* \"#utility.yul\":1724:1850   */\n      swap2\n      swap1\n      pop\n      jump\t// out\n        /* \"#utility.yul\":1856:1952   */\n    tag_238:\n        /* \"#utility.yul\":1893:1900   */\n      0x00\n        /* \"#utility.yul\":1922:1946   */\n      tag_305\n        /* \"#utility.yul\":1940:1945   */\n      dup3\n        /* \"#utility.yul\":1922:1946   */\n      tag_237\n      jump\t// in\n    tag_305:\n        /* \"#utility.yul\":1911:1946   */\n      swap1\n      pop\n        /* \"#utility.yul\":1856:1952   */\n      swap2\n      swap1\n      pop\n      jump\t// out\n        /* \"#utility.yul\":1958:2080   */\n    tag_239:\n        /* \"#utility.yul\":2031:2055   */\n      tag_307\n        /* \"#utility.yul\":2049:2054   */\n      dup2\n        /* \"#utility.yul\":2031:2055   */\n      tag_238\n      jump\t// in\n    tag_307:\n        /* \"#utility.yul\":2024:2029   */\n      dup2\n        /* \"#utility.yul\":2021:2056   */\n      eq\n        /* \"#utility.yul\":2011:2074   */\n      tag_308\n      jumpi\n        /* \"#utility.yul\":2070:2071   */\n      0x00\n        /* \"#utility.yul\":2067:2068   */\n      dup1\n        /* \"#utility.yul\":2060:2072   */\n      revert\n        /* \"#utility.yul\":2011:2074   */\n    tag_308:\n        /* \"#utility.yul\":1958:2080   */\n      pop\n      jump\t// out\n        /* \"#utility.yul\":2086:2225   */\n    tag_240:\n        /* \"#utility.yul\":2132:2137   */\n      0x00\n        /* \"#utility.yul\":2170:2176   */\n      dup2\n        /* \"#utility.yul\":2157:2177   */\n      calldataload\n        /* \"#utility.yul\":2148:2177   */\n      swap1\n      pop\n        /* \"#utility.yul\":2186:2219   */\n      tag_310\n        /* \"#utility.yul\":2213:2218   */\n      dup2\n        /* \"#utility.yul\":2186:2219   */\n      tag_239\n      jump\t// in\n    tag_310:\n        /* \"#utility.yul\":2086:2225   */\n      swap3\n      swap2\n      pop\n      pop\n      jump\t// out\n        /* \"#utility.yul\":2231:2308   */\n    tag_241:\n        /* \"#utility.yul\":2268:2275   */\n      0x00\n        /* \"#utility.yul\":2297:2302   */\n      dup2\n        /* \"#utility.yul\":2286:2302   */\n      swap1\n      pop\n        /* \"#utility.yul\":2231:2308   */\n      swap2\n      swap1\n      pop\n      jump\t// out\n        /* \"#utility.yul\":2314:2436   */\n    tag_242:\n        /* \"#utility.yul\":2387:2411   */\n      tag_313\n        /* \"#utility.yul\":2405:2410   */\n      dup2\n        /* \"#utility.yul\":2387:2411   */\n      tag_241\n      jump\t// in\n    tag_313:\n        /* \"#utility.yul\":2380:2385   */\n      dup2\n        /* \"#utility.yul\":2377:2412   */\n      eq\n        /* \"#utility.yul\":2367:2430   */\n      tag_314\n      jumpi\n        /* \"#utility.yul\":2426:2427   */\n      0x00\n        /* \"#utility.yul\":2423:2424   */\n      dup1\n        /* \"#utility.yul\":2416:2428   */\n      revert\n        /* \"#utility.yul\":2367:2430   */\n    tag_314:\n        /* \"#utility.yul\":2314:2436   */\n      pop\n      jump\t// out\n        /* \"#utility.yul\":2442:2581   */\n    tag_243:\n        /* \"#utility.yul\":2488:2493   */\n      0x00\n        /* \"#utility.yul\":2526:2532   */\n      dup2\n        /* \"#utility.yul\":2513:2533   */\n      calldataload\n        /* \"#utility.yul\":2504:2533   */\n      swap1\n      pop\n        /* \"#utility.yul\":2542:2575   */\n      tag_316\n        /* \"#utility.yul\":2569:2574   */\n      dup2\n        /* \"#utility.yul\":2542:2575   */\n      tag_242\n      jump\t// in\n    tag_316:\n        /* \"#utility.yul\":2442:2581   */\n      swap3\n      swap2\n      pop\n      pop\n      jump\t// out\n        /* \"#utility.yul\":2587:3061   */\n    tag_34:\n        /* \"#utility.yul\":2655:2661   */\n      0x00\n        /* \"#utility.yul\":2663:2669   */\n      dup1\n        /* \"#utility.yul\":2712:2714   */\n      0x40\n        /* \"#utility.yul\":2700:2709   */\n      dup4\n        /* \"#utility.yul\":2691:2698   */\n      dup6\n        /* \"#utility.yul\":2687:2710   */\n      sub\n        /* \"#utility.yul\":2683:2715   */\n      slt\n        /* \"#utility.yul\":2680:2799   */\n      iszero\n      tag_318\n      jumpi\n        /* \"#utility.yul\":2718:2797   */\n      tag_319\n      tag_235\n      jump\t// in\n    tag_319:\n        /* \"#utility.yul\":2680:2799   */\n    tag_318:\n        /* \"#utility.yul\":2838:2839   */\n      0x00\n        /* \"#utility.yul\":2863:2916   */\n      tag_320\n        /* \"#utility.yul\":2908:2915   */\n      dup6\n        /* \"#utility.yul\":2899:2905   */\n      dup3\n        /* \"#utility.yul\":2888:2897   */\n      dup7\n        /* \"#utility.yul\":2884:2906   */\n      add\n        /* \"#utility.yul\":2863:2916   */\n      tag_240\n      jump\t// in\n    tag_320:\n        /* \"#utility.yul\":2853:2916   */\n      swap3\n      pop\n        /* \"#utility.yul\":2809:2926   */\n      pop\n        /* \"#utility.yul\":2965:2967   */\n      0x20\n        /* \"#utility.yul\":2991:3044   */\n      tag_321\n        /* \"#utility.yul\":3036:3043   */\n      dup6\n        /* \"#utility.yul\":3027:3033   */\n      dup3\n        /* \"#utility.yul\":3016:3025   */\n      dup7\n        /* \"#utility.yul\":3012:3034   */\n      add\n        /* \"#utility.yul\":2991:3044   */\n      tag_243\n      jump\t// in\n    tag_321:\n        /* \"#utility.yul\":2981:3044   */\n      swap2\n      pop\n        /* \"#utility.yul\":2936:3054   */\n      pop\n        /* \"#utility.yul\":2587:3061   */\n      swap3\n      pop\n      swap3\n      swap1\n      pop\n      jump\t// out\n        /* \"#utility.yul\":3067:3157   */\n    tag_244:\n        /* \"#utility.yul\":3101:3108   */\n      0x00\n        /* \"#utility.yul\":3144:3149   */\n      dup2\n        /* \"#utility.yul\":3137:3150   */\n      iszero\n        /* \"#utility.yul\":3130:3151   */\n      iszero\n        /* \"#utility.yul\":3119:3151   */\n      swap1\n      pop\n        /* \"#utility.yul\":3067:3157   */\n      swap2\n      swap1\n      pop\n      jump\t// out\n        /* \"#utility.yul\":3163:3272   */\n    tag_245:\n        /* \"#utility.yul\":3244:3265   */\n      tag_324\n        /* \"#utility.yul\":3259:3264   */\n      dup2\n        /* \"#utility.yul\":3244:3265   */\n      tag_244\n      jump\t// in\n    tag_324:\n        /* \"#utility.yul\":3239:3242   */\n      dup3\n        /* \"#utility.yul\":3232:3266   */\n      mstore\n        /* \"#utility.yul\":3163:3272   */\n      pop\n      pop\n      jump\t// out\n        /* \"#utility.yul\":3278:3488   */\n    tag_37:\n        /* \"#utility.yul\":3365:3369   */\n      0x00\n        /* \"#utility.yul\":3403:3405   */\n      0x20\n        /* \"#utility.yul\":3392:3401   */\n      dup3\n        /* \"#utility.yul\":3388:3406   */\n      add\n        /* \"#utility.yul\":3380:3406   */\n      swap1\n      pop\n        /* \"#utility.yul\":3416:3481   */\n      tag_326\n        /* \"#utility.yul\":3478:3479   */\n      0x00\n        /* \"#utility.yul\":3467:3476   */\n      dup4\n        /* \"#utility.yul\":3463:3480   */\n      add\n        /* \"#utility.yul\":3454:3460   */\n      dup5\n        /* \"#utility.yul\":3416:3481   */\n      tag_245\n      jump\t// in\n    tag_326:\n        /* \"#utility.yul\":3278:3488   */\n      swap3\n      swap2\n      pop\n      pop\n      jump\t// out\n        /* \"#utility.yul\":3494:3571   */\n    tag_246:\n        /* \"#utility.yul\":3531:3538   */\n      0x00\n        /* \"#utility.yul\":3560:3565   */\n      dup2\n        /* \"#utility.yul\":3549:3565   */\n      swap1\n      pop\n        /* \"#utility.yul\":3494:3571   */\n      swap2\n      swap1\n      pop\n      jump\t// out\n        /* \"#utility.yul\":3577:3699   */\n    tag_247:\n        /* \"#utility.yul\":3650:3674   */\n      tag_329\n        /* \"#utility.yul\":3668:3673   */\n      dup2\n        /* \"#utility.yul\":3650:3674   */\n      tag_246\n      jump\t// in\n    tag_329:\n        /* \"#utility.yul\":3643:3648   */\n      dup2\n        /* \"#utility.yul\":3640:3675   */\n      eq\n        /* \"#utility.yul\":3630:3693   */\n      tag_330\n      jumpi\n        /* \"#utility.yul\":3689:3690   */\n      0x00\n        /* \"#utility.yul\":3686:3687   */\n      dup1\n        /* \"#utility.yul\":3679:3691   */\n      revert\n        /* \"#utility.yul\":3630:3693   */\n    tag_330:\n        /* \"#utility.yul\":3577:3699   */\n      pop\n      jump\t// out\n        /* \"#utility.yul\":3705:3844   */\n    tag_248:\n        /* \"#utility.yul\":3751:3756   */\n      0x00\n        /* \"#utility.yul\":3789:3795   */\n      dup2\n        /* \"#utility.yul\":3776:3796   */\n      calldataload\n        /* \"#utility.yul\":3767:3796   */\n      swap1\n      pop\n        /* \"#utility.yul\":3805:3838   */\n      tag_332\n        /* \"#utility.yul\":3832:3837   */\n      dup2\n        /* \"#utility.yul\":3805:3838   */\n      tag_247\n      jump\t// in\n    tag_332:\n        /* \"#utility.yul\":3705:3844   */\n      swap3\n      swap2\n      pop\n      pop\n      jump\t// out\n        /* \"#utility.yul\":3850:4469   */\n    tag_40:\n        /* \"#utility.yul\":3927:3933   */\n      0x00\n        /* \"#utility.yul\":3935:3941   */\n      dup1\n        /* \"#utility.yul\":3943:3949   */\n      0x00\n        /* \"#utility.yul\":3992:3994   */\n      0x60\n        /* \"#utility.yul\":3980:3989   */\n      dup5\n        /* \"#utility.yul\":3971:3978   */\n      dup7\n        /* \"#utility.yul\":3967:3990   */\n      sub\n        /* \"#utility.yul\":3963:3995   */\n      slt\n        /* \"#utility.yul\":3960:4079   */\n      iszero\n      tag_334\n      jumpi\n        /* \"#utility.yul\":3998:4077   */\n      tag_335\n      tag_235\n      jump\t// in\n    tag_335:\n        /* \"#utility.yul\":3960:4079   */\n    tag_334:\n        /* \"#utility.yul\":4118:4119   */\n      0x00\n        /* \"#utility.yul\":4143:4196   */\n      tag_336\n        /* \"#utility.yul\":4188:4195   */\n      dup7\n        /* \"#utility.yul\":4179:4185   */\n      dup3\n        /* \"#utility.yul\":4168:4177   */\n      dup8\n        /* \"#utility.yul\":4164:4186   */\n      add\n        /* \"#utility.yul\":4143:4196   */\n      tag_240\n      jump\t// in\n    tag_336:\n        /* \"#utility.yul\":4133:4196   */\n      swap4\n      pop\n        /* \"#utility.yul\":4089:4206   */\n      pop\n        /* \"#utility.yul\":4245:4247   */\n      0x20\n        /* \"#utility.yul\":4271:4324   */\n      tag_337\n        /* \"#utility.yul\":4316:4323   */\n      dup7\n        /* \"#utility.yul\":4307:4313   */\n      dup3\n        /* \"#utility.yul\":4296:4305   */\n      dup8\n        /* \"#utility.yul\":4292:4314   */\n      add\n        /* \"#utility.yul\":4271:4324   */\n      tag_243\n      jump\t// in\n    tag_337:\n        /* \"#utility.yul\":4261:4324   */\n      swap3\n      pop\n        /* \"#utility.yul\":4216:4334   */\n      pop\n        /* \"#utility.yul\":4373:4375   */\n      0x40\n        /* \"#utility.yul\":4399:4452   */\n      tag_338\n        /* \"#utility.yul\":4444:4451   */\n      dup7\n        /* \"#utility.yul\":4435:4441   */\n      dup3\n        /* \"#utility.yul\":4424:4433   */\n      dup8\n        /* \"#utility.yul\":4420:4442   */\n      add\n        /* \"#utility.yul\":4399:4452   */\n      tag_248\n      jump\t// in\n    tag_338:\n        /* \"#utility.yul\":4389:4452   */\n      swap2\n      pop\n        /* \"#utility.yul\":4344:4462   */\n      pop\n        /* \"#utility.yul\":3850:4469   */\n      swap3\n      pop\n      swap3\n      pop\n      swap3\n      jump\t// out\n        /* \"#utility.yul\":4475:4593   */\n    tag_249:\n        /* \"#utility.yul\":4562:4586   */\n      tag_340\n        /* \"#utility.yul\":4580:4585   */\n      dup2\n        /* \"#utility.yul\":4562:4586   */\n      tag_241\n      jump\t// in\n    tag_340:\n        /* \"#utility.yul\":4557:4560   */\n      dup3\n        /* \"#utility.yul\":4550:4587   */\n      mstore\n        /* \"#utility.yul\":4475:4593   */\n      pop\n      pop\n      jump\t// out\n        /* \"#utility.yul\":4599:4821   */\n    tag_45:\n        /* \"#utility.yul\":4692:4696   */\n      0x00\n        /* \"#utility.yul\":4730:4732   */\n      0x20\n        /* \"#utility.yul\":4719:4728   */\n      dup3\n        /* \"#utility.yul\":4715:4733   */\n      add\n        /* \"#utility.yul\":4707:4733   */\n      swap1\n      pop\n        /* \"#utility.yul\":4743:4814   */\n      tag_342\n        /* \"#utility.yul\":4811:4812   */\n      0x00\n        /* \"#utility.yul\":4800:4809   */\n      dup4\n        /* \"#utility.yul\":4796:4813   */\n      add\n        /* \"#utility.yul\":4787:4793   */\n      dup5\n        /* \"#utility.yul\":4743:4814   */\n      tag_249\n      jump\t// in\n    tag_342:\n        /* \"#utility.yul\":4599:4821   */\n      swap3\n      swap2\n      pop\n      pop\n      jump\t// out\n        /* \"#utility.yul\":4827:5446   */\n    tag_51:\n        /* \"#utility.yul\":4904:4910   */\n      0x00\n        /* \"#utility.yul\":4912:4918   */\n      dup1\n        /* \"#utility.yul\":4920:4926   */\n      0x00\n        /* \"#utility.yul\":4969:4971   */\n      0x60\n        /* \"#utility.yul\":4957:4966   */\n      dup5\n        /* \"#utility.yul\":4948:4955   */\n      dup7\n        /* \"#utility.yul\":4944:4967   */\n      sub\n        /* \"#utility.yul\":4940:4972   */\n      slt\n        /* \"#utility.yul\":4937:5056   */\n      iszero\n      tag_344\n      jumpi\n        /* \"#utility.yul\":4975:5054   */\n      tag_345\n      tag_235\n      jump\t// in\n    tag_345:\n        /* \"#utility.yul\":4937:5056   */\n    tag_344:\n        /* \"#utility.yul\":5095:5096   */\n      0x00\n        /* \"#utility.yul\":5120:5173   */\n      tag_346\n        /* \"#utility.yul\":5165:5172   */\n      dup7\n        /* \"#utility.yul\":5156:5162   */\n      dup3\n        /* \"#utility.yul\":5145:5154   */\n      dup8\n        /* \"#utility.yul\":5141:5163   */\n      add\n        /* \"#utility.yul\":5120:5173   */\n      tag_240\n      jump\t// in\n    tag_346:\n        /* \"#utility.yul\":5110:5173   */\n      swap4\n      pop\n        /* \"#utility.yul\":5066:5183   */\n      pop\n        /* \"#utility.yul\":5222:5224   */\n      0x20\n        /* \"#utility.yul\":5248:5301   */\n      tag_347\n        /* \"#utility.yul\":5293:5300   */\n      dup7\n        /* \"#utility.yul\":5284:5290   */\n      dup3\n        /* \"#utility.yul\":5273:5282   */\n      dup8\n        /* \"#utility.yul\":5269:5291   */\n      add\n        /* \"#utility.yul\":5248:5301   */\n      tag_240\n      jump\t// in\n    tag_347:\n        /* \"#utility.yul\":5238:5301   */\n      swap3\n      pop\n        /* \"#utility.yul\":5193:5311   */\n      pop\n        /* \"#utility.yul\":5350:5352   */\n      0x40\n        /* \"#utility.yul\":5376:5429   */\n      tag_348\n        /* \"#utility.yul\":5421:5428   */\n      dup7\n        /* \"#utility.yul\":5412:5418   */\n      dup3\n        /* \"#utility.yul\":5401:5410   */\n      dup8\n        /* \"#utility.yul\":5397:5419   */\n      add\n        /* \"#utility.yul\":5376:5429   */\n      tag_243\n      jump\t// in\n    tag_348:\n        /* \"#utility.yul\":5366:5429   */\n      swap2\n      pop\n        /* \"#utility.yul\":5321:5439   */\n      pop\n        /* \"#utility.yul\":4827:5446   */\n      swap3\n      pop\n      swap3\n      pop\n      swap3\n      jump\t// out\n        /* \"#utility.yul\":5452:5538   */\n    tag_250:\n        /* \"#utility.yul\":5487:5494   */\n      0x00\n        /* \"#utility.yul\":5527:5531   */\n      0xff\n        /* \"#utility.yul\":5520:5525   */\n      dup3\n        /* \"#utility.yul\":5516:5532   */\n      and\n        /* \"#utility.yul\":5505:5532   */\n      swap1\n      pop\n        /* \"#utility.yul\":5452:5538   */\n      swap2\n      swap1\n      pop\n      jump\t// out\n        /* \"#utility.yul\":5544:5656   */\n    tag_251:\n        /* \"#utility.yul\":5627:5649   */\n      tag_351\n        /* \"#utility.yul\":5643:5648   */\n      dup2\n        /* \"#utility.yul\":5627:5649   */\n      tag_250\n      jump\t// in\n    tag_351:\n        /* \"#utility.yul\":5622:5625   */\n      dup3\n        /* \"#utility.yul\":5615:5650   */\n      mstore\n        /* \"#utility.yul\":5544:5656   */\n      pop\n      pop\n      jump\t// out\n        /* \"#utility.yul\":5662:5876   */\n    tag_57:\n        /* \"#utility.yul\":5751:5755   */\n      0x00\n        /* \"#utility.yul\":5789:5791   */\n      0x20\n        /* \"#utility.yul\":5778:5787   */\n      dup3\n        /* \"#utility.yul\":5774:5792   */\n      add\n        /* \"#utility.yul\":5766:5792   */\n      swap1\n      pop\n        /* \"#utility.yul\":5802:5869   */\n      tag_353\n        /* \"#utility.yul\":5866:5867   */\n      0x00\n        /* \"#utility.yul\":5855:5864   */\n      dup4\n        /* \"#utility.yul\":5851:5868   */\n      add\n        /* \"#utility.yul\":5842:5848   */\n      dup5\n        /* \"#utility.yul\":5802:5869   */\n      tag_251\n      jump\t// in\n    tag_353:\n        /* \"#utility.yul\":5662:5876   */\n      swap3\n      swap2\n      pop\n      pop\n      jump\t// out\n        /* \"#utility.yul\":5882:6211   */\n    tag_69:\n        /* \"#utility.yul\":5941:5947   */\n      0x00\n        /* \"#utility.yul\":5990:5992   */\n      0x20\n        /* \"#utility.yul\":5978:5987   */\n      dup3\n        /* \"#utility.yul\":5969:5976   */\n      dup5\n        /* \"#utility.yul\":5965:5988   */\n      sub\n        /* \"#utility.yul\":5961:5993   */\n      slt\n        /* \"#utility.yul\":5958:6077   */\n      iszero\n      tag_355\n      jumpi\n        /* \"#utility.yul\":5996:6075   */\n      tag_356\n      tag_235\n      jump\t// in\n    tag_356:\n        /* \"#utility.yul\":5958:6077   */\n    tag_355:\n        /* \"#utility.yul\":6116:6117   */\n      0x00\n        /* \"#utility.yul\":6141:6194   */\n      tag_357\n        /* \"#utility.yul\":6186:6193   */\n      dup5\n        /* \"#utility.yul\":6177:6183   */\n      dup3\n        /* \"#utility.yul\":6166:6175   */\n      dup6\n        /* \"#utility.yul\":6162:6184   */\n      add\n        /* \"#utility.yul\":6141:6194   */\n      tag_240\n      jump\t// in\n    tag_357:\n        /* \"#utility.yul\":6131:6194   */\n      swap2\n      pop\n        /* \"#utility.yul\":6087:6204   */\n      pop\n        /* \"#utility.yul\":5882:6211   */\n      swap3\n      swap2\n      pop\n      pop\n      jump\t// out\n        /* \"#utility.yul\":6217:6335   */\n    tag_252:\n        /* \"#utility.yul\":6304:6328   */\n      tag_359\n        /* \"#utility.yul\":6322:6327   */\n      dup2\n        /* \"#utility.yul\":6304:6328   */\n      tag_238\n      jump\t// in\n    tag_359:\n        /* \"#utility.yul\":6299:6302   */\n      dup3\n        /* \"#utility.yul\":6292:6329   */\n      mstore\n        /* \"#utility.yul\":6217:6335   */\n      pop\n      pop\n      jump\t// out\n        /* \"#utility.yul\":6341:6563   */\n    tag_79:\n        /* \"#utility.yul\":6434:6438   */\n      0x00\n        /* \"#utility.yul\":6472:6474   */\n      0x20\n        /* \"#utility.yul\":6461:6470   */\n      dup3\n        /* \"#utility.yul\":6457:6475   */\n      add\n        /* \"#utility.yul\":6449:6475   */\n      swap1\n      pop\n        /* \"#utility.yul\":6485:6556   */\n      tag_361\n        /* \"#utility.yul\":6553:6554   */\n      0x00\n        /* \"#utility.yul\":6542:6551   */\n      dup4\n        /* \"#utility.yul\":6538:6555   */\n      add\n        /* \"#utility.yul\":6529:6535   */\n      dup5\n        /* \"#utility.yul\":6485:6556   */\n      tag_252\n      jump\t// in\n    tag_361:\n        /* \"#utility.yul\":6341:6563   */\n      swap3\n      swap2\n      pop\n      pop\n      jump\t// out\n        /* \"#utility.yul\":6569:7043   */\n    tag_96:\n        /* \"#utility.yul\":6637:6643   */\n      0x00\n        /* \"#utility.yul\":6645:6651   */\n      dup1\n        /* \"#utility.yul\":6694:6696   */\n      0x40\n        /* \"#utility.yul\":6682:6691   */\n      dup4\n        /* \"#utility.yul\":6673:6680   */\n      dup6\n        /* \"#utility.yul\":6669:6692   */\n      sub\n        /* \"#utility.yul\":6665:6697   */\n      slt\n        /* \"#utility.yul\":6662:6781   */\n      iszero\n      tag_363\n      jumpi\n        /* \"#utility.yul\":6700:6779   */\n      tag_364\n      tag_235\n      jump\t// in\n    tag_364:\n        /* \"#utility.yul\":6662:6781   */\n    tag_363:\n        /* \"#utility.yul\":6820:6821   */\n      0x00\n        /* \"#utility.yul\":6845:6898   */\n      tag_365\n        /* \"#utility.yul\":6890:6897   */\n      dup6\n        /* \"#utility.yul\":6881:6887   */\n      dup3\n        /* \"#utility.yul\":6870:6879   */\n      dup7\n        /* \"#utility.yul\":6866:6888   */\n      add\n        /* \"#utility.yul\":6845:6898   */\n      tag_240\n      jump\t// in\n    tag_365:\n        /* \"#utility.yul\":6835:6898   */\n      swap3\n      pop\n        /* \"#utility.yul\":6791:6908   */\n      pop\n        /* \"#utility.yul\":6947:6949   */\n      0x20\n        /* \"#utility.yul\":6973:7026   */\n      tag_366\n        /* \"#utility.yul\":7018:7025   */\n      dup6\n        /* \"#utility.yul\":7009:7015   */\n      dup3\n        /* \"#utility.yul\":6998:7007   */\n      dup7\n        /* \"#utility.yul\":6994:7016   */\n      add\n        /* \"#utility.yul\":6973:7026   */\n      tag_240\n      jump\t// in\n    tag_366:\n        /* \"#utility.yul\":6963:7026   */\n      swap2\n      pop\n        /* \"#utility.yul\":6918:7036   */\n      pop\n        /* \"#utility.yul\":6569:7043   */\n      swap3\n      pop\n      swap3\n      swap1\n      pop\n      jump\t// out\n        /* \"#utility.yul\":7049:7212   */\n    tag_253:\n        /* \"#utility.yul\":7189:7204   */\n      0x55534443703a2070617573656400000000000000000000000000000000000000\n        /* \"#utility.yul\":7185:7186   */\n      0x00\n        /* \"#utility.yul\":7177:7183   */\n      dup3\n        /* \"#utility.yul\":7173:7187   */\n      add\n        /* \"#utility.yul\":7166:7205   */\n      mstore\n        /* \"#utility.yul\":7049:7212   */\n      pop\n      jump\t// out\n        /* \"#utility.yul\":7218:7584   */\n    tag_254:\n        /* \"#utility.yul\":7360:7363   */\n      0x00\n        /* \"#utility.yul\":7381:7448   */\n      tag_369\n        /* \"#utility.yul\":7445:7447   */\n      0x0d\n        /* \"#utility.yul\":7440:7443   */\n      dup4\n        /* \"#utility.yul\":7381:7448   */\n      tag_230\n      jump\t// in\n    tag_369:\n        /* \"#utility.yul\":7374:7448   */\n      swap2\n      pop\n        /* \"#utility.yul\":7457:7550   */\n      tag_370\n        /* \"#utility.yul\":7546:7549   */\n      dup3\n        /* \"#utility.yul\":7457:7550   */\n      tag_253\n      jump\t// in\n    tag_370:\n        /* \"#utility.yul\":7575:7577   */\n      0x20\n        /* \"#utility.yul\":7570:7573   */\n      dup3\n        /* \"#utility.yul\":7566:7578   */\n      add\n        /* \"#utility.yul\":7559:7578   */\n      swap1\n      pop\n        /* \"#utility.yul\":7218:7584   */\n      swap2\n      swap1\n      pop\n      jump\t// out\n        /* \"#utility.yul\":7590:8009   */\n    tag_111:\n        /* \"#utility.yul\":7756:7760   */\n      0x00\n        /* \"#utility.yul\":7794:7796   */\n      0x20\n        /* \"#utility.yul\":7783:7792   */\n      dup3\n        /* \"#utility.yul\":7779:7797   */\n      add\n        /* \"#utility.yul\":7771:7797   */\n      swap1\n      pop\n        /* \"#utility.yul\":7843:7852   */\n      dup2\n        /* \"#utility.yul\":7837:7841   */\n      dup2\n        /* \"#utility.yul\":7833:7853   */\n      sub\n        /* \"#utility.yul\":7829:7830   */\n      0x00\n        /* \"#utility.yul\":7818:7827   */\n      dup4\n        /* \"#utility.yul\":7814:7831   */\n      add\n        /* \"#utility.yul\":7807:7854   */\n      mstore\n        /* \"#utility.yul\":7871:8002   */\n      tag_372\n        /* \"#utility.yul\":7997:8001   */\n      dup2\n        /* \"#utility.yul\":7871:8002   */\n      tag_254\n      jump\t// in\n    tag_372:\n        /* \"#utility.yul\":7863:8002   */\n      swap1\n      pop\n        /* \"#utility.yul\":7590:8009   */\n      swap2\n      swap1\n      pop\n      jump\t// out\n        /* \"#utility.yul\":8015:8196   */\n    tag_255:\n        /* \"#utility.yul\":8155:8188   */\n      0x55534443703a2063616c6c6572206973206e6f74207468652062726964676500\n        /* \"#utility.yul\":8151:8152   */\n      0x00\n        /* \"#utility.yul\":8143:8149   */\n      dup3\n        /* \"#utility.yul\":8139:8153   */\n      add\n        /* \"#utility.yul\":8132:8189   */\n      mstore\n        /* \"#utility.yul\":8015:8196   */\n      pop\n      jump\t// out\n        /* \"#utility.yul\":8202:8568   */\n    tag_256:\n        /* \"#utility.yul\":8344:8347   */\n      0x00\n        /* \"#utility.yul\":8365:8432   */\n      tag_375\n        /* \"#utility.yul\":8429:8431   */\n      0x1f\n        /* \"#utility.yul\":8424:8427   */\n      dup4\n        /* \"#utility.yul\":8365:8432   */\n      tag_230\n      jump\t// in\n    tag_375:\n        /* \"#utility.yul\":8358:8432   */\n      swap2\n      pop\n        /* \"#utility.yul\":8441:8534   */\n      tag_376\n        /* \"#utility.yul\":8530:8533   */\n      dup3\n        /* \"#utility.yul\":8441:8534   */\n      tag_255\n      jump\t// in\n    tag_376:\n        /* \"#utility.yul\":8559:8561   */\n      0x20\n        /* \"#utility.yul\":8554:8557   */\n      dup3\n        /* \"#utility.yul\":8550:8562   */\n      add\n        /* \"#utility.yul\":8543:8562   */\n      swap1\n      pop\n        /* \"#utility.yul\":8202:8568   */\n      swap2\n      swap1\n      pop\n      jump\t// out\n        /* \"#utility.yul\":8574:8993   */\n    tag_118:\n        /* \"#utility.yul\":8740:8744   */\n      0x00\n        /* \"#utility.yul\":8778:8780   */\n      0x20\n        /* \"#utility.yul\":8767:8776   */\n      dup3\n        /* \"#utility.yul\":8763:8781   */\n      add\n        /* \"#utility.yul\":8755:8781   */\n      swap1\n      pop\n        /* \"#utility.yul\":8827:8836   */\n      dup2\n        /* \"#utility.yul\":8821:8825   */\n      dup2\n        /* \"#utility.yul\":8817:8837   */\n      sub\n        /* \"#utility.yul\":8813:8814   */\n      0x00\n        /* \"#utility.yul\":8802:8811   */\n      dup4\n        /* \"#utility.yul\":8798:8815   */\n      add\n        /* \"#utility.yul\":8791:8838   */\n      mstore\n        /* \"#utility.yul\":8855:8986   */\n      tag_378\n        /* \"#utility.yul\":8981:8985   */\n      dup2\n        /* \"#utility.yul\":8855:8986   */\n      tag_256\n      jump\t// in\n    tag_378:\n        /* \"#utility.yul\":8847:8986   */\n      swap1\n      pop\n        /* \"#utility.yul\":8574:8993   */\n      swap2\n      swap1\n      pop\n      jump\t// out\n        /* \"#utility.yul\":8999:9221   */\n    tag_257:\n        /* \"#utility.yul\":9139:9173   */\n      0x55534443703a20696e73756666696369656e742062616c616e636520746f2062\n        /* \"#utility.yul\":9135:9136   */\n      0x00\n        /* \"#utility.yul\":9127:9133   */\n      dup3\n        /* \"#utility.yul\":9123:9137   */\n      add\n        /* \"#utility.yul\":9116:9174   */\n      mstore\n        /* \"#utility.yul\":9208:9213   */\n      0x75726e0000000000000000000000000000000000000000000000000000000000\n        /* \"#utility.yul\":9203:9205   */\n      0x20\n        /* \"#utility.yul\":9195:9201   */\n      dup3\n        /* \"#utility.yul\":9191:9206   */\n      add\n        /* \"#utility.yul\":9184:9214   */\n      mstore\n        /* \"#utility.yul\":8999:9221   */\n      pop\n      jump\t// out\n        /* \"#utility.yul\":9227:9593   */\n    tag_258:\n        /* \"#utility.yul\":9369:9372   */\n      0x00\n        /* \"#utility.yul\":9390:9457   */\n      tag_381\n        /* \"#utility.yul\":9454:9456   */\n      0x23\n        /* \"#utility.yul\":9449:9452   */\n      dup4\n        /* \"#utility.yul\":9390:9457   */\n      tag_230\n      jump\t// in\n    tag_381:\n        /* \"#utility.yul\":9383:9457   */\n      swap2\n      pop\n        /* \"#utility.yul\":9466:9559   */\n      tag_382\n        /* \"#utility.yul\":9555:9558   */\n      dup3\n        /* \"#utility.yul\":9466:9559   */\n      tag_257\n      jump\t// in\n    tag_382:\n        /* \"#utility.yul\":9584:9586   */\n      0x40\n        /* \"#utility.yul\":9579:9582   */\n      dup3\n        /* \"#utility.yul\":9575:9587   */\n      add\n        /* \"#utility.yul\":9568:9587   */\n      swap1\n      pop\n        /* \"#utility.yul\":9227:9593   */\n      swap2\n      swap1\n      pop\n      jump\t// out\n        /* \"#utility.yul\":9599:10018   */\n    tag_125:\n        /* \"#utility.yul\":9765:9769   */\n      0x00\n        /* \"#utility.yul\":9803:9805   */\n      0x20\n        /* \"#utility.yul\":9792:9801   */\n      dup3\n        /* \"#utility.yul\":9788:9806   */\n      add\n        /* \"#utility.yul\":9780:9806   */\n      swap1\n      pop\n        /* \"#utility.yul\":9852:9861   */\n      dup2\n        /* \"#utility.yul\":9846:9850   */\n      dup2\n        /* \"#utility.yul\":9842:9862   */\n      sub\n        /* \"#utility.yul\":9838:9839   */\n      0x00\n        /* \"#utility.yul\":9827:9836   */\n      dup4\n        /* \"#utility.yul\":9823:9840   */\n      add\n        /* \"#utility.yul\":9816:9863   */\n      mstore\n        /* \"#utility.yul\":9880:10011   */\n      tag_384\n        /* \"#utility.yul\":10006:10010   */\n      dup2\n        /* \"#utility.yul\":9880:10011   */\n      tag_258\n      jump\t// in\n    tag_384:\n        /* \"#utility.yul\":9872:10011   */\n      swap1\n      pop\n        /* \"#utility.yul\":9599:10018   */\n      swap2\n      swap1\n      pop\n      jump\t// out\n        /* \"#utility.yul\":10024:10204   */\n    tag_259:\n        /* \"#utility.yul\":10164:10196   */\n      0x55534443703a206275726e20616d6f756e74206d757374206265203e20300000\n        /* \"#utility.yul\":10160:10161   */\n      0x00\n        /* \"#utility.yul\":10152:10158   */\n      dup3\n        /* \"#utility.yul\":10148:10162   */\n      add\n        /* \"#utility.yul\":10141:10197   */\n      mstore\n        /* \"#utility.yul\":10024:10204   */\n      pop\n      jump\t// out\n        /* \"#utility.yul\":10210:10576   */\n    tag_260:\n        /* \"#utility.yul\":10352:10355   */\n      0x00\n        /* \"#utility.yul\":10373:10440   */\n      tag_387\n        /* \"#utility.yul\":10437:10439   */\n      0x1e\n        /* \"#utility.yul\":10432:10435   */\n      dup4\n        /* \"#utility.yul\":10373:10440   */\n      tag_230\n      jump\t// in\n    tag_387:\n        /* \"#utility.yul\":10366:10440   */\n      swap2\n      pop\n        /* \"#utility.yul\":10449:10542   */\n      tag_388\n        /* \"#utility.yul\":10538:10541   */\n      dup3\n        /* \"#utility.yul\":10449:10542   */\n      tag_259\n      jump\t// in\n    tag_388:\n        /* \"#utility.yul\":10567:10569   */\n      0x20\n        /* \"#utility.yul\":10562:10565   */\n      dup3\n        /* \"#utility.yul\":10558:10570   */\n      add\n        /* \"#utility.yul\":10551:10570   */\n      swap1\n      pop\n        /* \"#utility.yul\":10210:10576   */\n      swap2\n      swap1\n      pop\n      jump\t// out\n        /* \"#utility.yul\":10582:11001   */\n    tag_128:\n        /* \"#utility.yul\":10748:10752   */\n      0x00\n        /* \"#utility.yul\":10786:10788   */\n      0x20\n        /* \"#utility.yul\":10775:10784   */\n      dup3\n        /* \"#utility.yul\":10771:10789   */\n      add\n        /* \"#utility.yul\":10763:10789   */\n      swap1\n      pop\n        /* \"#utility.yul\":10835:10844   */\n      dup2\n        /* \"#utility.yul\":10829:10833   */\n      dup2\n        /* \"#utility.yul\":10825:10845   */\n      sub\n        /* \"#utility.yul\":10821:10822   */\n      0x00\n        /* \"#utility.yul\":10810:10819   */\n      dup4\n        /* \"#utility.yul\":10806:10823   */\n      add\n        /* \"#utility.yul\":10799:10846   */\n      mstore\n        /* \"#utility.yul\":10863:10994   */\n      tag_390\n        /* \"#utility.yul\":10989:10993   */\n      dup2\n        /* \"#utility.yul\":10863:10994   */\n      tag_260\n      jump\t// in\n    tag_390:\n        /* \"#utility.yul\":10855:10994   */\n      swap1\n      pop\n        /* \"#utility.yul\":10582:11001   */\n      swap2\n      swap1\n      pop\n      jump\t// out\n        /* \"#utility.yul\":11007:11187   */\n    tag_261:\n        /* \"#utility.yul\":11055:11132   */\n      0x4e487b7100000000000000000000000000000000000000000000000000000000\n        /* \"#utility.yul\":11052:11053   */\n      0x00\n        /* \"#utility.yul\":11045:11133   */\n      mstore\n        /* \"#utility.yul\":11152:11156   */\n      0x11\n        /* \"#utility.yul\":11149:11150   */\n      0x04\n        /* \"#utility.yul\":11142:11157   */\n      mstore\n        /* \"#utility.yul\":11176:11180   */\n      0x24\n        /* \"#utility.yul\":11173:11174   */\n      0x00\n        /* \"#utility.yul\":11166:11181   */\n      revert\n        /* \"#utility.yul\":11193:11384   */\n    tag_130:\n        /* \"#utility.yul\":11233:11237   */\n      0x00\n        /* \"#utility.yul\":11253:11273   */\n      tag_393\n        /* \"#utility.yul\":11271:11272   */\n      dup3\n        /* \"#utility.yul\":11253:11273   */\n      tag_241\n      jump\t// in\n    tag_393:\n        /* \"#utility.yul\":11248:11273   */\n      swap2\n      pop\n        /* \"#utility.yul\":11287:11307   */\n      tag_394\n        /* \"#utility.yul\":11305:11306   */\n      dup4\n        /* \"#utility.yul\":11287:11307   */\n      tag_241\n      jump\t// in\n    tag_394:\n        /* \"#utility.yul\":11282:11307   */\n      swap3\n      pop\n        /* \"#utility.yul\":11326:11327   */\n      dup3\n        /* \"#utility.yul\":11323:11324   */\n      dup3\n        /* \"#utility.yul\":11320:11328   */\n      lt\n        /* \"#utility.yul\":11317:11351   */\n      iszero\n      tag_395\n      jumpi\n        /* \"#utility.yul\":11331:11349   */\n      tag_396\n      tag_261\n      jump\t// in\n    tag_396:\n        /* \"#utility.yul\":11317:11351   */\n    tag_395:\n        /* \"#utility.yul\":11376:11377   */\n      dup3\n        /* \"#utility.yul\":11373:11374   */\n      dup3\n        /* \"#utility.yul\":11369:11378   */\n      sub\n        /* \"#utility.yul\":11361:11378   */\n      swap1\n      pop\n        /* \"#utility.yul\":11193:11384   */\n      swap3\n      swap2\n      pop\n      pop\n      jump\t// out\n        /* \"#utility.yul\":11390:11567   */\n    tag_262:\n        /* \"#utility.yul\":11530:11559   */\n      0x55534443703a206d696e7420746f207a65726f20616464726573730000000000\n        /* \"#utility.yul\":11526:11527   */\n      0x00\n        /* \"#utility.yul\":11518:11524   */\n      dup3\n        /* \"#utility.yul\":11514:11528   */\n      add\n        /* \"#utility.yul\":11507:11560   */\n      mstore\n        /* \"#utility.yul\":11390:11567   */\n      pop\n      jump\t// out\n        /* \"#utility.yul\":11573:11939   */\n    tag_263:\n        /* \"#utility.yul\":11715:11718   */\n      0x00\n        /* \"#utility.yul\":11736:11803   */\n      tag_399\n        /* \"#utility.yul\":11800:11802   */\n      0x1b\n        /* \"#utility.yul\":11795:11798   */\n      dup4\n        /* \"#utility.yul\":11736:11803   */\n      tag_230\n      jump\t// in\n    tag_399:\n        /* \"#utility.yul\":11729:11803   */\n      swap2\n      pop\n        /* \"#utility.yul\":11812:11905   */\n      tag_400\n        /* \"#utility.yul\":11901:11904   */\n      dup3\n        /* \"#utility.yul\":11812:11905   */\n      tag_262\n      jump\t// in\n    tag_400:\n        /* \"#utility.yul\":11930:11932   */\n      0x20\n        /* \"#utility.yul\":11925:11928   */\n      dup3\n        /* \"#utility.yul\":11921:11933   */\n      add\n        /* \"#utility.yul\":11914:11933   */\n      swap1\n      pop\n        /* \"#utility.yul\":11573:11939   */\n      swap2\n      swap1\n      pop\n      jump\t// out\n        /* \"#utility.yul\":11945:12364   */\n    tag_143:\n        /* \"#utility.yul\":12111:12115   */\n      0x00\n        /* \"#utility.yul\":12149:12151   */\n      0x20\n        /* \"#utility.yul\":12138:12147   */\n      dup3\n        /* \"#utility.yul\":12134:12152   */\n      add\n        /* \"#utility.yul\":12126:12152   */\n      swap1\n      pop\n        /* \"#utility.yul\":12198:12207   */\n      dup2\n        /* \"#utility.yul\":12192:12196   */\n      dup2\n        /* \"#utility.yul\":12188:12208   */\n      sub\n        /* \"#utility.yul\":12184:12185   */\n      0x00\n        /* \"#utility.yul\":12173:12182   */\n      dup4\n        /* \"#utility.yul\":12169:12186   */\n      add\n        /* \"#utility.yul\":12162:12209   */\n      mstore\n        /* \"#utility.yul\":12226:12357   */\n      tag_402\n        /* \"#utility.yul\":12352:12356   */\n      dup2\n        /* \"#utility.yul\":12226:12357   */\n      tag_263\n      jump\t// in\n    tag_402:\n        /* \"#utility.yul\":12218:12357   */\n      swap1\n      pop\n        /* \"#utility.yul\":11945:12364   */\n      swap2\n      swap1\n      pop\n      jump\t// out\n        /* \"#utility.yul\":12370:12550   */\n    tag_264:\n        /* \"#utility.yul\":12510:12542   */\n      0x55534443703a206d696e7420616d6f756e74206d757374206265203e20300000\n        /* \"#utility.yul\":12506:12507   */\n      0x00\n        /* \"#utility.yul\":12498:12504   */\n      dup3\n        /* \"#utility.yul\":12494:12508   */\n      add\n        /* \"#utility.yul\":12487:12543   */\n      mstore\n        /* \"#utility.yul\":12370:12550   */\n      pop\n      jump\t// out\n        /* \"#utility.yul\":12556:12922   */\n    tag_265:\n        /* \"#utility.yul\":12698:12701   */\n      0x00\n        /* \"#utility.yul\":12719:12786   */\n      tag_405\n        /* \"#utility.yul\":12783:12785   */\n      0x1e\n        /* \"#utility.yul\":12778:12781   */\n      dup4\n        /* \"#utility.yul\":12719:12786   */\n      tag_230\n      jump\t// in\n    tag_405:\n        /* \"#utility.yul\":12712:12786   */\n      swap2\n      pop\n        /* \"#utility.yul\":12795:12888   */\n      tag_406\n        /* \"#utility.yul\":12884:12887   */\n      dup3\n        /* \"#utility.yul\":12795:12888   */\n      tag_264\n      jump\t// in\n    tag_406:\n        /* \"#utility.yul\":12913:12915   */\n      0x20\n        /* \"#utility.yul\":12908:12911   */\n      dup3\n        /* \"#utility.yul\":12904:12916   */\n      add\n        /* \"#utility.yul\":12897:12916   */\n      swap1\n      pop\n        /* \"#utility.yul\":12556:12922   */\n      swap2\n      swap1\n      pop\n      jump\t// out\n        /* \"#utility.yul\":12928:13347   */\n    tag_146:\n        /* \"#utility.yul\":13094:13098   */\n      0x00\n        /* \"#utility.yul\":13132:13134   */\n      0x20\n        /* \"#utility.yul\":13121:13130   */\n      dup3\n        /* \"#utility.yul\":13117:13135   */\n      add\n        /* \"#utility.yul\":13109:13135   */\n      swap1\n      pop\n        /* \"#utility.yul\":13181:13190   */\n      dup2\n        /* \"#utility.yul\":13175:13179   */\n      dup2\n        /* \"#utility.yul\":13171:13191   */\n      sub\n        /* \"#utility.yul\":13167:13168   */\n      0x00\n        /* \"#utility.yul\":13156:13165   */\n      dup4\n        /* \"#utility.yul\":13152:13169   */\n      add\n        /* \"#utility.yul\":13145:13192   */\n      mstore\n        /* \"#utility.yul\":13209:13340   */\n      tag_408\n        /* \"#utility.yul\":13335:13339   */\n      dup2\n        /* \"#utility.yul\":13209:13340   */\n      tag_265\n      jump\t// in\n    tag_408:\n        /* \"#utility.yul\":13201:13340   */\n      swap1\n      pop\n        /* \"#utility.yul\":12928:13347   */\n      swap2\n      swap1\n      pop\n      jump\t// out\n        /* \"#utility.yul\":13353:13658   */\n    tag_148:\n        /* \"#utility.yul\":13393:13396   */\n      0x00\n        /* \"#utility.yul\":13412:13432   */\n      tag_410\n        /* \"#utility.yul\":13430:13431   */\n      dup3\n        /* \"#utility.yul\":13412:13432   */\n      tag_241\n      jump\t// in\n    tag_410:\n        /* \"#utility.yul\":13407:13432   */\n      swap2\n      pop\n        /* \"#utility.yul\":13446:13466   */\n      tag_411\n        /* \"#utility.yul\":13464:13465   */\n      dup4\n        /* \"#utility.yul\":13446:13466   */\n      tag_241\n      jump\t// in\n    tag_411:\n        /* \"#utility.yul\":13441:13466   */\n      swap3\n      pop\n        /* \"#utility.yul\":13600:13601   */\n      dup3\n        /* \"#utility.yul\":13532:13598   */\n      0xffffffffffffffffffffffffffffffffffffffffffffffffffffffffffffffff\n        /* \"#utility.yul\":13528:13602   */\n      sub\n        /* \"#utility.yul\":13525:13526   */\n      dup3\n        /* \"#utility.yul\":13522:13603   */\n      gt\n        /* \"#utility.yul\":13519:13626   */\n      iszero\n      tag_412\n      jumpi\n        /* \"#utility.yul\":13606:13624   */\n      tag_413\n      tag_261\n      jump\t// in\n    tag_413:\n        /* \"#utility.yul\":13519:13626   */\n    tag_412:\n        /* \"#utility.yul\":13650:13651   */\n      dup3\n        /* \"#utility.yul\":13647:13648   */\n      dup3\n        /* \"#utility.yul\":13643:13652   */\n      add\n        /* \"#utility.yul\":13636:13652   */\n      swap1\n      pop\n        /* \"#utility.yul\":13353:13658   */\n      swap3\n      swap2\n      pop\n      pop\n      jump\t// out\n        /* \"#utility.yul\":13664:13845   */\n    tag_266:\n        /* \"#utility.yul\":13804:13837   */\n      0x55534443703a207472616e7366657220746f207a65726f206164647265737300\n        /* \"#utility.yul\":13800:13801   */\n      0x00\n        /* \"#utility.yul\":13792:13798   */\n      dup3\n        /* \"#utility.yul\":13788:13802   */\n      add\n        /* \"#utility.yul\":13781:13838   */\n      mstore\n        /* \"#utility.yul\":13664:13845   */\n      pop\n      jump\t// out\n        /* \"#utility.yul\":13851:14217   */\n    tag_267:\n        /* \"#utility.yul\":13993:13996   */\n      0x00\n        /* \"#utility.yul\":14014:14081   */\n      tag_416\n        /* \"#utility.yul\":14078:14080   */\n      0x1f\n        /* \"#utility.yul\":14073:14076   */\n      dup4\n        /* \"#utility.yul\":14014:14081   */\n      tag_230\n      jump\t// in\n    tag_416:\n        /* \"#utility.yul\":14007:14081   */\n      swap2\n      pop\n        /* \"#utility.yul\":14090:14183   */\n      tag_417\n        /* \"#utility.yul\":14179:14182   */\n      dup3\n        /* \"#utility.yul\":14090:14183   */\n      tag_266\n      jump\t// in\n    tag_417:\n        /* \"#utility.yul\":14208:14210   */\n      0x20\n        /* \"#utility.yul\":14203:14206   */\n      dup3\n        /* \"#utility.yul\":14199:14211   */\n      add\n        /* \"#utility.yul\":14192:14211   */\n      swap1\n      pop\n        /* \"#utility.yul\":13851:14217   */\n      swap2\n      swap1\n      pop\n      jump\t// out\n        /* \"#utility.yul\":14223:14642   */\n    tag_158:\n        /* \"#utility.yul\":14389:14393   */\n      0x00\n        /* \"#utility.yul\":14427:14429   */\n      0x20\n        /* \"#utility.yul\":14416:14425   */\n      dup3\n        /* \"#utility.yul\":14412:14430   */\n      add\n        /* \"#utility.yul\":14404:14430   */\n      swap1\n      pop\n        /* \"#utility.yul\":14476:14485   */\n      dup2\n        /* \"#utility.yul\":14470:14474   */\n      dup2\n        /* \"#utility.yul\":14466:14486   */\n      sub\n        /* \"#utility.yul\":14462:14463   */\n      0x00\n        /* \"#utility.yul\":14451:14460   */\n      dup4\n        /* \"#utility.yul\":14447:14464   */\n      add\n        /* \"#utility.yul\":14440:14487   */\n      mstore\n        /* \"#utility.yul\":14504:14635   */\n      tag_419\n        /* \"#utility.yul\":14630:14634   */\n      dup2\n        /* \"#utility.yul\":14504:14635   */\n      tag_267\n      jump\t// in\n    tag_419:\n        /* \"#utility.yul\":14496:14635   */\n      swap1\n      pop\n        /* \"#utility.yul\":14223:14642   */\n      swap2\n      swap1\n      pop\n      jump\t// out\n        /* \"#utility.yul\":14648:14825   */\n    tag_268:\n        /* \"#utility.yul\":14788:14817   */\n      0x55534443703a20696e73756666696369656e742062616c616e63650000000000\n        /* \"#utility.yul\":14784:14785   */\n      0x00\n        /* \"#utility.yul\":14776:14782   */\n      dup3\n        /* \"#utility.yul\":14772:14786   */\n      add\n        /* \"#utility.yul\":14765:14818   */\n      mstore\n        /* \"#utility.yul\":14648:14825   */\n      pop\n      jump\t// out\n        /* \"#utility.yul\":14831:15197   */\n    tag_269:\n        /* \"#utility.yul\":14973:14976   */\n      0x00\n        /* \"#utility.yul\":14994:15061   */\n      tag_422\n        /* \"#utility.yul\":15058:15060   */\n      0x1b\n        /* \"#utility.yul\":15053:15056   */\n      dup4\n        /* \"#utility.yul\":14994:15061   */\n      tag_230\n      jump\t// in\n    tag_422:\n        /* \"#utility.yul\":14987:15061   */\n      swap2\n      pop\n        /* \"#utility.yul\":15070:15163   */\n      tag_423\n        /* \"#utility.yul\":15159:15162   */\n      dup3\n        /* \"#utility.yul\":15070:15163   */\n      tag_268\n      jump\t// in\n    tag_423:\n        /* \"#utility.yul\":15188:15190   */\n      0x20\n        /* \"#utility.yul\":15183:15186   */\n      dup3\n        /* \"#utility.yul\":15179:15191   */\n      add\n        /* \"#utility.yul\":15172:15191   */\n      swap1\n      pop\n        /* \"#utility.yul\":14831:15197   */\n      swap2\n      swap1\n      pop\n      jump\t// out\n        /* \"#utility.yul\":15203:15622   */\n    tag_161:\n        /* \"#utility.yul\":15369:15373   */\n      0x00\n        /* \"#utility.yul\":15407:15409   */\n      0x20\n        /* \"#utility.yul\":15396:15405   */\n      dup3\n        /* \"#utility.yul\":15392:15410   */\n      add\n        /* \"#utility.yul\":15384:15410   */\n      swap1\n      pop\n        /* \"#utility.yul\":15456:15465   */\n      dup2\n        /* \"#utility.yul\":15450:15454   */\n      dup2\n        /* \"#utility.yul\":15446:15466   */\n      sub\n        /* \"#utility.yul\":15442:15443   */\n      0x00\n        /* \"#utility.yul\":15431:15440   */\n      dup4\n        /* \"#utility.yul\":15427:15444   */\n      add\n        /* \"#utility.yul\":15420:15467   */\n      mstore\n        /* \"#utility.yul\":15484:15615   */\n      tag_425\n        /* \"#utility.yul\":15610:15614   */\n      dup2\n        /* \"#utility.yul\":15484:15615   */\n      tag_269\n      jump\t// in\n    tag_425:\n        /* \"#utility.yul\":15476:15615   */\n      swap1\n      pop\n        /* \"#utility.yul\":15203:15622   */\n      swap2\n      swap1\n      pop\n      jump\t// out\n        /* \"#utility.yul\":15628:15807   */\n    tag_270:\n        /* \"#utility.yul\":15768:15799   */\n      0x55534443703a20696e73756666696369656e7420616c6c6f77616e6365000000\n        /* \"#utility.yul\":15764:15765   */\n      0x00\n        /* \"#utility.yul\":15756:15762   */\n      dup3\n        /* \"#utility.yul\":15752:15766   */\n      add\n        /* \"#utility.yul\":15745:15800   */\n      mstore\n        /* \"#utility.yul\":15628:15807   */\n      pop\n      jump\t// out\n        /* \"#utility.yul\":15813:16179   */\n    tag_271:\n        /* \"#utility.yul\":15955:15958   */\n      0x00\n        /* \"#utility.yul\":15976:16043   */\n      tag_428\n        /* \"#utility.yul\":16040:16042   */\n      0x1d\n        /* \"#utility.yul\":16035:16038   */\n      dup4\n        /* \"#utility.yul\":15976:16043   */\n      tag_230\n      jump\t// in\n    tag_428:\n        /* \"#utility.yul\":15969:16043   */\n      swap2\n      pop\n        /* \"#utility.yul\":16052:16145   */\n      tag_429\n        /* \"#utility.yul\":16141:16144   */\n      dup3\n        /* \"#utility.yul\":16052:16145   */\n      tag_270\n      jump\t// in\n    tag_429:\n        /* \"#utility.yul\":16170:16172   */\n      0x20\n        /* \"#utility.yul\":16165:16168   */\n      dup3\n        /* \"#utility.yul\":16161:16173   */\n      add\n        /* \"#utility.yul\":16154:16173   */\n      swap1\n      pop\n        /* \"#utility.yul\":15813:16179   */\n      swap2\n      swap1\n      pop\n      jump\t// out\n        /* \"#utility.yul\":16185:16604   */\n    tag_164:\n        /* \"#utility.yul\":16351:16355   */\n      0x00\n        /* \"#utility.yul\":16389:16391   */\n      0x20\n        /* \"#utility.yul\":16378:16387   */\n      dup3\n        /* \"#utility.yul\":16374:16392   */\n      add\n        /* \"#utility.yul\":16366:16392   */\n      swap1\n      pop\n        /* \"#utility.yul\":16438:16447   */\n      dup2\n        /* \"#utility.yul\":16432:16436   */\n      dup2\n        /* \"#utility.yul\":16428:16448   */\n      sub\n        /* \"#utility.yul\":16424:16425   */\n      0x00\n        /* \"#utility.yul\":16413:16422   */\n      dup4\n        /* \"#utility.yul\":16409:16426   */\n      add\n        /* \"#utility.yul\":16402:16449   */\n      mstore\n        /* \"#utility.yul\":16466:16597   */\n      tag_431\n        /* \"#utility.yul\":16592:16596   */\n      dup2\n        /* \"#utility.yul\":16466:16597   */\n      tag_271\n      jump\t// in\n    tag_431:\n        /* \"#utility.yul\":16458:16597   */\n      swap1\n      pop\n        /* \"#utility.yul\":16185:16604   */\n      swap2\n      swap1\n      pop\n      jump\t// out\n        /* \"#utility.yul\":16610:16790   */\n    tag_272:\n        /* \"#utility.yul\":16750:16782   */\n      0x55534443703a2063616c6c6572206973206e6f7420746865206f776e65720000\n        /* \"#utility.yul\":16746:16747   */\n      0x00\n        /* \"#utility.yul\":16738:16744   */\n      dup3\n        /* \"#utility.yul\":16734:16748   */\n      add\n        /* \"#utility.yul\":16727:16783   */\n      mstore\n        /* \"#utility.yul\":16610:16790   */\n      pop\n      jump\t// out\n        /* \"#utility.yul\":16796:17162   */\n    tag_273:\n        /* \"#utility.yul\":16938:16941   */\n      0x00\n        /* \"#utility.yul\":16959:17026   */\n      tag_434\n        /* \"#utility.yul\":17023:17025   */\n      0x1e\n        /* \"#utility.yul\":17018:17021   */\n      dup4\n        /* \"#utility.yul\":16959:17026   */\n      tag_230\n      jump\t// in\n    tag_434:\n        /* \"#utility.yul\":16952:17026   */\n      swap2\n      pop\n        /* \"#utility.yul\":17035:17128   */\n      tag_435\n        /* \"#utility.yul\":17124:17127   */\n      dup3\n        /* \"#utility.yul\":17035:17128   */\n      tag_272\n      jump\t// in\n    tag_435:\n        /* \"#utility.yul\":17153:17155   */\n      0x20\n        /* \"#utility.yul\":17148:17151   */\n      dup3\n        /* \"#utility.yul\":17144:17156   */\n      add\n        /* \"#utility.yul\":17137:17156   */\n      swap1\n      pop\n        /* \"#utility.yul\":16796:17162   */\n      swap2\n      swap1\n      pop\n      jump\t// out\n        /* \"#utility.yul\":17168:17587   */\n    tag_178:\n        /* \"#utility.yul\":17334:17338   */\n      0x00\n        /* \"#utility.yul\":17372:17374   */\n      0x20\n        /* \"#utility.yul\":17361:17370   */\n      dup3\n        /* \"#utility.yul\":17357:17375   */\n      add\n        /* \"#utility.yul\":17349:17375   */\n      swap1\n      pop\n        /* \"#utility.yul\":17421:17430   */\n      dup2\n        /* \"#utility.yul\":17415:17419   */\n      dup2\n        /* \"#utility.yul\":17411:17431   */\n      sub\n        /* \"#utility.yul\":17407:17408   */\n      0x00\n        /* \"#utility.yul\":17396:17405   */\n      dup4\n        /* \"#utility.yul\":17392:17409   */\n      add\n        /* \"#utility.yul\":17385:17432   */\n      mstore\n        /* \"#utility.yul\":17449:17580   */\n      tag_437\n        /* \"#utility.yul\":17575:17579   */\n      dup2\n        /* \"#utility.yul\":17449:17580   */\n      tag_273\n      jump\t// in\n    tag_437:\n        /* \"#utility.yul\":17441:17580   */\n      swap1\n      pop\n        /* \"#utility.yul\":17168:17587   */\n      swap2\n      swap1\n      pop\n      jump\t// out\n        /* \"#utility.yul\":17593:17814   */\n    tag_274:\n        /* \"#utility.yul\":17733:17767   */\n      0x55534443703a2063616c6c6572206973206e6f742070656e64696e67206f776e\n        /* \"#utility.yul\":17729:17730   */\n      0x00\n        /* \"#utility.yul\":17721:17727   */\n      dup3\n        /* \"#utility.yul\":17717:17731   */\n      add\n        /* \"#utility.yul\":17710:17768   */\n      mstore\n        /* \"#utility.yul\":17802:17806   */\n      0x6572000000000000000000000000000000000000000000000000000000000000\n        /* \"#utility.yul\":17797:17799   */\n      0x20\n        /* \"#utility.yul\":17789:17795   */\n      dup3\n        /* \"#utility.yul\":17785:17800   */\n      add\n        /* \"#utility.yul\":17778:17807   */\n      mstore\n        /* \"#utility.yul\":17593:17814   */\n      pop\n      jump\t// out\n        /* \"#utility.yul\":17820:18186   */\n    tag_275:\n        /* \"#utility.yul\":17962:17965   */\n      0x00\n        /* \"#utility.yul\":17983:18050   */\n      tag_440\n        /* \"#utility.yul\":18047:18049   */\n      0x22\n        /* \"#utility.yul\":18042:18045   */\n      dup4\n        /* \"#utility.yul\":17983:18050   */\n      tag_230\n      jump\t// in\n    tag_440:\n        /* \"#utility.yul\":17976:18050   */\n      swap2\n      pop\n        /* \"#utility.yul\":18059:18152   */\n      tag_441\n        /* \"#utility.yul\":18148:18151   */\n      dup3\n        /* \"#utility.yul\":18059:18152   */\n      tag_274\n      jump\t// in\n    tag_441:\n        /* \"#utility.yul\":18177:18179   */\n      0x40\n        /* \"#utility.yul\":18172:18175   */\n      dup3\n        /* \"#utility.yul\":18168:18180   */\n      add\n        /* \"#utility.yul\":18161:18180   */\n      swap1\n      pop\n        /* \"#utility.yul\":17820:18186   */\n      swap2\n      swap1\n      pop\n      jump\t// out\n        /* \"#utility.yul\":18192:18611   */\n    tag_184:\n        /* \"#utility.yul\":18358:18362   */\n      0x00\n        /* \"#utility.yul\":18396:18398   */\n      0x20\n        /* \"#utility.yul\":18385:18394   */\n      dup3\n        /* \"#utility.yul\":18381:18399   */\n      add\n        /* \"#utility.yul\":18373:18399   */\n      swap1\n      pop\n        /* \"#utility.yul\":18445:18454   */\n      dup2\n        /* \"#utility.yul\":18439:18443   */\n      dup2\n        /* \"#utility.yul\":18435:18455   */\n      sub\n        /* \"#utility.yul\":18431:18432   */\n      0x00\n        /* \"#utility.yul\":18420:18429   */\n      dup4\n        /* \"#utility.yul\":18416:18433   */\n      add\n        /* \"#utility.yul\":18409:18456   */\n      mstore\n        /* \"#utility.yul\":18473:18604   */\n      tag_443\n        /* \"#utility.yul\":18599:18603   */\n      dup2\n        /* \"#utility.yul\":18473:18604   */\n      tag_275\n      jump\t// in\n    tag_443:\n        /* \"#utility.yul\":18465:18604   */\n      swap1\n      pop\n        /* \"#utility.yul\":18192:18611   */\n      swap2\n      swap1\n      pop\n      jump\t// out\n        /* \"#utility.yul\":18617:18840   */\n    tag_276:\n        /* \"#utility.yul\":18757:18791   */\n      0x55534443703a206272696467652063616e6e6f74206265207a65726f20616464\n        /* \"#utility.yul\":18753:18754   */\n      0x00\n        /* \"#utility.yul\":18745:18751   */\n      dup3\n        /* \"#utility.yul\":18741:18755   */\n      add\n        /* \"#utility.yul\":18734:18792   */\n      mstore\n        /* \"#utility.yul\":18826:18832   */\n      0x7265737300000000000000000000000000000000000000000000000000000000\n        /* \"#utility.yul\":18821:18823   */\n      0x20\n        /* \"#utility.yul\":18813:18819   */\n      dup3\n        /* \"#utility.yul\":18809:18824   */\n      add\n        /* \"#utility.yul\":18802:18833   */\n      mstore\n        /* \"#utility.yul\":18617:18840   */\n      pop\n      jump\t// out\n        /* \"#utility.yul\":18846:19212   */\n    tag_277:\n        /* \"#utility.yul\":18988:18991   */\n      0x00\n        /* \"#utility.yul\":19009:19076   */\n      tag_446\n        /* \"#utility.yul\":19073:19075   */\n      0x24\n        /* \"#utility.yul\":19068:19071   */\n      dup4\n        /* \"#utility.yul\":19009:19076   */\n      tag_230\n      jump\t// in\n    tag_446:\n        /* \"#utility.yul\":19002:19076   */\n      swap2\n      pop\n        /* \"#utility.yul\":19085:19178   */\n      tag_447\n        /* \"#utility.yul\":19174:19177   */\n      dup3\n        /* \"#utility.yul\":19085:19178   */\n      tag_276\n      jump\t// in\n    tag_447:\n        /* \"#utility.yul\":19203:19205   */\n      0x40\n        /* \"#utility.yul\":19198:19201   */\n      dup3\n        /* \"#utility.yul\":19194:19206   */\n      add\n        /* \"#utility.yul\":19187:19206   */\n      swap1\n      pop\n        /* \"#utility.yul\":18846:19212   */\n      swap2\n      swap1\n      pop\n      jump\t// out\n        /* \"#utility.yul\":19218:19637   */\n    tag_196:\n        /* \"#utility.yul\":19384:19388   */\n      0x00\n        /* \"#utility.yul\":19422:19424   */\n      0x20\n        /* \"#utility.yul\":19411:19420   */\n      dup3\n        /* \"#utility.yul\":19407:19425   */\n      add\n        /* \"#utility.yul\":19399:19425   */\n      swap1\n      pop\n        /* \"#utility.yul\":19471:19480   */\n      dup2\n        /* \"#utility.yul\":19465:19469   */\n      dup2\n        /* \"#utility.yul\":19461:19481   */\n      sub\n        /* \"#utility.yul\":19457:19458   */\n      0x00\n        /* \"#utility.yul\":19446:19455   */\n      dup4\n        /* \"#utility.yul\":19442:19459   */\n      add\n        /* \"#utility.yul\":19435:19482   */\n      mstore\n        /* \"#utility.yul\":19499:19630   */\n      tag_449\n        /* \"#utility.yul\":19625:19629   */\n      dup2\n        /* \"#utility.yul\":19499:19630   */\n      tag_277\n      jump\t// in\n    tag_449:\n        /* \"#utility.yul\":19491:19630   */\n      swap1\n      pop\n        /* \"#utility.yul\":19218:19637   */\n      swap2\n      swap1\n      pop\n      jump\t// out\n        /* \"#utility.yul\":19643:19867   */\n    tag_278:\n        /* \"#utility.yul\":19783:19817   */\n      0x55534443703a2064656372656173656420616c6c6f77616e63652062656c6f77\n        /* \"#utility.yul\":19779:19780   */\n      0x00\n        /* \"#utility.yul\":19771:19777   */\n      dup3\n        /* \"#utility.yul\":19767:19781   */\n      add\n        /* \"#utility.yul\":19760:19818   */\n      mstore\n        /* \"#utility.yul\":19852:19859   */\n      0x207a65726f000000000000000000000000000000000000000000000000000000\n        /* \"#utility.yul\":19847:19849   */\n      0x20\n        /* \"#utility.yul\":19839:19845   */\n      dup3\n        /* \"#utility.yul\":19835:19850   */\n      add\n        /* \"#utility.yul\":19828:19860   */\n      mstore\n        /* \"#utility.yul\":19643:19867   */\n      pop\n      jump\t// out\n        /* \"#utility.yul\":19873:20239   */\n    tag_279:\n        /* \"#utility.yul\":20015:20018   */\n      0x00\n        /* \"#utility.yul\":20036:20103   */\n      tag_452\n        /* \"#utility.yul\":20100:20102   */\n      0x25\n        /* \"#utility.yul\":20095:20098   */\n      dup4\n        /* \"#utility.yul\":20036:20103   */\n      tag_230\n      jump\t// in\n    tag_452:\n        /* \"#utility.yul\":20029:20103   */\n      swap2\n      pop\n        /* \"#utility.yul\":20112:20205   */\n      tag_453\n        /* \"#utility.yul\":20201:20204   */\n      dup3\n        /* \"#utility.yul\":20112:20205   */\n      tag_278\n      jump\t// in\n    tag_453:\n        /* \"#utility.yul\":20230:20232   */\n      0x40\n        /* \"#utility.yul\":20225:20228   */\n      dup3\n        /* \"#utility.yul\":20221:20233   */\n      add\n        /* \"#utility.yul\":20214:20233   */\n      swap1\n      pop\n        /* \"#utility.yul\":19873:20239   */\n      swap2\n      swap1\n      pop\n      jump\t// out\n        /* \"#utility.yul\":20245:20664   */\n    tag_203:\n        /* \"#utility.yul\":20411:20415   */\n      0x00\n        /* \"#utility.yul\":20449:20451   */\n      0x20\n        /* \"#utility.yul\":20438:20447   */\n      dup3\n        /* \"#utility.yul\":20434:20452   */\n      add\n        /* \"#utility.yul\":20426:20452   */\n      swap1\n      pop\n        /* \"#utility.yul\":20498:20507   */\n      dup2\n        /* \"#utility.yul\":20492:20496   */\n      dup2\n        /* \"#utility.yul\":20488:20508   */\n      sub\n        /* \"#utility.yul\":20484:20485   */\n      0x00\n        /* \"#utility.yul\":20473:20482   */\n      dup4\n        /* \"#utility.yul\":20469:20486   */\n      add\n        /* \"#utility.yul\":20462:20509   */\n      mstore\n        /* \"#utility.yul\":20526:20657   */\n      tag_455\n        /* \"#utility.yul\":20652:20656   */\n      dup2\n        /* \"#utility.yul\":20526:20657   */\n      tag_279\n      jump\t// in\n    tag_455:\n        /* \"#utility.yul\":20518:20657   */\n      swap1\n      pop\n        /* \"#utility.yul\":20245:20664   */\n      swap2\n      swap1\n      pop\n      jump\t// out\n        /* \"#utility.yul\":20670:20896   */\n    tag_280:\n        /* \"#utility.yul\":20810:20844   */\n      0x55534443703a206e6577206f776e65722063616e6e6f74206265207a65726f20\n        /* \"#utility.yul\":20806:20807   */\n      0x00\n        /* \"#utility.yul\":20798:20804   */\n      dup3\n        /* \"#utility.yul\":20794:20808   */\n      add\n        /* \"#utility.yul\":20787:20845   */\n      mstore\n        /* \"#utility.yul\":20879:20888   */\n      0x6164647265737300000000000000000000000000000000000000000000000000\n        /* \"#utility.yul\":20874:20876   */\n      0x20\n        /* \"#utility.yul\":20866:20872   */\n      dup3\n        /* \"#utility.yul\":20862:20877   */\n      add\n        /* \"#utility.yul\":20855:20889   */\n      mstore\n        /* \"#utility.yul\":20670:20896   */\n      pop\n      jump\t// out\n        /* \"#utility.yul\":20902:21268   */\n    tag_281:\n        /* \"#utility.yul\":21044:21047   */\n      0x00\n        /* \"#utility.yul\":21065:21132   */\n      tag_458\n        /* \"#utility.yul\":21129:21131   */\n      0x27\n        /* \"#utility.yul\":21124:21127   */\n      dup4\n        /* \"#utility.yul\":21065:21132   */\n      tag_230\n      jump\t// in\n    tag_458:\n        /* \"#utility.yul\":21058:21132   */\n      swap2\n      pop\n        /* \"#utility.yul\":21141:21234   */\n      tag_459\n        /* \"#utility.yul\":21230:21233   */\n      dup3\n        /* \"#utility.yul\":21141:21234   */\n      tag_280\n      jump\t// in\n    tag_459:\n        /* \"#utility.yul\":21259:21261   */\n      0x40\n        /* \"#utility.yul\":21254:21257   */\n      dup3\n        /* \"#utility.yul\":21250:21262   */\n      add\n        /* \"#utility.yul\":21243:21262   */\n      swap1\n      pop\n        /* \"#utility.yul\":20902:21268   */\n      swap2\n      swap1\n      pop\n      jump\t// out\n        /* \"#utility.yul\":21274:21693   */\n    tag_223:\n        /* \"#utility.yul\":21440:21444   */\n      0x00\n        /* \"#utility.yul\":21478:21480   */\n      0x20\n        /* \"#utility.yul\":21467:21476   */\n      dup3\n        /* \"#utility.yul\":21463:21481   */\n      add\n        /* \"#utility.yul\":21455:21481   */\n      swap1\n      pop\n        /* \"#utility.yul\":21527:21536   */\n      dup2\n        /* \"#utility.yul\":21521:21525   */\n      dup2\n        /* \"#utility.yul\":21517:21537   */\n      sub\n        /* \"#utility.yul\":21513:21514   */\n      0x00\n        /* \"#utility.yul\":21502:21511   */\n      dup4\n        /* \"#utility.yul\":21498:21515   */\n      add\n        /* \"#utility.yul\":21491:21538   */\n      mstore\n        /* \"#utility.yul\":21555:21686   */\n      tag_461\n        /* \"#utility.yul\":21681:21685   */\n      dup2\n        /* \"#utility.yul\":21555:21686   */\n      tag_281\n      jump\t// in\n    tag_461:\n        /* \"#utility.yul\":21547:21686   */\n      swap1\n      pop\n        /* \"#utility.yul\":21274:21693   */\n      swap2\n      swap1\n      pop\n      jump\t// out\n        /* \"#utility.yul\":21699:21879   */\n    tag_282:\n        /* \"#utility.yul\":21839:21871   */\n      0x55534443703a20617070726f766520746f207a65726f20616464726573730000\n        /* \"#utility.yul\":21835:21836   */\n      0x00\n        /* \"#utility.yul\":21827:21833   */\n      dup3\n        /* \"#utility.yul\":21823:21837   */\n      add\n        /* \"#utility.yul\":21816:21872   */\n      mstore\n        /* \"#utility.yul\":21699:21879   */\n      pop\n      jump\t// out\n        /* \"#utility.yul\":21885:22251   */\n    tag_283:\n        /* \"#utility.yul\":22027:22030   */\n      0x00\n        /* \"#utility.yul\":22048:22115   */\n      tag_464\n        /* \"#utility.yul\":22112:22114   */\n      0x1e\n        /* \"#utility.yul\":22107:22110   */\n      dup4\n        /* \"#utility.yul\":22048:22115   */\n      tag_230\n      jump\t// in\n    tag_464:\n        /* \"#utility.yul\":22041:22115   */\n      swap2\n      pop\n        /* \"#utility.yul\":22124:22217   */\n      tag_465\n        /* \"#utility.yul\":22213:22216   */\n      dup3\n        /* \"#utility.yul\":22124:22217   */\n      tag_282\n      jump\t// in\n    tag_465:\n        /* \"#utility.yul\":22242:22244   */\n      0x20\n        /* \"#utility.yul\":22237:22240   */\n      dup3\n        /* \"#utility.yul\":22233:22245   */\n      add\n        /* \"#utility.yul\":22226:22245   */\n      swap1\n      pop\n        /* \"#utility.yul\":21885:22251   */\n      swap2\n      swap1\n      pop\n      jump\t// out\n        /* \"#utility.yul\":22257:22676   */\n    tag_227:\n        /* \"#utility.yul\":22423:22427   */\n      0x00\n        /* \"#utility.yul\":22461:22463   */\n      0x20\n        /* \"#utility.yul\":22450:22459   */\n      dup3\n        /* \"#utility.yul\":22446:22464   */\n      add\n        /* \"#utility.yul\":22438:22464   */\n      swap1\n      pop\n        /* \"#utility.yul\":22510:22519   */\n      dup2\n        /* \"#utility.yul\":22504:22508   */\n      dup2\n        /* \"#utility.yul\":22500:22520   */\n      sub\n        /* \"#utility.yul\":22496:22497   */\n      0x00\n        /* \"#utility.yul\":22485:22494   */\n      dup4\n        /* \"#utility.yul\":22481:22498   */\n      add\n        /* \"#utility.yul\":22474:22521   */\n      mstore\n        /* \"#utility.yul\":22538:22669   */\n      tag_467\n        /* \"#utility.yul\":22664:22668   */\n      dup2\n        /* \"#utility.yul\":22538:22669   */\n      tag_283\n      jump\t// in\n    tag_467:\n        /* \"#utility.yul\":22530:22669   */\n      swap1\n      pop\n        /* \"#utility.yul\":22257:22676   */\n      swap2\n      swap1\n      pop\n      jump\t// out\n\n    auxdata: 0xa2646970667358221220fec42a3ab67ede226f688ba3cf87f1209844b66d890029d89374b96974acf2ba64736f6c634300080a0033\n}\n",
    "bytecode": {
      "linkReferences": {},
      "object": "60806040523480156200001157600080fd5b50604051620029f2380380620029f283398181016040528101906200003791906200019d565b600073ffffffffffffffffffffffffffffffffffffffff168173ffffffffffffffffffffffffffffffffffffffff161415620000aa576040517f08c379a0000000000000000000000000000000000000000000000000000000008152600401620000a19062000230565b60405180910390fd5b33600460006101000a81548173ffffffffffffffffffffffffffffffffffffffff021916908373ffffffffffffffffffffffffffffffffffffffff16021790555080600360006101000a81548173ffffffffffffffffffffffffffffffffffffffff021916908373ffffffffffffffffffffffffffffffffffffffff1602179055505062000252565b600080fd5b600073ffffffffffffffffffffffffffffffffffffffff82169050919050565b6000620001658262000138565b9050919050565b620001778162000158565b81146200018357600080fd5b50565b60008151905062000197816200016c565b92915050565b600060208284031215620001b657620001b562000133565b5b6000620001c68482850162000186565b91505092915050565b600082825260208201905092915050565b7f55534443703a206272696467652063616e6e6f74206265207a65726f00000000600082015250565b600062000218601c83620001cf565b91506200022582620001e0565b602082019050919050565b600060208201905081810360008301526200024b8162000209565b9050919050565b61279080620002626000396000f3fe608060405234801561001057600080fd5b50600436106101425760003560e01c806379ba5097116100b8578063a457c2d71161007c578063a457c2d71461032d578063a9059cbb1461035d578063dd62ed3e1461038d578063e30c3978146103bd578063e78cea92146103db578063f2fde38b146103f957610142565b806379ba5097146102c15780638456cb59146102cb5780638da5cb5b146102d55780638dd14802146102f357806395d89b411461030f57610142565b806323b872dd1161010a57806323b872dd146101eb578063313ce5671461021b57806339509351146102395780633f4ba83a146102695780635c975abb1461027357806370a082311461029157610142565b806306fdde0314610147578063095ea7b314610165578063158a1cc31461019557806318160ddd146101b15780631e458bee146101cf575b600080fd5b61014f610415565b60405161015c9190611c8a565b60405180910390f35b61017f600480360381019061017a9190611d45565b61044e565b60405161018c9190611da0565b60405180910390f35b6101af60048036038101906101aa9190611df1565b6104b5565b005b6101b9610782565b6040516101c69190611e53565b60405180910390f35b6101e960048036038101906101e49190611df1565b610788565b005b61020560048036038101906102009190611e6e565b610a43565b6040516102129190611da0565b60405180910390f35b610223610df5565b6040516102309190611edd565b60405180910390f35b610253600480360381019061024e9190611d45565b610dfa565b6040516102609190611da0565b60405180910390f35b610271610ee8565b005b61027b610fcc565b6040516102889190611da0565b60405180910390f35b6102ab60048036038101906102a69190611ef8565b610fdf565b6040516102b89190611e53565b60405180910390f35b6102c9610ff7565b005b6102d36111cc565b005b6102dd6112b0565b6040516102ea9190611f34565b60405180910390f35b61030d60048036038101906103089190611ef8565b6112d6565b005b610317611496565b6040516103249190611c8a565b60405180910390f35b61034760048036038101906103429190611d45565b6114cf565b6040516103549190611da0565b60405180910390f35b61037760048036038101906103729190611d45565b611606565b6040516103849190611da0565b60405180910390f35b6103a760048036038101906103a29190611f4f565b611865565b6040516103b49190611e53565b60405180910390f35b6103c561188a565b6040516103d29190611f34565b60405180910390f35b6103e36118b0565b6040516103f09190611f34565b60405180910390f35b610413600480360381019061040e9190611ef8565b6118d6565b005b6040518060400160405280601681526020017f427269646765642055534443202850726976617465290000000000000000000081525081565b6000600560149054906101000a900460ff16156104a0576040517f08c379a000000000000000000000000000000000000000000000000000000000815260040161049790611fdb565b60405180910390fd5b6104ab338484611a96565b6001905092915050565b600360009054906101000a900473ffffffffffffffffffffffffffffffffffffffff1673ffffffffffffffffffffffffffffffffffffffff163373ffffffffffffffffffffffffffffffffffffffff1614610545576040517f08c379a000000000000000000000000000000000000000000000000000000000815260040161053c90612047565b60405180910390fd5b600560149054906101000a900460ff1615610595576040517f08c379a000000000000000000000000000000000000000000000000000000000815260040161058c90611fdb565b60405180910390fd5b81600160008573ffffffffffffffffffffffffffffffffffffffff1673ffffffffffffffffffffffffffffffffffffffff168152602001908152602001600020541015610617576040517f08c379a000000000000000000000000000000000000000000000000000000000815260040161060e906120d9565b60405180910390fd5b6000821161065a576040517f08c379a000000000000000000000000000000000000000000000000000000000815260040161065190612145565b60405180910390fd5b81600160008573ffffffffffffffffffffffffffffffffffffffff1673ffffffffffffffffffffffffffffffffffffffff16815260200190815260200160002060008282546106a99190612194565b92505081905550816000808282546106c19190612194565b92505081905550600073ffffffffffffffffffffffffffffffffffffffff168373ffffffffffffffffffffffffffffffffffffffff167fddf252ad1be2c89b69c2b068fc378daa952ba7f163c4a11628f55a4df523b3ef846040516107269190611e53565b60405180910390a3808373ffffffffffffffffffffffffffffffffffffffff167fc6c4132f6250531f66c30d176444d900432e0ff7bb9e3e4ef8c8b33670218419846040516107759190611e53565b60405180910390a3505050565b60005481565b600360009054906101000a900473ffffffffffffffffffffffffffffffffffffffff1673ffffffffffffffffffffffffffffffffffffffff163373ffffffffffffffffffffffffffffffffffffffff1614610818576040517f08c379a000000000000000000000000000000000000000000000000000000000815260040161080f90612047565b60405180910390fd5b600560149054906101000a900460ff1615610868576040517f08c379a000000000000000000000000000000000000000000000000000000000815260040161085f90611fdb565b60405180910390fd5b600073ffffffffffffffffffffffffffffffffffffffff168373ffffffffffffffffffffffffffffffffffffffff1614156108d8576040517f08c379a00000000000000000000000000000000000000000000000000000000081526004016108cf90612214565b60405180910390fd5b6000821161091b576040517f08c379a000000000000000000000000000000000000000000000000000000000815260040161091290612280565b60405180910390fd5b8160008082825461092c91906122a0565b9250508190555081600160008573ffffffffffffffffffffffffffffffffffffffff1673ffffffffffffffffffffffffffffffffffffffff168152602001908152602001600020600082825461098291906122a0565b925050819055508273ffffffffffffffffffffffffffffffffffffffff16600073ffffffffffffffffffffffffffffffffffffffff167fddf252ad1be2c89b69c2b068fc378daa952ba7f163c4a11628f55a4df523b3ef846040516109e79190611e53565b60405180910390a3808373ffffffffffffffffffffffffffffffffffffffff167f3dec94b8abc8f801eaade1616d3aadd3114b556a284267905e0a053b2df3989284604051610a369190611e53565b60405180910390a3505050565b6000600560149054906101000a900460ff1615610a95576040517f08c379a0000000000000000000000000000000000000000000000000000000008152600401610a8c90611fdb565b60405180910390fd5b600073ffffffffffffffffffffffffffffffffffffffff168373ffffffffffffffffffffffffffffffffffffffff161415610b05576040517f08c379a0000000000000000000000000000000000000000000000000000000008152600401610afc90612342565b60405180910390fd5b81600160008673ffffffffffffffffffffffffffffffffffffffff1673ffffffffffffffffffffffffffffffffffffffff168152602001908152602001600020541015610b87576040517f08c379a0000000000000000000000000000000000000000000000000000000008152600401610b7e906123ae565b60405180910390fd5b81600260008673ffffffffffffffffffffffffffffffffffffffff1673ffffffffffffffffffffffffffffffffffffffff16815260200190815260200160002060003373ffffffffffffffffffffffffffffffffffffffff1673ffffffffffffffffffffffffffffffffffffffff168152602001908152602001600020541015610c46576040517f08c379a0000000000000000000000000000000000000000000000000000000008152600401610c3d9061241a565b60405180910390fd5b81600260008673ffffffffffffffffffffffffffffffffffffffff1673ffffffffffffffffffffffffffffffffffffffff16815260200190815260200160002060003373ffffffffffffffffffffffffffffffffffffffff1673ffffffffffffffffffffffffffffffffffffffff1681526020019081526020016000206000828254610cd29190612194565b9250508190555081600160008673ffffffffffffffffffffffffffffffffffffffff1673ffffffffffffffffffffffffffffffffffffffff1681526020019081526020016000206000828254610d289190612194565b9250508190555081600160008573ffffffffffffffffffffffffffffffffffffffff1673ffffffffffffffffffffffffffffffffffffffff1681526020019081526020016000206000828254610d7e91906122a0565b925050819055508273ffffffffffffffffffffffffffffffffffffffff168473ffffffffffffffffffffffffffffffffffffffff167fddf252ad1be2c89b69c2b068fc378daa952ba7f163c4a11628f55a4df523b3ef84604051610de29190611e53565b60405180910390a3600190509392505050565b600681565b6000600560149054906101000a900460ff1615610e4c576040517f08c379a0000000000000000000000000000000000000000000000000000000008152600401610e4390611fdb565b60405180910390fd5b610ede338484600260003373ffffffffffffffffffffffffffffffffffffffff1673ffffffffffffffffffffffffffffffffffffffff16815260200190815260200160002060008873ffffffffffffffffffffffffffffffffffffffff1673ffffffffffffffffffffffffffffffffffffffff16815260200190815260200160002054610ed991906122a0565b611a96565b6001905092915050565b600460009054906101000a900473ffffffffffffffffffffffffffffffffffffffff1673ffffffffffffffffffffffffffffffffffffffff163373ffffffffffffffffffffffffffffffffffffffff1614610f78576040517f08c379a0000000000000000000000000000000000000000000000000000000008152600401610f6f90612486565b60405180910390fd5b6000600560146101000a81548160ff0219169083151502179055507f5db9ee0a495bf2e6ff9c91a7834c1ba4fdd244a5e8aa4e537bd38aeae4b073aa33604051610fc29190611f34565b60405180910390a1565b600560149054906101000a900460ff1681565b60016020528060005260406000206000915090505481565b600560009054906101000a900473ffffffffffffffffffffffffffffffffffffffff1673ffffffffffffffffffffffffffffffffffffffff163373ffffffffffffffffffffffffffffffffffffffff1614611087576040517f08c379a000000000000000000000000000000000000000000000000000000000815260040161107e90612518565b60405180910390fd5b600560009054906101000a900473ffffffffffffffffffffffffffffffffffffffff1673ffffffffffffffffffffffffffffffffffffffff16600460009054906101000a900473ffffffffffffffffffffffffffffffffffffffff1673ffffffffffffffffffffffffffffffffffffffff167f8be0079c531659141344cd1fd0a4f28419497f9722a3daafe3b4186f6b6457e060405160405180910390a3600560009054906101000a900473ffffffffffffffffffffffffffffffffffffffff16600460006101000a81548173ffffffffffffffffffffffffffffffffffffffff021916908373ffffffffffffffffffffffffffffffffffffffff1602179055506000600560006101000a81548173ffffffffffffffffffffffffffffffffffffffff021916908373ffffffffffffffffffffffffffffffffffffffff160217905550565b600460009054906101000a900473ffffffffffffffffffffffffffffffffffffffff1673ffffffffffffffffffffffffffffffffffffffff163373ffffffffffffffffffffffffffffffffffffffff161461125c576040517f08c379a000000000000000000000000000000000000000000000000000000000815260040161125390612486565b60405180910390fd5b6001600560146101000a81548160ff0219169083151502179055507f62e78cea01bee320cd4e420270b5ea74000d11b0c9f74754ebdbfc544b05a258336040516112a69190611f34565b60405180910390a1565b600460009054906101000a900473ffffffffffffffffffffffffffffffffffffffff1681565b600460009054906101000a900473ffffffffffffffffffffffffffffffffffffffff1673ffffffffffffffffffffffffffffffffffffffff163373ffffffffffffffffffffffffffffffffffffffff1614611366576040517f08c379a000000000000000000000000000000000000000000000000000000000815260040161135d90612486565b60405180910390fd5b600073ffffffffffffffffffffffffffffffffffffffff168173ffffffffffffffffffffffffffffffffffffffff1614156113d6576040517f08c379a00000000000000000000000000000000000000000000000000000000081526004016113cd906125aa565b60405180910390fd5b8073ffffffffffffffffffffffffffffffffffffffff16600360009054906101000a900473ffffffffffffffffffffffffffffffffffffffff1673ffffffffffffffffffffffffffffffffffffffff167faae9beddccf584528e87b66c6ff2563825c8a1433305b8a656e9b5f9bf39049960405160405180910390a380600360006101000a81548173ffffffffffffffffffffffffffffffffffffffff021916908373ffffffffffffffffffffffffffffffffffffffff16021790555050565b6040518060400160405280600581526020017f555344437000000000000000000000000000000000000000000000000000000081525081565b6000600560149054906101000a900460ff1615611521576040517f08c379a000000000000000000000000000000000000000000000000000000000815260040161151890611fdb565b60405180910390fd5b6000600260003373ffffffffffffffffffffffffffffffffffffffff1673ffffffffffffffffffffffffffffffffffffffff16815260200190815260200160002060008573ffffffffffffffffffffffffffffffffffffffff1673ffffffffffffffffffffffffffffffffffffffff168152602001908152602001600020549050828110156115e5576040517f08c379a00000000000000000000000000000000000000000000000000000000081526004016115dc9061263c565b60405180910390fd5b6115fb338585846115f69190612194565b611a96565b600191505092915050565b6000600560149054906101000a900460ff1615611658576040517f08c379a000000000000000000000000000000000000000000000000000000000815260040161164f90611fdb565b60405180910390fd5b600073ffffffffffffffffffffffffffffffffffffffff168373ffffffffffffffffffffffffffffffffffffffff1614156116c8576040517f08c379a00000000000000000000000000000000000000000000000000000000081526004016116bf90612342565b60405180910390fd5b81600160003373ffffffffffffffffffffffffffffffffffffffff1673ffffffffffffffffffffffffffffffffffffffff16815260200190815260200160002054101561174a576040517f08c379a0000000000000000000000000000000000000000000000000000000008152600401611741906123ae565b60405180910390fd5b81600160003373ffffffffffffffffffffffffffffffffffffffff1673ffffffffffffffffffffffffffffffffffffffff16815260200190815260200160002060008282546117999190612194565b9250508190555081600160008573ffffffffffffffffffffffffffffffffffffffff1673ffffffffffffffffffffffffffffffffffffffff16815260200190815260200160002060008282546117ef91906122a0565b925050819055508273ffffffffffffffffffffffffffffffffffffffff163373ffffffffffffffffffffffffffffffffffffffff167fddf252ad1be2c89b69c2b068fc378daa952ba7f163c4a11628f55a4df523b3ef846040516118539190611e53565b60405180910390a36001905092915050565b6002602052816000526040600020602052806000526040600020600091509150505481565b600560009054906101000a900473ffffffffffffffffffffffffffffffffffffffff1681565b600360009054906101000a900473ffffffffffffffffffffffffffffffffffffffff1681565b600460009054906101000a900473ffffffffffffffffffffffffffffffffffffffff1673ffffffffffffffffffffffffffffffffffffffff163373ffffffffffffffffffffffffffffffffffffffff1614611966576040517f08c379a000000000000000000000000000000000000000000000000000000000815260040161195d90612486565b60405180910390fd5b600073ffffffffffffffffffffffffffffffffffffffff168173ffffffffffffffffffffffffffffffffffffffff1614156119d6576040517f08c379a00000000000000000000000000000000000000000000000000000000081526004016119cd906126ce565b60405180910390fd5b80600560006101000a81548173ffffffffffffffffffffffffffffffffffffffff021916908373ffffffffffffffffffffffffffffffffffffffff1602179055508073ffffffffffffffffffffffffffffffffffffffff16600460009054906101000a900473ffffffffffffffffffffffffffffffffffffffff1673ffffffffffffffffffffffffffffffffffffffff167f38d16b8cac22d99fc7c124b9cd0de2d3fa1faef420bfe791d8c362d765e2270060405160405180910390a350565b600073ffffffffffffffffffffffffffffffffffffffff168273ffffffffffffffffffffffffffffffffffffffff161415611b06576040517f08c379a0000000000000000000000000000000000000000000000000000000008152600401611afd9061273a565b60405180910390fd5b80600260008573ffffffffffffffffffffffffffffffffffffffff1673ffffffffffffffffffffffffffffffffffffffff16815260200190815260200160002060008473ffffffffffffffffffffffffffffffffffffffff1673ffffffffffffffffffffffffffffffffffffffff168152602001908152602001600020819055508173ffffffffffffffffffffffffffffffffffffffff168373ffffffffffffffffffffffffffffffffffffffff167f8c5be1e5ebec7d5bd14f71427d1e84f3dd0314c0f7b2291e5b200ac8c7c3b92583604051611be49190611e53565b60405180910390a3505050565b600081519050919050565b600082825260208201905092915050565b60005b83811015611c2b578082015181840152602081019050611c10565b83811115611c3a576000848401525b50505050565b6000601f19601f8301169050919050565b6000611c5c82611bf1565b611c668185611bfc565b9350611c76818560208601611c0d565b611c7f81611c40565b840191505092915050565b60006020820190508181036000830152611ca48184611c51565b905092915050565b600080fd5b600073ffffffffffffffffffffffffffffffffffffffff82169050919050565b6000611cdc82611cb1565b9050919050565b611cec81611cd1565b8114611cf757600080fd5b50565b600081359050611d0981611ce3565b92915050565b6000819050919050565b611d2281611d0f565b8114611d2d57600080fd5b50565b600081359050611d3f81611d19565b92915050565b60008060408385031215611d5c57611d5b611cac565b5b6000611d6a85828601611cfa565b9250506020611d7b85828601611d30565b9150509250929050565b60008115159050919050565b611d9a81611d85565b82525050565b6000602082019050611db56000830184611d91565b92915050565b6000819050919050565b611dce81611dbb565b8114611dd957600080fd5b50565b600081359050611deb81611dc5565b92915050565b600080600060608486031215611e0a57611e09611cac565b5b6000611e1886828701611cfa565b9350506020611e2986828701611d30565b9250506040611e3a86828701611ddc565b9150509250925092565b611e4d81611d0f565b82525050565b6000602082019050611e686000830184611e44565b92915050565b600080600060608486031215611e8757611e86611cac565b5b6000611e9586828701611cfa565b9350506020611ea686828701611cfa565b9250506040611eb786828701611d30565b9150509250925092565b600060ff82169050919050565b611ed781611ec1565b82525050565b6000602082019050611ef26000830184611ece565b92915050565b600060208284031215611f0e57611f0d611cac565b5b6000611f1c84828501611cfa565b91505092915050565b611f2e81611cd1565b82525050565b6000602082019050611f496000830184611f25565b92915050565b60008060408385031215611f6657611f65611cac565b5b6000611f7485828601611cfa565b9250506020611f8585828601611cfa565b9150509250929050565b7f55534443703a2070617573656400000000000000000000000000000000000000600082015250565b6000611fc5600d83611bfc565b9150611fd082611f8f565b602082019050919050565b60006020820190508181036000830152611ff481611fb8565b9050919050565b7f55534443703a2063616c6c6572206973206e6f74207468652062726964676500600082015250565b6000612031601f83611bfc565b915061203c82611ffb565b602082019050919050565b6000602082019050818103600083015261206081612024565b9050919050565b7f55534443703a20696e73756666696369656e742062616c616e636520746f206260008201527f75726e0000000000000000000000000000000000000000000000000000000000602082015250565b60006120c3602383611bfc565b91506120ce82612067565b604082019050919050565b600060208201905081810360008301526120f2816120b6565b9050919050565b7f55534443703a206275726e20616d6f756e74206d757374206265203e20300000600082015250565b600061212f601e83611bfc565b915061213a826120f9565b602082019050919050565b6000602082019050818103600083015261215e81612122565b9050919050565b7f4e487b7100000000000000000000000000000000000000000000000000000000600052601160045260246000fd5b600061219f82611d0f565b91506121aa83611d0f565b9250828210156121bd576121bc612165565b5b828203905092915050565b7f55534443703a206d696e7420746f207a65726f20616464726573730000000000600082015250565b60006121fe601b83611bfc565b9150612209826121c8565b602082019050919050565b6000602082019050818103600083015261222d816121f1565b9050919050565b7f55534443703a206d696e7420616d6f756e74206d757374206265203e20300000600082015250565b600061226a601e83611bfc565b915061227582612234565b602082019050919050565b600060208201905081810360008301526122998161225d565b9050919050565b60006122ab82611d0f565b91506122b683611d0f565b9250827fffffffffffffffffffffffffffffffffffffffffffffffffffffffffffffffff038211156122eb576122ea612165565b5b828201905092915050565b7f55534443703a207472616e7366657220746f207a65726f206164647265737300600082015250565b600061232c601f83611bfc565b9150612337826122f6565b602082019050919050565b6000602082019050818103600083015261235b8161231f565b9050919050565b7f55534443703a20696e73756666696369656e742062616c616e63650000000000600082015250565b6000612398601b83611bfc565b91506123a382612362565b602082019050919050565b600060208201905081810360008301526123c78161238b565b9050919050565b7f55534443703a20696e73756666696369656e7420616c6c6f77616e6365000000600082015250565b6000612404601d83611bfc565b915061240f826123ce565b602082019050919050565b60006020820190508181036000830152612433816123f7565b9050919050565b7f55534443703a2063616c6c6572206973206e6f7420746865206f776e65720000600082015250565b6000612470601e83611bfc565b915061247b8261243a565b602082019050919050565b6000602082019050818103600083015261249f81612463565b9050919050565b7f55534443703a2063616c6c6572206973206e6f742070656e64696e67206f776e60008201527f6572000000000000000000000000000000000000000000000000000000000000602082015250565b6000612502602283611bfc565b915061250d826124a6565b604082019050919050565b60006020820190508181036000830152612531816124f5565b9050919050565b7f55534443703a206272696467652063616e6e6f74206265207a65726f2061646460008201527f7265737300000000000000000000000000000000000000000000000000000000602082015250565b6000612594602483611bfc565b915061259f82612538565b604082019050919050565b600060208201905081810360008301526125c381612587565b9050919050565b7f55534443703a2064656372656173656420616c6c6f77616e63652062656c6f7760008201527f207a65726f000000000000000000000000000000000000000000000000000000602082015250565b6000612626602583611bfc565b9150612631826125ca565b604082019050919050565b6000602082019050818103600083015261265581612619565b9050919050565b7f55534443703a206e6577206f776e65722063616e6e6f74206265207a65726f2060008201527f6164647265737300000000000000000000000000000000000000000000000000602082015250565b60006126b8602783611bfc565b91506126c38261265c565b604082019050919050565b600060208201905081810360008301526126e7816126ab565b9050919050565b7f55534443703a20617070726f766520746f207a65726f20616464726573730000600082015250565b6000612724601e83611bfc565b915061272f826126ee565b602082019050919050565b6000602082019050818103600083015261275381612717565b905091905056fea2646970667358221220fec42a3ab67ede226f688ba3cf87f1209844b66d890029d89374b96974acf2ba64736f6c634300080a0033",
      "opcodes": "PUSH1 0x80 PUSH1 0x40 MSTORE CALLVALUE DUP1 ISZERO PUSH3 0x11 JUMPI PUSH1 0x0 DUP1 REVERT JUMPDEST POP PUSH1 0x40 MLOAD PUSH3 0x29F2 CODESIZE SUB DUP1 PUSH3 0x29F2 DUP4 CODECOPY DUP2 DUP2 ADD PUSH1 0x40 MSTORE DUP2 ADD SWAP1 PUSH3 0x37 SWAP2 SWAP1 PUSH3 0x19D JUMP JUMPDEST PUSH1 0x0 PUSH20 0xFFFFFFFFFFFFFFFFFFFFFFFFFFFFFFFFFFFFFFFF AND DUP2 PUSH20 0xFFFFFFFFFFFFFFFFFFFFFFFFFFFFFFFFFFFFFFFF AND EQ ISZERO PUSH3 0xAA JUMPI PUSH1 0x40 MLOAD PUSH32 0x8C379A000000000000000000000000000000000000000000000000000000000 DUP2 MSTORE PUSH1 0x4 ADD PUSH3 0xA1 SWAP1 PUSH3 0x230 JUMP JUMPDEST PUSH1 0x40 MLOAD DUP1 SWAP2 SUB SWAP1 REVERT JUMPDEST CALLER PUSH1 0x4 PUSH1 0x0 PUSH2 0x100 EXP DUP2 SLOAD DUP2 PUSH20 0xFFFFFFFFFFFFFFFFFFFFFFFFFFFFFFFFFFFFFFFF MUL NOT AND SWAP1 DUP4 PUSH20 0xFFFFFFFFFFFFFFFFFFFFFFFFFFFFFFFFFFFFFFFF AND MUL OR SWAP1 SSTORE POP DUP1 PUSH1 0x3 PUSH1 0x0 PUSH2 0x100 EXP DUP2 SLOAD DUP2 PUSH20 0xFFFFFFFFFFFFFFFFFFFFFFFFFFFFFFFFFFFFFFFF MUL NOT AND SWAP1 DUP4 PUSH20 0xFFFFFFFFFFFFFFFFFFFFFFFFFFFFFFFFFFFFFFFF AND MUL OR SWAP1 SSTORE POP POP PUSH3 0x252 JUMP JUMPDEST PUSH1 0x0 DUP1 REVERT JUMPDEST PUSH1 0x0 PUSH20 0xFFFFFFFFFFFFFFFFFFFFFFFFFFFFFFFFFFFFFFFF DUP3 AND SWAP1 POP SWAP2 SWAP1 POP JUMP JUMPDEST PUSH1 0x0 PUSH3 0x165 DUP3 PUSH3 0x138 JUMP JUMPDEST SWAP1 POP SWAP2 SWAP1 POP JUMP JUMPDEST PUSH3 0x177 DUP2 PUSH3 0x158 JUMP JUMPDEST DUP2 EQ PUSH3 0x183 JUMPI PUSH1 0x0 DUP1 REVERT JUMPDEST POP JUMP JUMPDEST PUSH1 0x0 DUP2 MLOAD SWAP1 POP PUSH3 0x197 DUP2 PUSH3 0x16C JUMP JUMPDEST SWAP3 SWAP2 POP POP JUMP JUMPDEST PUSH1 0x0 PUSH1 0x20 DUP3 DUP5 SUB SLT ISZERO PUSH3 0x1B6 JUMPI PUSH3 0x1B5 PUSH3 0x133 JUMP JUMPDEST JUMPDEST PUSH1 0x0 PUSH3 0x1C6 DUP5 DUP3 DUP6 ADD PUSH3 0x186 JUMP JUMPDEST SWAP2 POP POP SWAP3 SWAP2 POP POP JUMP JUMPDEST PUSH1 0x0 DUP3 DUP3 MSTORE PUSH1 0x20 DUP3 ADD SWAP1 POP SWAP3 SWAP2 POP POP JUMP JUMPDEST PUSH32 0x55534443703A206272696467652063616E6E6F74206265207A65726F00000000 PUSH1 0x0 DUP3 ADD MSTORE POP JUMP JUMPDEST PUSH1 0x0 PUSH3 0x218 PUSH1 0x1C DUP4 PUSH3 0x1CF JUMP JUMPDEST SWAP2 POP PUSH3 0x225 DUP3 PUSH3 0x1E0 JUMP JUMPDEST PUSH1 0x20 DUP3 ADD SWAP1 POP SWAP2 SWAP1 POP JUMP JUMPDEST PUSH1 0x0 PUSH1 0x20 DUP3 ADD SWAP1 POP DUP2 DUP2 SUB PUSH1 0x0 DUP4 ADD MSTORE PUSH3 0x24B DUP2 PUSH3 0x209 JUMP JUMPDEST SWAP1 POP SWAP2 SWAP1 POP JUMP JUMPDEST PUSH2 0x2790 DUP1 PUSH3 0x262 PUSH1 0x0 CODECOPY PUSH1 0x0 RETURN INVALID PUSH1 0x80 PUSH1 0x40 MSTORE CALLVALUE DUP1 ISZERO PUSH2 0x10 JUMPI PUSH1 0x0 DUP1 REVERT JUMPDEST POP PUSH1 0x4 CALLDATASIZE LT PUSH2 0x142 JUMPI PUSH1 0x0 CALLDATALOAD PUSH1 0xE0 SHR DUP1 PUSH4 0x79BA5097 GT PUSH2 0xB8 JUMPI DUP1 PUSH4 0xA457C2D7 GT PUSH2 0x7C JUMPI DUP1 PUSH4 0xA457C2D7 EQ PUSH2 0x32D JUMPI DUP1 PUSH4 0xA9059CBB EQ PUSH2 0x35D JUMPI DUP1 PUSH4 0xDD62ED3E EQ PUSH2 0x38D JUMPI DUP1 PUSH4 0xE30C3978 EQ PUSH2 0x3BD JUMPI DUP1 PUSH4 0xE78CEA92 EQ PUSH2 0x3DB JUMPI DUP1 PUSH4 0xF2FDE38B EQ PUSH2 0x3F9 JUMPI PUSH2 0x142 JUMP JUMPDEST DUP1 PUSH4 0x79BA5097 EQ PUSH2 0x2C1 JUMPI DUP1 PUSH4 0x8456CB59 EQ PUSH2 0x2CB JUMPI DUP1 PUSH4 0x8DA5CB5B EQ PUSH2 0x2D5 JUMPI DUP1 PUSH4 0x8DD14802 EQ PUSH2 0x2F3 JUMPI DUP1 PUSH4 0x95D89B41 EQ PUSH2 0x30F JUMPI PUSH2 0x142 JUMP JUMPDEST DUP1 PUSH4 0x23B872DD GT PUSH2 0x10A JUMPI DUP1 PUSH4 0x23B872DD EQ PUSH2 0x1EB JUMPI DUP1 PUSH4 0x313CE567 EQ PUSH2 0x21B JUMPI DUP1 PUSH4 0x39509351 EQ PUSH2 0x239 JUMPI DUP1 PUSH4 0x3F4BA83A EQ PUSH2 0x269 JUMPI DUP1 PUSH4 0x5C975ABB EQ PUSH2 0x273 JUMPI DUP1 PUSH4 0x70A08231 EQ PUSH2 0x291 JUMPI PUSH2 0x142 JUMP JUMPDEST DUP1 PUSH4 0x6FDDE03 EQ PUSH2 0x147 JUMPI DUP1 PUSH4 0x95EA7B3 EQ PUSH2 0x165 JUMPI DUP1 PUSH4 0x158A1CC3 EQ PUSH2 0x195 JUMPI DUP1 PUSH4 0x18160DDD EQ PUSH2 0x1B1 JUMPI DUP1 PUSH4 0x1E458BEE EQ PUSH2 0x1CF JUMPI JUMPDEST PUSH1 0x0 DUP1 REVERT JUMPDEST PUSH2 0x14F PUSH2 0x415 JUMP JUMPDEST PUSH1 0x40 MLOAD PUSH2 0x15C SWAP2 SWAP1 PUSH2 0x1C8A JUMP JUMPDEST PUSH1 0x40 MLOAD DUP1 SWAP2 SUB SWAP1 RETURN JUMPDEST PUSH2 0x17F PUSH1 0x4 DUP1 CALLDATASIZE SUB DUP2 ADD SWAP1 PUSH2 0x17A SWAP2 SWAP1 PUSH2 0x1D45 JUMP JUMPDEST PUSH2 0x44E JUMP JUMPDEST PUSH1 0x40 MLOAD PUSH2 0x18C SWAP2 SWAP1 PUSH2 0x1DA0 JUMP JUMPDEST PUSH1 0x40 MLOAD DUP1 SWAP2 SUB SWAP1 RETURN JUMPDEST PUSH2 0x1AF PUSH1 0x4 DUP1 CALLDATASIZE SUB DUP2 ADD SWAP1 PUSH2 0x1AA SWAP2 SWAP1 PUSH2 0x1DF1 JUMP JUMPDEST PUSH2 0x4B5 JUMP JUMPDEST STOP JUMPDEST PUSH2 0x1B9 PUSH2 0x782 JUMP JUMPDEST PUSH1 0x40 MLOAD PUSH2 0x1C6 SWAP2 SWAP1 PUSH2 0x1E53 JUMP JUMPDEST PUSH1 0x40 MLOAD DUP1 SWAP2 SUB SWAP1 RETURN JUMPDEST PUSH2 0x1E9 PUSH1 0x4 DUP1 CALLDATASIZE SUB DUP2 ADD SWAP1 PUSH2 0x1E4 SWAP2 SWAP1 PUSH2 0x1DF1 JUMP JUMPDEST PUSH2 0x788 JUMP JUMPDEST STOP JUMPDEST PUSH2 0x205 PUSH1 0x4 DUP1 CALLDATASIZE SUB DUP2 ADD SWAP1 PUSH2 0x200 SWAP2 SWAP1 PUSH2 0x1E6E JUMP JUMPDEST PUSH2 0xA43 JUMP JUMPDEST PUSH1 0x40 MLOAD PUSH2 0x212 SWAP2 SWAP1 PUSH2 0x1DA0 JUMP JUMPDEST PUSH1 0x40 MLOAD DUP1 SWAP2 SUB SWAP1 RETURN JUMPDEST PUSH2 0x223 PUSH2 0xDF5 JUMP JUMPDEST PUSH1 0x40 MLOAD PUSH2 0x230 SWAP2 SWAP1 PUSH2 0x1EDD JUMP JUMPDEST PUSH1 0x40 MLOAD DUP1 SWAP2 SUB SWAP1 RETURN JUMPDEST PUSH2 0x253 PUSH1 0x4 DUP1 CALLDATASIZE SUB DUP2 ADD SWAP1 PUSH2 0x24E SWAP2 SWAP1 PUSH2 0x1D45 JUMP JUMPDEST PUSH2 0xDFA JUMP JUMPDEST PUSH1 0x40 MLOAD PUSH2 0x260 SWAP2 SWAP1 PUSH2 0x1DA0 JUMP JUMPDEST PUSH1 0x40 MLOAD DUP1 SWAP2 SUB SWAP1 RETURN JUMPDEST PUSH2 0x271 PUSH2 0xEE8 JUMP JUMPDEST STOP JUMPDEST PUSH2 0x27B PUSH2 0xFCC JUMP JUMPDEST PUSH1 0x40 MLOAD PUSH2 0x288 SWAP2 SWAP1 PUSH2 0x1DA0 JUMP JUMPDEST PUSH1 0x40 MLOAD DUP1 SWAP2 SUB SWAP1 RETURN JUMPDEST PUSH2 0x2AB PUSH1 0x4 DUP1 CALLDATASIZE SUB DUP2 ADD SWAP1 PUSH2 0x2A6 SWAP2 SWAP1 PUSH2 0x1EF8 JUMP JUMPDEST PUSH2 0xFDF JUMP JUMPDEST PUSH1 0x40 MLOAD PUSH2 0x2B8 SWAP2 SWAP1 PUSH2 0x1E53 JUMP JUMPDEST PUSH1 0x40 MLOAD DUP1 SWAP2 SUB SWAP1 RETURN JUMPDEST PUSH2 0x2C9 PUSH2 0xFF7 JUMP JUMPDEST STOP JUMPDEST PUSH2 0x2D3 PUSH2 0x11CC JUMP JUMPDEST STOP JUMPDEST PUSH2 0x2DD PUSH2 0x12B0 JUMP JUMPDEST PUSH1 0x40 MLOAD PUSH2 0x2EA SWAP2 SWAP1 PUSH2 0x1F34 JUMP JUMPDEST PUSH1 0x40 MLOAD DUP1 SWAP2 SUB SWAP1 RETURN JUMPDEST PUSH2 0x30D PUSH1 0x4 DUP1 CALLDATASIZE SUB DUP2 ADD SWAP1 PUSH2 0x308 SWAP2 SWAP1 PUSH2 0x1EF8 JUMP JUMPDEST PUSH2 0x12D6 JUMP JUMPDEST STOP JUMPDEST PUSH2 0x317 PUSH2 0x1496 JUMP JUMPDEST PUSH1 0x40 MLOAD PUSH2 0x324 SWAP2 SWAP1 PUSH2 0x1C8A JUMP JUMPDEST PUSH1 0x40 MLOAD DUP1 SWAP2 SUB SWAP1 RETURN JUMPDEST PUSH2 0x347 PUSH1 0x4 DUP1 CALLDATASIZE SUB DUP2 ADD SWAP1 PUSH2 0x342 SWAP2 SWAP1 PUSH2 0x1D45 JUMP JUMPDEST PUSH2 0x14CF JUMP JUMPDEST PUSH1 0x40 MLOAD PUSH2 0x354 SWAP2 SWAP1 PUSH2 0x1DA0 JUMP JUMPDEST PUSH1 0x40 MLOAD DUP1 SWAP2 SUB SWAP1 RETURN JUMPDEST PUSH2 0x377 PUSH1 0x4 DUP1 CALLDATASIZE SUB DUP2 ADD SWAP1 PUSH2 0x372 SWAP2 SWAP1 PUSH2 0x1D45 JUMP JUMPDEST PUSH2 0x1606 JUMP JUMPDEST PUSH1 0x40 MLOAD PUSH2 0x384 SWAP2 SWAP1 PUSH2 0x1DA0 JUMP JUMPDEST PUSH1 0x40 MLOAD DUP1 SWAP2 SUB SWAP1 RETURN JUMPDEST PUSH2 0x3A7 PUSH1 0x4 DUP1 CALLDATASIZE SUB DUP2 ADD SWAP1 PUSH2 0x3A2 SWAP2 SWAP1 PUSH2 0x1F4F JUMP JUMPDEST PUSH2 0x1865 JUMP JUMPDEST PUSH1 0x40 MLOAD PUSH2 0x3B4 SWAP2 SWAP1 PUSH2 0x1E53 JUMP JUMPDEST PUSH1 0x40 MLOAD DUP1 SWAP2 SUB SWAP1 RETURN JUMPDEST PUSH2 0x3C5 PUSH2 0x188A JUMP JUMPDEST PUSH1 0x40 MLOAD PUSH2 0x3D2 SWAP2 SWAP1 PUSH2 0x1F34 JUMP JUMPDEST PUSH1 0x40 MLOAD DUP1 SWAP2 SUB SWAP1 RETURN JUMPDEST PUSH2 0x3E3 PUSH2 0x18B0 JUMP JUMPDEST PUSH1 0x40 MLOAD PUSH2 0x3F0 SWAP2 SWAP1 PUSH2 0x1F34 JUMP JUMPDEST PUSH1 0x40 MLOAD DUP1 SWAP2 SUB SWAP1 RETURN JUMPDEST PUSH2 0x413 PUSH1 0x4 DUP1 CALLDATASIZE SUB DUP2 ADD SWAP1 PUSH2 0x40E SWAP2 SWAP1 PUSH2 0x1EF8 JUMP JUMPDEST PUSH2 0x18D6 JUMP JUMPDEST STOP JUMPDEST PUSH1 0x40 MLOAD DUP1 PUSH1 0x40 ADD PUSH1 0x40 MSTORE DUP1 PUSH1 0x16 DUP2 MSTORE PUSH1 0x20 ADD PUSH32 0x4272696467656420555344432028507269766174652900000000000000000000 DUP2 MSTORE POP DUP2 JUMP JUMPDEST PUSH1 0x0 PUSH1 0x5 PUSH1 0x14 SWAP1 SLOAD SWAP1 PUSH2 0x100 EXP SWAP1 DIV PUSH1 0xFF AND ISZERO PUSH2 0x4A0 JUMPI PUSH1 0x40 MLOAD PUSH32 0x8C379A000000000000000000000000000000000000000000000000000000000 DUP2 MSTORE PUSH1 0x4 ADD PUSH2 0x497 SWAP1 PUSH2 0x1FDB JUMP JUMPDEST PUSH1 0x40 MLOAD DUP1 SWAP2 SUB SWAP1 REVERT JUMPDEST PUSH2 0x4AB CALLER DUP5 DUP5 PUSH2 0x1A96 JUMP JUMPDEST PUSH1 0x1 SWAP1 POP SWAP3 SWAP2 POP POP JUMP JUMPDEST PUSH1 0x3 PUSH1 0x0 SWAP1 SLOAD SWAP1 PUSH2 0x100 EXP SWAP1 DIV PUSH20 0xFFFFFFFFFFFFFFFFFFFFFFFFFFFFFFFFFFFFFFFF AND PUSH20 0xFFFFFFFFFFFFFFFFFFFFFFFFFFFFFFFFFFFFFFFF AND CALLER PUSH20 0xFFFFFFFFFFFFFFFFFFFFFFFFFFFFFFFFFFFFFFFF AND EQ PUSH2 0x545 JUMPI PUSH1 0x40 MLOAD PUSH32 0x8C379A000000000000000000000000000000000000000000000000000000000 DUP2 MSTORE PUSH1 0x4 ADD PUSH2 0x53C SWAP1 PUSH2 0x2047 JUMP JUMPDEST PUSH1 0x40 MLOAD DUP1 SWAP2 SUB SWAP1 REVERT JUMPDEST PUSH1 0x5 PUSH1 0x14 SWAP1 SLOAD SWAP1 PUSH2 0x100 EXP SWAP1 DIV PUSH1 0xFF AND ISZERO PUSH2 0x595 JUMPI PUSH1 0x40 MLOAD PUSH32 0x8C379A000000000000000000000000000000000000000000000000000000000 DUP2 MSTORE PUSH1 0x4 ADD PUSH2 0x58C SWAP1 PUSH2 0x1FDB JUMP JUMPDEST PUSH1 0x40 MLOAD DUP1 SWAP2 SUB SWAP1 REVERT JUMPDEST DUP2 PUSH1 0x1 PUSH1 0x0 DUP6 PUSH20 0xFFFFFFFFFFFFFFFFFFFFFFFFFFFFFFFFFFFFFFFF AND PUSH20 0xFFFFFFFFFFFFFFFFFFFFFFFFFFFFFFFFFFFFFFFF AND DUP2 MSTORE PUSH1 0x20 ADD SWAP1 DUP2 MSTORE PUSH1 0x20 ADD PUSH1 0x0 KECCAK256 SLOAD LT ISZERO PUSH2 0x617 JUMPI PUSH1 0x40 MLOAD PUSH32 0x8C379A000000000000000000000000000000000000000000000000000000000 DUP2 MSTORE PUSH1 0x4 ADD PUSH2 0x60E SWAP1 PUSH2 0x20D9 JUMP JUMPDEST PUSH1 0x40 MLOAD DUP1 SWAP2 SUB SWAP1 REVERT JUMPDEST PUSH1 0x0 DUP3 GT PUSH2 0x65A JUMPI PUSH1 0x40 MLOAD PUSH32 0x8C379A000000000000000000000000000000000000000000000000000000000 DUP2 MSTORE PUSH1 0x4 ADD PUSH2 0x651 SWAP1 PUSH2 0x2145 JUMP JUMPDEST PUSH1 0x40 MLOAD DUP1 SWAP2 SUB SWAP1 REVERT JUMPDEST DUP2 PUSH1 0x1 PUSH1 0x0 DUP6 PUSH20 0xFFFFFFFFFFFFFFFFFFFFFFFFFFFFFFFFFFFFFFFF AND PUSH20 0xFFFFFFFFFFFFFFFFFFFFFFFFFFFFFFFFFFFFFFFF AND DUP2 MSTORE PUSH1 0x20 ADD SWAP1 DUP2 MSTORE PUSH1 0x20 ADD PUSH1 0x0 KECCAK256 PUSH1 0x0 DUP3 DUP3 SLOAD PUSH2 0x6A9 SWAP2 SWAP1 PUSH2 0x2194 JUMP JUMPDEST SWAP3 POP POP DUP2 SWAP1 SSTORE POP DUP2 PUSH1 0x0 DUP1 DUP3 DUP3 SLOAD PUSH2 0x6C1 SWAP2 SWAP1 PUSH2 0x2194 JUMP JUMPDEST SWAP3 POP POP DUP2 SWAP1 SSTORE POP PUSH1 0x0 PUSH20 0xFFFFFFFFFFFFFFFFFFFFFFFFFFFFFFFFFFFFFFFF AND DUP4 PUSH20 0xFFFFFFFFFFFFFFFFFFFFFFFFFFFFFFFFFFFFFFFF AND PUSH32 0xDDF252AD1BE2C89B69C2B068FC378DAA952BA7F163C4A11628F55A4DF523B3EF DUP5 PUSH1 0x40 MLOAD PUSH2 0x726 SWAP2 SWAP1 PUSH2 0x1E53 JUMP JUMPDEST PUSH1 0x40 MLOAD DUP1 SWAP2 SUB SWAP1 LOG3 DUP1 DUP4 PUSH20 0xFFFFFFFFFFFFFFFFFFFFFFFFFFFFFFFFFFFFFFFF AND PUSH32 0xC6C4132F6250531F66C30D176444D900432E0FF7BB9E3E4EF8C8B33670218419 DUP5 PUSH1 0x40 MLOAD PUSH2 0x775 SWAP2 SWAP1 PUSH2 0x1E53 JUMP JUMPDEST PUSH1 0x40 MLOAD DUP1 SWAP2 SUB SWAP1 LOG3 POP POP POP JUMP JUMPDEST PUSH1 0x0 SLOAD DUP2 JUMP JUMPDEST PUSH1 0x3 PUSH1 0x0 SWAP1 SLOAD SWAP1 PUSH2 0x100 EXP SWAP1 DIV PUSH20 0xFFFFFFFFFFFFFFFFFFFFFFFFFFFFFFFFFFFFFFFF AND PUSH20 0xFFFFFFFFFFFFFFFFFFFFFFFFFFFFFFFFFFFFFFFF AND CALLER PUSH20 0xFFFFFFFFFFFFFFFFFFFFFFFFFFFFFFFFFFFFFFFF AND EQ PUSH2 0x818 JUMPI PUSH1 0x40 MLOAD PUSH32 0x8C379A000000000000000000000000000000000000000000000000000000000 DUP2 MSTORE PUSH1 0x4 ADD PUSH2 0x80F SWAP1 PUSH2 0x2047 JUMP JUMPDEST PUSH1 0x40 MLOAD DUP1 SWAP2 SUB SWAP1 REVERT JUMPDEST PUSH1 0x5 PUSH1 0x14 SWAP1 SLOAD SWAP1 PUSH2 0x100 EXP SWAP1 DIV PUSH1 0xFF AND ISZERO PUSH2 0x868 JUMPI PUSH1 0x40 MLOAD PUSH32 0x8C379A000000000000000000000000000000000000000000000000000000000 DUP2 MSTORE PUSH1 0x4 ADD PUSH2 0x85F SWAP1 PUSH2 0x1FDB JUMP JUMPDEST PUSH1 0x40 MLOAD DUP1 SWAP2 SUB SWAP1 REVERT JUMPDEST PUSH1 0x0 PUSH20 0xFFFFFFFFFFFFFFFFFFFFFFFFFFFFFFFFFFFFFFFF AND DUP4 PUSH20 0xFFFFFFFFFFFFFFFFFFFFFFFFFFFFFFFFFFFFFFFF AND EQ ISZERO PUSH2 0x8D8 JUMPI PUSH1 0x40 MLOAD PUSH32 0x8C379A000000000000000000000000000000000000000000000000000000000 DUP2 MSTORE PUSH1 0x4 ADD PUSH2 0x8CF SWAP1 PUSH2 0x2214 JUMP JUMPDEST PUSH1 0x40 MLOAD DUP1 SWAP2 SUB SWAP1 REVERT JUMPDEST PUSH1 0x0 DUP3 GT PUSH2 0x91B JUMPI PUSH1 0x40 MLOAD PUSH32 0x8C379A000000000000000000000000000000000000000000000000000000000 DUP2 MSTORE PUSH1 0x4 ADD PUSH2 0x912 SWAP1 PUSH2 0x2280 JUMP JUMPDEST PUSH1 0x40 MLOAD DUP1 SWAP2 SUB SWAP1 REVERT JUMPDEST DUP2 PUSH1 0x0 DUP1 DUP3 DUP3 SLOAD PUSH2 0x92C SWAP2 SWAP1 PUSH2 0x22A0 JUMP JUMPDEST SWAP3 POP POP DUP2 SWAP1 SSTORE POP DUP2 PUSH1 0x1 PUSH1 0x0 DUP6 PUSH20 0xFFFFFFFFFFFFFFFFFFFFFFFFFFFFFFFFFFFFFFFF AND PUSH20 0xFFFFFFFFFFFFFFFFFFFFFFFFFFFFFFFFFFFFFFFF AND DUP2 MSTORE PUSH1 0x20 ADD SWAP1 DUP2 MSTORE PUSH1 0x20 ADD PUSH1 0x0 KECCAK256 PUSH1 0x0 DUP3 DUP3 SLOAD PUSH2 0x982 SWAP2 SWAP1 PUSH2 0x22A0 JUMP JUMPDEST SWAP3 POP POP DUP2 SWAP1 SSTORE POP DUP3 PUSH20 0xFFFFFFFFFFFFFFFFFFFFFFFFFFFFFFFFFFFFFFFF AND PUSH1 0x0 PUSH20 0xFFFFFFFFFFFFFFFFFFFFFFFFFFFFFFFFFFFFFFFF AND PUSH32 0xDDF252AD1BE2C89B69C2B068FC378DAA952BA7F163C4A11628F55A4DF523B3EF DUP5 PUSH1 0x40 MLOAD PUSH2 0x9E7 SWAP2 SWAP1 PUSH2 0x1E53 JUMP JUMPDEST PUSH1 0x40 MLOAD DUP1 SWAP2 SUB SWAP1 LOG3 DUP1 DUP4 PUSH20 0xFFFFFFFFFFFFFFFFFFFFFFFFFFFFFFFFFFFFFFFF AND PUSH32 0x3DEC94B8ABC8F801EAADE1616D3AADD3114B556A284267905E0A053B2DF39892 DUP5 PUSH1 0x40 MLOAD PUSH2 0xA36 SWAP2 SWAP1 PUSH2 0x1E53 JUMP JUMPDEST PUSH1 0x40 MLOAD DUP1 SWAP2 SUB SWAP1 LOG3 POP POP POP JUMP JUMPDEST PUSH1 0x0 PUSH1 0x5 PUSH1 0x14 SWAP1 SLOAD SWAP1 PUSH2 0x100 EXP SWAP1 DIV PUSH1 0xFF AND ISZERO PUSH2 0xA95 JUMPI PUSH1 0x40 MLOAD PUSH32 0x8C379A000000000000000000000000000000000000000000000000000000000 DUP2 MSTORE PUSH1 0x4 ADD PUSH2 0xA8C SWAP1 PUSH2 0x1FDB JUMP JUMPDEST PUSH1 0x40 MLOAD DUP1 SWAP2 SUB SWAP1 REVERT JUMPDEST PUSH1 0x0 PUSH20 0xFFFFFFFFFFFFFFFFFFFFFFFFFFFFFFFFFFFFFFFF AND DUP4 PUSH20 0xFFFFFFFFFFFFFFFFFFFFFFFFFFFFFFFFFFFFFFFF AND EQ ISZERO PUSH2 0xB05 JUMPI PUSH1 0x40 MLOAD PUSH32 0x8C379A000000000000000000000000000000000000000000000000000000000 DUP2 MSTORE PUSH1 0x4 ADD PUSH2 0xAFC SWAP1 PUSH2 0x2342 JUMP JUMPDEST PUSH1 0x40 MLOAD DUP1 SWAP2 SUB SWAP1 REVERT JUMPDEST DUP2 PUSH1 0x1 PUSH1 0x0 DUP7 PUSH20 0xFFFFFFFFFFFFFFFFFFFFFFFFFFFFFFFFFFFFFFFF AND PUSH20 0xFFFFFFFFFFFFFFFFFFFFFFFFFFFFFFFFFFFFFFFF AND DUP2 MSTORE PUSH1 0x20 ADD SWAP1 DUP2 MSTORE PUSH1 0x20 ADD PUSH1 0x0 KECCAK256 SLOAD LT ISZERO PUSH2 0xB87 JUMPI PUSH1 0x40 MLOAD PUSH32 0x8C379A000000000000000000000000000000000000000000000000000000000 DUP2 MSTORE PUSH1 0x4 ADD PUSH2 0xB7E SWAP1 PUSH2 0x23AE JUMP JUMPDEST PUSH1 0x40 MLOAD DUP1 SWAP2 SUB SWAP1 REVERT JUMPDEST DUP2 PUSH1 0x2 PUSH1 0x0 DUP7 PUSH20 0xFFFFFFFFFFFFFFFFFFFFFFFFFFFFFFFFFFFFFFFF AND PUSH20 0xFFFFFFFFFFFFFFFFFFFFFFFFFFFFFFFFFFFFFFFF AND DUP2 MSTORE PUSH1 0x20 ADD SWAP1 DUP2 MSTORE PUSH1 0x20 ADD PUSH1 0x0 KECCAK256 PUSH1 0x0 CALLER PUSH20 0xFFFFFFFFFFFFFFFFFFFFFFFFFFFFFFFFFFFFFFFF AND PUSH20 0xFFFFFFFFFFFFFFFFFFFFFFFFFFFFFFFFFFFFFFFF AND DUP2 MSTORE PUSH1 0x20 ADD SWAP1 DUP2 MSTORE PUSH1 0x20 ADD PUSH1 0x0 KECCAK256 SLOAD LT ISZERO PUSH2 0xC46 JUMPI PUSH1 0x40 MLOAD PUSH32 0x8C379A000000000000000000000000000000000000000000000000000000000 DUP2 MSTORE PUSH1 0x4 ADD PUSH2 0xC3D SWAP1 PUSH2 0x241A JUMP JUMPDEST PUSH1 0x40 MLOAD DUP1 SWAP2 SUB SWAP1 REVERT JUMPDEST DUP2 PUSH1 0x2 PUSH1 0x0 DUP7 PUSH20 0xFFFFFFFFFFFFFFFFFFFFFFFFFFFFFFFFFFFFFFFF AND PUSH20 0xFFFFFFFFFFFFFFFFFFFFFFFFFFFFFFFFFFFFFFFF AND DUP2 MSTORE PUSH1 0x20 ADD SWAP1 DUP2 MSTORE PUSH1 0x20 ADD PUSH1 0x0 KECCAK256 PUSH1 0x0 CALLER PUSH20 0xFFFFFFFFFFFFFFFFFFFFFFFFFFFFFFFFFFFFFFFF AND PUSH20 0xFFFFFFFFFFFFFFFFFFFFFFFFFFFFFFFFFFFFFFFF AND DUP2 MSTORE PUSH1 0x20 ADD SWAP1 DUP2 MSTORE PUSH1 0x20 ADD PUSH1 0x0 KECCAK256 PUSH1 0x0 DUP3 DUP3 SLOAD PUSH2 0xCD2 SWAP2 SWAP1 PUSH2 0x2194 JUMP JUMPDEST SWAP3 POP POP DUP2 SWAP1 SSTORE POP DUP2 PUSH1 0x1 PUSH1 0x0 DUP7 PUSH20 0xFFFFFFFFFFFFFFFFFFFFFFFFFFFFFFFFFFFFFFFF AND PUSH20 0xFFFFFFFFFFFFFFFFFFFFFFFFFFFFFFFFFFFFFFFF AND DUP2 MSTORE PUSH1 0x20 ADD SWAP1 DUP2 MSTORE PUSH1 0x20 ADD PUSH1 0x0 KECCAK256 PUSH1 0x0 DUP3 DUP3 SLOAD PUSH2 0xD28 SWAP2 SWAP1 PUSH2 0x2194 JUMP JUMPDEST SWAP3 POP POP DUP2 SWAP1 SSTORE POP DUP2 PUSH1 0x1 PUSH1 0x0 DUP6 PUSH20 0xFFFFFFFFFFFFFFFFFFFFFFFFFFFFFFFFFFFFFFFF AND PUSH20 0xFFFFFFFFFFFFFFFFFFFFFFFFFFFFFFFFFFFFFFFF AND DUP2 MSTORE PUSH1 0x20 ADD SWAP1 DUP2 MSTORE PUSH1 0x20 ADD PUSH1 0x0 KECCAK256 PUSH1 0x0 DUP3 DUP3 SLOAD PUSH2 0xD7E SWAP2 SWAP1 PUSH2 0x22A0 JUMP JUMPDEST SWAP3 POP POP DUP2 SWAP1 SSTORE POP DUP3 PUSH20 0xFFFFFFFFFFFFFFFFFFFFFFFFFFFFFFFFFFFFFFFF AND DUP5 PUSH20 0xFFFFFFFFFFFFFFFFFFFFFFFFFFFFFFFFFFFFFFFF AND PUSH32 0xDDF252AD1BE2C89B69C2B068FC378DAA952BA7F163C4A11628F55A4DF523B3EF DUP5 PUSH1 0x40 MLOAD PUSH2 0xDE2 SWAP2 SWAP1 PUSH2 0x1E53 JUMP JUMPDEST PUSH1 0x40 MLOAD DUP1 SWAP2 SUB SWAP1 LOG3 PUSH1 0x1 SWAP1 POP SWAP4 SWAP3 POP POP POP JUMP JUMPDEST PUSH1 0x6 DUP2 JUMP JUMPDEST PUSH1 0x0 PUSH1 0x5 PUSH1 0x14 SWAP1 SLOAD SWAP1 PUSH2 0x100 EXP SWAP1 DIV PUSH1 0xFF AND ISZERO PUSH2 0xE4C JUMPI PUSH1 0x40 MLOAD PUSH32 0x8C379A000000000000000000000000000000000000000000000000000000000 DUP2 MSTORE PUSH1 0x4 ADD PUSH2 0xE43 SWAP1 PUSH2 0x1FDB JUMP JUMPDEST PUSH1 0x40 MLOAD DUP1 SWAP2 SUB SWAP1 REVERT JUMPDEST PUSH2 0xEDE CALLER DUP5 DUP5 PUSH1 0x2 PUSH1 0x0 CALLER PUSH20 0xFFFFFFFFFFFFFFFFFFFFFFFFFFFFFFFFFFFFFFFF AND PUSH20 0xFFFFFFFFFFFFFFFFFFFFFFFFFFFFFFFFFFFFFFFF AND DUP2 MSTORE PUSH1 0x20 ADD SWAP1 DUP2 MSTORE PUSH1 0x20 ADD PUSH1 0x0 KECCAK256 PUSH1 0x0 DUP9 PUSH20 0xFFFFFFFFFFFFFFFFFFFFFFFFFFFFFFFFFFFFFFFF AND PUSH20 0xFFFFFFFFFFFFFFFFFFFFFFFFFFFFFFFFFFFFFFFF AND DUP2 MSTORE PUSH1 0x20 ADD SWAP1 DUP2 MSTORE PUSH1 0x20 ADD PUSH1 0x0 KECCAK256 SLOAD PUSH2 0xED9 SWAP2 SWAP1 PUSH2 0x22A0 JUMP JUMPDEST PUSH2 0x1A96 JUMP JUMPDEST PUSH1 0x1 SWAP1 POP SWAP3 SWAP2 POP POP JUMP JUMPDEST PUSH1 0x4 PUSH1 0x0 SWAP1 SLOAD SWAP1 PUSH2 0x100 EXP SWAP1 DIV PUSH20 0xFFFFFFFFFFFFFFFFFFFFFFFFFFFFFFFFFFFFFFFF AND PUSH20 0xFFFFFFFFFFFFFFFFFFFFFFFFFFFFFFFFFFFFFFFF AND CALLER PUSH20 0xFFFFFFFFFFFFFFFFFFFFFFFFFFFFFFFFFFFFFFFF AND EQ PUSH2 0xF78 JUMPI PUSH1 0x40 MLOAD PUSH32 0x8C379A000000000000000000000000000000000000000000000000000000000 DUP2 MSTORE PUSH1 0x4 ADD PUSH2 0xF6F SWAP1 PUSH2 0x2486 JUMP JUMPDEST PUSH1 0x40 MLOAD DUP1 SWAP2 SUB SWAP1 REVERT JUMPDEST PUSH1 0x0 PUSH1 0x5 PUSH1 0x14 PUSH2 0x100 EXP DUP2 SLOAD DUP2 PUSH1 0xFF MUL NOT AND SWAP1 DUP4 ISZERO ISZERO MUL OR SWAP1 SSTORE POP PUSH32 0x5DB9EE0A495BF2E6FF9C91A7834C1BA4FDD244A5E8AA4E537BD38AEAE4B073AA CALLER PUSH1 0x40 MLOAD PUSH2 0xFC2 SWAP2 SWAP1 PUSH2 0x1F34 JUMP JUMPDEST PUSH1 0x40 MLOAD DUP1 SWAP2 SUB SWAP1 LOG1 JUMP JUMPDEST PUSH1 0x5 PUSH1 0x14 SWAP1 SLOAD SWAP1 PUSH2 0x100 EXP SWAP1 DIV PUSH1 0xFF AND DUP2 JUMP JUMPDEST PUSH1 0x1 PUSH1 0x20 MSTORE DUP1 PUSH1 0x0 MSTORE PUSH1 0x40 PUSH1 0x0 KECCAK256 PUSH1 0x0 SWAP2 POP SWAP1 POP SLOAD DUP2 JUMP JUMPDEST PUSH1 0x5 PUSH1 0x0 SWAP1 SLOAD SWAP1 PUSH2 0x100 EXP SWAP1 DIV PUSH20 0xFFFFFFFFFFFFFFFFFFFFFFFFFFFFFFFFFFFFFFFF AND PUSH20 0xFFFFFFFFFFFFFFFFFFFFFFFFFFFFFFFFFFFFFFFF AND CALLER PUSH20 0xFFFFFFFFFFFFFFFFFFFFFFFFFFFFFFFFFFFFFFFF AND EQ PUSH2 0x1087 JUMPI PUSH1 0x40 MLOAD PUSH32 0x8C379A000000000000000000000000000000000000000000000000000000000 DUP2 MSTORE PUSH1 0x4 ADD PUSH2 0x107E SWAP1 PUSH2 0x2518 JUMP JUMPDEST PUSH1 0x40 MLOAD DUP1 SWAP2 SUB SWAP1 REVERT JUMPDEST PUSH1 0x5 PUSH1 0x0 SWAP1 SLOAD SWAP1 PUSH2 0x100 EXP SWAP1 DIV PUSH20 0xFFFFFFFFFFFFFFFFFFFFFFFFFFFFFFFFFFFFFFFF AND PUSH20 0xFFFFFFFFFFFFFFFFFFFFFFFFFFFFFFFFFFFFFFFF AND PUSH1 0x4 PUSH1 0x0 SWAP1 SLOAD SWAP1 PUSH2 0x100 EXP SWAP1 DIV PUSH20 0xFFFFFFFFFFFFFFFFFFFFFFFFFFFFFFFFFFFFFFFF AND PUSH20 0xFFFFFFFFFFFFFFFFFFFFFFFFFFFFFFFFFFFFFFFF AND PUSH32 0x8BE0079C531659141344CD1FD0A4F28419497F9722A3DAAFE3B4186F6B6457E0 PUSH1 0x40 MLOAD PUSH1 0x40 MLOAD DUP1 SWAP2 SUB SWAP1 LOG3 PUSH1 0x5 PUSH1 0x0 SWAP1 SLOAD SWAP1 PUSH2 0x100 EXP SWAP1 DIV PUSH20 0xFFFFFFFFFFFFFFFFFFFFFFFFFFFFFFFFFFFFFFFF AND PUSH1 0x4 PUSH1 0x0 PUSH2 0x100 EXP DUP2 SLOAD DUP2 PUSH20 0xFFFFFFFFFFFFFFFFFFFFFFFFFFFFFFFFFFFFFFFF MUL NOT AND SWAP1 DUP4 PUSH20 0xFFFFFFFFFFFFFFFFFFFFFFFFFFFFFFFFFFFFFFFF AND MUL OR SWAP1 SSTORE POP PUSH1 0x0 PUSH1 0x5 PUSH1 0x0 PUSH2 0x100 EXP DUP2 SLOAD DUP2 PUSH20 0xFFFFFFFFFFFFFFFFFFFFFFFFFFFFFFFFFFFFFFFF MUL NOT AND SWAP1 DUP4 PUSH20 0xFFFFFFFFFFFFFFFFFFFFFFFFFFFFFFFFFFFFFFFF AND MUL OR SWAP1 SSTORE POP JUMP JUMPDEST PUSH1 0x4 PUSH1 0x0 SWAP1 SLOAD SWAP1 PUSH2 0x100 EXP SWAP1 DIV PUSH20 0xFFFFFFFFFFFFFFFFFFFFFFFFFFFFFFFFFFFFFFFF AND PUSH20 0xFFFFFFFFFFFFFFFFFFFFFFFFFFFFFFFFFFFFFFFF AND CALLER PUSH20 0xFFFFFFFFFFFFFFFFFFFFFFFFFFFFFFFFFFFFFFFF AND EQ PUSH2 0x125C JUMPI PUSH1 0x40 MLOAD PUSH32 0x8C379A000000000000000000000000000000000000000000000000000000000 DUP2 MSTORE PUSH1 0x4 ADD PUSH2 0x1253 SWAP1 PUSH2 0x2486 JUMP JUMPDEST PUSH1 0x40 MLOAD DUP1 SWAP2 SUB SWAP1 REVERT JUMPDEST PUSH1 0x1 PUSH1 0x5 PUSH1 0x14 PUSH2 0x100 EXP DUP2 SLOAD DUP2 PUSH1 0xFF MUL NOT AND SWAP1 DUP4 ISZERO ISZERO MUL OR SWAP1 SSTORE POP PUSH32 0x62E78CEA01BEE320CD4E420270B5EA74000D11B0C9F74754EBDBFC544B05A258 CALLER PUSH1 0x40 MLOAD PUSH2 0x12A6 SWAP2 SWAP1 PUSH2 0x1F34 JUMP JUMPDEST PUSH1 0x40 MLOAD DUP1 SWAP2 SUB SWAP1 LOG1 JUMP JUMPDEST PUSH1 0x4 PUSH1 0x0 SWAP1 SLOAD SWAP1 PUSH2 0x100 EXP SWAP1 DIV PUSH20 0xFFFFFFFFFFFFFFFFFFFFFFFFFFFFFFFFFFFFFFFF AND DUP2 JUMP JUMPDEST PUSH1 0x4 PUSH1 0x0 SWAP1 SLOAD SWAP1 PUSH2 0x100 EXP SWAP1 DIV PUSH20 0xFFFFFFFFFFFFFFFFFFFFFFFFFFFFFFFFFFFFFFFF AND PUSH20 0xFFFFFFFFFFFFFFFFFFFFFFFFFFFFFFFFFFFFFFFF AND CALLER PUSH20 0xFFFFFFFFFFFFFFFFFFFFFFFFFFFFFFFFFFFFFFFF AND EQ PUSH2 0x1366 JUMPI PUSH1 0x40 MLOAD PUSH32 0x8C379A000000000000000000000000000000000000000000000000000000000 DUP2 MSTORE PUSH1 0x4 ADD PUSH2 0x135D SWAP1 PUSH2 0x2486 JUMP JUMPDEST PUSH1 0x40 MLOAD DUP1 SWAP2 SUB SWAP1 REVERT JUMPDEST PUSH1 0x0 PUSH20 0xFFFFFFFFFFFFFFFFFFFFFFFFFFFFFFFFFFFFFFFF AND DUP2 PUSH20 0xFFFFFFFFFFFFFFFFFFFFFFFFFFFFFFFFFFFFFFFF AND EQ ISZERO PUSH2 0x13D6 JUMPI PUSH1 0x40 MLOAD PUSH32 0x8C379A000000000000000000000000000000000000000000000000000000000 DUP2 MSTORE PUSH1 0x4 ADD PUSH2 0x13CD SWAP1 PUSH2 0x25AA JUMP JUMPDEST PUSH1 0x40 MLOAD DUP1 SWAP2 SUB SWAP1 REVERT JUMPDEST DUP1 PUSH20 0xFFFFFFFFFFFFFFFFFFFFFFFFFFFFFFFFFFFFFFFF AND PUSH1 0x3 PUSH1 0x0 SWAP1 SLOAD SWAP1 PUSH2 0x100 EXP SWAP1 DIV PUSH20 0xFFFFFFFFFFFFFFFFFFFFFFFFFFFFFFFFFFFFFFFF AND PUSH20 0xFFFFFFFFFFFFFFFFFFFFFFFFFFFFFFFFFFFFFFFF AND PUSH32 0xAAE9BEDDCCF584528E87B66C6FF2563825C8A1433305B8A656E9B5F9BF390499 PUSH1 0x40 MLOAD PUSH1 0x40 MLOAD DUP1 SWAP2 SUB SWAP1 LOG3 DUP1 PUSH1 0x3 PUSH1 0x0 PUSH2 0x100 EXP DUP2 SLOAD DUP2 PUSH20 0xFFFFFFFFFFFFFFFFFFFFFFFFFFFFFFFFFFFFFFFF MUL NOT AND SWAP1 DUP4 PUSH20 0xFFFFFFFFFFFFFFFFFFFFFFFFFFFFFFFFFFFFFFFF AND MUL OR SWAP1 SSTORE POP POP JUMP JUMPDEST PUSH1 0x40 MLOAD DUP1 PUSH1 0x40 ADD PUSH1 0x40 MSTORE DUP1 PUSH1 0x5 DUP2 MSTORE PUSH1 0x20 ADD PUSH32 0x5553444370000000000000000000000000000000000000000000000000000000 DUP2 MSTORE POP DUP2 JUMP JUMPDEST PUSH1 0x0 PUSH1 0x5 PUSH1 0x14 SWAP1 SLOAD SWAP1 PUSH2 0x100 EXP SWAP1 DIV PUSH1 0xFF AND ISZERO PUSH2 0x1521 JUMPI PUSH1 0x40 MLOAD PUSH32 0x8C379A000000000000000000000000000000000000000000000000000000000 DUP2 MSTORE PUSH1 0x4 ADD PUSH2 0x1518 SWAP1 PUSH2 0x1FDB JUMP JUMPDEST PUSH1 0x40 MLOAD DUP1 SWAP2 SUB SWAP1 REVERT JUMPDEST PUSH1 0x0 PUSH1 0x2 PUSH1 0x0 CALLER PUSH20 0xFFFFFFFFFFFFFFFFFFFFFFFFFFFFFFFFFFFFFFFF AND PUSH20 0xFFFFFFFFFFFFFFFFFFFFFFFFFFFFFFFFFFFFFFFF AND DUP2 MSTORE PUSH1 0x20 ADD SWAP1 DUP2 MSTORE PUSH1 0x20 ADD PUSH1 0x0 KECCAK256 PUSH1 0x0 DUP6 PUSH20 0xFFFFFFFFFFFFFFFFFFFFFFFFFFFFFFFFFFFFFFFF AND PUSH20 0xFFFFFFFFFFFFFFFFFFFFFFFFFFFFFFFFFFFFFFFF AND DUP2 MSTORE PUSH1 0x20 ADD SWAP1 DUP2 MSTORE PUSH1 0x20 ADD PUSH1 0x0 KECCAK256 SLOAD SWAP1 POP DUP3 DUP2 LT ISZERO PUSH2 0x15E5 JUMPI PUSH1 0x40 MLOAD PUSH32 0x8C379A000000000000000000000000000000000000000000000000000000000 DUP2 MSTORE PUSH1 0x4 ADD PUSH2 0x15DC SWAP1 PUSH2 0x263C JUMP JUMPDEST PUSH1 0x40 MLOAD DUP1 SWAP2 SUB SWAP1 REVERT JUMPDEST PUSH2 0x15FB CALLER DUP6 DUP6 DUP5 PUSH2 0x15F6 SWAP2 SWAP1 PUSH2 0x2194 JUMP JUMPDEST PUSH2 0x1A96 JUMP JUMPDEST PUSH1 0x1 SWAP2 POP POP SWAP3 SWAP2 POP POP JUMP JUMPDEST PUSH1 0x0 PUSH1 0x5 PUSH1 0x14 SWAP1 SLOAD SWAP1 PUSH2 0x100 EXP SWAP1 DIV PUSH1 0xFF AND ISZERO PUSH2 0x1658 JUMPI PUSH1 0x40 MLOAD PUSH32 0x8C379A000000000000000000000000000000000000000000000000000000000 DUP2 MSTORE PUSH1 0x4 ADD PUSH2 0x164F SWAP1 PUSH2 0x1FDB JUMP JUMPDEST PUSH1 0x40 MLOAD DUP1 SWAP2 SUB SWAP1 REVERT JUMPDEST PUSH1 0x0 PUSH20 0xFFFFFFFFFFFFFFFFFFFFFFFFFFFFFFFFFFFFFFFF AND DUP4 PUSH20 0xFFFFFFFFFFFFFFFFFFFFFFFFFFFFFFFFFFFFFFFF AND EQ ISZERO PUSH2 0x16C8 JUMPI PUSH1 0x40 MLOAD PUSH32 0x8C379A000000000000000000000000000000000000000000000000000000000 DUP2 MSTORE PUSH1 0x4 ADD PUSH2 0x16BF SWAP1 PUSH2 0x2342 JUMP JUMPDEST PUSH1 0x40 MLOAD DUP1 SWAP2 SUB SWAP1 REVERT JUMPDEST DUP2 PUSH1 0x1 PUSH1 0x0 CALLER PUSH20 0xFFFFFFFFFFFFFFFFFFFFFFFFFFFFFFFFFFFFFFFF AND PUSH20 0xFFFFFFFFFFFFFFFFFFFFFFFFFFFFFFFFFFFFFFFF AND DUP2 MSTORE PUSH1 0x20 ADD SWAP1 DUP2 MSTORE PUSH1 0x20 ADD PUSH1 0x0 KECCAK256 SLOAD LT ISZERO PUSH2 0x174A JUMPI PUSH1 0x40 MLOAD PUSH32 0x8C379A000000000000000000000000000000000000000000000000000000000 DUP2 MSTORE PUSH1 0x4 ADD PUSH2 0x1741 SWAP1 PUSH2 0x23AE JUMP JUMPDEST PUSH1 0x40 MLOAD DUP1 SWAP2 SUB SWAP1 REVERT JUMPDEST DUP2 PUSH1 0x1 PUSH1 0x0 CALLER PUSH20 0xFFFFFFFFFFFFFFFFFFFFFFFFFFFFFFFFFFFFFFFF AND PUSH20 0xFFFFFFFFFFFFFFFFFFFFFFFFFFFFFFFFFFFFFFFF AND DUP2 MSTORE PUSH1 0x20 ADD SWAP1 DUP2 MSTORE PUSH1 0x20 ADD PUSH1 0x0 KECCAK256 PUSH1 0x0 DUP3 DUP3 SLOAD PUSH2 0x1799 SWAP2 SWAP1 PUSH2 0x2194 JUMP JUMPDEST SWAP3 POP POP DUP2 SWAP1 SSTORE POP DUP2 PUSH1 0x1 PUSH1 0x0 DUP6 PUSH20 0xFFFFFFFFFFFFFFFFFFFFFFFFFFFFFFFFFFFFFFFF AND PUSH20 0xFFFFFFFFFFFFFFFFFFFFFFFFFFFFFFFFFFFFFFFF AND DUP2 MSTORE PUSH1 0x20 ADD SWAP1 DUP2 MSTORE PUSH1 0x20 ADD PUSH1 0x0 KECCAK256 PUSH1 0x0 DUP3 DUP3 SLOAD PUSH2 0x17EF SWAP2 SWAP1 PUSH2 0x22A0 JUMP JUMPDEST SWAP3 POP POP DUP2 SWAP1 SSTORE POP DUP3 PUSH20 0xFFFFFFFFFFFFFFFFFFFFFFFFFFFFFFFFFFFFFFFF AND CALLER PUSH20 0xFFFFFFFFFFFFFFFFFFFFFFFFFFFFFFFFFFFFFFFF AND PUSH32 0xDDF252AD1BE2C89B69C2B068FC378DAA952BA7F163C4A11628F55A4DF523B3EF DUP5 PUSH1 0x40 MLOAD PUSH2 0x1853 SWAP2 SWAP1 PUSH2 0x1E53 JUMP JUMPDEST PUSH1 0x40 MLOAD DUP1 SWAP2 SUB SWAP1 LOG3 PUSH1 0x1 SWAP1 POP SWAP3 SWAP2 POP POP JUMP JUMPDEST PUSH1 0x2 PUSH1 0x20 MSTORE DUP2 PUSH1 0x0 MSTORE PUSH1 0x40 PUSH1 0x0 KECCAK256 PUSH1 0x20 MSTORE DUP1 PUSH1 0x0 MSTORE PUSH1 0x40 PUSH1 0x0 KECCAK256 PUSH1 0x0 SWAP2 POP SWAP2 POP POP SLOAD DUP2 JUMP JUMPDEST PUSH1 0x5 PUSH1 0x0 SWAP1 SLOAD SWAP1 PUSH2 0x100 EXP SWAP1 DIV PUSH20 0xFFFFFFFFFFFFFFFFFFFFFFFFFFFFFFFFFFFFFFFF AND DUP2 JUMP JUMPDEST PUSH1 0x3 PUSH1 0x0 SWAP1 SLOAD SWAP1 PUSH2 0x100 EXP SWAP1 DIV PUSH20 0xFFFFFFFFFFFFFFFFFFFFFFFFFFFFFFFFFFFFFFFF AND DUP2 JUMP JUMPDEST PUSH1 0x4 PUSH1 0x0 SWAP1 SLOAD SWAP1 PUSH2 0x100 EXP SWAP1 DIV PUSH20 0xFFFFFFFFFFFFFFFFFFFFFFFFFFFFFFFFFFFFFFFF AND PUSH20 0xFFFFFFFFFFFFFFFFFFFFFFFFFFFFFFFFFFFFFFFF AND CALLER PUSH20 0xFFFFFFFFFFFFFFFFFFFFFFFFFFFFFFFFFFFFFFFF AND EQ PUSH2 0x1966 JUMPI PUSH1 0x40 MLOAD PUSH32 0x8C379A000000000000000000000000000000000000000000000000000000000 DUP2 MSTORE PUSH1 0x4 ADD PUSH2 0x195D SWAP1 PUSH2 0x2486 JUMP JUMPDEST PUSH1 0x40 MLOAD DUP1 SWAP2 SUB SWAP1 REVERT JUMPDEST PUSH1 0x0 PUSH20 0xFFFFFFFFFFFFFFFFFFFFFFFFFFFFFFFFFFFFFFFF AND DUP2 PUSH20 0xFFFFFFFFFFFFFFFFFFFFFFFFFFFFFFFFFFFFFFFF AND EQ ISZERO PUSH2 0x19D6 JUMPI PUSH1 0x40 MLOAD PUSH32 0x8C379A000000000000000000000000000000000000000000000000000000000 DUP2 MSTORE PUSH1 0x4 ADD PUSH2 0x19CD SWAP1 PUSH2 0x26CE JUMP JUMPDEST PUSH1 0x40 MLOAD DUP1 SWAP2 SUB SWAP1 REVERT JUMPDEST DUP1 PUSH1 0x5 PUSH1 0x0 PUSH2 0x100 EXP DUP2 SLOAD DUP2 PUSH20 0xFFFFFFFFFFFFFFFFFFFFFFFFFFFFFFFFFFFFFFFF MUL NOT AND SWAP1 DUP4 PUSH20 0xFFFFFFFFFFFFFFFFFFFFFFFFFFFFFFFFFFFFFFFF AND MUL OR SWAP1 SSTORE POP DUP1 PUSH20 0xFFFFFFFFFFFFFFFFFFFFFFFFFFFFFFFFFFFFFFFF AND PUSH1 0x4 PUSH1 0x0 SWAP1 SLOAD SWAP1 PUSH2 0x100 EXP SWAP1 DIV PUSH20 0xFFFFFFFFFFFFFFFFFFFFFFFFFFFFFFFFFFFFFFFF AND PUSH20 0xFFFFFFFFFFFFFFFFFFFFFFFFFFFFFFFFFFFFFFFF AND PUSH32 0x38D16B8CAC22D99FC7C124B9CD0DE2D3FA1FAEF420BFE791D8C362D765E22700 PUSH1 0x40 MLOAD PUSH1 0x40 MLOAD DUP1 SWAP2 SUB SWAP1 LOG3 POP JUMP JUMPDEST PUSH1 0x0 PUSH20 0xFFFFFFFFFFFFFFFFFFFFFFFFFFFFFFFFFFFFFFFF AND DUP3 PUSH20 0xFFFFFFFFFFFFFFFFFFFFFFFFFFFFFFFFFFFFFFFF AND EQ ISZERO PUSH2 0x1B06 JUMPI PUSH1 0x40 MLOAD PUSH32 0x8C379A000000000000000000000000000000000000000000000000000000000 DUP2 MSTORE PUSH1 0x4 ADD PUSH2 0x1AFD SWAP1 PUSH2 0x273A JUMP JUMPDEST PUSH1 0x40 MLOAD DUP1 SWAP2 SUB SWAP1 REVERT JUMPDEST DUP1 PUSH1 0x2 PUSH1 0x0 DUP6 PUSH20 0xFFFFFFFFFFFFFFFFFFFFFFFFFFFFFFFFFFFFFFFF AND PUSH20 0xFFFFFFFFFFFFFFFFFFFFFFFFFFFFFFFFFFFFFFFF AND DUP2 MSTORE PUSH1 0x20 ADD SWAP1 DUP2 MSTORE PUSH1 0x20 ADD PUSH1 0x0 KECCAK256 PUSH1 0x0 DUP5 PUSH20 0xFFFFFFFFFFFFFFFFFFFFFFFFFFFFFFFFFFFFFFFF AND PUSH20 0xFFFFFFFFFFFFFFFFFFFFFFFFFFFFFFFFFFFFFFFF AND DUP2 MSTORE PUSH1 0x20 ADD SWAP1 DUP2 MSTORE PUSH1 0x20 ADD PUSH1 0x0 KECCAK256 DUP2 SWAP1 SSTORE POP DUP2 PUSH20 0xFFFFFFFFFFFFFFFFFFFFFFFFFFFFFFFFFFFFFFFF AND DUP4 PUSH20 0xFFFFFFFFFFFFFFFFFFFFFFFFFFFFFFFFFFFFFFFF AND PUSH32 0x8C5BE1E5EBEC7D5BD14F71427D1E84F3DD0314C0F7B2291E5B200AC8C7C3B925 DUP4 PUSH1 0x40 MLOAD PUSH2 0x1BE4 SWAP2 SWAP1 PUSH2 0x1E53 JUMP JUMPDEST PUSH1 0x40 MLOAD DUP1 SWAP2 SUB SWAP1 LOG3 POP POP POP JUMP JUMPDEST PUSH1 0x0 DUP2 MLOAD SWAP1 POP SWAP2 SWAP1 POP JUMP JUMPDEST PUSH1 0x0 DUP3 DUP3 MSTORE PUSH1 0x20 DUP3 ADD SWAP1 POP SWAP3 SWAP2 POP POP JUMP JUMPDEST PUSH1 0x0 JUMPDEST DUP4 DUP2 LT ISZERO PUSH2 0x1C2B JUMPI DUP1 DUP3 ADD MLOAD DUP2 DUP5 ADD MSTORE PUSH1 0x20 DUP2 ADD SWAP1 POP PUSH2 0x1C10 JUMP JUMPDEST DUP4 DUP2 GT ISZERO PUSH2 0x1C3A JUMPI PUSH1 0x0 DUP5 DUP5 ADD MSTORE JUMPDEST POP POP POP POP JUMP JUMPDEST PUSH1 0x0 PUSH1 0x1F NOT PUSH1 0x1F DUP4 ADD AND SWAP1 POP SWAP2 SWAP1 POP JUMP JUMPDEST PUSH1 0x0 PUSH2 0x1C5C DUP3 PUSH2 0x1BF1 JUMP JUMPDEST PUSH2 0x1C66 DUP2 DUP6 PUSH2 0x1BFC JUMP JUMPDEST SWAP4 POP PUSH2 0x1C76 DUP2 DUP6 PUSH1 0x20 DUP7 ADD PUSH2 0x1C0D JUMP JUMPDEST PUSH2 0x1C7F DUP2 PUSH2 0x1C40 JUMP JUMPDEST DUP5 ADD SWAP2 POP POP SWAP3 SWAP2 POP POP JUMP JUMPDEST PUSH1 0x0 PUSH1 0x20 DUP3 ADD SWAP1 POP DUP2 DUP2 SUB PUSH1 0x0 DUP4 ADD MSTORE PUSH2 0x1CA4 DUP2 DUP5 PUSH2 0x1C51 JUMP JUMPDEST SWAP1 POP SWAP3 SWAP2 POP POP JUMP JUMPDEST PUSH1 0x0 DUP1 REVERT JUMPDEST PUSH1 0x0 PUSH20 0xFFFFFFFFFFFFFFFFFFFFFFFFFFFFFFFFFFFFFFFF DUP3 AND SWAP1 POP SWAP2 SWAP1 POP JUMP JUMPDEST PUSH1 0x0 PUSH2 0x1CDC DUP3 PUSH2 0x1CB1 JUMP JUMPDEST SWAP1 POP SWAP2 SWAP1 POP JUMP JUMPDEST PUSH2 0x1CEC DUP2 PUSH2 0x1CD1 JUMP JUMPDEST DUP2 EQ PUSH2 0x1CF7 JUMPI PUSH1 0x0 DUP1 REVERT JUMPDEST POP JUMP JUMPDEST PUSH1 0x0 DUP2 CALLDATALOAD SWAP1 POP PUSH2 0x1D09 DUP2 PUSH2 0x1CE3 JUMP JUMPDEST SWAP3 SWAP2 POP POP JUMP JUMPDEST PUSH1 0x0 DUP2 SWAP1 POP SWAP2 SWAP1 POP JUMP JUMPDEST PUSH2 0x1D22 DUP2 PUSH2 0x1D0F JUMP JUMPDEST DUP2 EQ PUSH2 0x1D2D JUMPI PUSH1 0x0 DUP1 REVERT JUMPDEST POP JUMP JUMPDEST PUSH1 0x0 DUP2 CALLDATALOAD SWAP1 POP PUSH2 0x1D3F DUP2 PUSH2 0x1D19 JUMP JUMPDEST SWAP3 SWAP2 POP POP JUMP JUMPDEST PUSH1 0x0 DUP1 PUSH1 0x40 DUP4 DUP6 SUB SLT ISZERO PUSH2 0x1D5C JUMPI PUSH2 0x1D5B PUSH2 0x1CAC JUMP JUMPDEST JUMPDEST PUSH1 0x0 PUSH2 0x1D6A DUP6 DUP3 DUP7 ADD PUSH2 0x1CFA JUMP JUMPDEST SWAP3 POP POP PUSH1 0x20 PUSH2 0x1D7B DUP6 DUP3 DUP7 ADD PUSH2 0x1D30 JUMP JUMPDEST SWAP2 POP POP SWAP3 POP SWAP3 SWAP1 POP JUMP JUMPDEST PUSH1 0x0 DUP2 ISZERO ISZERO SWAP1 POP SWAP2 SWAP1 POP JUMP JUMPDEST PUSH2 0x1D9A DUP2 PUSH2 0x1D85 JUMP JUMPDEST DUP3 MSTORE POP POP JUMP JUMPDEST PUSH1 0x0 PUSH1 0x20 DUP3 ADD SWAP1 POP PUSH2 0x1DB5 PUSH1 0x0 DUP4 ADD DUP5 PUSH2 0x1D91 JUMP JUMPDEST SWAP3 SWAP2 POP POP JUMP JUMPDEST PUSH1 0x0 DUP2 SWAP1 POP SWAP2 SWAP1 POP JUMP JUMPDEST PUSH2 0x1DCE DUP2 PUSH2 0x1DBB JUMP JUMPDEST DUP2 EQ PUSH2 0x1DD9 JUMPI PUSH1 0x0 DUP1 REVERT JUMPDEST POP JUMP JUMPDEST PUSH1 0x0 DUP2 CALLDATALOAD SWAP1 POP PUSH2 0x1DEB DUP2 PUSH2 0x1DC5 JUMP JUMPDEST SWAP3 SWAP2 POP POP JUMP JUMPDEST PUSH1 0x0 DUP1 PUSH1 0x0 PUSH1 0x60 DUP5 DUP7 SUB SLT ISZERO PUSH2 0x1E0A JUMPI PUSH2 0x1E09 PUSH2 0x1CAC JUMP JUMPDEST JUMPDEST PUSH1 0x0 PUSH2 0x1E18 DUP7 DUP3 DUP8 ADD PUSH2 0x1CFA JUMP JUMPDEST SWAP4 POP POP PUSH1 0x20 PUSH2 0x1E29 DUP7 DUP3 DUP8 ADD PUSH2 0x1D30 JUMP JUMPDEST SWAP3 POP POP PUSH1 0x40 PUSH2 0x1E3A DUP7 DUP3 DUP8 ADD PUSH2 0x1DDC JUMP JUMPDEST SWAP2 POP POP SWAP3 POP SWAP3 POP SWAP3 JUMP JUMPDEST PUSH2 0x1E4D DUP2 PUSH2 0x1D0F JUMP JUMPDEST DUP3 MSTORE POP POP JUMP JUMPDEST PUSH1 0x0 PUSH1 0x20 DUP3 ADD SWAP1 POP PUSH2 0x1E68 PUSH1 0x0 DUP4 ADD DUP5 PUSH2 0x1E44 JUMP JUMPDEST SWAP3 SWAP2 POP POP JUMP JUMPDEST PUSH1 0x0 DUP1 PUSH1 0x0 PUSH1 0x60 DUP5 DUP7 SUB SLT ISZERO PUSH2 0x1E87 JUMPI PUSH2 0x1E86 PUSH2 0x1CAC JUMP JUMPDEST JUMPDEST PUSH1 0x0 PUSH2 0x1E95 DUP7 DUP3 DUP8 ADD PUSH2 0x1CFA JUMP JUMPDEST SWAP4 POP POP PUSH1 0x20 PUSH2 0x1EA6 DUP7 DUP3 DUP8 ADD PUSH2 0x1CFA JUMP JUMPDEST SWAP3 POP POP PUSH1 0x40 PUSH2 0x1EB7 DUP7 DUP3 DUP8 ADD PUSH2 0x1D30 JUMP JUMPDEST SWAP2 POP POP SWAP3 POP SWAP3 POP SWAP3 JUMP JUMPDEST PUSH1 0x0 PUSH1 0xFF DUP3 AND SWAP1 POP SWAP2 SWAP1 POP JUMP JUMPDEST PUSH2 0x1ED7 DUP2 PUSH2 0x1EC1 JUMP JUMPDEST DUP3 MSTORE POP POP JUMP JUMPDEST PUSH1 0x0 PUSH1 0x20 DUP3 ADD SWAP1 POP PUSH2 0x1EF2 PUSH1 0x0 DUP4 ADD DUP5 PUSH2 0x1ECE JUMP JUMPDEST SWAP3 SWAP2 POP POP JUMP JUMPDEST PUSH1 0x0 PUSH1 0x20 DUP3 DUP5 SUB SLT ISZERO PUSH2 0x1F0E JUMPI PUSH2 0x1F0D PUSH2 0x1CAC JUMP JUMPDEST JUMPDEST PUSH1 0x0 PUSH2 0x1F1C DUP5 DUP3 DUP6 ADD PUSH2 0x1CFA JUMP JUMPDEST SWAP2 POP POP SWAP3 SWAP2 POP POP JUMP JUMPDEST PUSH2 0x1F2E DUP2 PUSH2 0x1CD1 JUMP JUMPDEST DUP3 MSTORE POP POP JUMP JUMPDEST PUSH1 0x0 PUSH1 0x20 DUP3 ADD SWAP1 POP PUSH2 0x1F49 PUSH1 0x0 DUP4 ADD DUP5 PUSH2 0x1F25 JUMP JUMPDEST SWAP3 SWAP2 POP POP JUMP JUMPDEST PUSH1 0x0 DUP1 PUSH1 0x40 DUP4 DUP6 SUB SLT ISZERO PUSH2 0x1F66 JUMPI PUSH2 0x1F65 PUSH2 0x1CAC JUMP JUMPDEST JUMPDEST PUSH1 0x0 PUSH2 0x1F74 DUP6 DUP3 DUP7 ADD PUSH2 0x1CFA JUMP JUMPDEST SWAP3 POP POP PUSH1 0x20 PUSH2 0x1F85 DUP6 DUP3 DUP7 ADD PUSH2 0x1CFA JUMP JUMPDEST SWAP2 POP POP SWAP3 POP SWAP3 SWAP1 POP JUMP JUMPDEST PUSH32 0x55534443703A2070617573656400000000000000000000000000000000000000 PUSH1 0x0 DUP3 ADD MSTORE POP JUMP JUMPDEST PUSH1 0x0 PUSH2 0x1FC5 PUSH1 0xD DUP4 PUSH2 0x1BFC JUMP JUMPDEST SWAP2 POP PUSH2 0x1FD0 DUP3 PUSH2 0x1F8F JUMP JUMPDEST PUSH1 0x20 DUP3 ADD SWAP1 POP SWAP2 SWAP1 POP JUMP JUMPDEST PUSH1 0x0 PUSH1 0x20 DUP3 ADD SWAP1 POP DUP2 DUP2 SUB PUSH1 0x0 DUP4 ADD MSTORE PUSH2 0x1FF4 DUP2 PUSH2 0x1FB8 JUMP JUMPDEST SWAP1 POP SWAP2 SWAP1 POP JUMP JUMPDEST PUSH32 0x55534443703A2063616C6C6572206973206E6F74207468652062726964676500 PUSH1 0x0 DUP3 ADD MSTORE POP JUMP JUMPDEST PUSH1 0x0 PUSH2 0x2031 PUSH1 0x1F DUP4 PUSH2 0x1BFC JUMP JUMPDEST SWAP2 POP PUSH2 0x203C DUP3 PUSH2 0x1FFB JUMP JUMPDEST PUSH1 0x20 DUP3 ADD SWAP1 POP SWAP2 SWAP1 POP JUMP JUMPDEST PUSH1 0x0 PUSH1 0x20 DUP3 ADD SWAP1 POP DUP2 DUP2 SUB PUSH1 0x0 DUP4 ADD MSTORE PUSH2 0x2060 DUP2 PUSH2 0x2024 JUMP JUMPDEST SWAP1 POP SWAP2 SWAP1 POP JUMP JUMPDEST PUSH32 0x55534443703A20696E73756666696369656E742062616C616E636520746F2062 PUSH1 0x0 DUP3 ADD MSTORE PUSH32 0x75726E0000000000000000000000000000000000000000000000000000000000 PUSH1 0x20 DUP3 ADD MSTORE POP JUMP JUMPDEST PUSH1 0x0 PUSH2 0x20C3 PUSH1 0x23 DUP4 PUSH2 0x1BFC JUMP JUMPDEST SWAP2 POP PUSH2 0x20CE DUP3 PUSH2 0x2067 JUMP JUMPDEST PUSH1 0x40 DUP3 ADD SWAP1 POP SWAP2 SWAP1 POP JUMP JUMPDEST PUSH1 0x0 PUSH1 0x20 DUP3 ADD SWAP1 POP DUP2 DUP2 SUB PUSH1 0x0 DUP4 ADD MSTORE PUSH2 0x20F2 DUP2 PUSH2 0x20B6 JUMP JUMPDEST SWAP1 POP SWAP2 SWAP1 POP JUMP JUMPDEST PUSH32 0x55534443703A206275726E20616D6F756E74206D757374206265203E20300000 PUSH1 0x0 DUP3 ADD MSTORE POP JUMP JUMPDEST PUSH1 0x0 PUSH2 0x212F PUSH1 0x1E DUP4 PUSH2 0x1BFC JUMP JUMPDEST SWAP2 POP PUSH2 0x213A DUP3 PUSH2 0x20F9 JUMP JUMPDEST PUSH1 0x20 DUP3 ADD SWAP1 POP SWAP2 SWAP1 POP JUMP JUMPDEST PUSH1 0x0 PUSH1 0x20 DUP3 ADD SWAP1 POP DUP2 DUP2 SUB PUSH1 0x0 DUP4 ADD MSTORE PUSH2 0x215E DUP2 PUSH2 0x2122 JUMP JUMPDEST SWAP1 POP SWAP2 SWAP1 POP JUMP JUMPDEST PUSH32 0x4E487B7100000000000000000000000000000000000000000000000000000000 PUSH1 0x0 MSTORE PUSH1 0x11 PUSH1 0x4 MSTORE PUSH1 0x24 PUSH1 0x0 REVERT JUMPDEST PUSH1 0x0 PUSH2 0x219F DUP3 PUSH2 0x1D0F JUMP JUMPDEST SWAP2 POP PUSH2 0x21AA DUP4 PUSH2 0x1D0F JUMP JUMPDEST SWAP3 POP DUP3 DUP3 LT ISZERO PUSH2 0x21BD JUMPI PUSH2 0x21BC PUSH2 0x2165 JUMP JUMPDEST JUMPDEST DUP3 DUP3 SUB SWAP1 POP SWAP3 SWAP2 POP POP JUMP JUMPDEST PUSH32 0x55534443703A206D696E7420746F207A65726F20616464726573730000000000 PUSH1 0x0 DUP3 ADD MSTORE POP JUMP JUMPDEST PUSH1 0x0 PUSH2 0x21FE PUSH1 0x1B DUP4 PUSH2 0x1BFC JUMP JUMPDEST SWAP2 POP PUSH2 0x2209 DUP3 PUSH2 0x21C8 JUMP JUMPDEST PUSH1 0x20 DUP3 ADD SWAP1 POP SWAP2 SWAP1 POP JUMP JUMPDEST PUSH1 0x0 PUSH1 0x20 DUP3 ADD SWAP1 POP DUP2 DUP2 SUB PUSH1 0x0 DUP4 ADD MSTORE PUSH2 0x222D DUP2 PUSH2 0x21F1 JUMP JUMPDEST SWAP1 POP SWAP2 SWAP1 POP JUMP JUMPDEST PUSH32 0x55534443703A206D696E7420616D6F756E74206D757374206265203E20300000 PUSH1 0x0 DUP3 ADD MSTORE POP JUMP JUMPDEST PUSH1 0x0 PUSH2 0x226A PUSH1 0x1E DUP4 PUSH2 0x1BFC JUMP JUMPDEST SWAP2 POP PUSH2 0x2275 DUP3 PUSH2 0x2234 JUMP JUMPDEST PUSH1 0x20 DUP3 ADD SWAP1 POP SWAP2 SWAP1 POP JUMP JUMPDEST PUSH1 0x0 PUSH1 0x20 DUP3 ADD SWAP1 POP DUP2 DUP2 SUB PUSH1 0x0 DUP4 ADD MSTORE PUSH2 0x2299 DUP2 PUSH2 0x225D JUMP JUMPDEST SWAP1 POP SWAP2 SWAP1 POP JUMP JUMPDEST PUSH1 0x0 PUSH2 0x22AB DUP3 PUSH2 0x1D0F JUMP JUMPDEST SWAP2 POP PUSH2 0x22B6 DUP4 PUSH2 0x1D0F JUMP JUMPDEST SWAP3 POP DUP3 PUSH32 0xFFFFFFFFFFFFFFFFFFFFFFFFFFFFFFFFFFFFFFFFFFFFFFFFFFFFFFFFFFFFFFFF SUB DUP3 GT ISZERO PUSH2 0x22EB JUMPI PUSH2 0x22EA PUSH2 0x2165 JUMP JUMPDEST JUMPDEST DUP3 DUP3 ADD SWAP1 POP SWAP3 SWAP2 POP POP JUMP JUMPDEST PUSH32 0x55534443703A207472616E7366657220746F207A65726F206164647265737300 PUSH1 0x0 DUP3 ADD MSTORE POP JUMP JUMPDEST PUSH1 0x0 PUSH2 0x232C PUSH1 0x1F DUP4 PUSH2 0x1BFC JUMP JUMPDEST SWAP2 POP PUSH2 0x2337 DUP3 PUSH2 0x22F6 JUMP JUMPDEST PUSH1 0x20 DUP3 ADD SWAP1 POP SWAP2 SWAP1 POP JUMP JUMPDEST PUSH1 0x0 PUSH1 0x20 DUP3 ADD SWAP1 POP DUP2 DUP2 SUB PUSH1 0x0 DUP4 ADD MSTORE PUSH2 0x235B DUP2 PUSH2 0x231F JUMP JUMPDEST SWAP1 POP SWAP2 SWAP1 POP JUMP JUMPDEST PUSH32 0x55534443703A20696E73756666696369656E742062616C616E63650000000000 PUSH1 0x0 DUP3 ADD MSTORE POP JUMP JUMPDEST PUSH1 0x0 PUSH2 0x2398 PUSH1 0x1B DUP4 PUSH2 0x1BFC JUMP JUMPDEST SWAP2 POP PUSH2 0x23A3 DUP3 PUSH2 0x2362 JUMP JUMPDEST PUSH1 0x20 DUP3 ADD SWAP1 POP SWAP2 SWAP1 POP JUMP JUMPDEST PUSH1 0x0 PUSH1 0x20 DUP3 ADD SWAP1 POP DUP2 DUP2 SUB PUSH1 0x0 DUP4 ADD MSTORE PUSH2 0x23C7 DUP2 PUSH2 0x238B JUMP JUMPDEST SWAP1 POP SWAP2 SWAP1 POP JUMP JUMPDEST PUSH32 0x55534443703A20696E73756666696369656E7420616C6C6F77616E6365000000 PUSH1 0x0 DUP3 ADD MSTORE POP JUMP JUMPDEST PUSH1 0x0 PUSH2 0x2404 PUSH1 0x1D DUP4 PUSH2 0x1BFC JUMP JUMPDEST SWAP2 POP PUSH2 0x240F DUP3 PUSH2 0x23CE JUMP JUMPDEST PUSH1 0x20 DUP3 ADD SWAP1 POP SWAP2 SWAP1 POP JUMP JUMPDEST PUSH1 0x0 PUSH1 0x20 DUP3 ADD SWAP1 POP DUP2 DUP2 SUB PUSH1 0x0 DUP4 ADD MSTORE PUSH2 0x2433 DUP2 PUSH2 0x23F7 JUMP JUMPDEST SWAP1 POP SWAP2 SWAP1 POP JUMP JUMPDEST PUSH32 0x55534443703A2063616C6C6572206973206E6F7420746865206F776E65720000 PUSH1 0x0 DUP3 ADD MSTORE POP JUMP JUMPDEST PUSH1 0x0 PUSH2 0x2470 PUSH1 0x1E DUP4 PUSH2 0x1BFC JUMP JUMPDEST SWAP2 POP PUSH2 0x247B DUP3 PUSH2 0x243A JUMP JUMPDEST PUSH1 0x20 DUP3 ADD SWAP1 POP SWAP2 SWAP1 POP JUMP JUMPDEST PUSH1 0x0 PUSH1 0x20 DUP3 ADD SWAP1 POP DUP2 DUP2 SUB PUSH1 0x0 DUP4 ADD MSTORE PUSH2 0x249F DUP2 PUSH2 0x2463 JUMP JUMPDEST SWAP1 POP SWAP2 SWAP1 POP JUMP JUMPDEST PUSH32 0x55534443703A2063616C6C6572206973206E6F742070656E64696E67206F776E PUSH1 0x0 DUP3 ADD MSTORE PUSH32 0x6572000000000000000000000000000000000000000000000000000000000000 PUSH1 0x20 DUP3 ADD MSTORE POP JUMP JUMPDEST PUSH1 0x0 PUSH2 0x2502 PUSH1 0x22 DUP4 PUSH2 0x1BFC JUMP JUMPDEST SWAP2 POP PUSH2 0x250D DUP3 PUSH2 0x24A6 JUMP JUMPDEST PUSH1 0x40 DUP3 ADD SWAP1 POP SWAP2 SWAP1 POP JUMP JUMPDEST PUSH1 0x0 PUSH1 0x20 DUP3 ADD SWAP1 POP DUP2 DUP2 SUB PUSH1 0x0 DUP4 ADD MSTORE PUSH2 0x2531 DUP2 PUSH2 0x24F5 JUMP JUMPDEST SWAP1 POP SWAP2 SWAP1 POP JUMP JUMPDEST PUSH32 0x55534443703A206272696467652063616E6E6F74206265207A65726F20616464 PUSH1 0x0 DUP3 ADD MSTORE PUSH32 0x7265737300000000000000000000000000000000000000000000000000000000 PUSH1 0x20 DUP3 ADD MSTORE POP JUMP JUMPDEST PUSH1 0x0 PUSH2 0x2594 PUSH1 0x24 DUP4 PUSH2 0x1BFC JUMP JUMPDEST SWAP2 POP PUSH2 0x259F DUP3 PUSH2 0x2538 JUMP JUMPDEST PUSH1 0x40 DUP3 ADD SWAP1 POP SWAP2 SWAP1 POP JUMP JUMPDEST PUSH1 0x0 PUSH1 0x20 DUP3 ADD SWAP1 POP DUP2 DUP2 SUB PUSH1 0x0 DUP4 ADD MSTORE PUSH2 0x25C3 DUP2 PUSH2 0x2587 JUMP JUMPDEST SWAP1 POP SWAP2 SWAP1 POP JUMP JUMPDEST PUSH32 0x55534443703A2064656372656173656420616C6C6F77616E63652062656C6F77 PUSH1 0x0 DUP3 ADD MSTORE PUSH32 0x207A65726F000000000000000000000000000000000000000000000000000000 PUSH1 0x20 DUP3 ADD MSTORE POP JUMP JUMPDEST PUSH1 0x0 PUSH2 0x2626 PUSH1 0x25 DUP4 PUSH2 0x1BFC JUMP JUMPDEST SWAP2 POP PUSH2 0x2631 DUP3 PUSH2 0x25CA JUMP JUMPDEST PUSH1 0x40 DUP3 ADD SWAP1 POP SWAP2 SWAP1 POP JUMP JUMPDEST PUSH1 0x0 PUSH1 0x20 DUP3 ADD SWAP1 POP DUP2 DUP2 SUB PUSH1 0x0 DUP4 ADD MSTORE PUSH2 0x2655 DUP2 PUSH2 0x2619 JUMP JUMPDEST SWAP1 POP SWAP2 SWAP1 POP JUMP JUMPDEST PUSH32 0x55534443703A206E6577206F776E65722063616E6E6F74206265207A65726F20 PUSH1 0x0 DUP3 ADD MSTORE PUSH32 0x6164647265737300000000000000000000000000000000000000000000000000 PUSH1 0x20 DUP3 ADD MSTORE POP JUMP JUMPDEST PUSH1 0x0 PUSH2 0x26B8 PUSH1 0x27 DUP4 PUSH2 0x1BFC JUMP JUMPDEST SWAP2 POP PUSH2 0x26C3 DUP3 PUSH2 0x265C JUMP JUMPDEST PUSH1 0x40 DUP3 ADD SWAP1 POP SWAP2 SWAP1 POP JUMP JUMPDEST PUSH1 0x0 PUSH1 0x20 DUP3 ADD SWAP1 POP DUP2 DUP2 SUB PUSH1 0x0 DUP4 ADD MSTORE PUSH2 0x26E7 DUP2 PUSH2 0x26AB JUMP JUMPDEST SWAP1 POP SWAP2 SWAP1 POP JUMP JUMPDEST PUSH32 0x55534443703A20617070726F766520746F207A65726F20616464726573730000 PUSH1 0x0 DUP3 ADD MSTORE POP JUMP JUMPDEST PUSH1 0x0 PUSH2 0x2724 PUSH1 0x1E DUP4 PUSH2 0x1BFC JUMP JUMPDEST SWAP2 POP PUSH2 0x272F DUP3 PUSH2 0x26EE JUMP JUMPDEST PUSH1 0x20 DUP3 ADD SWAP1 POP SWAP2 SWAP1 POP JUMP JUMPDEST PUSH1 0x0 PUSH1 0x20 DUP3 ADD SWAP1 POP DUP2 DUP2 SUB PUSH1 0x0 DUP4 ADD MSTORE PUSH2 0x2753 DUP2 PUSH2 0x2717 JUMP JUMPDEST SWAP1 POP SWAP2 SWAP1 POP JUMP INVALID LOG2 PUSH5 0x6970667358 0x22 SLT KECCAK256 INVALID 0xC4 0x2A GASPRICE 0xB6 PUSH31 0xDE226F688BA3CF87F1209844B66D890029D89374B96974ACF2BA64736F6C63 NUMBER STOP ADDMOD EXP STOP CALLER "
    },
    "gasEstimates": {
      "creation": {
        "codeDepositCost": "2025600",
        "executionCost": "infinite",
        "totalCost": "infinite"
      },
      "external": {
        "acceptOwnership()": "58824",
        "allowance(address,address)": "infinite",
        "approve(address,uint256)": "infinite",
        "balanceOf(address)": "2947",
        "bridge()": "2624",
        "burn(address,uint256,bytes32)": "infinite",
        "decimals()": "380",
        "decreaseAllowance(address,uint256)": "infinite",
        "increaseAllowance(address,uint256)": "infinite",
        "mint(address,uint256,bytes32)": "infinite",
        "name()": "infinite",
        "owner()": "2581",
        "pause()": "27915",
        "paused()": "2632",
        "pendingOwner()": "2602",
        "setBridge(address)": "30700",
        "symbol()": "infinite",
        "totalSupply()": "2519",
        "transfer(address,uint256)": "infinite",
        "transferFrom(address,address,uint256)": "infinite",
        "transferOwnership(address)": "30743",
        "unpause()": "27959"
      },
      "internal": {
        "_approve(address,address,uint256)": "infinite"
      }
    },
    "methodIdentifiers": {
      "acceptOwnership()": "79ba5097",
      "allowance(address,address)": "dd62ed3e",
      "approve(address,uint256)": "095ea7b3",
      "balanceOf(address)": "70a08231",
      "bridge()": "e78cea92",
      "burn(address,uint256,bytes32)": "158a1cc3",
      "decimals()": "313ce567",
      "decreaseAllowance(address,uint256)": "a457c2d7",
      "increaseAllowance(address,uint256)": "39509351",
      "mint(address,uint256,bytes32)": "1e458bee",
      "name()": "06fdde03",
      "owner()": "8da5cb5b",
      "pause()": "8456cb59",
      "paused()": "5c975abb",
      "pendingOwner()": "e30c3978",
      "setBridge(address)": "8dd14802",
      "symbol()": "95d89b41",
      "totalSupply()": "18160ddd",
      "transfer(address,uint256)": "a9059cbb",
      "transferFrom(address,address,uint256)": "23b872dd",
      "transferOwnership(address)": "f2fde38b",
      "unpause()": "3f4ba83a"
    }
  },
  "storageLayout": {
    "storage": [
      {
        "astId": 1693,
        "contract": "USDCpV2.sol:USDCpV2",
        "label": "totalSupply",
        "offset": 0,
        "slot": "0",
        "type": "t_uint256"
      },
      {
        "astId": 1698,
        "contract": "USDCpV2.sol:USDCpV2",
        "label": "balanceOf",
        "offset": 0,
        "slot": "1",
        "type": "t_mapping(t_address,t_uint256)"
      },
      {
        "astId": 1705,
        "contract": "USDCpV2.sol:USDCpV2",
        "label": "allowance",
        "offset": 0,
        "slot": "2",
        "type": "t_mapping(t_address,t_mapping(t_address,t_uint256))"
      },
      {
        "astId": 1707,
        "contract": "USDCpV2.sol:USDCpV2",
        "label": "bridge",
        "offset": 0,
        "slot": "3",
        "type": "t_address"
      },
      {
        "astId": 1709,
        "contract": "USDCpV2.sol:USDCpV2",
        "label": "owner",
        "offset": 0,
        "slot": "4",
        "type": "t_address"
      },
      {
        "astId": 1711,
        "contract": "USDCpV2.sol:USDCpV2",
        "label": "pendingOwner",
        "offset": 0,
        "slot": "5",
        "type": "t_address"
      },
      {
        "astId": 1713,
        "contract": "USDCpV2.sol:USDCpV2",
        "label": "paused",
        "offset": 20,
        "slot": "5",
        "type": "t_bool"
      }
    ],
    "types": {
      "t_address": {
        "encoding": "inplace",
        "label": "address",
        "numberOfBytes": "20"
      },
      "t_bool": {
        "encoding": "inplace",
        "label": "bool",
        "numberOfBytes": "1"
      },
      "t_mapping(t_address,t_mapping(t_address,t_uint256))": {
        "encoding": "mapping",
        "key": "t_address",
        "label": "mapping(address => mapping(address => uint256))",
        "numberOfBytes": "32",
        "value": "t_mapping(t_address,t_uint256)"
      },
      "t_mapping(t_address,t_uint256)": {
        "encoding": "mapping",
        "key": "t_address",
        "label": "mapping(address => uint256)",
        "numberOfBytes": "32",
        "value": "t_uint256"
      },
      "t_uint256": {
        "encoding": "inplace",
        "label": "uint256",
        "numberOfBytes": "32"
      }
    }
  },
  "userdoc": {
    "events": {
      "Approval(address,address,uint256)": {
        "notice": "許可設定イベント (ERC20必須)"
      },
      "BridgeUpdated(address,address)": {
        "notice": "Bridge変更イベント"
      },
      "Burn(address,uint256,bytes32)": {
        "notice": "Burn実行イベント"
      },
      "Mint(address,uint256,bytes32)": {
        "notice": "Mint実行イベント"
      },
      "OwnershipTransferStarted(address,address)": {
        "notice": "Ownership移転開始イベント"
      },
      "OwnershipTransferred(address,address)": {
        "notice": "Ownership移転完了イベント"
      },
      "Paused(address)": {
        "notice": "Pause状態変更イベント"
      },
      "Transfer(address,address,uint256)": {
        "notice": "トークン移転イベント (ERC20必須)"
      }
    },
    "kind": "user",
    "methods": {
      "acceptOwnership()": {
        "notice": "Ownership移転を受諾（新オーナーが呼び出す）"
      },
      "allowance(address,address)": {
        "notice": "許可額 (Allowance)"
      },
      "approve(address,uint256)": {
        "notice": "他者にトークン使用を許可する"
      },
      "balanceOf(address)": {
        "notice": "各アドレスの残高"
      },
      "burn(address,uint256,bytes32)": {
        "notice": "トークンを焼却（Burn）"
      },
      "decimals()": {
        "notice": "小数点以下の桁数"
      },
      "decreaseAllowance(address,uint256)": {
        "notice": "許可額を減少させる（race condition対策）"
      },
      "increaseAllowance(address,uint256)": {
        "notice": "許可額を増加させる（race condition対策）"
      },
      "mint(address,uint256,bytes32)": {
        "notice": "新しいトークンを発行（Mint）"
      },
      "name()": {
        "notice": "トークン名 - ウォレットやエクスプローラーで表示される"
      },
      "pause()": {
        "notice": "緊急停止"
      },
      "setBridge(address)": {
        "notice": "Bridgeアドレスを変更"
      },
      "symbol()": {
        "notice": "シンボル - 短縮表記 (ETH, USDC, USDCp など)"
      },
      "totalSupply()": {
        "notice": "総発行量 - mint時に増加、burn時に減少"
      },
      "transfer(address,uint256)": {
        "notice": "トークンを送金する"
      },
      "transferFrom(address,address,uint256)": {
        "notice": "許可された範囲で他者のトークンを送金"
      },
      "transferOwnership(address)": {
        "notice": "Ownership移転を開始（2段階移転）"
      },
      "unpause()": {
        "notice": "緊急停止解除"
      }
    },
    "notice": "ERC20 token with mint/burn functionality controlled by a bridge ============================================================ ERC20 トークン解説 ============================================================ ERC20とは、Ethereumブロックチェーン上でトークンを標準化するためのインターフェース規格です。 この規格に従うことで、ウォレットやDEXなど様々なアプリケーションと互換性を持ちます。 【必須の状態変数】 - name: トークンの名前 (例: \"Bridged USDC (Private)\") - symbol: トークンのシンボル (例: \"USDCp\") - decimals: 小数点以下の桁数 (USDCは6桁) - totalSupply: トークンの総発行量 - balanceOf: 各アドレスの残高を記録するマッピング - allowance: 他者への送金許可額を記録するマッピング 【必須の関数】 - transfer(to, amount): 自分のトークンを他者に送る - approve(spender, amount): 他者に自分のトークンを使う許可を与える - transferFrom(from, to, amount): 許可された範囲で他者のトークンを送る 【必須のイベント】 - Transfer: トークン移転時に発行 - Approval: 許可設定時に発行 ============================================================",
    "version": 1
  }
}