{"abi":[{"type":"constructor","inputs":[{"name":"_usdc","type":"address","internalType":"address"},{"name":"_relayers","type":"address[]","internalType":"address[]"},{"name":"_threshold","type":"uint256","internalType":"uint256"},{"name":"_dailyUnlockLimit","type":"uint256","internalType":"uint256"}],"stateMutability":"nonpayable"},{"type":"function","name":"ADMIN_ROLE","inputs":[],"outputs":[{"name":"","type":"bytes32","internalType":"bytes32"}],"stateMutability":"view"},{"type":"function","name":"DEFAULT_ADMIN_ROLE","inputs":[],"outputs":[{"name":"","type":"bytes32","internalType":"bytes32"}],"stateMutability":"view"},{"type":"function","name":"RELAYER_ROLE","inputs":[],"outputs":[{"name":"","type":"bytes32","internalType":"bytes32"}],"stateMutability":"view"},{"type":"function","name":"addRelayer","inputs":[{"name":"relayer","type":"address","internalType":"address"}],"outputs":[],"stateMutability":"nonpayable"},{"type":"function","name":"approveUnlock","inputs":[{"name":"privateTxHash","type":"bytes32","internalType":"bytes32"},{"name":"recipient","type":"address","internalType":"address"},{"name":"amount","type":"uint256","internalType":"uint256"}],"outputs":[],"stateMutability":"nonpayable"},{"type":"function","name":"dailyUnlockLimit","inputs":[],"outputs":[{"name":"","type":"uint256","internalType":"uint256"}],"stateMutability":"view"},{"type":"function","name":"dailyUnlockUsed","inputs":[],"outputs":[{"name":"","type":"uint256","internalType":"uint256"}],"stateMutability":"view"},{"type":"function","name":"getApprovalCount","inputs":[{"name":"privateTxHash","type":"bytes32","internalType":"bytes32"}],"outputs":[{"name":"","type":"uint256","internalType":"uint256"}],"stateMutability":"view"},{"type":"function","name":"getRoleAdmin","inputs":[{"name":"role","type":"bytes32","internalType":"bytes32"}],"outputs":[{"name":"","type":"bytes32","internalType":"bytes32"}],"stateMutability":"view"},{"type":"function","name":"grantRole","inputs":[{"name":"role","type":"bytes32","internalType":"bytes32"},{"name":"account","type":"address","internalType":"address"}],"outputs":[],"stateMutability":"nonpayable"},{"type":"function","name":"hasRelayerApproved","inputs":[{"name":"privateTxHash","type":"bytes32","internalType":"bytes32"},{"name":"relayer","type":"address","internalType":"address"}],"outputs":[{"name":"","type":"bool","internalType":"bool"}],"stateMutability":"view"},{"type":"function","name":"hasRole","inputs":[{"name":"role","type":"bytes32","internalType":"bytes32"},{"name":"account","type":"address","internalType":"address"}],"outputs":[{"name":"","type":"bool","internalType":"bool"}],"stateMutability":"view"},{"type":"function","name":"isProcessed","inputs":[{"name":"privateTxHash","type":"bytes32","internalType":"bytes32"}],"outputs":[{"name":"","type":"bool","internalType":"bool"}],"stateMutability":"view"},{"type":"function","name":"lastUnlockDay","inputs":[],"outputs":[{"name":"","type":"uint256","internalType":"uint256"}],"stateMutability":"view"},{"type":"function","name":"lock","inputs":[{"name":"amount","type":"uint256","internalType":"uint256"},{"name":"privateChainRecipient","type":"bytes32","internalType":"bytes32"}],"outputs":[{"name":"lockId","type":"uint256","internalType":"uint256"}],"stateMutability":"nonpayable"},{"type":"function","name":"pause","inputs":[],"outputs":[],"stateMutability":"nonpayable"},{"type":"function","name":"paused","inputs":[],"outputs":[{"name":"","type":"bool","internalType":"bool"}],"stateMutability":"view"},{"type":"function","name":"processedTxHashes","inputs":[{"name":"","type":"bytes32","internalType":"bytes32"}],"outputs":[{"name":"","type":"bool","internalType":"bool"}],"stateMutability":"view"},{"type":"function","name":"removeRelayer","inputs":[{"name":"relayer","type":"address","internalType":"address"}],"outputs":[],"stateMutability":"nonpayable"},{"type":"function","name":"renounceRole","inputs":[{"name":"role","type":"bytes32","internalType":"bytes32"},{"name":"callerConfirmation","type":"address","internalType":"address"}],"outputs":[],"stateMutability":"nonpayable"},{"type":"function","name":"revokeRole","inputs":[{"name":"role","type":"bytes32","internalType":"bytes32"},{"name":"account","type":"address","internalType":"address"}],"outputs":[],"stateMutability":"nonpayable"},{"type":"function","name":"setDailyUnlockLimit","inputs":[{"name":"newLimit","type":"uint256","internalType":"uint256"}],"outputs":[],"stateMutability":"nonpayable"},{"type":"function","name":"setThreshold","inputs":[{"name":"newThreshold","type":"uint256","internalType":"uint256"}],"outputs":[],"stateMutability":"nonpayable"},{"type":"function","name":"supportsInterface","inputs":[{"name":"interfaceId","type":"bytes4","internalType":"bytes4"}],"outputs":[{"name":"","type":"bool","internalType":"bool"}],"stateMutability":"view"},{"type":"function","name":"threshold","inputs":[],"outputs":[{"name":"","type":"uint256","internalType":"uint256"}],"stateMutability":"view"},{"type":"function","name":"totalLocked","inputs":[],"outputs":[{"name":"","type":"uint256","internalType":"uint256"}],"stateMutability":"view"},{"type":"function","name":"unlockRequests","inputs":[{"name":"","type":"bytes32","internalType":"bytes32"}],"outputs":[{"name":"recipient","type":"address","internalType":"address"},{"name":"amount","type":"uint256","internalType":"uint256"},{"name":"approvalCount","type":"uint256","internalType":"uint256"},{"name":"executed","type":"bool","internalType":"bool"}],"stateMutability":"view"},{"type":"function","name":"unpause","inputs":[],"outputs":[],"stateMutability":"nonpayable"},{"type":"function","name":"usdc","inputs":[],"outputs":[{"name":"","type":"address","internalType":"contract IERC20"}],"stateMutability":"view"},{"type":"event","name":"DailyLimitUpdated","inputs":[{"name":"newLimit","type":"uint256","indexed":false,"internalType":"uint256"}],"anonymous":false},{"type":"event","name":"Locked","inputs":[{"name":"sender","type":"address","indexed":true,"internalType":"address"},{"name":"amount","type":"uint256","indexed":false,"internalType":"uint256"},{"name":"privateChainRecipient","type":"bytes32","indexed":true,"internalType":"bytes32"},{"name":"lockId","type":"uint256","indexed":true,"internalType":"uint256"}],"anonymous":false},{"type":"event","name":"Paused","inputs":[{"name":"account","type":"address","indexed":false,"internalType":"address"}],"anonymous":false},{"type":"event","name":"RelayerAdded","inputs":[{"name":"relayer","type":"address","indexed":false,"internalType":"address"}],"anonymous":false},{"type":"event","name":"RelayerRemoved","inputs":[{"name":"relayer","type":"address","indexed":false,"internalType":"address"}],"anonymous":false},{"type":"event","name":"RoleAdminChanged","inputs":[{"name":"role","type":"bytes32","indexed":true,"internalType":"bytes32"},{"name":"previousAdminRole","type":"bytes32","indexed":true,"internalType":"bytes32"},{"name":"newAdminRole","type":"bytes32","indexed":true,"internalType":"bytes32"}],"anonymous":false},{"type":"event","name":"RoleGranted","inputs":[{"name":"role","type":"bytes32","indexed":true,"internalType":"bytes32"},{"name":"account","type":"address","indexed":true,"internalType":"address"},{"name":"sender","type":"address","indexed":true,"internalType":"address"}],"anonymous":false},{"type":"event","name":"RoleRevoked","inputs":[{"name":"role","type":"bytes32","indexed":true,"internalType":"bytes32"},{"name":"account","type":"address","indexed":true,"internalType":"address"},{"name":"sender","type":"address","indexed":true,"internalType":"address"}],"anonymous":false},{"type":"event","name":"ThresholdUpdated","inputs":[{"name":"oldThreshold","type":"uint256","indexed":false,"internalType":"uint256"},{"name":"newThreshold","type":"uint256","indexed":false,"internalType":"uint256"}],"anonymous":false},{"type":"event","name":"UnlockApproved","inputs":[{"name":"privateTxHash","type":"bytes32","indexed":true,"internalType":"bytes32"},{"name":"relayer","type":"address","indexed":true,"internalType":"address"},{"name":"approvalCount","type":"uint256","indexed":false,"internalType":"uint256"},{"name":"threshold","type":"uint256","indexed":false,"internalType":"uint256"}],"anonymous":false},{"type":"event","name":"Unlocked","inputs":[{"name":"privateTxHash","type":"bytes32","indexed":true,"internalType":"bytes32"},{"name":"recipient","type":"address","indexed":true,"internalType":"address"},{"name":"amount","type":"uint256","indexed":false,"internalType":"uint256"}],"anonymous":false},{"type":"event","name":"Unpaused","inputs":[{"name":"account","type":"address","indexed":false,"internalType":"address"}],"anonymous":false},{"type":"error","name":"AccessControlBadConfirmation","inputs":[]},{"type":"error","name":"AccessControlUnauthorizedAccount","inputs":[{"name":"account","type":"address","internalType":"address"},{"name":"neededRole","type":"bytes32","internalType":"bytes32"}]},{"type":"error","name":"EnforcedPause","inputs":[]},{"type":"error","name":"ExpectedPause","inputs":[]},{"type":"error","name":"ReentrancyGuardReentrantCall","inputs":[]},{"type":"error","name":"SafeERC20FailedOperation","inputs":[{"name":"token","type":"address","internalType":"address"}]}],"bytecode":{"object":"0x60a060405234801562000010575f80fd5b506040516200190b3803806200190b83398101604081905262000033916200039a565b60017f9b779b17422d0df92223018b32b4d1fa46e071723d6817e2486d003becc55f00556001600160a01b038416620000b35760405162461bcd60e51b815260206004820152601e60248201527f4272696467655661756c743a207a65726f20757364632061646472657373000060448201526064015b60405180910390fd5b8183511015620001065760405162461bcd60e51b815260206004820152601f60248201527f4272696467655661756c743a207468726573686f6c6420746f6f2068696768006044820152606401620000aa565b6001600160a01b03841660805260028290556004819055620001295f33620002be565b50620001567fa49807205ce4d355092ef5a8a18f56e8913cf4a201fbe287825b095693c2177533620002be565b505f5b8351811015620002b3575f6001600160a01b03168482815181106200018257620001826200048b565b60200260200101516001600160a01b031603620001ec5760405162461bcd60e51b815260206004820152602160248201527f4272696467655661756c743a207a65726f2072656c61796572206164647265736044820152607360f81b6064820152608401620000aa565b6200023a7fe2b7fb3b832174769106daebcfd6d1970523240dda11281102db9363b83b0dc48583815181106200022657620002266200048b565b6020026020010151620002be60201b60201c565b507f03580ee9f53a62b7cb409a2cb56f9be87747dd15017afc5cef6eef321e4fb2c58482815181106200027157620002716200048b565b60200260200101516040516200029691906001600160a01b0391909116815260200190565b60405180910390a180620002aa816200049f565b91505062000159565b5050505050620004c4565b5f828152602081815260408083206001600160a01b038516845290915281205460ff1662000361575f838152602081815260408083206001600160a01b03861684529091529020805460ff19166001179055620003183390565b6001600160a01b0316826001600160a01b0316847f2f8788117e7eff1d82e926ec794901d17c78024a50270940304540a733656f0d60405160405180910390a450600162000364565b505f5b92915050565b80516001600160a01b038116811462000381575f80fd5b919050565b634e487b7160e01b5f52604160045260245ffd5b5f805f8060808587031215620003ae575f80fd5b620003b9856200036a565b602086810151919550906001600160401b0380821115620003d8575f80fd5b818801915088601f830112620003ec575f80fd5b81518181111562000401576200040162000386565b8060051b604051601f19603f8301168101818110858211171562000429576200042962000386565b60405291825284820192508381018501918b83111562000447575f80fd5b938501935b82851015620004705762000460856200036a565b845293850193928501926200044c565b60408b01516060909b0151999c909b50975050505050505050565b634e487b7160e01b5f52603260045260245ffd5b5f60018201620004bd57634e487b7160e01b5f52601160045260245ffd5b5060010190565b608051611420620004eb5f395f81816102c8015281816106ad0152610fdf01526114205ff3fe608060405234801561000f575f80fd5b50600436106101c6575f3560e01c806360f0a5ac116100fe578063960bfe041161009e578063d547741f1161006e578063d547741f146103d8578063dd39f00d146103eb578063e7017f78146103fe578063f62f53651461046b575f80fd5b8063960bfe04146103ac578063a1921b31146103bf578063a217fddf146103c8578063bedc73c6146103cf575f80fd5b806375b238fc116100d957806375b238fc146103695780638456cb591461037d57806391d1485414610385578063926d7d7f14610398575f80fd5b806360f0a5ac1461033a578063639b0e491461034d57806372827e7c14610356575f80fd5b806336568abe1161016957806342cde4e81161014457806342cde4e81461030a578063496a36f21461031357806356891412146103265780635c975abb1461032f575f80fd5b806336568abe146102b05780633e413bee146102c35780633f4ba83a14610302575f80fd5b806323c7cfc5116101a457806323c7cfc514610244578063248a9ca3146102595780632f2ff15d1461027b5780632f7646441461028e575f80fd5b806301e8f789146101ca57806301ffc9a7146101ff57806311c1689614610222575b5f80fd5b6101ec6101d8366004611224565b5f9081526007602052604090206002015490565b6040519081526020015b60405180910390f35b61021261020d36600461123b565b6104a7565b60405190151581526020016101f6565b610212610230366004611224565b5f9081526008602052604090205460ff1690565b610257610252366004611224565b6104dd565b005b6101ec610267366004611224565b5f9081526020819052604090206001015490565b610257610289366004611284565b610531565b61021261029c366004611224565b60086020525f908152604090205460ff1681565b6102576102be366004611284565b61055b565b6102ea7f000000000000000000000000000000000000000000000000000000000000000081565b6040516001600160a01b0390911681526020016101f6565b610257610593565b6101ec60025481565b6101ec6103213660046112ae565b6105b5565b6101ec60035481565b60015460ff16610212565b6102576103483660046112ce565b610730565b6101ec60045481565b6102576103643660046112e7565b610798565b6101ec5f805160206113cb83398151915281565b610257610b2d565b610212610393366004611284565b610b4c565b6101ec5f8051602061138b83398151915281565b6102576103ba366004611224565b610b74565b6101ec60055481565b6101ec5f81565b6101ec60065481565b6102576103e6366004611284565b610c27565b6102576103f93660046112ce565b610c4b565b61043f61040c366004611224565b60076020525f908152604090208054600182015460028301546003909301546001600160a01b0390921692909160ff1684565b604080516001600160a01b039095168552602085019390935291830152151560608201526080016101f6565b610212610479366004611284565b5f8281526007602090815260408083206001600160a01b038516845260040190915290205460ff1692915050565b5f6001600160e01b03198216637965db0b60e01b14806104d757506301ffc9a760e01b6001600160e01b03198316145b92915050565b5f805160206113cb8339815191526104f481610d09565b60048290556040518281527f6cd8635c4285386b9de2e59a4c1eaf32ad41f28ae64c308280217d7af51464e0906020015b60405180910390a15050565b5f8281526020819052604090206001015461054b81610d09565b6105558383610d13565b50505050565b6001600160a01b03811633146105845760405163334bd91960e11b815260040160405180910390fd5b61058e8282610da2565b505050565b5f805160206113cb8339815191526105aa81610d09565b6105b2610e0b565b50565b5f6105be610e5d565b6105c6610e78565b5f831161061a5760405162461bcd60e51b815260206004820152601f60248201527f4272696467655661756c743a20616d6f756e74206d757374206265203e20300060448201526064015b60405180910390fd5b816106735760405162461bcd60e51b815260206004820152602360248201527f4272696467655661756c743a207a65726f207072697661746520726563697069604482015262195b9d60ea1b6064820152608401610611565b60095f81546106819061132d565b91905081905590508260035f82825461069a9190611345565b909155506106d590506001600160a01b037f000000000000000000000000000000000000000000000000000000000000000016333086610e9e565b8082336001600160a01b03167f240f20813d456c0d1aa6a84704565be4c5a6d518adfc1cda174f3dc94dfa9c968660405161071291815260200190565b60405180910390a46104d760015f805160206113ab83398151915255565b5f805160206113cb83398151915261074781610d09565b61075e5f8051602061138b83398151915283610da2565b506040516001600160a01b03831681527f10e1f7ce9fd7d1b90a66d13a2ab3cb8dd7f29f3f8d520b143b063ccfbab6906b90602001610525565b6107a0610e5d565b6107a8610e78565b5f8051602061138b8339815191526107bf81610d09565b5f8481526008602052604090205460ff161561081d5760405162461bcd60e51b815260206004820152601e60248201527f4272696467655661756c743a20616c72656164792070726f63657373656400006044820152606401610611565b6001600160a01b0383166108735760405162461bcd60e51b815260206004820152601b60248201527f4272696467655661756c743a207a65726f20726563697069656e7400000000006044820152606401610611565b5f82116108c25760405162461bcd60e51b815260206004820152601f60248201527f4272696467655661756c743a20616d6f756e74206d757374206265203e2030006044820152606401610611565b5f84815260076020526040812060028101549091036109005780546001600160a01b0319166001600160a01b03851617815560018101839055610a04565b80546001600160a01b0385811691161461095c5760405162461bcd60e51b815260206004820152601f60248201527f4272696467655661756c743a20726563697069656e74206d69736d61746368006044820152606401610611565b828160010154146109af5760405162461bcd60e51b815260206004820152601c60248201527f4272696467655661756c743a20616d6f756e74206d69736d61746368000000006044820152606401610611565b600381015460ff1615610a045760405162461bcd60e51b815260206004820152601d60248201527f4272696467655661756c743a20616c72656164792065786563757465640000006044820152606401610611565b335f90815260048201602052604090205460ff1615610a7b5760405162461bcd60e51b815260206004820152602d60248201527f4272696467655661756c743a20616c726561647920617070726f76656420627960448201526c103a3434b9903932b630bcb2b960991b6064820152608401610611565b335f9081526004820160205260408120805460ff1916600117905560028201805491610aa68361132d565b9190505550336001600160a01b0316857f212be43d708edbf67cb695de37a3cdc485fa90a6372f1791ebf6b1497ee29f8c8360020154600254604051610af6929190918252602082015260400190565b60405180910390a3600254816002015410610b1557610b158582610ed4565b505061058e60015f805160206113ab83398151915255565b5f805160206113cb833981519152610b4481610d09565b6105b2611056565b5f918252602082815260408084206001600160a01b0393909316845291905290205460ff1690565b5f805160206113cb833981519152610b8b81610d09565b5f8211610be55760405162461bcd60e51b815260206004820152602260248201527f4272696467655661756c743a207468726573686f6c64206d757374206265203e604482015261020360f41b6064820152608401610611565b60025460408051918252602082018490527fb06a54caabe58475c86c2bf9df3f2f06dd1213e9e10659c293117fe4893b274b910160405180910390a150600255565b5f82815260208190526040902060010154610c4181610d09565b6105558383610da2565b5f805160206113cb833981519152610c6281610d09565b6001600160a01b038216610cb85760405162461bcd60e51b815260206004820152601960248201527f4272696467655661756c743a207a65726f2061646472657373000000000000006044820152606401610611565b610ccf5f8051602061138b83398151915283610d13565b506040516001600160a01b03831681527f03580ee9f53a62b7cb409a2cb56f9be87747dd15017afc5cef6eef321e4fb2c590602001610525565b6105b28133611091565b5f610d1e8383610b4c565b610d9b575f838152602081815260408083206001600160a01b03861684529091529020805460ff19166001179055610d533390565b6001600160a01b0316826001600160a01b0316847f2f8788117e7eff1d82e926ec794901d17c78024a50270940304540a733656f0d60405160405180910390a45060016104d7565b505f6104d7565b5f610dad8383610b4c565b15610d9b575f838152602081815260408083206001600160a01b0386168085529252808320805460ff1916905551339286917ff6391f5c32d9c69d2a47ea670b442974b53935d1edc7fd64eb21e047a839171b9190a45060016104d7565b610e136110ce565b6001805460ff191690557f5db9ee0a495bf2e6ff9c91a7834c1ba4fdd244a5e8aa4e537bd38aeae4b073aa335b6040516001600160a01b03909116815260200160405180910390a1565b610e656110f1565b60025f805160206113ab83398151915255565b60015460ff1615610e9c5760405163d93c066560e01b815260040160405180910390fd5b565b610eac848484846001611120565b61055557604051635274afe760e01b81526001600160a01b0385166004820152602401610611565b600381018054600160ff1991821681179092555f84815260086020526040812080549092169092179055610f0b6201518042611358565b9050600654811115610f215760068190555f6005555b6004548260010154600554610f369190611345565b1115610f955760405162461bcd60e51b815260206004820152602860248201527f4272696467655661756c743a206461696c7920756e6c6f636b206c696d697420604482015267195e18d95959195960c21b6064820152608401610611565b816001015460055f828254610faa9190611345565b90915550506001820154600380545f90610fc5908490611377565b909155505081546001830154611009916001600160a01b037f000000000000000000000000000000000000000000000000000000000000000081169291169061118d565b815460018301546040519081526001600160a01b039091169084907ff5561ca90e56855f12004e8905a4a47a9fc395858c8a6cc9762c13df547e1e8f9060200160405180910390a3505050565b61105e610e78565b6001805460ff1916811790557f62e78cea01bee320cd4e420270b5ea74000d11b0c9f74754ebdbfc544b05a25833610e40565b61109b8282610b4c565b6110ca5760405163e2517d3f60e01b81526001600160a01b038216600482015260248101839052604401610611565b5050565b60015460ff16610e9c57604051638dfc202b60e01b815260040160405180910390fd5b5f805160206113ab83398151915254600203610e9c57604051633ee5aeb560e01b815260040160405180910390fd5b6040516323b872dd60e01b5f8181526001600160a01b038781166004528616602452604485905291602083606481808c5af1925060015f5114831661117c578383151615611170573d5f823e3d81fd5b5f883b113d1516831692505b604052505f60605295945050505050565b61119a83838360016111c2565b61058e57604051635274afe760e01b81526001600160a01b0384166004820152602401610611565b60405163a9059cbb60e01b5f8181526001600160a01b038616600452602485905291602083604481808b5af1925060015f5114831661121857838315161561120c573d5f823e3d81fd5b5f873b113d1516831692505b60405250949350505050565b5f60208284031215611234575f80fd5b5035919050565b5f6020828403121561124b575f80fd5b81356001600160e01b031981168114611262575f80fd5b9392505050565b80356001600160a01b038116811461127f575f80fd5b919050565b5f8060408385031215611295575f80fd5b823591506112a560208401611269565b90509250929050565b5f80604083850312156112bf575f80fd5b50508035926020909101359150565b5f602082840312156112de575f80fd5b61126282611269565b5f805f606084860312156112f9575f80fd5b8335925061130960208501611269565b9150604084013590509250925092565b634e487b7160e01b5f52601160045260245ffd5b5f6001820161133e5761133e611319565b5060010190565b808201808211156104d7576104d7611319565b5f8261137257634e487b7160e01b5f52601260045260245ffd5b500490565b818103818111156104d7576104d761131956fee2b7fb3b832174769106daebcfd6d1970523240dda11281102db9363b83b0dc49b779b17422d0df92223018b32b4d1fa46e071723d6817e2486d003becc55f00a49807205ce4d355092ef5a8a18f56e8913cf4a201fbe287825b095693c21775a264697066735822122016dda9f4470d9852fadd4ddf1c062dee068bffd0d9045bb4bb33a2fea722600d64736f6c63430008140033","linkReferences":{}},"methodIdentifiers":{"ADMIN_ROLE()":"75b238fc","DEFAULT_ADMIN_ROLE()":"a217fddf","RELAYER_ROLE()":"926d7d7f","addRelayer(address)":"dd39f00d","approveUnlock(bytes32,address,uint256)":"72827e7c","dailyUnlockLimit()":"639b0e49","dailyUnlockUsed()":"a1921b31","getApprovalCount(bytes32)":"01e8f789","getRoleAdmin(bytes32)":"248a9ca3","grantRole(bytes32,address)":"2f2ff15d","hasRelayerApproved(bytes32,address)":"f62f5365","hasRole(bytes32,address)":"91d14854","isProcessed(bytes32)":"11c16896","lastUnlockDay()":"bedc73c6","lock(uint256,bytes32)":"496a36f2","pause()":"8456cb59","paused()":"5c975abb","processedTxHashes(bytes32)":"2f764644","removeRelayer(address)":"60f0a5ac","renounceRole(bytes32,address)":"36568abe","revokeRole(bytes32,address)":"d547741f","setDailyUnlockLimit(uint256)":"23c7cfc5","setThreshold(uint256)":"960bfe04","supportsInterface(bytes4)":"01ffc9a7","threshold()":"42cde4e8","totalLocked()":"56891412","unlockRequests(bytes32)":"e7017f78","unpause()":"3f4ba83a","usdc()":"3e413bee"},"id":29}